{
	"P2PLending.sol": {
		"MyToken": {
			"abi": [
				{
					"inputs": [],
					"stateMutability": "nonpayable",
					"type": "constructor"
				},
				{
					"anonymous": false,
					"inputs": [
						{
							"indexed": true,
							"internalType": "address",
							"name": "owner",
							"type": "address"
						},
						{
							"indexed": true,
							"internalType": "address",
							"name": "spender",
							"type": "address"
						},
						{
							"indexed": false,
							"internalType": "uint256",
							"name": "value",
							"type": "uint256"
						}
					],
					"name": "Approval",
					"type": "event"
				},
				{
					"anonymous": false,
					"inputs": [
						{
							"indexed": true,
							"internalType": "address",
							"name": "from",
							"type": "address"
						},
						{
							"indexed": true,
							"internalType": "address",
							"name": "to",
							"type": "address"
						},
						{
							"indexed": false,
							"internalType": "uint256",
							"name": "value",
							"type": "uint256"
						}
					],
					"name": "Transfer",
					"type": "event"
				},
				{
					"inputs": [],
					"name": "DOMAIN_SEPARATOR",
					"outputs": [
						{
							"internalType": "bytes32",
							"name": "",
							"type": "bytes32"
						}
					],
					"stateMutability": "view",
					"type": "function"
				},
				{
					"inputs": [
						{
							"internalType": "uint256",
							"name": "_amount",
							"type": "uint256"
						},
						{
							"internalType": "uint256",
							"name": "_deadline",
							"type": "uint256"
						},
						{
							"internalType": "uint8",
							"name": "_v",
							"type": "uint8"
						},
						{
							"internalType": "bytes32",
							"name": "_r",
							"type": "bytes32"
						},
						{
							"internalType": "bytes32",
							"name": "_s",
							"type": "bytes32"
						}
					],
					"name": "RegisterLender",
					"outputs": [
						{
							"internalType": "bool",
							"name": "",
							"type": "bool"
						}
					],
					"stateMutability": "nonpayable",
					"type": "function"
				},
				{
					"inputs": [
						{
							"internalType": "address",
							"name": "owner",
							"type": "address"
						},
						{
							"internalType": "address",
							"name": "spender",
							"type": "address"
						}
					],
					"name": "allowance",
					"outputs": [
						{
							"internalType": "uint256",
							"name": "",
							"type": "uint256"
						}
					],
					"stateMutability": "view",
					"type": "function"
				},
				{
					"inputs": [
						{
							"internalType": "address",
							"name": "spender",
							"type": "address"
						},
						{
							"internalType": "uint256",
							"name": "amount",
							"type": "uint256"
						}
					],
					"name": "approve",
					"outputs": [
						{
							"internalType": "bool",
							"name": "",
							"type": "bool"
						}
					],
					"stateMutability": "nonpayable",
					"type": "function"
				},
				{
					"inputs": [
						{
							"internalType": "address",
							"name": "account",
							"type": "address"
						}
					],
					"name": "balanceOf",
					"outputs": [
						{
							"internalType": "uint256",
							"name": "",
							"type": "uint256"
						}
					],
					"stateMutability": "view",
					"type": "function"
				},
				{
					"inputs": [
						{
							"internalType": "address",
							"name": "",
							"type": "address"
						}
					],
					"name": "borrowedAmount",
					"outputs": [
						{
							"internalType": "uint256",
							"name": "",
							"type": "uint256"
						}
					],
					"stateMutability": "view",
					"type": "function"
				},
				{
					"inputs": [],
					"name": "decimals",
					"outputs": [
						{
							"internalType": "uint8",
							"name": "",
							"type": "uint8"
						}
					],
					"stateMutability": "view",
					"type": "function"
				},
				{
					"inputs": [
						{
							"internalType": "address",
							"name": "spender",
							"type": "address"
						},
						{
							"internalType": "uint256",
							"name": "subtractedValue",
							"type": "uint256"
						}
					],
					"name": "decreaseAllowance",
					"outputs": [
						{
							"internalType": "bool",
							"name": "",
							"type": "bool"
						}
					],
					"stateMutability": "nonpayable",
					"type": "function"
				},
				{
					"inputs": [
						{
							"internalType": "address",
							"name": "spender",
							"type": "address"
						},
						{
							"internalType": "uint256",
							"name": "addedValue",
							"type": "uint256"
						}
					],
					"name": "increaseAllowance",
					"outputs": [
						{
							"internalType": "bool",
							"name": "",
							"type": "bool"
						}
					],
					"stateMutability": "nonpayable",
					"type": "function"
				},
				{
					"inputs": [
						{
							"internalType": "address",
							"name": "",
							"type": "address"
						}
					],
					"name": "lendedAmount",
					"outputs": [
						{
							"internalType": "uint256",
							"name": "",
							"type": "uint256"
						}
					],
					"stateMutability": "view",
					"type": "function"
				},
				{
					"inputs": [
						{
							"internalType": "address",
							"name": "to",
							"type": "address"
						},
						{
							"internalType": "uint256",
							"name": "value",
							"type": "uint256"
						}
					],
					"name": "mint",
					"outputs": [],
					"stateMutability": "nonpayable",
					"type": "function"
				},
				{
					"inputs": [],
					"name": "name",
					"outputs": [
						{
							"internalType": "string",
							"name": "",
							"type": "string"
						}
					],
					"stateMutability": "view",
					"type": "function"
				},
				{
					"inputs": [
						{
							"internalType": "address",
							"name": "owner",
							"type": "address"
						}
					],
					"name": "nonces",
					"outputs": [
						{
							"internalType": "uint256",
							"name": "",
							"type": "uint256"
						}
					],
					"stateMutability": "view",
					"type": "function"
				},
				{
					"inputs": [
						{
							"internalType": "address",
							"name": "owner",
							"type": "address"
						},
						{
							"internalType": "address",
							"name": "spender",
							"type": "address"
						},
						{
							"internalType": "uint256",
							"name": "value",
							"type": "uint256"
						},
						{
							"internalType": "uint256",
							"name": "deadline",
							"type": "uint256"
						},
						{
							"internalType": "uint8",
							"name": "v",
							"type": "uint8"
						},
						{
							"internalType": "bytes32",
							"name": "r",
							"type": "bytes32"
						},
						{
							"internalType": "bytes32",
							"name": "s",
							"type": "bytes32"
						}
					],
					"name": "permit",
					"outputs": [],
					"stateMutability": "nonpayable",
					"type": "function"
				},
				{
					"inputs": [],
					"name": "symbol",
					"outputs": [
						{
							"internalType": "string",
							"name": "",
							"type": "string"
						}
					],
					"stateMutability": "view",
					"type": "function"
				},
				{
					"inputs": [
						{
							"internalType": "address",
							"name": "_from",
							"type": "address"
						},
						{
							"internalType": "address",
							"name": "_to",
							"type": "address"
						},
						{
							"internalType": "uint256",
							"name": "_amount",
							"type": "uint256"
						}
					],
					"name": "testTransfer",
					"outputs": [],
					"stateMutability": "nonpayable",
					"type": "function"
				},
				{
					"inputs": [],
					"name": "totalSupply",
					"outputs": [
						{
							"internalType": "uint256",
							"name": "",
							"type": "uint256"
						}
					],
					"stateMutability": "view",
					"type": "function"
				},
				{
					"inputs": [
						{
							"internalType": "address",
							"name": "to",
							"type": "address"
						},
						{
							"internalType": "uint256",
							"name": "amount",
							"type": "uint256"
						}
					],
					"name": "transfer",
					"outputs": [
						{
							"internalType": "bool",
							"name": "",
							"type": "bool"
						}
					],
					"stateMutability": "nonpayable",
					"type": "function"
				},
				{
					"inputs": [
						{
							"internalType": "address",
							"name": "from",
							"type": "address"
						},
						{
							"internalType": "address",
							"name": "to",
							"type": "address"
						},
						{
							"internalType": "uint256",
							"name": "amount",
							"type": "uint256"
						}
					],
					"name": "transferFrom",
					"outputs": [
						{
							"internalType": "bool",
							"name": "",
							"type": "bool"
						}
					],
					"stateMutability": "nonpayable",
					"type": "function"
				},
				{
					"inputs": [
						{
							"internalType": "address",
							"name": "_from",
							"type": "address"
						},
						{
							"internalType": "address",
							"name": "_to",
							"type": "address"
						},
						{
							"internalType": "uint256",
							"name": "_amount",
							"type": "uint256"
						}
					],
					"name": "transferToAddr",
					"outputs": [],
					"stateMutability": "nonpayable",
					"type": "function"
				},
				{
					"inputs": [
						{
							"internalType": "address",
							"name": "_from",
							"type": "address"
						},
						{
							"internalType": "uint256",
							"name": "_amount",
							"type": "uint256"
						}
					],
					"name": "transfertoContract",
					"outputs": [],
					"stateMutability": "nonpayable",
					"type": "function"
				}
			],
			"devdoc": {
				"events": {
					"Approval(address,address,uint256)": {
						"details": "Emitted when the allowance of a `spender` for an `owner` is set by a call to {approve}. `value` is the new allowance."
					},
					"Transfer(address,address,uint256)": {
						"details": "Emitted when `value` tokens are moved from one account (`from`) to another (`to`). Note that `value` may be zero."
					}
				},
				"kind": "dev",
				"methods": {
					"DOMAIN_SEPARATOR()": {
						"details": "See {IERC20Permit-DOMAIN_SEPARATOR}."
					},
					"allowance(address,address)": {
						"details": "See {IERC20-allowance}."
					},
					"approve(address,uint256)": {
						"details": "See {IERC20-approve}. NOTE: If `amount` is the maximum `uint256`, the allowance is not updated on `transferFrom`. This is semantically equivalent to an infinite approval. Requirements: - `spender` cannot be the zero address."
					},
					"balanceOf(address)": {
						"details": "See {IERC20-balanceOf}."
					},
					"decimals()": {
						"details": "Returns the number of decimals used to get its user representation. For example, if `decimals` equals `2`, a balance of `505` tokens should be displayed to a user as `5.05` (`505 / 10 ** 2`). Tokens usually opt for a value of 18, imitating the relationship between Ether and Wei. This is the value {ERC20} uses, unless this function is overridden; NOTE: This information is only used for _display_ purposes: it in no way affects any of the arithmetic of the contract, including {IERC20-balanceOf} and {IERC20-transfer}."
					},
					"decreaseAllowance(address,uint256)": {
						"details": "Atomically decreases the allowance granted to `spender` by the caller. This is an alternative to {approve} that can be used as a mitigation for problems described in {IERC20-approve}. Emits an {Approval} event indicating the updated allowance. Requirements: - `spender` cannot be the zero address. - `spender` must have allowance for the caller of at least `subtractedValue`."
					},
					"increaseAllowance(address,uint256)": {
						"details": "Atomically increases the allowance granted to `spender` by the caller. This is an alternative to {approve} that can be used as a mitigation for problems described in {IERC20-approve}. Emits an {Approval} event indicating the updated allowance. Requirements: - `spender` cannot be the zero address."
					},
					"name()": {
						"details": "Returns the name of the token."
					},
					"nonces(address)": {
						"details": "See {IERC20Permit-nonces}."
					},
					"permit(address,address,uint256,uint256,uint8,bytes32,bytes32)": {
						"details": "See {IERC20Permit-permit}."
					},
					"symbol()": {
						"details": "Returns the symbol of the token, usually a shorter version of the name."
					},
					"totalSupply()": {
						"details": "See {IERC20-totalSupply}."
					},
					"transfer(address,uint256)": {
						"details": "See {IERC20-transfer}. Requirements: - `to` cannot be the zero address. - the caller must have a balance of at least `amount`."
					},
					"transferFrom(address,address,uint256)": {
						"details": "See {IERC20-transferFrom}. Emits an {Approval} event indicating the updated allowance. This is not required by the EIP. See the note at the beginning of {ERC20}. NOTE: Does not update the allowance if the current allowance is the maximum `uint256`. Requirements: - `from` and `to` cannot be the zero address. - `from` must have a balance of at least `amount`. - the caller must have allowance for ``from``'s tokens of at least `amount`."
					}
				},
				"version": 1
			},
			"evm": {
				"assembly": "    /* \"P2PLending.sol\":205:1617  contract MyToken is ERC20, ERC20Permit {... */\n  mstore(0x40, 0x0140)\n    /* \"P2PLending.sol\":250:313  constructor() ERC20(\"MyToken\", \"MTK\") ERC20Permit(\"MyToken\") {} */\n  callvalue\n  dup1\n  iszero\n  tag_1\n  jumpi\n  0x00\n  dup1\n  revert\ntag_1:\n  pop\n    /* \"@openzeppelin/contracts@4.7.3/token/ERC20/extensions/draft-ERC20Permit.sol\":1835:1887  constructor(string memory name) EIP712(name, \"1\") {} */\n  mload(0x40)\n  dup1\n  0x40\n  add\n  0x40\n  mstore\n  dup1\n  0x07\n  dup2\n  mstore\n  0x20\n  add\n  0x4d79546f6b656e00000000000000000000000000000000000000000000000000\n  dup2\n  mstore\n  pop\n    /* \"@openzeppelin/contracts@4.7.3/token/ERC20/extensions/draft-ERC20Permit.sol\":1874:1878  name */\n  dup1\n    /* \"@openzeppelin/contracts@4.7.3/utils/cryptography/draft-EIP712.sol\":2455:3057  constructor(string memory name, string memory version) {... */\n  mload(0x40)\n  dup1\n  0x40\n  add\n  0x40\n  mstore\n  dup1\n  0x01\n  dup2\n  mstore\n  0x20\n  add\n  0x3100000000000000000000000000000000000000000000000000000000000000\n  dup2\n  mstore\n  pop\n    /* \"@openzeppelin/contracts@4.7.3/token/ERC20/ERC20.sol\":1978:2091  constructor(string memory name_, string memory symbol_) {... */\n  mload(0x40)\n  dup1\n  0x40\n  add\n  0x40\n  mstore\n  dup1\n  0x07\n  dup2\n  mstore\n  0x20\n  add\n  0x4d79546f6b656e00000000000000000000000000000000000000000000000000\n  dup2\n  mstore\n  pop\n  mload(0x40)\n  dup1\n  0x40\n  add\n  0x40\n  mstore\n  dup1\n  0x03\n  dup2\n  mstore\n  0x20\n  add\n  0x4d544b0000000000000000000000000000000000000000000000000000000000\n  dup2\n  mstore\n  pop\n    /* \"@openzeppelin/contracts@4.7.3/token/ERC20/ERC20.sol\":2052:2057  name_ */\n  dup2\n    /* \"@openzeppelin/contracts@4.7.3/token/ERC20/ERC20.sol\":2044:2049  _name */\n  0x03\n    /* \"@openzeppelin/contracts@4.7.3/token/ERC20/ERC20.sol\":2044:2057  _name = name_ */\n  swap1\n  dup2\n  tag_7\n  swap2\n  swap1\n  tag_8\n  jump\t// in\ntag_7:\n  pop\n    /* \"@openzeppelin/contracts@4.7.3/token/ERC20/ERC20.sol\":2077:2084  symbol_ */\n  dup1\n    /* \"@openzeppelin/contracts@4.7.3/token/ERC20/ERC20.sol\":2067:2074  _symbol */\n  0x04\n    /* \"@openzeppelin/contracts@4.7.3/token/ERC20/ERC20.sol\":2067:2084  _symbol = symbol_ */\n  swap1\n  dup2\n  tag_9\n  swap2\n  swap1\n  tag_8\n  jump\t// in\ntag_9:\n  pop\n    /* \"@openzeppelin/contracts@4.7.3/token/ERC20/ERC20.sol\":1978:2091  constructor(string memory name_, string memory symbol_) {... */\n  pop\n  pop\n    /* \"@openzeppelin/contracts@4.7.3/utils/cryptography/draft-EIP712.sol\":2520:2538  bytes32 hashedName */\n  0x00\n    /* \"@openzeppelin/contracts@4.7.3/utils/cryptography/draft-EIP712.sol\":2557:2561  name */\n  dup3\n    /* \"@openzeppelin/contracts@4.7.3/utils/cryptography/draft-EIP712.sol\":2541:2563  keccak256(bytes(name)) */\n  dup1\n  mload\n  swap1\n  0x20\n  add\n  keccak256\n    /* \"@openzeppelin/contracts@4.7.3/utils/cryptography/draft-EIP712.sol\":2520:2563  bytes32 hashedName = keccak256(bytes(name)) */\n  swap1\n  pop\n    /* \"@openzeppelin/contracts@4.7.3/utils/cryptography/draft-EIP712.sol\":2573:2594  bytes32 hashedVersion */\n  0x00\n    /* \"@openzeppelin/contracts@4.7.3/utils/cryptography/draft-EIP712.sol\":2613:2620  version */\n  dup3\n    /* \"@openzeppelin/contracts@4.7.3/utils/cryptography/draft-EIP712.sol\":2597:2622  keccak256(bytes(version)) */\n  dup1\n  mload\n  swap1\n  0x20\n  add\n  keccak256\n    /* \"@openzeppelin/contracts@4.7.3/utils/cryptography/draft-EIP712.sol\":2573:2622  bytes32 hashedVersion = keccak256(bytes(version)) */\n  swap1\n  pop\n    /* \"@openzeppelin/contracts@4.7.3/utils/cryptography/draft-EIP712.sol\":2632:2648  bytes32 typeHash */\n  0x00\n    /* \"@openzeppelin/contracts@4.7.3/utils/cryptography/draft-EIP712.sol\":2651:2768  keccak256(... */\n  0x8b73c3c69bb8fe3d512ecc4cf759cc79239f7b179b0ffacaa9a75d522b39400f\n    /* \"@openzeppelin/contracts@4.7.3/utils/cryptography/draft-EIP712.sol\":2632:2768  bytes32 typeHash = keccak256(... */\n  swap1\n  pop\n    /* \"@openzeppelin/contracts@4.7.3/utils/cryptography/draft-EIP712.sol\":2793:2803  hashedName */\n  dup3\n    /* \"@openzeppelin/contracts@4.7.3/utils/cryptography/draft-EIP712.sol\":2778:2803  _HASHED_NAME = hashedName */\n  0xe0\n  dup2\n  dup2\n  mstore\n  pop\n  pop\n    /* \"@openzeppelin/contracts@4.7.3/utils/cryptography/draft-EIP712.sol\":2831:2844  hashedVersion */\n  dup2\n    /* \"@openzeppelin/contracts@4.7.3/utils/cryptography/draft-EIP712.sol\":2813:2844  _HASHED_VERSION = hashedVersion */\n  0x0100\n  dup2\n  dup2\n  mstore\n  pop\n  pop\n    /* \"@openzeppelin/contracts@4.7.3/utils/cryptography/draft-EIP712.sol\":2873:2886  block.chainid */\n  chainid\n    /* \"@openzeppelin/contracts@4.7.3/utils/cryptography/draft-EIP712.sol\":2854:2886  _CACHED_CHAIN_ID = block.chainid */\n  0xa0\n  dup2\n  dup2\n  mstore\n  pop\n  pop\n    /* \"@openzeppelin/contracts@4.7.3/utils/cryptography/draft-EIP712.sol\":2923:2981  _buildDomainSeparator(typeHash, hashedName, hashedVersion) */\n  tag_11\n    /* \"@openzeppelin/contracts@4.7.3/utils/cryptography/draft-EIP712.sol\":2945:2953  typeHash */\n  dup2\n    /* \"@openzeppelin/contracts@4.7.3/utils/cryptography/draft-EIP712.sol\":2955:2965  hashedName */\n  dup5\n    /* \"@openzeppelin/contracts@4.7.3/utils/cryptography/draft-EIP712.sol\":2967:2980  hashedVersion */\n  dup5\n    /* \"@openzeppelin/contracts@4.7.3/utils/cryptography/draft-EIP712.sol\":2923:2944  _buildDomainSeparator */\n  shl(0x20, tag_12)\n    /* \"@openzeppelin/contracts@4.7.3/utils/cryptography/draft-EIP712.sol\":2923:2981  _buildDomainSeparator(typeHash, hashedName, hashedVersion) */\n  0x20\n  shr\n  jump\t// in\ntag_11:\n    /* \"@openzeppelin/contracts@4.7.3/utils/cryptography/draft-EIP712.sol\":2896:2981  _CACHED_DOMAIN_SEPARATOR = _buildDomainSeparator(typeHash, hashedName, hashedVersion) */\n  0x80\n  dup2\n  dup2\n  mstore\n  pop\n  pop\n    /* \"@openzeppelin/contracts@4.7.3/utils/cryptography/draft-EIP712.sol\":3014:3018  this */\n  address\n    /* \"@openzeppelin/contracts@4.7.3/utils/cryptography/draft-EIP712.sol\":2991:3019  _CACHED_THIS = address(this) */\n  0xffffffffffffffffffffffffffffffffffffffff\n  and\n  0xc0\n  dup2\n  0xffffffffffffffffffffffffffffffffffffffff\n  and\n  dup2\n  mstore\n  pop\n  pop\n    /* \"@openzeppelin/contracts@4.7.3/utils/cryptography/draft-EIP712.sol\":3042:3050  typeHash */\n  dup1\n    /* \"@openzeppelin/contracts@4.7.3/utils/cryptography/draft-EIP712.sol\":3029:3050  _TYPE_HASH = typeHash */\n  0x0120\n  dup2\n  dup2\n  mstore\n  pop\n  pop\n    /* \"@openzeppelin/contracts@4.7.3/utils/cryptography/draft-EIP712.sol\":2510:3057  {... */\n  pop\n  pop\n  pop\n    /* \"@openzeppelin/contracts@4.7.3/utils/cryptography/draft-EIP712.sol\":2455:3057  constructor(string memory name, string memory version) {... */\n  pop\n  pop\n    /* \"@openzeppelin/contracts@4.7.3/token/ERC20/extensions/draft-ERC20Permit.sol\":1835:1887  constructor(string memory name) EIP712(name, \"1\") {} */\n  pop\n    /* \"P2PLending.sol\":205:1617  contract MyToken is ERC20, ERC20Permit {... */\n  jump(tag_15)\n    /* \"@openzeppelin/contracts@4.7.3/utils/cryptography/draft-EIP712.sol\":3457:3714  function _buildDomainSeparator(... */\ntag_12:\n    /* \"@openzeppelin/contracts@4.7.3/utils/cryptography/draft-EIP712.sol\":3597:3604  bytes32 */\n  0x00\n    /* \"@openzeppelin/contracts@4.7.3/utils/cryptography/draft-EIP712.sol\":3644:3652  typeHash */\n  dup4\n    /* \"@openzeppelin/contracts@4.7.3/utils/cryptography/draft-EIP712.sol\":3654:3662  nameHash */\n  dup4\n    /* \"@openzeppelin/contracts@4.7.3/utils/cryptography/draft-EIP712.sol\":3664:3675  versionHash */\n  dup4\n    /* \"@openzeppelin/contracts@4.7.3/utils/cryptography/draft-EIP712.sol\":3677:3690  block.chainid */\n  chainid\n    /* \"@openzeppelin/contracts@4.7.3/utils/cryptography/draft-EIP712.sol\":3700:3704  this */\n  address\n    /* \"@openzeppelin/contracts@4.7.3/utils/cryptography/draft-EIP712.sol\":3633:3706  abi.encode(typeHash, nameHash, versionHash, block.chainid, address(this)) */\n  add(0x20, mload(0x40))\n  tag_17\n  swap6\n  swap5\n  swap4\n  swap3\n  swap2\n  swap1\n  tag_18\n  jump\t// in\ntag_17:\n  mload(0x40)\n  0x20\n  dup2\n  dup4\n  sub\n  sub\n  dup2\n  mstore\n  swap1\n  0x40\n  mstore\n    /* \"@openzeppelin/contracts@4.7.3/utils/cryptography/draft-EIP712.sol\":3623:3707  keccak256(abi.encode(typeHash, nameHash, versionHash, block.chainid, address(this))) */\n  dup1\n  mload\n  swap1\n  0x20\n  add\n  keccak256\n    /* \"@openzeppelin/contracts@4.7.3/utils/cryptography/draft-EIP712.sol\":3616:3707  return keccak256(abi.encode(typeHash, nameHash, versionHash, block.chainid, address(this))) */\n  swap1\n  pop\n    /* \"@openzeppelin/contracts@4.7.3/utils/cryptography/draft-EIP712.sol\":3457:3714  function _buildDomainSeparator(... */\n  swap4\n  swap3\n  pop\n  pop\n  pop\n  jump\t// out\n    /* \"#utility.yul\":7:106   */\ntag_19:\n    /* \"#utility.yul\":59:65   */\n  0x00\n    /* \"#utility.yul\":93:98   */\n  dup2\n    /* \"#utility.yul\":87:99   */\n  mload\n    /* \"#utility.yul\":77:99   */\n  swap1\n  pop\n    /* \"#utility.yul\":7:106   */\n  swap2\n  swap1\n  pop\n  jump\t// out\n    /* \"#utility.yul\":112:292   */\ntag_20:\n    /* \"#utility.yul\":160:237   */\n  0x4e487b7100000000000000000000000000000000000000000000000000000000\n    /* \"#utility.yul\":157:158   */\n  0x00\n    /* \"#utility.yul\":150:238   */\n  mstore\n    /* \"#utility.yul\":257:261   */\n  0x41\n    /* \"#utility.yul\":254:255   */\n  0x04\n    /* \"#utility.yul\":247:262   */\n  mstore\n    /* \"#utility.yul\":281:285   */\n  0x24\n    /* \"#utility.yul\":278:279   */\n  0x00\n    /* \"#utility.yul\":271:286   */\n  revert\n    /* \"#utility.yul\":298:478   */\ntag_21:\n    /* \"#utility.yul\":346:423   */\n  0x4e487b7100000000000000000000000000000000000000000000000000000000\n    /* \"#utility.yul\":343:344   */\n  0x00\n    /* \"#utility.yul\":336:424   */\n  mstore\n    /* \"#utility.yul\":443:447   */\n  0x22\n    /* \"#utility.yul\":440:441   */\n  0x04\n    /* \"#utility.yul\":433:448   */\n  mstore\n    /* \"#utility.yul\":467:471   */\n  0x24\n    /* \"#utility.yul\":464:465   */\n  0x00\n    /* \"#utility.yul\":457:472   */\n  revert\n    /* \"#utility.yul\":484:804   */\ntag_22:\n    /* \"#utility.yul\":528:534   */\n  0x00\n    /* \"#utility.yul\":565:566   */\n  0x02\n    /* \"#utility.yul\":559:563   */\n  dup3\n    /* \"#utility.yul\":555:567   */\n  div\n    /* \"#utility.yul\":545:567   */\n  swap1\n  pop\n    /* \"#utility.yul\":612:613   */\n  0x01\n    /* \"#utility.yul\":606:610   */\n  dup3\n    /* \"#utility.yul\":602:614   */\n  and\n    /* \"#utility.yul\":633:651   */\n  dup1\n    /* \"#utility.yul\":623:704   */\n  tag_50\n  jumpi\n    /* \"#utility.yul\":689:693   */\n  0x7f\n    /* \"#utility.yul\":681:687   */\n  dup3\n    /* \"#utility.yul\":677:694   */\n  and\n    /* \"#utility.yul\":667:694   */\n  swap2\n  pop\n    /* \"#utility.yul\":623:704   */\ntag_50:\n    /* \"#utility.yul\":751:753   */\n  0x20\n    /* \"#utility.yul\":743:749   */\n  dup3\n    /* \"#utility.yul\":740:754   */\n  lt\n    /* \"#utility.yul\":720:738   */\n  dup2\n    /* \"#utility.yul\":717:755   */\n  sub\n    /* \"#utility.yul\":714:798   */\n  tag_51\n  jumpi\n    /* \"#utility.yul\":770:788   */\n  tag_52\n  tag_21\n  jump\t// in\ntag_52:\n    /* \"#utility.yul\":714:798   */\ntag_51:\n    /* \"#utility.yul\":535:804   */\n  pop\n    /* \"#utility.yul\":484:804   */\n  swap2\n  swap1\n  pop\n  jump\t// out\n    /* \"#utility.yul\":810:951   */\ntag_23:\n    /* \"#utility.yul\":859:863   */\n  0x00\n    /* \"#utility.yul\":882:885   */\n  dup2\n    /* \"#utility.yul\":874:885   */\n  swap1\n  pop\n    /* \"#utility.yul\":905:908   */\n  dup2\n    /* \"#utility.yul\":902:903   */\n  0x00\n    /* \"#utility.yul\":895:909   */\n  mstore\n    /* \"#utility.yul\":939:943   */\n  0x20\n    /* \"#utility.yul\":936:937   */\n  0x00\n    /* \"#utility.yul\":926:944   */\n  keccak256\n    /* \"#utility.yul\":918:944   */\n  swap1\n  pop\n    /* \"#utility.yul\":810:951   */\n  swap2\n  swap1\n  pop\n  jump\t// out\n    /* \"#utility.yul\":957:1050   */\ntag_24:\n    /* \"#utility.yul\":994:1000   */\n  0x00\n    /* \"#utility.yul\":1041:1043   */\n  0x20\n    /* \"#utility.yul\":1036:1038   */\n  0x1f\n    /* \"#utility.yul\":1029:1034   */\n  dup4\n    /* \"#utility.yul\":1025:1039   */\n  add\n    /* \"#utility.yul\":1021:1044   */\n  div\n    /* \"#utility.yul\":1011:1044   */\n  swap1\n  pop\n    /* \"#utility.yul\":957:1050   */\n  swap2\n  swap1\n  pop\n  jump\t// out\n    /* \"#utility.yul\":1056:1163   */\ntag_25:\n    /* \"#utility.yul\":1100:1108   */\n  0x00\n    /* \"#utility.yul\":1150:1155   */\n  dup3\n    /* \"#utility.yul\":1144:1148   */\n  dup3\n    /* \"#utility.yul\":1140:1156   */\n  shl\n    /* \"#utility.yul\":1119:1156   */\n  swap1\n  pop\n    /* \"#utility.yul\":1056:1163   */\n  swap3\n  swap2\n  pop\n  pop\n  jump\t// out\n    /* \"#utility.yul\":1169:1562   */\ntag_26:\n    /* \"#utility.yul\":1238:1244   */\n  0x00\n    /* \"#utility.yul\":1288:1289   */\n  0x08\n    /* \"#utility.yul\":1276:1286   */\n  dup4\n    /* \"#utility.yul\":1272:1290   */\n  mul\n    /* \"#utility.yul\":1311:1408   */\n  tag_57\n    /* \"#utility.yul\":1341:1407   */\n  0xffffffffffffffffffffffffffffffffffffffffffffffffffffffffffffffff\n    /* \"#utility.yul\":1330:1339   */\n  dup3\n    /* \"#utility.yul\":1311:1408   */\n  tag_25\n  jump\t// in\ntag_57:\n    /* \"#utility.yul\":1429:1468   */\n  tag_58\n    /* \"#utility.yul\":1459:1467   */\n  dup7\n    /* \"#utility.yul\":1448:1457   */\n  dup4\n    /* \"#utility.yul\":1429:1468   */\n  tag_25\n  jump\t// in\ntag_58:\n    /* \"#utility.yul\":1417:1468   */\n  swap6\n  pop\n    /* \"#utility.yul\":1501:1505   */\n  dup1\n    /* \"#utility.yul\":1497:1506   */\n  not\n    /* \"#utility.yul\":1490:1495   */\n  dup5\n    /* \"#utility.yul\":1486:1507   */\n  and\n    /* \"#utility.yul\":1477:1507   */\n  swap4\n  pop\n    /* \"#utility.yul\":1550:1554   */\n  dup1\n    /* \"#utility.yul\":1540:1548   */\n  dup7\n    /* \"#utility.yul\":1536:1555   */\n  and\n    /* \"#utility.yul\":1529:1534   */\n  dup5\n    /* \"#utility.yul\":1526:1556   */\n  or\n    /* \"#utility.yul\":1516:1556   */\n  swap3\n  pop\n    /* \"#utility.yul\":1245:1562   */\n  pop\n  pop\n    /* \"#utility.yul\":1169:1562   */\n  swap4\n  swap3\n  pop\n  pop\n  pop\n  jump\t// out\n    /* \"#utility.yul\":1568:1645   */\ntag_27:\n    /* \"#utility.yul\":1605:1612   */\n  0x00\n    /* \"#utility.yul\":1634:1639   */\n  dup2\n    /* \"#utility.yul\":1623:1639   */\n  swap1\n  pop\n    /* \"#utility.yul\":1568:1645   */\n  swap2\n  swap1\n  pop\n  jump\t// out\n    /* \"#utility.yul\":1651:1711   */\ntag_28:\n    /* \"#utility.yul\":1679:1682   */\n  0x00\n    /* \"#utility.yul\":1700:1705   */\n  dup2\n    /* \"#utility.yul\":1693:1705   */\n  swap1\n  pop\n    /* \"#utility.yul\":1651:1711   */\n  swap2\n  swap1\n  pop\n  jump\t// out\n    /* \"#utility.yul\":1717:1859   */\ntag_29:\n    /* \"#utility.yul\":1767:1776   */\n  0x00\n    /* \"#utility.yul\":1800:1853   */\n  tag_62\n    /* \"#utility.yul\":1818:1852   */\n  tag_63\n    /* \"#utility.yul\":1827:1851   */\n  tag_64\n    /* \"#utility.yul\":1845:1850   */\n  dup5\n    /* \"#utility.yul\":1827:1851   */\n  tag_27\n  jump\t// in\ntag_64:\n    /* \"#utility.yul\":1818:1852   */\n  tag_28\n  jump\t// in\ntag_63:\n    /* \"#utility.yul\":1800:1853   */\n  tag_27\n  jump\t// in\ntag_62:\n    /* \"#utility.yul\":1787:1853   */\n  swap1\n  pop\n    /* \"#utility.yul\":1717:1859   */\n  swap2\n  swap1\n  pop\n  jump\t// out\n    /* \"#utility.yul\":1865:1940   */\ntag_30:\n    /* \"#utility.yul\":1908:1911   */\n  0x00\n    /* \"#utility.yul\":1929:1934   */\n  dup2\n    /* \"#utility.yul\":1922:1934   */\n  swap1\n  pop\n    /* \"#utility.yul\":1865:1940   */\n  swap2\n  swap1\n  pop\n  jump\t// out\n    /* \"#utility.yul\":1946:2215   */\ntag_31:\n    /* \"#utility.yul\":2056:2095   */\n  tag_67\n    /* \"#utility.yul\":2087:2094   */\n  dup4\n    /* \"#utility.yul\":2056:2095   */\n  tag_29\n  jump\t// in\ntag_67:\n    /* \"#utility.yul\":2117:2208   */\n  tag_68\n    /* \"#utility.yul\":2166:2207   */\n  tag_69\n    /* \"#utility.yul\":2190:2206   */\n  dup3\n    /* \"#utility.yul\":2166:2207   */\n  tag_30\n  jump\t// in\ntag_69:\n    /* \"#utility.yul\":2158:2164   */\n  dup5\n    /* \"#utility.yul\":2151:2155   */\n  dup5\n    /* \"#utility.yul\":2145:2156   */\n  sload\n    /* \"#utility.yul\":2117:2208   */\n  tag_26\n  jump\t// in\ntag_68:\n    /* \"#utility.yul\":2111:2115   */\n  dup3\n    /* \"#utility.yul\":2104:2209   */\n  sstore\n    /* \"#utility.yul\":2022:2215   */\n  pop\n    /* \"#utility.yul\":1946:2215   */\n  pop\n  pop\n  pop\n  jump\t// out\n    /* \"#utility.yul\":2221:2294   */\ntag_32:\n    /* \"#utility.yul\":2266:2269   */\n  0x00\n    /* \"#utility.yul\":2221:2294   */\n  swap1\n  jump\t// out\n    /* \"#utility.yul\":2300:2489   */\ntag_33:\n    /* \"#utility.yul\":2377:2409   */\n  tag_72\n  tag_32\n  jump\t// in\ntag_72:\n    /* \"#utility.yul\":2418:2483   */\n  tag_73\n    /* \"#utility.yul\":2476:2482   */\n  dup2\n    /* \"#utility.yul\":2468:2474   */\n  dup5\n    /* \"#utility.yul\":2462:2466   */\n  dup5\n    /* \"#utility.yul\":2418:2483   */\n  tag_31\n  jump\t// in\ntag_73:\n    /* \"#utility.yul\":2353:2489   */\n  pop\n    /* \"#utility.yul\":2300:2489   */\n  pop\n  pop\n  jump\t// out\n    /* \"#utility.yul\":2495:2681   */\ntag_34:\n    /* \"#utility.yul\":2555:2675   */\ntag_75:\n    /* \"#utility.yul\":2572:2575   */\n  dup2\n    /* \"#utility.yul\":2565:2570   */\n  dup2\n    /* \"#utility.yul\":2562:2576   */\n  lt\n    /* \"#utility.yul\":2555:2675   */\n  iszero\n  tag_77\n  jumpi\n    /* \"#utility.yul\":2626:2665   */\n  tag_78\n    /* \"#utility.yul\":2663:2664   */\n  0x00\n    /* \"#utility.yul\":2656:2661   */\n  dup3\n    /* \"#utility.yul\":2626:2665   */\n  tag_33\n  jump\t// in\ntag_78:\n    /* \"#utility.yul\":2599:2600   */\n  0x01\n    /* \"#utility.yul\":2592:2597   */\n  dup2\n    /* \"#utility.yul\":2588:2601   */\n  add\n    /* \"#utility.yul\":2579:2601   */\n  swap1\n  pop\n    /* \"#utility.yul\":2555:2675   */\n  jump(tag_75)\ntag_77:\n    /* \"#utility.yul\":2495:2681   */\n  pop\n  pop\n  jump\t// out\n    /* \"#utility.yul\":2687:3230   */\ntag_35:\n    /* \"#utility.yul\":2788:2790   */\n  0x1f\n    /* \"#utility.yul\":2783:2786   */\n  dup3\n    /* \"#utility.yul\":2780:2791   */\n  gt\n    /* \"#utility.yul\":2777:3223   */\n  iszero\n  tag_80\n  jumpi\n    /* \"#utility.yul\":2822:2860   */\n  tag_81\n    /* \"#utility.yul\":2854:2859   */\n  dup2\n    /* \"#utility.yul\":2822:2860   */\n  tag_23\n  jump\t// in\ntag_81:\n    /* \"#utility.yul\":2906:2935   */\n  tag_82\n    /* \"#utility.yul\":2924:2934   */\n  dup5\n    /* \"#utility.yul\":2906:2935   */\n  tag_24\n  jump\t// in\ntag_82:\n    /* \"#utility.yul\":2896:2904   */\n  dup2\n    /* \"#utility.yul\":2892:2936   */\n  add\n    /* \"#utility.yul\":3089:3091   */\n  0x20\n    /* \"#utility.yul\":3077:3087   */\n  dup6\n    /* \"#utility.yul\":3074:3092   */\n  lt\n    /* \"#utility.yul\":3071:3120   */\n  iszero\n  tag_83\n  jumpi\n    /* \"#utility.yul\":3110:3118   */\n  dup2\n    /* \"#utility.yul\":3095:3118   */\n  swap1\n  pop\n    /* \"#utility.yul\":3071:3120   */\ntag_83:\n    /* \"#utility.yul\":3133:3213   */\n  tag_84\n    /* \"#utility.yul\":3189:3211   */\n  tag_85\n    /* \"#utility.yul\":3207:3210   */\n  dup6\n    /* \"#utility.yul\":3189:3211   */\n  tag_24\n  jump\t// in\ntag_85:\n    /* \"#utility.yul\":3179:3187   */\n  dup4\n    /* \"#utility.yul\":3175:3212   */\n  add\n    /* \"#utility.yul\":3162:3173   */\n  dup3\n    /* \"#utility.yul\":3133:3213   */\n  tag_34\n  jump\t// in\ntag_84:\n    /* \"#utility.yul\":2792:3223   */\n  pop\n  pop\n    /* \"#utility.yul\":2777:3223   */\ntag_80:\n    /* \"#utility.yul\":2687:3230   */\n  pop\n  pop\n  pop\n  jump\t// out\n    /* \"#utility.yul\":3236:3353   */\ntag_36:\n    /* \"#utility.yul\":3290:3298   */\n  0x00\n    /* \"#utility.yul\":3340:3345   */\n  dup3\n    /* \"#utility.yul\":3334:3338   */\n  dup3\n    /* \"#utility.yul\":3330:3346   */\n  shr\n    /* \"#utility.yul\":3309:3346   */\n  swap1\n  pop\n    /* \"#utility.yul\":3236:3353   */\n  swap3\n  swap2\n  pop\n  pop\n  jump\t// out\n    /* \"#utility.yul\":3359:3528   */\ntag_37:\n    /* \"#utility.yul\":3403:3409   */\n  0x00\n    /* \"#utility.yul\":3436:3487   */\n  tag_88\n    /* \"#utility.yul\":3484:3485   */\n  0x00\n    /* \"#utility.yul\":3480:3486   */\n  not\n    /* \"#utility.yul\":3472:3477   */\n  dup5\n    /* \"#utility.yul\":3469:3470   */\n  0x08\n    /* \"#utility.yul\":3465:3478   */\n  mul\n    /* \"#utility.yul\":3436:3487   */\n  tag_36\n  jump\t// in\ntag_88:\n    /* \"#utility.yul\":3432:3488   */\n  not\n    /* \"#utility.yul\":3517:3521   */\n  dup1\n    /* \"#utility.yul\":3511:3515   */\n  dup4\n    /* \"#utility.yul\":3507:3522   */\n  and\n    /* \"#utility.yul\":3497:3522   */\n  swap2\n  pop\n    /* \"#utility.yul\":3410:3528   */\n  pop\n    /* \"#utility.yul\":3359:3528   */\n  swap3\n  swap2\n  pop\n  pop\n  jump\t// out\n    /* \"#utility.yul\":3533:3828   */\ntag_38:\n    /* \"#utility.yul\":3609:3613   */\n  0x00\n    /* \"#utility.yul\":3755:3784   */\n  tag_90\n    /* \"#utility.yul\":3780:3783   */\n  dup4\n    /* \"#utility.yul\":3774:3778   */\n  dup4\n    /* \"#utility.yul\":3755:3784   */\n  tag_37\n  jump\t// in\ntag_90:\n    /* \"#utility.yul\":3747:3784   */\n  swap2\n  pop\n    /* \"#utility.yul\":3817:3820   */\n  dup3\n    /* \"#utility.yul\":3814:3815   */\n  0x02\n    /* \"#utility.yul\":3810:3821   */\n  mul\n    /* \"#utility.yul\":3804:3808   */\n  dup3\n    /* \"#utility.yul\":3801:3822   */\n  or\n    /* \"#utility.yul\":3793:3822   */\n  swap1\n  pop\n    /* \"#utility.yul\":3533:3828   */\n  swap3\n  swap2\n  pop\n  pop\n  jump\t// out\n    /* \"#utility.yul\":3833:5228   */\ntag_8:\n    /* \"#utility.yul\":3950:3987   */\n  tag_92\n    /* \"#utility.yul\":3983:3986   */\n  dup3\n    /* \"#utility.yul\":3950:3987   */\n  tag_19\n  jump\t// in\ntag_92:\n    /* \"#utility.yul\":4052:4070   */\n  0xffffffffffffffff\n    /* \"#utility.yul\":4044:4050   */\n  dup2\n    /* \"#utility.yul\":4041:4071   */\n  gt\n    /* \"#utility.yul\":4038:4094   */\n  iszero\n  tag_93\n  jumpi\n    /* \"#utility.yul\":4074:4092   */\n  tag_94\n  tag_20\n  jump\t// in\ntag_94:\n    /* \"#utility.yul\":4038:4094   */\ntag_93:\n    /* \"#utility.yul\":4118:4156   */\n  tag_95\n    /* \"#utility.yul\":4150:4154   */\n  dup3\n    /* \"#utility.yul\":4144:4155   */\n  sload\n    /* \"#utility.yul\":4118:4156   */\n  tag_22\n  jump\t// in\ntag_95:\n    /* \"#utility.yul\":4203:4270   */\n  tag_96\n    /* \"#utility.yul\":4263:4269   */\n  dup3\n    /* \"#utility.yul\":4255:4261   */\n  dup3\n    /* \"#utility.yul\":4249:4253   */\n  dup6\n    /* \"#utility.yul\":4203:4270   */\n  tag_35\n  jump\t// in\ntag_96:\n    /* \"#utility.yul\":4297:4298   */\n  0x00\n    /* \"#utility.yul\":4321:4325   */\n  0x20\n    /* \"#utility.yul\":4308:4325   */\n  swap1\n  pop\n    /* \"#utility.yul\":4353:4355   */\n  0x1f\n    /* \"#utility.yul\":4345:4351   */\n  dup4\n    /* \"#utility.yul\":4342:4356   */\n  gt\n    /* \"#utility.yul\":4370:4371   */\n  0x01\n    /* \"#utility.yul\":4365:4983   */\n  dup2\n  eq\n  tag_98\n  jumpi\n    /* \"#utility.yul\":5027:5028   */\n  0x00\n    /* \"#utility.yul\":5044:5050   */\n  dup5\n    /* \"#utility.yul\":5041:5118   */\n  iszero\n  tag_99\n  jumpi\n    /* \"#utility.yul\":5093:5102   */\n  dup3\n    /* \"#utility.yul\":5088:5091   */\n  dup8\n    /* \"#utility.yul\":5084:5103   */\n  add\n    /* \"#utility.yul\":5078:5104   */\n  mload\n    /* \"#utility.yul\":5069:5104   */\n  swap1\n  pop\n    /* \"#utility.yul\":5041:5118   */\ntag_99:\n    /* \"#utility.yul\":5144:5211   */\n  tag_100\n    /* \"#utility.yul\":5204:5210   */\n  dup6\n    /* \"#utility.yul\":5197:5202   */\n  dup3\n    /* \"#utility.yul\":5144:5211   */\n  tag_38\n  jump\t// in\ntag_100:\n    /* \"#utility.yul\":5138:5142   */\n  dup7\n    /* \"#utility.yul\":5131:5212   */\n  sstore\n    /* \"#utility.yul\":5000:5222   */\n  pop\n    /* \"#utility.yul\":4335:5222   */\n  jump(tag_97)\n    /* \"#utility.yul\":4365:4983   */\ntag_98:\n    /* \"#utility.yul\":4417:4421   */\n  0x1f\n    /* \"#utility.yul\":4413:4422   */\n  not\n    /* \"#utility.yul\":4405:4411   */\n  dup5\n    /* \"#utility.yul\":4401:4423   */\n  and\n    /* \"#utility.yul\":4451:4488   */\n  tag_101\n    /* \"#utility.yul\":4483:4487   */\n  dup7\n    /* \"#utility.yul\":4451:4488   */\n  tag_23\n  jump\t// in\ntag_101:\n    /* \"#utility.yul\":4510:4511   */\n  0x00\n    /* \"#utility.yul\":4524:4732   */\ntag_102:\n    /* \"#utility.yul\":4538:4545   */\n  dup3\n    /* \"#utility.yul\":4535:4536   */\n  dup2\n    /* \"#utility.yul\":4532:4546   */\n  lt\n    /* \"#utility.yul\":4524:4732   */\n  iszero\n  tag_104\n  jumpi\n    /* \"#utility.yul\":4617:4626   */\n  dup5\n    /* \"#utility.yul\":4612:4615   */\n  dup10\n    /* \"#utility.yul\":4608:4627   */\n  add\n    /* \"#utility.yul\":4602:4628   */\n  mload\n    /* \"#utility.yul\":4594:4600   */\n  dup3\n    /* \"#utility.yul\":4587:4629   */\n  sstore\n    /* \"#utility.yul\":4668:4669   */\n  0x01\n    /* \"#utility.yul\":4660:4666   */\n  dup3\n    /* \"#utility.yul\":4656:4670   */\n  add\n    /* \"#utility.yul\":4646:4670   */\n  swap2\n  pop\n    /* \"#utility.yul\":4715:4717   */\n  0x20\n    /* \"#utility.yul\":4704:4713   */\n  dup6\n    /* \"#utility.yul\":4700:4718   */\n  add\n    /* \"#utility.yul\":4687:4718   */\n  swap5\n  pop\n    /* \"#utility.yul\":4561:4565   */\n  0x20\n    /* \"#utility.yul\":4558:4559   */\n  dup2\n    /* \"#utility.yul\":4554:4566   */\n  add\n    /* \"#utility.yul\":4549:4566   */\n  swap1\n  pop\n    /* \"#utility.yul\":4524:4732   */\n  jump(tag_102)\ntag_104:\n    /* \"#utility.yul\":4760:4766   */\n  dup7\n    /* \"#utility.yul\":4751:4758   */\n  dup4\n    /* \"#utility.yul\":4748:4767   */\n  lt\n    /* \"#utility.yul\":4745:4924   */\n  iszero\n  tag_105\n  jumpi\n    /* \"#utility.yul\":4818:4827   */\n  dup5\n    /* \"#utility.yul\":4813:4816   */\n  dup10\n    /* \"#utility.yul\":4809:4828   */\n  add\n    /* \"#utility.yul\":4803:4829   */\n  mload\n    /* \"#utility.yul\":4861:4909   */\n  tag_106\n    /* \"#utility.yul\":4903:4907   */\n  0x1f\n    /* \"#utility.yul\":4895:4901   */\n  dup10\n    /* \"#utility.yul\":4891:4908   */\n  and\n    /* \"#utility.yul\":4880:4889   */\n  dup3\n    /* \"#utility.yul\":4861:4909   */\n  tag_37\n  jump\t// in\ntag_106:\n    /* \"#utility.yul\":4853:4859   */\n  dup4\n    /* \"#utility.yul\":4846:4910   */\n  sstore\n    /* \"#utility.yul\":4768:4924   */\n  pop\n    /* \"#utility.yul\":4745:4924   */\ntag_105:\n    /* \"#utility.yul\":4970:4971   */\n  0x01\n    /* \"#utility.yul\":4966:4967   */\n  0x02\n    /* \"#utility.yul\":4958:4964   */\n  dup9\n    /* \"#utility.yul\":4954:4968   */\n  mul\n    /* \"#utility.yul\":4950:4972   */\n  add\n    /* \"#utility.yul\":4944:4948   */\n  dup9\n    /* \"#utility.yul\":4937:4973   */\n  sstore\n    /* \"#utility.yul\":4372:4983   */\n  pop\n  pop\n  pop\n    /* \"#utility.yul\":4335:5222   */\ntag_97:\n  pop\n    /* \"#utility.yul\":3925:5228   */\n  pop\n  pop\n  pop\n    /* \"#utility.yul\":3833:5228   */\n  pop\n  pop\n  jump\t// out\n    /* \"#utility.yul\":5234:5311   */\ntag_39:\n    /* \"#utility.yul\":5271:5278   */\n  0x00\n    /* \"#utility.yul\":5300:5305   */\n  dup2\n    /* \"#utility.yul\":5289:5305   */\n  swap1\n  pop\n    /* \"#utility.yul\":5234:5311   */\n  swap2\n  swap1\n  pop\n  jump\t// out\n    /* \"#utility.yul\":5317:5435   */\ntag_40:\n    /* \"#utility.yul\":5404:5428   */\n  tag_109\n    /* \"#utility.yul\":5422:5427   */\n  dup2\n    /* \"#utility.yul\":5404:5428   */\n  tag_39\n  jump\t// in\ntag_109:\n    /* \"#utility.yul\":5399:5402   */\n  dup3\n    /* \"#utility.yul\":5392:5429   */\n  mstore\n    /* \"#utility.yul\":5317:5435   */\n  pop\n  pop\n  jump\t// out\n    /* \"#utility.yul\":5441:5559   */\ntag_41:\n    /* \"#utility.yul\":5528:5552   */\n  tag_111\n    /* \"#utility.yul\":5546:5551   */\n  dup2\n    /* \"#utility.yul\":5528:5552   */\n  tag_27\n  jump\t// in\ntag_111:\n    /* \"#utility.yul\":5523:5526   */\n  dup3\n    /* \"#utility.yul\":5516:5553   */\n  mstore\n    /* \"#utility.yul\":5441:5559   */\n  pop\n  pop\n  jump\t// out\n    /* \"#utility.yul\":5565:5691   */\ntag_42:\n    /* \"#utility.yul\":5602:5609   */\n  0x00\n    /* \"#utility.yul\":5642:5684   */\n  0xffffffffffffffffffffffffffffffffffffffff\n    /* \"#utility.yul\":5635:5640   */\n  dup3\n    /* \"#utility.yul\":5631:5685   */\n  and\n    /* \"#utility.yul\":5620:5685   */\n  swap1\n  pop\n    /* \"#utility.yul\":5565:5691   */\n  swap2\n  swap1\n  pop\n  jump\t// out\n    /* \"#utility.yul\":5697:5793   */\ntag_43:\n    /* \"#utility.yul\":5734:5741   */\n  0x00\n    /* \"#utility.yul\":5763:5787   */\n  tag_114\n    /* \"#utility.yul\":5781:5786   */\n  dup3\n    /* \"#utility.yul\":5763:5787   */\n  tag_42\n  jump\t// in\ntag_114:\n    /* \"#utility.yul\":5752:5787   */\n  swap1\n  pop\n    /* \"#utility.yul\":5697:5793   */\n  swap2\n  swap1\n  pop\n  jump\t// out\n    /* \"#utility.yul\":5799:5917   */\ntag_44:\n    /* \"#utility.yul\":5886:5910   */\n  tag_116\n    /* \"#utility.yul\":5904:5909   */\n  dup2\n    /* \"#utility.yul\":5886:5910   */\n  tag_43\n  jump\t// in\ntag_116:\n    /* \"#utility.yul\":5881:5884   */\n  dup3\n    /* \"#utility.yul\":5874:5911   */\n  mstore\n    /* \"#utility.yul\":5799:5917   */\n  pop\n  pop\n  jump\t// out\n    /* \"#utility.yul\":5923:6587   */\ntag_18:\n    /* \"#utility.yul\":6128:6132   */\n  0x00\n    /* \"#utility.yul\":6166:6169   */\n  0xa0\n    /* \"#utility.yul\":6155:6164   */\n  dup3\n    /* \"#utility.yul\":6151:6170   */\n  add\n    /* \"#utility.yul\":6143:6170   */\n  swap1\n  pop\n    /* \"#utility.yul\":6180:6251   */\n  tag_118\n    /* \"#utility.yul\":6248:6249   */\n  0x00\n    /* \"#utility.yul\":6237:6246   */\n  dup4\n    /* \"#utility.yul\":6233:6250   */\n  add\n    /* \"#utility.yul\":6224:6230   */\n  dup9\n    /* \"#utility.yul\":6180:6251   */\n  tag_40\n  jump\t// in\ntag_118:\n    /* \"#utility.yul\":6261:6333   */\n  tag_119\n    /* \"#utility.yul\":6329:6331   */\n  0x20\n    /* \"#utility.yul\":6318:6327   */\n  dup4\n    /* \"#utility.yul\":6314:6332   */\n  add\n    /* \"#utility.yul\":6305:6311   */\n  dup8\n    /* \"#utility.yul\":6261:6333   */\n  tag_40\n  jump\t// in\ntag_119:\n    /* \"#utility.yul\":6343:6415   */\n  tag_120\n    /* \"#utility.yul\":6411:6413   */\n  0x40\n    /* \"#utility.yul\":6400:6409   */\n  dup4\n    /* \"#utility.yul\":6396:6414   */\n  add\n    /* \"#utility.yul\":6387:6393   */\n  dup7\n    /* \"#utility.yul\":6343:6415   */\n  tag_40\n  jump\t// in\ntag_120:\n    /* \"#utility.yul\":6425:6497   */\n  tag_121\n    /* \"#utility.yul\":6493:6495   */\n  0x60\n    /* \"#utility.yul\":6482:6491   */\n  dup4\n    /* \"#utility.yul\":6478:6496   */\n  add\n    /* \"#utility.yul\":6469:6475   */\n  dup6\n    /* \"#utility.yul\":6425:6497   */\n  tag_41\n  jump\t// in\ntag_121:\n    /* \"#utility.yul\":6507:6580   */\n  tag_122\n    /* \"#utility.yul\":6575:6578   */\n  0x80\n    /* \"#utility.yul\":6564:6573   */\n  dup4\n    /* \"#utility.yul\":6560:6579   */\n  add\n    /* \"#utility.yul\":6551:6557   */\n  dup5\n    /* \"#utility.yul\":6507:6580   */\n  tag_44\n  jump\t// in\ntag_122:\n    /* \"#utility.yul\":5923:6587   */\n  swap7\n  swap6\n  pop\n  pop\n  pop\n  pop\n  pop\n  pop\n  jump\t// out\n    /* \"P2PLending.sol\":205:1617  contract MyToken is ERC20, ERC20Permit {... */\ntag_15:\n  mload(0x80)\n  mload(0xa0)\n  mload(0xc0)\n  mload(0xe0)\n  mload(0x0100)\n  mload(0x0120)\n  codecopy(0x00, dataOffset(sub_0), dataSize(sub_0))\n  0x00\n  assignImmutable(\"0xbb18ebaa1cddf829bcac2337ea2baf9a257d86fba8ce2baebe40d33d4470291e\")\n  0x00\n  assignImmutable(\"0x3ab4fb69c8e122442af87ae588015f836e7cde3029bbb6dab1983bc840231d63\")\n  0x00\n  assignImmutable(\"0x4f4ac30ff8bfcef8cd1068d1427faf7fb52fa3a1610b1f430e1f69a91ebb9673\")\n  0x00\n  assignImmutable(\"0x029f4bc6ebbac7821b38f11e82c50ce2b63772f63b6ad2c35af4c148b2c4bad3\")\n  0x00\n  assignImmutable(\"0x79ede0e1d4663a040c0927e7555c0aa914d60646b0bd94798f4654567b709b95\")\n  0x00\n  assignImmutable(\"0x287b91f0b101ece3728dd9f02ea2865cf4f06b72e55fc122f67e14412d5d078c\")\n  return(0x00, dataSize(sub_0))\nstop\n\nsub_0: assembly {\n        /* \"P2PLending.sol\":205:1617  contract MyToken is ERC20, ERC20Permit {... */\n      mstore(0x40, 0x80)\n      callvalue\n      dup1\n      iszero\n      tag_1\n      jumpi\n      0x00\n      dup1\n      revert\n    tag_1:\n      pop\n      jumpi(tag_2, lt(calldatasize, 0x04))\n      shr(0xe0, calldataload(0x00))\n      dup1\n      0x7ecebe00\n      gt\n      tag_24\n      jumpi\n      dup1\n      0xb4b05958\n      gt\n      tag_25\n      jumpi\n      dup1\n      0xb4b05958\n      eq\n      tag_18\n      jumpi\n      dup1\n      0xce2e08e5\n      eq\n      tag_19\n      jumpi\n      dup1\n      0xd1003ed4\n      eq\n      tag_20\n      jumpi\n      dup1\n      0xd505accf\n      eq\n      tag_21\n      jumpi\n      dup1\n      0xdb673035\n      eq\n      tag_22\n      jumpi\n      dup1\n      0xdd62ed3e\n      eq\n      tag_23\n      jumpi\n      jump(tag_2)\n    tag_25:\n      dup1\n      0x7ecebe00\n      eq\n      tag_13\n      jumpi\n      dup1\n      0x948adb8f\n      eq\n      tag_14\n      jumpi\n      dup1\n      0x95d89b41\n      eq\n      tag_15\n      jumpi\n      dup1\n      0xa457c2d7\n      eq\n      tag_16\n      jumpi\n      dup1\n      0xa9059cbb\n      eq\n      tag_17\n      jumpi\n      jump(tag_2)\n    tag_24:\n      dup1\n      0x3644e515\n      gt\n      tag_26\n      jumpi\n      dup1\n      0x3644e515\n      eq\n      tag_8\n      jumpi\n      dup1\n      0x39509351\n      eq\n      tag_9\n      jumpi\n      dup1\n      0x3b4c0c07\n      eq\n      tag_10\n      jumpi\n      dup1\n      0x40c10f19\n      eq\n      tag_11\n      jumpi\n      dup1\n      0x70a08231\n      eq\n      tag_12\n      jumpi\n      jump(tag_2)\n    tag_26:\n      dup1\n      0x06fdde03\n      eq\n      tag_3\n      jumpi\n      dup1\n      0x095ea7b3\n      eq\n      tag_4\n      jumpi\n      dup1\n      0x18160ddd\n      eq\n      tag_5\n      jumpi\n      dup1\n      0x23b872dd\n      eq\n      tag_6\n      jumpi\n      dup1\n      0x313ce567\n      eq\n      tag_7\n      jumpi\n    tag_2:\n      0x00\n      dup1\n      revert\n        /* \"@openzeppelin/contracts@4.7.3/token/ERC20/ERC20.sol\":2156:2254  function name() public view virtual override returns (string memory) {... */\n    tag_3:\n      tag_27\n      tag_28\n      jump\t// in\n    tag_27:\n      mload(0x40)\n      tag_29\n      swap2\n      swap1\n      tag_30\n      jump\t// in\n    tag_29:\n      mload(0x40)\n      dup1\n      swap2\n      sub\n      swap1\n      return\n        /* \"@openzeppelin/contracts@4.7.3/token/ERC20/ERC20.sol\":4433:4630  function approve(address spender, uint256 amount) public virtual override returns (bool) {... */\n    tag_4:\n      tag_31\n      0x04\n      dup1\n      calldatasize\n      sub\n      dup2\n      add\n      swap1\n      tag_32\n      swap2\n      swap1\n      tag_33\n      jump\t// in\n    tag_32:\n      tag_34\n      jump\t// in\n    tag_31:\n      mload(0x40)\n      tag_35\n      swap2\n      swap1\n      tag_36\n      jump\t// in\n    tag_35:\n      mload(0x40)\n      dup1\n      swap2\n      sub\n      swap1\n      return\n        /* \"@openzeppelin/contracts@4.7.3/token/ERC20/ERC20.sol\":3244:3350  function totalSupply() public view virtual override returns (uint256) {... */\n    tag_5:\n      tag_37\n      tag_38\n      jump\t// in\n    tag_37:\n      mload(0x40)\n      tag_39\n      swap2\n      swap1\n      tag_40\n      jump\t// in\n    tag_39:\n      mload(0x40)\n      dup1\n      swap2\n      sub\n      swap1\n      return\n        /* \"@openzeppelin/contracts@4.7.3/token/ERC20/ERC20.sol\":5192:5478  function transferFrom(... */\n    tag_6:\n      tag_41\n      0x04\n      dup1\n      calldatasize\n      sub\n      dup2\n      add\n      swap1\n      tag_42\n      swap2\n      swap1\n      tag_43\n      jump\t// in\n    tag_42:\n      tag_44\n      jump\t// in\n    tag_41:\n      mload(0x40)\n      tag_45\n      swap2\n      swap1\n      tag_36\n      jump\t// in\n    tag_45:\n      mload(0x40)\n      dup1\n      swap2\n      sub\n      swap1\n      return\n        /* \"@openzeppelin/contracts@4.7.3/token/ERC20/ERC20.sol\":3093:3184  function decimals() public view virtual override returns (uint8) {... */\n    tag_7:\n      tag_46\n      tag_47\n      jump\t// in\n    tag_46:\n      mload(0x40)\n      tag_48\n      swap2\n      swap1\n      tag_49\n      jump\t// in\n    tag_48:\n      mload(0x40)\n      dup1\n      swap2\n      sub\n      swap1\n      return\n        /* \"@openzeppelin/contracts@4.7.3/token/ERC20/extensions/draft-ERC20Permit.sol\":2885:2998  function DOMAIN_SEPARATOR() external view override returns (bytes32) {... */\n    tag_8:\n      tag_50\n      tag_51\n      jump\t// in\n    tag_50:\n      mload(0x40)\n      tag_52\n      swap2\n      swap1\n      tag_53\n      jump\t// in\n    tag_52:\n      mload(0x40)\n      dup1\n      swap2\n      sub\n      swap1\n      return\n        /* \"@openzeppelin/contracts@4.7.3/token/ERC20/ERC20.sol\":5873:6107  function increaseAllowance(address spender, uint256 addedValue) public virtual returns (bool) {... */\n    tag_9:\n      tag_54\n      0x04\n      dup1\n      calldatasize\n      sub\n      dup2\n      add\n      swap1\n      tag_55\n      swap2\n      swap1\n      tag_33\n      jump\t// in\n    tag_55:\n      tag_56\n      jump\t// in\n    tag_54:\n      mload(0x40)\n      tag_57\n      swap2\n      swap1\n      tag_36\n      jump\t// in\n    tag_57:\n      mload(0x40)\n      dup1\n      swap2\n      sub\n      swap1\n      return\n        /* \"P2PLending.sol\":958:1081  function transfertoContract(address _from, uint _amount) external {... */\n    tag_10:\n      tag_58\n      0x04\n      dup1\n      calldatasize\n      sub\n      dup2\n      add\n      swap1\n      tag_59\n      swap2\n      swap1\n      tag_33\n      jump\t// in\n    tag_59:\n      tag_60\n      jump\t// in\n    tag_58:\n      stop\n        /* \"P2PLending.sol\":869:952  function mint(address to, uint256 value) external {... */\n    tag_11:\n      tag_61\n      0x04\n      dup1\n      calldatasize\n      sub\n      dup2\n      add\n      swap1\n      tag_62\n      swap2\n      swap1\n      tag_33\n      jump\t// in\n    tag_62:\n      tag_63\n      jump\t// in\n    tag_61:\n      stop\n        /* \"@openzeppelin/contracts@4.7.3/token/ERC20/ERC20.sol\":3408:3533  function balanceOf(address account) public view virtual override returns (uint256) {... */\n    tag_12:\n      tag_64\n      0x04\n      dup1\n      calldatasize\n      sub\n      dup2\n      add\n      swap1\n      tag_65\n      swap2\n      swap1\n      tag_66\n      jump\t// in\n    tag_65:\n      tag_67\n      jump\t// in\n    tag_64:\n      mload(0x40)\n      tag_68\n      swap2\n      swap1\n      tag_40\n      jump\t// in\n    tag_68:\n      mload(0x40)\n      dup1\n      swap2\n      sub\n      swap1\n      return\n        /* \"@openzeppelin/contracts@4.7.3/token/ERC20/extensions/draft-ERC20Permit.sol\":2635:2761  function nonces(address owner) public view virtual override returns (uint256) {... */\n    tag_13:\n      tag_69\n      0x04\n      dup1\n      calldatasize\n      sub\n      dup2\n      add\n      swap1\n      tag_70\n      swap2\n      swap1\n      tag_66\n      jump\t// in\n    tag_70:\n      tag_71\n      jump\t// in\n    tag_69:\n      mload(0x40)\n      tag_72\n      swap2\n      swap1\n      tag_40\n      jump\t// in\n    tag_72:\n      mload(0x40)\n      dup1\n      swap2\n      sub\n      swap1\n      return\n        /* \"P2PLending.sol\":421:467  mapping(address => uint) public borrowedAmount */\n    tag_14:\n      tag_73\n      0x04\n      dup1\n      calldatasize\n      sub\n      dup2\n      add\n      swap1\n      tag_74\n      swap2\n      swap1\n      tag_66\n      jump\t// in\n    tag_74:\n      tag_75\n      jump\t// in\n    tag_73:\n      mload(0x40)\n      tag_76\n      swap2\n      swap1\n      tag_40\n      jump\t// in\n    tag_76:\n      mload(0x40)\n      dup1\n      swap2\n      sub\n      swap1\n      return\n        /* \"@openzeppelin/contracts@4.7.3/token/ERC20/ERC20.sol\":2367:2469  function symbol() public view virtual override returns (string memory) {... */\n    tag_15:\n      tag_77\n      tag_78\n      jump\t// in\n    tag_77:\n      mload(0x40)\n      tag_79\n      swap2\n      swap1\n      tag_30\n      jump\t// in\n    tag_79:\n      mload(0x40)\n      dup1\n      swap2\n      sub\n      swap1\n      return\n        /* \"@openzeppelin/contracts@4.7.3/token/ERC20/ERC20.sol\":6594:7021  function decreaseAllowance(address spender, uint256 subtractedValue) public virtual returns (bool) {... */\n    tag_16:\n      tag_80\n      0x04\n      dup1\n      calldatasize\n      sub\n      dup2\n      add\n      swap1\n      tag_81\n      swap2\n      swap1\n      tag_33\n      jump\t// in\n    tag_81:\n      tag_82\n      jump\t// in\n    tag_80:\n      mload(0x40)\n      tag_83\n      swap2\n      swap1\n      tag_36\n      jump\t// in\n    tag_83:\n      mload(0x40)\n      dup1\n      swap2\n      sub\n      swap1\n      return\n        /* \"@openzeppelin/contracts@4.7.3/token/ERC20/ERC20.sol\":3729:3918  function transfer(address to, uint256 amount) public virtual override returns (bool) {... */\n    tag_17:\n      tag_84\n      0x04\n      dup1\n      calldatasize\n      sub\n      dup2\n      add\n      swap1\n      tag_85\n      swap2\n      swap1\n      tag_33\n      jump\t// in\n    tag_85:\n      tag_86\n      jump\t// in\n    tag_84:\n      mload(0x40)\n      tag_87\n      swap2\n      swap1\n      tag_36\n      jump\t// in\n    tag_87:\n      mload(0x40)\n      dup1\n      swap2\n      sub\n      swap1\n      return\n        /* \"P2PLending.sol\":370:415  mapping (address => uint) public lendedAmount */\n    tag_18:\n      tag_88\n      0x04\n      dup1\n      calldatasize\n      sub\n      dup2\n      add\n      swap1\n      tag_89\n      swap2\n      swap1\n      tag_66\n      jump\t// in\n    tag_89:\n      tag_90\n      jump\t// in\n    tag_88:\n      mload(0x40)\n      tag_91\n      swap2\n      swap1\n      tag_40\n      jump\t// in\n    tag_91:\n      mload(0x40)\n      dup1\n      swap2\n      sub\n      swap1\n      return\n        /* \"P2PLending.sol\":1087:1615  function transferToAddr(address _from, address _to, uint _amount) external {... */\n    tag_19:\n      tag_92\n      0x04\n      dup1\n      calldatasize\n      sub\n      dup2\n      add\n      swap1\n      tag_93\n      swap2\n      swap1\n      tag_43\n      jump\t// in\n    tag_93:\n      tag_94\n      jump\t// in\n    tag_92:\n      stop\n        /* \"P2PLending.sol\":474:677  function RegisterLender(uint _amount, uint _deadline, uint8 _v, bytes32 _r, bytes32 _s) public returns (bool) {... */\n    tag_20:\n      tag_95\n      0x04\n      dup1\n      calldatasize\n      sub\n      dup2\n      add\n      swap1\n      tag_96\n      swap2\n      swap1\n      tag_97\n      jump\t// in\n    tag_96:\n      tag_98\n      jump\t// in\n    tag_95:\n      mload(0x40)\n      tag_99\n      swap2\n      swap1\n      tag_36\n      jump\t// in\n    tag_99:\n      mload(0x40)\n      dup1\n      swap2\n      sub\n      swap1\n      return\n        /* \"@openzeppelin/contracts@4.7.3/token/ERC20/extensions/draft-ERC20Permit.sol\":1948:2574  function permit(... */\n    tag_21:\n      tag_100\n      0x04\n      dup1\n      calldatasize\n      sub\n      dup2\n      add\n      swap1\n      tag_101\n      swap2\n      swap1\n      tag_102\n      jump\t// in\n    tag_101:\n      tag_103\n      jump\t// in\n    tag_100:\n      stop\n        /* \"P2PLending.sol\":685:863  function testTransfer(address _from, address _to, uint _amount) public {... */\n    tag_22:\n      tag_104\n      0x04\n      dup1\n      calldatasize\n      sub\n      dup2\n      add\n      swap1\n      tag_105\n      swap2\n      swap1\n      tag_43\n      jump\t// in\n    tag_105:\n      tag_106\n      jump\t// in\n    tag_104:\n      stop\n        /* \"@openzeppelin/contracts@4.7.3/token/ERC20/ERC20.sol\":3976:4125  function allowance(address owner, address spender) public view virtual override returns (uint256) {... */\n    tag_23:\n      tag_107\n      0x04\n      dup1\n      calldatasize\n      sub\n      dup2\n      add\n      swap1\n      tag_108\n      swap2\n      swap1\n      tag_109\n      jump\t// in\n    tag_108:\n      tag_110\n      jump\t// in\n    tag_107:\n      mload(0x40)\n      tag_111\n      swap2\n      swap1\n      tag_40\n      jump\t// in\n    tag_111:\n      mload(0x40)\n      dup1\n      swap2\n      sub\n      swap1\n      return\n        /* \"@openzeppelin/contracts@4.7.3/token/ERC20/ERC20.sol\":2156:2254  function name() public view virtual override returns (string memory) {... */\n    tag_28:\n        /* \"@openzeppelin/contracts@4.7.3/token/ERC20/ERC20.sol\":2210:2223  string memory */\n      0x60\n        /* \"@openzeppelin/contracts@4.7.3/token/ERC20/ERC20.sol\":2242:2247  _name */\n      0x03\n        /* \"@openzeppelin/contracts@4.7.3/token/ERC20/ERC20.sol\":2235:2247  return _name */\n      dup1\n      sload\n      tag_113\n      swap1\n      tag_114\n      jump\t// in\n    tag_113:\n      dup1\n      0x1f\n      add\n      0x20\n      dup1\n      swap2\n      div\n      mul\n      0x20\n      add\n      mload(0x40)\n      swap1\n      dup2\n      add\n      0x40\n      mstore\n      dup1\n      swap3\n      swap2\n      swap1\n      dup2\n      dup2\n      mstore\n      0x20\n      add\n      dup3\n      dup1\n      sload\n      tag_115\n      swap1\n      tag_114\n      jump\t// in\n    tag_115:\n      dup1\n      iszero\n      tag_116\n      jumpi\n      dup1\n      0x1f\n      lt\n      tag_117\n      jumpi\n      0x0100\n      dup1\n      dup4\n      sload\n      div\n      mul\n      dup4\n      mstore\n      swap2\n      0x20\n      add\n      swap2\n      jump(tag_116)\n    tag_117:\n      dup3\n      add\n      swap2\n      swap1\n      0x00\n      mstore\n      keccak256(0x00, 0x20)\n      swap1\n    tag_118:\n      dup2\n      sload\n      dup2\n      mstore\n      swap1\n      0x01\n      add\n      swap1\n      0x20\n      add\n      dup1\n      dup4\n      gt\n      tag_118\n      jumpi\n      dup3\n      swap1\n      sub\n      0x1f\n      and\n      dup3\n      add\n      swap2\n    tag_116:\n      pop\n      pop\n      pop\n      pop\n      pop\n      swap1\n      pop\n        /* \"@openzeppelin/contracts@4.7.3/token/ERC20/ERC20.sol\":2156:2254  function name() public view virtual override returns (string memory) {... */\n      swap1\n      jump\t// out\n        /* \"@openzeppelin/contracts@4.7.3/token/ERC20/ERC20.sol\":4433:4630  function approve(address spender, uint256 amount) public virtual override returns (bool) {... */\n    tag_34:\n        /* \"@openzeppelin/contracts@4.7.3/token/ERC20/ERC20.sol\":4516:4520  bool */\n      0x00\n        /* \"@openzeppelin/contracts@4.7.3/token/ERC20/ERC20.sol\":4532:4545  address owner */\n      dup1\n        /* \"@openzeppelin/contracts@4.7.3/token/ERC20/ERC20.sol\":4548:4560  _msgSender() */\n      tag_120\n        /* \"@openzeppelin/contracts@4.7.3/token/ERC20/ERC20.sol\":4548:4558  _msgSender */\n      tag_121\n        /* \"@openzeppelin/contracts@4.7.3/token/ERC20/ERC20.sol\":4548:4560  _msgSender() */\n      jump\t// in\n    tag_120:\n        /* \"@openzeppelin/contracts@4.7.3/token/ERC20/ERC20.sol\":4532:4560  address owner = _msgSender() */\n      swap1\n      pop\n        /* \"@openzeppelin/contracts@4.7.3/token/ERC20/ERC20.sol\":4570:4602  _approve(owner, spender, amount) */\n      tag_122\n        /* \"@openzeppelin/contracts@4.7.3/token/ERC20/ERC20.sol\":4579:4584  owner */\n      dup2\n        /* \"@openzeppelin/contracts@4.7.3/token/ERC20/ERC20.sol\":4586:4593  spender */\n      dup6\n        /* \"@openzeppelin/contracts@4.7.3/token/ERC20/ERC20.sol\":4595:4601  amount */\n      dup6\n        /* \"@openzeppelin/contracts@4.7.3/token/ERC20/ERC20.sol\":4570:4578  _approve */\n      tag_123\n        /* \"@openzeppelin/contracts@4.7.3/token/ERC20/ERC20.sol\":4570:4602  _approve(owner, spender, amount) */\n      jump\t// in\n    tag_122:\n        /* \"@openzeppelin/contracts@4.7.3/token/ERC20/ERC20.sol\":4619:4623  true */\n      0x01\n        /* \"@openzeppelin/contracts@4.7.3/token/ERC20/ERC20.sol\":4612:4623  return true */\n      swap2\n      pop\n      pop\n        /* \"@openzeppelin/contracts@4.7.3/token/ERC20/ERC20.sol\":4433:4630  function approve(address spender, uint256 amount) public virtual override returns (bool) {... */\n      swap3\n      swap2\n      pop\n      pop\n      jump\t// out\n        /* \"@openzeppelin/contracts@4.7.3/token/ERC20/ERC20.sol\":3244:3350  function totalSupply() public view virtual override returns (uint256) {... */\n    tag_38:\n        /* \"@openzeppelin/contracts@4.7.3/token/ERC20/ERC20.sol\":3305:3312  uint256 */\n      0x00\n        /* \"@openzeppelin/contracts@4.7.3/token/ERC20/ERC20.sol\":3331:3343  _totalSupply */\n      sload(0x02)\n        /* \"@openzeppelin/contracts@4.7.3/token/ERC20/ERC20.sol\":3324:3343  return _totalSupply */\n      swap1\n      pop\n        /* \"@openzeppelin/contracts@4.7.3/token/ERC20/ERC20.sol\":3244:3350  function totalSupply() public view virtual override returns (uint256) {... */\n      swap1\n      jump\t// out\n        /* \"@openzeppelin/contracts@4.7.3/token/ERC20/ERC20.sol\":5192:5478  function transferFrom(... */\n    tag_44:\n        /* \"@openzeppelin/contracts@4.7.3/token/ERC20/ERC20.sol\":5319:5323  bool */\n      0x00\n        /* \"@openzeppelin/contracts@4.7.3/token/ERC20/ERC20.sol\":5335:5350  address spender */\n      dup1\n        /* \"@openzeppelin/contracts@4.7.3/token/ERC20/ERC20.sol\":5353:5365  _msgSender() */\n      tag_126\n        /* \"@openzeppelin/contracts@4.7.3/token/ERC20/ERC20.sol\":5353:5363  _msgSender */\n      tag_121\n        /* \"@openzeppelin/contracts@4.7.3/token/ERC20/ERC20.sol\":5353:5365  _msgSender() */\n      jump\t// in\n    tag_126:\n        /* \"@openzeppelin/contracts@4.7.3/token/ERC20/ERC20.sol\":5335:5365  address spender = _msgSender() */\n      swap1\n      pop\n        /* \"@openzeppelin/contracts@4.7.3/token/ERC20/ERC20.sol\":5375:5413  _spendAllowance(from, spender, amount) */\n      tag_127\n        /* \"@openzeppelin/contracts@4.7.3/token/ERC20/ERC20.sol\":5391:5395  from */\n      dup6\n        /* \"@openzeppelin/contracts@4.7.3/token/ERC20/ERC20.sol\":5397:5404  spender */\n      dup3\n        /* \"@openzeppelin/contracts@4.7.3/token/ERC20/ERC20.sol\":5406:5412  amount */\n      dup6\n        /* \"@openzeppelin/contracts@4.7.3/token/ERC20/ERC20.sol\":5375:5390  _spendAllowance */\n      tag_128\n        /* \"@openzeppelin/contracts@4.7.3/token/ERC20/ERC20.sol\":5375:5413  _spendAllowance(from, spender, amount) */\n      jump\t// in\n    tag_127:\n        /* \"@openzeppelin/contracts@4.7.3/token/ERC20/ERC20.sol\":5423:5450  _transfer(from, to, amount) */\n      tag_129\n        /* \"@openzeppelin/contracts@4.7.3/token/ERC20/ERC20.sol\":5433:5437  from */\n      dup6\n        /* \"@openzeppelin/contracts@4.7.3/token/ERC20/ERC20.sol\":5439:5441  to */\n      dup6\n        /* \"@openzeppelin/contracts@4.7.3/token/ERC20/ERC20.sol\":5443:5449  amount */\n      dup6\n        /* \"@openzeppelin/contracts@4.7.3/token/ERC20/ERC20.sol\":5423:5432  _transfer */\n      tag_130\n        /* \"@openzeppelin/contracts@4.7.3/token/ERC20/ERC20.sol\":5423:5450  _transfer(from, to, amount) */\n      jump\t// in\n    tag_129:\n        /* \"@openzeppelin/contracts@4.7.3/token/ERC20/ERC20.sol\":5467:5471  true */\n      0x01\n        /* \"@openzeppelin/contracts@4.7.3/token/ERC20/ERC20.sol\":5460:5471  return true */\n      swap2\n      pop\n      pop\n        /* \"@openzeppelin/contracts@4.7.3/token/ERC20/ERC20.sol\":5192:5478  function transferFrom(... */\n      swap4\n      swap3\n      pop\n      pop\n      pop\n      jump\t// out\n        /* \"@openzeppelin/contracts@4.7.3/token/ERC20/ERC20.sol\":3093:3184  function decimals() public view virtual override returns (uint8) {... */\n    tag_47:\n        /* \"@openzeppelin/contracts@4.7.3/token/ERC20/ERC20.sol\":3151:3156  uint8 */\n      0x00\n        /* \"@openzeppelin/contracts@4.7.3/token/ERC20/ERC20.sol\":3175:3177  18 */\n      0x12\n        /* \"@openzeppelin/contracts@4.7.3/token/ERC20/ERC20.sol\":3168:3177  return 18 */\n      swap1\n      pop\n        /* \"@openzeppelin/contracts@4.7.3/token/ERC20/ERC20.sol\":3093:3184  function decimals() public view virtual override returns (uint8) {... */\n      swap1\n      jump\t// out\n        /* \"@openzeppelin/contracts@4.7.3/token/ERC20/extensions/draft-ERC20Permit.sol\":2885:2998  function DOMAIN_SEPARATOR() external view override returns (bytes32) {... */\n    tag_51:\n        /* \"@openzeppelin/contracts@4.7.3/token/ERC20/extensions/draft-ERC20Permit.sol\":2945:2952  bytes32 */\n      0x00\n        /* \"@openzeppelin/contracts@4.7.3/token/ERC20/extensions/draft-ERC20Permit.sol\":2971:2991  _domainSeparatorV4() */\n      tag_133\n        /* \"@openzeppelin/contracts@4.7.3/token/ERC20/extensions/draft-ERC20Permit.sol\":2971:2989  _domainSeparatorV4 */\n      tag_134\n        /* \"@openzeppelin/contracts@4.7.3/token/ERC20/extensions/draft-ERC20Permit.sol\":2971:2991  _domainSeparatorV4() */\n      jump\t// in\n    tag_133:\n        /* \"@openzeppelin/contracts@4.7.3/token/ERC20/extensions/draft-ERC20Permit.sol\":2964:2991  return _domainSeparatorV4() */\n      swap1\n      pop\n        /* \"@openzeppelin/contracts@4.7.3/token/ERC20/extensions/draft-ERC20Permit.sol\":2885:2998  function DOMAIN_SEPARATOR() external view override returns (bytes32) {... */\n      swap1\n      jump\t// out\n        /* \"@openzeppelin/contracts@4.7.3/token/ERC20/ERC20.sol\":5873:6107  function increaseAllowance(address spender, uint256 addedValue) public virtual returns (bool) {... */\n    tag_56:\n        /* \"@openzeppelin/contracts@4.7.3/token/ERC20/ERC20.sol\":5961:5965  bool */\n      0x00\n        /* \"@openzeppelin/contracts@4.7.3/token/ERC20/ERC20.sol\":5977:5990  address owner */\n      dup1\n        /* \"@openzeppelin/contracts@4.7.3/token/ERC20/ERC20.sol\":5993:6005  _msgSender() */\n      tag_136\n        /* \"@openzeppelin/contracts@4.7.3/token/ERC20/ERC20.sol\":5993:6003  _msgSender */\n      tag_121\n        /* \"@openzeppelin/contracts@4.7.3/token/ERC20/ERC20.sol\":5993:6005  _msgSender() */\n      jump\t// in\n    tag_136:\n        /* \"@openzeppelin/contracts@4.7.3/token/ERC20/ERC20.sol\":5977:6005  address owner = _msgSender() */\n      swap1\n      pop\n        /* \"@openzeppelin/contracts@4.7.3/token/ERC20/ERC20.sol\":6015:6079  _approve(owner, spender, allowance(owner, spender) + addedValue) */\n      tag_137\n        /* \"@openzeppelin/contracts@4.7.3/token/ERC20/ERC20.sol\":6024:6029  owner */\n      dup2\n        /* \"@openzeppelin/contracts@4.7.3/token/ERC20/ERC20.sol\":6031:6038  spender */\n      dup6\n        /* \"@openzeppelin/contracts@4.7.3/token/ERC20/ERC20.sol\":6068:6078  addedValue */\n      dup6\n        /* \"@openzeppelin/contracts@4.7.3/token/ERC20/ERC20.sol\":6040:6065  allowance(owner, spender) */\n      tag_138\n        /* \"@openzeppelin/contracts@4.7.3/token/ERC20/ERC20.sol\":6050:6055  owner */\n      dup6\n        /* \"@openzeppelin/contracts@4.7.3/token/ERC20/ERC20.sol\":6057:6064  spender */\n      dup10\n        /* \"@openzeppelin/contracts@4.7.3/token/ERC20/ERC20.sol\":6040:6049  allowance */\n      tag_110\n        /* \"@openzeppelin/contracts@4.7.3/token/ERC20/ERC20.sol\":6040:6065  allowance(owner, spender) */\n      jump\t// in\n    tag_138:\n        /* \"@openzeppelin/contracts@4.7.3/token/ERC20/ERC20.sol\":6040:6078  allowance(owner, spender) + addedValue */\n      tag_139\n      swap2\n      swap1\n      tag_140\n      jump\t// in\n    tag_139:\n        /* \"@openzeppelin/contracts@4.7.3/token/ERC20/ERC20.sol\":6015:6023  _approve */\n      tag_123\n        /* \"@openzeppelin/contracts@4.7.3/token/ERC20/ERC20.sol\":6015:6079  _approve(owner, spender, allowance(owner, spender) + addedValue) */\n      jump\t// in\n    tag_137:\n        /* \"@openzeppelin/contracts@4.7.3/token/ERC20/ERC20.sol\":6096:6100  true */\n      0x01\n        /* \"@openzeppelin/contracts@4.7.3/token/ERC20/ERC20.sol\":6089:6100  return true */\n      swap2\n      pop\n      pop\n        /* \"@openzeppelin/contracts@4.7.3/token/ERC20/ERC20.sol\":5873:6107  function increaseAllowance(address spender, uint256 addedValue) public virtual returns (bool) {... */\n      swap3\n      swap2\n      pop\n      pop\n      jump\t// out\n        /* \"P2PLending.sol\":958:1081  function transfertoContract(address _from, uint _amount) external {... */\n    tag_60:\n        /* \"P2PLending.sol\":1034:1074  _transfer(_from, address(this), _amount) */\n      tag_142\n        /* \"P2PLending.sol\":1044:1049  _from */\n      dup3\n        /* \"P2PLending.sol\":1059:1063  this */\n      address\n        /* \"P2PLending.sol\":1066:1073  _amount */\n      dup4\n        /* \"P2PLending.sol\":1034:1043  _transfer */\n      tag_130\n        /* \"P2PLending.sol\":1034:1074  _transfer(_from, address(this), _amount) */\n      jump\t// in\n    tag_142:\n        /* \"P2PLending.sol\":958:1081  function transfertoContract(address _from, uint _amount) external {... */\n      pop\n      pop\n      jump\t// out\n        /* \"P2PLending.sol\":869:952  function mint(address to, uint256 value) external {... */\n    tag_63:\n        /* \"P2PLending.sol\":929:945  _mint(to, value) */\n      tag_144\n        /* \"P2PLending.sol\":935:937  to */\n      dup3\n        /* \"P2PLending.sol\":939:944  value */\n      dup3\n        /* \"P2PLending.sol\":929:934  _mint */\n      tag_145\n        /* \"P2PLending.sol\":929:945  _mint(to, value) */\n      jump\t// in\n    tag_144:\n        /* \"P2PLending.sol\":869:952  function mint(address to, uint256 value) external {... */\n      pop\n      pop\n      jump\t// out\n        /* \"@openzeppelin/contracts@4.7.3/token/ERC20/ERC20.sol\":3408:3533  function balanceOf(address account) public view virtual override returns (uint256) {... */\n    tag_67:\n        /* \"@openzeppelin/contracts@4.7.3/token/ERC20/ERC20.sol\":3482:3489  uint256 */\n      0x00\n        /* \"@openzeppelin/contracts@4.7.3/token/ERC20/ERC20.sol\":3508:3517  _balances */\n      dup1\n        /* \"@openzeppelin/contracts@4.7.3/token/ERC20/ERC20.sol\":3508:3526  _balances[account] */\n      0x00\n        /* \"@openzeppelin/contracts@4.7.3/token/ERC20/ERC20.sol\":3518:3525  account */\n      dup4\n        /* \"@openzeppelin/contracts@4.7.3/token/ERC20/ERC20.sol\":3508:3526  _balances[account] */\n      0xffffffffffffffffffffffffffffffffffffffff\n      and\n      0xffffffffffffffffffffffffffffffffffffffff\n      and\n      dup2\n      mstore\n      0x20\n      add\n      swap1\n      dup2\n      mstore\n      0x20\n      add\n      0x00\n      keccak256\n      sload\n        /* \"@openzeppelin/contracts@4.7.3/token/ERC20/ERC20.sol\":3501:3526  return _balances[account] */\n      swap1\n      pop\n        /* \"@openzeppelin/contracts@4.7.3/token/ERC20/ERC20.sol\":3408:3533  function balanceOf(address account) public view virtual override returns (uint256) {... */\n      swap2\n      swap1\n      pop\n      jump\t// out\n        /* \"@openzeppelin/contracts@4.7.3/token/ERC20/extensions/draft-ERC20Permit.sol\":2635:2761  function nonces(address owner) public view virtual override returns (uint256) {... */\n    tag_71:\n        /* \"@openzeppelin/contracts@4.7.3/token/ERC20/extensions/draft-ERC20Permit.sol\":2704:2711  uint256 */\n      0x00\n        /* \"@openzeppelin/contracts@4.7.3/token/ERC20/extensions/draft-ERC20Permit.sol\":2730:2754  _nonces[owner].current() */\n      tag_148\n        /* \"@openzeppelin/contracts@4.7.3/token/ERC20/extensions/draft-ERC20Permit.sol\":2730:2737  _nonces */\n      0x05\n        /* \"@openzeppelin/contracts@4.7.3/token/ERC20/extensions/draft-ERC20Permit.sol\":2730:2744  _nonces[owner] */\n      0x00\n        /* \"@openzeppelin/contracts@4.7.3/token/ERC20/extensions/draft-ERC20Permit.sol\":2738:2743  owner */\n      dup5\n        /* \"@openzeppelin/contracts@4.7.3/token/ERC20/extensions/draft-ERC20Permit.sol\":2730:2744  _nonces[owner] */\n      0xffffffffffffffffffffffffffffffffffffffff\n      and\n      0xffffffffffffffffffffffffffffffffffffffff\n      and\n      dup2\n      mstore\n      0x20\n      add\n      swap1\n      dup2\n      mstore\n      0x20\n      add\n      0x00\n      keccak256\n        /* \"@openzeppelin/contracts@4.7.3/token/ERC20/extensions/draft-ERC20Permit.sol\":2730:2752  _nonces[owner].current */\n      tag_149\n        /* \"@openzeppelin/contracts@4.7.3/token/ERC20/extensions/draft-ERC20Permit.sol\":2730:2754  _nonces[owner].current() */\n      jump\t// in\n    tag_148:\n        /* \"@openzeppelin/contracts@4.7.3/token/ERC20/extensions/draft-ERC20Permit.sol\":2723:2754  return _nonces[owner].current() */\n      swap1\n      pop\n        /* \"@openzeppelin/contracts@4.7.3/token/ERC20/extensions/draft-ERC20Permit.sol\":2635:2761  function nonces(address owner) public view virtual override returns (uint256) {... */\n      swap2\n      swap1\n      pop\n      jump\t// out\n        /* \"P2PLending.sol\":421:467  mapping(address => uint) public borrowedAmount */\n    tag_75:\n      mstore(0x20, 0x09)\n      dup1\n      0x00\n      mstore\n      keccak256(0x00, 0x40)\n      0x00\n      swap2\n      pop\n      swap1\n      pop\n      sload\n      dup2\n      jump\t// out\n        /* \"@openzeppelin/contracts@4.7.3/token/ERC20/ERC20.sol\":2367:2469  function symbol() public view virtual override returns (string memory) {... */\n    tag_78:\n        /* \"@openzeppelin/contracts@4.7.3/token/ERC20/ERC20.sol\":2423:2436  string memory */\n      0x60\n        /* \"@openzeppelin/contracts@4.7.3/token/ERC20/ERC20.sol\":2455:2462  _symbol */\n      0x04\n        /* \"@openzeppelin/contracts@4.7.3/token/ERC20/ERC20.sol\":2448:2462  return _symbol */\n      dup1\n      sload\n      tag_151\n      swap1\n      tag_114\n      jump\t// in\n    tag_151:\n      dup1\n      0x1f\n      add\n      0x20\n      dup1\n      swap2\n      div\n      mul\n      0x20\n      add\n      mload(0x40)\n      swap1\n      dup2\n      add\n      0x40\n      mstore\n      dup1\n      swap3\n      swap2\n      swap1\n      dup2\n      dup2\n      mstore\n      0x20\n      add\n      dup3\n      dup1\n      sload\n      tag_152\n      swap1\n      tag_114\n      jump\t// in\n    tag_152:\n      dup1\n      iszero\n      tag_153\n      jumpi\n      dup1\n      0x1f\n      lt\n      tag_154\n      jumpi\n      0x0100\n      dup1\n      dup4\n      sload\n      div\n      mul\n      dup4\n      mstore\n      swap2\n      0x20\n      add\n      swap2\n      jump(tag_153)\n    tag_154:\n      dup3\n      add\n      swap2\n      swap1\n      0x00\n      mstore\n      keccak256(0x00, 0x20)\n      swap1\n    tag_155:\n      dup2\n      sload\n      dup2\n      mstore\n      swap1\n      0x01\n      add\n      swap1\n      0x20\n      add\n      dup1\n      dup4\n      gt\n      tag_155\n      jumpi\n      dup3\n      swap1\n      sub\n      0x1f\n      and\n      dup3\n      add\n      swap2\n    tag_153:\n      pop\n      pop\n      pop\n      pop\n      pop\n      swap1\n      pop\n        /* \"@openzeppelin/contracts@4.7.3/token/ERC20/ERC20.sol\":2367:2469  function symbol() public view virtual override returns (string memory) {... */\n      swap1\n      jump\t// out\n        /* \"@openzeppelin/contracts@4.7.3/token/ERC20/ERC20.sol\":6594:7021  function decreaseAllowance(address spender, uint256 subtractedValue) public virtual returns (bool) {... */\n    tag_82:\n        /* \"@openzeppelin/contracts@4.7.3/token/ERC20/ERC20.sol\":6687:6691  bool */\n      0x00\n        /* \"@openzeppelin/contracts@4.7.3/token/ERC20/ERC20.sol\":6703:6716  address owner */\n      dup1\n        /* \"@openzeppelin/contracts@4.7.3/token/ERC20/ERC20.sol\":6719:6731  _msgSender() */\n      tag_157\n        /* \"@openzeppelin/contracts@4.7.3/token/ERC20/ERC20.sol\":6719:6729  _msgSender */\n      tag_121\n        /* \"@openzeppelin/contracts@4.7.3/token/ERC20/ERC20.sol\":6719:6731  _msgSender() */\n      jump\t// in\n    tag_157:\n        /* \"@openzeppelin/contracts@4.7.3/token/ERC20/ERC20.sol\":6703:6731  address owner = _msgSender() */\n      swap1\n      pop\n        /* \"@openzeppelin/contracts@4.7.3/token/ERC20/ERC20.sol\":6741:6765  uint256 currentAllowance */\n      0x00\n        /* \"@openzeppelin/contracts@4.7.3/token/ERC20/ERC20.sol\":6768:6793  allowance(owner, spender) */\n      tag_158\n        /* \"@openzeppelin/contracts@4.7.3/token/ERC20/ERC20.sol\":6778:6783  owner */\n      dup3\n        /* \"@openzeppelin/contracts@4.7.3/token/ERC20/ERC20.sol\":6785:6792  spender */\n      dup7\n        /* \"@openzeppelin/contracts@4.7.3/token/ERC20/ERC20.sol\":6768:6777  allowance */\n      tag_110\n        /* \"@openzeppelin/contracts@4.7.3/token/ERC20/ERC20.sol\":6768:6793  allowance(owner, spender) */\n      jump\t// in\n    tag_158:\n        /* \"@openzeppelin/contracts@4.7.3/token/ERC20/ERC20.sol\":6741:6793  uint256 currentAllowance = allowance(owner, spender) */\n      swap1\n      pop\n        /* \"@openzeppelin/contracts@4.7.3/token/ERC20/ERC20.sol\":6831:6846  subtractedValue */\n      dup4\n        /* \"@openzeppelin/contracts@4.7.3/token/ERC20/ERC20.sol\":6811:6827  currentAllowance */\n      dup2\n        /* \"@openzeppelin/contracts@4.7.3/token/ERC20/ERC20.sol\":6811:6846  currentAllowance >= subtractedValue */\n      lt\n      iszero\n        /* \"@openzeppelin/contracts@4.7.3/token/ERC20/ERC20.sol\":6803:6888  require(currentAllowance >= subtractedValue, \"ERC20: decreased allowance below zero\") */\n      tag_159\n      jumpi\n      mload(0x40)\n      0x08c379a000000000000000000000000000000000000000000000000000000000\n      dup2\n      mstore\n      0x04\n      add\n      tag_160\n      swap1\n      tag_161\n      jump\t// in\n    tag_160:\n      mload(0x40)\n      dup1\n      swap2\n      sub\n      swap1\n      revert\n    tag_159:\n        /* \"@openzeppelin/contracts@4.7.3/token/ERC20/ERC20.sol\":6922:6982  _approve(owner, spender, currentAllowance - subtractedValue) */\n      tag_162\n        /* \"@openzeppelin/contracts@4.7.3/token/ERC20/ERC20.sol\":6931:6936  owner */\n      dup3\n        /* \"@openzeppelin/contracts@4.7.3/token/ERC20/ERC20.sol\":6938:6945  spender */\n      dup7\n        /* \"@openzeppelin/contracts@4.7.3/token/ERC20/ERC20.sol\":6966:6981  subtractedValue */\n      dup7\n        /* \"@openzeppelin/contracts@4.7.3/token/ERC20/ERC20.sol\":6947:6963  currentAllowance */\n      dup5\n        /* \"@openzeppelin/contracts@4.7.3/token/ERC20/ERC20.sol\":6947:6981  currentAllowance - subtractedValue */\n      sub\n        /* \"@openzeppelin/contracts@4.7.3/token/ERC20/ERC20.sol\":6922:6930  _approve */\n      tag_123\n        /* \"@openzeppelin/contracts@4.7.3/token/ERC20/ERC20.sol\":6922:6982  _approve(owner, spender, currentAllowance - subtractedValue) */\n      jump\t// in\n    tag_162:\n        /* \"@openzeppelin/contracts@4.7.3/token/ERC20/ERC20.sol\":7010:7014  true */\n      0x01\n        /* \"@openzeppelin/contracts@4.7.3/token/ERC20/ERC20.sol\":7003:7014  return true */\n      swap3\n      pop\n      pop\n      pop\n        /* \"@openzeppelin/contracts@4.7.3/token/ERC20/ERC20.sol\":6594:7021  function decreaseAllowance(address spender, uint256 subtractedValue) public virtual returns (bool) {... */\n      swap3\n      swap2\n      pop\n      pop\n      jump\t// out\n        /* \"@openzeppelin/contracts@4.7.3/token/ERC20/ERC20.sol\":3729:3918  function transfer(address to, uint256 amount) public virtual override returns (bool) {... */\n    tag_86:\n        /* \"@openzeppelin/contracts@4.7.3/token/ERC20/ERC20.sol\":3808:3812  bool */\n      0x00\n        /* \"@openzeppelin/contracts@4.7.3/token/ERC20/ERC20.sol\":3824:3837  address owner */\n      dup1\n        /* \"@openzeppelin/contracts@4.7.3/token/ERC20/ERC20.sol\":3840:3852  _msgSender() */\n      tag_164\n        /* \"@openzeppelin/contracts@4.7.3/token/ERC20/ERC20.sol\":3840:3850  _msgSender */\n      tag_121\n        /* \"@openzeppelin/contracts@4.7.3/token/ERC20/ERC20.sol\":3840:3852  _msgSender() */\n      jump\t// in\n    tag_164:\n        /* \"@openzeppelin/contracts@4.7.3/token/ERC20/ERC20.sol\":3824:3852  address owner = _msgSender() */\n      swap1\n      pop\n        /* \"@openzeppelin/contracts@4.7.3/token/ERC20/ERC20.sol\":3862:3890  _transfer(owner, to, amount) */\n      tag_165\n        /* \"@openzeppelin/contracts@4.7.3/token/ERC20/ERC20.sol\":3872:3877  owner */\n      dup2\n        /* \"@openzeppelin/contracts@4.7.3/token/ERC20/ERC20.sol\":3879:3881  to */\n      dup6\n        /* \"@openzeppelin/contracts@4.7.3/token/ERC20/ERC20.sol\":3883:3889  amount */\n      dup6\n        /* \"@openzeppelin/contracts@4.7.3/token/ERC20/ERC20.sol\":3862:3871  _transfer */\n      tag_130\n        /* \"@openzeppelin/contracts@4.7.3/token/ERC20/ERC20.sol\":3862:3890  _transfer(owner, to, amount) */\n      jump\t// in\n    tag_165:\n        /* \"@openzeppelin/contracts@4.7.3/token/ERC20/ERC20.sol\":3907:3911  true */\n      0x01\n        /* \"@openzeppelin/contracts@4.7.3/token/ERC20/ERC20.sol\":3900:3911  return true */\n      swap2\n      pop\n      pop\n        /* \"@openzeppelin/contracts@4.7.3/token/ERC20/ERC20.sol\":3729:3918  function transfer(address to, uint256 amount) public virtual override returns (bool) {... */\n      swap3\n      swap2\n      pop\n      pop\n      jump\t// out\n        /* \"P2PLending.sol\":370:415  mapping (address => uint) public lendedAmount */\n    tag_90:\n      mstore(0x20, 0x08)\n      dup1\n      0x00\n      mstore\n      keccak256(0x00, 0x40)\n      0x00\n      swap2\n      pop\n      swap1\n      pop\n      sload\n      dup2\n      jump\t// out\n        /* \"P2PLending.sol\":1087:1615  function transferToAddr(address _from, address _to, uint _amount) external {... */\n    tag_94:\n        /* \"P2PLending.sol\":1189:1191  20 */\n      0x14\n        /* \"P2PLending.sol\":1180:1187  _amount */\n      dup2\n        /* \"P2PLending.sol\":1180:1191  _amount >20 */\n      gt\n        /* \"P2PLending.sol\":1172:1217  require(_amount >20, \"token is less than 20\") */\n      tag_167\n      jumpi\n      mload(0x40)\n      0x08c379a000000000000000000000000000000000000000000000000000000000\n      dup2\n      mstore\n      0x04\n      add\n      tag_168\n      swap1\n      tag_169\n      jump\t// in\n    tag_168:\n      mload(0x40)\n      dup1\n      swap2\n      sub\n      swap1\n      revert\n    tag_167:\n        /* \"P2PLending.sol\":1326:1330  1000 */\n      0x03e8\n        /* \"P2PLending.sol\":1316:1323  _amount */\n      dup2\n        /* \"P2PLending.sol\":1316:1330  _amount < 1000 */\n      lt\n        /* \"P2PLending.sol\":1313:1608  if(_amount < 1000) {... */\n      iszero\n      tag_170\n      jumpi\n        /* \"P2PLending.sol\":1346:1381  _transfer(_from, address(this), 20) */\n      tag_171\n        /* \"P2PLending.sol\":1356:1361  _from */\n      dup4\n        /* \"P2PLending.sol\":1371:1375  this */\n      address\n        /* \"P2PLending.sol\":1378:1380  20 */\n      0x14\n        /* \"P2PLending.sol\":1346:1355  _transfer */\n      tag_130\n        /* \"P2PLending.sol\":1346:1381  _transfer(_from, address(this), 20) */\n      jump\t// in\n    tag_171:\n        /* \"P2PLending.sol\":1395:1428  _transfer(_from, _to, _amount-20) */\n      tag_172\n        /* \"P2PLending.sol\":1405:1410  _from */\n      dup4\n        /* \"P2PLending.sol\":1412:1415  _to */\n      dup4\n        /* \"P2PLending.sol\":1425:1427  20 */\n      0x14\n        /* \"P2PLending.sol\":1417:1424  _amount */\n      dup5\n        /* \"P2PLending.sol\":1417:1427  _amount-20 */\n      tag_173\n      swap2\n      swap1\n      tag_174\n      jump\t// in\n    tag_173:\n        /* \"P2PLending.sol\":1395:1404  _transfer */\n      tag_130\n        /* \"P2PLending.sol\":1395:1428  _transfer(_from, _to, _amount-20) */\n      jump\t// in\n    tag_172:\n        /* \"P2PLending.sol\":1313:1608  if(_amount < 1000) {... */\n      jump(tag_175)\n    tag_170:\n        /* \"P2PLending.sol\":1467:1476  uint fees */\n      0x00\n        /* \"P2PLending.sol\":1493:1496  100 */\n      0x64\n        /* \"P2PLending.sol\":1489:1490  2 */\n      0x02\n        /* \"P2PLending.sol\":1480:1487  _amount */\n      dup4\n        /* \"P2PLending.sol\":1480:1490  _amount *2 */\n      tag_176\n      swap2\n      swap1\n      tag_177\n      jump\t// in\n    tag_176:\n        /* \"P2PLending.sol\":1479:1497  (_amount *2)/(100) */\n      tag_178\n      swap2\n      swap1\n      tag_179\n      jump\t// in\n    tag_178:\n        /* \"P2PLending.sol\":1467:1497  uint fees = (_amount *2)/(100) */\n      swap1\n      pop\n        /* \"P2PLending.sol\":1511:1548  _transfer(_from, address(this), fees) */\n      tag_180\n        /* \"P2PLending.sol\":1521:1526  _from */\n      dup5\n        /* \"P2PLending.sol\":1536:1540  this */\n      address\n        /* \"P2PLending.sol\":1543:1547  fees */\n      dup4\n        /* \"P2PLending.sol\":1511:1520  _transfer */\n      tag_130\n        /* \"P2PLending.sol\":1511:1548  _transfer(_from, address(this), fees) */\n      jump\t// in\n    tag_180:\n        /* \"P2PLending.sol\":1562:1597  _transfer(_from, _to, _amount-fees) */\n      tag_181\n        /* \"P2PLending.sol\":1572:1577  _from */\n      dup5\n        /* \"P2PLending.sol\":1579:1582  _to */\n      dup5\n        /* \"P2PLending.sol\":1592:1596  fees */\n      dup4\n        /* \"P2PLending.sol\":1584:1591  _amount */\n      dup6\n        /* \"P2PLending.sol\":1584:1596  _amount-fees */\n      tag_182\n      swap2\n      swap1\n      tag_174\n      jump\t// in\n    tag_182:\n        /* \"P2PLending.sol\":1562:1571  _transfer */\n      tag_130\n        /* \"P2PLending.sol\":1562:1597  _transfer(_from, _to, _amount-fees) */\n      jump\t// in\n    tag_181:\n        /* \"P2PLending.sol\":1453:1608  {... */\n      pop\n        /* \"P2PLending.sol\":1313:1608  if(_amount < 1000) {... */\n    tag_175:\n        /* \"P2PLending.sol\":1087:1615  function transferToAddr(address _from, address _to, uint _amount) external {... */\n      pop\n      pop\n      pop\n      jump\t// out\n        /* \"P2PLending.sol\":474:677  function RegisterLender(uint _amount, uint _deadline, uint8 _v, bytes32 _r, bytes32 _s) public returns (bool) {... */\n    tag_98:\n        /* \"P2PLending.sol\":578:582  bool */\n      0x00\n        /* \"P2PLending.sol\":603:669  permit(msg.sender, address(this), _amount, _deadline, _v, _r, _s ) */\n      tag_184\n        /* \"P2PLending.sol\":610:620  msg.sender */\n      caller\n        /* \"P2PLending.sol\":630:634  this */\n      address\n        /* \"P2PLending.sol\":637:644  _amount */\n      dup9\n        /* \"P2PLending.sol\":646:655  _deadline */\n      dup9\n        /* \"P2PLending.sol\":657:659  _v */\n      dup9\n        /* \"P2PLending.sol\":661:663  _r */\n      dup9\n        /* \"P2PLending.sol\":665:667  _s */\n      dup9\n        /* \"P2PLending.sol\":603:609  permit */\n      tag_103\n        /* \"P2PLending.sol\":603:669  permit(msg.sender, address(this), _amount, _deadline, _v, _r, _s ) */\n      jump\t// in\n    tag_184:\n        /* \"P2PLending.sol\":474:677  function RegisterLender(uint _amount, uint _deadline, uint8 _v, bytes32 _r, bytes32 _s) public returns (bool) {... */\n      swap6\n      swap5\n      pop\n      pop\n      pop\n      pop\n      pop\n      jump\t// out\n        /* \"@openzeppelin/contracts@4.7.3/token/ERC20/extensions/draft-ERC20Permit.sol\":1948:2574  function permit(... */\n    tag_103:\n        /* \"@openzeppelin/contracts@4.7.3/token/ERC20/extensions/draft-ERC20Permit.sol\":2183:2191  deadline */\n      dup4\n        /* \"@openzeppelin/contracts@4.7.3/token/ERC20/extensions/draft-ERC20Permit.sol\":2164:2179  block.timestamp */\n      timestamp\n        /* \"@openzeppelin/contracts@4.7.3/token/ERC20/extensions/draft-ERC20Permit.sol\":2164:2191  block.timestamp <= deadline */\n      gt\n      iszero\n        /* \"@openzeppelin/contracts@4.7.3/token/ERC20/extensions/draft-ERC20Permit.sol\":2156:2225  require(block.timestamp <= deadline, \"ERC20Permit: expired deadline\") */\n      tag_186\n      jumpi\n      mload(0x40)\n      0x08c379a000000000000000000000000000000000000000000000000000000000\n      dup2\n      mstore\n      0x04\n      add\n      tag_187\n      swap1\n      tag_188\n      jump\t// in\n    tag_187:\n      mload(0x40)\n      dup1\n      swap2\n      sub\n      swap1\n      revert\n    tag_186:\n        /* \"@openzeppelin/contracts@4.7.3/token/ERC20/extensions/draft-ERC20Permit.sol\":2236:2254  bytes32 structHash */\n      0x00\n        /* \"@openzeppelin/contracts@4.7.3/token/ERC20/extensions/draft-ERC20Permit.sol\":1143:1238  keccak256(\"Permit(address owner,address spender,uint256 value,uint256 nonce,uint256 deadline)\") */\n      0x6e71edae12b1b97f4d1f60370fef10105fa2faae0126114a169c64845d6126c9\n        /* \"@openzeppelin/contracts@4.7.3/token/ERC20/extensions/draft-ERC20Permit.sol\":2296:2301  owner */\n      dup9\n        /* \"@openzeppelin/contracts@4.7.3/token/ERC20/extensions/draft-ERC20Permit.sol\":2303:2310  spender */\n      dup9\n        /* \"@openzeppelin/contracts@4.7.3/token/ERC20/extensions/draft-ERC20Permit.sol\":2312:2317  value */\n      dup9\n        /* \"@openzeppelin/contracts@4.7.3/token/ERC20/extensions/draft-ERC20Permit.sol\":2319:2335  _useNonce(owner) */\n      tag_189\n        /* \"@openzeppelin/contracts@4.7.3/token/ERC20/extensions/draft-ERC20Permit.sol\":2329:2334  owner */\n      dup13\n        /* \"@openzeppelin/contracts@4.7.3/token/ERC20/extensions/draft-ERC20Permit.sol\":2319:2328  _useNonce */\n      tag_190\n        /* \"@openzeppelin/contracts@4.7.3/token/ERC20/extensions/draft-ERC20Permit.sol\":2319:2335  _useNonce(owner) */\n      jump\t// in\n    tag_189:\n        /* \"@openzeppelin/contracts@4.7.3/token/ERC20/extensions/draft-ERC20Permit.sol\":2337:2345  deadline */\n      dup10\n        /* \"@openzeppelin/contracts@4.7.3/token/ERC20/extensions/draft-ERC20Permit.sol\":2267:2346  abi.encode(_PERMIT_TYPEHASH, owner, spender, value, _useNonce(owner), deadline) */\n      add(0x20, mload(0x40))\n      tag_191\n      swap7\n      swap6\n      swap5\n      swap4\n      swap3\n      swap2\n      swap1\n      tag_192\n      jump\t// in\n    tag_191:\n      mload(0x40)\n      0x20\n      dup2\n      dup4\n      sub\n      sub\n      dup2\n      mstore\n      swap1\n      0x40\n      mstore\n        /* \"@openzeppelin/contracts@4.7.3/token/ERC20/extensions/draft-ERC20Permit.sol\":2257:2347  keccak256(abi.encode(_PERMIT_TYPEHASH, owner, spender, value, _useNonce(owner), deadline)) */\n      dup1\n      mload\n      swap1\n      0x20\n      add\n      keccak256\n        /* \"@openzeppelin/contracts@4.7.3/token/ERC20/extensions/draft-ERC20Permit.sol\":2236:2347  bytes32 structHash = keccak256(abi.encode(_PERMIT_TYPEHASH, owner, spender, value, _useNonce(owner), deadline)) */\n      swap1\n      pop\n        /* \"@openzeppelin/contracts@4.7.3/token/ERC20/extensions/draft-ERC20Permit.sol\":2358:2370  bytes32 hash */\n      0x00\n        /* \"@openzeppelin/contracts@4.7.3/token/ERC20/extensions/draft-ERC20Permit.sol\":2373:2401  _hashTypedDataV4(structHash) */\n      tag_193\n        /* \"@openzeppelin/contracts@4.7.3/token/ERC20/extensions/draft-ERC20Permit.sol\":2390:2400  structHash */\n      dup3\n        /* \"@openzeppelin/contracts@4.7.3/token/ERC20/extensions/draft-ERC20Permit.sol\":2373:2389  _hashTypedDataV4 */\n      tag_194\n        /* \"@openzeppelin/contracts@4.7.3/token/ERC20/extensions/draft-ERC20Permit.sol\":2373:2401  _hashTypedDataV4(structHash) */\n      jump\t// in\n    tag_193:\n        /* \"@openzeppelin/contracts@4.7.3/token/ERC20/extensions/draft-ERC20Permit.sol\":2358:2401  bytes32 hash = _hashTypedDataV4(structHash) */\n      swap1\n      pop\n        /* \"@openzeppelin/contracts@4.7.3/token/ERC20/extensions/draft-ERC20Permit.sol\":2412:2426  address signer */\n      0x00\n        /* \"@openzeppelin/contracts@4.7.3/token/ERC20/extensions/draft-ERC20Permit.sol\":2429:2457  ECDSA.recover(hash, v, r, s) */\n      tag_195\n        /* \"@openzeppelin/contracts@4.7.3/token/ERC20/extensions/draft-ERC20Permit.sol\":2443:2447  hash */\n      dup3\n        /* \"@openzeppelin/contracts@4.7.3/token/ERC20/extensions/draft-ERC20Permit.sol\":2449:2450  v */\n      dup8\n        /* \"@openzeppelin/contracts@4.7.3/token/ERC20/extensions/draft-ERC20Permit.sol\":2452:2453  r */\n      dup8\n        /* \"@openzeppelin/contracts@4.7.3/token/ERC20/extensions/draft-ERC20Permit.sol\":2455:2456  s */\n      dup8\n        /* \"@openzeppelin/contracts@4.7.3/token/ERC20/extensions/draft-ERC20Permit.sol\":2429:2442  ECDSA.recover */\n      tag_196\n        /* \"@openzeppelin/contracts@4.7.3/token/ERC20/extensions/draft-ERC20Permit.sol\":2429:2457  ECDSA.recover(hash, v, r, s) */\n      jump\t// in\n    tag_195:\n        /* \"@openzeppelin/contracts@4.7.3/token/ERC20/extensions/draft-ERC20Permit.sol\":2412:2457  address signer = ECDSA.recover(hash, v, r, s) */\n      swap1\n      pop\n        /* \"@openzeppelin/contracts@4.7.3/token/ERC20/extensions/draft-ERC20Permit.sol\":2485:2490  owner */\n      dup10\n        /* \"@openzeppelin/contracts@4.7.3/token/ERC20/extensions/draft-ERC20Permit.sol\":2475:2490  signer == owner */\n      0xffffffffffffffffffffffffffffffffffffffff\n      and\n        /* \"@openzeppelin/contracts@4.7.3/token/ERC20/extensions/draft-ERC20Permit.sol\":2475:2481  signer */\n      dup2\n        /* \"@openzeppelin/contracts@4.7.3/token/ERC20/extensions/draft-ERC20Permit.sol\":2475:2490  signer == owner */\n      0xffffffffffffffffffffffffffffffffffffffff\n      and\n      eq\n        /* \"@openzeppelin/contracts@4.7.3/token/ERC20/extensions/draft-ERC20Permit.sol\":2467:2525  require(signer == owner, \"ERC20Permit: invalid signature\") */\n      tag_197\n      jumpi\n      mload(0x40)\n      0x08c379a000000000000000000000000000000000000000000000000000000000\n      dup2\n      mstore\n      0x04\n      add\n      tag_198\n      swap1\n      tag_199\n      jump\t// in\n    tag_198:\n      mload(0x40)\n      dup1\n      swap2\n      sub\n      swap1\n      revert\n    tag_197:\n        /* \"@openzeppelin/contracts@4.7.3/token/ERC20/extensions/draft-ERC20Permit.sol\":2536:2567  _approve(owner, spender, value) */\n      tag_200\n        /* \"@openzeppelin/contracts@4.7.3/token/ERC20/extensions/draft-ERC20Permit.sol\":2545:2550  owner */\n      dup11\n        /* \"@openzeppelin/contracts@4.7.3/token/ERC20/extensions/draft-ERC20Permit.sol\":2552:2559  spender */\n      dup11\n        /* \"@openzeppelin/contracts@4.7.3/token/ERC20/extensions/draft-ERC20Permit.sol\":2561:2566  value */\n      dup11\n        /* \"@openzeppelin/contracts@4.7.3/token/ERC20/extensions/draft-ERC20Permit.sol\":2536:2544  _approve */\n      tag_123\n        /* \"@openzeppelin/contracts@4.7.3/token/ERC20/extensions/draft-ERC20Permit.sol\":2536:2567  _approve(owner, spender, value) */\n      jump\t// in\n    tag_200:\n        /* \"@openzeppelin/contracts@4.7.3/token/ERC20/extensions/draft-ERC20Permit.sol\":2146:2574  {... */\n      pop\n      pop\n      pop\n        /* \"@openzeppelin/contracts@4.7.3/token/ERC20/extensions/draft-ERC20Permit.sol\":1948:2574  function permit(... */\n      pop\n      pop\n      pop\n      pop\n      pop\n      pop\n      pop\n      jump\t// out\n        /* \"P2PLending.sol\":685:863  function testTransfer(address _from, address _to, uint _amount) public {... */\n    tag_106:\n        /* \"P2PLending.sol\":767:807  _transfer(_from, address(this), _amount) */\n      tag_202\n        /* \"P2PLending.sol\":777:782  _from */\n      dup4\n        /* \"P2PLending.sol\":792:796  this */\n      address\n        /* \"P2PLending.sol\":799:806  _amount */\n      dup4\n        /* \"P2PLending.sol\":767:776  _transfer */\n      tag_130\n        /* \"P2PLending.sol\":767:807  _transfer(_from, address(this), _amount) */\n      jump\t// in\n    tag_202:\n        /* \"P2PLending.sol\":818:856  _transfer(address(this), _to, _amount) */\n      tag_203\n        /* \"P2PLending.sol\":836:840  this */\n      address\n        /* \"P2PLending.sol\":843:846  _to */\n      dup4\n        /* \"P2PLending.sol\":848:855  _amount */\n      dup4\n        /* \"P2PLending.sol\":818:827  _transfer */\n      tag_130\n        /* \"P2PLending.sol\":818:856  _transfer(address(this), _to, _amount) */\n      jump\t// in\n    tag_203:\n        /* \"P2PLending.sol\":685:863  function testTransfer(address _from, address _to, uint _amount) public {... */\n      pop\n      pop\n      pop\n      jump\t// out\n        /* \"@openzeppelin/contracts@4.7.3/token/ERC20/ERC20.sol\":3976:4125  function allowance(address owner, address spender) public view virtual override returns (uint256) {... */\n    tag_110:\n        /* \"@openzeppelin/contracts@4.7.3/token/ERC20/ERC20.sol\":4065:4072  uint256 */\n      0x00\n        /* \"@openzeppelin/contracts@4.7.3/token/ERC20/ERC20.sol\":4091:4102  _allowances */\n      0x01\n        /* \"@openzeppelin/contracts@4.7.3/token/ERC20/ERC20.sol\":4091:4109  _allowances[owner] */\n      0x00\n        /* \"@openzeppelin/contracts@4.7.3/token/ERC20/ERC20.sol\":4103:4108  owner */\n      dup5\n        /* \"@openzeppelin/contracts@4.7.3/token/ERC20/ERC20.sol\":4091:4109  _allowances[owner] */\n      0xffffffffffffffffffffffffffffffffffffffff\n      and\n      0xffffffffffffffffffffffffffffffffffffffff\n      and\n      dup2\n      mstore\n      0x20\n      add\n      swap1\n      dup2\n      mstore\n      0x20\n      add\n      0x00\n      keccak256\n        /* \"@openzeppelin/contracts@4.7.3/token/ERC20/ERC20.sol\":4091:4118  _allowances[owner][spender] */\n      0x00\n        /* \"@openzeppelin/contracts@4.7.3/token/ERC20/ERC20.sol\":4110:4117  spender */\n      dup4\n        /* \"@openzeppelin/contracts@4.7.3/token/ERC20/ERC20.sol\":4091:4118  _allowances[owner][spender] */\n      0xffffffffffffffffffffffffffffffffffffffff\n      and\n      0xffffffffffffffffffffffffffffffffffffffff\n      and\n      dup2\n      mstore\n      0x20\n      add\n      swap1\n      dup2\n      mstore\n      0x20\n      add\n      0x00\n      keccak256\n      sload\n        /* \"@openzeppelin/contracts@4.7.3/token/ERC20/ERC20.sol\":4084:4118  return _allowances[owner][spender] */\n      swap1\n      pop\n        /* \"@openzeppelin/contracts@4.7.3/token/ERC20/ERC20.sol\":3976:4125  function allowance(address owner, address spender) public view virtual override returns (uint256) {... */\n      swap3\n      swap2\n      pop\n      pop\n      jump\t// out\n        /* \"@openzeppelin/contracts@4.7.3/utils/Context.sol\":640:736  function _msgSender() internal view virtual returns (address) {... */\n    tag_121:\n        /* \"@openzeppelin/contracts@4.7.3/utils/Context.sol\":693:700  address */\n      0x00\n        /* \"@openzeppelin/contracts@4.7.3/utils/Context.sol\":719:729  msg.sender */\n      caller\n        /* \"@openzeppelin/contracts@4.7.3/utils/Context.sol\":712:729  return msg.sender */\n      swap1\n      pop\n        /* \"@openzeppelin/contracts@4.7.3/utils/Context.sol\":640:736  function _msgSender() internal view virtual returns (address) {... */\n      swap1\n      jump\t// out\n        /* \"@openzeppelin/contracts@4.7.3/token/ERC20/ERC20.sol\":10110:10480  function _approve(... */\n    tag_123:\n        /* \"@openzeppelin/contracts@4.7.3/token/ERC20/ERC20.sol\":10258:10259  0 */\n      0x00\n        /* \"@openzeppelin/contracts@4.7.3/token/ERC20/ERC20.sol\":10241:10260  owner != address(0) */\n      0xffffffffffffffffffffffffffffffffffffffff\n      and\n        /* \"@openzeppelin/contracts@4.7.3/token/ERC20/ERC20.sol\":10241:10246  owner */\n      dup4\n        /* \"@openzeppelin/contracts@4.7.3/token/ERC20/ERC20.sol\":10241:10260  owner != address(0) */\n      0xffffffffffffffffffffffffffffffffffffffff\n      and\n      sub\n        /* \"@openzeppelin/contracts@4.7.3/token/ERC20/ERC20.sol\":10233:10301  require(owner != address(0), \"ERC20: approve from the zero address\") */\n      tag_207\n      jumpi\n      mload(0x40)\n      0x08c379a000000000000000000000000000000000000000000000000000000000\n      dup2\n      mstore\n      0x04\n      add\n      tag_208\n      swap1\n      tag_209\n      jump\t// in\n    tag_208:\n      mload(0x40)\n      dup1\n      swap2\n      sub\n      swap1\n      revert\n    tag_207:\n        /* \"@openzeppelin/contracts@4.7.3/token/ERC20/ERC20.sol\":10338:10339  0 */\n      0x00\n        /* \"@openzeppelin/contracts@4.7.3/token/ERC20/ERC20.sol\":10319:10340  spender != address(0) */\n      0xffffffffffffffffffffffffffffffffffffffff\n      and\n        /* \"@openzeppelin/contracts@4.7.3/token/ERC20/ERC20.sol\":10319:10326  spender */\n      dup3\n        /* \"@openzeppelin/contracts@4.7.3/token/ERC20/ERC20.sol\":10319:10340  spender != address(0) */\n      0xffffffffffffffffffffffffffffffffffffffff\n      and\n      sub\n        /* \"@openzeppelin/contracts@4.7.3/token/ERC20/ERC20.sol\":10311:10379  require(spender != address(0), \"ERC20: approve to the zero address\") */\n      tag_210\n      jumpi\n      mload(0x40)\n      0x08c379a000000000000000000000000000000000000000000000000000000000\n      dup2\n      mstore\n      0x04\n      add\n      tag_211\n      swap1\n      tag_212\n      jump\t// in\n    tag_211:\n      mload(0x40)\n      dup1\n      swap2\n      sub\n      swap1\n      revert\n    tag_210:\n        /* \"@openzeppelin/contracts@4.7.3/token/ERC20/ERC20.sol\":10420:10426  amount */\n      dup1\n        /* \"@openzeppelin/contracts@4.7.3/token/ERC20/ERC20.sol\":10390:10401  _allowances */\n      0x01\n        /* \"@openzeppelin/contracts@4.7.3/token/ERC20/ERC20.sol\":10390:10408  _allowances[owner] */\n      0x00\n        /* \"@openzeppelin/contracts@4.7.3/token/ERC20/ERC20.sol\":10402:10407  owner */\n      dup6\n        /* \"@openzeppelin/contracts@4.7.3/token/ERC20/ERC20.sol\":10390:10408  _allowances[owner] */\n      0xffffffffffffffffffffffffffffffffffffffff\n      and\n      0xffffffffffffffffffffffffffffffffffffffff\n      and\n      dup2\n      mstore\n      0x20\n      add\n      swap1\n      dup2\n      mstore\n      0x20\n      add\n      0x00\n      keccak256\n        /* \"@openzeppelin/contracts@4.7.3/token/ERC20/ERC20.sol\":10390:10417  _allowances[owner][spender] */\n      0x00\n        /* \"@openzeppelin/contracts@4.7.3/token/ERC20/ERC20.sol\":10409:10416  spender */\n      dup5\n        /* \"@openzeppelin/contracts@4.7.3/token/ERC20/ERC20.sol\":10390:10417  _allowances[owner][spender] */\n      0xffffffffffffffffffffffffffffffffffffffff\n      and\n      0xffffffffffffffffffffffffffffffffffffffff\n      and\n      dup2\n      mstore\n      0x20\n      add\n      swap1\n      dup2\n      mstore\n      0x20\n      add\n      0x00\n      keccak256\n        /* \"@openzeppelin/contracts@4.7.3/token/ERC20/ERC20.sol\":10390:10426  _allowances[owner][spender] = amount */\n      dup2\n      swap1\n      sstore\n      pop\n        /* \"@openzeppelin/contracts@4.7.3/token/ERC20/ERC20.sol\":10457:10464  spender */\n      dup2\n        /* \"@openzeppelin/contracts@4.7.3/token/ERC20/ERC20.sol\":10441:10473  Approval(owner, spender, amount) */\n      0xffffffffffffffffffffffffffffffffffffffff\n      and\n        /* \"@openzeppelin/contracts@4.7.3/token/ERC20/ERC20.sol\":10450:10455  owner */\n      dup4\n        /* \"@openzeppelin/contracts@4.7.3/token/ERC20/ERC20.sol\":10441:10473  Approval(owner, spender, amount) */\n      0xffffffffffffffffffffffffffffffffffffffff\n      and\n      0x8c5be1e5ebec7d5bd14f71427d1e84f3dd0314c0f7b2291e5b200ac8c7c3b925\n        /* \"@openzeppelin/contracts@4.7.3/token/ERC20/ERC20.sol\":10466:10472  amount */\n      dup4\n        /* \"@openzeppelin/contracts@4.7.3/token/ERC20/ERC20.sol\":10441:10473  Approval(owner, spender, amount) */\n      mload(0x40)\n      tag_213\n      swap2\n      swap1\n      tag_40\n      jump\t// in\n    tag_213:\n      mload(0x40)\n      dup1\n      swap2\n      sub\n      swap1\n      log3\n        /* \"@openzeppelin/contracts@4.7.3/token/ERC20/ERC20.sol\":10110:10480  function _approve(... */\n      pop\n      pop\n      pop\n      jump\t// out\n        /* \"@openzeppelin/contracts@4.7.3/token/ERC20/ERC20.sol\":10761:11202  function _spendAllowance(... */\n    tag_128:\n        /* \"@openzeppelin/contracts@4.7.3/token/ERC20/ERC20.sol\":10891:10915  uint256 currentAllowance */\n      0x00\n        /* \"@openzeppelin/contracts@4.7.3/token/ERC20/ERC20.sol\":10918:10943  allowance(owner, spender) */\n      tag_215\n        /* \"@openzeppelin/contracts@4.7.3/token/ERC20/ERC20.sol\":10928:10933  owner */\n      dup5\n        /* \"@openzeppelin/contracts@4.7.3/token/ERC20/ERC20.sol\":10935:10942  spender */\n      dup5\n        /* \"@openzeppelin/contracts@4.7.3/token/ERC20/ERC20.sol\":10918:10927  allowance */\n      tag_110\n        /* \"@openzeppelin/contracts@4.7.3/token/ERC20/ERC20.sol\":10918:10943  allowance(owner, spender) */\n      jump\t// in\n    tag_215:\n        /* \"@openzeppelin/contracts@4.7.3/token/ERC20/ERC20.sol\":10891:10943  uint256 currentAllowance = allowance(owner, spender) */\n      swap1\n      pop\n        /* \"@openzeppelin/contracts@4.7.3/token/ERC20/ERC20.sol\":10977:10994  type(uint256).max */\n      0xffffffffffffffffffffffffffffffffffffffffffffffffffffffffffffffff\n        /* \"@openzeppelin/contracts@4.7.3/token/ERC20/ERC20.sol\":10957:10973  currentAllowance */\n      dup2\n        /* \"@openzeppelin/contracts@4.7.3/token/ERC20/ERC20.sol\":10957:10994  currentAllowance != type(uint256).max */\n      eq\n        /* \"@openzeppelin/contracts@4.7.3/token/ERC20/ERC20.sol\":10953:11196  if (currentAllowance != type(uint256).max) {... */\n      tag_216\n      jumpi\n        /* \"@openzeppelin/contracts@4.7.3/token/ERC20/ERC20.sol\":11038:11044  amount */\n      dup2\n        /* \"@openzeppelin/contracts@4.7.3/token/ERC20/ERC20.sol\":11018:11034  currentAllowance */\n      dup2\n        /* \"@openzeppelin/contracts@4.7.3/token/ERC20/ERC20.sol\":11018:11044  currentAllowance >= amount */\n      lt\n      iszero\n        /* \"@openzeppelin/contracts@4.7.3/token/ERC20/ERC20.sol\":11010:11078  require(currentAllowance >= amount, \"ERC20: insufficient allowance\") */\n      tag_217\n      jumpi\n      mload(0x40)\n      0x08c379a000000000000000000000000000000000000000000000000000000000\n      dup2\n      mstore\n      0x04\n      add\n      tag_218\n      swap1\n      tag_219\n      jump\t// in\n    tag_218:\n      mload(0x40)\n      dup1\n      swap2\n      sub\n      swap1\n      revert\n    tag_217:\n        /* \"@openzeppelin/contracts@4.7.3/token/ERC20/ERC20.sol\":11120:11171  _approve(owner, spender, currentAllowance - amount) */\n      tag_220\n        /* \"@openzeppelin/contracts@4.7.3/token/ERC20/ERC20.sol\":11129:11134  owner */\n      dup5\n        /* \"@openzeppelin/contracts@4.7.3/token/ERC20/ERC20.sol\":11136:11143  spender */\n      dup5\n        /* \"@openzeppelin/contracts@4.7.3/token/ERC20/ERC20.sol\":11164:11170  amount */\n      dup5\n        /* \"@openzeppelin/contracts@4.7.3/token/ERC20/ERC20.sol\":11145:11161  currentAllowance */\n      dup5\n        /* \"@openzeppelin/contracts@4.7.3/token/ERC20/ERC20.sol\":11145:11170  currentAllowance - amount */\n      sub\n        /* \"@openzeppelin/contracts@4.7.3/token/ERC20/ERC20.sol\":11120:11128  _approve */\n      tag_123\n        /* \"@openzeppelin/contracts@4.7.3/token/ERC20/ERC20.sol\":11120:11171  _approve(owner, spender, currentAllowance - amount) */\n      jump\t// in\n    tag_220:\n        /* \"@openzeppelin/contracts@4.7.3/token/ERC20/ERC20.sol\":10953:11196  if (currentAllowance != type(uint256).max) {... */\n    tag_216:\n        /* \"@openzeppelin/contracts@4.7.3/token/ERC20/ERC20.sol\":10881:11202  {... */\n      pop\n        /* \"@openzeppelin/contracts@4.7.3/token/ERC20/ERC20.sol\":10761:11202  function _spendAllowance(... */\n      pop\n      pop\n      pop\n      jump\t// out\n        /* \"@openzeppelin/contracts@4.7.3/token/ERC20/ERC20.sol\":7475:8126  function _transfer(... */\n    tag_130:\n        /* \"@openzeppelin/contracts@4.7.3/token/ERC20/ERC20.sol\":7617:7618  0 */\n      0x00\n        /* \"@openzeppelin/contracts@4.7.3/token/ERC20/ERC20.sol\":7601:7619  from != address(0) */\n      0xffffffffffffffffffffffffffffffffffffffff\n      and\n        /* \"@openzeppelin/contracts@4.7.3/token/ERC20/ERC20.sol\":7601:7605  from */\n      dup4\n        /* \"@openzeppelin/contracts@4.7.3/token/ERC20/ERC20.sol\":7601:7619  from != address(0) */\n      0xffffffffffffffffffffffffffffffffffffffff\n      and\n      sub\n        /* \"@openzeppelin/contracts@4.7.3/token/ERC20/ERC20.sol\":7593:7661  require(from != address(0), \"ERC20: transfer from the zero address\") */\n      tag_222\n      jumpi\n      mload(0x40)\n      0x08c379a000000000000000000000000000000000000000000000000000000000\n      dup2\n      mstore\n      0x04\n      add\n      tag_223\n      swap1\n      tag_224\n      jump\t// in\n    tag_223:\n      mload(0x40)\n      dup1\n      swap2\n      sub\n      swap1\n      revert\n    tag_222:\n        /* \"@openzeppelin/contracts@4.7.3/token/ERC20/ERC20.sol\":7693:7694  0 */\n      0x00\n        /* \"@openzeppelin/contracts@4.7.3/token/ERC20/ERC20.sol\":7679:7695  to != address(0) */\n      0xffffffffffffffffffffffffffffffffffffffff\n      and\n        /* \"@openzeppelin/contracts@4.7.3/token/ERC20/ERC20.sol\":7679:7681  to */\n      dup3\n        /* \"@openzeppelin/contracts@4.7.3/token/ERC20/ERC20.sol\":7679:7695  to != address(0) */\n      0xffffffffffffffffffffffffffffffffffffffff\n      and\n      sub\n        /* \"@openzeppelin/contracts@4.7.3/token/ERC20/ERC20.sol\":7671:7735  require(to != address(0), \"ERC20: transfer to the zero address\") */\n      tag_225\n      jumpi\n      mload(0x40)\n      0x08c379a000000000000000000000000000000000000000000000000000000000\n      dup2\n      mstore\n      0x04\n      add\n      tag_226\n      swap1\n      tag_227\n      jump\t// in\n    tag_226:\n      mload(0x40)\n      dup1\n      swap2\n      sub\n      swap1\n      revert\n    tag_225:\n        /* \"@openzeppelin/contracts@4.7.3/token/ERC20/ERC20.sol\":7746:7784  _beforeTokenTransfer(from, to, amount) */\n      tag_228\n        /* \"@openzeppelin/contracts@4.7.3/token/ERC20/ERC20.sol\":7767:7771  from */\n      dup4\n        /* \"@openzeppelin/contracts@4.7.3/token/ERC20/ERC20.sol\":7773:7775  to */\n      dup4\n        /* \"@openzeppelin/contracts@4.7.3/token/ERC20/ERC20.sol\":7777:7783  amount */\n      dup4\n        /* \"@openzeppelin/contracts@4.7.3/token/ERC20/ERC20.sol\":7746:7766  _beforeTokenTransfer */\n      tag_229\n        /* \"@openzeppelin/contracts@4.7.3/token/ERC20/ERC20.sol\":7746:7784  _beforeTokenTransfer(from, to, amount) */\n      jump\t// in\n    tag_228:\n        /* \"@openzeppelin/contracts@4.7.3/token/ERC20/ERC20.sol\":7795:7814  uint256 fromBalance */\n      0x00\n        /* \"@openzeppelin/contracts@4.7.3/token/ERC20/ERC20.sol\":7817:7826  _balances */\n      dup1\n        /* \"@openzeppelin/contracts@4.7.3/token/ERC20/ERC20.sol\":7817:7832  _balances[from] */\n      0x00\n        /* \"@openzeppelin/contracts@4.7.3/token/ERC20/ERC20.sol\":7827:7831  from */\n      dup6\n        /* \"@openzeppelin/contracts@4.7.3/token/ERC20/ERC20.sol\":7817:7832  _balances[from] */\n      0xffffffffffffffffffffffffffffffffffffffff\n      and\n      0xffffffffffffffffffffffffffffffffffffffff\n      and\n      dup2\n      mstore\n      0x20\n      add\n      swap1\n      dup2\n      mstore\n      0x20\n      add\n      0x00\n      keccak256\n      sload\n        /* \"@openzeppelin/contracts@4.7.3/token/ERC20/ERC20.sol\":7795:7832  uint256 fromBalance = _balances[from] */\n      swap1\n      pop\n        /* \"@openzeppelin/contracts@4.7.3/token/ERC20/ERC20.sol\":7865:7871  amount */\n      dup2\n        /* \"@openzeppelin/contracts@4.7.3/token/ERC20/ERC20.sol\":7850:7861  fromBalance */\n      dup2\n        /* \"@openzeppelin/contracts@4.7.3/token/ERC20/ERC20.sol\":7850:7871  fromBalance >= amount */\n      lt\n      iszero\n        /* \"@openzeppelin/contracts@4.7.3/token/ERC20/ERC20.sol\":7842:7914  require(fromBalance >= amount, \"ERC20: transfer amount exceeds balance\") */\n      tag_230\n      jumpi\n      mload(0x40)\n      0x08c379a000000000000000000000000000000000000000000000000000000000\n      dup2\n      mstore\n      0x04\n      add\n      tag_231\n      swap1\n      tag_232\n      jump\t// in\n    tag_231:\n      mload(0x40)\n      dup1\n      swap2\n      sub\n      swap1\n      revert\n    tag_230:\n        /* \"@openzeppelin/contracts@4.7.3/token/ERC20/ERC20.sol\":7980:7986  amount */\n      dup2\n        /* \"@openzeppelin/contracts@4.7.3/token/ERC20/ERC20.sol\":7966:7977  fromBalance */\n      dup2\n        /* \"@openzeppelin/contracts@4.7.3/token/ERC20/ERC20.sol\":7966:7986  fromBalance - amount */\n      sub\n        /* \"@openzeppelin/contracts@4.7.3/token/ERC20/ERC20.sol\":7948:7957  _balances */\n      0x00\n        /* \"@openzeppelin/contracts@4.7.3/token/ERC20/ERC20.sol\":7948:7963  _balances[from] */\n      dup1\n        /* \"@openzeppelin/contracts@4.7.3/token/ERC20/ERC20.sol\":7958:7962  from */\n      dup7\n        /* \"@openzeppelin/contracts@4.7.3/token/ERC20/ERC20.sol\":7948:7963  _balances[from] */\n      0xffffffffffffffffffffffffffffffffffffffff\n      and\n      0xffffffffffffffffffffffffffffffffffffffff\n      and\n      dup2\n      mstore\n      0x20\n      add\n      swap1\n      dup2\n      mstore\n      0x20\n      add\n      0x00\n      keccak256\n        /* \"@openzeppelin/contracts@4.7.3/token/ERC20/ERC20.sol\":7948:7986  _balances[from] = fromBalance - amount */\n      dup2\n      swap1\n      sstore\n      pop\n        /* \"@openzeppelin/contracts@4.7.3/token/ERC20/ERC20.sol\":8023:8029  amount */\n      dup2\n        /* \"@openzeppelin/contracts@4.7.3/token/ERC20/ERC20.sol\":8006:8015  _balances */\n      0x00\n        /* \"@openzeppelin/contracts@4.7.3/token/ERC20/ERC20.sol\":8006:8019  _balances[to] */\n      dup1\n        /* \"@openzeppelin/contracts@4.7.3/token/ERC20/ERC20.sol\":8016:8018  to */\n      dup6\n        /* \"@openzeppelin/contracts@4.7.3/token/ERC20/ERC20.sol\":8006:8019  _balances[to] */\n      0xffffffffffffffffffffffffffffffffffffffff\n      and\n      0xffffffffffffffffffffffffffffffffffffffff\n      and\n      dup2\n      mstore\n      0x20\n      add\n      swap1\n      dup2\n      mstore\n      0x20\n      add\n      0x00\n      keccak256\n      0x00\n        /* \"@openzeppelin/contracts@4.7.3/token/ERC20/ERC20.sol\":8006:8029  _balances[to] += amount */\n      dup3\n      dup3\n      sload\n      tag_233\n      swap2\n      swap1\n      tag_140\n      jump\t// in\n    tag_233:\n      swap3\n      pop\n      pop\n      dup2\n      swap1\n      sstore\n      pop\n        /* \"@openzeppelin/contracts@4.7.3/token/ERC20/ERC20.sol\":8060:8062  to */\n      dup3\n        /* \"@openzeppelin/contracts@4.7.3/token/ERC20/ERC20.sol\":8045:8071  Transfer(from, to, amount) */\n      0xffffffffffffffffffffffffffffffffffffffff\n      and\n        /* \"@openzeppelin/contracts@4.7.3/token/ERC20/ERC20.sol\":8054:8058  from */\n      dup5\n        /* \"@openzeppelin/contracts@4.7.3/token/ERC20/ERC20.sol\":8045:8071  Transfer(from, to, amount) */\n      0xffffffffffffffffffffffffffffffffffffffff\n      and\n      0xddf252ad1be2c89b69c2b068fc378daa952ba7f163c4a11628f55a4df523b3ef\n        /* \"@openzeppelin/contracts@4.7.3/token/ERC20/ERC20.sol\":8064:8070  amount */\n      dup5\n        /* \"@openzeppelin/contracts@4.7.3/token/ERC20/ERC20.sol\":8045:8071  Transfer(from, to, amount) */\n      mload(0x40)\n      tag_234\n      swap2\n      swap1\n      tag_40\n      jump\t// in\n    tag_234:\n      mload(0x40)\n      dup1\n      swap2\n      sub\n      swap1\n      log3\n        /* \"@openzeppelin/contracts@4.7.3/token/ERC20/ERC20.sol\":8082:8119  _afterTokenTransfer(from, to, amount) */\n      tag_235\n        /* \"@openzeppelin/contracts@4.7.3/token/ERC20/ERC20.sol\":8102:8106  from */\n      dup5\n        /* \"@openzeppelin/contracts@4.7.3/token/ERC20/ERC20.sol\":8108:8110  to */\n      dup5\n        /* \"@openzeppelin/contracts@4.7.3/token/ERC20/ERC20.sol\":8112:8118  amount */\n      dup5\n        /* \"@openzeppelin/contracts@4.7.3/token/ERC20/ERC20.sol\":8082:8101  _afterTokenTransfer */\n      tag_236\n        /* \"@openzeppelin/contracts@4.7.3/token/ERC20/ERC20.sol\":8082:8119  _afterTokenTransfer(from, to, amount) */\n      jump\t// in\n    tag_235:\n        /* \"@openzeppelin/contracts@4.7.3/token/ERC20/ERC20.sol\":7583:8126  {... */\n      pop\n        /* \"@openzeppelin/contracts@4.7.3/token/ERC20/ERC20.sol\":7475:8126  function _transfer(... */\n      pop\n      pop\n      pop\n      jump\t// out\n        /* \"@openzeppelin/contracts@4.7.3/utils/cryptography/draft-EIP712.sol\":3143:3451  function _domainSeparatorV4() internal view returns (bytes32) {... */\n    tag_134:\n        /* \"@openzeppelin/contracts@4.7.3/utils/cryptography/draft-EIP712.sol\":3196:3203  bytes32 */\n      0x00\n        /* \"@openzeppelin/contracts@4.7.3/utils/cryptography/draft-EIP712.sol\":3236:3248  _CACHED_THIS */\n      immutable(\"0x029f4bc6ebbac7821b38f11e82c50ce2b63772f63b6ad2c35af4c148b2c4bad3\")\n        /* \"@openzeppelin/contracts@4.7.3/utils/cryptography/draft-EIP712.sol\":3219:3248  address(this) == _CACHED_THIS */\n      0xffffffffffffffffffffffffffffffffffffffff\n      and\n        /* \"@openzeppelin/contracts@4.7.3/utils/cryptography/draft-EIP712.sol\":3227:3231  this */\n      address\n        /* \"@openzeppelin/contracts@4.7.3/utils/cryptography/draft-EIP712.sol\":3219:3248  address(this) == _CACHED_THIS */\n      0xffffffffffffffffffffffffffffffffffffffff\n      and\n      eq\n        /* \"@openzeppelin/contracts@4.7.3/utils/cryptography/draft-EIP712.sol\":3219:3285  address(this) == _CACHED_THIS && block.chainid == _CACHED_CHAIN_ID */\n      dup1\n      iszero\n      tag_238\n      jumpi\n      pop\n        /* \"@openzeppelin/contracts@4.7.3/utils/cryptography/draft-EIP712.sol\":3269:3285  _CACHED_CHAIN_ID */\n      immutable(\"0x79ede0e1d4663a040c0927e7555c0aa914d60646b0bd94798f4654567b709b95\")\n        /* \"@openzeppelin/contracts@4.7.3/utils/cryptography/draft-EIP712.sol\":3252:3265  block.chainid */\n      chainid\n        /* \"@openzeppelin/contracts@4.7.3/utils/cryptography/draft-EIP712.sol\":3252:3285  block.chainid == _CACHED_CHAIN_ID */\n      eq\n        /* \"@openzeppelin/contracts@4.7.3/utils/cryptography/draft-EIP712.sol\":3219:3285  address(this) == _CACHED_THIS && block.chainid == _CACHED_CHAIN_ID */\n    tag_238:\n        /* \"@openzeppelin/contracts@4.7.3/utils/cryptography/draft-EIP712.sol\":3215:3445  if (address(this) == _CACHED_THIS && block.chainid == _CACHED_CHAIN_ID) {... */\n      iszero\n      tag_239\n      jumpi\n        /* \"@openzeppelin/contracts@4.7.3/utils/cryptography/draft-EIP712.sol\":3308:3332  _CACHED_DOMAIN_SEPARATOR */\n      immutable(\"0x287b91f0b101ece3728dd9f02ea2865cf4f06b72e55fc122f67e14412d5d078c\")\n        /* \"@openzeppelin/contracts@4.7.3/utils/cryptography/draft-EIP712.sol\":3301:3332  return _CACHED_DOMAIN_SEPARATOR */\n      swap1\n      pop\n      jump(tag_237)\n        /* \"@openzeppelin/contracts@4.7.3/utils/cryptography/draft-EIP712.sol\":3215:3445  if (address(this) == _CACHED_THIS && block.chainid == _CACHED_CHAIN_ID) {... */\n    tag_239:\n        /* \"@openzeppelin/contracts@4.7.3/utils/cryptography/draft-EIP712.sol\":3370:3434  _buildDomainSeparator(_TYPE_HASH, _HASHED_NAME, _HASHED_VERSION) */\n      tag_241\n        /* \"@openzeppelin/contracts@4.7.3/utils/cryptography/draft-EIP712.sol\":3392:3402  _TYPE_HASH */\n      immutable(\"0xbb18ebaa1cddf829bcac2337ea2baf9a257d86fba8ce2baebe40d33d4470291e\")\n        /* \"@openzeppelin/contracts@4.7.3/utils/cryptography/draft-EIP712.sol\":3404:3416  _HASHED_NAME */\n      immutable(\"0x4f4ac30ff8bfcef8cd1068d1427faf7fb52fa3a1610b1f430e1f69a91ebb9673\")\n        /* \"@openzeppelin/contracts@4.7.3/utils/cryptography/draft-EIP712.sol\":3418:3433  _HASHED_VERSION */\n      immutable(\"0x3ab4fb69c8e122442af87ae588015f836e7cde3029bbb6dab1983bc840231d63\")\n        /* \"@openzeppelin/contracts@4.7.3/utils/cryptography/draft-EIP712.sol\":3370:3391  _buildDomainSeparator */\n      tag_242\n        /* \"@openzeppelin/contracts@4.7.3/utils/cryptography/draft-EIP712.sol\":3370:3434  _buildDomainSeparator(_TYPE_HASH, _HASHED_NAME, _HASHED_VERSION) */\n      jump\t// in\n    tag_241:\n        /* \"@openzeppelin/contracts@4.7.3/utils/cryptography/draft-EIP712.sol\":3363:3434  return _buildDomainSeparator(_TYPE_HASH, _HASHED_NAME, _HASHED_VERSION) */\n      swap1\n      pop\n        /* \"@openzeppelin/contracts@4.7.3/utils/cryptography/draft-EIP712.sol\":3143:3451  function _domainSeparatorV4() internal view returns (bytes32) {... */\n    tag_237:\n      swap1\n      jump\t// out\n        /* \"@openzeppelin/contracts@4.7.3/token/ERC20/ERC20.sol\":8402:8791  function _mint(address account, uint256 amount) internal virtual {... */\n    tag_145:\n        /* \"@openzeppelin/contracts@4.7.3/token/ERC20/ERC20.sol\":8504:8505  0 */\n      0x00\n        /* \"@openzeppelin/contracts@4.7.3/token/ERC20/ERC20.sol\":8485:8506  account != address(0) */\n      0xffffffffffffffffffffffffffffffffffffffff\n      and\n        /* \"@openzeppelin/contracts@4.7.3/token/ERC20/ERC20.sol\":8485:8492  account */\n      dup3\n        /* \"@openzeppelin/contracts@4.7.3/token/ERC20/ERC20.sol\":8485:8506  account != address(0) */\n      0xffffffffffffffffffffffffffffffffffffffff\n      and\n      sub\n        /* \"@openzeppelin/contracts@4.7.3/token/ERC20/ERC20.sol\":8477:8542  require(account != address(0), \"ERC20: mint to the zero address\") */\n      tag_244\n      jumpi\n      mload(0x40)\n      0x08c379a000000000000000000000000000000000000000000000000000000000\n      dup2\n      mstore\n      0x04\n      add\n      tag_245\n      swap1\n      tag_246\n      jump\t// in\n    tag_245:\n      mload(0x40)\n      dup1\n      swap2\n      sub\n      swap1\n      revert\n    tag_244:\n        /* \"@openzeppelin/contracts@4.7.3/token/ERC20/ERC20.sol\":8553:8602  _beforeTokenTransfer(address(0), account, amount) */\n      tag_247\n        /* \"@openzeppelin/contracts@4.7.3/token/ERC20/ERC20.sol\":8582:8583  0 */\n      0x00\n        /* \"@openzeppelin/contracts@4.7.3/token/ERC20/ERC20.sol\":8586:8593  account */\n      dup4\n        /* \"@openzeppelin/contracts@4.7.3/token/ERC20/ERC20.sol\":8595:8601  amount */\n      dup4\n        /* \"@openzeppelin/contracts@4.7.3/token/ERC20/ERC20.sol\":8553:8573  _beforeTokenTransfer */\n      tag_229\n        /* \"@openzeppelin/contracts@4.7.3/token/ERC20/ERC20.sol\":8553:8602  _beforeTokenTransfer(address(0), account, amount) */\n      jump\t// in\n    tag_247:\n        /* \"@openzeppelin/contracts@4.7.3/token/ERC20/ERC20.sol\":8629:8635  amount */\n      dup1\n        /* \"@openzeppelin/contracts@4.7.3/token/ERC20/ERC20.sol\":8613:8625  _totalSupply */\n      0x02\n      0x00\n        /* \"@openzeppelin/contracts@4.7.3/token/ERC20/ERC20.sol\":8613:8635  _totalSupply += amount */\n      dup3\n      dup3\n      sload\n      tag_248\n      swap2\n      swap1\n      tag_140\n      jump\t// in\n    tag_248:\n      swap3\n      pop\n      pop\n      dup2\n      swap1\n      sstore\n      pop\n        /* \"@openzeppelin/contracts@4.7.3/token/ERC20/ERC20.sol\":8667:8673  amount */\n      dup1\n        /* \"@openzeppelin/contracts@4.7.3/token/ERC20/ERC20.sol\":8645:8654  _balances */\n      0x00\n        /* \"@openzeppelin/contracts@4.7.3/token/ERC20/ERC20.sol\":8645:8663  _balances[account] */\n      dup1\n        /* \"@openzeppelin/contracts@4.7.3/token/ERC20/ERC20.sol\":8655:8662  account */\n      dup5\n        /* \"@openzeppelin/contracts@4.7.3/token/ERC20/ERC20.sol\":8645:8663  _balances[account] */\n      0xffffffffffffffffffffffffffffffffffffffff\n      and\n      0xffffffffffffffffffffffffffffffffffffffff\n      and\n      dup2\n      mstore\n      0x20\n      add\n      swap1\n      dup2\n      mstore\n      0x20\n      add\n      0x00\n      keccak256\n      0x00\n        /* \"@openzeppelin/contracts@4.7.3/token/ERC20/ERC20.sol\":8645:8673  _balances[account] += amount */\n      dup3\n      dup3\n      sload\n      tag_249\n      swap2\n      swap1\n      tag_140\n      jump\t// in\n    tag_249:\n      swap3\n      pop\n      pop\n      dup2\n      swap1\n      sstore\n      pop\n        /* \"@openzeppelin/contracts@4.7.3/token/ERC20/ERC20.sol\":8709:8716  account */\n      dup2\n        /* \"@openzeppelin/contracts@4.7.3/token/ERC20/ERC20.sol\":8688:8725  Transfer(address(0), account, amount) */\n      0xffffffffffffffffffffffffffffffffffffffff\n      and\n        /* \"@openzeppelin/contracts@4.7.3/token/ERC20/ERC20.sol\":8705:8706  0 */\n      0x00\n        /* \"@openzeppelin/contracts@4.7.3/token/ERC20/ERC20.sol\":8688:8725  Transfer(address(0), account, amount) */\n      0xffffffffffffffffffffffffffffffffffffffff\n      and\n      0xddf252ad1be2c89b69c2b068fc378daa952ba7f163c4a11628f55a4df523b3ef\n        /* \"@openzeppelin/contracts@4.7.3/token/ERC20/ERC20.sol\":8718:8724  amount */\n      dup4\n        /* \"@openzeppelin/contracts@4.7.3/token/ERC20/ERC20.sol\":8688:8725  Transfer(address(0), account, amount) */\n      mload(0x40)\n      tag_250\n      swap2\n      swap1\n      tag_40\n      jump\t// in\n    tag_250:\n      mload(0x40)\n      dup1\n      swap2\n      sub\n      swap1\n      log3\n        /* \"@openzeppelin/contracts@4.7.3/token/ERC20/ERC20.sol\":8736:8784  _afterTokenTransfer(address(0), account, amount) */\n      tag_251\n        /* \"@openzeppelin/contracts@4.7.3/token/ERC20/ERC20.sol\":8764:8765  0 */\n      0x00\n        /* \"@openzeppelin/contracts@4.7.3/token/ERC20/ERC20.sol\":8768:8775  account */\n      dup4\n        /* \"@openzeppelin/contracts@4.7.3/token/ERC20/ERC20.sol\":8777:8783  amount */\n      dup4\n        /* \"@openzeppelin/contracts@4.7.3/token/ERC20/ERC20.sol\":8736:8755  _afterTokenTransfer */\n      tag_236\n        /* \"@openzeppelin/contracts@4.7.3/token/ERC20/ERC20.sol\":8736:8784  _afterTokenTransfer(address(0), account, amount) */\n      jump\t// in\n    tag_251:\n        /* \"@openzeppelin/contracts@4.7.3/token/ERC20/ERC20.sol\":8402:8791  function _mint(address account, uint256 amount) internal virtual {... */\n      pop\n      pop\n      jump\t// out\n        /* \"@openzeppelin/contracts@4.7.3/utils/Counters.sol\":827:939  function current(Counter storage counter) internal view returns (uint256) {... */\n    tag_149:\n        /* \"@openzeppelin/contracts@4.7.3/utils/Counters.sol\":892:899  uint256 */\n      0x00\n        /* \"@openzeppelin/contracts@4.7.3/utils/Counters.sol\":918:925  counter */\n      dup2\n        /* \"@openzeppelin/contracts@4.7.3/utils/Counters.sol\":918:932  counter._value */\n      0x00\n      add\n      sload\n        /* \"@openzeppelin/contracts@4.7.3/utils/Counters.sol\":911:932  return counter._value */\n      swap1\n      pop\n        /* \"@openzeppelin/contracts@4.7.3/utils/Counters.sol\":827:939  function current(Counter storage counter) internal view returns (uint256) {... */\n      swap2\n      swap1\n      pop\n      jump\t// out\n        /* \"@openzeppelin/contracts@4.7.3/token/ERC20/extensions/draft-ERC20Permit.sol\":3129:3332  function _useNonce(address owner) internal virtual returns (uint256 current) {... */\n    tag_190:\n        /* \"@openzeppelin/contracts@4.7.3/token/ERC20/extensions/draft-ERC20Permit.sol\":3189:3204  uint256 current */\n      0x00\n        /* \"@openzeppelin/contracts@4.7.3/token/ERC20/extensions/draft-ERC20Permit.sol\":3216:3246  Counters.Counter storage nonce */\n      dup1\n        /* \"@openzeppelin/contracts@4.7.3/token/ERC20/extensions/draft-ERC20Permit.sol\":3249:3256  _nonces */\n      0x05\n        /* \"@openzeppelin/contracts@4.7.3/token/ERC20/extensions/draft-ERC20Permit.sol\":3249:3263  _nonces[owner] */\n      0x00\n        /* \"@openzeppelin/contracts@4.7.3/token/ERC20/extensions/draft-ERC20Permit.sol\":3257:3262  owner */\n      dup5\n        /* \"@openzeppelin/contracts@4.7.3/token/ERC20/extensions/draft-ERC20Permit.sol\":3249:3263  _nonces[owner] */\n      0xffffffffffffffffffffffffffffffffffffffff\n      and\n      0xffffffffffffffffffffffffffffffffffffffff\n      and\n      dup2\n      mstore\n      0x20\n      add\n      swap1\n      dup2\n      mstore\n      0x20\n      add\n      0x00\n      keccak256\n        /* \"@openzeppelin/contracts@4.7.3/token/ERC20/extensions/draft-ERC20Permit.sol\":3216:3263  Counters.Counter storage nonce = _nonces[owner] */\n      swap1\n      pop\n        /* \"@openzeppelin/contracts@4.7.3/token/ERC20/extensions/draft-ERC20Permit.sol\":3283:3298  nonce.current() */\n      tag_254\n        /* \"@openzeppelin/contracts@4.7.3/token/ERC20/extensions/draft-ERC20Permit.sol\":3283:3288  nonce */\n      dup2\n        /* \"@openzeppelin/contracts@4.7.3/token/ERC20/extensions/draft-ERC20Permit.sol\":3283:3296  nonce.current */\n      tag_149\n        /* \"@openzeppelin/contracts@4.7.3/token/ERC20/extensions/draft-ERC20Permit.sol\":3283:3298  nonce.current() */\n      jump\t// in\n    tag_254:\n        /* \"@openzeppelin/contracts@4.7.3/token/ERC20/extensions/draft-ERC20Permit.sol\":3273:3298  current = nonce.current() */\n      swap2\n      pop\n        /* \"@openzeppelin/contracts@4.7.3/token/ERC20/extensions/draft-ERC20Permit.sol\":3308:3325  nonce.increment() */\n      tag_255\n        /* \"@openzeppelin/contracts@4.7.3/token/ERC20/extensions/draft-ERC20Permit.sol\":3308:3313  nonce */\n      dup2\n        /* \"@openzeppelin/contracts@4.7.3/token/ERC20/extensions/draft-ERC20Permit.sol\":3308:3323  nonce.increment */\n      tag_256\n        /* \"@openzeppelin/contracts@4.7.3/token/ERC20/extensions/draft-ERC20Permit.sol\":3308:3325  nonce.increment() */\n      jump\t// in\n    tag_255:\n        /* \"@openzeppelin/contracts@4.7.3/token/ERC20/extensions/draft-ERC20Permit.sol\":3206:3332  {... */\n      pop\n        /* \"@openzeppelin/contracts@4.7.3/token/ERC20/extensions/draft-ERC20Permit.sol\":3129:3332  function _useNonce(address owner) internal virtual returns (uint256 current) {... */\n      swap2\n      swap1\n      pop\n      jump\t// out\n        /* \"@openzeppelin/contracts@4.7.3/utils/cryptography/draft-EIP712.sol\":4339:4504  function _hashTypedDataV4(bytes32 structHash) internal view virtual returns (bytes32) {... */\n    tag_194:\n        /* \"@openzeppelin/contracts@4.7.3/utils/cryptography/draft-EIP712.sol\":4416:4423  bytes32 */\n      0x00\n        /* \"@openzeppelin/contracts@4.7.3/utils/cryptography/draft-EIP712.sol\":4442:4497  ECDSA.toTypedDataHash(_domainSeparatorV4(), structHash) */\n      tag_258\n        /* \"@openzeppelin/contracts@4.7.3/utils/cryptography/draft-EIP712.sol\":4464:4484  _domainSeparatorV4() */\n      tag_259\n        /* \"@openzeppelin/contracts@4.7.3/utils/cryptography/draft-EIP712.sol\":4464:4482  _domainSeparatorV4 */\n      tag_134\n        /* \"@openzeppelin/contracts@4.7.3/utils/cryptography/draft-EIP712.sol\":4464:4484  _domainSeparatorV4() */\n      jump\t// in\n    tag_259:\n        /* \"@openzeppelin/contracts@4.7.3/utils/cryptography/draft-EIP712.sol\":4486:4496  structHash */\n      dup4\n        /* \"@openzeppelin/contracts@4.7.3/utils/cryptography/draft-EIP712.sol\":4442:4463  ECDSA.toTypedDataHash */\n      tag_260\n        /* \"@openzeppelin/contracts@4.7.3/utils/cryptography/draft-EIP712.sol\":4442:4497  ECDSA.toTypedDataHash(_domainSeparatorV4(), structHash) */\n      jump\t// in\n    tag_258:\n        /* \"@openzeppelin/contracts@4.7.3/utils/cryptography/draft-EIP712.sol\":4435:4497  return ECDSA.toTypedDataHash(_domainSeparatorV4(), structHash) */\n      swap1\n      pop\n        /* \"@openzeppelin/contracts@4.7.3/utils/cryptography/draft-EIP712.sol\":4339:4504  function _hashTypedDataV4(bytes32 structHash) internal view virtual returns (bytes32) {... */\n      swap2\n      swap1\n      pop\n      jump\t// out\n        /* \"@openzeppelin/contracts@4.7.3/utils/cryptography/ECDSA.sol\":6903:7173  function recover(... */\n    tag_196:\n        /* \"@openzeppelin/contracts@4.7.3/utils/cryptography/ECDSA.sol\":7026:7033  address */\n      0x00\n        /* \"@openzeppelin/contracts@4.7.3/utils/cryptography/ECDSA.sol\":7046:7063  address recovered */\n      dup1\n        /* \"@openzeppelin/contracts@4.7.3/utils/cryptography/ECDSA.sol\":7065:7083  RecoverError error */\n      0x00\n        /* \"@openzeppelin/contracts@4.7.3/utils/cryptography/ECDSA.sol\":7087:7112  tryRecover(hash, v, r, s) */\n      tag_262\n        /* \"@openzeppelin/contracts@4.7.3/utils/cryptography/ECDSA.sol\":7098:7102  hash */\n      dup8\n        /* \"@openzeppelin/contracts@4.7.3/utils/cryptography/ECDSA.sol\":7104:7105  v */\n      dup8\n        /* \"@openzeppelin/contracts@4.7.3/utils/cryptography/ECDSA.sol\":7107:7108  r */\n      dup8\n        /* \"@openzeppelin/contracts@4.7.3/utils/cryptography/ECDSA.sol\":7110:7111  s */\n      dup8\n        /* \"@openzeppelin/contracts@4.7.3/utils/cryptography/ECDSA.sol\":7087:7097  tryRecover */\n      tag_263\n        /* \"@openzeppelin/contracts@4.7.3/utils/cryptography/ECDSA.sol\":7087:7112  tryRecover(hash, v, r, s) */\n      jump\t// in\n    tag_262:\n        /* \"@openzeppelin/contracts@4.7.3/utils/cryptography/ECDSA.sol\":7045:7112  (address recovered, RecoverError error) = tryRecover(hash, v, r, s) */\n      swap2\n      pop\n      swap2\n      pop\n        /* \"@openzeppelin/contracts@4.7.3/utils/cryptography/ECDSA.sol\":7122:7140  _throwError(error) */\n      tag_264\n        /* \"@openzeppelin/contracts@4.7.3/utils/cryptography/ECDSA.sol\":7134:7139  error */\n      dup2\n        /* \"@openzeppelin/contracts@4.7.3/utils/cryptography/ECDSA.sol\":7122:7133  _throwError */\n      tag_265\n        /* \"@openzeppelin/contracts@4.7.3/utils/cryptography/ECDSA.sol\":7122:7140  _throwError(error) */\n      jump\t// in\n    tag_264:\n        /* \"@openzeppelin/contracts@4.7.3/utils/cryptography/ECDSA.sol\":7157:7166  recovered */\n      dup2\n        /* \"@openzeppelin/contracts@4.7.3/utils/cryptography/ECDSA.sol\":7150:7166  return recovered */\n      swap3\n      pop\n      pop\n      pop\n        /* \"@openzeppelin/contracts@4.7.3/utils/cryptography/ECDSA.sol\":6903:7173  function recover(... */\n      swap5\n      swap4\n      pop\n      pop\n      pop\n      pop\n      jump\t// out\n        /* \"@openzeppelin/contracts@4.7.3/token/ERC20/ERC20.sol\":11786:11907  function _beforeTokenTransfer(... */\n    tag_229:\n      pop\n      pop\n      pop\n      jump\t// out\n        /* \"@openzeppelin/contracts@4.7.3/token/ERC20/ERC20.sol\":12495:12615  function _afterTokenTransfer(... */\n    tag_236:\n      pop\n      pop\n      pop\n      jump\t// out\n        /* \"@openzeppelin/contracts@4.7.3/utils/cryptography/draft-EIP712.sol\":3457:3714  function _buildDomainSeparator(... */\n    tag_242:\n        /* \"@openzeppelin/contracts@4.7.3/utils/cryptography/draft-EIP712.sol\":3597:3604  bytes32 */\n      0x00\n        /* \"@openzeppelin/contracts@4.7.3/utils/cryptography/draft-EIP712.sol\":3644:3652  typeHash */\n      dup4\n        /* \"@openzeppelin/contracts@4.7.3/utils/cryptography/draft-EIP712.sol\":3654:3662  nameHash */\n      dup4\n        /* \"@openzeppelin/contracts@4.7.3/utils/cryptography/draft-EIP712.sol\":3664:3675  versionHash */\n      dup4\n        /* \"@openzeppelin/contracts@4.7.3/utils/cryptography/draft-EIP712.sol\":3677:3690  block.chainid */\n      chainid\n        /* \"@openzeppelin/contracts@4.7.3/utils/cryptography/draft-EIP712.sol\":3700:3704  this */\n      address\n        /* \"@openzeppelin/contracts@4.7.3/utils/cryptography/draft-EIP712.sol\":3633:3706  abi.encode(typeHash, nameHash, versionHash, block.chainid, address(this)) */\n      add(0x20, mload(0x40))\n      tag_269\n      swap6\n      swap5\n      swap4\n      swap3\n      swap2\n      swap1\n      tag_270\n      jump\t// in\n    tag_269:\n      mload(0x40)\n      0x20\n      dup2\n      dup4\n      sub\n      sub\n      dup2\n      mstore\n      swap1\n      0x40\n      mstore\n        /* \"@openzeppelin/contracts@4.7.3/utils/cryptography/draft-EIP712.sol\":3623:3707  keccak256(abi.encode(typeHash, nameHash, versionHash, block.chainid, address(this))) */\n      dup1\n      mload\n      swap1\n      0x20\n      add\n      keccak256\n        /* \"@openzeppelin/contracts@4.7.3/utils/cryptography/draft-EIP712.sol\":3616:3707  return keccak256(abi.encode(typeHash, nameHash, versionHash, block.chainid, address(this))) */\n      swap1\n      pop\n        /* \"@openzeppelin/contracts@4.7.3/utils/cryptography/draft-EIP712.sol\":3457:3714  function _buildDomainSeparator(... */\n      swap4\n      swap3\n      pop\n      pop\n      pop\n      jump\t// out\n        /* \"@openzeppelin/contracts@4.7.3/utils/Counters.sol\":945:1068  function increment(Counter storage counter) internal {... */\n    tag_256:\n        /* \"@openzeppelin/contracts@4.7.3/utils/Counters.sol\":1050:1051  1 */\n      0x01\n        /* \"@openzeppelin/contracts@4.7.3/utils/Counters.sol\":1032:1039  counter */\n      dup2\n        /* \"@openzeppelin/contracts@4.7.3/utils/Counters.sol\":1032:1046  counter._value */\n      0x00\n      add\n      0x00\n        /* \"@openzeppelin/contracts@4.7.3/utils/Counters.sol\":1032:1051  counter._value += 1 */\n      dup3\n      dup3\n      sload\n      add\n      swap3\n      pop\n      pop\n      dup2\n      swap1\n      sstore\n      pop\n        /* \"@openzeppelin/contracts@4.7.3/utils/Counters.sol\":945:1068  function increment(Counter storage counter) internal {... */\n      pop\n      jump\t// out\n        /* \"@openzeppelin/contracts@4.7.3/utils/cryptography/ECDSA.sol\":8548:8742  function toTypedDataHash(bytes32 domainSeparator, bytes32 structHash) internal pure returns (bytes32) {... */\n    tag_260:\n        /* \"@openzeppelin/contracts@4.7.3/utils/cryptography/ECDSA.sol\":8641:8648  bytes32 */\n      0x00\n        /* \"@openzeppelin/contracts@4.7.3/utils/cryptography/ECDSA.sol\":8706:8721  domainSeparator */\n      dup3\n        /* \"@openzeppelin/contracts@4.7.3/utils/cryptography/ECDSA.sol\":8723:8733  structHash */\n      dup3\n        /* \"@openzeppelin/contracts@4.7.3/utils/cryptography/ECDSA.sol\":8677:8734  abi.encodePacked(\"\\x19\\x01\", domainSeparator, structHash) */\n      add(0x20, mload(0x40))\n      tag_273\n      swap3\n      swap2\n      swap1\n      tag_274\n      jump\t// in\n    tag_273:\n      mload(0x40)\n      0x20\n      dup2\n      dup4\n      sub\n      sub\n      dup2\n      mstore\n      swap1\n      0x40\n      mstore\n        /* \"@openzeppelin/contracts@4.7.3/utils/cryptography/ECDSA.sol\":8667:8735  keccak256(abi.encodePacked(\"\\x19\\x01\", domainSeparator, structHash)) */\n      dup1\n      mload\n      swap1\n      0x20\n      add\n      keccak256\n        /* \"@openzeppelin/contracts@4.7.3/utils/cryptography/ECDSA.sol\":8660:8735  return keccak256(abi.encodePacked(\"\\x19\\x01\", domainSeparator, structHash)) */\n      swap1\n      pop\n        /* \"@openzeppelin/contracts@4.7.3/utils/cryptography/ECDSA.sol\":8548:8742  function toTypedDataHash(bytes32 domainSeparator, bytes32 structHash) internal pure returns (bytes32) {... */\n      swap3\n      swap2\n      pop\n      pop\n      jump\t// out\n        /* \"@openzeppelin/contracts@4.7.3/utils/cryptography/ECDSA.sol\":5167:6770  function tryRecover(... */\n    tag_263:\n        /* \"@openzeppelin/contracts@4.7.3/utils/cryptography/ECDSA.sol\":5293:5300  address */\n      0x00\n        /* \"@openzeppelin/contracts@4.7.3/utils/cryptography/ECDSA.sol\":5302:5314  RecoverError */\n      dup1\n        /* \"@openzeppelin/contracts@4.7.3/utils/cryptography/ECDSA.sol\":6217:6283  0x7FFFFFFFFFFFFFFFFFFFFFFFFFFFFFFF5D576E7357A4501DDFE92F46681B20A0 */\n      0x7fffffffffffffffffffffffffffffff5d576e7357a4501ddfe92f46681b20a0\n        /* \"@openzeppelin/contracts@4.7.3/utils/cryptography/ECDSA.sol\":6212:6213  s */\n      dup4\n        /* \"@openzeppelin/contracts@4.7.3/utils/cryptography/ECDSA.sol\":6204:6214  uint256(s) */\n      0x00\n      shr\n        /* \"@openzeppelin/contracts@4.7.3/utils/cryptography/ECDSA.sol\":6204:6283  uint256(s) > 0x7FFFFFFFFFFFFFFFFFFFFFFFFFFFFFFF5D576E7357A4501DDFE92F46681B20A0 */\n      gt\n        /* \"@openzeppelin/contracts@4.7.3/utils/cryptography/ECDSA.sol\":6200:6361  if (uint256(s) > 0x7FFFFFFFFFFFFFFFFFFFFFFFFFFFFFFF5D576E7357A4501DDFE92F46681B20A0) {... */\n      iszero\n      tag_276\n      jumpi\n        /* \"@openzeppelin/contracts@4.7.3/utils/cryptography/ECDSA.sol\":6315:6316  0 */\n      0x00\n        /* \"@openzeppelin/contracts@4.7.3/utils/cryptography/ECDSA.sol\":6319:6349  RecoverError.InvalidSignatureS */\n      0x03\n        /* \"@openzeppelin/contracts@4.7.3/utils/cryptography/ECDSA.sol\":6299:6350  return (address(0), RecoverError.InvalidSignatureS) */\n      swap2\n      pop\n      swap2\n      pop\n      jump(tag_275)\n        /* \"@openzeppelin/contracts@4.7.3/utils/cryptography/ECDSA.sol\":6200:6361  if (uint256(s) > 0x7FFFFFFFFFFFFFFFFFFFFFFFFFFFFFFF5D576E7357A4501DDFE92F46681B20A0) {... */\n    tag_276:\n        /* \"@openzeppelin/contracts@4.7.3/utils/cryptography/ECDSA.sol\":6379:6381  27 */\n      0x1b\n        /* \"@openzeppelin/contracts@4.7.3/utils/cryptography/ECDSA.sol\":6374:6375  v */\n      dup6\n        /* \"@openzeppelin/contracts@4.7.3/utils/cryptography/ECDSA.sol\":6374:6381  v != 27 */\n      0xff\n      and\n      eq\n      iszero\n        /* \"@openzeppelin/contracts@4.7.3/utils/cryptography/ECDSA.sol\":6374:6392  v != 27 && v != 28 */\n      dup1\n      iszero\n      tag_277\n      jumpi\n      pop\n        /* \"@openzeppelin/contracts@4.7.3/utils/cryptography/ECDSA.sol\":6390:6392  28 */\n      0x1c\n        /* \"@openzeppelin/contracts@4.7.3/utils/cryptography/ECDSA.sol\":6385:6386  v */\n      dup6\n        /* \"@openzeppelin/contracts@4.7.3/utils/cryptography/ECDSA.sol\":6385:6392  v != 28 */\n      0xff\n      and\n      eq\n      iszero\n        /* \"@openzeppelin/contracts@4.7.3/utils/cryptography/ECDSA.sol\":6374:6392  v != 27 && v != 28 */\n    tag_277:\n        /* \"@openzeppelin/contracts@4.7.3/utils/cryptography/ECDSA.sol\":6370:6470  if (v != 27 && v != 28) {... */\n      iszero\n      tag_278\n      jumpi\n        /* \"@openzeppelin/contracts@4.7.3/utils/cryptography/ECDSA.sol\":6424:6425  0 */\n      0x00\n        /* \"@openzeppelin/contracts@4.7.3/utils/cryptography/ECDSA.sol\":6428:6458  RecoverError.InvalidSignatureV */\n      0x04\n        /* \"@openzeppelin/contracts@4.7.3/utils/cryptography/ECDSA.sol\":6408:6459  return (address(0), RecoverError.InvalidSignatureV) */\n      swap2\n      pop\n      swap2\n      pop\n      jump(tag_275)\n        /* \"@openzeppelin/contracts@4.7.3/utils/cryptography/ECDSA.sol\":6370:6470  if (v != 27 && v != 28) {... */\n    tag_278:\n        /* \"@openzeppelin/contracts@4.7.3/utils/cryptography/ECDSA.sol\":6564:6578  address signer */\n      0x00\n        /* \"@openzeppelin/contracts@4.7.3/utils/cryptography/ECDSA.sol\":6581:6605  ecrecover(hash, v, r, s) */\n      0x01\n        /* \"@openzeppelin/contracts@4.7.3/utils/cryptography/ECDSA.sol\":6591:6595  hash */\n      dup8\n        /* \"@openzeppelin/contracts@4.7.3/utils/cryptography/ECDSA.sol\":6597:6598  v */\n      dup8\n        /* \"@openzeppelin/contracts@4.7.3/utils/cryptography/ECDSA.sol\":6600:6601  r */\n      dup8\n        /* \"@openzeppelin/contracts@4.7.3/utils/cryptography/ECDSA.sol\":6603:6604  s */\n      dup8\n        /* \"@openzeppelin/contracts@4.7.3/utils/cryptography/ECDSA.sol\":6581:6605  ecrecover(hash, v, r, s) */\n      mload(0x40)\n      0x00\n      dup2\n      mstore\n      0x20\n      add\n      0x40\n      mstore\n      mload(0x40)\n      tag_279\n      swap5\n      swap4\n      swap3\n      swap2\n      swap1\n      tag_280\n      jump\t// in\n    tag_279:\n      0x20\n      mload(0x40)\n      0x20\n      dup2\n      sub\n      swap1\n      dup1\n      dup5\n      sub\n      swap1\n      dup6\n      gas\n      staticcall\n      iszero\n      dup1\n      iszero\n      tag_282\n      jumpi\n      returndatasize\n      0x00\n      dup1\n      returndatacopy\n      revert(0x00, returndatasize)\n    tag_282:\n      pop\n      pop\n      pop\n      mload(sub(mload(0x40), 0x20))\n        /* \"@openzeppelin/contracts@4.7.3/utils/cryptography/ECDSA.sol\":6564:6605  address signer = ecrecover(hash, v, r, s) */\n      swap1\n      pop\n        /* \"@openzeppelin/contracts@4.7.3/utils/cryptography/ECDSA.sol\":6637:6638  0 */\n      0x00\n        /* \"@openzeppelin/contracts@4.7.3/utils/cryptography/ECDSA.sol\":6619:6639  signer == address(0) */\n      0xffffffffffffffffffffffffffffffffffffffff\n      and\n        /* \"@openzeppelin/contracts@4.7.3/utils/cryptography/ECDSA.sol\":6619:6625  signer */\n      dup2\n        /* \"@openzeppelin/contracts@4.7.3/utils/cryptography/ECDSA.sol\":6619:6639  signer == address(0) */\n      0xffffffffffffffffffffffffffffffffffffffff\n      and\n      sub\n        /* \"@openzeppelin/contracts@4.7.3/utils/cryptography/ECDSA.sol\":6615:6716  if (signer == address(0)) {... */\n      tag_283\n      jumpi\n        /* \"@openzeppelin/contracts@4.7.3/utils/cryptography/ECDSA.sol\":6671:6672  0 */\n      0x00\n        /* \"@openzeppelin/contracts@4.7.3/utils/cryptography/ECDSA.sol\":6675:6704  RecoverError.InvalidSignature */\n      0x01\n        /* \"@openzeppelin/contracts@4.7.3/utils/cryptography/ECDSA.sol\":6655:6705  return (address(0), RecoverError.InvalidSignature) */\n      swap3\n      pop\n      swap3\n      pop\n      pop\n      jump(tag_275)\n        /* \"@openzeppelin/contracts@4.7.3/utils/cryptography/ECDSA.sol\":6615:6716  if (signer == address(0)) {... */\n    tag_283:\n        /* \"@openzeppelin/contracts@4.7.3/utils/cryptography/ECDSA.sol\":6734:6740  signer */\n      dup1\n        /* \"@openzeppelin/contracts@4.7.3/utils/cryptography/ECDSA.sol\":6742:6762  RecoverError.NoError */\n      0x00\n        /* \"@openzeppelin/contracts@4.7.3/utils/cryptography/ECDSA.sol\":6726:6763  return (signer, RecoverError.NoError) */\n      swap3\n      pop\n      swap3\n      pop\n      pop\n        /* \"@openzeppelin/contracts@4.7.3/utils/cryptography/ECDSA.sol\":5167:6770  function tryRecover(... */\n    tag_275:\n      swap5\n      pop\n      swap5\n      swap3\n      pop\n      pop\n      pop\n      jump\t// out\n        /* \"@openzeppelin/contracts@4.7.3/utils/cryptography/ECDSA.sol\":548:1179  function _throwError(RecoverError error) private pure {... */\n    tag_265:\n        /* \"@openzeppelin/contracts@4.7.3/utils/cryptography/ECDSA.sol\":625:645  RecoverError.NoError */\n      0x00\n        /* \"@openzeppelin/contracts@4.7.3/utils/cryptography/ECDSA.sol\":616:645  error == RecoverError.NoError */\n      0x04\n      dup2\n      gt\n      iszero\n      tag_285\n      jumpi\n      tag_286\n      tag_287\n      jump\t// in\n    tag_286:\n    tag_285:\n        /* \"@openzeppelin/contracts@4.7.3/utils/cryptography/ECDSA.sol\":616:621  error */\n      dup2\n        /* \"@openzeppelin/contracts@4.7.3/utils/cryptography/ECDSA.sol\":616:645  error == RecoverError.NoError */\n      0x04\n      dup2\n      gt\n      iszero\n      tag_288\n      jumpi\n      tag_289\n      tag_287\n      jump\t// in\n    tag_289:\n    tag_288:\n      sub\n        /* \"@openzeppelin/contracts@4.7.3/utils/cryptography/ECDSA.sol\":612:1173  if (error == RecoverError.NoError) {... */\n      iszero\n        /* \"@openzeppelin/contracts@4.7.3/utils/cryptography/ECDSA.sol\":661:668  return; */\n      tag_284\n        /* \"@openzeppelin/contracts@4.7.3/utils/cryptography/ECDSA.sol\":612:1173  if (error == RecoverError.NoError) {... */\n      jumpi\n        /* \"@openzeppelin/contracts@4.7.3/utils/cryptography/ECDSA.sol\":721:750  RecoverError.InvalidSignature */\n      0x01\n        /* \"@openzeppelin/contracts@4.7.3/utils/cryptography/ECDSA.sol\":712:750  error == RecoverError.InvalidSignature */\n      0x04\n      dup2\n      gt\n      iszero\n      tag_292\n      jumpi\n      tag_293\n      tag_287\n      jump\t// in\n    tag_293:\n    tag_292:\n        /* \"@openzeppelin/contracts@4.7.3/utils/cryptography/ECDSA.sol\":712:717  error */\n      dup2\n        /* \"@openzeppelin/contracts@4.7.3/utils/cryptography/ECDSA.sol\":712:750  error == RecoverError.InvalidSignature */\n      0x04\n      dup2\n      gt\n      iszero\n      tag_294\n      jumpi\n      tag_295\n      tag_287\n      jump\t// in\n    tag_295:\n    tag_294:\n      sub\n        /* \"@openzeppelin/contracts@4.7.3/utils/cryptography/ECDSA.sol\":708:1173  if (error == RecoverError.InvalidSignature) {... */\n      tag_296\n      jumpi\n        /* \"@openzeppelin/contracts@4.7.3/utils/cryptography/ECDSA.sol\":766:800  revert(\"ECDSA: invalid signature\") */\n      mload(0x40)\n      0x08c379a000000000000000000000000000000000000000000000000000000000\n      dup2\n      mstore\n      0x04\n      add\n      tag_297\n      swap1\n      tag_298\n      jump\t// in\n    tag_297:\n      mload(0x40)\n      dup1\n      swap2\n      sub\n      swap1\n      revert\n        /* \"@openzeppelin/contracts@4.7.3/utils/cryptography/ECDSA.sol\":708:1173  if (error == RecoverError.InvalidSignature) {... */\n    tag_296:\n        /* \"@openzeppelin/contracts@4.7.3/utils/cryptography/ECDSA.sol\":830:865  RecoverError.InvalidSignatureLength */\n      0x02\n        /* \"@openzeppelin/contracts@4.7.3/utils/cryptography/ECDSA.sol\":821:865  error == RecoverError.InvalidSignatureLength */\n      0x04\n      dup2\n      gt\n      iszero\n      tag_300\n      jumpi\n      tag_301\n      tag_287\n      jump\t// in\n    tag_301:\n    tag_300:\n        /* \"@openzeppelin/contracts@4.7.3/utils/cryptography/ECDSA.sol\":821:826  error */\n      dup2\n        /* \"@openzeppelin/contracts@4.7.3/utils/cryptography/ECDSA.sol\":821:865  error == RecoverError.InvalidSignatureLength */\n      0x04\n      dup2\n      gt\n      iszero\n      tag_302\n      jumpi\n      tag_303\n      tag_287\n      jump\t// in\n    tag_303:\n    tag_302:\n      sub\n        /* \"@openzeppelin/contracts@4.7.3/utils/cryptography/ECDSA.sol\":817:1173  if (error == RecoverError.InvalidSignatureLength) {... */\n      tag_304\n      jumpi\n        /* \"@openzeppelin/contracts@4.7.3/utils/cryptography/ECDSA.sol\":881:922  revert(\"ECDSA: invalid signature length\") */\n      mload(0x40)\n      0x08c379a000000000000000000000000000000000000000000000000000000000\n      dup2\n      mstore\n      0x04\n      add\n      tag_305\n      swap1\n      tag_306\n      jump\t// in\n    tag_305:\n      mload(0x40)\n      dup1\n      swap2\n      sub\n      swap1\n      revert\n        /* \"@openzeppelin/contracts@4.7.3/utils/cryptography/ECDSA.sol\":817:1173  if (error == RecoverError.InvalidSignatureLength) {... */\n    tag_304:\n        /* \"@openzeppelin/contracts@4.7.3/utils/cryptography/ECDSA.sol\":952:982  RecoverError.InvalidSignatureS */\n      0x03\n        /* \"@openzeppelin/contracts@4.7.3/utils/cryptography/ECDSA.sol\":943:982  error == RecoverError.InvalidSignatureS */\n      0x04\n      dup2\n      gt\n      iszero\n      tag_308\n      jumpi\n      tag_309\n      tag_287\n      jump\t// in\n    tag_309:\n    tag_308:\n        /* \"@openzeppelin/contracts@4.7.3/utils/cryptography/ECDSA.sol\":943:948  error */\n      dup2\n        /* \"@openzeppelin/contracts@4.7.3/utils/cryptography/ECDSA.sol\":943:982  error == RecoverError.InvalidSignatureS */\n      0x04\n      dup2\n      gt\n      iszero\n      tag_310\n      jumpi\n      tag_311\n      tag_287\n      jump\t// in\n    tag_311:\n    tag_310:\n      sub\n        /* \"@openzeppelin/contracts@4.7.3/utils/cryptography/ECDSA.sol\":939:1173  if (error == RecoverError.InvalidSignatureS) {... */\n      tag_312\n      jumpi\n        /* \"@openzeppelin/contracts@4.7.3/utils/cryptography/ECDSA.sol\":998:1042  revert(\"ECDSA: invalid signature 's' value\") */\n      mload(0x40)\n      0x08c379a000000000000000000000000000000000000000000000000000000000\n      dup2\n      mstore\n      0x04\n      add\n      tag_313\n      swap1\n      tag_314\n      jump\t// in\n    tag_313:\n      mload(0x40)\n      dup1\n      swap2\n      sub\n      swap1\n      revert\n        /* \"@openzeppelin/contracts@4.7.3/utils/cryptography/ECDSA.sol\":939:1173  if (error == RecoverError.InvalidSignatureS) {... */\n    tag_312:\n        /* \"@openzeppelin/contracts@4.7.3/utils/cryptography/ECDSA.sol\":1072:1102  RecoverError.InvalidSignatureV */\n      0x04\n        /* \"@openzeppelin/contracts@4.7.3/utils/cryptography/ECDSA.sol\":1063:1102  error == RecoverError.InvalidSignatureV */\n      dup1\n      dup2\n      gt\n      iszero\n      tag_316\n      jumpi\n      tag_317\n      tag_287\n      jump\t// in\n    tag_317:\n    tag_316:\n        /* \"@openzeppelin/contracts@4.7.3/utils/cryptography/ECDSA.sol\":1063:1068  error */\n      dup2\n        /* \"@openzeppelin/contracts@4.7.3/utils/cryptography/ECDSA.sol\":1063:1102  error == RecoverError.InvalidSignatureV */\n      0x04\n      dup2\n      gt\n      iszero\n      tag_318\n      jumpi\n      tag_319\n      tag_287\n      jump\t// in\n    tag_319:\n    tag_318:\n      sub\n        /* \"@openzeppelin/contracts@4.7.3/utils/cryptography/ECDSA.sol\":1059:1173  if (error == RecoverError.InvalidSignatureV) {... */\n      tag_320\n      jumpi\n        /* \"@openzeppelin/contracts@4.7.3/utils/cryptography/ECDSA.sol\":1118:1162  revert(\"ECDSA: invalid signature 'v' value\") */\n      mload(0x40)\n      0x08c379a000000000000000000000000000000000000000000000000000000000\n      dup2\n      mstore\n      0x04\n      add\n      tag_321\n      swap1\n      tag_322\n      jump\t// in\n    tag_321:\n      mload(0x40)\n      dup1\n      swap2\n      sub\n      swap1\n      revert\n        /* \"@openzeppelin/contracts@4.7.3/utils/cryptography/ECDSA.sol\":1059:1173  if (error == RecoverError.InvalidSignatureV) {... */\n    tag_320:\n        /* \"@openzeppelin/contracts@4.7.3/utils/cryptography/ECDSA.sol\":548:1179  function _throwError(RecoverError error) private pure {... */\n    tag_284:\n      pop\n      jump\t// out\n        /* \"#utility.yul\":7:106   */\n    tag_323:\n        /* \"#utility.yul\":59:65   */\n      0x00\n        /* \"#utility.yul\":93:98   */\n      dup2\n        /* \"#utility.yul\":87:99   */\n      mload\n        /* \"#utility.yul\":77:99   */\n      swap1\n      pop\n        /* \"#utility.yul\":7:106   */\n      swap2\n      swap1\n      pop\n      jump\t// out\n        /* \"#utility.yul\":112:281   */\n    tag_324:\n        /* \"#utility.yul\":196:207   */\n      0x00\n        /* \"#utility.yul\":230:236   */\n      dup3\n        /* \"#utility.yul\":225:228   */\n      dup3\n        /* \"#utility.yul\":218:237   */\n      mstore\n        /* \"#utility.yul\":270:274   */\n      0x20\n        /* \"#utility.yul\":265:268   */\n      dup3\n        /* \"#utility.yul\":261:275   */\n      add\n        /* \"#utility.yul\":246:275   */\n      swap1\n      pop\n        /* \"#utility.yul\":112:281   */\n      swap3\n      swap2\n      pop\n      pop\n      jump\t// out\n        /* \"#utility.yul\":287:533   */\n    tag_325:\n        /* \"#utility.yul\":368:369   */\n      0x00\n        /* \"#utility.yul\":378:491   */\n    tag_392:\n        /* \"#utility.yul\":392:398   */\n      dup4\n        /* \"#utility.yul\":389:390   */\n      dup2\n        /* \"#utility.yul\":386:399   */\n      lt\n        /* \"#utility.yul\":378:491   */\n      iszero\n      tag_394\n      jumpi\n        /* \"#utility.yul\":477:478   */\n      dup1\n        /* \"#utility.yul\":472:475   */\n      dup3\n        /* \"#utility.yul\":468:479   */\n      add\n        /* \"#utility.yul\":462:480   */\n      mload\n        /* \"#utility.yul\":458:459   */\n      dup2\n        /* \"#utility.yul\":453:456   */\n      dup5\n        /* \"#utility.yul\":449:460   */\n      add\n        /* \"#utility.yul\":442:481   */\n      mstore\n        /* \"#utility.yul\":414:416   */\n      0x20\n        /* \"#utility.yul\":411:412   */\n      dup2\n        /* \"#utility.yul\":407:417   */\n      add\n        /* \"#utility.yul\":402:417   */\n      swap1\n      pop\n        /* \"#utility.yul\":378:491   */\n      jump(tag_392)\n    tag_394:\n        /* \"#utility.yul\":525:526   */\n      0x00\n        /* \"#utility.yul\":516:522   */\n      dup5\n        /* \"#utility.yul\":511:514   */\n      dup5\n        /* \"#utility.yul\":507:523   */\n      add\n        /* \"#utility.yul\":500:527   */\n      mstore\n        /* \"#utility.yul\":349:533   */\n      pop\n        /* \"#utility.yul\":287:533   */\n      pop\n      pop\n      pop\n      jump\t// out\n        /* \"#utility.yul\":539:641   */\n    tag_326:\n        /* \"#utility.yul\":580:586   */\n      0x00\n        /* \"#utility.yul\":631:633   */\n      0x1f\n        /* \"#utility.yul\":627:634   */\n      not\n        /* \"#utility.yul\":622:624   */\n      0x1f\n        /* \"#utility.yul\":615:620   */\n      dup4\n        /* \"#utility.yul\":611:625   */\n      add\n        /* \"#utility.yul\":607:635   */\n      and\n        /* \"#utility.yul\":597:635   */\n      swap1\n      pop\n        /* \"#utility.yul\":539:641   */\n      swap2\n      swap1\n      pop\n      jump\t// out\n        /* \"#utility.yul\":647:1024   */\n    tag_327:\n        /* \"#utility.yul\":735:738   */\n      0x00\n        /* \"#utility.yul\":763:802   */\n      tag_397\n        /* \"#utility.yul\":796:801   */\n      dup3\n        /* \"#utility.yul\":763:802   */\n      tag_323\n      jump\t// in\n    tag_397:\n        /* \"#utility.yul\":818:889   */\n      tag_398\n        /* \"#utility.yul\":882:888   */\n      dup2\n        /* \"#utility.yul\":877:880   */\n      dup6\n        /* \"#utility.yul\":818:889   */\n      tag_324\n      jump\t// in\n    tag_398:\n        /* \"#utility.yul\":811:889   */\n      swap4\n      pop\n        /* \"#utility.yul\":898:963   */\n      tag_399\n        /* \"#utility.yul\":956:962   */\n      dup2\n        /* \"#utility.yul\":951:954   */\n      dup6\n        /* \"#utility.yul\":944:948   */\n      0x20\n        /* \"#utility.yul\":937:942   */\n      dup7\n        /* \"#utility.yul\":933:949   */\n      add\n        /* \"#utility.yul\":898:963   */\n      tag_325\n      jump\t// in\n    tag_399:\n        /* \"#utility.yul\":988:1017   */\n      tag_400\n        /* \"#utility.yul\":1010:1016   */\n      dup2\n        /* \"#utility.yul\":988:1017   */\n      tag_326\n      jump\t// in\n    tag_400:\n        /* \"#utility.yul\":983:986   */\n      dup5\n        /* \"#utility.yul\":979:1018   */\n      add\n        /* \"#utility.yul\":972:1018   */\n      swap2\n      pop\n        /* \"#utility.yul\":739:1024   */\n      pop\n        /* \"#utility.yul\":647:1024   */\n      swap3\n      swap2\n      pop\n      pop\n      jump\t// out\n        /* \"#utility.yul\":1030:1343   */\n    tag_30:\n        /* \"#utility.yul\":1143:1147   */\n      0x00\n        /* \"#utility.yul\":1181:1183   */\n      0x20\n        /* \"#utility.yul\":1170:1179   */\n      dup3\n        /* \"#utility.yul\":1166:1184   */\n      add\n        /* \"#utility.yul\":1158:1184   */\n      swap1\n      pop\n        /* \"#utility.yul\":1230:1239   */\n      dup2\n        /* \"#utility.yul\":1224:1228   */\n      dup2\n        /* \"#utility.yul\":1220:1240   */\n      sub\n        /* \"#utility.yul\":1216:1217   */\n      0x00\n        /* \"#utility.yul\":1205:1214   */\n      dup4\n        /* \"#utility.yul\":1201:1218   */\n      add\n        /* \"#utility.yul\":1194:1241   */\n      mstore\n        /* \"#utility.yul\":1258:1336   */\n      tag_402\n        /* \"#utility.yul\":1331:1335   */\n      dup2\n        /* \"#utility.yul\":1322:1328   */\n      dup5\n        /* \"#utility.yul\":1258:1336   */\n      tag_327\n      jump\t// in\n    tag_402:\n        /* \"#utility.yul\":1250:1336   */\n      swap1\n      pop\n        /* \"#utility.yul\":1030:1343   */\n      swap3\n      swap2\n      pop\n      pop\n      jump\t// out\n        /* \"#utility.yul\":1430:1547   */\n    tag_329:\n        /* \"#utility.yul\":1539:1540   */\n      0x00\n        /* \"#utility.yul\":1536:1537   */\n      dup1\n        /* \"#utility.yul\":1529:1541   */\n      revert\n        /* \"#utility.yul\":1676:1802   */\n    tag_331:\n        /* \"#utility.yul\":1713:1720   */\n      0x00\n        /* \"#utility.yul\":1753:1795   */\n      0xffffffffffffffffffffffffffffffffffffffff\n        /* \"#utility.yul\":1746:1751   */\n      dup3\n        /* \"#utility.yul\":1742:1796   */\n      and\n        /* \"#utility.yul\":1731:1796   */\n      swap1\n      pop\n        /* \"#utility.yul\":1676:1802   */\n      swap2\n      swap1\n      pop\n      jump\t// out\n        /* \"#utility.yul\":1808:1904   */\n    tag_332:\n        /* \"#utility.yul\":1845:1852   */\n      0x00\n        /* \"#utility.yul\":1874:1898   */\n      tag_408\n        /* \"#utility.yul\":1892:1897   */\n      dup3\n        /* \"#utility.yul\":1874:1898   */\n      tag_331\n      jump\t// in\n    tag_408:\n        /* \"#utility.yul\":1863:1898   */\n      swap1\n      pop\n        /* \"#utility.yul\":1808:1904   */\n      swap2\n      swap1\n      pop\n      jump\t// out\n        /* \"#utility.yul\":1910:2032   */\n    tag_333:\n        /* \"#utility.yul\":1983:2007   */\n      tag_410\n        /* \"#utility.yul\":2001:2006   */\n      dup2\n        /* \"#utility.yul\":1983:2007   */\n      tag_332\n      jump\t// in\n    tag_410:\n        /* \"#utility.yul\":1976:1981   */\n      dup2\n        /* \"#utility.yul\":1973:2008   */\n      eq\n        /* \"#utility.yul\":1963:2026   */\n      tag_411\n      jumpi\n        /* \"#utility.yul\":2022:2023   */\n      0x00\n        /* \"#utility.yul\":2019:2020   */\n      dup1\n        /* \"#utility.yul\":2012:2024   */\n      revert\n        /* \"#utility.yul\":1963:2026   */\n    tag_411:\n        /* \"#utility.yul\":1910:2032   */\n      pop\n      jump\t// out\n        /* \"#utility.yul\":2038:2177   */\n    tag_334:\n        /* \"#utility.yul\":2084:2089   */\n      0x00\n        /* \"#utility.yul\":2122:2128   */\n      dup2\n        /* \"#utility.yul\":2109:2129   */\n      calldataload\n        /* \"#utility.yul\":2100:2129   */\n      swap1\n      pop\n        /* \"#utility.yul\":2138:2171   */\n      tag_413\n        /* \"#utility.yul\":2165:2170   */\n      dup2\n        /* \"#utility.yul\":2138:2171   */\n      tag_333\n      jump\t// in\n    tag_413:\n        /* \"#utility.yul\":2038:2177   */\n      swap3\n      swap2\n      pop\n      pop\n      jump\t// out\n        /* \"#utility.yul\":2183:2260   */\n    tag_335:\n        /* \"#utility.yul\":2220:2227   */\n      0x00\n        /* \"#utility.yul\":2249:2254   */\n      dup2\n        /* \"#utility.yul\":2238:2254   */\n      swap1\n      pop\n        /* \"#utility.yul\":2183:2260   */\n      swap2\n      swap1\n      pop\n      jump\t// out\n        /* \"#utility.yul\":2266:2388   */\n    tag_336:\n        /* \"#utility.yul\":2339:2363   */\n      tag_416\n        /* \"#utility.yul\":2357:2362   */\n      dup2\n        /* \"#utility.yul\":2339:2363   */\n      tag_335\n      jump\t// in\n    tag_416:\n        /* \"#utility.yul\":2332:2337   */\n      dup2\n        /* \"#utility.yul\":2329:2364   */\n      eq\n        /* \"#utility.yul\":2319:2382   */\n      tag_417\n      jumpi\n        /* \"#utility.yul\":2378:2379   */\n      0x00\n        /* \"#utility.yul\":2375:2376   */\n      dup1\n        /* \"#utility.yul\":2368:2380   */\n      revert\n        /* \"#utility.yul\":2319:2382   */\n    tag_417:\n        /* \"#utility.yul\":2266:2388   */\n      pop\n      jump\t// out\n        /* \"#utility.yul\":2394:2533   */\n    tag_337:\n        /* \"#utility.yul\":2440:2445   */\n      0x00\n        /* \"#utility.yul\":2478:2484   */\n      dup2\n        /* \"#utility.yul\":2465:2485   */\n      calldataload\n        /* \"#utility.yul\":2456:2485   */\n      swap1\n      pop\n        /* \"#utility.yul\":2494:2527   */\n      tag_419\n        /* \"#utility.yul\":2521:2526   */\n      dup2\n        /* \"#utility.yul\":2494:2527   */\n      tag_336\n      jump\t// in\n    tag_419:\n        /* \"#utility.yul\":2394:2533   */\n      swap3\n      swap2\n      pop\n      pop\n      jump\t// out\n        /* \"#utility.yul\":2539:3013   */\n    tag_33:\n        /* \"#utility.yul\":2607:2613   */\n      0x00\n        /* \"#utility.yul\":2615:2621   */\n      dup1\n        /* \"#utility.yul\":2664:2666   */\n      0x40\n        /* \"#utility.yul\":2652:2661   */\n      dup4\n        /* \"#utility.yul\":2643:2650   */\n      dup6\n        /* \"#utility.yul\":2639:2662   */\n      sub\n        /* \"#utility.yul\":2635:2667   */\n      slt\n        /* \"#utility.yul\":2632:2751   */\n      iszero\n      tag_421\n      jumpi\n        /* \"#utility.yul\":2670:2749   */\n      tag_422\n      tag_329\n      jump\t// in\n    tag_422:\n        /* \"#utility.yul\":2632:2751   */\n    tag_421:\n        /* \"#utility.yul\":2790:2791   */\n      0x00\n        /* \"#utility.yul\":2815:2868   */\n      tag_423\n        /* \"#utility.yul\":2860:2867   */\n      dup6\n        /* \"#utility.yul\":2851:2857   */\n      dup3\n        /* \"#utility.yul\":2840:2849   */\n      dup7\n        /* \"#utility.yul\":2836:2858   */\n      add\n        /* \"#utility.yul\":2815:2868   */\n      tag_334\n      jump\t// in\n    tag_423:\n        /* \"#utility.yul\":2805:2868   */\n      swap3\n      pop\n        /* \"#utility.yul\":2761:2878   */\n      pop\n        /* \"#utility.yul\":2917:2919   */\n      0x20\n        /* \"#utility.yul\":2943:2996   */\n      tag_424\n        /* \"#utility.yul\":2988:2995   */\n      dup6\n        /* \"#utility.yul\":2979:2985   */\n      dup3\n        /* \"#utility.yul\":2968:2977   */\n      dup7\n        /* \"#utility.yul\":2964:2986   */\n      add\n        /* \"#utility.yul\":2943:2996   */\n      tag_337\n      jump\t// in\n    tag_424:\n        /* \"#utility.yul\":2933:2996   */\n      swap2\n      pop\n        /* \"#utility.yul\":2888:3006   */\n      pop\n        /* \"#utility.yul\":2539:3013   */\n      swap3\n      pop\n      swap3\n      swap1\n      pop\n      jump\t// out\n        /* \"#utility.yul\":3019:3109   */\n    tag_338:\n        /* \"#utility.yul\":3053:3060   */\n      0x00\n        /* \"#utility.yul\":3096:3101   */\n      dup2\n        /* \"#utility.yul\":3089:3102   */\n      iszero\n        /* \"#utility.yul\":3082:3103   */\n      iszero\n        /* \"#utility.yul\":3071:3103   */\n      swap1\n      pop\n        /* \"#utility.yul\":3019:3109   */\n      swap2\n      swap1\n      pop\n      jump\t// out\n        /* \"#utility.yul\":3115:3224   */\n    tag_339:\n        /* \"#utility.yul\":3196:3217   */\n      tag_427\n        /* \"#utility.yul\":3211:3216   */\n      dup2\n        /* \"#utility.yul\":3196:3217   */\n      tag_338\n      jump\t// in\n    tag_427:\n        /* \"#utility.yul\":3191:3194   */\n      dup3\n        /* \"#utility.yul\":3184:3218   */\n      mstore\n        /* \"#utility.yul\":3115:3224   */\n      pop\n      pop\n      jump\t// out\n        /* \"#utility.yul\":3230:3440   */\n    tag_36:\n        /* \"#utility.yul\":3317:3321   */\n      0x00\n        /* \"#utility.yul\":3355:3357   */\n      0x20\n        /* \"#utility.yul\":3344:3353   */\n      dup3\n        /* \"#utility.yul\":3340:3358   */\n      add\n        /* \"#utility.yul\":3332:3358   */\n      swap1\n      pop\n        /* \"#utility.yul\":3368:3433   */\n      tag_429\n        /* \"#utility.yul\":3430:3431   */\n      0x00\n        /* \"#utility.yul\":3419:3428   */\n      dup4\n        /* \"#utility.yul\":3415:3432   */\n      add\n        /* \"#utility.yul\":3406:3412   */\n      dup5\n        /* \"#utility.yul\":3368:3433   */\n      tag_339\n      jump\t// in\n    tag_429:\n        /* \"#utility.yul\":3230:3440   */\n      swap3\n      swap2\n      pop\n      pop\n      jump\t// out\n        /* \"#utility.yul\":3446:3564   */\n    tag_340:\n        /* \"#utility.yul\":3533:3557   */\n      tag_431\n        /* \"#utility.yul\":3551:3556   */\n      dup2\n        /* \"#utility.yul\":3533:3557   */\n      tag_335\n      jump\t// in\n    tag_431:\n        /* \"#utility.yul\":3528:3531   */\n      dup3\n        /* \"#utility.yul\":3521:3558   */\n      mstore\n        /* \"#utility.yul\":3446:3564   */\n      pop\n      pop\n      jump\t// out\n        /* \"#utility.yul\":3570:3792   */\n    tag_40:\n        /* \"#utility.yul\":3663:3667   */\n      0x00\n        /* \"#utility.yul\":3701:3703   */\n      0x20\n        /* \"#utility.yul\":3690:3699   */\n      dup3\n        /* \"#utility.yul\":3686:3704   */\n      add\n        /* \"#utility.yul\":3678:3704   */\n      swap1\n      pop\n        /* \"#utility.yul\":3714:3785   */\n      tag_433\n        /* \"#utility.yul\":3782:3783   */\n      0x00\n        /* \"#utility.yul\":3771:3780   */\n      dup4\n        /* \"#utility.yul\":3767:3784   */\n      add\n        /* \"#utility.yul\":3758:3764   */\n      dup5\n        /* \"#utility.yul\":3714:3785   */\n      tag_340\n      jump\t// in\n    tag_433:\n        /* \"#utility.yul\":3570:3792   */\n      swap3\n      swap2\n      pop\n      pop\n      jump\t// out\n        /* \"#utility.yul\":3798:4417   */\n    tag_43:\n        /* \"#utility.yul\":3875:3881   */\n      0x00\n        /* \"#utility.yul\":3883:3889   */\n      dup1\n        /* \"#utility.yul\":3891:3897   */\n      0x00\n        /* \"#utility.yul\":3940:3942   */\n      0x60\n        /* \"#utility.yul\":3928:3937   */\n      dup5\n        /* \"#utility.yul\":3919:3926   */\n      dup7\n        /* \"#utility.yul\":3915:3938   */\n      sub\n        /* \"#utility.yul\":3911:3943   */\n      slt\n        /* \"#utility.yul\":3908:4027   */\n      iszero\n      tag_435\n      jumpi\n        /* \"#utility.yul\":3946:4025   */\n      tag_436\n      tag_329\n      jump\t// in\n    tag_436:\n        /* \"#utility.yul\":3908:4027   */\n    tag_435:\n        /* \"#utility.yul\":4066:4067   */\n      0x00\n        /* \"#utility.yul\":4091:4144   */\n      tag_437\n        /* \"#utility.yul\":4136:4143   */\n      dup7\n        /* \"#utility.yul\":4127:4133   */\n      dup3\n        /* \"#utility.yul\":4116:4125   */\n      dup8\n        /* \"#utility.yul\":4112:4134   */\n      add\n        /* \"#utility.yul\":4091:4144   */\n      tag_334\n      jump\t// in\n    tag_437:\n        /* \"#utility.yul\":4081:4144   */\n      swap4\n      pop\n        /* \"#utility.yul\":4037:4154   */\n      pop\n        /* \"#utility.yul\":4193:4195   */\n      0x20\n        /* \"#utility.yul\":4219:4272   */\n      tag_438\n        /* \"#utility.yul\":4264:4271   */\n      dup7\n        /* \"#utility.yul\":4255:4261   */\n      dup3\n        /* \"#utility.yul\":4244:4253   */\n      dup8\n        /* \"#utility.yul\":4240:4262   */\n      add\n        /* \"#utility.yul\":4219:4272   */\n      tag_334\n      jump\t// in\n    tag_438:\n        /* \"#utility.yul\":4209:4272   */\n      swap3\n      pop\n        /* \"#utility.yul\":4164:4282   */\n      pop\n        /* \"#utility.yul\":4321:4323   */\n      0x40\n        /* \"#utility.yul\":4347:4400   */\n      tag_439\n        /* \"#utility.yul\":4392:4399   */\n      dup7\n        /* \"#utility.yul\":4383:4389   */\n      dup3\n        /* \"#utility.yul\":4372:4381   */\n      dup8\n        /* \"#utility.yul\":4368:4390   */\n      add\n        /* \"#utility.yul\":4347:4400   */\n      tag_337\n      jump\t// in\n    tag_439:\n        /* \"#utility.yul\":4337:4400   */\n      swap2\n      pop\n        /* \"#utility.yul\":4292:4410   */\n      pop\n        /* \"#utility.yul\":3798:4417   */\n      swap3\n      pop\n      swap3\n      pop\n      swap3\n      jump\t// out\n        /* \"#utility.yul\":4423:4509   */\n    tag_341:\n        /* \"#utility.yul\":4458:4465   */\n      0x00\n        /* \"#utility.yul\":4498:4502   */\n      0xff\n        /* \"#utility.yul\":4491:4496   */\n      dup3\n        /* \"#utility.yul\":4487:4503   */\n      and\n        /* \"#utility.yul\":4476:4503   */\n      swap1\n      pop\n        /* \"#utility.yul\":4423:4509   */\n      swap2\n      swap1\n      pop\n      jump\t// out\n        /* \"#utility.yul\":4515:4627   */\n    tag_342:\n        /* \"#utility.yul\":4598:4620   */\n      tag_442\n        /* \"#utility.yul\":4614:4619   */\n      dup2\n        /* \"#utility.yul\":4598:4620   */\n      tag_341\n      jump\t// in\n    tag_442:\n        /* \"#utility.yul\":4593:4596   */\n      dup3\n        /* \"#utility.yul\":4586:4621   */\n      mstore\n        /* \"#utility.yul\":4515:4627   */\n      pop\n      pop\n      jump\t// out\n        /* \"#utility.yul\":4633:4847   */\n    tag_49:\n        /* \"#utility.yul\":4722:4726   */\n      0x00\n        /* \"#utility.yul\":4760:4762   */\n      0x20\n        /* \"#utility.yul\":4749:4758   */\n      dup3\n        /* \"#utility.yul\":4745:4763   */\n      add\n        /* \"#utility.yul\":4737:4763   */\n      swap1\n      pop\n        /* \"#utility.yul\":4773:4840   */\n      tag_444\n        /* \"#utility.yul\":4837:4838   */\n      0x00\n        /* \"#utility.yul\":4826:4835   */\n      dup4\n        /* \"#utility.yul\":4822:4839   */\n      add\n        /* \"#utility.yul\":4813:4819   */\n      dup5\n        /* \"#utility.yul\":4773:4840   */\n      tag_342\n      jump\t// in\n    tag_444:\n        /* \"#utility.yul\":4633:4847   */\n      swap3\n      swap2\n      pop\n      pop\n      jump\t// out\n        /* \"#utility.yul\":4853:4930   */\n    tag_343:\n        /* \"#utility.yul\":4890:4897   */\n      0x00\n        /* \"#utility.yul\":4919:4924   */\n      dup2\n        /* \"#utility.yul\":4908:4924   */\n      swap1\n      pop\n        /* \"#utility.yul\":4853:4930   */\n      swap2\n      swap1\n      pop\n      jump\t// out\n        /* \"#utility.yul\":4936:5054   */\n    tag_344:\n        /* \"#utility.yul\":5023:5047   */\n      tag_447\n        /* \"#utility.yul\":5041:5046   */\n      dup2\n        /* \"#utility.yul\":5023:5047   */\n      tag_343\n      jump\t// in\n    tag_447:\n        /* \"#utility.yul\":5018:5021   */\n      dup3\n        /* \"#utility.yul\":5011:5048   */\n      mstore\n        /* \"#utility.yul\":4936:5054   */\n      pop\n      pop\n      jump\t// out\n        /* \"#utility.yul\":5060:5282   */\n    tag_53:\n        /* \"#utility.yul\":5153:5157   */\n      0x00\n        /* \"#utility.yul\":5191:5193   */\n      0x20\n        /* \"#utility.yul\":5180:5189   */\n      dup3\n        /* \"#utility.yul\":5176:5194   */\n      add\n        /* \"#utility.yul\":5168:5194   */\n      swap1\n      pop\n        /* \"#utility.yul\":5204:5275   */\n      tag_449\n        /* \"#utility.yul\":5272:5273   */\n      0x00\n        /* \"#utility.yul\":5261:5270   */\n      dup4\n        /* \"#utility.yul\":5257:5274   */\n      add\n        /* \"#utility.yul\":5248:5254   */\n      dup5\n        /* \"#utility.yul\":5204:5275   */\n      tag_344\n      jump\t// in\n    tag_449:\n        /* \"#utility.yul\":5060:5282   */\n      swap3\n      swap2\n      pop\n      pop\n      jump\t// out\n        /* \"#utility.yul\":5288:5617   */\n    tag_66:\n        /* \"#utility.yul\":5347:5353   */\n      0x00\n        /* \"#utility.yul\":5396:5398   */\n      0x20\n        /* \"#utility.yul\":5384:5393   */\n      dup3\n        /* \"#utility.yul\":5375:5382   */\n      dup5\n        /* \"#utility.yul\":5371:5394   */\n      sub\n        /* \"#utility.yul\":5367:5399   */\n      slt\n        /* \"#utility.yul\":5364:5483   */\n      iszero\n      tag_451\n      jumpi\n        /* \"#utility.yul\":5402:5481   */\n      tag_452\n      tag_329\n      jump\t// in\n    tag_452:\n        /* \"#utility.yul\":5364:5483   */\n    tag_451:\n        /* \"#utility.yul\":5522:5523   */\n      0x00\n        /* \"#utility.yul\":5547:5600   */\n      tag_453\n        /* \"#utility.yul\":5592:5599   */\n      dup5\n        /* \"#utility.yul\":5583:5589   */\n      dup3\n        /* \"#utility.yul\":5572:5581   */\n      dup6\n        /* \"#utility.yul\":5568:5590   */\n      add\n        /* \"#utility.yul\":5547:5600   */\n      tag_334\n      jump\t// in\n    tag_453:\n        /* \"#utility.yul\":5537:5600   */\n      swap2\n      pop\n        /* \"#utility.yul\":5493:5610   */\n      pop\n        /* \"#utility.yul\":5288:5617   */\n      swap3\n      swap2\n      pop\n      pop\n      jump\t// out\n        /* \"#utility.yul\":5623:5741   */\n    tag_345:\n        /* \"#utility.yul\":5694:5716   */\n      tag_455\n        /* \"#utility.yul\":5710:5715   */\n      dup2\n        /* \"#utility.yul\":5694:5716   */\n      tag_341\n      jump\t// in\n    tag_455:\n        /* \"#utility.yul\":5687:5692   */\n      dup2\n        /* \"#utility.yul\":5684:5717   */\n      eq\n        /* \"#utility.yul\":5674:5735   */\n      tag_456\n      jumpi\n        /* \"#utility.yul\":5731:5732   */\n      0x00\n        /* \"#utility.yul\":5728:5729   */\n      dup1\n        /* \"#utility.yul\":5721:5733   */\n      revert\n        /* \"#utility.yul\":5674:5735   */\n    tag_456:\n        /* \"#utility.yul\":5623:5741   */\n      pop\n      jump\t// out\n        /* \"#utility.yul\":5747:5882   */\n    tag_346:\n        /* \"#utility.yul\":5791:5796   */\n      0x00\n        /* \"#utility.yul\":5829:5835   */\n      dup2\n        /* \"#utility.yul\":5816:5836   */\n      calldataload\n        /* \"#utility.yul\":5807:5836   */\n      swap1\n      pop\n        /* \"#utility.yul\":5845:5876   */\n      tag_458\n        /* \"#utility.yul\":5870:5875   */\n      dup2\n        /* \"#utility.yul\":5845:5876   */\n      tag_345\n      jump\t// in\n    tag_458:\n        /* \"#utility.yul\":5747:5882   */\n      swap3\n      swap2\n      pop\n      pop\n      jump\t// out\n        /* \"#utility.yul\":5888:6010   */\n    tag_347:\n        /* \"#utility.yul\":5961:5985   */\n      tag_460\n        /* \"#utility.yul\":5979:5984   */\n      dup2\n        /* \"#utility.yul\":5961:5985   */\n      tag_343\n      jump\t// in\n    tag_460:\n        /* \"#utility.yul\":5954:5959   */\n      dup2\n        /* \"#utility.yul\":5951:5986   */\n      eq\n        /* \"#utility.yul\":5941:6004   */\n      tag_461\n      jumpi\n        /* \"#utility.yul\":6000:6001   */\n      0x00\n        /* \"#utility.yul\":5997:5998   */\n      dup1\n        /* \"#utility.yul\":5990:6002   */\n      revert\n        /* \"#utility.yul\":5941:6004   */\n    tag_461:\n        /* \"#utility.yul\":5888:6010   */\n      pop\n      jump\t// out\n        /* \"#utility.yul\":6016:6155   */\n    tag_348:\n        /* \"#utility.yul\":6062:6067   */\n      0x00\n        /* \"#utility.yul\":6100:6106   */\n      dup2\n        /* \"#utility.yul\":6087:6107   */\n      calldataload\n        /* \"#utility.yul\":6078:6107   */\n      swap1\n      pop\n        /* \"#utility.yul\":6116:6149   */\n      tag_463\n        /* \"#utility.yul\":6143:6148   */\n      dup2\n        /* \"#utility.yul\":6116:6149   */\n      tag_347\n      jump\t// in\n    tag_463:\n        /* \"#utility.yul\":6016:6155   */\n      swap3\n      swap2\n      pop\n      pop\n      jump\t// out\n        /* \"#utility.yul\":6161:7068   */\n    tag_97:\n        /* \"#utility.yul\":6254:6260   */\n      0x00\n        /* \"#utility.yul\":6262:6268   */\n      dup1\n        /* \"#utility.yul\":6270:6276   */\n      0x00\n        /* \"#utility.yul\":6278:6284   */\n      dup1\n        /* \"#utility.yul\":6286:6292   */\n      0x00\n        /* \"#utility.yul\":6335:6338   */\n      0xa0\n        /* \"#utility.yul\":6323:6332   */\n      dup7\n        /* \"#utility.yul\":6314:6321   */\n      dup9\n        /* \"#utility.yul\":6310:6333   */\n      sub\n        /* \"#utility.yul\":6306:6339   */\n      slt\n        /* \"#utility.yul\":6303:6423   */\n      iszero\n      tag_465\n      jumpi\n        /* \"#utility.yul\":6342:6421   */\n      tag_466\n      tag_329\n      jump\t// in\n    tag_466:\n        /* \"#utility.yul\":6303:6423   */\n    tag_465:\n        /* \"#utility.yul\":6462:6463   */\n      0x00\n        /* \"#utility.yul\":6487:6540   */\n      tag_467\n        /* \"#utility.yul\":6532:6539   */\n      dup9\n        /* \"#utility.yul\":6523:6529   */\n      dup3\n        /* \"#utility.yul\":6512:6521   */\n      dup10\n        /* \"#utility.yul\":6508:6530   */\n      add\n        /* \"#utility.yul\":6487:6540   */\n      tag_337\n      jump\t// in\n    tag_467:\n        /* \"#utility.yul\":6477:6540   */\n      swap6\n      pop\n        /* \"#utility.yul\":6433:6550   */\n      pop\n        /* \"#utility.yul\":6589:6591   */\n      0x20\n        /* \"#utility.yul\":6615:6668   */\n      tag_468\n        /* \"#utility.yul\":6660:6667   */\n      dup9\n        /* \"#utility.yul\":6651:6657   */\n      dup3\n        /* \"#utility.yul\":6640:6649   */\n      dup10\n        /* \"#utility.yul\":6636:6658   */\n      add\n        /* \"#utility.yul\":6615:6668   */\n      tag_337\n      jump\t// in\n    tag_468:\n        /* \"#utility.yul\":6605:6668   */\n      swap5\n      pop\n        /* \"#utility.yul\":6560:6678   */\n      pop\n        /* \"#utility.yul\":6717:6719   */\n      0x40\n        /* \"#utility.yul\":6743:6794   */\n      tag_469\n        /* \"#utility.yul\":6786:6793   */\n      dup9\n        /* \"#utility.yul\":6777:6783   */\n      dup3\n        /* \"#utility.yul\":6766:6775   */\n      dup10\n        /* \"#utility.yul\":6762:6784   */\n      add\n        /* \"#utility.yul\":6743:6794   */\n      tag_346\n      jump\t// in\n    tag_469:\n        /* \"#utility.yul\":6733:6794   */\n      swap4\n      pop\n        /* \"#utility.yul\":6688:6804   */\n      pop\n        /* \"#utility.yul\":6843:6845   */\n      0x60\n        /* \"#utility.yul\":6869:6922   */\n      tag_470\n        /* \"#utility.yul\":6914:6921   */\n      dup9\n        /* \"#utility.yul\":6905:6911   */\n      dup3\n        /* \"#utility.yul\":6894:6903   */\n      dup10\n        /* \"#utility.yul\":6890:6912   */\n      add\n        /* \"#utility.yul\":6869:6922   */\n      tag_348\n      jump\t// in\n    tag_470:\n        /* \"#utility.yul\":6859:6922   */\n      swap3\n      pop\n        /* \"#utility.yul\":6814:6932   */\n      pop\n        /* \"#utility.yul\":6971:6974   */\n      0x80\n        /* \"#utility.yul\":6998:7051   */\n      tag_471\n        /* \"#utility.yul\":7043:7050   */\n      dup9\n        /* \"#utility.yul\":7034:7040   */\n      dup3\n        /* \"#utility.yul\":7023:7032   */\n      dup10\n        /* \"#utility.yul\":7019:7041   */\n      add\n        /* \"#utility.yul\":6998:7051   */\n      tag_348\n      jump\t// in\n    tag_471:\n        /* \"#utility.yul\":6988:7051   */\n      swap2\n      pop\n        /* \"#utility.yul\":6942:7061   */\n      pop\n        /* \"#utility.yul\":6161:7068   */\n      swap3\n      swap6\n      pop\n      swap3\n      swap6\n      swap1\n      swap4\n      pop\n      jump\t// out\n        /* \"#utility.yul\":7074:8273   */\n    tag_102:\n        /* \"#utility.yul\":7185:7191   */\n      0x00\n        /* \"#utility.yul\":7193:7199   */\n      dup1\n        /* \"#utility.yul\":7201:7207   */\n      0x00\n        /* \"#utility.yul\":7209:7215   */\n      dup1\n        /* \"#utility.yul\":7217:7223   */\n      0x00\n        /* \"#utility.yul\":7225:7231   */\n      dup1\n        /* \"#utility.yul\":7233:7239   */\n      0x00\n        /* \"#utility.yul\":7282:7285   */\n      0xe0\n        /* \"#utility.yul\":7270:7279   */\n      dup9\n        /* \"#utility.yul\":7261:7268   */\n      dup11\n        /* \"#utility.yul\":7257:7280   */\n      sub\n        /* \"#utility.yul\":7253:7286   */\n      slt\n        /* \"#utility.yul\":7250:7370   */\n      iszero\n      tag_473\n      jumpi\n        /* \"#utility.yul\":7289:7368   */\n      tag_474\n      tag_329\n      jump\t// in\n    tag_474:\n        /* \"#utility.yul\":7250:7370   */\n    tag_473:\n        /* \"#utility.yul\":7409:7410   */\n      0x00\n        /* \"#utility.yul\":7434:7487   */\n      tag_475\n        /* \"#utility.yul\":7479:7486   */\n      dup11\n        /* \"#utility.yul\":7470:7476   */\n      dup3\n        /* \"#utility.yul\":7459:7468   */\n      dup12\n        /* \"#utility.yul\":7455:7477   */\n      add\n        /* \"#utility.yul\":7434:7487   */\n      tag_334\n      jump\t// in\n    tag_475:\n        /* \"#utility.yul\":7424:7487   */\n      swap8\n      pop\n        /* \"#utility.yul\":7380:7497   */\n      pop\n        /* \"#utility.yul\":7536:7538   */\n      0x20\n        /* \"#utility.yul\":7562:7615   */\n      tag_476\n        /* \"#utility.yul\":7607:7614   */\n      dup11\n        /* \"#utility.yul\":7598:7604   */\n      dup3\n        /* \"#utility.yul\":7587:7596   */\n      dup12\n        /* \"#utility.yul\":7583:7605   */\n      add\n        /* \"#utility.yul\":7562:7615   */\n      tag_334\n      jump\t// in\n    tag_476:\n        /* \"#utility.yul\":7552:7615   */\n      swap7\n      pop\n        /* \"#utility.yul\":7507:7625   */\n      pop\n        /* \"#utility.yul\":7664:7666   */\n      0x40\n        /* \"#utility.yul\":7690:7743   */\n      tag_477\n        /* \"#utility.yul\":7735:7742   */\n      dup11\n        /* \"#utility.yul\":7726:7732   */\n      dup3\n        /* \"#utility.yul\":7715:7724   */\n      dup12\n        /* \"#utility.yul\":7711:7733   */\n      add\n        /* \"#utility.yul\":7690:7743   */\n      tag_337\n      jump\t// in\n    tag_477:\n        /* \"#utility.yul\":7680:7743   */\n      swap6\n      pop\n        /* \"#utility.yul\":7635:7753   */\n      pop\n        /* \"#utility.yul\":7792:7794   */\n      0x60\n        /* \"#utility.yul\":7818:7871   */\n      tag_478\n        /* \"#utility.yul\":7863:7870   */\n      dup11\n        /* \"#utility.yul\":7854:7860   */\n      dup3\n        /* \"#utility.yul\":7843:7852   */\n      dup12\n        /* \"#utility.yul\":7839:7861   */\n      add\n        /* \"#utility.yul\":7818:7871   */\n      tag_337\n      jump\t// in\n    tag_478:\n        /* \"#utility.yul\":7808:7871   */\n      swap5\n      pop\n        /* \"#utility.yul\":7763:7881   */\n      pop\n        /* \"#utility.yul\":7920:7923   */\n      0x80\n        /* \"#utility.yul\":7947:7998   */\n      tag_479\n        /* \"#utility.yul\":7990:7997   */\n      dup11\n        /* \"#utility.yul\":7981:7987   */\n      dup3\n        /* \"#utility.yul\":7970:7979   */\n      dup12\n        /* \"#utility.yul\":7966:7988   */\n      add\n        /* \"#utility.yul\":7947:7998   */\n      tag_346\n      jump\t// in\n    tag_479:\n        /* \"#utility.yul\":7937:7998   */\n      swap4\n      pop\n        /* \"#utility.yul\":7891:8008   */\n      pop\n        /* \"#utility.yul\":8047:8050   */\n      0xa0\n        /* \"#utility.yul\":8074:8127   */\n      tag_480\n        /* \"#utility.yul\":8119:8126   */\n      dup11\n        /* \"#utility.yul\":8110:8116   */\n      dup3\n        /* \"#utility.yul\":8099:8108   */\n      dup12\n        /* \"#utility.yul\":8095:8117   */\n      add\n        /* \"#utility.yul\":8074:8127   */\n      tag_348\n      jump\t// in\n    tag_480:\n        /* \"#utility.yul\":8064:8127   */\n      swap3\n      pop\n        /* \"#utility.yul\":8018:8137   */\n      pop\n        /* \"#utility.yul\":8176:8179   */\n      0xc0\n        /* \"#utility.yul\":8203:8256   */\n      tag_481\n        /* \"#utility.yul\":8248:8255   */\n      dup11\n        /* \"#utility.yul\":8239:8245   */\n      dup3\n        /* \"#utility.yul\":8228:8237   */\n      dup12\n        /* \"#utility.yul\":8224:8246   */\n      add\n        /* \"#utility.yul\":8203:8256   */\n      tag_348\n      jump\t// in\n    tag_481:\n        /* \"#utility.yul\":8193:8256   */\n      swap2\n      pop\n        /* \"#utility.yul\":8147:8266   */\n      pop\n        /* \"#utility.yul\":7074:8273   */\n      swap3\n      swap6\n      swap9\n      swap2\n      swap5\n      swap8\n      pop\n      swap3\n      swap6\n      pop\n      jump\t// out\n        /* \"#utility.yul\":8279:8753   */\n    tag_109:\n        /* \"#utility.yul\":8347:8353   */\n      0x00\n        /* \"#utility.yul\":8355:8361   */\n      dup1\n        /* \"#utility.yul\":8404:8406   */\n      0x40\n        /* \"#utility.yul\":8392:8401   */\n      dup4\n        /* \"#utility.yul\":8383:8390   */\n      dup6\n        /* \"#utility.yul\":8379:8402   */\n      sub\n        /* \"#utility.yul\":8375:8407   */\n      slt\n        /* \"#utility.yul\":8372:8491   */\n      iszero\n      tag_483\n      jumpi\n        /* \"#utility.yul\":8410:8489   */\n      tag_484\n      tag_329\n      jump\t// in\n    tag_484:\n        /* \"#utility.yul\":8372:8491   */\n    tag_483:\n        /* \"#utility.yul\":8530:8531   */\n      0x00\n        /* \"#utility.yul\":8555:8608   */\n      tag_485\n        /* \"#utility.yul\":8600:8607   */\n      dup6\n        /* \"#utility.yul\":8591:8597   */\n      dup3\n        /* \"#utility.yul\":8580:8589   */\n      dup7\n        /* \"#utility.yul\":8576:8598   */\n      add\n        /* \"#utility.yul\":8555:8608   */\n      tag_334\n      jump\t// in\n    tag_485:\n        /* \"#utility.yul\":8545:8608   */\n      swap3\n      pop\n        /* \"#utility.yul\":8501:8618   */\n      pop\n        /* \"#utility.yul\":8657:8659   */\n      0x20\n        /* \"#utility.yul\":8683:8736   */\n      tag_486\n        /* \"#utility.yul\":8728:8735   */\n      dup6\n        /* \"#utility.yul\":8719:8725   */\n      dup3\n        /* \"#utility.yul\":8708:8717   */\n      dup7\n        /* \"#utility.yul\":8704:8726   */\n      add\n        /* \"#utility.yul\":8683:8736   */\n      tag_334\n      jump\t// in\n    tag_486:\n        /* \"#utility.yul\":8673:8736   */\n      swap2\n      pop\n        /* \"#utility.yul\":8628:8746   */\n      pop\n        /* \"#utility.yul\":8279:8753   */\n      swap3\n      pop\n      swap3\n      swap1\n      pop\n      jump\t// out\n        /* \"#utility.yul\":8759:8939   */\n    tag_349:\n        /* \"#utility.yul\":8807:8884   */\n      0x4e487b7100000000000000000000000000000000000000000000000000000000\n        /* \"#utility.yul\":8804:8805   */\n      0x00\n        /* \"#utility.yul\":8797:8885   */\n      mstore\n        /* \"#utility.yul\":8904:8908   */\n      0x22\n        /* \"#utility.yul\":8901:8902   */\n      0x04\n        /* \"#utility.yul\":8894:8909   */\n      mstore\n        /* \"#utility.yul\":8928:8932   */\n      0x24\n        /* \"#utility.yul\":8925:8926   */\n      0x00\n        /* \"#utility.yul\":8918:8933   */\n      revert\n        /* \"#utility.yul\":8945:9265   */\n    tag_114:\n        /* \"#utility.yul\":8989:8995   */\n      0x00\n        /* \"#utility.yul\":9026:9027   */\n      0x02\n        /* \"#utility.yul\":9020:9024   */\n      dup3\n        /* \"#utility.yul\":9016:9028   */\n      div\n        /* \"#utility.yul\":9006:9028   */\n      swap1\n      pop\n        /* \"#utility.yul\":9073:9074   */\n      0x01\n        /* \"#utility.yul\":9067:9071   */\n      dup3\n        /* \"#utility.yul\":9063:9075   */\n      and\n        /* \"#utility.yul\":9094:9112   */\n      dup1\n        /* \"#utility.yul\":9084:9165   */\n      tag_489\n      jumpi\n        /* \"#utility.yul\":9150:9154   */\n      0x7f\n        /* \"#utility.yul\":9142:9148   */\n      dup3\n        /* \"#utility.yul\":9138:9155   */\n      and\n        /* \"#utility.yul\":9128:9155   */\n      swap2\n      pop\n        /* \"#utility.yul\":9084:9165   */\n    tag_489:\n        /* \"#utility.yul\":9212:9214   */\n      0x20\n        /* \"#utility.yul\":9204:9210   */\n      dup3\n        /* \"#utility.yul\":9201:9215   */\n      lt\n        /* \"#utility.yul\":9181:9199   */\n      dup2\n        /* \"#utility.yul\":9178:9216   */\n      sub\n        /* \"#utility.yul\":9175:9259   */\n      tag_490\n      jumpi\n        /* \"#utility.yul\":9231:9249   */\n      tag_491\n      tag_349\n      jump\t// in\n    tag_491:\n        /* \"#utility.yul\":9175:9259   */\n    tag_490:\n        /* \"#utility.yul\":8996:9265   */\n      pop\n        /* \"#utility.yul\":8945:9265   */\n      swap2\n      swap1\n      pop\n      jump\t// out\n        /* \"#utility.yul\":9271:9451   */\n    tag_350:\n        /* \"#utility.yul\":9319:9396   */\n      0x4e487b7100000000000000000000000000000000000000000000000000000000\n        /* \"#utility.yul\":9316:9317   */\n      0x00\n        /* \"#utility.yul\":9309:9397   */\n      mstore\n        /* \"#utility.yul\":9416:9420   */\n      0x11\n        /* \"#utility.yul\":9413:9414   */\n      0x04\n        /* \"#utility.yul\":9406:9421   */\n      mstore\n        /* \"#utility.yul\":9440:9444   */\n      0x24\n        /* \"#utility.yul\":9437:9438   */\n      0x00\n        /* \"#utility.yul\":9430:9445   */\n      revert\n        /* \"#utility.yul\":9457:9648   */\n    tag_140:\n        /* \"#utility.yul\":9497:9500   */\n      0x00\n        /* \"#utility.yul\":9516:9536   */\n      tag_494\n        /* \"#utility.yul\":9534:9535   */\n      dup3\n        /* \"#utility.yul\":9516:9536   */\n      tag_335\n      jump\t// in\n    tag_494:\n        /* \"#utility.yul\":9511:9536   */\n      swap2\n      pop\n        /* \"#utility.yul\":9550:9570   */\n      tag_495\n        /* \"#utility.yul\":9568:9569   */\n      dup4\n        /* \"#utility.yul\":9550:9570   */\n      tag_335\n      jump\t// in\n    tag_495:\n        /* \"#utility.yul\":9545:9570   */\n      swap3\n      pop\n        /* \"#utility.yul\":9593:9594   */\n      dup3\n        /* \"#utility.yul\":9590:9591   */\n      dup3\n        /* \"#utility.yul\":9586:9595   */\n      add\n        /* \"#utility.yul\":9579:9595   */\n      swap1\n      pop\n        /* \"#utility.yul\":9614:9617   */\n      dup1\n        /* \"#utility.yul\":9611:9612   */\n      dup3\n        /* \"#utility.yul\":9608:9618   */\n      gt\n        /* \"#utility.yul\":9605:9641   */\n      iszero\n      tag_496\n      jumpi\n        /* \"#utility.yul\":9621:9639   */\n      tag_497\n      tag_350\n      jump\t// in\n    tag_497:\n        /* \"#utility.yul\":9605:9641   */\n    tag_496:\n        /* \"#utility.yul\":9457:9648   */\n      swap3\n      swap2\n      pop\n      pop\n      jump\t// out\n        /* \"#utility.yul\":9654:9878   */\n    tag_351:\n        /* \"#utility.yul\":9794:9828   */\n      0x45524332303a2064656372656173656420616c6c6f77616e63652062656c6f77\n        /* \"#utility.yul\":9790:9791   */\n      0x00\n        /* \"#utility.yul\":9782:9788   */\n      dup3\n        /* \"#utility.yul\":9778:9792   */\n      add\n        /* \"#utility.yul\":9771:9829   */\n      mstore\n        /* \"#utility.yul\":9863:9870   */\n      0x207a65726f000000000000000000000000000000000000000000000000000000\n        /* \"#utility.yul\":9858:9860   */\n      0x20\n        /* \"#utility.yul\":9850:9856   */\n      dup3\n        /* \"#utility.yul\":9846:9861   */\n      add\n        /* \"#utility.yul\":9839:9871   */\n      mstore\n        /* \"#utility.yul\":9654:9878   */\n      pop\n      jump\t// out\n        /* \"#utility.yul\":9884:10250   */\n    tag_352:\n        /* \"#utility.yul\":10026:10029   */\n      0x00\n        /* \"#utility.yul\":10047:10114   */\n      tag_500\n        /* \"#utility.yul\":10111:10113   */\n      0x25\n        /* \"#utility.yul\":10106:10109   */\n      dup4\n        /* \"#utility.yul\":10047:10114   */\n      tag_324\n      jump\t// in\n    tag_500:\n        /* \"#utility.yul\":10040:10114   */\n      swap2\n      pop\n        /* \"#utility.yul\":10123:10216   */\n      tag_501\n        /* \"#utility.yul\":10212:10215   */\n      dup3\n        /* \"#utility.yul\":10123:10216   */\n      tag_351\n      jump\t// in\n    tag_501:\n        /* \"#utility.yul\":10241:10243   */\n      0x40\n        /* \"#utility.yul\":10236:10239   */\n      dup3\n        /* \"#utility.yul\":10232:10244   */\n      add\n        /* \"#utility.yul\":10225:10244   */\n      swap1\n      pop\n        /* \"#utility.yul\":9884:10250   */\n      swap2\n      swap1\n      pop\n      jump\t// out\n        /* \"#utility.yul\":10256:10675   */\n    tag_161:\n        /* \"#utility.yul\":10422:10426   */\n      0x00\n        /* \"#utility.yul\":10460:10462   */\n      0x20\n        /* \"#utility.yul\":10449:10458   */\n      dup3\n        /* \"#utility.yul\":10445:10463   */\n      add\n        /* \"#utility.yul\":10437:10463   */\n      swap1\n      pop\n        /* \"#utility.yul\":10509:10518   */\n      dup2\n        /* \"#utility.yul\":10503:10507   */\n      dup2\n        /* \"#utility.yul\":10499:10519   */\n      sub\n        /* \"#utility.yul\":10495:10496   */\n      0x00\n        /* \"#utility.yul\":10484:10493   */\n      dup4\n        /* \"#utility.yul\":10480:10497   */\n      add\n        /* \"#utility.yul\":10473:10520   */\n      mstore\n        /* \"#utility.yul\":10537:10668   */\n      tag_503\n        /* \"#utility.yul\":10663:10667   */\n      dup2\n        /* \"#utility.yul\":10537:10668   */\n      tag_352\n      jump\t// in\n    tag_503:\n        /* \"#utility.yul\":10529:10668   */\n      swap1\n      pop\n        /* \"#utility.yul\":10256:10675   */\n      swap2\n      swap1\n      pop\n      jump\t// out\n        /* \"#utility.yul\":10681:10852   */\n    tag_353:\n        /* \"#utility.yul\":10821:10844   */\n      0x746f6b656e206973206c657373207468616e2032300000000000000000000000\n        /* \"#utility.yul\":10817:10818   */\n      0x00\n        /* \"#utility.yul\":10809:10815   */\n      dup3\n        /* \"#utility.yul\":10805:10819   */\n      add\n        /* \"#utility.yul\":10798:10845   */\n      mstore\n        /* \"#utility.yul\":10681:10852   */\n      pop\n      jump\t// out\n        /* \"#utility.yul\":10858:11224   */\n    tag_354:\n        /* \"#utility.yul\":11000:11003   */\n      0x00\n        /* \"#utility.yul\":11021:11088   */\n      tag_506\n        /* \"#utility.yul\":11085:11087   */\n      0x15\n        /* \"#utility.yul\":11080:11083   */\n      dup4\n        /* \"#utility.yul\":11021:11088   */\n      tag_324\n      jump\t// in\n    tag_506:\n        /* \"#utility.yul\":11014:11088   */\n      swap2\n      pop\n        /* \"#utility.yul\":11097:11190   */\n      tag_507\n        /* \"#utility.yul\":11186:11189   */\n      dup3\n        /* \"#utility.yul\":11097:11190   */\n      tag_353\n      jump\t// in\n    tag_507:\n        /* \"#utility.yul\":11215:11217   */\n      0x20\n        /* \"#utility.yul\":11210:11213   */\n      dup3\n        /* \"#utility.yul\":11206:11218   */\n      add\n        /* \"#utility.yul\":11199:11218   */\n      swap1\n      pop\n        /* \"#utility.yul\":10858:11224   */\n      swap2\n      swap1\n      pop\n      jump\t// out\n        /* \"#utility.yul\":11230:11649   */\n    tag_169:\n        /* \"#utility.yul\":11396:11400   */\n      0x00\n        /* \"#utility.yul\":11434:11436   */\n      0x20\n        /* \"#utility.yul\":11423:11432   */\n      dup3\n        /* \"#utility.yul\":11419:11437   */\n      add\n        /* \"#utility.yul\":11411:11437   */\n      swap1\n      pop\n        /* \"#utility.yul\":11483:11492   */\n      dup2\n        /* \"#utility.yul\":11477:11481   */\n      dup2\n        /* \"#utility.yul\":11473:11493   */\n      sub\n        /* \"#utility.yul\":11469:11470   */\n      0x00\n        /* \"#utility.yul\":11458:11467   */\n      dup4\n        /* \"#utility.yul\":11454:11471   */\n      add\n        /* \"#utility.yul\":11447:11494   */\n      mstore\n        /* \"#utility.yul\":11511:11642   */\n      tag_509\n        /* \"#utility.yul\":11637:11641   */\n      dup2\n        /* \"#utility.yul\":11511:11642   */\n      tag_354\n      jump\t// in\n    tag_509:\n        /* \"#utility.yul\":11503:11642   */\n      swap1\n      pop\n        /* \"#utility.yul\":11230:11649   */\n      swap2\n      swap1\n      pop\n      jump\t// out\n        /* \"#utility.yul\":11655:11849   */\n    tag_174:\n        /* \"#utility.yul\":11695:11699   */\n      0x00\n        /* \"#utility.yul\":11715:11735   */\n      tag_511\n        /* \"#utility.yul\":11733:11734   */\n      dup3\n        /* \"#utility.yul\":11715:11735   */\n      tag_335\n      jump\t// in\n    tag_511:\n        /* \"#utility.yul\":11710:11735   */\n      swap2\n      pop\n        /* \"#utility.yul\":11749:11769   */\n      tag_512\n        /* \"#utility.yul\":11767:11768   */\n      dup4\n        /* \"#utility.yul\":11749:11769   */\n      tag_335\n      jump\t// in\n    tag_512:\n        /* \"#utility.yul\":11744:11769   */\n      swap3\n      pop\n        /* \"#utility.yul\":11793:11794   */\n      dup3\n        /* \"#utility.yul\":11790:11791   */\n      dup3\n        /* \"#utility.yul\":11786:11795   */\n      sub\n        /* \"#utility.yul\":11778:11795   */\n      swap1\n      pop\n        /* \"#utility.yul\":11817:11818   */\n      dup2\n        /* \"#utility.yul\":11811:11815   */\n      dup2\n        /* \"#utility.yul\":11808:11819   */\n      gt\n        /* \"#utility.yul\":11805:11842   */\n      iszero\n      tag_513\n      jumpi\n        /* \"#utility.yul\":11822:11840   */\n      tag_514\n      tag_350\n      jump\t// in\n    tag_514:\n        /* \"#utility.yul\":11805:11842   */\n    tag_513:\n        /* \"#utility.yul\":11655:11849   */\n      swap3\n      swap2\n      pop\n      pop\n      jump\t// out\n        /* \"#utility.yul\":11855:12265   */\n    tag_177:\n        /* \"#utility.yul\":11895:11902   */\n      0x00\n        /* \"#utility.yul\":11918:11938   */\n      tag_516\n        /* \"#utility.yul\":11936:11937   */\n      dup3\n        /* \"#utility.yul\":11918:11938   */\n      tag_335\n      jump\t// in\n    tag_516:\n        /* \"#utility.yul\":11913:11938   */\n      swap2\n      pop\n        /* \"#utility.yul\":11952:11972   */\n      tag_517\n        /* \"#utility.yul\":11970:11971   */\n      dup4\n        /* \"#utility.yul\":11952:11972   */\n      tag_335\n      jump\t// in\n    tag_517:\n        /* \"#utility.yul\":11947:11972   */\n      swap3\n      pop\n        /* \"#utility.yul\":12007:12008   */\n      dup3\n        /* \"#utility.yul\":12004:12005   */\n      dup3\n        /* \"#utility.yul\":12000:12009   */\n      mul\n        /* \"#utility.yul\":12029:12059   */\n      tag_518\n        /* \"#utility.yul\":12047:12058   */\n      dup2\n        /* \"#utility.yul\":12029:12059   */\n      tag_335\n      jump\t// in\n    tag_518:\n        /* \"#utility.yul\":12018:12059   */\n      swap2\n      pop\n        /* \"#utility.yul\":12208:12209   */\n      dup3\n        /* \"#utility.yul\":12199:12206   */\n      dup3\n        /* \"#utility.yul\":12195:12210   */\n      div\n        /* \"#utility.yul\":12192:12193   */\n      dup5\n        /* \"#utility.yul\":12189:12211   */\n      eq\n        /* \"#utility.yul\":12169:12170   */\n      dup4\n        /* \"#utility.yul\":12162:12171   */\n      iszero\n        /* \"#utility.yul\":12142:12225   */\n      or\n        /* \"#utility.yul\":12119:12258   */\n      tag_519\n      jumpi\n        /* \"#utility.yul\":12238:12256   */\n      tag_520\n      tag_350\n      jump\t// in\n    tag_520:\n        /* \"#utility.yul\":12119:12258   */\n    tag_519:\n        /* \"#utility.yul\":11903:12265   */\n      pop\n        /* \"#utility.yul\":11855:12265   */\n      swap3\n      swap2\n      pop\n      pop\n      jump\t// out\n        /* \"#utility.yul\":12271:12451   */\n    tag_355:\n        /* \"#utility.yul\":12319:12396   */\n      0x4e487b7100000000000000000000000000000000000000000000000000000000\n        /* \"#utility.yul\":12316:12317   */\n      0x00\n        /* \"#utility.yul\":12309:12397   */\n      mstore\n        /* \"#utility.yul\":12416:12420   */\n      0x12\n        /* \"#utility.yul\":12413:12414   */\n      0x04\n        /* \"#utility.yul\":12406:12421   */\n      mstore\n        /* \"#utility.yul\":12440:12444   */\n      0x24\n        /* \"#utility.yul\":12437:12438   */\n      0x00\n        /* \"#utility.yul\":12430:12445   */\n      revert\n        /* \"#utility.yul\":12457:12642   */\n    tag_179:\n        /* \"#utility.yul\":12497:12498   */\n      0x00\n        /* \"#utility.yul\":12514:12534   */\n      tag_523\n        /* \"#utility.yul\":12532:12533   */\n      dup3\n        /* \"#utility.yul\":12514:12534   */\n      tag_335\n      jump\t// in\n    tag_523:\n        /* \"#utility.yul\":12509:12534   */\n      swap2\n      pop\n        /* \"#utility.yul\":12548:12568   */\n      tag_524\n        /* \"#utility.yul\":12566:12567   */\n      dup4\n        /* \"#utility.yul\":12548:12568   */\n      tag_335\n      jump\t// in\n    tag_524:\n        /* \"#utility.yul\":12543:12568   */\n      swap3\n      pop\n        /* \"#utility.yul\":12587:12588   */\n      dup3\n        /* \"#utility.yul\":12577:12612   */\n      tag_525\n      jumpi\n        /* \"#utility.yul\":12592:12610   */\n      tag_526\n      tag_355\n      jump\t// in\n    tag_526:\n        /* \"#utility.yul\":12577:12612   */\n    tag_525:\n        /* \"#utility.yul\":12634:12635   */\n      dup3\n        /* \"#utility.yul\":12631:12632   */\n      dup3\n        /* \"#utility.yul\":12627:12636   */\n      div\n        /* \"#utility.yul\":12622:12636   */\n      swap1\n      pop\n        /* \"#utility.yul\":12457:12642   */\n      swap3\n      swap2\n      pop\n      pop\n      jump\t// out\n        /* \"#utility.yul\":12648:12827   */\n    tag_356:\n        /* \"#utility.yul\":12788:12819   */\n      0x45524332305065726d69743a206578706972656420646561646c696e65000000\n        /* \"#utility.yul\":12784:12785   */\n      0x00\n        /* \"#utility.yul\":12776:12782   */\n      dup3\n        /* \"#utility.yul\":12772:12786   */\n      add\n        /* \"#utility.yul\":12765:12820   */\n      mstore\n        /* \"#utility.yul\":12648:12827   */\n      pop\n      jump\t// out\n        /* \"#utility.yul\":12833:13199   */\n    tag_357:\n        /* \"#utility.yul\":12975:12978   */\n      0x00\n        /* \"#utility.yul\":12996:13063   */\n      tag_529\n        /* \"#utility.yul\":13060:13062   */\n      0x1d\n        /* \"#utility.yul\":13055:13058   */\n      dup4\n        /* \"#utility.yul\":12996:13063   */\n      tag_324\n      jump\t// in\n    tag_529:\n        /* \"#utility.yul\":12989:13063   */\n      swap2\n      pop\n        /* \"#utility.yul\":13072:13165   */\n      tag_530\n        /* \"#utility.yul\":13161:13164   */\n      dup3\n        /* \"#utility.yul\":13072:13165   */\n      tag_356\n      jump\t// in\n    tag_530:\n        /* \"#utility.yul\":13190:13192   */\n      0x20\n        /* \"#utility.yul\":13185:13188   */\n      dup3\n        /* \"#utility.yul\":13181:13193   */\n      add\n        /* \"#utility.yul\":13174:13193   */\n      swap1\n      pop\n        /* \"#utility.yul\":12833:13199   */\n      swap2\n      swap1\n      pop\n      jump\t// out\n        /* \"#utility.yul\":13205:13624   */\n    tag_188:\n        /* \"#utility.yul\":13371:13375   */\n      0x00\n        /* \"#utility.yul\":13409:13411   */\n      0x20\n        /* \"#utility.yul\":13398:13407   */\n      dup3\n        /* \"#utility.yul\":13394:13412   */\n      add\n        /* \"#utility.yul\":13386:13412   */\n      swap1\n      pop\n        /* \"#utility.yul\":13458:13467   */\n      dup2\n        /* \"#utility.yul\":13452:13456   */\n      dup2\n        /* \"#utility.yul\":13448:13468   */\n      sub\n        /* \"#utility.yul\":13444:13445   */\n      0x00\n        /* \"#utility.yul\":13433:13442   */\n      dup4\n        /* \"#utility.yul\":13429:13446   */\n      add\n        /* \"#utility.yul\":13422:13469   */\n      mstore\n        /* \"#utility.yul\":13486:13617   */\n      tag_532\n        /* \"#utility.yul\":13612:13616   */\n      dup2\n        /* \"#utility.yul\":13486:13617   */\n      tag_357\n      jump\t// in\n    tag_532:\n        /* \"#utility.yul\":13478:13617   */\n      swap1\n      pop\n        /* \"#utility.yul\":13205:13624   */\n      swap2\n      swap1\n      pop\n      jump\t// out\n        /* \"#utility.yul\":13630:13748   */\n    tag_358:\n        /* \"#utility.yul\":13717:13741   */\n      tag_534\n        /* \"#utility.yul\":13735:13740   */\n      dup2\n        /* \"#utility.yul\":13717:13741   */\n      tag_332\n      jump\t// in\n    tag_534:\n        /* \"#utility.yul\":13712:13715   */\n      dup3\n        /* \"#utility.yul\":13705:13742   */\n      mstore\n        /* \"#utility.yul\":13630:13748   */\n      pop\n      pop\n      jump\t// out\n        /* \"#utility.yul\":13754:14529   */\n    tag_192:\n        /* \"#utility.yul\":13987:13991   */\n      0x00\n        /* \"#utility.yul\":14025:14028   */\n      0xc0\n        /* \"#utility.yul\":14014:14023   */\n      dup3\n        /* \"#utility.yul\":14010:14029   */\n      add\n        /* \"#utility.yul\":14002:14029   */\n      swap1\n      pop\n        /* \"#utility.yul\":14039:14110   */\n      tag_536\n        /* \"#utility.yul\":14107:14108   */\n      0x00\n        /* \"#utility.yul\":14096:14105   */\n      dup4\n        /* \"#utility.yul\":14092:14109   */\n      add\n        /* \"#utility.yul\":14083:14089   */\n      dup10\n        /* \"#utility.yul\":14039:14110   */\n      tag_344\n      jump\t// in\n    tag_536:\n        /* \"#utility.yul\":14120:14192   */\n      tag_537\n        /* \"#utility.yul\":14188:14190   */\n      0x20\n        /* \"#utility.yul\":14177:14186   */\n      dup4\n        /* \"#utility.yul\":14173:14191   */\n      add\n        /* \"#utility.yul\":14164:14170   */\n      dup9\n        /* \"#utility.yul\":14120:14192   */\n      tag_358\n      jump\t// in\n    tag_537:\n        /* \"#utility.yul\":14202:14274   */\n      tag_538\n        /* \"#utility.yul\":14270:14272   */\n      0x40\n        /* \"#utility.yul\":14259:14268   */\n      dup4\n        /* \"#utility.yul\":14255:14273   */\n      add\n        /* \"#utility.yul\":14246:14252   */\n      dup8\n        /* \"#utility.yul\":14202:14274   */\n      tag_358\n      jump\t// in\n    tag_538:\n        /* \"#utility.yul\":14284:14356   */\n      tag_539\n        /* \"#utility.yul\":14352:14354   */\n      0x60\n        /* \"#utility.yul\":14341:14350   */\n      dup4\n        /* \"#utility.yul\":14337:14355   */\n      add\n        /* \"#utility.yul\":14328:14334   */\n      dup7\n        /* \"#utility.yul\":14284:14356   */\n      tag_340\n      jump\t// in\n    tag_539:\n        /* \"#utility.yul\":14366:14439   */\n      tag_540\n        /* \"#utility.yul\":14434:14437   */\n      0x80\n        /* \"#utility.yul\":14423:14432   */\n      dup4\n        /* \"#utility.yul\":14419:14438   */\n      add\n        /* \"#utility.yul\":14410:14416   */\n      dup6\n        /* \"#utility.yul\":14366:14439   */\n      tag_340\n      jump\t// in\n    tag_540:\n        /* \"#utility.yul\":14449:14522   */\n      tag_541\n        /* \"#utility.yul\":14517:14520   */\n      0xa0\n        /* \"#utility.yul\":14506:14515   */\n      dup4\n        /* \"#utility.yul\":14502:14521   */\n      add\n        /* \"#utility.yul\":14493:14499   */\n      dup5\n        /* \"#utility.yul\":14449:14522   */\n      tag_340\n      jump\t// in\n    tag_541:\n        /* \"#utility.yul\":13754:14529   */\n      swap8\n      swap7\n      pop\n      pop\n      pop\n      pop\n      pop\n      pop\n      pop\n      jump\t// out\n        /* \"#utility.yul\":14535:14715   */\n    tag_359:\n        /* \"#utility.yul\":14675:14707   */\n      0x45524332305065726d69743a20696e76616c6964207369676e61747572650000\n        /* \"#utility.yul\":14671:14672   */\n      0x00\n        /* \"#utility.yul\":14663:14669   */\n      dup3\n        /* \"#utility.yul\":14659:14673   */\n      add\n        /* \"#utility.yul\":14652:14708   */\n      mstore\n        /* \"#utility.yul\":14535:14715   */\n      pop\n      jump\t// out\n        /* \"#utility.yul\":14721:15087   */\n    tag_360:\n        /* \"#utility.yul\":14863:14866   */\n      0x00\n        /* \"#utility.yul\":14884:14951   */\n      tag_544\n        /* \"#utility.yul\":14948:14950   */\n      0x1e\n        /* \"#utility.yul\":14943:14946   */\n      dup4\n        /* \"#utility.yul\":14884:14951   */\n      tag_324\n      jump\t// in\n    tag_544:\n        /* \"#utility.yul\":14877:14951   */\n      swap2\n      pop\n        /* \"#utility.yul\":14960:15053   */\n      tag_545\n        /* \"#utility.yul\":15049:15052   */\n      dup3\n        /* \"#utility.yul\":14960:15053   */\n      tag_359\n      jump\t// in\n    tag_545:\n        /* \"#utility.yul\":15078:15080   */\n      0x20\n        /* \"#utility.yul\":15073:15076   */\n      dup3\n        /* \"#utility.yul\":15069:15081   */\n      add\n        /* \"#utility.yul\":15062:15081   */\n      swap1\n      pop\n        /* \"#utility.yul\":14721:15087   */\n      swap2\n      swap1\n      pop\n      jump\t// out\n        /* \"#utility.yul\":15093:15512   */\n    tag_199:\n        /* \"#utility.yul\":15259:15263   */\n      0x00\n        /* \"#utility.yul\":15297:15299   */\n      0x20\n        /* \"#utility.yul\":15286:15295   */\n      dup3\n        /* \"#utility.yul\":15282:15300   */\n      add\n        /* \"#utility.yul\":15274:15300   */\n      swap1\n      pop\n        /* \"#utility.yul\":15346:15355   */\n      dup2\n        /* \"#utility.yul\":15340:15344   */\n      dup2\n        /* \"#utility.yul\":15336:15356   */\n      sub\n        /* \"#utility.yul\":15332:15333   */\n      0x00\n        /* \"#utility.yul\":15321:15330   */\n      dup4\n        /* \"#utility.yul\":15317:15334   */\n      add\n        /* \"#utility.yul\":15310:15357   */\n      mstore\n        /* \"#utility.yul\":15374:15505   */\n      tag_547\n        /* \"#utility.yul\":15500:15504   */\n      dup2\n        /* \"#utility.yul\":15374:15505   */\n      tag_360\n      jump\t// in\n    tag_547:\n        /* \"#utility.yul\":15366:15505   */\n      swap1\n      pop\n        /* \"#utility.yul\":15093:15512   */\n      swap2\n      swap1\n      pop\n      jump\t// out\n        /* \"#utility.yul\":15518:15741   */\n    tag_361:\n        /* \"#utility.yul\":15658:15692   */\n      0x45524332303a20617070726f76652066726f6d20746865207a65726f20616464\n        /* \"#utility.yul\":15654:15655   */\n      0x00\n        /* \"#utility.yul\":15646:15652   */\n      dup3\n        /* \"#utility.yul\":15642:15656   */\n      add\n        /* \"#utility.yul\":15635:15693   */\n      mstore\n        /* \"#utility.yul\":15727:15733   */\n      0x7265737300000000000000000000000000000000000000000000000000000000\n        /* \"#utility.yul\":15722:15724   */\n      0x20\n        /* \"#utility.yul\":15714:15720   */\n      dup3\n        /* \"#utility.yul\":15710:15725   */\n      add\n        /* \"#utility.yul\":15703:15734   */\n      mstore\n        /* \"#utility.yul\":15518:15741   */\n      pop\n      jump\t// out\n        /* \"#utility.yul\":15747:16113   */\n    tag_362:\n        /* \"#utility.yul\":15889:15892   */\n      0x00\n        /* \"#utility.yul\":15910:15977   */\n      tag_550\n        /* \"#utility.yul\":15974:15976   */\n      0x24\n        /* \"#utility.yul\":15969:15972   */\n      dup4\n        /* \"#utility.yul\":15910:15977   */\n      tag_324\n      jump\t// in\n    tag_550:\n        /* \"#utility.yul\":15903:15977   */\n      swap2\n      pop\n        /* \"#utility.yul\":15986:16079   */\n      tag_551\n        /* \"#utility.yul\":16075:16078   */\n      dup3\n        /* \"#utility.yul\":15986:16079   */\n      tag_361\n      jump\t// in\n    tag_551:\n        /* \"#utility.yul\":16104:16106   */\n      0x40\n        /* \"#utility.yul\":16099:16102   */\n      dup3\n        /* \"#utility.yul\":16095:16107   */\n      add\n        /* \"#utility.yul\":16088:16107   */\n      swap1\n      pop\n        /* \"#utility.yul\":15747:16113   */\n      swap2\n      swap1\n      pop\n      jump\t// out\n        /* \"#utility.yul\":16119:16538   */\n    tag_209:\n        /* \"#utility.yul\":16285:16289   */\n      0x00\n        /* \"#utility.yul\":16323:16325   */\n      0x20\n        /* \"#utility.yul\":16312:16321   */\n      dup3\n        /* \"#utility.yul\":16308:16326   */\n      add\n        /* \"#utility.yul\":16300:16326   */\n      swap1\n      pop\n        /* \"#utility.yul\":16372:16381   */\n      dup2\n        /* \"#utility.yul\":16366:16370   */\n      dup2\n        /* \"#utility.yul\":16362:16382   */\n      sub\n        /* \"#utility.yul\":16358:16359   */\n      0x00\n        /* \"#utility.yul\":16347:16356   */\n      dup4\n        /* \"#utility.yul\":16343:16360   */\n      add\n        /* \"#utility.yul\":16336:16383   */\n      mstore\n        /* \"#utility.yul\":16400:16531   */\n      tag_553\n        /* \"#utility.yul\":16526:16530   */\n      dup2\n        /* \"#utility.yul\":16400:16531   */\n      tag_362\n      jump\t// in\n    tag_553:\n        /* \"#utility.yul\":16392:16531   */\n      swap1\n      pop\n        /* \"#utility.yul\":16119:16538   */\n      swap2\n      swap1\n      pop\n      jump\t// out\n        /* \"#utility.yul\":16544:16765   */\n    tag_363:\n        /* \"#utility.yul\":16684:16718   */\n      0x45524332303a20617070726f766520746f20746865207a65726f206164647265\n        /* \"#utility.yul\":16680:16681   */\n      0x00\n        /* \"#utility.yul\":16672:16678   */\n      dup3\n        /* \"#utility.yul\":16668:16682   */\n      add\n        /* \"#utility.yul\":16661:16719   */\n      mstore\n        /* \"#utility.yul\":16753:16757   */\n      0x7373000000000000000000000000000000000000000000000000000000000000\n        /* \"#utility.yul\":16748:16750   */\n      0x20\n        /* \"#utility.yul\":16740:16746   */\n      dup3\n        /* \"#utility.yul\":16736:16751   */\n      add\n        /* \"#utility.yul\":16729:16758   */\n      mstore\n        /* \"#utility.yul\":16544:16765   */\n      pop\n      jump\t// out\n        /* \"#utility.yul\":16771:17137   */\n    tag_364:\n        /* \"#utility.yul\":16913:16916   */\n      0x00\n        /* \"#utility.yul\":16934:17001   */\n      tag_556\n        /* \"#utility.yul\":16998:17000   */\n      0x22\n        /* \"#utility.yul\":16993:16996   */\n      dup4\n        /* \"#utility.yul\":16934:17001   */\n      tag_324\n      jump\t// in\n    tag_556:\n        /* \"#utility.yul\":16927:17001   */\n      swap2\n      pop\n        /* \"#utility.yul\":17010:17103   */\n      tag_557\n        /* \"#utility.yul\":17099:17102   */\n      dup3\n        /* \"#utility.yul\":17010:17103   */\n      tag_363\n      jump\t// in\n    tag_557:\n        /* \"#utility.yul\":17128:17130   */\n      0x40\n        /* \"#utility.yul\":17123:17126   */\n      dup3\n        /* \"#utility.yul\":17119:17131   */\n      add\n        /* \"#utility.yul\":17112:17131   */\n      swap1\n      pop\n        /* \"#utility.yul\":16771:17137   */\n      swap2\n      swap1\n      pop\n      jump\t// out\n        /* \"#utility.yul\":17143:17562   */\n    tag_212:\n        /* \"#utility.yul\":17309:17313   */\n      0x00\n        /* \"#utility.yul\":17347:17349   */\n      0x20\n        /* \"#utility.yul\":17336:17345   */\n      dup3\n        /* \"#utility.yul\":17332:17350   */\n      add\n        /* \"#utility.yul\":17324:17350   */\n      swap1\n      pop\n        /* \"#utility.yul\":17396:17405   */\n      dup2\n        /* \"#utility.yul\":17390:17394   */\n      dup2\n        /* \"#utility.yul\":17386:17406   */\n      sub\n        /* \"#utility.yul\":17382:17383   */\n      0x00\n        /* \"#utility.yul\":17371:17380   */\n      dup4\n        /* \"#utility.yul\":17367:17384   */\n      add\n        /* \"#utility.yul\":17360:17407   */\n      mstore\n        /* \"#utility.yul\":17424:17555   */\n      tag_559\n        /* \"#utility.yul\":17550:17554   */\n      dup2\n        /* \"#utility.yul\":17424:17555   */\n      tag_364\n      jump\t// in\n    tag_559:\n        /* \"#utility.yul\":17416:17555   */\n      swap1\n      pop\n        /* \"#utility.yul\":17143:17562   */\n      swap2\n      swap1\n      pop\n      jump\t// out\n        /* \"#utility.yul\":17568:17747   */\n    tag_365:\n        /* \"#utility.yul\":17708:17739   */\n      0x45524332303a20696e73756666696369656e7420616c6c6f77616e6365000000\n        /* \"#utility.yul\":17704:17705   */\n      0x00\n        /* \"#utility.yul\":17696:17702   */\n      dup3\n        /* \"#utility.yul\":17692:17706   */\n      add\n        /* \"#utility.yul\":17685:17740   */\n      mstore\n        /* \"#utility.yul\":17568:17747   */\n      pop\n      jump\t// out\n        /* \"#utility.yul\":17753:18119   */\n    tag_366:\n        /* \"#utility.yul\":17895:17898   */\n      0x00\n        /* \"#utility.yul\":17916:17983   */\n      tag_562\n        /* \"#utility.yul\":17980:17982   */\n      0x1d\n        /* \"#utility.yul\":17975:17978   */\n      dup4\n        /* \"#utility.yul\":17916:17983   */\n      tag_324\n      jump\t// in\n    tag_562:\n        /* \"#utility.yul\":17909:17983   */\n      swap2\n      pop\n        /* \"#utility.yul\":17992:18085   */\n      tag_563\n        /* \"#utility.yul\":18081:18084   */\n      dup3\n        /* \"#utility.yul\":17992:18085   */\n      tag_365\n      jump\t// in\n    tag_563:\n        /* \"#utility.yul\":18110:18112   */\n      0x20\n        /* \"#utility.yul\":18105:18108   */\n      dup3\n        /* \"#utility.yul\":18101:18113   */\n      add\n        /* \"#utility.yul\":18094:18113   */\n      swap1\n      pop\n        /* \"#utility.yul\":17753:18119   */\n      swap2\n      swap1\n      pop\n      jump\t// out\n        /* \"#utility.yul\":18125:18544   */\n    tag_219:\n        /* \"#utility.yul\":18291:18295   */\n      0x00\n        /* \"#utility.yul\":18329:18331   */\n      0x20\n        /* \"#utility.yul\":18318:18327   */\n      dup3\n        /* \"#utility.yul\":18314:18332   */\n      add\n        /* \"#utility.yul\":18306:18332   */\n      swap1\n      pop\n        /* \"#utility.yul\":18378:18387   */\n      dup2\n        /* \"#utility.yul\":18372:18376   */\n      dup2\n        /* \"#utility.yul\":18368:18388   */\n      sub\n        /* \"#utility.yul\":18364:18365   */\n      0x00\n        /* \"#utility.yul\":18353:18362   */\n      dup4\n        /* \"#utility.yul\":18349:18366   */\n      add\n        /* \"#utility.yul\":18342:18389   */\n      mstore\n        /* \"#utility.yul\":18406:18537   */\n      tag_565\n        /* \"#utility.yul\":18532:18536   */\n      dup2\n        /* \"#utility.yul\":18406:18537   */\n      tag_366\n      jump\t// in\n    tag_565:\n        /* \"#utility.yul\":18398:18537   */\n      swap1\n      pop\n        /* \"#utility.yul\":18125:18544   */\n      swap2\n      swap1\n      pop\n      jump\t// out\n        /* \"#utility.yul\":18550:18774   */\n    tag_367:\n        /* \"#utility.yul\":18690:18724   */\n      0x45524332303a207472616e736665722066726f6d20746865207a65726f206164\n        /* \"#utility.yul\":18686:18687   */\n      0x00\n        /* \"#utility.yul\":18678:18684   */\n      dup3\n        /* \"#utility.yul\":18674:18688   */\n      add\n        /* \"#utility.yul\":18667:18725   */\n      mstore\n        /* \"#utility.yul\":18759:18766   */\n      0x6472657373000000000000000000000000000000000000000000000000000000\n        /* \"#utility.yul\":18754:18756   */\n      0x20\n        /* \"#utility.yul\":18746:18752   */\n      dup3\n        /* \"#utility.yul\":18742:18757   */\n      add\n        /* \"#utility.yul\":18735:18767   */\n      mstore\n        /* \"#utility.yul\":18550:18774   */\n      pop\n      jump\t// out\n        /* \"#utility.yul\":18780:19146   */\n    tag_368:\n        /* \"#utility.yul\":18922:18925   */\n      0x00\n        /* \"#utility.yul\":18943:19010   */\n      tag_568\n        /* \"#utility.yul\":19007:19009   */\n      0x25\n        /* \"#utility.yul\":19002:19005   */\n      dup4\n        /* \"#utility.yul\":18943:19010   */\n      tag_324\n      jump\t// in\n    tag_568:\n        /* \"#utility.yul\":18936:19010   */\n      swap2\n      pop\n        /* \"#utility.yul\":19019:19112   */\n      tag_569\n        /* \"#utility.yul\":19108:19111   */\n      dup3\n        /* \"#utility.yul\":19019:19112   */\n      tag_367\n      jump\t// in\n    tag_569:\n        /* \"#utility.yul\":19137:19139   */\n      0x40\n        /* \"#utility.yul\":19132:19135   */\n      dup3\n        /* \"#utility.yul\":19128:19140   */\n      add\n        /* \"#utility.yul\":19121:19140   */\n      swap1\n      pop\n        /* \"#utility.yul\":18780:19146   */\n      swap2\n      swap1\n      pop\n      jump\t// out\n        /* \"#utility.yul\":19152:19571   */\n    tag_224:\n        /* \"#utility.yul\":19318:19322   */\n      0x00\n        /* \"#utility.yul\":19356:19358   */\n      0x20\n        /* \"#utility.yul\":19345:19354   */\n      dup3\n        /* \"#utility.yul\":19341:19359   */\n      add\n        /* \"#utility.yul\":19333:19359   */\n      swap1\n      pop\n        /* \"#utility.yul\":19405:19414   */\n      dup2\n        /* \"#utility.yul\":19399:19403   */\n      dup2\n        /* \"#utility.yul\":19395:19415   */\n      sub\n        /* \"#utility.yul\":19391:19392   */\n      0x00\n        /* \"#utility.yul\":19380:19389   */\n      dup4\n        /* \"#utility.yul\":19376:19393   */\n      add\n        /* \"#utility.yul\":19369:19416   */\n      mstore\n        /* \"#utility.yul\":19433:19564   */\n      tag_571\n        /* \"#utility.yul\":19559:19563   */\n      dup2\n        /* \"#utility.yul\":19433:19564   */\n      tag_368\n      jump\t// in\n    tag_571:\n        /* \"#utility.yul\":19425:19564   */\n      swap1\n      pop\n        /* \"#utility.yul\":19152:19571   */\n      swap2\n      swap1\n      pop\n      jump\t// out\n        /* \"#utility.yul\":19577:19799   */\n    tag_369:\n        /* \"#utility.yul\":19717:19751   */\n      0x45524332303a207472616e7366657220746f20746865207a65726f2061646472\n        /* \"#utility.yul\":19713:19714   */\n      0x00\n        /* \"#utility.yul\":19705:19711   */\n      dup3\n        /* \"#utility.yul\":19701:19715   */\n      add\n        /* \"#utility.yul\":19694:19752   */\n      mstore\n        /* \"#utility.yul\":19786:19791   */\n      0x6573730000000000000000000000000000000000000000000000000000000000\n        /* \"#utility.yul\":19781:19783   */\n      0x20\n        /* \"#utility.yul\":19773:19779   */\n      dup3\n        /* \"#utility.yul\":19769:19784   */\n      add\n        /* \"#utility.yul\":19762:19792   */\n      mstore\n        /* \"#utility.yul\":19577:19799   */\n      pop\n      jump\t// out\n        /* \"#utility.yul\":19805:20171   */\n    tag_370:\n        /* \"#utility.yul\":19947:19950   */\n      0x00\n        /* \"#utility.yul\":19968:20035   */\n      tag_574\n        /* \"#utility.yul\":20032:20034   */\n      0x23\n        /* \"#utility.yul\":20027:20030   */\n      dup4\n        /* \"#utility.yul\":19968:20035   */\n      tag_324\n      jump\t// in\n    tag_574:\n        /* \"#utility.yul\":19961:20035   */\n      swap2\n      pop\n        /* \"#utility.yul\":20044:20137   */\n      tag_575\n        /* \"#utility.yul\":20133:20136   */\n      dup3\n        /* \"#utility.yul\":20044:20137   */\n      tag_369\n      jump\t// in\n    tag_575:\n        /* \"#utility.yul\":20162:20164   */\n      0x40\n        /* \"#utility.yul\":20157:20160   */\n      dup3\n        /* \"#utility.yul\":20153:20165   */\n      add\n        /* \"#utility.yul\":20146:20165   */\n      swap1\n      pop\n        /* \"#utility.yul\":19805:20171   */\n      swap2\n      swap1\n      pop\n      jump\t// out\n        /* \"#utility.yul\":20177:20596   */\n    tag_227:\n        /* \"#utility.yul\":20343:20347   */\n      0x00\n        /* \"#utility.yul\":20381:20383   */\n      0x20\n        /* \"#utility.yul\":20370:20379   */\n      dup3\n        /* \"#utility.yul\":20366:20384   */\n      add\n        /* \"#utility.yul\":20358:20384   */\n      swap1\n      pop\n        /* \"#utility.yul\":20430:20439   */\n      dup2\n        /* \"#utility.yul\":20424:20428   */\n      dup2\n        /* \"#utility.yul\":20420:20440   */\n      sub\n        /* \"#utility.yul\":20416:20417   */\n      0x00\n        /* \"#utility.yul\":20405:20414   */\n      dup4\n        /* \"#utility.yul\":20401:20418   */\n      add\n        /* \"#utility.yul\":20394:20441   */\n      mstore\n        /* \"#utility.yul\":20458:20589   */\n      tag_577\n        /* \"#utility.yul\":20584:20588   */\n      dup2\n        /* \"#utility.yul\":20458:20589   */\n      tag_370\n      jump\t// in\n    tag_577:\n        /* \"#utility.yul\":20450:20589   */\n      swap1\n      pop\n        /* \"#utility.yul\":20177:20596   */\n      swap2\n      swap1\n      pop\n      jump\t// out\n        /* \"#utility.yul\":20602:20827   */\n    tag_371:\n        /* \"#utility.yul\":20742:20776   */\n      0x45524332303a207472616e7366657220616d6f756e7420657863656564732062\n        /* \"#utility.yul\":20738:20739   */\n      0x00\n        /* \"#utility.yul\":20730:20736   */\n      dup3\n        /* \"#utility.yul\":20726:20740   */\n      add\n        /* \"#utility.yul\":20719:20777   */\n      mstore\n        /* \"#utility.yul\":20811:20819   */\n      0x616c616e63650000000000000000000000000000000000000000000000000000\n        /* \"#utility.yul\":20806:20808   */\n      0x20\n        /* \"#utility.yul\":20798:20804   */\n      dup3\n        /* \"#utility.yul\":20794:20809   */\n      add\n        /* \"#utility.yul\":20787:20820   */\n      mstore\n        /* \"#utility.yul\":20602:20827   */\n      pop\n      jump\t// out\n        /* \"#utility.yul\":20833:21199   */\n    tag_372:\n        /* \"#utility.yul\":20975:20978   */\n      0x00\n        /* \"#utility.yul\":20996:21063   */\n      tag_580\n        /* \"#utility.yul\":21060:21062   */\n      0x26\n        /* \"#utility.yul\":21055:21058   */\n      dup4\n        /* \"#utility.yul\":20996:21063   */\n      tag_324\n      jump\t// in\n    tag_580:\n        /* \"#utility.yul\":20989:21063   */\n      swap2\n      pop\n        /* \"#utility.yul\":21072:21165   */\n      tag_581\n        /* \"#utility.yul\":21161:21164   */\n      dup3\n        /* \"#utility.yul\":21072:21165   */\n      tag_371\n      jump\t// in\n    tag_581:\n        /* \"#utility.yul\":21190:21192   */\n      0x40\n        /* \"#utility.yul\":21185:21188   */\n      dup3\n        /* \"#utility.yul\":21181:21193   */\n      add\n        /* \"#utility.yul\":21174:21193   */\n      swap1\n      pop\n        /* \"#utility.yul\":20833:21199   */\n      swap2\n      swap1\n      pop\n      jump\t// out\n        /* \"#utility.yul\":21205:21624   */\n    tag_232:\n        /* \"#utility.yul\":21371:21375   */\n      0x00\n        /* \"#utility.yul\":21409:21411   */\n      0x20\n        /* \"#utility.yul\":21398:21407   */\n      dup3\n        /* \"#utility.yul\":21394:21412   */\n      add\n        /* \"#utility.yul\":21386:21412   */\n      swap1\n      pop\n        /* \"#utility.yul\":21458:21467   */\n      dup2\n        /* \"#utility.yul\":21452:21456   */\n      dup2\n        /* \"#utility.yul\":21448:21468   */\n      sub\n        /* \"#utility.yul\":21444:21445   */\n      0x00\n        /* \"#utility.yul\":21433:21442   */\n      dup4\n        /* \"#utility.yul\":21429:21446   */\n      add\n        /* \"#utility.yul\":21422:21469   */\n      mstore\n        /* \"#utility.yul\":21486:21617   */\n      tag_583\n        /* \"#utility.yul\":21612:21616   */\n      dup2\n        /* \"#utility.yul\":21486:21617   */\n      tag_372\n      jump\t// in\n    tag_583:\n        /* \"#utility.yul\":21478:21617   */\n      swap1\n      pop\n        /* \"#utility.yul\":21205:21624   */\n      swap2\n      swap1\n      pop\n      jump\t// out\n        /* \"#utility.yul\":21630:21811   */\n    tag_373:\n        /* \"#utility.yul\":21770:21803   */\n      0x45524332303a206d696e7420746f20746865207a65726f206164647265737300\n        /* \"#utility.yul\":21766:21767   */\n      0x00\n        /* \"#utility.yul\":21758:21764   */\n      dup3\n        /* \"#utility.yul\":21754:21768   */\n      add\n        /* \"#utility.yul\":21747:21804   */\n      mstore\n        /* \"#utility.yul\":21630:21811   */\n      pop\n      jump\t// out\n        /* \"#utility.yul\":21817:22183   */\n    tag_374:\n        /* \"#utility.yul\":21959:21962   */\n      0x00\n        /* \"#utility.yul\":21980:22047   */\n      tag_586\n        /* \"#utility.yul\":22044:22046   */\n      0x1f\n        /* \"#utility.yul\":22039:22042   */\n      dup4\n        /* \"#utility.yul\":21980:22047   */\n      tag_324\n      jump\t// in\n    tag_586:\n        /* \"#utility.yul\":21973:22047   */\n      swap2\n      pop\n        /* \"#utility.yul\":22056:22149   */\n      tag_587\n        /* \"#utility.yul\":22145:22148   */\n      dup3\n        /* \"#utility.yul\":22056:22149   */\n      tag_373\n      jump\t// in\n    tag_587:\n        /* \"#utility.yul\":22174:22176   */\n      0x20\n        /* \"#utility.yul\":22169:22172   */\n      dup3\n        /* \"#utility.yul\":22165:22177   */\n      add\n        /* \"#utility.yul\":22158:22177   */\n      swap1\n      pop\n        /* \"#utility.yul\":21817:22183   */\n      swap2\n      swap1\n      pop\n      jump\t// out\n        /* \"#utility.yul\":22189:22608   */\n    tag_246:\n        /* \"#utility.yul\":22355:22359   */\n      0x00\n        /* \"#utility.yul\":22393:22395   */\n      0x20\n        /* \"#utility.yul\":22382:22391   */\n      dup3\n        /* \"#utility.yul\":22378:22396   */\n      add\n        /* \"#utility.yul\":22370:22396   */\n      swap1\n      pop\n        /* \"#utility.yul\":22442:22451   */\n      dup2\n        /* \"#utility.yul\":22436:22440   */\n      dup2\n        /* \"#utility.yul\":22432:22452   */\n      sub\n        /* \"#utility.yul\":22428:22429   */\n      0x00\n        /* \"#utility.yul\":22417:22426   */\n      dup4\n        /* \"#utility.yul\":22413:22430   */\n      add\n        /* \"#utility.yul\":22406:22453   */\n      mstore\n        /* \"#utility.yul\":22470:22601   */\n      tag_589\n        /* \"#utility.yul\":22596:22600   */\n      dup2\n        /* \"#utility.yul\":22470:22601   */\n      tag_374\n      jump\t// in\n    tag_589:\n        /* \"#utility.yul\":22462:22601   */\n      swap1\n      pop\n        /* \"#utility.yul\":22189:22608   */\n      swap2\n      swap1\n      pop\n      jump\t// out\n        /* \"#utility.yul\":22614:23278   */\n    tag_270:\n        /* \"#utility.yul\":22819:22823   */\n      0x00\n        /* \"#utility.yul\":22857:22860   */\n      0xa0\n        /* \"#utility.yul\":22846:22855   */\n      dup3\n        /* \"#utility.yul\":22842:22861   */\n      add\n        /* \"#utility.yul\":22834:22861   */\n      swap1\n      pop\n        /* \"#utility.yul\":22871:22942   */\n      tag_591\n        /* \"#utility.yul\":22939:22940   */\n      0x00\n        /* \"#utility.yul\":22928:22937   */\n      dup4\n        /* \"#utility.yul\":22924:22941   */\n      add\n        /* \"#utility.yul\":22915:22921   */\n      dup9\n        /* \"#utility.yul\":22871:22942   */\n      tag_344\n      jump\t// in\n    tag_591:\n        /* \"#utility.yul\":22952:23024   */\n      tag_592\n        /* \"#utility.yul\":23020:23022   */\n      0x20\n        /* \"#utility.yul\":23009:23018   */\n      dup4\n        /* \"#utility.yul\":23005:23023   */\n      add\n        /* \"#utility.yul\":22996:23002   */\n      dup8\n        /* \"#utility.yul\":22952:23024   */\n      tag_344\n      jump\t// in\n    tag_592:\n        /* \"#utility.yul\":23034:23106   */\n      tag_593\n        /* \"#utility.yul\":23102:23104   */\n      0x40\n        /* \"#utility.yul\":23091:23100   */\n      dup4\n        /* \"#utility.yul\":23087:23105   */\n      add\n        /* \"#utility.yul\":23078:23084   */\n      dup7\n        /* \"#utility.yul\":23034:23106   */\n      tag_344\n      jump\t// in\n    tag_593:\n        /* \"#utility.yul\":23116:23188   */\n      tag_594\n        /* \"#utility.yul\":23184:23186   */\n      0x60\n        /* \"#utility.yul\":23173:23182   */\n      dup4\n        /* \"#utility.yul\":23169:23187   */\n      add\n        /* \"#utility.yul\":23160:23166   */\n      dup6\n        /* \"#utility.yul\":23116:23188   */\n      tag_340\n      jump\t// in\n    tag_594:\n        /* \"#utility.yul\":23198:23271   */\n      tag_595\n        /* \"#utility.yul\":23266:23269   */\n      0x80\n        /* \"#utility.yul\":23255:23264   */\n      dup4\n        /* \"#utility.yul\":23251:23270   */\n      add\n        /* \"#utility.yul\":23242:23248   */\n      dup5\n        /* \"#utility.yul\":23198:23271   */\n      tag_358\n      jump\t// in\n    tag_595:\n        /* \"#utility.yul\":22614:23278   */\n      swap7\n      swap6\n      pop\n      pop\n      pop\n      pop\n      pop\n      pop\n      jump\t// out\n        /* \"#utility.yul\":23284:23432   */\n    tag_375:\n        /* \"#utility.yul\":23386:23397   */\n      0x00\n        /* \"#utility.yul\":23423:23426   */\n      dup2\n        /* \"#utility.yul\":23408:23426   */\n      swap1\n      pop\n        /* \"#utility.yul\":23284:23432   */\n      swap3\n      swap2\n      pop\n      pop\n      jump\t// out\n        /* \"#utility.yul\":23438:23652   */\n    tag_376:\n        /* \"#utility.yul\":23578:23644   */\n      0x1901000000000000000000000000000000000000000000000000000000000000\n        /* \"#utility.yul\":23574:23575   */\n      0x00\n        /* \"#utility.yul\":23566:23572   */\n      dup3\n        /* \"#utility.yul\":23562:23576   */\n      add\n        /* \"#utility.yul\":23555:23645   */\n      mstore\n        /* \"#utility.yul\":23438:23652   */\n      pop\n      jump\t// out\n        /* \"#utility.yul\":23658:24058   */\n    tag_377:\n        /* \"#utility.yul\":23818:23821   */\n      0x00\n        /* \"#utility.yul\":23839:23923   */\n      tag_599\n        /* \"#utility.yul\":23921:23922   */\n      0x02\n        /* \"#utility.yul\":23916:23919   */\n      dup4\n        /* \"#utility.yul\":23839:23923   */\n      tag_375\n      jump\t// in\n    tag_599:\n        /* \"#utility.yul\":23832:23923   */\n      swap2\n      pop\n        /* \"#utility.yul\":23932:24025   */\n      tag_600\n        /* \"#utility.yul\":24021:24024   */\n      dup3\n        /* \"#utility.yul\":23932:24025   */\n      tag_376\n      jump\t// in\n    tag_600:\n        /* \"#utility.yul\":24050:24051   */\n      0x02\n        /* \"#utility.yul\":24045:24048   */\n      dup3\n        /* \"#utility.yul\":24041:24052   */\n      add\n        /* \"#utility.yul\":24034:24052   */\n      swap1\n      pop\n        /* \"#utility.yul\":23658:24058   */\n      swap2\n      swap1\n      pop\n      jump\t// out\n        /* \"#utility.yul\":24064:24143   */\n    tag_378:\n        /* \"#utility.yul\":24103:24110   */\n      0x00\n        /* \"#utility.yul\":24132:24137   */\n      dup2\n        /* \"#utility.yul\":24121:24137   */\n      swap1\n      pop\n        /* \"#utility.yul\":24064:24143   */\n      swap2\n      swap1\n      pop\n      jump\t// out\n        /* \"#utility.yul\":24149:24306   */\n    tag_379:\n        /* \"#utility.yul\":24254:24299   */\n      tag_603\n        /* \"#utility.yul\":24274:24298   */\n      tag_604\n        /* \"#utility.yul\":24292:24297   */\n      dup3\n        /* \"#utility.yul\":24274:24298   */\n      tag_343\n      jump\t// in\n    tag_604:\n        /* \"#utility.yul\":24254:24299   */\n      tag_378\n      jump\t// in\n    tag_603:\n        /* \"#utility.yul\":24249:24252   */\n      dup3\n        /* \"#utility.yul\":24242:24300   */\n      mstore\n        /* \"#utility.yul\":24149:24306   */\n      pop\n      pop\n      jump\t// out\n        /* \"#utility.yul\":24312:24975   */\n    tag_274:\n        /* \"#utility.yul\":24553:24556   */\n      0x00\n        /* \"#utility.yul\":24575:24723   */\n      tag_606\n        /* \"#utility.yul\":24719:24722   */\n      dup3\n        /* \"#utility.yul\":24575:24723   */\n      tag_377\n      jump\t// in\n    tag_606:\n        /* \"#utility.yul\":24568:24723   */\n      swap2\n      pop\n        /* \"#utility.yul\":24733:24808   */\n      tag_607\n        /* \"#utility.yul\":24804:24807   */\n      dup3\n        /* \"#utility.yul\":24795:24801   */\n      dup6\n        /* \"#utility.yul\":24733:24808   */\n      tag_379\n      jump\t// in\n    tag_607:\n        /* \"#utility.yul\":24833:24835   */\n      0x20\n        /* \"#utility.yul\":24828:24831   */\n      dup3\n        /* \"#utility.yul\":24824:24836   */\n      add\n        /* \"#utility.yul\":24817:24836   */\n      swap2\n      pop\n        /* \"#utility.yul\":24846:24921   */\n      tag_608\n        /* \"#utility.yul\":24917:24920   */\n      dup3\n        /* \"#utility.yul\":24908:24914   */\n      dup5\n        /* \"#utility.yul\":24846:24921   */\n      tag_379\n      jump\t// in\n    tag_608:\n        /* \"#utility.yul\":24946:24948   */\n      0x20\n        /* \"#utility.yul\":24941:24944   */\n      dup3\n        /* \"#utility.yul\":24937:24949   */\n      add\n        /* \"#utility.yul\":24930:24949   */\n      swap2\n      pop\n        /* \"#utility.yul\":24966:24969   */\n      dup2\n        /* \"#utility.yul\":24959:24969   */\n      swap1\n      pop\n        /* \"#utility.yul\":24312:24975   */\n      swap4\n      swap3\n      pop\n      pop\n      pop\n      jump\t// out\n        /* \"#utility.yul\":24981:25526   */\n    tag_280:\n        /* \"#utility.yul\":25154:25158   */\n      0x00\n        /* \"#utility.yul\":25192:25195   */\n      0x80\n        /* \"#utility.yul\":25181:25190   */\n      dup3\n        /* \"#utility.yul\":25177:25196   */\n      add\n        /* \"#utility.yul\":25169:25196   */\n      swap1\n      pop\n        /* \"#utility.yul\":25206:25277   */\n      tag_610\n        /* \"#utility.yul\":25274:25275   */\n      0x00\n        /* \"#utility.yul\":25263:25272   */\n      dup4\n        /* \"#utility.yul\":25259:25276   */\n      add\n        /* \"#utility.yul\":25250:25256   */\n      dup8\n        /* \"#utility.yul\":25206:25277   */\n      tag_344\n      jump\t// in\n    tag_610:\n        /* \"#utility.yul\":25287:25355   */\n      tag_611\n        /* \"#utility.yul\":25351:25353   */\n      0x20\n        /* \"#utility.yul\":25340:25349   */\n      dup4\n        /* \"#utility.yul\":25336:25354   */\n      add\n        /* \"#utility.yul\":25327:25333   */\n      dup7\n        /* \"#utility.yul\":25287:25355   */\n      tag_342\n      jump\t// in\n    tag_611:\n        /* \"#utility.yul\":25365:25437   */\n      tag_612\n        /* \"#utility.yul\":25433:25435   */\n      0x40\n        /* \"#utility.yul\":25422:25431   */\n      dup4\n        /* \"#utility.yul\":25418:25436   */\n      add\n        /* \"#utility.yul\":25409:25415   */\n      dup6\n        /* \"#utility.yul\":25365:25437   */\n      tag_344\n      jump\t// in\n    tag_612:\n        /* \"#utility.yul\":25447:25519   */\n      tag_613\n        /* \"#utility.yul\":25515:25517   */\n      0x60\n        /* \"#utility.yul\":25504:25513   */\n      dup4\n        /* \"#utility.yul\":25500:25518   */\n      add\n        /* \"#utility.yul\":25491:25497   */\n      dup5\n        /* \"#utility.yul\":25447:25519   */\n      tag_344\n      jump\t// in\n    tag_613:\n        /* \"#utility.yul\":24981:25526   */\n      swap6\n      swap5\n      pop\n      pop\n      pop\n      pop\n      pop\n      jump\t// out\n        /* \"#utility.yul\":25532:25712   */\n    tag_287:\n        /* \"#utility.yul\":25580:25657   */\n      0x4e487b7100000000000000000000000000000000000000000000000000000000\n        /* \"#utility.yul\":25577:25578   */\n      0x00\n        /* \"#utility.yul\":25570:25658   */\n      mstore\n        /* \"#utility.yul\":25677:25681   */\n      0x21\n        /* \"#utility.yul\":25674:25675   */\n      0x04\n        /* \"#utility.yul\":25667:25682   */\n      mstore\n        /* \"#utility.yul\":25701:25705   */\n      0x24\n        /* \"#utility.yul\":25698:25699   */\n      0x00\n        /* \"#utility.yul\":25691:25706   */\n      revert\n        /* \"#utility.yul\":25718:25892   */\n    tag_380:\n        /* \"#utility.yul\":25858:25884   */\n      0x45434453413a20696e76616c6964207369676e61747572650000000000000000\n        /* \"#utility.yul\":25854:25855   */\n      0x00\n        /* \"#utility.yul\":25846:25852   */\n      dup3\n        /* \"#utility.yul\":25842:25856   */\n      add\n        /* \"#utility.yul\":25835:25885   */\n      mstore\n        /* \"#utility.yul\":25718:25892   */\n      pop\n      jump\t// out\n        /* \"#utility.yul\":25898:26264   */\n    tag_381:\n        /* \"#utility.yul\":26040:26043   */\n      0x00\n        /* \"#utility.yul\":26061:26128   */\n      tag_617\n        /* \"#utility.yul\":26125:26127   */\n      0x18\n        /* \"#utility.yul\":26120:26123   */\n      dup4\n        /* \"#utility.yul\":26061:26128   */\n      tag_324\n      jump\t// in\n    tag_617:\n        /* \"#utility.yul\":26054:26128   */\n      swap2\n      pop\n        /* \"#utility.yul\":26137:26230   */\n      tag_618\n        /* \"#utility.yul\":26226:26229   */\n      dup3\n        /* \"#utility.yul\":26137:26230   */\n      tag_380\n      jump\t// in\n    tag_618:\n        /* \"#utility.yul\":26255:26257   */\n      0x20\n        /* \"#utility.yul\":26250:26253   */\n      dup3\n        /* \"#utility.yul\":26246:26258   */\n      add\n        /* \"#utility.yul\":26239:26258   */\n      swap1\n      pop\n        /* \"#utility.yul\":25898:26264   */\n      swap2\n      swap1\n      pop\n      jump\t// out\n        /* \"#utility.yul\":26270:26689   */\n    tag_298:\n        /* \"#utility.yul\":26436:26440   */\n      0x00\n        /* \"#utility.yul\":26474:26476   */\n      0x20\n        /* \"#utility.yul\":26463:26472   */\n      dup3\n        /* \"#utility.yul\":26459:26477   */\n      add\n        /* \"#utility.yul\":26451:26477   */\n      swap1\n      pop\n        /* \"#utility.yul\":26523:26532   */\n      dup2\n        /* \"#utility.yul\":26517:26521   */\n      dup2\n        /* \"#utility.yul\":26513:26533   */\n      sub\n        /* \"#utility.yul\":26509:26510   */\n      0x00\n        /* \"#utility.yul\":26498:26507   */\n      dup4\n        /* \"#utility.yul\":26494:26511   */\n      add\n        /* \"#utility.yul\":26487:26534   */\n      mstore\n        /* \"#utility.yul\":26551:26682   */\n      tag_620\n        /* \"#utility.yul\":26677:26681   */\n      dup2\n        /* \"#utility.yul\":26551:26682   */\n      tag_381\n      jump\t// in\n    tag_620:\n        /* \"#utility.yul\":26543:26682   */\n      swap1\n      pop\n        /* \"#utility.yul\":26270:26689   */\n      swap2\n      swap1\n      pop\n      jump\t// out\n        /* \"#utility.yul\":26695:26876   */\n    tag_382:\n        /* \"#utility.yul\":26835:26868   */\n      0x45434453413a20696e76616c6964207369676e6174757265206c656e67746800\n        /* \"#utility.yul\":26831:26832   */\n      0x00\n        /* \"#utility.yul\":26823:26829   */\n      dup3\n        /* \"#utility.yul\":26819:26833   */\n      add\n        /* \"#utility.yul\":26812:26869   */\n      mstore\n        /* \"#utility.yul\":26695:26876   */\n      pop\n      jump\t// out\n        /* \"#utility.yul\":26882:27248   */\n    tag_383:\n        /* \"#utility.yul\":27024:27027   */\n      0x00\n        /* \"#utility.yul\":27045:27112   */\n      tag_623\n        /* \"#utility.yul\":27109:27111   */\n      0x1f\n        /* \"#utility.yul\":27104:27107   */\n      dup4\n        /* \"#utility.yul\":27045:27112   */\n      tag_324\n      jump\t// in\n    tag_623:\n        /* \"#utility.yul\":27038:27112   */\n      swap2\n      pop\n        /* \"#utility.yul\":27121:27214   */\n      tag_624\n        /* \"#utility.yul\":27210:27213   */\n      dup3\n        /* \"#utility.yul\":27121:27214   */\n      tag_382\n      jump\t// in\n    tag_624:\n        /* \"#utility.yul\":27239:27241   */\n      0x20\n        /* \"#utility.yul\":27234:27237   */\n      dup3\n        /* \"#utility.yul\":27230:27242   */\n      add\n        /* \"#utility.yul\":27223:27242   */\n      swap1\n      pop\n        /* \"#utility.yul\":26882:27248   */\n      swap2\n      swap1\n      pop\n      jump\t// out\n        /* \"#utility.yul\":27254:27673   */\n    tag_306:\n        /* \"#utility.yul\":27420:27424   */\n      0x00\n        /* \"#utility.yul\":27458:27460   */\n      0x20\n        /* \"#utility.yul\":27447:27456   */\n      dup3\n        /* \"#utility.yul\":27443:27461   */\n      add\n        /* \"#utility.yul\":27435:27461   */\n      swap1\n      pop\n        /* \"#utility.yul\":27507:27516   */\n      dup2\n        /* \"#utility.yul\":27501:27505   */\n      dup2\n        /* \"#utility.yul\":27497:27517   */\n      sub\n        /* \"#utility.yul\":27493:27494   */\n      0x00\n        /* \"#utility.yul\":27482:27491   */\n      dup4\n        /* \"#utility.yul\":27478:27495   */\n      add\n        /* \"#utility.yul\":27471:27518   */\n      mstore\n        /* \"#utility.yul\":27535:27666   */\n      tag_626\n        /* \"#utility.yul\":27661:27665   */\n      dup2\n        /* \"#utility.yul\":27535:27666   */\n      tag_383\n      jump\t// in\n    tag_626:\n        /* \"#utility.yul\":27527:27666   */\n      swap1\n      pop\n        /* \"#utility.yul\":27254:27673   */\n      swap2\n      swap1\n      pop\n      jump\t// out\n        /* \"#utility.yul\":27679:27900   */\n    tag_384:\n        /* \"#utility.yul\":27819:27853   */\n      0x45434453413a20696e76616c6964207369676e6174757265202773272076616c\n        /* \"#utility.yul\":27815:27816   */\n      0x00\n        /* \"#utility.yul\":27807:27813   */\n      dup3\n        /* \"#utility.yul\":27803:27817   */\n      add\n        /* \"#utility.yul\":27796:27854   */\n      mstore\n        /* \"#utility.yul\":27888:27892   */\n      0x7565000000000000000000000000000000000000000000000000000000000000\n        /* \"#utility.yul\":27883:27885   */\n      0x20\n        /* \"#utility.yul\":27875:27881   */\n      dup3\n        /* \"#utility.yul\":27871:27886   */\n      add\n        /* \"#utility.yul\":27864:27893   */\n      mstore\n        /* \"#utility.yul\":27679:27900   */\n      pop\n      jump\t// out\n        /* \"#utility.yul\":27906:28272   */\n    tag_385:\n        /* \"#utility.yul\":28048:28051   */\n      0x00\n        /* \"#utility.yul\":28069:28136   */\n      tag_629\n        /* \"#utility.yul\":28133:28135   */\n      0x22\n        /* \"#utility.yul\":28128:28131   */\n      dup4\n        /* \"#utility.yul\":28069:28136   */\n      tag_324\n      jump\t// in\n    tag_629:\n        /* \"#utility.yul\":28062:28136   */\n      swap2\n      pop\n        /* \"#utility.yul\":28145:28238   */\n      tag_630\n        /* \"#utility.yul\":28234:28237   */\n      dup3\n        /* \"#utility.yul\":28145:28238   */\n      tag_384\n      jump\t// in\n    tag_630:\n        /* \"#utility.yul\":28263:28265   */\n      0x40\n        /* \"#utility.yul\":28258:28261   */\n      dup3\n        /* \"#utility.yul\":28254:28266   */\n      add\n        /* \"#utility.yul\":28247:28266   */\n      swap1\n      pop\n        /* \"#utility.yul\":27906:28272   */\n      swap2\n      swap1\n      pop\n      jump\t// out\n        /* \"#utility.yul\":28278:28697   */\n    tag_314:\n        /* \"#utility.yul\":28444:28448   */\n      0x00\n        /* \"#utility.yul\":28482:28484   */\n      0x20\n        /* \"#utility.yul\":28471:28480   */\n      dup3\n        /* \"#utility.yul\":28467:28485   */\n      add\n        /* \"#utility.yul\":28459:28485   */\n      swap1\n      pop\n        /* \"#utility.yul\":28531:28540   */\n      dup2\n        /* \"#utility.yul\":28525:28529   */\n      dup2\n        /* \"#utility.yul\":28521:28541   */\n      sub\n        /* \"#utility.yul\":28517:28518   */\n      0x00\n        /* \"#utility.yul\":28506:28515   */\n      dup4\n        /* \"#utility.yul\":28502:28519   */\n      add\n        /* \"#utility.yul\":28495:28542   */\n      mstore\n        /* \"#utility.yul\":28559:28690   */\n      tag_632\n        /* \"#utility.yul\":28685:28689   */\n      dup2\n        /* \"#utility.yul\":28559:28690   */\n      tag_385\n      jump\t// in\n    tag_632:\n        /* \"#utility.yul\":28551:28690   */\n      swap1\n      pop\n        /* \"#utility.yul\":28278:28697   */\n      swap2\n      swap1\n      pop\n      jump\t// out\n        /* \"#utility.yul\":28703:28924   */\n    tag_386:\n        /* \"#utility.yul\":28843:28877   */\n      0x45434453413a20696e76616c6964207369676e6174757265202776272076616c\n        /* \"#utility.yul\":28839:28840   */\n      0x00\n        /* \"#utility.yul\":28831:28837   */\n      dup3\n        /* \"#utility.yul\":28827:28841   */\n      add\n        /* \"#utility.yul\":28820:28878   */\n      mstore\n        /* \"#utility.yul\":28912:28916   */\n      0x7565000000000000000000000000000000000000000000000000000000000000\n        /* \"#utility.yul\":28907:28909   */\n      0x20\n        /* \"#utility.yul\":28899:28905   */\n      dup3\n        /* \"#utility.yul\":28895:28910   */\n      add\n        /* \"#utility.yul\":28888:28917   */\n      mstore\n        /* \"#utility.yul\":28703:28924   */\n      pop\n      jump\t// out\n        /* \"#utility.yul\":28930:29296   */\n    tag_387:\n        /* \"#utility.yul\":29072:29075   */\n      0x00\n        /* \"#utility.yul\":29093:29160   */\n      tag_635\n        /* \"#utility.yul\":29157:29159   */\n      0x22\n        /* \"#utility.yul\":29152:29155   */\n      dup4\n        /* \"#utility.yul\":29093:29160   */\n      tag_324\n      jump\t// in\n    tag_635:\n        /* \"#utility.yul\":29086:29160   */\n      swap2\n      pop\n        /* \"#utility.yul\":29169:29262   */\n      tag_636\n        /* \"#utility.yul\":29258:29261   */\n      dup3\n        /* \"#utility.yul\":29169:29262   */\n      tag_386\n      jump\t// in\n    tag_636:\n        /* \"#utility.yul\":29287:29289   */\n      0x40\n        /* \"#utility.yul\":29282:29285   */\n      dup3\n        /* \"#utility.yul\":29278:29290   */\n      add\n        /* \"#utility.yul\":29271:29290   */\n      swap1\n      pop\n        /* \"#utility.yul\":28930:29296   */\n      swap2\n      swap1\n      pop\n      jump\t// out\n        /* \"#utility.yul\":29302:29721   */\n    tag_322:\n        /* \"#utility.yul\":29468:29472   */\n      0x00\n        /* \"#utility.yul\":29506:29508   */\n      0x20\n        /* \"#utility.yul\":29495:29504   */\n      dup3\n        /* \"#utility.yul\":29491:29509   */\n      add\n        /* \"#utility.yul\":29483:29509   */\n      swap1\n      pop\n        /* \"#utility.yul\":29555:29564   */\n      dup2\n        /* \"#utility.yul\":29549:29553   */\n      dup2\n        /* \"#utility.yul\":29545:29565   */\n      sub\n        /* \"#utility.yul\":29541:29542   */\n      0x00\n        /* \"#utility.yul\":29530:29539   */\n      dup4\n        /* \"#utility.yul\":29526:29543   */\n      add\n        /* \"#utility.yul\":29519:29566   */\n      mstore\n        /* \"#utility.yul\":29583:29714   */\n      tag_638\n        /* \"#utility.yul\":29709:29713   */\n      dup2\n        /* \"#utility.yul\":29583:29714   */\n      tag_387\n      jump\t// in\n    tag_638:\n        /* \"#utility.yul\":29575:29714   */\n      swap1\n      pop\n        /* \"#utility.yul\":29302:29721   */\n      swap2\n      swap1\n      pop\n      jump\t// out\n\n    auxdata: 0xa264697066735822122096b0341232aea76a0ecc78db09e787243aed2632ae803396fb98c3da11b9a60864736f6c63430008140033\n}\n",
				"bytecode": {
					"linkReferences": {},
					"object": "61014060405234801562000011575f80fd5b506040518060400160405280600781526020017f4d79546f6b656e00000000000000000000000000000000000000000000000000815250806040518060400160405280600181526020017f31000000000000000000000000000000000000000000000000000000000000008152506040518060400160405280600781526020017f4d79546f6b656e000000000000000000000000000000000000000000000000008152506040518060400160405280600381526020017f4d544b00000000000000000000000000000000000000000000000000000000008152508160039081620000fc919062000466565b5080600490816200010e919062000466565b5050505f828051906020012090505f828051906020012090505f7f8b73c3c69bb8fe3d512ecc4cf759cc79239f7b179b0ffacaa9a75d522b39400f90508260e081815250508161010081815250504660a0818152505062000177818484620001c760201b60201c565b608081815250503073ffffffffffffffffffffffffffffffffffffffff1660c08173ffffffffffffffffffffffffffffffffffffffff168152505080610120818152505050505050505062000613565b5f8383834630604051602001620001e3959493929190620005b8565b6040516020818303038152906040528051906020012090509392505050565b5f81519050919050565b7f4e487b71000000000000000000000000000000000000000000000000000000005f52604160045260245ffd5b7f4e487b71000000000000000000000000000000000000000000000000000000005f52602260045260245ffd5b5f60028204905060018216806200027e57607f821691505b60208210810362000294576200029362000239565b5b50919050565b5f819050815f5260205f209050919050565b5f6020601f8301049050919050565b5f82821b905092915050565b5f60088302620002f87fffffffffffffffffffffffffffffffffffffffffffffffffffffffffffffffff82620002bb565b620003048683620002bb565b95508019841693508086168417925050509392505050565b5f819050919050565b5f819050919050565b5f6200034e6200034862000342846200031c565b62000325565b6200031c565b9050919050565b5f819050919050565b62000369836200032e565b62000381620003788262000355565b848454620002c7565b825550505050565b5f90565b6200039762000389565b620003a48184846200035e565b505050565b5b81811015620003cb57620003bf5f826200038d565b600181019050620003aa565b5050565b601f8211156200041a57620003e4816200029a565b620003ef84620002ac565b81016020851015620003ff578190505b620004176200040e85620002ac565b830182620003a9565b50505b505050565b5f82821c905092915050565b5f6200043c5f19846008026200041f565b1980831691505092915050565b5f6200045683836200042b565b9150826002028217905092915050565b620004718262000202565b67ffffffffffffffff8111156200048d576200048c6200020c565b5b62000499825462000266565b620004a6828285620003cf565b5f60209050601f831160018114620004dc575f8415620004c7578287015190505b620004d3858262000449565b86555062000542565b601f198416620004ec866200029a565b5f5b828110156200051557848901518255600182019150602085019450602081019050620004ee565b8683101562000535578489015162000531601f8916826200042b565b8355505b6001600288020188555050505b505050505050565b5f819050919050565b6200055e816200054a565b82525050565b6200056f816200031c565b82525050565b5f73ffffffffffffffffffffffffffffffffffffffff82169050919050565b5f620005a08262000575565b9050919050565b620005b28162000594565b82525050565b5f60a082019050620005cd5f83018862000553565b620005dc602083018762000553565b620005eb604083018662000553565b620005fa606083018562000564565b620006096080830184620005a7565b9695505050505050565b60805160a05160c05160e05161010051610120516124c56200065b5f395f610fc501525f61100701525f610fe601525f610f1b01525f610f7101525f610f9a01526124c55ff3fe608060405234801561000f575f80fd5b5060043610610135575f3560e01c80637ecebe00116100b6578063b4b059581161007a578063b4b0595814610387578063ce2e08e5146103b7578063d1003ed4146103d3578063d505accf14610403578063db6730351461041f578063dd62ed3e1461043b57610135565b80637ecebe00146102a9578063948adb8f146102d957806395d89b4114610309578063a457c2d714610327578063a9059cbb1461035757610135565b80633644e515116100fd5780633644e515146101f357806339509351146102115780633b4c0c071461024157806340c10f191461025d57806370a082311461027957610135565b806306fdde0314610139578063095ea7b31461015757806318160ddd1461018757806323b872dd146101a5578063313ce567146101d5575b5f80fd5b61014161046b565b60405161014e9190611610565b60405180910390f35b610171600480360381019061016c91906116c1565b6104fb565b60405161017e9190611719565b60405180910390f35b61018f61051d565b60405161019c9190611741565b60405180910390f35b6101bf60048036038101906101ba919061175a565b610526565b6040516101cc9190611719565b60405180910390f35b6101dd610554565b6040516101ea91906117c5565b60405180910390f35b6101fb61055c565b60405161020891906117f6565b60405180910390f35b61022b600480360381019061022691906116c1565b61056a565b6040516102389190611719565b60405180910390f35b61025b600480360381019061025691906116c1565b6105a0565b005b610277600480360381019061027291906116c1565b6105af565b005b610293600480360381019061028e919061180f565b6105bd565b6040516102a09190611741565b60405180910390f35b6102c360048036038101906102be919061180f565b610602565b6040516102d09190611741565b60405180910390f35b6102f360048036038101906102ee919061180f565b61064f565b6040516103009190611741565b60405180910390f35b610311610664565b60405161031e9190611610565b60405180910390f35b610341600480360381019061033c91906116c1565b6106f4565b60405161034e9190611719565b60405180910390f35b610371600480360381019061036c91906116c1565b610769565b60405161037e9190611719565b60405180910390f35b6103a1600480360381019061039c919061180f565b61078b565b6040516103ae9190611741565b60405180910390f35b6103d160048036038101906103cc919061175a565b6107a0565b005b6103ed60048036038101906103e8919061188e565b610859565b6040516103fa9190611719565b60405180910390f35b61041d60048036038101906104189190611905565b610872565b005b6104396004803603810190610434919061175a565b6109b1565b005b610455600480360381019061045091906119a2565b6109cc565b6040516104629190611741565b60405180910390f35b60606003805461047a90611a0d565b80601f01602080910402602001604051908101604052809291908181526020018280546104a690611a0d565b80156104f15780601f106104c8576101008083540402835291602001916104f1565b820191905f5260205f20905b8154815290600101906020018083116104d457829003601f168201915b5050505050905090565b5f80610505610a4e565b9050610512818585610a55565b600191505092915050565b5f600254905090565b5f80610530610a4e565b905061053d858285610c18565b610548858585610ca3565b60019150509392505050565b5f6012905090565b5f610565610f18565b905090565b5f80610574610a4e565b905061059581858561058685896109cc565b6105909190611a6a565b610a55565b600191505092915050565b6105ab823083610ca3565b5050565b6105b98282611031565b5050565b5f805f8373ffffffffffffffffffffffffffffffffffffffff1673ffffffffffffffffffffffffffffffffffffffff1681526020019081526020015f20549050919050565b5f61064860055f8473ffffffffffffffffffffffffffffffffffffffff1673ffffffffffffffffffffffffffffffffffffffff1681526020019081526020015f20611188565b9050919050565b6009602052805f5260405f205f915090505481565b60606004805461067390611a0d565b80601f016020809104026020016040519081016040528092919081815260200182805461069f90611a0d565b80156106ea5780601f106106c1576101008083540402835291602001916106ea565b820191905f5260205f20905b8154815290600101906020018083116106cd57829003601f168201915b5050505050905090565b5f806106fe610a4e565b90505f61070b82866109cc565b905083811015610750576040517f08c379a000000000000000000000000000000000000000000000000000000000815260040161074790611b0d565b60405180910390fd5b61075d8286868403610a55565b60019250505092915050565b5f80610773610a4e565b9050610780818585610ca3565b600191505092915050565b6008602052805f5260405f205f915090505481565b601481116107e3576040517f08c379a00000000000000000000000000000000000000000000000000000000081526004016107da90611b75565b60405180910390fd5b6103e8811015610815576107f983306014610ca3565b610810838360148461080b9190611b93565b610ca3565b610854565b5f60646002836108259190611bc6565b61082f9190611c34565b905061083c843083610ca3565b6108528484838561084d9190611b93565b610ca3565b505b505050565b5f61086933308888888888610872565b95945050505050565b834211156108b5576040517f08c379a00000000000000000000000000000000000000000000000000000000081526004016108ac90611cae565b60405180910390fd5b5f7f6e71edae12b1b97f4d1f60370fef10105fa2faae0126114a169c64845d6126c98888886108e38c611194565b896040516020016108f996959493929190611cdb565b6040516020818303038152906040528051906020012090505f61091b826111ef565b90505f61092a82878787611208565b90508973ffffffffffffffffffffffffffffffffffffffff168173ffffffffffffffffffffffffffffffffffffffff161461099a576040517f08c379a000000000000000000000000000000000000000000000000000000000815260040161099190611d84565b60405180910390fd5b6109a58a8a8a610a55565b50505050505050505050565b6109bc833083610ca3565b6109c7308383610ca3565b505050565b5f60015f8473ffffffffffffffffffffffffffffffffffffffff1673ffffffffffffffffffffffffffffffffffffffff1681526020019081526020015f205f8373ffffffffffffffffffffffffffffffffffffffff1673ffffffffffffffffffffffffffffffffffffffff1681526020019081526020015f2054905092915050565b5f33905090565b5f73ffffffffffffffffffffffffffffffffffffffff168373ffffffffffffffffffffffffffffffffffffffff1603610ac3576040517f08c379a0000000000000000000000000000000000000000000000000000000008152600401610aba90611e12565b60405180910390fd5b5f73ffffffffffffffffffffffffffffffffffffffff168273ffffffffffffffffffffffffffffffffffffffff1603610b31576040517f08c379a0000000000000000000000000000000000000000000000000000000008152600401610b2890611ea0565b60405180910390fd5b8060015f8573ffffffffffffffffffffffffffffffffffffffff1673ffffffffffffffffffffffffffffffffffffffff1681526020019081526020015f205f8473ffffffffffffffffffffffffffffffffffffffff1673ffffffffffffffffffffffffffffffffffffffff1681526020019081526020015f20819055508173ffffffffffffffffffffffffffffffffffffffff168373ffffffffffffffffffffffffffffffffffffffff167f8c5be1e5ebec7d5bd14f71427d1e84f3dd0314c0f7b2291e5b200ac8c7c3b92583604051610c0b9190611741565b60405180910390a3505050565b5f610c2384846109cc565b90507fffffffffffffffffffffffffffffffffffffffffffffffffffffffffffffffff8114610c9d5781811015610c8f576040517f08c379a0000000000000000000000000000000000000000000000000000000008152600401610c8690611f08565b60405180910390fd5b610c9c8484848403610a55565b5b50505050565b5f73ffffffffffffffffffffffffffffffffffffffff168373ffffffffffffffffffffffffffffffffffffffff1603610d11576040517f08c379a0000000000000000000000000000000000000000000000000000000008152600401610d0890611f96565b60405180910390fd5b5f73ffffffffffffffffffffffffffffffffffffffff168273ffffffffffffffffffffffffffffffffffffffff1603610d7f576040517f08c379a0000000000000000000000000000000000000000000000000000000008152600401610d7690612024565b60405180910390fd5b610d8a838383611231565b5f805f8573ffffffffffffffffffffffffffffffffffffffff1673ffffffffffffffffffffffffffffffffffffffff1681526020019081526020015f2054905081811015610e0d576040517f08c379a0000000000000000000000000000000000000000000000000000000008152600401610e04906120b2565b60405180910390fd5b8181035f808673ffffffffffffffffffffffffffffffffffffffff1673ffffffffffffffffffffffffffffffffffffffff1681526020019081526020015f2081905550815f808573ffffffffffffffffffffffffffffffffffffffff1673ffffffffffffffffffffffffffffffffffffffff1681526020019081526020015f205f828254610e9b9190611a6a565b925050819055508273ffffffffffffffffffffffffffffffffffffffff168473ffffffffffffffffffffffffffffffffffffffff167fddf252ad1be2c89b69c2b068fc378daa952ba7f163c4a11628f55a4df523b3ef84604051610eff9190611741565b60405180910390a3610f12848484611236565b50505050565b5f7f000000000000000000000000000000000000000000000000000000000000000073ffffffffffffffffffffffffffffffffffffffff163073ffffffffffffffffffffffffffffffffffffffff16148015610f9357507f000000000000000000000000000000000000000000000000000000000000000046145b15610fc0577f0000000000000000000000000000000000000000000000000000000000000000905061102e565b61102b7f00000000000000000000000000000000000000000000000000000000000000007f00000000000000000000000000000000000000000000000000000000000000007f000000000000000000000000000000000000000000000000000000000000000061123b565b90505b90565b5f73ffffffffffffffffffffffffffffffffffffffff168273ffffffffffffffffffffffffffffffffffffffff160361109f576040517f08c379a00000000000000000000000000000000000000000000000000000000081526004016110969061211a565b60405180910390fd5b6110aa5f8383611231565b8060025f8282546110bb9190611a6a565b92505081905550805f808473ffffffffffffffffffffffffffffffffffffffff1673ffffffffffffffffffffffffffffffffffffffff1681526020019081526020015f205f82825461110d9190611a6a565b925050819055508173ffffffffffffffffffffffffffffffffffffffff165f73ffffffffffffffffffffffffffffffffffffffff167fddf252ad1be2c89b69c2b068fc378daa952ba7f163c4a11628f55a4df523b3ef836040516111719190611741565b60405180910390a36111845f8383611236565b5050565b5f815f01549050919050565b5f8060055f8473ffffffffffffffffffffffffffffffffffffffff1673ffffffffffffffffffffffffffffffffffffffff1681526020019081526020015f2090506111de81611188565b91506111e981611274565b50919050565b5f6112016111fb610f18565b83611288565b9050919050565b5f805f611217878787876112ba565b91509150611224816113bb565b8192505050949350505050565b505050565b505050565b5f8383834630604051602001611255959493929190612138565b6040516020818303038152906040528051906020012090509392505050565b6001815f015f828254019250508190555050565b5f828260405160200161129c9291906121fd565b60405160208183030381529060405280519060200120905092915050565b5f807f7fffffffffffffffffffffffffffffff5d576e7357a4501ddfe92f46681b20a0835f1c11156112f2575f6003915091506113b2565b601b8560ff161415801561130a5750601c8560ff1614155b1561131b575f6004915091506113b2565b5f6001878787876040515f815260200160405260405161133e9493929190612233565b6020604051602081039080840390855afa15801561135e573d5f803e3d5ffd5b5050506020604051035190505f73ffffffffffffffffffffffffffffffffffffffff168173ffffffffffffffffffffffffffffffffffffffff16036113aa575f600192509250506113b2565b805f92509250505b94509492505050565b5f60048111156113ce576113cd612276565b5b8160048111156113e1576113e0612276565b5b031561158357600160048111156113fb576113fa612276565b5b81600481111561140e5761140d612276565b5b0361144e576040517f08c379a0000000000000000000000000000000000000000000000000000000008152600401611445906122ed565b60405180910390fd5b6002600481111561146257611461612276565b5b81600481111561147557611474612276565b5b036114b5576040517f08c379a00000000000000000000000000000000000000000000000000000000081526004016114ac90612355565b60405180910390fd5b600360048111156114c9576114c8612276565b5b8160048111156114dc576114db612276565b5b0361151c576040517f08c379a0000000000000000000000000000000000000000000000000000000008152600401611513906123e3565b60405180910390fd5b60048081111561152f5761152e612276565b5b81600481111561154257611541612276565b5b03611582576040517f08c379a000000000000000000000000000000000000000000000000000000000815260040161157990612471565b60405180910390fd5b5b50565b5f81519050919050565b5f82825260208201905092915050565b5f5b838110156115bd5780820151818401526020810190506115a2565b5f8484015250505050565b5f601f19601f8301169050919050565b5f6115e282611586565b6115ec8185611590565b93506115fc8185602086016115a0565b611605816115c8565b840191505092915050565b5f6020820190508181035f83015261162881846115d8565b905092915050565b5f80fd5b5f73ffffffffffffffffffffffffffffffffffffffff82169050919050565b5f61165d82611634565b9050919050565b61166d81611653565b8114611677575f80fd5b50565b5f8135905061168881611664565b92915050565b5f819050919050565b6116a08161168e565b81146116aa575f80fd5b50565b5f813590506116bb81611697565b92915050565b5f80604083850312156116d7576116d6611630565b5b5f6116e48582860161167a565b92505060206116f5858286016116ad565b9150509250929050565b5f8115159050919050565b611713816116ff565b82525050565b5f60208201905061172c5f83018461170a565b92915050565b61173b8161168e565b82525050565b5f6020820190506117545f830184611732565b92915050565b5f805f6060848603121561177157611770611630565b5b5f61177e8682870161167a565b935050602061178f8682870161167a565b92505060406117a0868287016116ad565b9150509250925092565b5f60ff82169050919050565b6117bf816117aa565b82525050565b5f6020820190506117d85f8301846117b6565b92915050565b5f819050919050565b6117f0816117de565b82525050565b5f6020820190506118095f8301846117e7565b92915050565b5f6020828403121561182457611823611630565b5b5f6118318482850161167a565b91505092915050565b611843816117aa565b811461184d575f80fd5b50565b5f8135905061185e8161183a565b92915050565b61186d816117de565b8114611877575f80fd5b50565b5f8135905061188881611864565b92915050565b5f805f805f60a086880312156118a7576118a6611630565b5b5f6118b4888289016116ad565b95505060206118c5888289016116ad565b94505060406118d688828901611850565b93505060606118e78882890161187a565b92505060806118f88882890161187a565b9150509295509295909350565b5f805f805f805f60e0888a0312156119205761191f611630565b5b5f61192d8a828b0161167a565b975050602061193e8a828b0161167a565b965050604061194f8a828b016116ad565b95505060606119608a828b016116ad565b94505060806119718a828b01611850565b93505060a06119828a828b0161187a565b92505060c06119938a828b0161187a565b91505092959891949750929550565b5f80604083850312156119b8576119b7611630565b5b5f6119c58582860161167a565b92505060206119d68582860161167a565b9150509250929050565b7f4e487b71000000000000000000000000000000000000000000000000000000005f52602260045260245ffd5b5f6002820490506001821680611a2457607f821691505b602082108103611a3757611a366119e0565b5b50919050565b7f4e487b71000000000000000000000000000000000000000000000000000000005f52601160045260245ffd5b5f611a748261168e565b9150611a7f8361168e565b9250828201905080821115611a9757611a96611a3d565b5b92915050565b7f45524332303a2064656372656173656420616c6c6f77616e63652062656c6f775f8201527f207a65726f000000000000000000000000000000000000000000000000000000602082015250565b5f611af7602583611590565b9150611b0282611a9d565b604082019050919050565b5f6020820190508181035f830152611b2481611aeb565b9050919050565b7f746f6b656e206973206c657373207468616e20323000000000000000000000005f82015250565b5f611b5f601583611590565b9150611b6a82611b2b565b602082019050919050565b5f6020820190508181035f830152611b8c81611b53565b9050919050565b5f611b9d8261168e565b9150611ba88361168e565b9250828203905081811115611bc057611bbf611a3d565b5b92915050565b5f611bd08261168e565b9150611bdb8361168e565b9250828202611be98161168e565b91508282048414831517611c0057611bff611a3d565b5b5092915050565b7f4e487b71000000000000000000000000000000000000000000000000000000005f52601260045260245ffd5b5f611c3e8261168e565b9150611c498361168e565b925082611c5957611c58611c07565b5b828204905092915050565b7f45524332305065726d69743a206578706972656420646561646c696e650000005f82015250565b5f611c98601d83611590565b9150611ca382611c64565b602082019050919050565b5f6020820190508181035f830152611cc581611c8c565b9050919050565b611cd581611653565b82525050565b5f60c082019050611cee5f8301896117e7565b611cfb6020830188611ccc565b611d086040830187611ccc565b611d156060830186611732565b611d226080830185611732565b611d2f60a0830184611732565b979650505050505050565b7f45524332305065726d69743a20696e76616c6964207369676e617475726500005f82015250565b5f611d6e601e83611590565b9150611d7982611d3a565b602082019050919050565b5f6020820190508181035f830152611d9b81611d62565b9050919050565b7f45524332303a20617070726f76652066726f6d20746865207a65726f206164645f8201527f7265737300000000000000000000000000000000000000000000000000000000602082015250565b5f611dfc602483611590565b9150611e0782611da2565b604082019050919050565b5f6020820190508181035f830152611e2981611df0565b9050919050565b7f45524332303a20617070726f766520746f20746865207a65726f2061646472655f8201527f7373000000000000000000000000000000000000000000000000000000000000602082015250565b5f611e8a602283611590565b9150611e9582611e30565b604082019050919050565b5f6020820190508181035f830152611eb781611e7e565b9050919050565b7f45524332303a20696e73756666696369656e7420616c6c6f77616e63650000005f82015250565b5f611ef2601d83611590565b9150611efd82611ebe565b602082019050919050565b5f6020820190508181035f830152611f1f81611ee6565b9050919050565b7f45524332303a207472616e736665722066726f6d20746865207a65726f2061645f8201527f6472657373000000000000000000000000000000000000000000000000000000602082015250565b5f611f80602583611590565b9150611f8b82611f26565b604082019050919050565b5f6020820190508181035f830152611fad81611f74565b9050919050565b7f45524332303a207472616e7366657220746f20746865207a65726f20616464725f8201527f6573730000000000000000000000000000000000000000000000000000000000602082015250565b5f61200e602383611590565b915061201982611fb4565b604082019050919050565b5f6020820190508181035f83015261203b81612002565b9050919050565b7f45524332303a207472616e7366657220616d6f756e74206578636565647320625f8201527f616c616e63650000000000000000000000000000000000000000000000000000602082015250565b5f61209c602683611590565b91506120a782612042565b604082019050919050565b5f6020820190508181035f8301526120c981612090565b9050919050565b7f45524332303a206d696e7420746f20746865207a65726f2061646472657373005f82015250565b5f612104601f83611590565b915061210f826120d0565b602082019050919050565b5f6020820190508181035f830152612131816120f8565b9050919050565b5f60a08201905061214b5f8301886117e7565b61215860208301876117e7565b61216560408301866117e7565b6121726060830185611732565b61217f6080830184611ccc565b9695505050505050565b5f81905092915050565b7f19010000000000000000000000000000000000000000000000000000000000005f82015250565b5f6121c7600283612189565b91506121d282612193565b600282019050919050565b5f819050919050565b6121f76121f2826117de565b6121dd565b82525050565b5f612207826121bb565b915061221382856121e6565b60208201915061222382846121e6565b6020820191508190509392505050565b5f6080820190506122465f8301876117e7565b61225360208301866117b6565b61226060408301856117e7565b61226d60608301846117e7565b95945050505050565b7f4e487b71000000000000000000000000000000000000000000000000000000005f52602160045260245ffd5b7f45434453413a20696e76616c6964207369676e617475726500000000000000005f82015250565b5f6122d7601883611590565b91506122e2826122a3565b602082019050919050565b5f6020820190508181035f830152612304816122cb565b9050919050565b7f45434453413a20696e76616c6964207369676e6174757265206c656e677468005f82015250565b5f61233f601f83611590565b915061234a8261230b565b602082019050919050565b5f6020820190508181035f83015261236c81612333565b9050919050565b7f45434453413a20696e76616c6964207369676e6174757265202773272076616c5f8201527f7565000000000000000000000000000000000000000000000000000000000000602082015250565b5f6123cd602283611590565b91506123d882612373565b604082019050919050565b5f6020820190508181035f8301526123fa816123c1565b9050919050565b7f45434453413a20696e76616c6964207369676e6174757265202776272076616c5f8201527f7565000000000000000000000000000000000000000000000000000000000000602082015250565b5f61245b602283611590565b915061246682612401565b604082019050919050565b5f6020820190508181035f8301526124888161244f565b905091905056fea264697066735822122096b0341232aea76a0ecc78db09e787243aed2632ae803396fb98c3da11b9a60864736f6c63430008140033",
					"opcodes": "PUSH2 0x140 PUSH1 0x40 MSTORE CALLVALUE DUP1 ISZERO PUSH3 0x11 JUMPI PUSH0 DUP1 REVERT JUMPDEST POP PUSH1 0x40 MLOAD DUP1 PUSH1 0x40 ADD PUSH1 0x40 MSTORE DUP1 PUSH1 0x7 DUP2 MSTORE PUSH1 0x20 ADD PUSH32 0x4D79546F6B656E00000000000000000000000000000000000000000000000000 DUP2 MSTORE POP DUP1 PUSH1 0x40 MLOAD DUP1 PUSH1 0x40 ADD PUSH1 0x40 MSTORE DUP1 PUSH1 0x1 DUP2 MSTORE PUSH1 0x20 ADD PUSH32 0x3100000000000000000000000000000000000000000000000000000000000000 DUP2 MSTORE POP PUSH1 0x40 MLOAD DUP1 PUSH1 0x40 ADD PUSH1 0x40 MSTORE DUP1 PUSH1 0x7 DUP2 MSTORE PUSH1 0x20 ADD PUSH32 0x4D79546F6B656E00000000000000000000000000000000000000000000000000 DUP2 MSTORE POP PUSH1 0x40 MLOAD DUP1 PUSH1 0x40 ADD PUSH1 0x40 MSTORE DUP1 PUSH1 0x3 DUP2 MSTORE PUSH1 0x20 ADD PUSH32 0x4D544B0000000000000000000000000000000000000000000000000000000000 DUP2 MSTORE POP DUP2 PUSH1 0x3 SWAP1 DUP2 PUSH3 0xFC SWAP2 SWAP1 PUSH3 0x466 JUMP JUMPDEST POP DUP1 PUSH1 0x4 SWAP1 DUP2 PUSH3 0x10E SWAP2 SWAP1 PUSH3 0x466 JUMP JUMPDEST POP POP POP PUSH0 DUP3 DUP1 MLOAD SWAP1 PUSH1 0x20 ADD KECCAK256 SWAP1 POP PUSH0 DUP3 DUP1 MLOAD SWAP1 PUSH1 0x20 ADD KECCAK256 SWAP1 POP PUSH0 PUSH32 0x8B73C3C69BB8FE3D512ECC4CF759CC79239F7B179B0FFACAA9A75D522B39400F SWAP1 POP DUP3 PUSH1 0xE0 DUP2 DUP2 MSTORE POP POP DUP2 PUSH2 0x100 DUP2 DUP2 MSTORE POP POP CHAINID PUSH1 0xA0 DUP2 DUP2 MSTORE POP POP PUSH3 0x177 DUP2 DUP5 DUP5 PUSH3 0x1C7 PUSH1 0x20 SHL PUSH1 0x20 SHR JUMP JUMPDEST PUSH1 0x80 DUP2 DUP2 MSTORE POP POP ADDRESS PUSH20 0xFFFFFFFFFFFFFFFFFFFFFFFFFFFFFFFFFFFFFFFF AND PUSH1 0xC0 DUP2 PUSH20 0xFFFFFFFFFFFFFFFFFFFFFFFFFFFFFFFFFFFFFFFF AND DUP2 MSTORE POP POP DUP1 PUSH2 0x120 DUP2 DUP2 MSTORE POP POP POP POP POP POP POP POP PUSH3 0x613 JUMP JUMPDEST PUSH0 DUP4 DUP4 DUP4 CHAINID ADDRESS PUSH1 0x40 MLOAD PUSH1 0x20 ADD PUSH3 0x1E3 SWAP6 SWAP5 SWAP4 SWAP3 SWAP2 SWAP1 PUSH3 0x5B8 JUMP JUMPDEST PUSH1 0x40 MLOAD PUSH1 0x20 DUP2 DUP4 SUB SUB DUP2 MSTORE SWAP1 PUSH1 0x40 MSTORE DUP1 MLOAD SWAP1 PUSH1 0x20 ADD KECCAK256 SWAP1 POP SWAP4 SWAP3 POP POP POP JUMP JUMPDEST PUSH0 DUP2 MLOAD SWAP1 POP SWAP2 SWAP1 POP JUMP JUMPDEST PUSH32 0x4E487B7100000000000000000000000000000000000000000000000000000000 PUSH0 MSTORE PUSH1 0x41 PUSH1 0x4 MSTORE PUSH1 0x24 PUSH0 REVERT JUMPDEST PUSH32 0x4E487B7100000000000000000000000000000000000000000000000000000000 PUSH0 MSTORE PUSH1 0x22 PUSH1 0x4 MSTORE PUSH1 0x24 PUSH0 REVERT JUMPDEST PUSH0 PUSH1 0x2 DUP3 DIV SWAP1 POP PUSH1 0x1 DUP3 AND DUP1 PUSH3 0x27E JUMPI PUSH1 0x7F DUP3 AND SWAP2 POP JUMPDEST PUSH1 0x20 DUP3 LT DUP2 SUB PUSH3 0x294 JUMPI PUSH3 0x293 PUSH3 0x239 JUMP JUMPDEST JUMPDEST POP SWAP2 SWAP1 POP JUMP JUMPDEST PUSH0 DUP2 SWAP1 POP DUP2 PUSH0 MSTORE PUSH1 0x20 PUSH0 KECCAK256 SWAP1 POP SWAP2 SWAP1 POP JUMP JUMPDEST PUSH0 PUSH1 0x20 PUSH1 0x1F DUP4 ADD DIV SWAP1 POP SWAP2 SWAP1 POP JUMP JUMPDEST PUSH0 DUP3 DUP3 SHL SWAP1 POP SWAP3 SWAP2 POP POP JUMP JUMPDEST PUSH0 PUSH1 0x8 DUP4 MUL PUSH3 0x2F8 PUSH32 0xFFFFFFFFFFFFFFFFFFFFFFFFFFFFFFFFFFFFFFFFFFFFFFFFFFFFFFFFFFFFFFFF DUP3 PUSH3 0x2BB JUMP JUMPDEST PUSH3 0x304 DUP7 DUP4 PUSH3 0x2BB JUMP JUMPDEST SWAP6 POP DUP1 NOT DUP5 AND SWAP4 POP DUP1 DUP7 AND DUP5 OR SWAP3 POP POP POP SWAP4 SWAP3 POP POP POP JUMP JUMPDEST PUSH0 DUP2 SWAP1 POP SWAP2 SWAP1 POP JUMP JUMPDEST PUSH0 DUP2 SWAP1 POP SWAP2 SWAP1 POP JUMP JUMPDEST PUSH0 PUSH3 0x34E PUSH3 0x348 PUSH3 0x342 DUP5 PUSH3 0x31C JUMP JUMPDEST PUSH3 0x325 JUMP JUMPDEST PUSH3 0x31C JUMP JUMPDEST SWAP1 POP SWAP2 SWAP1 POP JUMP JUMPDEST PUSH0 DUP2 SWAP1 POP SWAP2 SWAP1 POP JUMP JUMPDEST PUSH3 0x369 DUP4 PUSH3 0x32E JUMP JUMPDEST PUSH3 0x381 PUSH3 0x378 DUP3 PUSH3 0x355 JUMP JUMPDEST DUP5 DUP5 SLOAD PUSH3 0x2C7 JUMP JUMPDEST DUP3 SSTORE POP POP POP POP JUMP JUMPDEST PUSH0 SWAP1 JUMP JUMPDEST PUSH3 0x397 PUSH3 0x389 JUMP JUMPDEST PUSH3 0x3A4 DUP2 DUP5 DUP5 PUSH3 0x35E JUMP JUMPDEST POP POP POP JUMP JUMPDEST JUMPDEST DUP2 DUP2 LT ISZERO PUSH3 0x3CB JUMPI PUSH3 0x3BF PUSH0 DUP3 PUSH3 0x38D JUMP JUMPDEST PUSH1 0x1 DUP2 ADD SWAP1 POP PUSH3 0x3AA JUMP JUMPDEST POP POP JUMP JUMPDEST PUSH1 0x1F DUP3 GT ISZERO PUSH3 0x41A JUMPI PUSH3 0x3E4 DUP2 PUSH3 0x29A JUMP JUMPDEST PUSH3 0x3EF DUP5 PUSH3 0x2AC JUMP JUMPDEST DUP2 ADD PUSH1 0x20 DUP6 LT ISZERO PUSH3 0x3FF JUMPI DUP2 SWAP1 POP JUMPDEST PUSH3 0x417 PUSH3 0x40E DUP6 PUSH3 0x2AC JUMP JUMPDEST DUP4 ADD DUP3 PUSH3 0x3A9 JUMP JUMPDEST POP POP JUMPDEST POP POP POP JUMP JUMPDEST PUSH0 DUP3 DUP3 SHR SWAP1 POP SWAP3 SWAP2 POP POP JUMP JUMPDEST PUSH0 PUSH3 0x43C PUSH0 NOT DUP5 PUSH1 0x8 MUL PUSH3 0x41F JUMP JUMPDEST NOT DUP1 DUP4 AND SWAP2 POP POP SWAP3 SWAP2 POP POP JUMP JUMPDEST PUSH0 PUSH3 0x456 DUP4 DUP4 PUSH3 0x42B JUMP JUMPDEST SWAP2 POP DUP3 PUSH1 0x2 MUL DUP3 OR SWAP1 POP SWAP3 SWAP2 POP POP JUMP JUMPDEST PUSH3 0x471 DUP3 PUSH3 0x202 JUMP JUMPDEST PUSH8 0xFFFFFFFFFFFFFFFF DUP2 GT ISZERO PUSH3 0x48D JUMPI PUSH3 0x48C PUSH3 0x20C JUMP JUMPDEST JUMPDEST PUSH3 0x499 DUP3 SLOAD PUSH3 0x266 JUMP JUMPDEST PUSH3 0x4A6 DUP3 DUP3 DUP6 PUSH3 0x3CF JUMP JUMPDEST PUSH0 PUSH1 0x20 SWAP1 POP PUSH1 0x1F DUP4 GT PUSH1 0x1 DUP2 EQ PUSH3 0x4DC JUMPI PUSH0 DUP5 ISZERO PUSH3 0x4C7 JUMPI DUP3 DUP8 ADD MLOAD SWAP1 POP JUMPDEST PUSH3 0x4D3 DUP6 DUP3 PUSH3 0x449 JUMP JUMPDEST DUP7 SSTORE POP PUSH3 0x542 JUMP JUMPDEST PUSH1 0x1F NOT DUP5 AND PUSH3 0x4EC DUP7 PUSH3 0x29A JUMP JUMPDEST PUSH0 JUMPDEST DUP3 DUP2 LT ISZERO PUSH3 0x515 JUMPI DUP5 DUP10 ADD MLOAD DUP3 SSTORE PUSH1 0x1 DUP3 ADD SWAP2 POP PUSH1 0x20 DUP6 ADD SWAP5 POP PUSH1 0x20 DUP2 ADD SWAP1 POP PUSH3 0x4EE JUMP JUMPDEST DUP7 DUP4 LT ISZERO PUSH3 0x535 JUMPI DUP5 DUP10 ADD MLOAD PUSH3 0x531 PUSH1 0x1F DUP10 AND DUP3 PUSH3 0x42B JUMP JUMPDEST DUP4 SSTORE POP JUMPDEST PUSH1 0x1 PUSH1 0x2 DUP9 MUL ADD DUP9 SSTORE POP POP POP JUMPDEST POP POP POP POP POP POP JUMP JUMPDEST PUSH0 DUP2 SWAP1 POP SWAP2 SWAP1 POP JUMP JUMPDEST PUSH3 0x55E DUP2 PUSH3 0x54A JUMP JUMPDEST DUP3 MSTORE POP POP JUMP JUMPDEST PUSH3 0x56F DUP2 PUSH3 0x31C JUMP JUMPDEST DUP3 MSTORE POP POP JUMP JUMPDEST PUSH0 PUSH20 0xFFFFFFFFFFFFFFFFFFFFFFFFFFFFFFFFFFFFFFFF DUP3 AND SWAP1 POP SWAP2 SWAP1 POP JUMP JUMPDEST PUSH0 PUSH3 0x5A0 DUP3 PUSH3 0x575 JUMP JUMPDEST SWAP1 POP SWAP2 SWAP1 POP JUMP JUMPDEST PUSH3 0x5B2 DUP2 PUSH3 0x594 JUMP JUMPDEST DUP3 MSTORE POP POP JUMP JUMPDEST PUSH0 PUSH1 0xA0 DUP3 ADD SWAP1 POP PUSH3 0x5CD PUSH0 DUP4 ADD DUP9 PUSH3 0x553 JUMP JUMPDEST PUSH3 0x5DC PUSH1 0x20 DUP4 ADD DUP8 PUSH3 0x553 JUMP JUMPDEST PUSH3 0x5EB PUSH1 0x40 DUP4 ADD DUP7 PUSH3 0x553 JUMP JUMPDEST PUSH3 0x5FA PUSH1 0x60 DUP4 ADD DUP6 PUSH3 0x564 JUMP JUMPDEST PUSH3 0x609 PUSH1 0x80 DUP4 ADD DUP5 PUSH3 0x5A7 JUMP JUMPDEST SWAP7 SWAP6 POP POP POP POP POP POP JUMP JUMPDEST PUSH1 0x80 MLOAD PUSH1 0xA0 MLOAD PUSH1 0xC0 MLOAD PUSH1 0xE0 MLOAD PUSH2 0x100 MLOAD PUSH2 0x120 MLOAD PUSH2 0x24C5 PUSH3 0x65B PUSH0 CODECOPY PUSH0 PUSH2 0xFC5 ADD MSTORE PUSH0 PUSH2 0x1007 ADD MSTORE PUSH0 PUSH2 0xFE6 ADD MSTORE PUSH0 PUSH2 0xF1B ADD MSTORE PUSH0 PUSH2 0xF71 ADD MSTORE PUSH0 PUSH2 0xF9A ADD MSTORE PUSH2 0x24C5 PUSH0 RETURN INVALID PUSH1 0x80 PUSH1 0x40 MSTORE CALLVALUE DUP1 ISZERO PUSH2 0xF JUMPI PUSH0 DUP1 REVERT JUMPDEST POP PUSH1 0x4 CALLDATASIZE LT PUSH2 0x135 JUMPI PUSH0 CALLDATALOAD PUSH1 0xE0 SHR DUP1 PUSH4 0x7ECEBE00 GT PUSH2 0xB6 JUMPI DUP1 PUSH4 0xB4B05958 GT PUSH2 0x7A JUMPI DUP1 PUSH4 0xB4B05958 EQ PUSH2 0x387 JUMPI DUP1 PUSH4 0xCE2E08E5 EQ PUSH2 0x3B7 JUMPI DUP1 PUSH4 0xD1003ED4 EQ PUSH2 0x3D3 JUMPI DUP1 PUSH4 0xD505ACCF EQ PUSH2 0x403 JUMPI DUP1 PUSH4 0xDB673035 EQ PUSH2 0x41F JUMPI DUP1 PUSH4 0xDD62ED3E EQ PUSH2 0x43B JUMPI PUSH2 0x135 JUMP JUMPDEST DUP1 PUSH4 0x7ECEBE00 EQ PUSH2 0x2A9 JUMPI DUP1 PUSH4 0x948ADB8F EQ PUSH2 0x2D9 JUMPI DUP1 PUSH4 0x95D89B41 EQ PUSH2 0x309 JUMPI DUP1 PUSH4 0xA457C2D7 EQ PUSH2 0x327 JUMPI DUP1 PUSH4 0xA9059CBB EQ PUSH2 0x357 JUMPI PUSH2 0x135 JUMP JUMPDEST DUP1 PUSH4 0x3644E515 GT PUSH2 0xFD JUMPI DUP1 PUSH4 0x3644E515 EQ PUSH2 0x1F3 JUMPI DUP1 PUSH4 0x39509351 EQ PUSH2 0x211 JUMPI DUP1 PUSH4 0x3B4C0C07 EQ PUSH2 0x241 JUMPI DUP1 PUSH4 0x40C10F19 EQ PUSH2 0x25D JUMPI DUP1 PUSH4 0x70A08231 EQ PUSH2 0x279 JUMPI PUSH2 0x135 JUMP JUMPDEST DUP1 PUSH4 0x6FDDE03 EQ PUSH2 0x139 JUMPI DUP1 PUSH4 0x95EA7B3 EQ PUSH2 0x157 JUMPI DUP1 PUSH4 0x18160DDD EQ PUSH2 0x187 JUMPI DUP1 PUSH4 0x23B872DD EQ PUSH2 0x1A5 JUMPI DUP1 PUSH4 0x313CE567 EQ PUSH2 0x1D5 JUMPI JUMPDEST PUSH0 DUP1 REVERT JUMPDEST PUSH2 0x141 PUSH2 0x46B JUMP JUMPDEST PUSH1 0x40 MLOAD PUSH2 0x14E SWAP2 SWAP1 PUSH2 0x1610 JUMP JUMPDEST PUSH1 0x40 MLOAD DUP1 SWAP2 SUB SWAP1 RETURN JUMPDEST PUSH2 0x171 PUSH1 0x4 DUP1 CALLDATASIZE SUB DUP2 ADD SWAP1 PUSH2 0x16C SWAP2 SWAP1 PUSH2 0x16C1 JUMP JUMPDEST PUSH2 0x4FB JUMP JUMPDEST PUSH1 0x40 MLOAD PUSH2 0x17E SWAP2 SWAP1 PUSH2 0x1719 JUMP JUMPDEST PUSH1 0x40 MLOAD DUP1 SWAP2 SUB SWAP1 RETURN JUMPDEST PUSH2 0x18F PUSH2 0x51D JUMP JUMPDEST PUSH1 0x40 MLOAD PUSH2 0x19C SWAP2 SWAP1 PUSH2 0x1741 JUMP JUMPDEST PUSH1 0x40 MLOAD DUP1 SWAP2 SUB SWAP1 RETURN JUMPDEST PUSH2 0x1BF PUSH1 0x4 DUP1 CALLDATASIZE SUB DUP2 ADD SWAP1 PUSH2 0x1BA SWAP2 SWAP1 PUSH2 0x175A JUMP JUMPDEST PUSH2 0x526 JUMP JUMPDEST PUSH1 0x40 MLOAD PUSH2 0x1CC SWAP2 SWAP1 PUSH2 0x1719 JUMP JUMPDEST PUSH1 0x40 MLOAD DUP1 SWAP2 SUB SWAP1 RETURN JUMPDEST PUSH2 0x1DD PUSH2 0x554 JUMP JUMPDEST PUSH1 0x40 MLOAD PUSH2 0x1EA SWAP2 SWAP1 PUSH2 0x17C5 JUMP JUMPDEST PUSH1 0x40 MLOAD DUP1 SWAP2 SUB SWAP1 RETURN JUMPDEST PUSH2 0x1FB PUSH2 0x55C JUMP JUMPDEST PUSH1 0x40 MLOAD PUSH2 0x208 SWAP2 SWAP1 PUSH2 0x17F6 JUMP JUMPDEST PUSH1 0x40 MLOAD DUP1 SWAP2 SUB SWAP1 RETURN JUMPDEST PUSH2 0x22B PUSH1 0x4 DUP1 CALLDATASIZE SUB DUP2 ADD SWAP1 PUSH2 0x226 SWAP2 SWAP1 PUSH2 0x16C1 JUMP JUMPDEST PUSH2 0x56A JUMP JUMPDEST PUSH1 0x40 MLOAD PUSH2 0x238 SWAP2 SWAP1 PUSH2 0x1719 JUMP JUMPDEST PUSH1 0x40 MLOAD DUP1 SWAP2 SUB SWAP1 RETURN JUMPDEST PUSH2 0x25B PUSH1 0x4 DUP1 CALLDATASIZE SUB DUP2 ADD SWAP1 PUSH2 0x256 SWAP2 SWAP1 PUSH2 0x16C1 JUMP JUMPDEST PUSH2 0x5A0 JUMP JUMPDEST STOP JUMPDEST PUSH2 0x277 PUSH1 0x4 DUP1 CALLDATASIZE SUB DUP2 ADD SWAP1 PUSH2 0x272 SWAP2 SWAP1 PUSH2 0x16C1 JUMP JUMPDEST PUSH2 0x5AF JUMP JUMPDEST STOP JUMPDEST PUSH2 0x293 PUSH1 0x4 DUP1 CALLDATASIZE SUB DUP2 ADD SWAP1 PUSH2 0x28E SWAP2 SWAP1 PUSH2 0x180F JUMP JUMPDEST PUSH2 0x5BD JUMP JUMPDEST PUSH1 0x40 MLOAD PUSH2 0x2A0 SWAP2 SWAP1 PUSH2 0x1741 JUMP JUMPDEST PUSH1 0x40 MLOAD DUP1 SWAP2 SUB SWAP1 RETURN JUMPDEST PUSH2 0x2C3 PUSH1 0x4 DUP1 CALLDATASIZE SUB DUP2 ADD SWAP1 PUSH2 0x2BE SWAP2 SWAP1 PUSH2 0x180F JUMP JUMPDEST PUSH2 0x602 JUMP JUMPDEST PUSH1 0x40 MLOAD PUSH2 0x2D0 SWAP2 SWAP1 PUSH2 0x1741 JUMP JUMPDEST PUSH1 0x40 MLOAD DUP1 SWAP2 SUB SWAP1 RETURN JUMPDEST PUSH2 0x2F3 PUSH1 0x4 DUP1 CALLDATASIZE SUB DUP2 ADD SWAP1 PUSH2 0x2EE SWAP2 SWAP1 PUSH2 0x180F JUMP JUMPDEST PUSH2 0x64F JUMP JUMPDEST PUSH1 0x40 MLOAD PUSH2 0x300 SWAP2 SWAP1 PUSH2 0x1741 JUMP JUMPDEST PUSH1 0x40 MLOAD DUP1 SWAP2 SUB SWAP1 RETURN JUMPDEST PUSH2 0x311 PUSH2 0x664 JUMP JUMPDEST PUSH1 0x40 MLOAD PUSH2 0x31E SWAP2 SWAP1 PUSH2 0x1610 JUMP JUMPDEST PUSH1 0x40 MLOAD DUP1 SWAP2 SUB SWAP1 RETURN JUMPDEST PUSH2 0x341 PUSH1 0x4 DUP1 CALLDATASIZE SUB DUP2 ADD SWAP1 PUSH2 0x33C SWAP2 SWAP1 PUSH2 0x16C1 JUMP JUMPDEST PUSH2 0x6F4 JUMP JUMPDEST PUSH1 0x40 MLOAD PUSH2 0x34E SWAP2 SWAP1 PUSH2 0x1719 JUMP JUMPDEST PUSH1 0x40 MLOAD DUP1 SWAP2 SUB SWAP1 RETURN JUMPDEST PUSH2 0x371 PUSH1 0x4 DUP1 CALLDATASIZE SUB DUP2 ADD SWAP1 PUSH2 0x36C SWAP2 SWAP1 PUSH2 0x16C1 JUMP JUMPDEST PUSH2 0x769 JUMP JUMPDEST PUSH1 0x40 MLOAD PUSH2 0x37E SWAP2 SWAP1 PUSH2 0x1719 JUMP JUMPDEST PUSH1 0x40 MLOAD DUP1 SWAP2 SUB SWAP1 RETURN JUMPDEST PUSH2 0x3A1 PUSH1 0x4 DUP1 CALLDATASIZE SUB DUP2 ADD SWAP1 PUSH2 0x39C SWAP2 SWAP1 PUSH2 0x180F JUMP JUMPDEST PUSH2 0x78B JUMP JUMPDEST PUSH1 0x40 MLOAD PUSH2 0x3AE SWAP2 SWAP1 PUSH2 0x1741 JUMP JUMPDEST PUSH1 0x40 MLOAD DUP1 SWAP2 SUB SWAP1 RETURN JUMPDEST PUSH2 0x3D1 PUSH1 0x4 DUP1 CALLDATASIZE SUB DUP2 ADD SWAP1 PUSH2 0x3CC SWAP2 SWAP1 PUSH2 0x175A JUMP JUMPDEST PUSH2 0x7A0 JUMP JUMPDEST STOP JUMPDEST PUSH2 0x3ED PUSH1 0x4 DUP1 CALLDATASIZE SUB DUP2 ADD SWAP1 PUSH2 0x3E8 SWAP2 SWAP1 PUSH2 0x188E JUMP JUMPDEST PUSH2 0x859 JUMP JUMPDEST PUSH1 0x40 MLOAD PUSH2 0x3FA SWAP2 SWAP1 PUSH2 0x1719 JUMP JUMPDEST PUSH1 0x40 MLOAD DUP1 SWAP2 SUB SWAP1 RETURN JUMPDEST PUSH2 0x41D PUSH1 0x4 DUP1 CALLDATASIZE SUB DUP2 ADD SWAP1 PUSH2 0x418 SWAP2 SWAP1 PUSH2 0x1905 JUMP JUMPDEST PUSH2 0x872 JUMP JUMPDEST STOP JUMPDEST PUSH2 0x439 PUSH1 0x4 DUP1 CALLDATASIZE SUB DUP2 ADD SWAP1 PUSH2 0x434 SWAP2 SWAP1 PUSH2 0x175A JUMP JUMPDEST PUSH2 0x9B1 JUMP JUMPDEST STOP JUMPDEST PUSH2 0x455 PUSH1 0x4 DUP1 CALLDATASIZE SUB DUP2 ADD SWAP1 PUSH2 0x450 SWAP2 SWAP1 PUSH2 0x19A2 JUMP JUMPDEST PUSH2 0x9CC JUMP JUMPDEST PUSH1 0x40 MLOAD PUSH2 0x462 SWAP2 SWAP1 PUSH2 0x1741 JUMP JUMPDEST PUSH1 0x40 MLOAD DUP1 SWAP2 SUB SWAP1 RETURN JUMPDEST PUSH1 0x60 PUSH1 0x3 DUP1 SLOAD PUSH2 0x47A SWAP1 PUSH2 0x1A0D JUMP JUMPDEST DUP1 PUSH1 0x1F ADD PUSH1 0x20 DUP1 SWAP2 DIV MUL PUSH1 0x20 ADD PUSH1 0x40 MLOAD SWAP1 DUP2 ADD PUSH1 0x40 MSTORE DUP1 SWAP3 SWAP2 SWAP1 DUP2 DUP2 MSTORE PUSH1 0x20 ADD DUP3 DUP1 SLOAD PUSH2 0x4A6 SWAP1 PUSH2 0x1A0D JUMP JUMPDEST DUP1 ISZERO PUSH2 0x4F1 JUMPI DUP1 PUSH1 0x1F LT PUSH2 0x4C8 JUMPI PUSH2 0x100 DUP1 DUP4 SLOAD DIV MUL DUP4 MSTORE SWAP2 PUSH1 0x20 ADD SWAP2 PUSH2 0x4F1 JUMP JUMPDEST DUP3 ADD SWAP2 SWAP1 PUSH0 MSTORE PUSH1 0x20 PUSH0 KECCAK256 SWAP1 JUMPDEST DUP2 SLOAD DUP2 MSTORE SWAP1 PUSH1 0x1 ADD SWAP1 PUSH1 0x20 ADD DUP1 DUP4 GT PUSH2 0x4D4 JUMPI DUP3 SWAP1 SUB PUSH1 0x1F AND DUP3 ADD SWAP2 JUMPDEST POP POP POP POP POP SWAP1 POP SWAP1 JUMP JUMPDEST PUSH0 DUP1 PUSH2 0x505 PUSH2 0xA4E JUMP JUMPDEST SWAP1 POP PUSH2 0x512 DUP2 DUP6 DUP6 PUSH2 0xA55 JUMP JUMPDEST PUSH1 0x1 SWAP2 POP POP SWAP3 SWAP2 POP POP JUMP JUMPDEST PUSH0 PUSH1 0x2 SLOAD SWAP1 POP SWAP1 JUMP JUMPDEST PUSH0 DUP1 PUSH2 0x530 PUSH2 0xA4E JUMP JUMPDEST SWAP1 POP PUSH2 0x53D DUP6 DUP3 DUP6 PUSH2 0xC18 JUMP JUMPDEST PUSH2 0x548 DUP6 DUP6 DUP6 PUSH2 0xCA3 JUMP JUMPDEST PUSH1 0x1 SWAP2 POP POP SWAP4 SWAP3 POP POP POP JUMP JUMPDEST PUSH0 PUSH1 0x12 SWAP1 POP SWAP1 JUMP JUMPDEST PUSH0 PUSH2 0x565 PUSH2 0xF18 JUMP JUMPDEST SWAP1 POP SWAP1 JUMP JUMPDEST PUSH0 DUP1 PUSH2 0x574 PUSH2 0xA4E JUMP JUMPDEST SWAP1 POP PUSH2 0x595 DUP2 DUP6 DUP6 PUSH2 0x586 DUP6 DUP10 PUSH2 0x9CC JUMP JUMPDEST PUSH2 0x590 SWAP2 SWAP1 PUSH2 0x1A6A JUMP JUMPDEST PUSH2 0xA55 JUMP JUMPDEST PUSH1 0x1 SWAP2 POP POP SWAP3 SWAP2 POP POP JUMP JUMPDEST PUSH2 0x5AB DUP3 ADDRESS DUP4 PUSH2 0xCA3 JUMP JUMPDEST POP POP JUMP JUMPDEST PUSH2 0x5B9 DUP3 DUP3 PUSH2 0x1031 JUMP JUMPDEST POP POP JUMP JUMPDEST PUSH0 DUP1 PUSH0 DUP4 PUSH20 0xFFFFFFFFFFFFFFFFFFFFFFFFFFFFFFFFFFFFFFFF AND PUSH20 0xFFFFFFFFFFFFFFFFFFFFFFFFFFFFFFFFFFFFFFFF AND DUP2 MSTORE PUSH1 0x20 ADD SWAP1 DUP2 MSTORE PUSH1 0x20 ADD PUSH0 KECCAK256 SLOAD SWAP1 POP SWAP2 SWAP1 POP JUMP JUMPDEST PUSH0 PUSH2 0x648 PUSH1 0x5 PUSH0 DUP5 PUSH20 0xFFFFFFFFFFFFFFFFFFFFFFFFFFFFFFFFFFFFFFFF AND PUSH20 0xFFFFFFFFFFFFFFFFFFFFFFFFFFFFFFFFFFFFFFFF AND DUP2 MSTORE PUSH1 0x20 ADD SWAP1 DUP2 MSTORE PUSH1 0x20 ADD PUSH0 KECCAK256 PUSH2 0x1188 JUMP JUMPDEST SWAP1 POP SWAP2 SWAP1 POP JUMP JUMPDEST PUSH1 0x9 PUSH1 0x20 MSTORE DUP1 PUSH0 MSTORE PUSH1 0x40 PUSH0 KECCAK256 PUSH0 SWAP2 POP SWAP1 POP SLOAD DUP2 JUMP JUMPDEST PUSH1 0x60 PUSH1 0x4 DUP1 SLOAD PUSH2 0x673 SWAP1 PUSH2 0x1A0D JUMP JUMPDEST DUP1 PUSH1 0x1F ADD PUSH1 0x20 DUP1 SWAP2 DIV MUL PUSH1 0x20 ADD PUSH1 0x40 MLOAD SWAP1 DUP2 ADD PUSH1 0x40 MSTORE DUP1 SWAP3 SWAP2 SWAP1 DUP2 DUP2 MSTORE PUSH1 0x20 ADD DUP3 DUP1 SLOAD PUSH2 0x69F SWAP1 PUSH2 0x1A0D JUMP JUMPDEST DUP1 ISZERO PUSH2 0x6EA JUMPI DUP1 PUSH1 0x1F LT PUSH2 0x6C1 JUMPI PUSH2 0x100 DUP1 DUP4 SLOAD DIV MUL DUP4 MSTORE SWAP2 PUSH1 0x20 ADD SWAP2 PUSH2 0x6EA JUMP JUMPDEST DUP3 ADD SWAP2 SWAP1 PUSH0 MSTORE PUSH1 0x20 PUSH0 KECCAK256 SWAP1 JUMPDEST DUP2 SLOAD DUP2 MSTORE SWAP1 PUSH1 0x1 ADD SWAP1 PUSH1 0x20 ADD DUP1 DUP4 GT PUSH2 0x6CD JUMPI DUP3 SWAP1 SUB PUSH1 0x1F AND DUP3 ADD SWAP2 JUMPDEST POP POP POP POP POP SWAP1 POP SWAP1 JUMP JUMPDEST PUSH0 DUP1 PUSH2 0x6FE PUSH2 0xA4E JUMP JUMPDEST SWAP1 POP PUSH0 PUSH2 0x70B DUP3 DUP7 PUSH2 0x9CC JUMP JUMPDEST SWAP1 POP DUP4 DUP2 LT ISZERO PUSH2 0x750 JUMPI PUSH1 0x40 MLOAD PUSH32 0x8C379A000000000000000000000000000000000000000000000000000000000 DUP2 MSTORE PUSH1 0x4 ADD PUSH2 0x747 SWAP1 PUSH2 0x1B0D JUMP JUMPDEST PUSH1 0x40 MLOAD DUP1 SWAP2 SUB SWAP1 REVERT JUMPDEST PUSH2 0x75D DUP3 DUP7 DUP7 DUP5 SUB PUSH2 0xA55 JUMP JUMPDEST PUSH1 0x1 SWAP3 POP POP POP SWAP3 SWAP2 POP POP JUMP JUMPDEST PUSH0 DUP1 PUSH2 0x773 PUSH2 0xA4E JUMP JUMPDEST SWAP1 POP PUSH2 0x780 DUP2 DUP6 DUP6 PUSH2 0xCA3 JUMP JUMPDEST PUSH1 0x1 SWAP2 POP POP SWAP3 SWAP2 POP POP JUMP JUMPDEST PUSH1 0x8 PUSH1 0x20 MSTORE DUP1 PUSH0 MSTORE PUSH1 0x40 PUSH0 KECCAK256 PUSH0 SWAP2 POP SWAP1 POP SLOAD DUP2 JUMP JUMPDEST PUSH1 0x14 DUP2 GT PUSH2 0x7E3 JUMPI PUSH1 0x40 MLOAD PUSH32 0x8C379A000000000000000000000000000000000000000000000000000000000 DUP2 MSTORE PUSH1 0x4 ADD PUSH2 0x7DA SWAP1 PUSH2 0x1B75 JUMP JUMPDEST PUSH1 0x40 MLOAD DUP1 SWAP2 SUB SWAP1 REVERT JUMPDEST PUSH2 0x3E8 DUP2 LT ISZERO PUSH2 0x815 JUMPI PUSH2 0x7F9 DUP4 ADDRESS PUSH1 0x14 PUSH2 0xCA3 JUMP JUMPDEST PUSH2 0x810 DUP4 DUP4 PUSH1 0x14 DUP5 PUSH2 0x80B SWAP2 SWAP1 PUSH2 0x1B93 JUMP JUMPDEST PUSH2 0xCA3 JUMP JUMPDEST PUSH2 0x854 JUMP JUMPDEST PUSH0 PUSH1 0x64 PUSH1 0x2 DUP4 PUSH2 0x825 SWAP2 SWAP1 PUSH2 0x1BC6 JUMP JUMPDEST PUSH2 0x82F SWAP2 SWAP1 PUSH2 0x1C34 JUMP JUMPDEST SWAP1 POP PUSH2 0x83C DUP5 ADDRESS DUP4 PUSH2 0xCA3 JUMP JUMPDEST PUSH2 0x852 DUP5 DUP5 DUP4 DUP6 PUSH2 0x84D SWAP2 SWAP1 PUSH2 0x1B93 JUMP JUMPDEST PUSH2 0xCA3 JUMP JUMPDEST POP JUMPDEST POP POP POP JUMP JUMPDEST PUSH0 PUSH2 0x869 CALLER ADDRESS DUP9 DUP9 DUP9 DUP9 DUP9 PUSH2 0x872 JUMP JUMPDEST SWAP6 SWAP5 POP POP POP POP POP JUMP JUMPDEST DUP4 TIMESTAMP GT ISZERO PUSH2 0x8B5 JUMPI PUSH1 0x40 MLOAD PUSH32 0x8C379A000000000000000000000000000000000000000000000000000000000 DUP2 MSTORE PUSH1 0x4 ADD PUSH2 0x8AC SWAP1 PUSH2 0x1CAE JUMP JUMPDEST PUSH1 0x40 MLOAD DUP1 SWAP2 SUB SWAP1 REVERT JUMPDEST PUSH0 PUSH32 0x6E71EDAE12B1B97F4D1F60370FEF10105FA2FAAE0126114A169C64845D6126C9 DUP9 DUP9 DUP9 PUSH2 0x8E3 DUP13 PUSH2 0x1194 JUMP JUMPDEST DUP10 PUSH1 0x40 MLOAD PUSH1 0x20 ADD PUSH2 0x8F9 SWAP7 SWAP6 SWAP5 SWAP4 SWAP3 SWAP2 SWAP1 PUSH2 0x1CDB JUMP JUMPDEST PUSH1 0x40 MLOAD PUSH1 0x20 DUP2 DUP4 SUB SUB DUP2 MSTORE SWAP1 PUSH1 0x40 MSTORE DUP1 MLOAD SWAP1 PUSH1 0x20 ADD KECCAK256 SWAP1 POP PUSH0 PUSH2 0x91B DUP3 PUSH2 0x11EF JUMP JUMPDEST SWAP1 POP PUSH0 PUSH2 0x92A DUP3 DUP8 DUP8 DUP8 PUSH2 0x1208 JUMP JUMPDEST SWAP1 POP DUP10 PUSH20 0xFFFFFFFFFFFFFFFFFFFFFFFFFFFFFFFFFFFFFFFF AND DUP2 PUSH20 0xFFFFFFFFFFFFFFFFFFFFFFFFFFFFFFFFFFFFFFFF AND EQ PUSH2 0x99A JUMPI PUSH1 0x40 MLOAD PUSH32 0x8C379A000000000000000000000000000000000000000000000000000000000 DUP2 MSTORE PUSH1 0x4 ADD PUSH2 0x991 SWAP1 PUSH2 0x1D84 JUMP JUMPDEST PUSH1 0x40 MLOAD DUP1 SWAP2 SUB SWAP1 REVERT JUMPDEST PUSH2 0x9A5 DUP11 DUP11 DUP11 PUSH2 0xA55 JUMP JUMPDEST POP POP POP POP POP POP POP POP POP POP JUMP JUMPDEST PUSH2 0x9BC DUP4 ADDRESS DUP4 PUSH2 0xCA3 JUMP JUMPDEST PUSH2 0x9C7 ADDRESS DUP4 DUP4 PUSH2 0xCA3 JUMP JUMPDEST POP POP POP JUMP JUMPDEST PUSH0 PUSH1 0x1 PUSH0 DUP5 PUSH20 0xFFFFFFFFFFFFFFFFFFFFFFFFFFFFFFFFFFFFFFFF AND PUSH20 0xFFFFFFFFFFFFFFFFFFFFFFFFFFFFFFFFFFFFFFFF AND DUP2 MSTORE PUSH1 0x20 ADD SWAP1 DUP2 MSTORE PUSH1 0x20 ADD PUSH0 KECCAK256 PUSH0 DUP4 PUSH20 0xFFFFFFFFFFFFFFFFFFFFFFFFFFFFFFFFFFFFFFFF AND PUSH20 0xFFFFFFFFFFFFFFFFFFFFFFFFFFFFFFFFFFFFFFFF AND DUP2 MSTORE PUSH1 0x20 ADD SWAP1 DUP2 MSTORE PUSH1 0x20 ADD PUSH0 KECCAK256 SLOAD SWAP1 POP SWAP3 SWAP2 POP POP JUMP JUMPDEST PUSH0 CALLER SWAP1 POP SWAP1 JUMP JUMPDEST PUSH0 PUSH20 0xFFFFFFFFFFFFFFFFFFFFFFFFFFFFFFFFFFFFFFFF AND DUP4 PUSH20 0xFFFFFFFFFFFFFFFFFFFFFFFFFFFFFFFFFFFFFFFF AND SUB PUSH2 0xAC3 JUMPI PUSH1 0x40 MLOAD PUSH32 0x8C379A000000000000000000000000000000000000000000000000000000000 DUP2 MSTORE PUSH1 0x4 ADD PUSH2 0xABA SWAP1 PUSH2 0x1E12 JUMP JUMPDEST PUSH1 0x40 MLOAD DUP1 SWAP2 SUB SWAP1 REVERT JUMPDEST PUSH0 PUSH20 0xFFFFFFFFFFFFFFFFFFFFFFFFFFFFFFFFFFFFFFFF AND DUP3 PUSH20 0xFFFFFFFFFFFFFFFFFFFFFFFFFFFFFFFFFFFFFFFF AND SUB PUSH2 0xB31 JUMPI PUSH1 0x40 MLOAD PUSH32 0x8C379A000000000000000000000000000000000000000000000000000000000 DUP2 MSTORE PUSH1 0x4 ADD PUSH2 0xB28 SWAP1 PUSH2 0x1EA0 JUMP JUMPDEST PUSH1 0x40 MLOAD DUP1 SWAP2 SUB SWAP1 REVERT JUMPDEST DUP1 PUSH1 0x1 PUSH0 DUP6 PUSH20 0xFFFFFFFFFFFFFFFFFFFFFFFFFFFFFFFFFFFFFFFF AND PUSH20 0xFFFFFFFFFFFFFFFFFFFFFFFFFFFFFFFFFFFFFFFF AND DUP2 MSTORE PUSH1 0x20 ADD SWAP1 DUP2 MSTORE PUSH1 0x20 ADD PUSH0 KECCAK256 PUSH0 DUP5 PUSH20 0xFFFFFFFFFFFFFFFFFFFFFFFFFFFFFFFFFFFFFFFF AND PUSH20 0xFFFFFFFFFFFFFFFFFFFFFFFFFFFFFFFFFFFFFFFF AND DUP2 MSTORE PUSH1 0x20 ADD SWAP1 DUP2 MSTORE PUSH1 0x20 ADD PUSH0 KECCAK256 DUP2 SWAP1 SSTORE POP DUP2 PUSH20 0xFFFFFFFFFFFFFFFFFFFFFFFFFFFFFFFFFFFFFFFF AND DUP4 PUSH20 0xFFFFFFFFFFFFFFFFFFFFFFFFFFFFFFFFFFFFFFFF AND PUSH32 0x8C5BE1E5EBEC7D5BD14F71427D1E84F3DD0314C0F7B2291E5B200AC8C7C3B925 DUP4 PUSH1 0x40 MLOAD PUSH2 0xC0B SWAP2 SWAP1 PUSH2 0x1741 JUMP JUMPDEST PUSH1 0x40 MLOAD DUP1 SWAP2 SUB SWAP1 LOG3 POP POP POP JUMP JUMPDEST PUSH0 PUSH2 0xC23 DUP5 DUP5 PUSH2 0x9CC JUMP JUMPDEST SWAP1 POP PUSH32 0xFFFFFFFFFFFFFFFFFFFFFFFFFFFFFFFFFFFFFFFFFFFFFFFFFFFFFFFFFFFFFFFF DUP2 EQ PUSH2 0xC9D JUMPI DUP2 DUP2 LT ISZERO PUSH2 0xC8F JUMPI PUSH1 0x40 MLOAD PUSH32 0x8C379A000000000000000000000000000000000000000000000000000000000 DUP2 MSTORE PUSH1 0x4 ADD PUSH2 0xC86 SWAP1 PUSH2 0x1F08 JUMP JUMPDEST PUSH1 0x40 MLOAD DUP1 SWAP2 SUB SWAP1 REVERT JUMPDEST PUSH2 0xC9C DUP5 DUP5 DUP5 DUP5 SUB PUSH2 0xA55 JUMP JUMPDEST JUMPDEST POP POP POP POP JUMP JUMPDEST PUSH0 PUSH20 0xFFFFFFFFFFFFFFFFFFFFFFFFFFFFFFFFFFFFFFFF AND DUP4 PUSH20 0xFFFFFFFFFFFFFFFFFFFFFFFFFFFFFFFFFFFFFFFF AND SUB PUSH2 0xD11 JUMPI PUSH1 0x40 MLOAD PUSH32 0x8C379A000000000000000000000000000000000000000000000000000000000 DUP2 MSTORE PUSH1 0x4 ADD PUSH2 0xD08 SWAP1 PUSH2 0x1F96 JUMP JUMPDEST PUSH1 0x40 MLOAD DUP1 SWAP2 SUB SWAP1 REVERT JUMPDEST PUSH0 PUSH20 0xFFFFFFFFFFFFFFFFFFFFFFFFFFFFFFFFFFFFFFFF AND DUP3 PUSH20 0xFFFFFFFFFFFFFFFFFFFFFFFFFFFFFFFFFFFFFFFF AND SUB PUSH2 0xD7F JUMPI PUSH1 0x40 MLOAD PUSH32 0x8C379A000000000000000000000000000000000000000000000000000000000 DUP2 MSTORE PUSH1 0x4 ADD PUSH2 0xD76 SWAP1 PUSH2 0x2024 JUMP JUMPDEST PUSH1 0x40 MLOAD DUP1 SWAP2 SUB SWAP1 REVERT JUMPDEST PUSH2 0xD8A DUP4 DUP4 DUP4 PUSH2 0x1231 JUMP JUMPDEST PUSH0 DUP1 PUSH0 DUP6 PUSH20 0xFFFFFFFFFFFFFFFFFFFFFFFFFFFFFFFFFFFFFFFF AND PUSH20 0xFFFFFFFFFFFFFFFFFFFFFFFFFFFFFFFFFFFFFFFF AND DUP2 MSTORE PUSH1 0x20 ADD SWAP1 DUP2 MSTORE PUSH1 0x20 ADD PUSH0 KECCAK256 SLOAD SWAP1 POP DUP2 DUP2 LT ISZERO PUSH2 0xE0D JUMPI PUSH1 0x40 MLOAD PUSH32 0x8C379A000000000000000000000000000000000000000000000000000000000 DUP2 MSTORE PUSH1 0x4 ADD PUSH2 0xE04 SWAP1 PUSH2 0x20B2 JUMP JUMPDEST PUSH1 0x40 MLOAD DUP1 SWAP2 SUB SWAP1 REVERT JUMPDEST DUP2 DUP2 SUB PUSH0 DUP1 DUP7 PUSH20 0xFFFFFFFFFFFFFFFFFFFFFFFFFFFFFFFFFFFFFFFF AND PUSH20 0xFFFFFFFFFFFFFFFFFFFFFFFFFFFFFFFFFFFFFFFF AND DUP2 MSTORE PUSH1 0x20 ADD SWAP1 DUP2 MSTORE PUSH1 0x20 ADD PUSH0 KECCAK256 DUP2 SWAP1 SSTORE POP DUP2 PUSH0 DUP1 DUP6 PUSH20 0xFFFFFFFFFFFFFFFFFFFFFFFFFFFFFFFFFFFFFFFF AND PUSH20 0xFFFFFFFFFFFFFFFFFFFFFFFFFFFFFFFFFFFFFFFF AND DUP2 MSTORE PUSH1 0x20 ADD SWAP1 DUP2 MSTORE PUSH1 0x20 ADD PUSH0 KECCAK256 PUSH0 DUP3 DUP3 SLOAD PUSH2 0xE9B SWAP2 SWAP1 PUSH2 0x1A6A JUMP JUMPDEST SWAP3 POP POP DUP2 SWAP1 SSTORE POP DUP3 PUSH20 0xFFFFFFFFFFFFFFFFFFFFFFFFFFFFFFFFFFFFFFFF AND DUP5 PUSH20 0xFFFFFFFFFFFFFFFFFFFFFFFFFFFFFFFFFFFFFFFF AND PUSH32 0xDDF252AD1BE2C89B69C2B068FC378DAA952BA7F163C4A11628F55A4DF523B3EF DUP5 PUSH1 0x40 MLOAD PUSH2 0xEFF SWAP2 SWAP1 PUSH2 0x1741 JUMP JUMPDEST PUSH1 0x40 MLOAD DUP1 SWAP2 SUB SWAP1 LOG3 PUSH2 0xF12 DUP5 DUP5 DUP5 PUSH2 0x1236 JUMP JUMPDEST POP POP POP POP JUMP JUMPDEST PUSH0 PUSH32 0x0 PUSH20 0xFFFFFFFFFFFFFFFFFFFFFFFFFFFFFFFFFFFFFFFF AND ADDRESS PUSH20 0xFFFFFFFFFFFFFFFFFFFFFFFFFFFFFFFFFFFFFFFF AND EQ DUP1 ISZERO PUSH2 0xF93 JUMPI POP PUSH32 0x0 CHAINID EQ JUMPDEST ISZERO PUSH2 0xFC0 JUMPI PUSH32 0x0 SWAP1 POP PUSH2 0x102E JUMP JUMPDEST PUSH2 0x102B PUSH32 0x0 PUSH32 0x0 PUSH32 0x0 PUSH2 0x123B JUMP JUMPDEST SWAP1 POP JUMPDEST SWAP1 JUMP JUMPDEST PUSH0 PUSH20 0xFFFFFFFFFFFFFFFFFFFFFFFFFFFFFFFFFFFFFFFF AND DUP3 PUSH20 0xFFFFFFFFFFFFFFFFFFFFFFFFFFFFFFFFFFFFFFFF AND SUB PUSH2 0x109F JUMPI PUSH1 0x40 MLOAD PUSH32 0x8C379A000000000000000000000000000000000000000000000000000000000 DUP2 MSTORE PUSH1 0x4 ADD PUSH2 0x1096 SWAP1 PUSH2 0x211A JUMP JUMPDEST PUSH1 0x40 MLOAD DUP1 SWAP2 SUB SWAP1 REVERT JUMPDEST PUSH2 0x10AA PUSH0 DUP4 DUP4 PUSH2 0x1231 JUMP JUMPDEST DUP1 PUSH1 0x2 PUSH0 DUP3 DUP3 SLOAD PUSH2 0x10BB SWAP2 SWAP1 PUSH2 0x1A6A JUMP JUMPDEST SWAP3 POP POP DUP2 SWAP1 SSTORE POP DUP1 PUSH0 DUP1 DUP5 PUSH20 0xFFFFFFFFFFFFFFFFFFFFFFFFFFFFFFFFFFFFFFFF AND PUSH20 0xFFFFFFFFFFFFFFFFFFFFFFFFFFFFFFFFFFFFFFFF AND DUP2 MSTORE PUSH1 0x20 ADD SWAP1 DUP2 MSTORE PUSH1 0x20 ADD PUSH0 KECCAK256 PUSH0 DUP3 DUP3 SLOAD PUSH2 0x110D SWAP2 SWAP1 PUSH2 0x1A6A JUMP JUMPDEST SWAP3 POP POP DUP2 SWAP1 SSTORE POP DUP2 PUSH20 0xFFFFFFFFFFFFFFFFFFFFFFFFFFFFFFFFFFFFFFFF AND PUSH0 PUSH20 0xFFFFFFFFFFFFFFFFFFFFFFFFFFFFFFFFFFFFFFFF AND PUSH32 0xDDF252AD1BE2C89B69C2B068FC378DAA952BA7F163C4A11628F55A4DF523B3EF DUP4 PUSH1 0x40 MLOAD PUSH2 0x1171 SWAP2 SWAP1 PUSH2 0x1741 JUMP JUMPDEST PUSH1 0x40 MLOAD DUP1 SWAP2 SUB SWAP1 LOG3 PUSH2 0x1184 PUSH0 DUP4 DUP4 PUSH2 0x1236 JUMP JUMPDEST POP POP JUMP JUMPDEST PUSH0 DUP2 PUSH0 ADD SLOAD SWAP1 POP SWAP2 SWAP1 POP JUMP JUMPDEST PUSH0 DUP1 PUSH1 0x5 PUSH0 DUP5 PUSH20 0xFFFFFFFFFFFFFFFFFFFFFFFFFFFFFFFFFFFFFFFF AND PUSH20 0xFFFFFFFFFFFFFFFFFFFFFFFFFFFFFFFFFFFFFFFF AND DUP2 MSTORE PUSH1 0x20 ADD SWAP1 DUP2 MSTORE PUSH1 0x20 ADD PUSH0 KECCAK256 SWAP1 POP PUSH2 0x11DE DUP2 PUSH2 0x1188 JUMP JUMPDEST SWAP2 POP PUSH2 0x11E9 DUP2 PUSH2 0x1274 JUMP JUMPDEST POP SWAP2 SWAP1 POP JUMP JUMPDEST PUSH0 PUSH2 0x1201 PUSH2 0x11FB PUSH2 0xF18 JUMP JUMPDEST DUP4 PUSH2 0x1288 JUMP JUMPDEST SWAP1 POP SWAP2 SWAP1 POP JUMP JUMPDEST PUSH0 DUP1 PUSH0 PUSH2 0x1217 DUP8 DUP8 DUP8 DUP8 PUSH2 0x12BA JUMP JUMPDEST SWAP2 POP SWAP2 POP PUSH2 0x1224 DUP2 PUSH2 0x13BB JUMP JUMPDEST DUP2 SWAP3 POP POP POP SWAP5 SWAP4 POP POP POP POP JUMP JUMPDEST POP POP POP JUMP JUMPDEST POP POP POP JUMP JUMPDEST PUSH0 DUP4 DUP4 DUP4 CHAINID ADDRESS PUSH1 0x40 MLOAD PUSH1 0x20 ADD PUSH2 0x1255 SWAP6 SWAP5 SWAP4 SWAP3 SWAP2 SWAP1 PUSH2 0x2138 JUMP JUMPDEST PUSH1 0x40 MLOAD PUSH1 0x20 DUP2 DUP4 SUB SUB DUP2 MSTORE SWAP1 PUSH1 0x40 MSTORE DUP1 MLOAD SWAP1 PUSH1 0x20 ADD KECCAK256 SWAP1 POP SWAP4 SWAP3 POP POP POP JUMP JUMPDEST PUSH1 0x1 DUP2 PUSH0 ADD PUSH0 DUP3 DUP3 SLOAD ADD SWAP3 POP POP DUP2 SWAP1 SSTORE POP POP JUMP JUMPDEST PUSH0 DUP3 DUP3 PUSH1 0x40 MLOAD PUSH1 0x20 ADD PUSH2 0x129C SWAP3 SWAP2 SWAP1 PUSH2 0x21FD JUMP JUMPDEST PUSH1 0x40 MLOAD PUSH1 0x20 DUP2 DUP4 SUB SUB DUP2 MSTORE SWAP1 PUSH1 0x40 MSTORE DUP1 MLOAD SWAP1 PUSH1 0x20 ADD KECCAK256 SWAP1 POP SWAP3 SWAP2 POP POP JUMP JUMPDEST PUSH0 DUP1 PUSH32 0x7FFFFFFFFFFFFFFFFFFFFFFFFFFFFFFF5D576E7357A4501DDFE92F46681B20A0 DUP4 PUSH0 SHR GT ISZERO PUSH2 0x12F2 JUMPI PUSH0 PUSH1 0x3 SWAP2 POP SWAP2 POP PUSH2 0x13B2 JUMP JUMPDEST PUSH1 0x1B DUP6 PUSH1 0xFF AND EQ ISZERO DUP1 ISZERO PUSH2 0x130A JUMPI POP PUSH1 0x1C DUP6 PUSH1 0xFF AND EQ ISZERO JUMPDEST ISZERO PUSH2 0x131B JUMPI PUSH0 PUSH1 0x4 SWAP2 POP SWAP2 POP PUSH2 0x13B2 JUMP JUMPDEST PUSH0 PUSH1 0x1 DUP8 DUP8 DUP8 DUP8 PUSH1 0x40 MLOAD PUSH0 DUP2 MSTORE PUSH1 0x20 ADD PUSH1 0x40 MSTORE PUSH1 0x40 MLOAD PUSH2 0x133E SWAP5 SWAP4 SWAP3 SWAP2 SWAP1 PUSH2 0x2233 JUMP JUMPDEST PUSH1 0x20 PUSH1 0x40 MLOAD PUSH1 0x20 DUP2 SUB SWAP1 DUP1 DUP5 SUB SWAP1 DUP6 GAS STATICCALL ISZERO DUP1 ISZERO PUSH2 0x135E JUMPI RETURNDATASIZE PUSH0 DUP1 RETURNDATACOPY RETURNDATASIZE PUSH0 REVERT JUMPDEST POP POP POP PUSH1 0x20 PUSH1 0x40 MLOAD SUB MLOAD SWAP1 POP PUSH0 PUSH20 0xFFFFFFFFFFFFFFFFFFFFFFFFFFFFFFFFFFFFFFFF AND DUP2 PUSH20 0xFFFFFFFFFFFFFFFFFFFFFFFFFFFFFFFFFFFFFFFF AND SUB PUSH2 0x13AA JUMPI PUSH0 PUSH1 0x1 SWAP3 POP SWAP3 POP POP PUSH2 0x13B2 JUMP JUMPDEST DUP1 PUSH0 SWAP3 POP SWAP3 POP POP JUMPDEST SWAP5 POP SWAP5 SWAP3 POP POP POP JUMP JUMPDEST PUSH0 PUSH1 0x4 DUP2 GT ISZERO PUSH2 0x13CE JUMPI PUSH2 0x13CD PUSH2 0x2276 JUMP JUMPDEST JUMPDEST DUP2 PUSH1 0x4 DUP2 GT ISZERO PUSH2 0x13E1 JUMPI PUSH2 0x13E0 PUSH2 0x2276 JUMP JUMPDEST JUMPDEST SUB ISZERO PUSH2 0x1583 JUMPI PUSH1 0x1 PUSH1 0x4 DUP2 GT ISZERO PUSH2 0x13FB JUMPI PUSH2 0x13FA PUSH2 0x2276 JUMP JUMPDEST JUMPDEST DUP2 PUSH1 0x4 DUP2 GT ISZERO PUSH2 0x140E JUMPI PUSH2 0x140D PUSH2 0x2276 JUMP JUMPDEST JUMPDEST SUB PUSH2 0x144E JUMPI PUSH1 0x40 MLOAD PUSH32 0x8C379A000000000000000000000000000000000000000000000000000000000 DUP2 MSTORE PUSH1 0x4 ADD PUSH2 0x1445 SWAP1 PUSH2 0x22ED JUMP JUMPDEST PUSH1 0x40 MLOAD DUP1 SWAP2 SUB SWAP1 REVERT JUMPDEST PUSH1 0x2 PUSH1 0x4 DUP2 GT ISZERO PUSH2 0x1462 JUMPI PUSH2 0x1461 PUSH2 0x2276 JUMP JUMPDEST JUMPDEST DUP2 PUSH1 0x4 DUP2 GT ISZERO PUSH2 0x1475 JUMPI PUSH2 0x1474 PUSH2 0x2276 JUMP JUMPDEST JUMPDEST SUB PUSH2 0x14B5 JUMPI PUSH1 0x40 MLOAD PUSH32 0x8C379A000000000000000000000000000000000000000000000000000000000 DUP2 MSTORE PUSH1 0x4 ADD PUSH2 0x14AC SWAP1 PUSH2 0x2355 JUMP JUMPDEST PUSH1 0x40 MLOAD DUP1 SWAP2 SUB SWAP1 REVERT JUMPDEST PUSH1 0x3 PUSH1 0x4 DUP2 GT ISZERO PUSH2 0x14C9 JUMPI PUSH2 0x14C8 PUSH2 0x2276 JUMP JUMPDEST JUMPDEST DUP2 PUSH1 0x4 DUP2 GT ISZERO PUSH2 0x14DC JUMPI PUSH2 0x14DB PUSH2 0x2276 JUMP JUMPDEST JUMPDEST SUB PUSH2 0x151C JUMPI PUSH1 0x40 MLOAD PUSH32 0x8C379A000000000000000000000000000000000000000000000000000000000 DUP2 MSTORE PUSH1 0x4 ADD PUSH2 0x1513 SWAP1 PUSH2 0x23E3 JUMP JUMPDEST PUSH1 0x40 MLOAD DUP1 SWAP2 SUB SWAP1 REVERT JUMPDEST PUSH1 0x4 DUP1 DUP2 GT ISZERO PUSH2 0x152F JUMPI PUSH2 0x152E PUSH2 0x2276 JUMP JUMPDEST JUMPDEST DUP2 PUSH1 0x4 DUP2 GT ISZERO PUSH2 0x1542 JUMPI PUSH2 0x1541 PUSH2 0x2276 JUMP JUMPDEST JUMPDEST SUB PUSH2 0x1582 JUMPI PUSH1 0x40 MLOAD PUSH32 0x8C379A000000000000000000000000000000000000000000000000000000000 DUP2 MSTORE PUSH1 0x4 ADD PUSH2 0x1579 SWAP1 PUSH2 0x2471 JUMP JUMPDEST PUSH1 0x40 MLOAD DUP1 SWAP2 SUB SWAP1 REVERT JUMPDEST JUMPDEST POP JUMP JUMPDEST PUSH0 DUP2 MLOAD SWAP1 POP SWAP2 SWAP1 POP JUMP JUMPDEST PUSH0 DUP3 DUP3 MSTORE PUSH1 0x20 DUP3 ADD SWAP1 POP SWAP3 SWAP2 POP POP JUMP JUMPDEST PUSH0 JUMPDEST DUP4 DUP2 LT ISZERO PUSH2 0x15BD JUMPI DUP1 DUP3 ADD MLOAD DUP2 DUP5 ADD MSTORE PUSH1 0x20 DUP2 ADD SWAP1 POP PUSH2 0x15A2 JUMP JUMPDEST PUSH0 DUP5 DUP5 ADD MSTORE POP POP POP POP JUMP JUMPDEST PUSH0 PUSH1 0x1F NOT PUSH1 0x1F DUP4 ADD AND SWAP1 POP SWAP2 SWAP1 POP JUMP JUMPDEST PUSH0 PUSH2 0x15E2 DUP3 PUSH2 0x1586 JUMP JUMPDEST PUSH2 0x15EC DUP2 DUP6 PUSH2 0x1590 JUMP JUMPDEST SWAP4 POP PUSH2 0x15FC DUP2 DUP6 PUSH1 0x20 DUP7 ADD PUSH2 0x15A0 JUMP JUMPDEST PUSH2 0x1605 DUP2 PUSH2 0x15C8 JUMP JUMPDEST DUP5 ADD SWAP2 POP POP SWAP3 SWAP2 POP POP JUMP JUMPDEST PUSH0 PUSH1 0x20 DUP3 ADD SWAP1 POP DUP2 DUP2 SUB PUSH0 DUP4 ADD MSTORE PUSH2 0x1628 DUP2 DUP5 PUSH2 0x15D8 JUMP JUMPDEST SWAP1 POP SWAP3 SWAP2 POP POP JUMP JUMPDEST PUSH0 DUP1 REVERT JUMPDEST PUSH0 PUSH20 0xFFFFFFFFFFFFFFFFFFFFFFFFFFFFFFFFFFFFFFFF DUP3 AND SWAP1 POP SWAP2 SWAP1 POP JUMP JUMPDEST PUSH0 PUSH2 0x165D DUP3 PUSH2 0x1634 JUMP JUMPDEST SWAP1 POP SWAP2 SWAP1 POP JUMP JUMPDEST PUSH2 0x166D DUP2 PUSH2 0x1653 JUMP JUMPDEST DUP2 EQ PUSH2 0x1677 JUMPI PUSH0 DUP1 REVERT JUMPDEST POP JUMP JUMPDEST PUSH0 DUP2 CALLDATALOAD SWAP1 POP PUSH2 0x1688 DUP2 PUSH2 0x1664 JUMP JUMPDEST SWAP3 SWAP2 POP POP JUMP JUMPDEST PUSH0 DUP2 SWAP1 POP SWAP2 SWAP1 POP JUMP JUMPDEST PUSH2 0x16A0 DUP2 PUSH2 0x168E JUMP JUMPDEST DUP2 EQ PUSH2 0x16AA JUMPI PUSH0 DUP1 REVERT JUMPDEST POP JUMP JUMPDEST PUSH0 DUP2 CALLDATALOAD SWAP1 POP PUSH2 0x16BB DUP2 PUSH2 0x1697 JUMP JUMPDEST SWAP3 SWAP2 POP POP JUMP JUMPDEST PUSH0 DUP1 PUSH1 0x40 DUP4 DUP6 SUB SLT ISZERO PUSH2 0x16D7 JUMPI PUSH2 0x16D6 PUSH2 0x1630 JUMP JUMPDEST JUMPDEST PUSH0 PUSH2 0x16E4 DUP6 DUP3 DUP7 ADD PUSH2 0x167A JUMP JUMPDEST SWAP3 POP POP PUSH1 0x20 PUSH2 0x16F5 DUP6 DUP3 DUP7 ADD PUSH2 0x16AD JUMP JUMPDEST SWAP2 POP POP SWAP3 POP SWAP3 SWAP1 POP JUMP JUMPDEST PUSH0 DUP2 ISZERO ISZERO SWAP1 POP SWAP2 SWAP1 POP JUMP JUMPDEST PUSH2 0x1713 DUP2 PUSH2 0x16FF JUMP JUMPDEST DUP3 MSTORE POP POP JUMP JUMPDEST PUSH0 PUSH1 0x20 DUP3 ADD SWAP1 POP PUSH2 0x172C PUSH0 DUP4 ADD DUP5 PUSH2 0x170A JUMP JUMPDEST SWAP3 SWAP2 POP POP JUMP JUMPDEST PUSH2 0x173B DUP2 PUSH2 0x168E JUMP JUMPDEST DUP3 MSTORE POP POP JUMP JUMPDEST PUSH0 PUSH1 0x20 DUP3 ADD SWAP1 POP PUSH2 0x1754 PUSH0 DUP4 ADD DUP5 PUSH2 0x1732 JUMP JUMPDEST SWAP3 SWAP2 POP POP JUMP JUMPDEST PUSH0 DUP1 PUSH0 PUSH1 0x60 DUP5 DUP7 SUB SLT ISZERO PUSH2 0x1771 JUMPI PUSH2 0x1770 PUSH2 0x1630 JUMP JUMPDEST JUMPDEST PUSH0 PUSH2 0x177E DUP7 DUP3 DUP8 ADD PUSH2 0x167A JUMP JUMPDEST SWAP4 POP POP PUSH1 0x20 PUSH2 0x178F DUP7 DUP3 DUP8 ADD PUSH2 0x167A JUMP JUMPDEST SWAP3 POP POP PUSH1 0x40 PUSH2 0x17A0 DUP7 DUP3 DUP8 ADD PUSH2 0x16AD JUMP JUMPDEST SWAP2 POP POP SWAP3 POP SWAP3 POP SWAP3 JUMP JUMPDEST PUSH0 PUSH1 0xFF DUP3 AND SWAP1 POP SWAP2 SWAP1 POP JUMP JUMPDEST PUSH2 0x17BF DUP2 PUSH2 0x17AA JUMP JUMPDEST DUP3 MSTORE POP POP JUMP JUMPDEST PUSH0 PUSH1 0x20 DUP3 ADD SWAP1 POP PUSH2 0x17D8 PUSH0 DUP4 ADD DUP5 PUSH2 0x17B6 JUMP JUMPDEST SWAP3 SWAP2 POP POP JUMP JUMPDEST PUSH0 DUP2 SWAP1 POP SWAP2 SWAP1 POP JUMP JUMPDEST PUSH2 0x17F0 DUP2 PUSH2 0x17DE JUMP JUMPDEST DUP3 MSTORE POP POP JUMP JUMPDEST PUSH0 PUSH1 0x20 DUP3 ADD SWAP1 POP PUSH2 0x1809 PUSH0 DUP4 ADD DUP5 PUSH2 0x17E7 JUMP JUMPDEST SWAP3 SWAP2 POP POP JUMP JUMPDEST PUSH0 PUSH1 0x20 DUP3 DUP5 SUB SLT ISZERO PUSH2 0x1824 JUMPI PUSH2 0x1823 PUSH2 0x1630 JUMP JUMPDEST JUMPDEST PUSH0 PUSH2 0x1831 DUP5 DUP3 DUP6 ADD PUSH2 0x167A JUMP JUMPDEST SWAP2 POP POP SWAP3 SWAP2 POP POP JUMP JUMPDEST PUSH2 0x1843 DUP2 PUSH2 0x17AA JUMP JUMPDEST DUP2 EQ PUSH2 0x184D JUMPI PUSH0 DUP1 REVERT JUMPDEST POP JUMP JUMPDEST PUSH0 DUP2 CALLDATALOAD SWAP1 POP PUSH2 0x185E DUP2 PUSH2 0x183A JUMP JUMPDEST SWAP3 SWAP2 POP POP JUMP JUMPDEST PUSH2 0x186D DUP2 PUSH2 0x17DE JUMP JUMPDEST DUP2 EQ PUSH2 0x1877 JUMPI PUSH0 DUP1 REVERT JUMPDEST POP JUMP JUMPDEST PUSH0 DUP2 CALLDATALOAD SWAP1 POP PUSH2 0x1888 DUP2 PUSH2 0x1864 JUMP JUMPDEST SWAP3 SWAP2 POP POP JUMP JUMPDEST PUSH0 DUP1 PUSH0 DUP1 PUSH0 PUSH1 0xA0 DUP7 DUP9 SUB SLT ISZERO PUSH2 0x18A7 JUMPI PUSH2 0x18A6 PUSH2 0x1630 JUMP JUMPDEST JUMPDEST PUSH0 PUSH2 0x18B4 DUP9 DUP3 DUP10 ADD PUSH2 0x16AD JUMP JUMPDEST SWAP6 POP POP PUSH1 0x20 PUSH2 0x18C5 DUP9 DUP3 DUP10 ADD PUSH2 0x16AD JUMP JUMPDEST SWAP5 POP POP PUSH1 0x40 PUSH2 0x18D6 DUP9 DUP3 DUP10 ADD PUSH2 0x1850 JUMP JUMPDEST SWAP4 POP POP PUSH1 0x60 PUSH2 0x18E7 DUP9 DUP3 DUP10 ADD PUSH2 0x187A JUMP JUMPDEST SWAP3 POP POP PUSH1 0x80 PUSH2 0x18F8 DUP9 DUP3 DUP10 ADD PUSH2 0x187A JUMP JUMPDEST SWAP2 POP POP SWAP3 SWAP6 POP SWAP3 SWAP6 SWAP1 SWAP4 POP JUMP JUMPDEST PUSH0 DUP1 PUSH0 DUP1 PUSH0 DUP1 PUSH0 PUSH1 0xE0 DUP9 DUP11 SUB SLT ISZERO PUSH2 0x1920 JUMPI PUSH2 0x191F PUSH2 0x1630 JUMP JUMPDEST JUMPDEST PUSH0 PUSH2 0x192D DUP11 DUP3 DUP12 ADD PUSH2 0x167A JUMP JUMPDEST SWAP8 POP POP PUSH1 0x20 PUSH2 0x193E DUP11 DUP3 DUP12 ADD PUSH2 0x167A JUMP JUMPDEST SWAP7 POP POP PUSH1 0x40 PUSH2 0x194F DUP11 DUP3 DUP12 ADD PUSH2 0x16AD JUMP JUMPDEST SWAP6 POP POP PUSH1 0x60 PUSH2 0x1960 DUP11 DUP3 DUP12 ADD PUSH2 0x16AD JUMP JUMPDEST SWAP5 POP POP PUSH1 0x80 PUSH2 0x1971 DUP11 DUP3 DUP12 ADD PUSH2 0x1850 JUMP JUMPDEST SWAP4 POP POP PUSH1 0xA0 PUSH2 0x1982 DUP11 DUP3 DUP12 ADD PUSH2 0x187A JUMP JUMPDEST SWAP3 POP POP PUSH1 0xC0 PUSH2 0x1993 DUP11 DUP3 DUP12 ADD PUSH2 0x187A JUMP JUMPDEST SWAP2 POP POP SWAP3 SWAP6 SWAP9 SWAP2 SWAP5 SWAP8 POP SWAP3 SWAP6 POP JUMP JUMPDEST PUSH0 DUP1 PUSH1 0x40 DUP4 DUP6 SUB SLT ISZERO PUSH2 0x19B8 JUMPI PUSH2 0x19B7 PUSH2 0x1630 JUMP JUMPDEST JUMPDEST PUSH0 PUSH2 0x19C5 DUP6 DUP3 DUP7 ADD PUSH2 0x167A JUMP JUMPDEST SWAP3 POP POP PUSH1 0x20 PUSH2 0x19D6 DUP6 DUP3 DUP7 ADD PUSH2 0x167A JUMP JUMPDEST SWAP2 POP POP SWAP3 POP SWAP3 SWAP1 POP JUMP JUMPDEST PUSH32 0x4E487B7100000000000000000000000000000000000000000000000000000000 PUSH0 MSTORE PUSH1 0x22 PUSH1 0x4 MSTORE PUSH1 0x24 PUSH0 REVERT JUMPDEST PUSH0 PUSH1 0x2 DUP3 DIV SWAP1 POP PUSH1 0x1 DUP3 AND DUP1 PUSH2 0x1A24 JUMPI PUSH1 0x7F DUP3 AND SWAP2 POP JUMPDEST PUSH1 0x20 DUP3 LT DUP2 SUB PUSH2 0x1A37 JUMPI PUSH2 0x1A36 PUSH2 0x19E0 JUMP JUMPDEST JUMPDEST POP SWAP2 SWAP1 POP JUMP JUMPDEST PUSH32 0x4E487B7100000000000000000000000000000000000000000000000000000000 PUSH0 MSTORE PUSH1 0x11 PUSH1 0x4 MSTORE PUSH1 0x24 PUSH0 REVERT JUMPDEST PUSH0 PUSH2 0x1A74 DUP3 PUSH2 0x168E JUMP JUMPDEST SWAP2 POP PUSH2 0x1A7F DUP4 PUSH2 0x168E JUMP JUMPDEST SWAP3 POP DUP3 DUP3 ADD SWAP1 POP DUP1 DUP3 GT ISZERO PUSH2 0x1A97 JUMPI PUSH2 0x1A96 PUSH2 0x1A3D JUMP JUMPDEST JUMPDEST SWAP3 SWAP2 POP POP JUMP JUMPDEST PUSH32 0x45524332303A2064656372656173656420616C6C6F77616E63652062656C6F77 PUSH0 DUP3 ADD MSTORE PUSH32 0x207A65726F000000000000000000000000000000000000000000000000000000 PUSH1 0x20 DUP3 ADD MSTORE POP JUMP JUMPDEST PUSH0 PUSH2 0x1AF7 PUSH1 0x25 DUP4 PUSH2 0x1590 JUMP JUMPDEST SWAP2 POP PUSH2 0x1B02 DUP3 PUSH2 0x1A9D JUMP JUMPDEST PUSH1 0x40 DUP3 ADD SWAP1 POP SWAP2 SWAP1 POP JUMP JUMPDEST PUSH0 PUSH1 0x20 DUP3 ADD SWAP1 POP DUP2 DUP2 SUB PUSH0 DUP4 ADD MSTORE PUSH2 0x1B24 DUP2 PUSH2 0x1AEB JUMP JUMPDEST SWAP1 POP SWAP2 SWAP1 POP JUMP JUMPDEST PUSH32 0x746F6B656E206973206C657373207468616E2032300000000000000000000000 PUSH0 DUP3 ADD MSTORE POP JUMP JUMPDEST PUSH0 PUSH2 0x1B5F PUSH1 0x15 DUP4 PUSH2 0x1590 JUMP JUMPDEST SWAP2 POP PUSH2 0x1B6A DUP3 PUSH2 0x1B2B JUMP JUMPDEST PUSH1 0x20 DUP3 ADD SWAP1 POP SWAP2 SWAP1 POP JUMP JUMPDEST PUSH0 PUSH1 0x20 DUP3 ADD SWAP1 POP DUP2 DUP2 SUB PUSH0 DUP4 ADD MSTORE PUSH2 0x1B8C DUP2 PUSH2 0x1B53 JUMP JUMPDEST SWAP1 POP SWAP2 SWAP1 POP JUMP JUMPDEST PUSH0 PUSH2 0x1B9D DUP3 PUSH2 0x168E JUMP JUMPDEST SWAP2 POP PUSH2 0x1BA8 DUP4 PUSH2 0x168E JUMP JUMPDEST SWAP3 POP DUP3 DUP3 SUB SWAP1 POP DUP2 DUP2 GT ISZERO PUSH2 0x1BC0 JUMPI PUSH2 0x1BBF PUSH2 0x1A3D JUMP JUMPDEST JUMPDEST SWAP3 SWAP2 POP POP JUMP JUMPDEST PUSH0 PUSH2 0x1BD0 DUP3 PUSH2 0x168E JUMP JUMPDEST SWAP2 POP PUSH2 0x1BDB DUP4 PUSH2 0x168E JUMP JUMPDEST SWAP3 POP DUP3 DUP3 MUL PUSH2 0x1BE9 DUP2 PUSH2 0x168E JUMP JUMPDEST SWAP2 POP DUP3 DUP3 DIV DUP5 EQ DUP4 ISZERO OR PUSH2 0x1C00 JUMPI PUSH2 0x1BFF PUSH2 0x1A3D JUMP JUMPDEST JUMPDEST POP SWAP3 SWAP2 POP POP JUMP JUMPDEST PUSH32 0x4E487B7100000000000000000000000000000000000000000000000000000000 PUSH0 MSTORE PUSH1 0x12 PUSH1 0x4 MSTORE PUSH1 0x24 PUSH0 REVERT JUMPDEST PUSH0 PUSH2 0x1C3E DUP3 PUSH2 0x168E JUMP JUMPDEST SWAP2 POP PUSH2 0x1C49 DUP4 PUSH2 0x168E JUMP JUMPDEST SWAP3 POP DUP3 PUSH2 0x1C59 JUMPI PUSH2 0x1C58 PUSH2 0x1C07 JUMP JUMPDEST JUMPDEST DUP3 DUP3 DIV SWAP1 POP SWAP3 SWAP2 POP POP JUMP JUMPDEST PUSH32 0x45524332305065726D69743A206578706972656420646561646C696E65000000 PUSH0 DUP3 ADD MSTORE POP JUMP JUMPDEST PUSH0 PUSH2 0x1C98 PUSH1 0x1D DUP4 PUSH2 0x1590 JUMP JUMPDEST SWAP2 POP PUSH2 0x1CA3 DUP3 PUSH2 0x1C64 JUMP JUMPDEST PUSH1 0x20 DUP3 ADD SWAP1 POP SWAP2 SWAP1 POP JUMP JUMPDEST PUSH0 PUSH1 0x20 DUP3 ADD SWAP1 POP DUP2 DUP2 SUB PUSH0 DUP4 ADD MSTORE PUSH2 0x1CC5 DUP2 PUSH2 0x1C8C JUMP JUMPDEST SWAP1 POP SWAP2 SWAP1 POP JUMP JUMPDEST PUSH2 0x1CD5 DUP2 PUSH2 0x1653 JUMP JUMPDEST DUP3 MSTORE POP POP JUMP JUMPDEST PUSH0 PUSH1 0xC0 DUP3 ADD SWAP1 POP PUSH2 0x1CEE PUSH0 DUP4 ADD DUP10 PUSH2 0x17E7 JUMP JUMPDEST PUSH2 0x1CFB PUSH1 0x20 DUP4 ADD DUP9 PUSH2 0x1CCC JUMP JUMPDEST PUSH2 0x1D08 PUSH1 0x40 DUP4 ADD DUP8 PUSH2 0x1CCC JUMP JUMPDEST PUSH2 0x1D15 PUSH1 0x60 DUP4 ADD DUP7 PUSH2 0x1732 JUMP JUMPDEST PUSH2 0x1D22 PUSH1 0x80 DUP4 ADD DUP6 PUSH2 0x1732 JUMP JUMPDEST PUSH2 0x1D2F PUSH1 0xA0 DUP4 ADD DUP5 PUSH2 0x1732 JUMP JUMPDEST SWAP8 SWAP7 POP POP POP POP POP POP POP JUMP JUMPDEST PUSH32 0x45524332305065726D69743A20696E76616C6964207369676E61747572650000 PUSH0 DUP3 ADD MSTORE POP JUMP JUMPDEST PUSH0 PUSH2 0x1D6E PUSH1 0x1E DUP4 PUSH2 0x1590 JUMP JUMPDEST SWAP2 POP PUSH2 0x1D79 DUP3 PUSH2 0x1D3A JUMP JUMPDEST PUSH1 0x20 DUP3 ADD SWAP1 POP SWAP2 SWAP1 POP JUMP JUMPDEST PUSH0 PUSH1 0x20 DUP3 ADD SWAP1 POP DUP2 DUP2 SUB PUSH0 DUP4 ADD MSTORE PUSH2 0x1D9B DUP2 PUSH2 0x1D62 JUMP JUMPDEST SWAP1 POP SWAP2 SWAP1 POP JUMP JUMPDEST PUSH32 0x45524332303A20617070726F76652066726F6D20746865207A65726F20616464 PUSH0 DUP3 ADD MSTORE PUSH32 0x7265737300000000000000000000000000000000000000000000000000000000 PUSH1 0x20 DUP3 ADD MSTORE POP JUMP JUMPDEST PUSH0 PUSH2 0x1DFC PUSH1 0x24 DUP4 PUSH2 0x1590 JUMP JUMPDEST SWAP2 POP PUSH2 0x1E07 DUP3 PUSH2 0x1DA2 JUMP JUMPDEST PUSH1 0x40 DUP3 ADD SWAP1 POP SWAP2 SWAP1 POP JUMP JUMPDEST PUSH0 PUSH1 0x20 DUP3 ADD SWAP1 POP DUP2 DUP2 SUB PUSH0 DUP4 ADD MSTORE PUSH2 0x1E29 DUP2 PUSH2 0x1DF0 JUMP JUMPDEST SWAP1 POP SWAP2 SWAP1 POP JUMP JUMPDEST PUSH32 0x45524332303A20617070726F766520746F20746865207A65726F206164647265 PUSH0 DUP3 ADD MSTORE PUSH32 0x7373000000000000000000000000000000000000000000000000000000000000 PUSH1 0x20 DUP3 ADD MSTORE POP JUMP JUMPDEST PUSH0 PUSH2 0x1E8A PUSH1 0x22 DUP4 PUSH2 0x1590 JUMP JUMPDEST SWAP2 POP PUSH2 0x1E95 DUP3 PUSH2 0x1E30 JUMP JUMPDEST PUSH1 0x40 DUP3 ADD SWAP1 POP SWAP2 SWAP1 POP JUMP JUMPDEST PUSH0 PUSH1 0x20 DUP3 ADD SWAP1 POP DUP2 DUP2 SUB PUSH0 DUP4 ADD MSTORE PUSH2 0x1EB7 DUP2 PUSH2 0x1E7E JUMP JUMPDEST SWAP1 POP SWAP2 SWAP1 POP JUMP JUMPDEST PUSH32 0x45524332303A20696E73756666696369656E7420616C6C6F77616E6365000000 PUSH0 DUP3 ADD MSTORE POP JUMP JUMPDEST PUSH0 PUSH2 0x1EF2 PUSH1 0x1D DUP4 PUSH2 0x1590 JUMP JUMPDEST SWAP2 POP PUSH2 0x1EFD DUP3 PUSH2 0x1EBE JUMP JUMPDEST PUSH1 0x20 DUP3 ADD SWAP1 POP SWAP2 SWAP1 POP JUMP JUMPDEST PUSH0 PUSH1 0x20 DUP3 ADD SWAP1 POP DUP2 DUP2 SUB PUSH0 DUP4 ADD MSTORE PUSH2 0x1F1F DUP2 PUSH2 0x1EE6 JUMP JUMPDEST SWAP1 POP SWAP2 SWAP1 POP JUMP JUMPDEST PUSH32 0x45524332303A207472616E736665722066726F6D20746865207A65726F206164 PUSH0 DUP3 ADD MSTORE PUSH32 0x6472657373000000000000000000000000000000000000000000000000000000 PUSH1 0x20 DUP3 ADD MSTORE POP JUMP JUMPDEST PUSH0 PUSH2 0x1F80 PUSH1 0x25 DUP4 PUSH2 0x1590 JUMP JUMPDEST SWAP2 POP PUSH2 0x1F8B DUP3 PUSH2 0x1F26 JUMP JUMPDEST PUSH1 0x40 DUP3 ADD SWAP1 POP SWAP2 SWAP1 POP JUMP JUMPDEST PUSH0 PUSH1 0x20 DUP3 ADD SWAP1 POP DUP2 DUP2 SUB PUSH0 DUP4 ADD MSTORE PUSH2 0x1FAD DUP2 PUSH2 0x1F74 JUMP JUMPDEST SWAP1 POP SWAP2 SWAP1 POP JUMP JUMPDEST PUSH32 0x45524332303A207472616E7366657220746F20746865207A65726F2061646472 PUSH0 DUP3 ADD MSTORE PUSH32 0x6573730000000000000000000000000000000000000000000000000000000000 PUSH1 0x20 DUP3 ADD MSTORE POP JUMP JUMPDEST PUSH0 PUSH2 0x200E PUSH1 0x23 DUP4 PUSH2 0x1590 JUMP JUMPDEST SWAP2 POP PUSH2 0x2019 DUP3 PUSH2 0x1FB4 JUMP JUMPDEST PUSH1 0x40 DUP3 ADD SWAP1 POP SWAP2 SWAP1 POP JUMP JUMPDEST PUSH0 PUSH1 0x20 DUP3 ADD SWAP1 POP DUP2 DUP2 SUB PUSH0 DUP4 ADD MSTORE PUSH2 0x203B DUP2 PUSH2 0x2002 JUMP JUMPDEST SWAP1 POP SWAP2 SWAP1 POP JUMP JUMPDEST PUSH32 0x45524332303A207472616E7366657220616D6F756E7420657863656564732062 PUSH0 DUP3 ADD MSTORE PUSH32 0x616C616E63650000000000000000000000000000000000000000000000000000 PUSH1 0x20 DUP3 ADD MSTORE POP JUMP JUMPDEST PUSH0 PUSH2 0x209C PUSH1 0x26 DUP4 PUSH2 0x1590 JUMP JUMPDEST SWAP2 POP PUSH2 0x20A7 DUP3 PUSH2 0x2042 JUMP JUMPDEST PUSH1 0x40 DUP3 ADD SWAP1 POP SWAP2 SWAP1 POP JUMP JUMPDEST PUSH0 PUSH1 0x20 DUP3 ADD SWAP1 POP DUP2 DUP2 SUB PUSH0 DUP4 ADD MSTORE PUSH2 0x20C9 DUP2 PUSH2 0x2090 JUMP JUMPDEST SWAP1 POP SWAP2 SWAP1 POP JUMP JUMPDEST PUSH32 0x45524332303A206D696E7420746F20746865207A65726F206164647265737300 PUSH0 DUP3 ADD MSTORE POP JUMP JUMPDEST PUSH0 PUSH2 0x2104 PUSH1 0x1F DUP4 PUSH2 0x1590 JUMP JUMPDEST SWAP2 POP PUSH2 0x210F DUP3 PUSH2 0x20D0 JUMP JUMPDEST PUSH1 0x20 DUP3 ADD SWAP1 POP SWAP2 SWAP1 POP JUMP JUMPDEST PUSH0 PUSH1 0x20 DUP3 ADD SWAP1 POP DUP2 DUP2 SUB PUSH0 DUP4 ADD MSTORE PUSH2 0x2131 DUP2 PUSH2 0x20F8 JUMP JUMPDEST SWAP1 POP SWAP2 SWAP1 POP JUMP JUMPDEST PUSH0 PUSH1 0xA0 DUP3 ADD SWAP1 POP PUSH2 0x214B PUSH0 DUP4 ADD DUP9 PUSH2 0x17E7 JUMP JUMPDEST PUSH2 0x2158 PUSH1 0x20 DUP4 ADD DUP8 PUSH2 0x17E7 JUMP JUMPDEST PUSH2 0x2165 PUSH1 0x40 DUP4 ADD DUP7 PUSH2 0x17E7 JUMP JUMPDEST PUSH2 0x2172 PUSH1 0x60 DUP4 ADD DUP6 PUSH2 0x1732 JUMP JUMPDEST PUSH2 0x217F PUSH1 0x80 DUP4 ADD DUP5 PUSH2 0x1CCC JUMP JUMPDEST SWAP7 SWAP6 POP POP POP POP POP POP JUMP JUMPDEST PUSH0 DUP2 SWAP1 POP SWAP3 SWAP2 POP POP JUMP JUMPDEST PUSH32 0x1901000000000000000000000000000000000000000000000000000000000000 PUSH0 DUP3 ADD MSTORE POP JUMP JUMPDEST PUSH0 PUSH2 0x21C7 PUSH1 0x2 DUP4 PUSH2 0x2189 JUMP JUMPDEST SWAP2 POP PUSH2 0x21D2 DUP3 PUSH2 0x2193 JUMP JUMPDEST PUSH1 0x2 DUP3 ADD SWAP1 POP SWAP2 SWAP1 POP JUMP JUMPDEST PUSH0 DUP2 SWAP1 POP SWAP2 SWAP1 POP JUMP JUMPDEST PUSH2 0x21F7 PUSH2 0x21F2 DUP3 PUSH2 0x17DE JUMP JUMPDEST PUSH2 0x21DD JUMP JUMPDEST DUP3 MSTORE POP POP JUMP JUMPDEST PUSH0 PUSH2 0x2207 DUP3 PUSH2 0x21BB JUMP JUMPDEST SWAP2 POP PUSH2 0x2213 DUP3 DUP6 PUSH2 0x21E6 JUMP JUMPDEST PUSH1 0x20 DUP3 ADD SWAP2 POP PUSH2 0x2223 DUP3 DUP5 PUSH2 0x21E6 JUMP JUMPDEST PUSH1 0x20 DUP3 ADD SWAP2 POP DUP2 SWAP1 POP SWAP4 SWAP3 POP POP POP JUMP JUMPDEST PUSH0 PUSH1 0x80 DUP3 ADD SWAP1 POP PUSH2 0x2246 PUSH0 DUP4 ADD DUP8 PUSH2 0x17E7 JUMP JUMPDEST PUSH2 0x2253 PUSH1 0x20 DUP4 ADD DUP7 PUSH2 0x17B6 JUMP JUMPDEST PUSH2 0x2260 PUSH1 0x40 DUP4 ADD DUP6 PUSH2 0x17E7 JUMP JUMPDEST PUSH2 0x226D PUSH1 0x60 DUP4 ADD DUP5 PUSH2 0x17E7 JUMP JUMPDEST SWAP6 SWAP5 POP POP POP POP POP JUMP JUMPDEST PUSH32 0x4E487B7100000000000000000000000000000000000000000000000000000000 PUSH0 MSTORE PUSH1 0x21 PUSH1 0x4 MSTORE PUSH1 0x24 PUSH0 REVERT JUMPDEST PUSH32 0x45434453413A20696E76616C6964207369676E61747572650000000000000000 PUSH0 DUP3 ADD MSTORE POP JUMP JUMPDEST PUSH0 PUSH2 0x22D7 PUSH1 0x18 DUP4 PUSH2 0x1590 JUMP JUMPDEST SWAP2 POP PUSH2 0x22E2 DUP3 PUSH2 0x22A3 JUMP JUMPDEST PUSH1 0x20 DUP3 ADD SWAP1 POP SWAP2 SWAP1 POP JUMP JUMPDEST PUSH0 PUSH1 0x20 DUP3 ADD SWAP1 POP DUP2 DUP2 SUB PUSH0 DUP4 ADD MSTORE PUSH2 0x2304 DUP2 PUSH2 0x22CB JUMP JUMPDEST SWAP1 POP SWAP2 SWAP1 POP JUMP JUMPDEST PUSH32 0x45434453413A20696E76616C6964207369676E6174757265206C656E67746800 PUSH0 DUP3 ADD MSTORE POP JUMP JUMPDEST PUSH0 PUSH2 0x233F PUSH1 0x1F DUP4 PUSH2 0x1590 JUMP JUMPDEST SWAP2 POP PUSH2 0x234A DUP3 PUSH2 0x230B JUMP JUMPDEST PUSH1 0x20 DUP3 ADD SWAP1 POP SWAP2 SWAP1 POP JUMP JUMPDEST PUSH0 PUSH1 0x20 DUP3 ADD SWAP1 POP DUP2 DUP2 SUB PUSH0 DUP4 ADD MSTORE PUSH2 0x236C DUP2 PUSH2 0x2333 JUMP JUMPDEST SWAP1 POP SWAP2 SWAP1 POP JUMP JUMPDEST PUSH32 0x45434453413A20696E76616C6964207369676E6174757265202773272076616C PUSH0 DUP3 ADD MSTORE PUSH32 0x7565000000000000000000000000000000000000000000000000000000000000 PUSH1 0x20 DUP3 ADD MSTORE POP JUMP JUMPDEST PUSH0 PUSH2 0x23CD PUSH1 0x22 DUP4 PUSH2 0x1590 JUMP JUMPDEST SWAP2 POP PUSH2 0x23D8 DUP3 PUSH2 0x2373 JUMP JUMPDEST PUSH1 0x40 DUP3 ADD SWAP1 POP SWAP2 SWAP1 POP JUMP JUMPDEST PUSH0 PUSH1 0x20 DUP3 ADD SWAP1 POP DUP2 DUP2 SUB PUSH0 DUP4 ADD MSTORE PUSH2 0x23FA DUP2 PUSH2 0x23C1 JUMP JUMPDEST SWAP1 POP SWAP2 SWAP1 POP JUMP JUMPDEST PUSH32 0x45434453413A20696E76616C6964207369676E6174757265202776272076616C PUSH0 DUP3 ADD MSTORE PUSH32 0x7565000000000000000000000000000000000000000000000000000000000000 PUSH1 0x20 DUP3 ADD MSTORE POP JUMP JUMPDEST PUSH0 PUSH2 0x245B PUSH1 0x22 DUP4 PUSH2 0x1590 JUMP JUMPDEST SWAP2 POP PUSH2 0x2466 DUP3 PUSH2 0x2401 JUMP JUMPDEST PUSH1 0x40 DUP3 ADD SWAP1 POP SWAP2 SWAP1 POP JUMP JUMPDEST PUSH0 PUSH1 0x20 DUP3 ADD SWAP1 POP DUP2 DUP2 SUB PUSH0 DUP4 ADD MSTORE PUSH2 0x2488 DUP2 PUSH2 0x244F JUMP JUMPDEST SWAP1 POP SWAP2 SWAP1 POP JUMP INVALID LOG2 PUSH5 0x6970667358 0x22 SLT KECCAK256 SWAP7 0xB0 CALLVALUE SLT ORIGIN 0xAE 0xA7 PUSH11 0xECC78DB09E787243AED26 ORIGIN 0xAE DUP1 CALLER SWAP7 0xFB SWAP9 0xC3 0xDA GT 0xB9 0xA6 ADDMOD PUSH5 0x736F6C6343 STOP ADDMOD EQ STOP CALLER "
				},
				"gasEstimates": {
					"creation": {
						"codeDepositCost": "1882600",
						"executionCost": "infinite",
						"totalCost": "infinite"
					},
					"external": {
						"DOMAIN_SEPARATOR()": "infinite",
						"RegisterLender(uint256,uint256,uint8,bytes32,bytes32)": "infinite",
						"allowance(address,address)": "infinite",
						"approve(address,uint256)": "infinite",
						"balanceOf(address)": "2940",
						"borrowedAmount(address)": "2847",
						"decimals()": "450",
						"decreaseAllowance(address,uint256)": "infinite",
						"increaseAllowance(address,uint256)": "infinite",
						"lendedAmount(address)": "2824",
						"mint(address,uint256)": "infinite",
						"name()": "infinite",
						"nonces(address)": "2899",
						"permit(address,address,uint256,uint256,uint8,bytes32,bytes32)": "infinite",
						"symbol()": "infinite",
						"testTransfer(address,address,uint256)": "infinite",
						"totalSupply()": "2500",
						"transfer(address,uint256)": "infinite",
						"transferFrom(address,address,uint256)": "infinite",
						"transferToAddr(address,address,uint256)": "infinite",
						"transfertoContract(address,uint256)": "infinite"
					}
				},
				"methodIdentifiers": {
					"DOMAIN_SEPARATOR()": "3644e515",
					"RegisterLender(uint256,uint256,uint8,bytes32,bytes32)": "d1003ed4",
					"allowance(address,address)": "dd62ed3e",
					"approve(address,uint256)": "095ea7b3",
					"balanceOf(address)": "70a08231",
					"borrowedAmount(address)": "948adb8f",
					"decimals()": "313ce567",
					"decreaseAllowance(address,uint256)": "a457c2d7",
					"increaseAllowance(address,uint256)": "39509351",
					"lendedAmount(address)": "b4b05958",
					"mint(address,uint256)": "40c10f19",
					"name()": "06fdde03",
					"nonces(address)": "7ecebe00",
					"permit(address,address,uint256,uint256,uint8,bytes32,bytes32)": "d505accf",
					"symbol()": "95d89b41",
					"testTransfer(address,address,uint256)": "db673035",
					"totalSupply()": "18160ddd",
					"transfer(address,uint256)": "a9059cbb",
					"transferFrom(address,address,uint256)": "23b872dd",
					"transferToAddr(address,address,uint256)": "ce2e08e5",
					"transfertoContract(address,uint256)": "3b4c0c07"
				}
			},
			"storageLayout": {
				"storage": [
					{
						"astId": 15,
						"contract": "P2PLending.sol:MyToken",
						"label": "_balances",
						"offset": 0,
						"slot": "0",
						"type": "t_mapping(t_address,t_uint256)"
					},
					{
						"astId": 21,
						"contract": "P2PLending.sol:MyToken",
						"label": "_allowances",
						"offset": 0,
						"slot": "1",
						"type": "t_mapping(t_address,t_mapping(t_address,t_uint256))"
					},
					{
						"astId": 23,
						"contract": "P2PLending.sol:MyToken",
						"label": "_totalSupply",
						"offset": 0,
						"slot": "2",
						"type": "t_uint256"
					},
					{
						"astId": 25,
						"contract": "P2PLending.sol:MyToken",
						"label": "_name",
						"offset": 0,
						"slot": "3",
						"type": "t_string_storage"
					},
					{
						"astId": 27,
						"contract": "P2PLending.sol:MyToken",
						"label": "_symbol",
						"offset": 0,
						"slot": "4",
						"type": "t_string_storage"
					},
					{
						"astId": 711,
						"contract": "P2PLending.sol:MyToken",
						"label": "_nonces",
						"offset": 0,
						"slot": "5",
						"type": "t_mapping(t_address,t_struct(Counter)924_storage)"
					},
					{
						"astId": 719,
						"contract": "P2PLending.sol:MyToken",
						"label": "_PERMIT_TYPEHASH_DEPRECATED_SLOT",
						"offset": 0,
						"slot": "6",
						"type": "t_bytes32"
					},
					{
						"astId": 1783,
						"contract": "P2PLending.sol:MyToken",
						"label": "BorrowerToLender",
						"offset": 0,
						"slot": "7",
						"type": "t_mapping(t_address,t_address)"
					},
					{
						"astId": 1787,
						"contract": "P2PLending.sol:MyToken",
						"label": "lendedAmount",
						"offset": 0,
						"slot": "8",
						"type": "t_mapping(t_address,t_uint256)"
					},
					{
						"astId": 1791,
						"contract": "P2PLending.sol:MyToken",
						"label": "borrowedAmount",
						"offset": 0,
						"slot": "9",
						"type": "t_mapping(t_address,t_uint256)"
					}
				],
				"types": {
					"t_address": {
						"encoding": "inplace",
						"label": "address",
						"numberOfBytes": "20"
					},
					"t_bytes32": {
						"encoding": "inplace",
						"label": "bytes32",
						"numberOfBytes": "32"
					},
					"t_mapping(t_address,t_address)": {
						"encoding": "mapping",
						"key": "t_address",
						"label": "mapping(address => address)",
						"numberOfBytes": "32",
						"value": "t_address"
					},
					"t_mapping(t_address,t_mapping(t_address,t_uint256))": {
						"encoding": "mapping",
						"key": "t_address",
						"label": "mapping(address => mapping(address => uint256))",
						"numberOfBytes": "32",
						"value": "t_mapping(t_address,t_uint256)"
					},
					"t_mapping(t_address,t_struct(Counter)924_storage)": {
						"encoding": "mapping",
						"key": "t_address",
						"label": "mapping(address => struct Counters.Counter)",
						"numberOfBytes": "32",
						"value": "t_struct(Counter)924_storage"
					},
					"t_mapping(t_address,t_uint256)": {
						"encoding": "mapping",
						"key": "t_address",
						"label": "mapping(address => uint256)",
						"numberOfBytes": "32",
						"value": "t_uint256"
					},
					"t_string_storage": {
						"encoding": "bytes",
						"label": "string",
						"numberOfBytes": "32"
					},
					"t_struct(Counter)924_storage": {
						"encoding": "inplace",
						"label": "struct Counters.Counter",
						"members": [
							{
								"astId": 923,
								"contract": "P2PLending.sol:MyToken",
								"label": "_value",
								"offset": 0,
								"slot": "0",
								"type": "t_uint256"
							}
						],
						"numberOfBytes": "32"
					},
					"t_uint256": {
						"encoding": "inplace",
						"label": "uint256",
						"numberOfBytes": "32"
					}
				}
			},
			"userdoc": {
				"kind": "user",
				"methods": {},
				"version": 1
			}
		}
	}
}