{
	"romanNumeral.sol": {
		"roman": {
			"abi": [
				{
					"inputs": [
						{
							"internalType": "string",
							"name": "_a",
							"type": "string"
						},
						{
							"internalType": "string",
							"name": "_b",
							"type": "string"
						},
						{
							"internalType": "string",
							"name": "_c",
							"type": "string"
						}
					],
					"name": "appendString",
					"outputs": [
						{
							"internalType": "string",
							"name": "",
							"type": "string"
						}
					],
					"stateMutability": "pure",
					"type": "function"
				},
				{
					"inputs": [
						{
							"internalType": "uint256",
							"name": "number",
							"type": "uint256"
						},
						{
							"internalType": "uint256",
							"name": "position",
							"type": "uint256"
						}
					],
					"name": "fetchDigit",
					"outputs": [
						{
							"internalType": "uint256",
							"name": "",
							"type": "uint256"
						}
					],
					"stateMutability": "pure",
					"type": "function"
				},
				{
					"inputs": [
						{
							"internalType": "uint256",
							"name": "_num",
							"type": "uint256"
						}
					],
					"name": "getRoman",
					"outputs": [
						{
							"internalType": "string",
							"name": "",
							"type": "string"
						}
					],
					"stateMutability": "pure",
					"type": "function"
				}
			],
			"devdoc": {
				"kind": "dev",
				"methods": {},
				"version": 1
			},
			"evm": {
				"assembly": "    /* \"romanNumeral.sol\":26:3511  contract roman {... */\n  mstore(0x40, 0x80)\n  callvalue\n  dup1\n  iszero\n  tag_1\n  jumpi\n  0x00\n  dup1\n  revert\ntag_1:\n  pop\n  dataSize(sub_0)\n  dup1\n  dataOffset(sub_0)\n  0x00\n  codecopy\n  0x00\n  return\nstop\n\nsub_0: assembly {\n        /* \"romanNumeral.sol\":26:3511  contract roman {... */\n      mstore(0x40, 0x80)\n      callvalue\n      dup1\n      iszero\n      tag_1\n      jumpi\n      0x00\n      dup1\n      revert\n    tag_1:\n      pop\n      jumpi(tag_2, lt(calldatasize, 0x04))\n      shr(0xe0, calldataload(0x00))\n      dup1\n      0x10576af4\n      eq\n      tag_3\n      jumpi\n      dup1\n      0x1652a393\n      eq\n      tag_4\n      jumpi\n      dup1\n      0xdd082aaf\n      eq\n      tag_5\n      jumpi\n    tag_2:\n      0x00\n      dup1\n      revert\n        /* \"romanNumeral.sol\":53:264  function fetchDigit(uint256 number, uint256 position) public pure returns (uint256) {... */\n    tag_3:\n      tag_6\n      0x04\n      dup1\n      calldatasize\n      sub\n      dup2\n      add\n      swap1\n      tag_7\n      swap2\n      swap1\n      tag_8\n      jump\t// in\n    tag_7:\n      tag_9\n      jump\t// in\n    tag_6:\n      mload(0x40)\n      tag_10\n      swap2\n      swap1\n      tag_11\n      jump\t// in\n    tag_10:\n      mload(0x40)\n      dup1\n      swap2\n      sub\n      swap1\n      return\n        /* \"romanNumeral.sol\":3344:3509  function appendString(string memory _a, string memory _b, string memory _c) public pure returns (string memory)  {... */\n    tag_4:\n      tag_12\n      0x04\n      dup1\n      calldatasize\n      sub\n      dup2\n      add\n      swap1\n      tag_13\n      swap2\n      swap1\n      tag_14\n      jump\t// in\n    tag_13:\n      tag_15\n      jump\t// in\n    tag_12:\n      mload(0x40)\n      tag_16\n      swap2\n      swap1\n      tag_17\n      jump\t// in\n    tag_16:\n      mload(0x40)\n      dup1\n      swap2\n      sub\n      swap1\n      return\n        /* \"romanNumeral.sol\":270:3328  function getRoman(uint _num) public pure returns (string memory) {... */\n    tag_5:\n      tag_18\n      0x04\n      dup1\n      calldatasize\n      sub\n      dup2\n      add\n      swap1\n      tag_19\n      swap2\n      swap1\n      tag_20\n      jump\t// in\n    tag_19:\n      tag_21\n      jump\t// in\n    tag_18:\n      mload(0x40)\n      tag_22\n      swap2\n      swap1\n      tag_17\n      jump\t// in\n    tag_22:\n      mload(0x40)\n      dup1\n      swap2\n      sub\n      swap1\n      return\n        /* \"romanNumeral.sol\":53:264  function fetchDigit(uint256 number, uint256 position) public pure returns (uint256) {... */\n    tag_9:\n        /* \"romanNumeral.sol\":128:135  uint256 */\n      0x00\n        /* \"romanNumeral.sol\":147:162  uint256 divisor */\n      dup1\n        /* \"romanNumeral.sol\":169:177  position */\n      dup3\n        /* \"romanNumeral.sol\":165:167  10 */\n      0x0a\n        /* \"romanNumeral.sol\":165:177  10**position */\n      tag_24\n      swap2\n      swap1\n      tag_25\n      jump\t// in\n    tag_24:\n        /* \"romanNumeral.sol\":147:177  uint256 divisor = 10**position */\n      swap1\n      pop\n        /* \"romanNumeral.sol\":187:200  uint256 digit */\n      0x00\n        /* \"romanNumeral.sol\":224:226  10 */\n      0x0a\n        /* \"romanNumeral.sol\":213:220  divisor */\n      dup3\n        /* \"romanNumeral.sol\":204:210  number */\n      dup7\n        /* \"romanNumeral.sol\":204:220  number / divisor */\n      tag_26\n      swap2\n      swap1\n      tag_27\n      jump\t// in\n    tag_26:\n        /* \"romanNumeral.sol\":203:226  (number / divisor) % 10 */\n      tag_28\n      swap2\n      swap1\n      tag_29\n      jump\t// in\n    tag_28:\n        /* \"romanNumeral.sol\":187:226  uint256 digit = (number / divisor) % 10 */\n      swap1\n      pop\n        /* \"romanNumeral.sol\":252:257  digit */\n      dup1\n        /* \"romanNumeral.sol\":245:257  return digit */\n      swap3\n      pop\n      pop\n      pop\n        /* \"romanNumeral.sol\":53:264  function fetchDigit(uint256 number, uint256 position) public pure returns (uint256) {... */\n      swap3\n      swap2\n      pop\n      pop\n      jump\t// out\n        /* \"romanNumeral.sol\":3344:3509  function appendString(string memory _a, string memory _b, string memory _c) public pure returns (string memory)  {... */\n    tag_15:\n        /* \"romanNumeral.sol\":3441:3454  string memory */\n      0x60\n        /* \"romanNumeral.sol\":3494:3496  _a */\n      dup4\n        /* \"romanNumeral.sol\":3498:3500  _b */\n      dup4\n        /* \"romanNumeral.sol\":3502:3504  _c */\n      dup4\n        /* \"romanNumeral.sol\":3477:3505  abi.encodePacked(_a, _b, _c) */\n      add(0x20, mload(0x40))\n      tag_31\n      swap4\n      swap3\n      swap2\n      swap1\n      tag_32\n      jump\t// in\n    tag_31:\n      mload(0x40)\n      0x20\n      dup2\n      dup4\n      sub\n      sub\n      dup2\n      mstore\n      swap1\n      0x40\n      mstore\n        /* \"romanNumeral.sol\":3463:3506  return string(abi.encodePacked(_a, _b, _c)) */\n      swap1\n      pop\n        /* \"romanNumeral.sol\":3344:3509  function appendString(string memory _a, string memory _b, string memory _c) public pure returns (string memory)  {... */\n      swap4\n      swap3\n      pop\n      pop\n      pop\n      jump\t// out\n        /* \"romanNumeral.sol\":270:3328  function getRoman(uint _num) public pure returns (string memory) {... */\n    tag_21:\n        /* \"romanNumeral.sol\":320:333  string memory */\n      0x60\n        /* \"romanNumeral.sol\":345:356  uint number */\n      0x00\n        /* \"romanNumeral.sol\":359:363  _num */\n      dup3\n        /* \"romanNumeral.sol\":345:363  uint number = _num */\n      swap1\n      pop\n        /* \"romanNumeral.sol\":373:382  uint temp */\n      0x00\n        /* \"romanNumeral.sol\":385:386  3 */\n      0x03\n        /* \"romanNumeral.sol\":373:386  uint temp = 3 */\n      swap1\n      pop\n        /* \"romanNumeral.sol\":396:419  string memory romanRepr */\n      0x60\n        /* \"romanNumeral.sol\":426:3304  while (number != 0) {... */\n    tag_34:\n        /* \"romanNumeral.sol\":443:444  0 */\n      0x00\n        /* \"romanNumeral.sol\":433:439  number */\n      dup4\n        /* \"romanNumeral.sol\":433:444  number != 0 */\n      eq\n        /* \"romanNumeral.sol\":426:3304  while (number != 0) {... */\n      tag_35\n      jumpi\n        /* \"romanNumeral.sol\":506:510  1000 */\n      0x03e8\n        /* \"romanNumeral.sol\":497:503  number */\n      dup4\n        /* \"romanNumeral.sol\":497:510  number > 1000 */\n      gt\n        /* \"romanNumeral.sol\":493:713  if (number > 1000) {... */\n      iszero\n      tag_36\n      jumpi\n        /* \"romanNumeral.sol\":522:531  uint num1 */\n      0x00\n        /* \"romanNumeral.sol\":534:555  fetchDigit(number, 3) */\n      tag_37\n        /* \"romanNumeral.sol\":545:551  number */\n      dup5\n        /* \"romanNumeral.sol\":553:554  3 */\n      0x03\n        /* \"romanNumeral.sol\":534:544  fetchDigit */\n      tag_9\n        /* \"romanNumeral.sol\":534:555  fetchDigit(number, 3) */\n      jump\t// in\n    tag_37:\n        /* \"romanNumeral.sol\":522:555  uint num1 = fetchDigit(number, 3) */\n      swap1\n      pop\n        /* \"romanNumeral.sol\":570:576  uint i */\n      0x00\n        /* \"romanNumeral.sol\":565:675  for (uint i = 0; i < num1 ; i++) {... */\n    tag_38:\n        /* \"romanNumeral.sol\":586:590  num1 */\n      dup2\n        /* \"romanNumeral.sol\":582:583  i */\n      dup2\n        /* \"romanNumeral.sol\":582:590  i < num1 */\n      lt\n        /* \"romanNumeral.sol\":565:675  for (uint i = 0; i < num1 ; i++) {... */\n      iszero\n      tag_39\n      jumpi\n        /* \"romanNumeral.sol\":648:657  romanRepr */\n      dup3\n        /* \"romanNumeral.sol\":631:663  abi.encodePacked(romanRepr, \"M\") */\n      add(0x20, mload(0x40))\n      tag_41\n      swap2\n      swap1\n      tag_42\n      jump\t// in\n    tag_41:\n      mload(0x40)\n      0x20\n      dup2\n      dup4\n      sub\n      sub\n      dup2\n      mstore\n      swap1\n      0x40\n      mstore\n        /* \"romanNumeral.sol\":612:664  romanRepr = string(abi.encodePacked(romanRepr, \"M\")) */\n      swap3\n      pop\n        /* \"romanNumeral.sol\":593:596  i++ */\n      dup1\n      dup1\n      tag_43\n      swap1\n      tag_44\n      jump\t// in\n    tag_43:\n      swap2\n      pop\n      pop\n        /* \"romanNumeral.sol\":565:675  for (uint i = 0; i < num1 ; i++) {... */\n      jump(tag_38)\n    tag_39:\n      pop\n        /* \"romanNumeral.sol\":702:706  1000 */\n      0x03e8\n        /* \"romanNumeral.sol\":693:699  number */\n      dup5\n        /* \"romanNumeral.sol\":693:706  number % 1000 */\n      tag_45\n      swap2\n      swap1\n      tag_29\n      jump\t// in\n    tag_45:\n        /* \"romanNumeral.sol\":684:706  number = number % 1000 */\n      swap4\n      pop\n        /* \"romanNumeral.sol\":512:713  {... */\n      pop\n        /* \"romanNumeral.sol\":493:713  if (number > 1000) {... */\n    tag_36:\n        /* \"romanNumeral.sol\":737:740  100 */\n      0x64\n        /* \"romanNumeral.sol\":727:733  number */\n      dup4\n        /* \"romanNumeral.sol\":727:740  number >= 100 */\n      lt\n      iszero\n        /* \"romanNumeral.sol\":727:757  number >= 100 && number < 1000 */\n      dup1\n      iszero\n      tag_46\n      jumpi\n      pop\n        /* \"romanNumeral.sol\":753:757  1000 */\n      0x03e8\n        /* \"romanNumeral.sol\":744:750  number */\n      dup4\n        /* \"romanNumeral.sol\":744:757  number < 1000 */\n      lt\n        /* \"romanNumeral.sol\":727:757  number >= 100 && number < 1000 */\n    tag_46:\n        /* \"romanNumeral.sol\":723:1531  if (number >= 100 && number < 1000) {... */\n      iszero\n      tag_47\n      jumpi\n        /* \"romanNumeral.sol\":787:790  500 */\n      0x01f4\n        /* \"romanNumeral.sol\":777:783  number */\n      dup4\n        /* \"romanNumeral.sol\":777:790  number >= 500 */\n      lt\n        /* \"romanNumeral.sol\":773:1191  if (number >= 500) {... */\n      tag_48\n      jumpi\n        /* \"romanNumeral.sol\":885:894  romanRepr */\n      dup1\n        /* \"romanNumeral.sol\":868:900  abi.encodePacked(romanRepr, \"D\") */\n      add(0x20, mload(0x40))\n      tag_49\n      swap2\n      swap1\n      tag_50\n      jump\t// in\n    tag_49:\n      mload(0x40)\n      0x20\n      dup2\n      dup4\n      sub\n      sub\n      dup2\n      mstore\n      swap1\n      0x40\n      mstore\n        /* \"romanNumeral.sol\":849:901  romanRepr = string(abi.encodePacked(romanRepr, \"D\")) */\n      swap1\n      pop\n        /* \"romanNumeral.sol\":919:929  uint temp1 */\n      0x00\n        /* \"romanNumeral.sol\":933:958  fetchDigit(number-500, 2) */\n      tag_51\n        /* \"romanNumeral.sol\":951:954  500 */\n      0x01f4\n        /* \"romanNumeral.sol\":944:950  number */\n      dup6\n        /* \"romanNumeral.sol\":944:954  number-500 */\n      tag_52\n      swap2\n      swap1\n      tag_53\n      jump\t// in\n    tag_52:\n        /* \"romanNumeral.sol\":956:957  2 */\n      0x02\n        /* \"romanNumeral.sol\":933:943  fetchDigit */\n      tag_9\n        /* \"romanNumeral.sol\":933:958  fetchDigit(number-500, 2) */\n      jump\t// in\n    tag_51:\n        /* \"romanNumeral.sol\":919:958  uint temp1 =  fetchDigit(number-500, 2) */\n      swap1\n      pop\n        /* \"romanNumeral.sol\":981:987  uint i */\n      0x00\n        /* \"romanNumeral.sol\":976:1103  for (uint i = 0; i < temp1 ; i++) {... */\n    tag_54:\n        /* \"romanNumeral.sol\":997:1002  temp1 */\n      dup2\n        /* \"romanNumeral.sol\":993:994  i */\n      dup2\n        /* \"romanNumeral.sol\":993:1002  i < temp1 */\n      lt\n        /* \"romanNumeral.sol\":976:1103  for (uint i = 0; i < temp1 ; i++) {... */\n      iszero\n      tag_55\n      jumpi\n        /* \"romanNumeral.sol\":1068:1077  romanRepr */\n      dup3\n        /* \"romanNumeral.sol\":1051:1083  abi.encodePacked(romanRepr, \"C\") */\n      add(0x20, mload(0x40))\n      tag_57\n      swap2\n      swap1\n      tag_58\n      jump\t// in\n    tag_57:\n      mload(0x40)\n      0x20\n      dup2\n      dup4\n      sub\n      sub\n      dup2\n      mstore\n      swap1\n      0x40\n      mstore\n        /* \"romanNumeral.sol\":1032:1084  romanRepr = string(abi.encodePacked(romanRepr, \"C\")) */\n      swap3\n      pop\n        /* \"romanNumeral.sol\":1005:1008  i++ */\n      dup1\n      dup1\n      tag_59\n      swap1\n      tag_44\n      jump\t// in\n    tag_59:\n      swap2\n      pop\n      pop\n        /* \"romanNumeral.sol\":976:1103  for (uint i = 0; i < temp1 ; i++) {... */\n      jump(tag_54)\n    tag_55:\n      pop\n        /* \"romanNumeral.sol\":1173:1176  100 */\n      0x64\n        /* \"romanNumeral.sol\":1164:1170  number */\n      dup5\n        /* \"romanNumeral.sol\":1164:1176  number % 100 */\n      tag_60\n      swap2\n      swap1\n      tag_29\n      jump\t// in\n    tag_60:\n        /* \"romanNumeral.sol\":1155:1176  number = number % 100 */\n      swap4\n      pop\n        /* \"romanNumeral.sol\":792:1191  {... */\n      pop\n        /* \"romanNumeral.sol\":773:1191  if (number >= 500) {... */\n    tag_48:\n        /* \"romanNumeral.sol\":1218:1221  100 */\n      0x64\n        /* \"romanNumeral.sol\":1208:1214  number */\n      dup4\n        /* \"romanNumeral.sol\":1208:1221  number >= 100 */\n      lt\n      iszero\n        /* \"romanNumeral.sol\":1208:1237  number >= 100 && number < 500 */\n      dup1\n      iszero\n      tag_61\n      jumpi\n      pop\n        /* \"romanNumeral.sol\":1234:1237  500 */\n      0x01f4\n        /* \"romanNumeral.sol\":1225:1231  number */\n      dup4\n        /* \"romanNumeral.sol\":1225:1237  number < 500 */\n      lt\n        /* \"romanNumeral.sol\":1208:1237  number >= 100 && number < 500 */\n    tag_61:\n        /* \"romanNumeral.sol\":1204:1525  if (number >= 100 && number < 500) {... */\n      iszero\n      tag_62\n      jumpi\n        /* \"romanNumeral.sol\":1257:1267  uint temp1 */\n      0x00\n        /* \"romanNumeral.sol\":1271:1292  fetchDigit(number, 2) */\n      tag_63\n        /* \"romanNumeral.sol\":1282:1288  number */\n      dup5\n        /* \"romanNumeral.sol\":1290:1291  2 */\n      0x02\n        /* \"romanNumeral.sol\":1271:1281  fetchDigit */\n      tag_9\n        /* \"romanNumeral.sol\":1271:1292  fetchDigit(number, 2) */\n      jump\t// in\n    tag_63:\n        /* \"romanNumeral.sol\":1257:1292  uint temp1 =  fetchDigit(number, 2) */\n      swap1\n      pop\n        /* \"romanNumeral.sol\":1315:1321  uint i */\n      0x00\n        /* \"romanNumeral.sol\":1310:1437  for (uint i = 0; i < temp1 ; i++) {... */\n    tag_64:\n        /* \"romanNumeral.sol\":1331:1336  temp1 */\n      dup2\n        /* \"romanNumeral.sol\":1327:1328  i */\n      dup2\n        /* \"romanNumeral.sol\":1327:1336  i < temp1 */\n      lt\n        /* \"romanNumeral.sol\":1310:1437  for (uint i = 0; i < temp1 ; i++) {... */\n      iszero\n      tag_65\n      jumpi\n        /* \"romanNumeral.sol\":1402:1411  romanRepr */\n      dup3\n        /* \"romanNumeral.sol\":1385:1417  abi.encodePacked(romanRepr, \"D\") */\n      add(0x20, mload(0x40))\n      tag_67\n      swap2\n      swap1\n      tag_50\n      jump\t// in\n    tag_67:\n      mload(0x40)\n      0x20\n      dup2\n      dup4\n      sub\n      sub\n      dup2\n      mstore\n      swap1\n      0x40\n      mstore\n        /* \"romanNumeral.sol\":1366:1418  romanRepr = string(abi.encodePacked(romanRepr, \"D\")) */\n      swap3\n      pop\n        /* \"romanNumeral.sol\":1339:1342  i++ */\n      dup1\n      dup1\n      tag_68\n      swap1\n      tag_44\n      jump\t// in\n    tag_68:\n      swap2\n      pop\n      pop\n        /* \"romanNumeral.sol\":1310:1437  for (uint i = 0; i < temp1 ; i++) {... */\n      jump(tag_64)\n    tag_65:\n      pop\n        /* \"romanNumeral.sol\":1507:1510  100 */\n      0x64\n        /* \"romanNumeral.sol\":1498:1504  number */\n      dup5\n        /* \"romanNumeral.sol\":1498:1510  number % 100 */\n      tag_69\n      swap2\n      swap1\n      tag_29\n      jump\t// in\n    tag_69:\n        /* \"romanNumeral.sol\":1489:1510  number = number % 100 */\n      swap4\n      pop\n        /* \"romanNumeral.sol\":1239:1525  {... */\n      pop\n        /* \"romanNumeral.sol\":1204:1525  if (number >= 100 && number < 500) {... */\n    tag_62:\n        /* \"romanNumeral.sol\":723:1531  if (number >= 100 && number < 1000) {... */\n    tag_47:\n        /* \"romanNumeral.sol\":1564:1566  50 */\n      0x32\n        /* \"romanNumeral.sol\":1554:1560  number */\n      dup4\n        /* \"romanNumeral.sol\":1554:1566  number >= 50 */\n      lt\n        /* \"romanNumeral.sol\":1550:2001  if (number >= 50) {... */\n      tag_70\n      jumpi\n        /* \"romanNumeral.sol\":1669:1678  romanRepr */\n      dup1\n        /* \"romanNumeral.sol\":1652:1684  abi.encodePacked(romanRepr, \"L\") */\n      add(0x20, mload(0x40))\n      tag_71\n      swap2\n      swap1\n      tag_72\n      jump\t// in\n    tag_71:\n      mload(0x40)\n      0x20\n      dup2\n      dup4\n      sub\n      sub\n      dup2\n      mstore\n      swap1\n      0x40\n      mstore\n        /* \"romanNumeral.sol\":1633:1685  romanRepr = string(abi.encodePacked(romanRepr, \"L\")) */\n      swap1\n      pop\n        /* \"romanNumeral.sol\":1707:1717  uint temp1 */\n      0x00\n        /* \"romanNumeral.sol\":1721:1745  fetchDigit(number-50, 1) */\n      tag_73\n        /* \"romanNumeral.sol\":1739:1741  50 */\n      0x32\n        /* \"romanNumeral.sol\":1732:1738  number */\n      dup6\n        /* \"romanNumeral.sol\":1732:1741  number-50 */\n      tag_74\n      swap2\n      swap1\n      tag_53\n      jump\t// in\n    tag_74:\n        /* \"romanNumeral.sol\":1743:1744  1 */\n      0x01\n        /* \"romanNumeral.sol\":1721:1731  fetchDigit */\n      tag_9\n        /* \"romanNumeral.sol\":1721:1745  fetchDigit(number-50, 1) */\n      jump\t// in\n    tag_73:\n        /* \"romanNumeral.sol\":1707:1745  uint temp1 =  fetchDigit(number-50, 1) */\n      swap1\n      pop\n        /* \"romanNumeral.sol\":1772:1778  uint i */\n      0x00\n        /* \"romanNumeral.sol\":1767:1902  for (uint i = 0; i < temp1 ; i++) {... */\n    tag_75:\n        /* \"romanNumeral.sol\":1788:1793  temp1 */\n      dup2\n        /* \"romanNumeral.sol\":1784:1785  i */\n      dup2\n        /* \"romanNumeral.sol\":1784:1793  i < temp1 */\n      lt\n        /* \"romanNumeral.sol\":1767:1902  for (uint i = 0; i < temp1 ; i++) {... */\n      iszero\n      tag_76\n      jumpi\n        /* \"romanNumeral.sol\":1863:1872  romanRepr */\n      dup3\n        /* \"romanNumeral.sol\":1846:1878  abi.encodePacked(romanRepr, \"X\") */\n      add(0x20, mload(0x40))\n      tag_78\n      swap2\n      swap1\n      tag_79\n      jump\t// in\n    tag_78:\n      mload(0x40)\n      0x20\n      dup2\n      dup4\n      sub\n      sub\n      dup2\n      mstore\n      swap1\n      0x40\n      mstore\n        /* \"romanNumeral.sol\":1827:1879  romanRepr = string(abi.encodePacked(romanRepr, \"X\")) */\n      swap3\n      pop\n        /* \"romanNumeral.sol\":1796:1799  i++ */\n      dup1\n      dup1\n      tag_80\n      swap1\n      tag_44\n      jump\t// in\n    tag_80:\n      swap2\n      pop\n      pop\n        /* \"romanNumeral.sol\":1767:1902  for (uint i = 0; i < temp1 ; i++) {... */\n      jump(tag_75)\n    tag_76:\n      pop\n        /* \"romanNumeral.sol\":1980:1982  10 */\n      0x0a\n        /* \"romanNumeral.sol\":1971:1977  number */\n      dup5\n        /* \"romanNumeral.sol\":1971:1982  number % 10 */\n      tag_81\n      swap2\n      swap1\n      tag_29\n      jump\t// in\n    tag_81:\n        /* \"romanNumeral.sol\":1962:1982  number = number % 10 */\n      swap4\n      pop\n        /* \"romanNumeral.sol\":1568:2001  {... */\n      pop\n        /* \"romanNumeral.sol\":1550:2001  if (number >= 50) {... */\n    tag_70:\n        /* \"romanNumeral.sol\":2020:2022  10 */\n      0x0a\n        /* \"romanNumeral.sol\":2010:2016  number */\n      dup4\n        /* \"romanNumeral.sol\":2010:2022  number >= 10 */\n      lt\n      iszero\n        /* \"romanNumeral.sol\":2010:2037  number >= 10 && number < 50 */\n      dup1\n      iszero\n      tag_82\n      jumpi\n      pop\n        /* \"romanNumeral.sol\":2035:2037  50 */\n      0x32\n        /* \"romanNumeral.sol\":2026:2032  number */\n      dup4\n        /* \"romanNumeral.sol\":2026:2037  number < 50 */\n      lt\n        /* \"romanNumeral.sol\":2010:2037  number >= 10 && number < 50 */\n    tag_82:\n        /* \"romanNumeral.sol\":2006:2352  if (number >= 10 && number < 50) {... */\n      iszero\n      tag_83\n      jumpi\n        /* \"romanNumeral.sol\":2061:2071  uint temp1 */\n      0x00\n        /* \"romanNumeral.sol\":2075:2096  fetchDigit(number, 1) */\n      tag_84\n        /* \"romanNumeral.sol\":2086:2092  number */\n      dup5\n        /* \"romanNumeral.sol\":2094:2095  1 */\n      0x01\n        /* \"romanNumeral.sol\":2075:2085  fetchDigit */\n      tag_9\n        /* \"romanNumeral.sol\":2075:2096  fetchDigit(number, 1) */\n      jump\t// in\n    tag_84:\n        /* \"romanNumeral.sol\":2061:2096  uint temp1 =  fetchDigit(number, 1) */\n      swap1\n      pop\n        /* \"romanNumeral.sol\":2123:2129  uint i */\n      0x00\n        /* \"romanNumeral.sol\":2118:2253  for (uint i = 0; i < temp1 ; i++) {... */\n    tag_85:\n        /* \"romanNumeral.sol\":2139:2144  temp1 */\n      dup2\n        /* \"romanNumeral.sol\":2135:2136  i */\n      dup2\n        /* \"romanNumeral.sol\":2135:2144  i < temp1 */\n      lt\n        /* \"romanNumeral.sol\":2118:2253  for (uint i = 0; i < temp1 ; i++) {... */\n      iszero\n      tag_86\n      jumpi\n        /* \"romanNumeral.sol\":2214:2223  romanRepr */\n      dup3\n        /* \"romanNumeral.sol\":2197:2229  abi.encodePacked(romanRepr, \"X\") */\n      add(0x20, mload(0x40))\n      tag_88\n      swap2\n      swap1\n      tag_79\n      jump\t// in\n    tag_88:\n      mload(0x40)\n      0x20\n      dup2\n      dup4\n      sub\n      sub\n      dup2\n      mstore\n      swap1\n      0x40\n      mstore\n        /* \"romanNumeral.sol\":2178:2230  romanRepr = string(abi.encodePacked(romanRepr, \"X\")) */\n      swap3\n      pop\n        /* \"romanNumeral.sol\":2147:2150  i++ */\n      dup1\n      dup1\n      tag_89\n      swap1\n      tag_44\n      jump\t// in\n    tag_89:\n      swap2\n      pop\n      pop\n        /* \"romanNumeral.sol\":2118:2253  for (uint i = 0; i < temp1 ; i++) {... */\n      jump(tag_85)\n    tag_86:\n      pop\n        /* \"romanNumeral.sol\":2331:2333  10 */\n      0x0a\n        /* \"romanNumeral.sol\":2322:2328  number */\n      dup5\n        /* \"romanNumeral.sol\":2322:2333  number % 10 */\n      tag_90\n      swap2\n      swap1\n      tag_29\n      jump\t// in\n    tag_90:\n        /* \"romanNumeral.sol\":2313:2333  number = number % 10 */\n      swap4\n      pop\n        /* \"romanNumeral.sol\":2039:2352  {... */\n      pop\n        /* \"romanNumeral.sol\":2006:2352  if (number >= 10 && number < 50) {... */\n    tag_83:\n        /* \"romanNumeral.sol\":2404:2405  5 */\n      0x05\n        /* \"romanNumeral.sol\":2394:2400  number */\n      dup4\n        /* \"romanNumeral.sol\":2394:2405  number >= 5 */\n      lt\n        /* \"romanNumeral.sol\":2390:2865  if (number >= 5) {... */\n      tag_91\n      jumpi\n        /* \"romanNumeral.sol\":2516:2525  romanRepr */\n      dup1\n        /* \"romanNumeral.sol\":2499:2531  abi.encodePacked(romanRepr, \"V\") */\n      add(0x20, mload(0x40))\n      tag_92\n      swap2\n      swap1\n      tag_93\n      jump\t// in\n    tag_92:\n      mload(0x40)\n      0x20\n      dup2\n      dup4\n      sub\n      sub\n      dup2\n      mstore\n      swap1\n      0x40\n      mstore\n        /* \"romanNumeral.sol\":2480:2532  romanRepr = string(abi.encodePacked(romanRepr, \"V\")) */\n      swap1\n      pop\n        /* \"romanNumeral.sol\":2558:2568  uint temp1 */\n      0x00\n        /* \"romanNumeral.sol\":2572:2595  fetchDigit(number-5, 0) */\n      tag_94\n        /* \"romanNumeral.sol\":2590:2591  5 */\n      0x05\n        /* \"romanNumeral.sol\":2583:2589  number */\n      dup6\n        /* \"romanNumeral.sol\":2583:2591  number-5 */\n      tag_95\n      swap2\n      swap1\n      tag_53\n      jump\t// in\n    tag_95:\n        /* \"romanNumeral.sol\":2593:2594  0 */\n      0x00\n        /* \"romanNumeral.sol\":2572:2582  fetchDigit */\n      tag_9\n        /* \"romanNumeral.sol\":2572:2595  fetchDigit(number-5, 0) */\n      jump\t// in\n    tag_94:\n        /* \"romanNumeral.sol\":2558:2595  uint temp1 =  fetchDigit(number-5, 0) */\n      swap1\n      pop\n        /* \"romanNumeral.sol\":2626:2632  uint i */\n      0x00\n        /* \"romanNumeral.sol\":2621:2764  for (uint i = 0; i < temp1 ; i++) {... */\n    tag_96:\n        /* \"romanNumeral.sol\":2642:2647  temp1 */\n      dup2\n        /* \"romanNumeral.sol\":2638:2639  i */\n      dup2\n        /* \"romanNumeral.sol\":2638:2647  i < temp1 */\n      lt\n        /* \"romanNumeral.sol\":2621:2764  for (uint i = 0; i < temp1 ; i++) {... */\n      iszero\n      tag_97\n      jumpi\n        /* \"romanNumeral.sol\":2721:2730  romanRepr */\n      dup3\n        /* \"romanNumeral.sol\":2704:2736  abi.encodePacked(romanRepr, \"I\") */\n      add(0x20, mload(0x40))\n      tag_99\n      swap2\n      swap1\n      tag_100\n      jump\t// in\n    tag_99:\n      mload(0x40)\n      0x20\n      dup2\n      dup4\n      sub\n      sub\n      dup2\n      mstore\n      swap1\n      0x40\n      mstore\n        /* \"romanNumeral.sol\":2685:2737  romanRepr = string(abi.encodePacked(romanRepr, \"I\")) */\n      swap3\n      pop\n        /* \"romanNumeral.sol\":2650:2653  i++ */\n      dup1\n      dup1\n      tag_101\n      swap1\n      tag_44\n      jump\t// in\n    tag_101:\n      swap2\n      pop\n      pop\n        /* \"romanNumeral.sol\":2621:2764  for (uint i = 0; i < temp1 ; i++) {... */\n      jump(tag_96)\n    tag_97:\n      pop\n        /* \"romanNumeral.sol\":2841:2842  0 */\n      0x00\n        /* \"romanNumeral.sol\":2832:2842  number = 0 */\n      swap4\n      pop\n        /* \"romanNumeral.sol\":2407:2865  {... */\n      pop\n        /* \"romanNumeral.sol\":2390:2865  if (number >= 5) {... */\n    tag_91:\n        /* \"romanNumeral.sol\":2900:2901  1 */\n      0x01\n        /* \"romanNumeral.sol\":2890:2896  number */\n      dup4\n        /* \"romanNumeral.sol\":2890:2901  number >= 1 */\n      lt\n      iszero\n        /* \"romanNumeral.sol\":2890:2915  number >= 1 && number < 5 */\n      dup1\n      iszero\n      tag_102\n      jumpi\n      pop\n        /* \"romanNumeral.sol\":2914:2915  5 */\n      0x05\n        /* \"romanNumeral.sol\":2905:2911  number */\n      dup4\n        /* \"romanNumeral.sol\":2905:2915  number < 5 */\n      lt\n        /* \"romanNumeral.sol\":2890:2915  number >= 1 && number < 5 */\n    tag_102:\n        /* \"romanNumeral.sol\":2886:3248  if (number >= 1 && number < 5) {... */\n      iszero\n      tag_103\n      jumpi\n        /* \"romanNumeral.sol\":2943:2953  uint temp1 */\n      0x00\n        /* \"romanNumeral.sol\":2957:2978  fetchDigit(number, 0) */\n      tag_104\n        /* \"romanNumeral.sol\":2968:2974  number */\n      dup5\n        /* \"romanNumeral.sol\":2976:2977  0 */\n      0x00\n        /* \"romanNumeral.sol\":2957:2967  fetchDigit */\n      tag_9\n        /* \"romanNumeral.sol\":2957:2978  fetchDigit(number, 0) */\n      jump\t// in\n    tag_104:\n        /* \"romanNumeral.sol\":2943:2978  uint temp1 =  fetchDigit(number, 0) */\n      swap1\n      pop\n        /* \"romanNumeral.sol\":3009:3015  uint i */\n      0x00\n        /* \"romanNumeral.sol\":3004:3147  for (uint i = 0; i < temp1 ; i++) {... */\n    tag_105:\n        /* \"romanNumeral.sol\":3025:3030  temp1 */\n      dup2\n        /* \"romanNumeral.sol\":3021:3022  i */\n      dup2\n        /* \"romanNumeral.sol\":3021:3030  i < temp1 */\n      lt\n        /* \"romanNumeral.sol\":3004:3147  for (uint i = 0; i < temp1 ; i++) {... */\n      iszero\n      tag_106\n      jumpi\n        /* \"romanNumeral.sol\":3104:3113  romanRepr */\n      dup3\n        /* \"romanNumeral.sol\":3087:3119  abi.encodePacked(romanRepr, \"I\") */\n      add(0x20, mload(0x40))\n      tag_108\n      swap2\n      swap1\n      tag_100\n      jump\t// in\n    tag_108:\n      mload(0x40)\n      0x20\n      dup2\n      dup4\n      sub\n      sub\n      dup2\n      mstore\n      swap1\n      0x40\n      mstore\n        /* \"romanNumeral.sol\":3068:3120  romanRepr = string(abi.encodePacked(romanRepr, \"I\")) */\n      swap3\n      pop\n        /* \"romanNumeral.sol\":3033:3036  i++ */\n      dup1\n      dup1\n      tag_109\n      swap1\n      tag_44\n      jump\t// in\n    tag_109:\n      swap2\n      pop\n      pop\n        /* \"romanNumeral.sol\":3004:3147  for (uint i = 0; i < temp1 ; i++) {... */\n      jump(tag_105)\n    tag_106:\n      pop\n        /* \"romanNumeral.sol\":3224:3225  0 */\n      0x00\n        /* \"romanNumeral.sol\":3215:3225  number = 0 */\n      swap4\n      pop\n        /* \"romanNumeral.sol\":2917:3248  {... */\n      pop\n        /* \"romanNumeral.sol\":2886:3248  if (number >= 1 && number < 5) {... */\n    tag_103:\n        /* \"romanNumeral.sol\":426:3304  while (number != 0) {... */\n      jump(tag_34)\n    tag_35:\n        /* \"romanNumeral.sol\":3316:3325  romanRepr */\n      dup1\n        /* \"romanNumeral.sol\":3309:3325  return romanRepr */\n      swap4\n      pop\n      pop\n      pop\n      pop\n        /* \"romanNumeral.sol\":270:3328  function getRoman(uint _num) public pure returns (string memory) {... */\n      swap2\n      swap1\n      pop\n      jump\t// out\n        /* \"#utility.yul\":7:82   */\n    tag_110:\n        /* \"#utility.yul\":40:46   */\n      0x00\n        /* \"#utility.yul\":73:75   */\n      0x40\n        /* \"#utility.yul\":67:76   */\n      mload\n        /* \"#utility.yul\":57:76   */\n      swap1\n      pop\n        /* \"#utility.yul\":7:82   */\n      swap1\n      jump\t// out\n        /* \"#utility.yul\":88:205   */\n    tag_111:\n        /* \"#utility.yul\":197:198   */\n      0x00\n        /* \"#utility.yul\":194:195   */\n      dup1\n        /* \"#utility.yul\":187:199   */\n      revert\n        /* \"#utility.yul\":211:328   */\n    tag_112:\n        /* \"#utility.yul\":320:321   */\n      0x00\n        /* \"#utility.yul\":317:318   */\n      dup1\n        /* \"#utility.yul\":310:322   */\n      revert\n        /* \"#utility.yul\":334:411   */\n    tag_113:\n        /* \"#utility.yul\":371:378   */\n      0x00\n        /* \"#utility.yul\":400:405   */\n      dup2\n        /* \"#utility.yul\":389:405   */\n      swap1\n      pop\n        /* \"#utility.yul\":334:411   */\n      swap2\n      swap1\n      pop\n      jump\t// out\n        /* \"#utility.yul\":417:539   */\n    tag_114:\n        /* \"#utility.yul\":490:514   */\n      tag_158\n        /* \"#utility.yul\":508:513   */\n      dup2\n        /* \"#utility.yul\":490:514   */\n      tag_113\n      jump\t// in\n    tag_158:\n        /* \"#utility.yul\":483:488   */\n      dup2\n        /* \"#utility.yul\":480:515   */\n      eq\n        /* \"#utility.yul\":470:533   */\n      tag_159\n      jumpi\n        /* \"#utility.yul\":529:530   */\n      0x00\n        /* \"#utility.yul\":526:527   */\n      dup1\n        /* \"#utility.yul\":519:531   */\n      revert\n        /* \"#utility.yul\":470:533   */\n    tag_159:\n        /* \"#utility.yul\":417:539   */\n      pop\n      jump\t// out\n        /* \"#utility.yul\":545:684   */\n    tag_115:\n        /* \"#utility.yul\":591:596   */\n      0x00\n        /* \"#utility.yul\":629:635   */\n      dup2\n        /* \"#utility.yul\":616:636   */\n      calldataload\n        /* \"#utility.yul\":607:636   */\n      swap1\n      pop\n        /* \"#utility.yul\":645:678   */\n      tag_161\n        /* \"#utility.yul\":672:677   */\n      dup2\n        /* \"#utility.yul\":645:678   */\n      tag_114\n      jump\t// in\n    tag_161:\n        /* \"#utility.yul\":545:684   */\n      swap3\n      swap2\n      pop\n      pop\n      jump\t// out\n        /* \"#utility.yul\":690:1164   */\n    tag_8:\n        /* \"#utility.yul\":758:764   */\n      0x00\n        /* \"#utility.yul\":766:772   */\n      dup1\n        /* \"#utility.yul\":815:817   */\n      0x40\n        /* \"#utility.yul\":803:812   */\n      dup4\n        /* \"#utility.yul\":794:801   */\n      dup6\n        /* \"#utility.yul\":790:813   */\n      sub\n        /* \"#utility.yul\":786:818   */\n      slt\n        /* \"#utility.yul\":783:902   */\n      iszero\n      tag_163\n      jumpi\n        /* \"#utility.yul\":821:900   */\n      tag_164\n      tag_111\n      jump\t// in\n    tag_164:\n        /* \"#utility.yul\":783:902   */\n    tag_163:\n        /* \"#utility.yul\":941:942   */\n      0x00\n        /* \"#utility.yul\":966:1019   */\n      tag_165\n        /* \"#utility.yul\":1011:1018   */\n      dup6\n        /* \"#utility.yul\":1002:1008   */\n      dup3\n        /* \"#utility.yul\":991:1000   */\n      dup7\n        /* \"#utility.yul\":987:1009   */\n      add\n        /* \"#utility.yul\":966:1019   */\n      tag_115\n      jump\t// in\n    tag_165:\n        /* \"#utility.yul\":956:1019   */\n      swap3\n      pop\n        /* \"#utility.yul\":912:1029   */\n      pop\n        /* \"#utility.yul\":1068:1070   */\n      0x20\n        /* \"#utility.yul\":1094:1147   */\n      tag_166\n        /* \"#utility.yul\":1139:1146   */\n      dup6\n        /* \"#utility.yul\":1130:1136   */\n      dup3\n        /* \"#utility.yul\":1119:1128   */\n      dup7\n        /* \"#utility.yul\":1115:1137   */\n      add\n        /* \"#utility.yul\":1094:1147   */\n      tag_115\n      jump\t// in\n    tag_166:\n        /* \"#utility.yul\":1084:1147   */\n      swap2\n      pop\n        /* \"#utility.yul\":1039:1157   */\n      pop\n        /* \"#utility.yul\":690:1164   */\n      swap3\n      pop\n      swap3\n      swap1\n      pop\n      jump\t// out\n        /* \"#utility.yul\":1170:1288   */\n    tag_116:\n        /* \"#utility.yul\":1257:1281   */\n      tag_168\n        /* \"#utility.yul\":1275:1280   */\n      dup2\n        /* \"#utility.yul\":1257:1281   */\n      tag_113\n      jump\t// in\n    tag_168:\n        /* \"#utility.yul\":1252:1255   */\n      dup3\n        /* \"#utility.yul\":1245:1282   */\n      mstore\n        /* \"#utility.yul\":1170:1288   */\n      pop\n      pop\n      jump\t// out\n        /* \"#utility.yul\":1294:1516   */\n    tag_11:\n        /* \"#utility.yul\":1387:1391   */\n      0x00\n        /* \"#utility.yul\":1425:1427   */\n      0x20\n        /* \"#utility.yul\":1414:1423   */\n      dup3\n        /* \"#utility.yul\":1410:1428   */\n      add\n        /* \"#utility.yul\":1402:1428   */\n      swap1\n      pop\n        /* \"#utility.yul\":1438:1509   */\n      tag_170\n        /* \"#utility.yul\":1506:1507   */\n      0x00\n        /* \"#utility.yul\":1495:1504   */\n      dup4\n        /* \"#utility.yul\":1491:1508   */\n      add\n        /* \"#utility.yul\":1482:1488   */\n      dup5\n        /* \"#utility.yul\":1438:1509   */\n      tag_116\n      jump\t// in\n    tag_170:\n        /* \"#utility.yul\":1294:1516   */\n      swap3\n      swap2\n      pop\n      pop\n      jump\t// out\n        /* \"#utility.yul\":1522:1639   */\n    tag_117:\n        /* \"#utility.yul\":1631:1632   */\n      0x00\n        /* \"#utility.yul\":1628:1629   */\n      dup1\n        /* \"#utility.yul\":1621:1633   */\n      revert\n        /* \"#utility.yul\":1645:1762   */\n    tag_118:\n        /* \"#utility.yul\":1754:1755   */\n      0x00\n        /* \"#utility.yul\":1751:1752   */\n      dup1\n        /* \"#utility.yul\":1744:1756   */\n      revert\n        /* \"#utility.yul\":1768:1870   */\n    tag_119:\n        /* \"#utility.yul\":1809:1815   */\n      0x00\n        /* \"#utility.yul\":1860:1862   */\n      0x1f\n        /* \"#utility.yul\":1856:1863   */\n      not\n        /* \"#utility.yul\":1851:1853   */\n      0x1f\n        /* \"#utility.yul\":1844:1849   */\n      dup4\n        /* \"#utility.yul\":1840:1854   */\n      add\n        /* \"#utility.yul\":1836:1864   */\n      and\n        /* \"#utility.yul\":1826:1864   */\n      swap1\n      pop\n        /* \"#utility.yul\":1768:1870   */\n      swap2\n      swap1\n      pop\n      jump\t// out\n        /* \"#utility.yul\":1876:2056   */\n    tag_120:\n        /* \"#utility.yul\":1924:2001   */\n      0x4e487b7100000000000000000000000000000000000000000000000000000000\n        /* \"#utility.yul\":1921:1922   */\n      0x00\n        /* \"#utility.yul\":1914:2002   */\n      mstore\n        /* \"#utility.yul\":2021:2025   */\n      0x41\n        /* \"#utility.yul\":2018:2019   */\n      0x04\n        /* \"#utility.yul\":2011:2026   */\n      mstore\n        /* \"#utility.yul\":2045:2049   */\n      0x24\n        /* \"#utility.yul\":2042:2043   */\n      0x00\n        /* \"#utility.yul\":2035:2050   */\n      revert\n        /* \"#utility.yul\":2062:2343   */\n    tag_121:\n        /* \"#utility.yul\":2145:2172   */\n      tag_176\n        /* \"#utility.yul\":2167:2171   */\n      dup3\n        /* \"#utility.yul\":2145:2172   */\n      tag_119\n      jump\t// in\n    tag_176:\n        /* \"#utility.yul\":2137:2143   */\n      dup2\n        /* \"#utility.yul\":2133:2173   */\n      add\n        /* \"#utility.yul\":2275:2281   */\n      dup2\n        /* \"#utility.yul\":2263:2273   */\n      dup2\n        /* \"#utility.yul\":2260:2282   */\n      lt\n        /* \"#utility.yul\":2239:2257   */\n      0xffffffffffffffff\n        /* \"#utility.yul\":2227:2237   */\n      dup3\n        /* \"#utility.yul\":2224:2258   */\n      gt\n        /* \"#utility.yul\":2221:2283   */\n      or\n        /* \"#utility.yul\":2218:2306   */\n      iszero\n      tag_177\n      jumpi\n        /* \"#utility.yul\":2286:2304   */\n      tag_178\n      tag_120\n      jump\t// in\n    tag_178:\n        /* \"#utility.yul\":2218:2306   */\n    tag_177:\n        /* \"#utility.yul\":2326:2336   */\n      dup1\n        /* \"#utility.yul\":2322:2324   */\n      0x40\n        /* \"#utility.yul\":2315:2337   */\n      mstore\n        /* \"#utility.yul\":2105:2343   */\n      pop\n        /* \"#utility.yul\":2062:2343   */\n      pop\n      pop\n      jump\t// out\n        /* \"#utility.yul\":2349:2478   */\n    tag_122:\n        /* \"#utility.yul\":2383:2389   */\n      0x00\n        /* \"#utility.yul\":2410:2430   */\n      tag_180\n      tag_110\n      jump\t// in\n    tag_180:\n        /* \"#utility.yul\":2400:2430   */\n      swap1\n      pop\n        /* \"#utility.yul\":2439:2472   */\n      tag_181\n        /* \"#utility.yul\":2467:2471   */\n      dup3\n        /* \"#utility.yul\":2459:2465   */\n      dup3\n        /* \"#utility.yul\":2439:2472   */\n      tag_121\n      jump\t// in\n    tag_181:\n        /* \"#utility.yul\":2349:2478   */\n      swap2\n      swap1\n      pop\n      jump\t// out\n        /* \"#utility.yul\":2484:2792   */\n    tag_123:\n        /* \"#utility.yul\":2546:2550   */\n      0x00\n        /* \"#utility.yul\":2636:2654   */\n      0xffffffffffffffff\n        /* \"#utility.yul\":2628:2634   */\n      dup3\n        /* \"#utility.yul\":2625:2655   */\n      gt\n        /* \"#utility.yul\":2622:2678   */\n      iszero\n      tag_183\n      jumpi\n        /* \"#utility.yul\":2658:2676   */\n      tag_184\n      tag_120\n      jump\t// in\n    tag_184:\n        /* \"#utility.yul\":2622:2678   */\n    tag_183:\n        /* \"#utility.yul\":2696:2725   */\n      tag_185\n        /* \"#utility.yul\":2718:2724   */\n      dup3\n        /* \"#utility.yul\":2696:2725   */\n      tag_119\n      jump\t// in\n    tag_185:\n        /* \"#utility.yul\":2688:2725   */\n      swap1\n      pop\n        /* \"#utility.yul\":2780:2784   */\n      0x20\n        /* \"#utility.yul\":2774:2778   */\n      dup2\n        /* \"#utility.yul\":2770:2785   */\n      add\n        /* \"#utility.yul\":2762:2785   */\n      swap1\n      pop\n        /* \"#utility.yul\":2484:2792   */\n      swap2\n      swap1\n      pop\n      jump\t// out\n        /* \"#utility.yul\":2798:2944   */\n    tag_124:\n        /* \"#utility.yul\":2895:2901   */\n      dup3\n        /* \"#utility.yul\":2890:2893   */\n      dup2\n        /* \"#utility.yul\":2885:2888   */\n      dup4\n        /* \"#utility.yul\":2872:2902   */\n      calldatacopy\n        /* \"#utility.yul\":2936:2937   */\n      0x00\n        /* \"#utility.yul\":2927:2933   */\n      dup4\n        /* \"#utility.yul\":2922:2925   */\n      dup4\n        /* \"#utility.yul\":2918:2934   */\n      add\n        /* \"#utility.yul\":2911:2938   */\n      mstore\n        /* \"#utility.yul\":2798:2944   */\n      pop\n      pop\n      pop\n      jump\t// out\n        /* \"#utility.yul\":2950:3375   */\n    tag_125:\n        /* \"#utility.yul\":3028:3033   */\n      0x00\n        /* \"#utility.yul\":3053:3119   */\n      tag_188\n        /* \"#utility.yul\":3069:3118   */\n      tag_189\n        /* \"#utility.yul\":3111:3117   */\n      dup5\n        /* \"#utility.yul\":3069:3118   */\n      tag_123\n      jump\t// in\n    tag_189:\n        /* \"#utility.yul\":3053:3119   */\n      tag_122\n      jump\t// in\n    tag_188:\n        /* \"#utility.yul\":3044:3119   */\n      swap1\n      pop\n        /* \"#utility.yul\":3142:3148   */\n      dup3\n        /* \"#utility.yul\":3135:3140   */\n      dup2\n        /* \"#utility.yul\":3128:3149   */\n      mstore\n        /* \"#utility.yul\":3180:3184   */\n      0x20\n        /* \"#utility.yul\":3173:3178   */\n      dup2\n        /* \"#utility.yul\":3169:3185   */\n      add\n        /* \"#utility.yul\":3218:3221   */\n      dup5\n        /* \"#utility.yul\":3209:3215   */\n      dup5\n        /* \"#utility.yul\":3204:3207   */\n      dup5\n        /* \"#utility.yul\":3200:3216   */\n      add\n        /* \"#utility.yul\":3197:3222   */\n      gt\n        /* \"#utility.yul\":3194:3306   */\n      iszero\n      tag_190\n      jumpi\n        /* \"#utility.yul\":3225:3304   */\n      tag_191\n      tag_118\n      jump\t// in\n    tag_191:\n        /* \"#utility.yul\":3194:3306   */\n    tag_190:\n        /* \"#utility.yul\":3315:3369   */\n      tag_192\n        /* \"#utility.yul\":3362:3368   */\n      dup5\n        /* \"#utility.yul\":3357:3360   */\n      dup3\n        /* \"#utility.yul\":3352:3355   */\n      dup6\n        /* \"#utility.yul\":3315:3369   */\n      tag_124\n      jump\t// in\n    tag_192:\n        /* \"#utility.yul\":3034:3375   */\n      pop\n        /* \"#utility.yul\":2950:3375   */\n      swap4\n      swap3\n      pop\n      pop\n      pop\n      jump\t// out\n        /* \"#utility.yul\":3395:3735   */\n    tag_126:\n        /* \"#utility.yul\":3451:3456   */\n      0x00\n        /* \"#utility.yul\":3500:3503   */\n      dup3\n        /* \"#utility.yul\":3493:3497   */\n      0x1f\n        /* \"#utility.yul\":3485:3491   */\n      dup4\n        /* \"#utility.yul\":3481:3498   */\n      add\n        /* \"#utility.yul\":3477:3504   */\n      slt\n        /* \"#utility.yul\":3467:3589   */\n      tag_194\n      jumpi\n        /* \"#utility.yul\":3508:3587   */\n      tag_195\n      tag_117\n      jump\t// in\n    tag_195:\n        /* \"#utility.yul\":3467:3589   */\n    tag_194:\n        /* \"#utility.yul\":3625:3631   */\n      dup2\n        /* \"#utility.yul\":3612:3632   */\n      calldataload\n        /* \"#utility.yul\":3650:3729   */\n      tag_196\n        /* \"#utility.yul\":3725:3728   */\n      dup5\n        /* \"#utility.yul\":3717:3723   */\n      dup3\n        /* \"#utility.yul\":3710:3714   */\n      0x20\n        /* \"#utility.yul\":3702:3708   */\n      dup7\n        /* \"#utility.yul\":3698:3715   */\n      add\n        /* \"#utility.yul\":3650:3729   */\n      tag_125\n      jump\t// in\n    tag_196:\n        /* \"#utility.yul\":3641:3729   */\n      swap2\n      pop\n        /* \"#utility.yul\":3457:3735   */\n      pop\n        /* \"#utility.yul\":3395:3735   */\n      swap3\n      swap2\n      pop\n      pop\n      jump\t// out\n        /* \"#utility.yul\":3741:4900   */\n    tag_14:\n        /* \"#utility.yul\":3848:3854   */\n      0x00\n        /* \"#utility.yul\":3856:3862   */\n      dup1\n        /* \"#utility.yul\":3864:3870   */\n      0x00\n        /* \"#utility.yul\":3913:3915   */\n      0x60\n        /* \"#utility.yul\":3901:3910   */\n      dup5\n        /* \"#utility.yul\":3892:3899   */\n      dup7\n        /* \"#utility.yul\":3888:3911   */\n      sub\n        /* \"#utility.yul\":3884:3916   */\n      slt\n        /* \"#utility.yul\":3881:4000   */\n      iszero\n      tag_198\n      jumpi\n        /* \"#utility.yul\":3919:3998   */\n      tag_199\n      tag_111\n      jump\t// in\n    tag_199:\n        /* \"#utility.yul\":3881:4000   */\n    tag_198:\n        /* \"#utility.yul\":4067:4068   */\n      0x00\n        /* \"#utility.yul\":4056:4065   */\n      dup5\n        /* \"#utility.yul\":4052:4069   */\n      add\n        /* \"#utility.yul\":4039:4070   */\n      calldataload\n        /* \"#utility.yul\":4097:4115   */\n      0xffffffffffffffff\n        /* \"#utility.yul\":4089:4095   */\n      dup2\n        /* \"#utility.yul\":4086:4116   */\n      gt\n        /* \"#utility.yul\":4083:4200   */\n      iszero\n      tag_200\n      jumpi\n        /* \"#utility.yul\":4119:4198   */\n      tag_201\n      tag_112\n      jump\t// in\n    tag_201:\n        /* \"#utility.yul\":4083:4200   */\n    tag_200:\n        /* \"#utility.yul\":4224:4287   */\n      tag_202\n        /* \"#utility.yul\":4279:4286   */\n      dup7\n        /* \"#utility.yul\":4270:4276   */\n      dup3\n        /* \"#utility.yul\":4259:4268   */\n      dup8\n        /* \"#utility.yul\":4255:4277   */\n      add\n        /* \"#utility.yul\":4224:4287   */\n      tag_126\n      jump\t// in\n    tag_202:\n        /* \"#utility.yul\":4214:4287   */\n      swap4\n      pop\n        /* \"#utility.yul\":4010:4297   */\n      pop\n        /* \"#utility.yul\":4364:4366   */\n      0x20\n        /* \"#utility.yul\":4353:4362   */\n      dup5\n        /* \"#utility.yul\":4349:4367   */\n      add\n        /* \"#utility.yul\":4336:4368   */\n      calldataload\n        /* \"#utility.yul\":4395:4413   */\n      0xffffffffffffffff\n        /* \"#utility.yul\":4387:4393   */\n      dup2\n        /* \"#utility.yul\":4384:4414   */\n      gt\n        /* \"#utility.yul\":4381:4498   */\n      iszero\n      tag_203\n      jumpi\n        /* \"#utility.yul\":4417:4496   */\n      tag_204\n      tag_112\n      jump\t// in\n    tag_204:\n        /* \"#utility.yul\":4381:4498   */\n    tag_203:\n        /* \"#utility.yul\":4522:4585   */\n      tag_205\n        /* \"#utility.yul\":4577:4584   */\n      dup7\n        /* \"#utility.yul\":4568:4574   */\n      dup3\n        /* \"#utility.yul\":4557:4566   */\n      dup8\n        /* \"#utility.yul\":4553:4575   */\n      add\n        /* \"#utility.yul\":4522:4585   */\n      tag_126\n      jump\t// in\n    tag_205:\n        /* \"#utility.yul\":4512:4585   */\n      swap3\n      pop\n        /* \"#utility.yul\":4307:4595   */\n      pop\n        /* \"#utility.yul\":4662:4664   */\n      0x40\n        /* \"#utility.yul\":4651:4660   */\n      dup5\n        /* \"#utility.yul\":4647:4665   */\n      add\n        /* \"#utility.yul\":4634:4666   */\n      calldataload\n        /* \"#utility.yul\":4693:4711   */\n      0xffffffffffffffff\n        /* \"#utility.yul\":4685:4691   */\n      dup2\n        /* \"#utility.yul\":4682:4712   */\n      gt\n        /* \"#utility.yul\":4679:4796   */\n      iszero\n      tag_206\n      jumpi\n        /* \"#utility.yul\":4715:4794   */\n      tag_207\n      tag_112\n      jump\t// in\n    tag_207:\n        /* \"#utility.yul\":4679:4796   */\n    tag_206:\n        /* \"#utility.yul\":4820:4883   */\n      tag_208\n        /* \"#utility.yul\":4875:4882   */\n      dup7\n        /* \"#utility.yul\":4866:4872   */\n      dup3\n        /* \"#utility.yul\":4855:4864   */\n      dup8\n        /* \"#utility.yul\":4851:4873   */\n      add\n        /* \"#utility.yul\":4820:4883   */\n      tag_126\n      jump\t// in\n    tag_208:\n        /* \"#utility.yul\":4810:4883   */\n      swap2\n      pop\n        /* \"#utility.yul\":4605:4893   */\n      pop\n        /* \"#utility.yul\":3741:4900   */\n      swap3\n      pop\n      swap3\n      pop\n      swap3\n      jump\t// out\n        /* \"#utility.yul\":4906:5005   */\n    tag_127:\n        /* \"#utility.yul\":4958:4964   */\n      0x00\n        /* \"#utility.yul\":4992:4997   */\n      dup2\n        /* \"#utility.yul\":4986:4998   */\n      mload\n        /* \"#utility.yul\":4976:4998   */\n      swap1\n      pop\n        /* \"#utility.yul\":4906:5005   */\n      swap2\n      swap1\n      pop\n      jump\t// out\n        /* \"#utility.yul\":5011:5180   */\n    tag_128:\n        /* \"#utility.yul\":5095:5106   */\n      0x00\n        /* \"#utility.yul\":5129:5135   */\n      dup3\n        /* \"#utility.yul\":5124:5127   */\n      dup3\n        /* \"#utility.yul\":5117:5136   */\n      mstore\n        /* \"#utility.yul\":5169:5173   */\n      0x20\n        /* \"#utility.yul\":5164:5167   */\n      dup3\n        /* \"#utility.yul\":5160:5174   */\n      add\n        /* \"#utility.yul\":5145:5174   */\n      swap1\n      pop\n        /* \"#utility.yul\":5011:5180   */\n      swap3\n      swap2\n      pop\n      pop\n      jump\t// out\n        /* \"#utility.yul\":5186:5432   */\n    tag_129:\n        /* \"#utility.yul\":5267:5268   */\n      0x00\n        /* \"#utility.yul\":5277:5390   */\n    tag_212:\n        /* \"#utility.yul\":5291:5297   */\n      dup4\n        /* \"#utility.yul\":5288:5289   */\n      dup2\n        /* \"#utility.yul\":5285:5298   */\n      lt\n        /* \"#utility.yul\":5277:5390   */\n      iszero\n      tag_214\n      jumpi\n        /* \"#utility.yul\":5376:5377   */\n      dup1\n        /* \"#utility.yul\":5371:5374   */\n      dup3\n        /* \"#utility.yul\":5367:5378   */\n      add\n        /* \"#utility.yul\":5361:5379   */\n      mload\n        /* \"#utility.yul\":5357:5358   */\n      dup2\n        /* \"#utility.yul\":5352:5355   */\n      dup5\n        /* \"#utility.yul\":5348:5359   */\n      add\n        /* \"#utility.yul\":5341:5380   */\n      mstore\n        /* \"#utility.yul\":5313:5315   */\n      0x20\n        /* \"#utility.yul\":5310:5311   */\n      dup2\n        /* \"#utility.yul\":5306:5316   */\n      add\n        /* \"#utility.yul\":5301:5316   */\n      swap1\n      pop\n        /* \"#utility.yul\":5277:5390   */\n      jump(tag_212)\n    tag_214:\n        /* \"#utility.yul\":5424:5425   */\n      0x00\n        /* \"#utility.yul\":5415:5421   */\n      dup5\n        /* \"#utility.yul\":5410:5413   */\n      dup5\n        /* \"#utility.yul\":5406:5422   */\n      add\n        /* \"#utility.yul\":5399:5426   */\n      mstore\n        /* \"#utility.yul\":5248:5432   */\n      pop\n        /* \"#utility.yul\":5186:5432   */\n      pop\n      pop\n      pop\n      jump\t// out\n        /* \"#utility.yul\":5438:5815   */\n    tag_130:\n        /* \"#utility.yul\":5526:5529   */\n      0x00\n        /* \"#utility.yul\":5554:5593   */\n      tag_216\n        /* \"#utility.yul\":5587:5592   */\n      dup3\n        /* \"#utility.yul\":5554:5593   */\n      tag_127\n      jump\t// in\n    tag_216:\n        /* \"#utility.yul\":5609:5680   */\n      tag_217\n        /* \"#utility.yul\":5673:5679   */\n      dup2\n        /* \"#utility.yul\":5668:5671   */\n      dup6\n        /* \"#utility.yul\":5609:5680   */\n      tag_128\n      jump\t// in\n    tag_217:\n        /* \"#utility.yul\":5602:5680   */\n      swap4\n      pop\n        /* \"#utility.yul\":5689:5754   */\n      tag_218\n        /* \"#utility.yul\":5747:5753   */\n      dup2\n        /* \"#utility.yul\":5742:5745   */\n      dup6\n        /* \"#utility.yul\":5735:5739   */\n      0x20\n        /* \"#utility.yul\":5728:5733   */\n      dup7\n        /* \"#utility.yul\":5724:5740   */\n      add\n        /* \"#utility.yul\":5689:5754   */\n      tag_129\n      jump\t// in\n    tag_218:\n        /* \"#utility.yul\":5779:5808   */\n      tag_219\n        /* \"#utility.yul\":5801:5807   */\n      dup2\n        /* \"#utility.yul\":5779:5808   */\n      tag_119\n      jump\t// in\n    tag_219:\n        /* \"#utility.yul\":5774:5777   */\n      dup5\n        /* \"#utility.yul\":5770:5809   */\n      add\n        /* \"#utility.yul\":5763:5809   */\n      swap2\n      pop\n        /* \"#utility.yul\":5530:5815   */\n      pop\n        /* \"#utility.yul\":5438:5815   */\n      swap3\n      swap2\n      pop\n      pop\n      jump\t// out\n        /* \"#utility.yul\":5821:6134   */\n    tag_17:\n        /* \"#utility.yul\":5934:5938   */\n      0x00\n        /* \"#utility.yul\":5972:5974   */\n      0x20\n        /* \"#utility.yul\":5961:5970   */\n      dup3\n        /* \"#utility.yul\":5957:5975   */\n      add\n        /* \"#utility.yul\":5949:5975   */\n      swap1\n      pop\n        /* \"#utility.yul\":6021:6030   */\n      dup2\n        /* \"#utility.yul\":6015:6019   */\n      dup2\n        /* \"#utility.yul\":6011:6031   */\n      sub\n        /* \"#utility.yul\":6007:6008   */\n      0x00\n        /* \"#utility.yul\":5996:6005   */\n      dup4\n        /* \"#utility.yul\":5992:6009   */\n      add\n        /* \"#utility.yul\":5985:6032   */\n      mstore\n        /* \"#utility.yul\":6049:6127   */\n      tag_221\n        /* \"#utility.yul\":6122:6126   */\n      dup2\n        /* \"#utility.yul\":6113:6119   */\n      dup5\n        /* \"#utility.yul\":6049:6127   */\n      tag_130\n      jump\t// in\n    tag_221:\n        /* \"#utility.yul\":6041:6127   */\n      swap1\n      pop\n        /* \"#utility.yul\":5821:6134   */\n      swap3\n      swap2\n      pop\n      pop\n      jump\t// out\n        /* \"#utility.yul\":6140:6469   */\n    tag_20:\n        /* \"#utility.yul\":6199:6205   */\n      0x00\n        /* \"#utility.yul\":6248:6250   */\n      0x20\n        /* \"#utility.yul\":6236:6245   */\n      dup3\n        /* \"#utility.yul\":6227:6234   */\n      dup5\n        /* \"#utility.yul\":6223:6246   */\n      sub\n        /* \"#utility.yul\":6219:6251   */\n      slt\n        /* \"#utility.yul\":6216:6335   */\n      iszero\n      tag_223\n      jumpi\n        /* \"#utility.yul\":6254:6333   */\n      tag_224\n      tag_111\n      jump\t// in\n    tag_224:\n        /* \"#utility.yul\":6216:6335   */\n    tag_223:\n        /* \"#utility.yul\":6374:6375   */\n      0x00\n        /* \"#utility.yul\":6399:6452   */\n      tag_225\n        /* \"#utility.yul\":6444:6451   */\n      dup5\n        /* \"#utility.yul\":6435:6441   */\n      dup3\n        /* \"#utility.yul\":6424:6433   */\n      dup6\n        /* \"#utility.yul\":6420:6442   */\n      add\n        /* \"#utility.yul\":6399:6452   */\n      tag_115\n      jump\t// in\n    tag_225:\n        /* \"#utility.yul\":6389:6452   */\n      swap2\n      pop\n        /* \"#utility.yul\":6345:6462   */\n      pop\n        /* \"#utility.yul\":6140:6469   */\n      swap3\n      swap2\n      pop\n      pop\n      jump\t// out\n        /* \"#utility.yul\":6475:6655   */\n    tag_131:\n        /* \"#utility.yul\":6523:6600   */\n      0x4e487b7100000000000000000000000000000000000000000000000000000000\n        /* \"#utility.yul\":6520:6521   */\n      0x00\n        /* \"#utility.yul\":6513:6601   */\n      mstore\n        /* \"#utility.yul\":6620:6624   */\n      0x11\n        /* \"#utility.yul\":6617:6618   */\n      0x04\n        /* \"#utility.yul\":6610:6625   */\n      mstore\n        /* \"#utility.yul\":6644:6648   */\n      0x24\n        /* \"#utility.yul\":6641:6642   */\n      0x00\n        /* \"#utility.yul\":6634:6649   */\n      revert\n        /* \"#utility.yul\":6661:6763   */\n    tag_132:\n        /* \"#utility.yul\":6703:6711   */\n      0x00\n        /* \"#utility.yul\":6750:6755   */\n      dup2\n        /* \"#utility.yul\":6747:6748   */\n      0x01\n        /* \"#utility.yul\":6743:6756   */\n      shr\n        /* \"#utility.yul\":6722:6756   */\n      swap1\n      pop\n        /* \"#utility.yul\":6661:6763   */\n      swap2\n      swap1\n      pop\n      jump\t// out\n        /* \"#utility.yul\":6769:7617   */\n    tag_133:\n        /* \"#utility.yul\":6830:6835   */\n      0x00\n        /* \"#utility.yul\":6837:6841   */\n      dup1\n        /* \"#utility.yul\":6861:6867   */\n      dup3\n        /* \"#utility.yul\":6852:6867   */\n      swap2\n      pop\n        /* \"#utility.yul\":6885:6890   */\n      dup4\n        /* \"#utility.yul\":6876:6890   */\n      swap1\n      pop\n        /* \"#utility.yul\":6899:7611   */\n    tag_229:\n        /* \"#utility.yul\":6920:6921   */\n      0x01\n        /* \"#utility.yul\":6910:6918   */\n      dup6\n        /* \"#utility.yul\":6907:6922   */\n      gt\n        /* \"#utility.yul\":6899:7611   */\n      iszero\n      tag_231\n      jumpi\n        /* \"#utility.yul\":7015:7019   */\n      dup1\n        /* \"#utility.yul\":7010:7013   */\n      dup7\n        /* \"#utility.yul\":7006:7020   */\n      div\n        /* \"#utility.yul\":7000:7004   */\n      dup2\n        /* \"#utility.yul\":6997:7021   */\n      gt\n        /* \"#utility.yul\":6994:7044   */\n      iszero\n      tag_232\n      jumpi\n        /* \"#utility.yul\":7024:7042   */\n      tag_233\n      tag_131\n      jump\t// in\n    tag_233:\n        /* \"#utility.yul\":6994:7044   */\n    tag_232:\n        /* \"#utility.yul\":7074:7075   */\n      0x01\n        /* \"#utility.yul\":7064:7072   */\n      dup6\n        /* \"#utility.yul\":7060:7076   */\n      and\n        /* \"#utility.yul\":7057:7508   */\n      iszero\n      tag_234\n      jumpi\n        /* \"#utility.yul\":7489:7493   */\n      dup1\n        /* \"#utility.yul\":7482:7487   */\n      dup3\n        /* \"#utility.yul\":7478:7494   */\n      mul\n        /* \"#utility.yul\":7469:7494   */\n      swap2\n      pop\n        /* \"#utility.yul\":7057:7508   */\n    tag_234:\n        /* \"#utility.yul\":7539:7543   */\n      dup1\n        /* \"#utility.yul\":7533:7537   */\n      dup2\n        /* \"#utility.yul\":7529:7544   */\n      mul\n        /* \"#utility.yul\":7521:7544   */\n      swap1\n      pop\n        /* \"#utility.yul\":7569:7601   */\n      tag_235\n        /* \"#utility.yul\":7592:7600   */\n      dup6\n        /* \"#utility.yul\":7569:7601   */\n      tag_132\n      jump\t// in\n    tag_235:\n        /* \"#utility.yul\":7557:7601   */\n      swap5\n      pop\n        /* \"#utility.yul\":6899:7611   */\n      jump(tag_229)\n    tag_231:\n        /* \"#utility.yul\":6769:7617   */\n      swap5\n      pop\n      swap5\n      swap3\n      pop\n      pop\n      pop\n      jump\t// out\n        /* \"#utility.yul\":7623:8696   */\n    tag_134:\n        /* \"#utility.yul\":7677:7682   */\n      0x00\n        /* \"#utility.yul\":7868:7876   */\n      dup3\n        /* \"#utility.yul\":7858:7898   */\n      tag_237\n      jumpi\n        /* \"#utility.yul\":7889:7890   */\n      0x01\n        /* \"#utility.yul\":7880:7890   */\n      swap1\n      pop\n        /* \"#utility.yul\":7891:7896   */\n      jump(tag_236)\n        /* \"#utility.yul\":7858:7898   */\n    tag_237:\n        /* \"#utility.yul\":7917:7921   */\n      dup2\n        /* \"#utility.yul\":7907:7943   */\n      tag_238\n      jumpi\n        /* \"#utility.yul\":7934:7935   */\n      0x00\n        /* \"#utility.yul\":7925:7935   */\n      swap1\n      pop\n        /* \"#utility.yul\":7936:7941   */\n      jump(tag_236)\n        /* \"#utility.yul\":7907:7943   */\n    tag_238:\n        /* \"#utility.yul\":8003:8007   */\n      dup2\n        /* \"#utility.yul\":8051:8052   */\n      0x01\n        /* \"#utility.yul\":8046:8073   */\n      dup2\n      eq\n      tag_240\n      jumpi\n        /* \"#utility.yul\":8087:8088   */\n      0x02\n        /* \"#utility.yul\":8082:8273   */\n      dup2\n      eq\n      tag_241\n      jumpi\n        /* \"#utility.yul\":7996:8273   */\n      jump(tag_239)\n        /* \"#utility.yul\":8046:8073   */\n    tag_240:\n        /* \"#utility.yul\":8064:8065   */\n      0x01\n        /* \"#utility.yul\":8055:8065   */\n      swap2\n      pop\n        /* \"#utility.yul\":8066:8071   */\n      pop\n      jump(tag_236)\n        /* \"#utility.yul\":8082:8273   */\n    tag_241:\n        /* \"#utility.yul\":8127:8130   */\n      0xff\n        /* \"#utility.yul\":8117:8125   */\n      dup5\n        /* \"#utility.yul\":8114:8131   */\n      gt\n        /* \"#utility.yul\":8111:8154   */\n      iszero\n      tag_242\n      jumpi\n        /* \"#utility.yul\":8134:8152   */\n      tag_243\n      tag_131\n      jump\t// in\n    tag_243:\n        /* \"#utility.yul\":8111:8154   */\n    tag_242:\n        /* \"#utility.yul\":8183:8191   */\n      dup4\n        /* \"#utility.yul\":8180:8181   */\n      0x02\n        /* \"#utility.yul\":8176:8192   */\n      exp\n        /* \"#utility.yul\":8167:8192   */\n      swap2\n      pop\n        /* \"#utility.yul\":8218:8221   */\n      dup5\n        /* \"#utility.yul\":8211:8216   */\n      dup3\n        /* \"#utility.yul\":8208:8222   */\n      gt\n        /* \"#utility.yul\":8205:8245   */\n      iszero\n      tag_244\n      jumpi\n        /* \"#utility.yul\":8225:8243   */\n      tag_245\n      tag_131\n      jump\t// in\n    tag_245:\n        /* \"#utility.yul\":8205:8245   */\n    tag_244:\n        /* \"#utility.yul\":8258:8263   */\n      pop\n      jump(tag_236)\n        /* \"#utility.yul\":7996:8273   */\n    tag_239:\n      pop\n        /* \"#utility.yul\":8382:8384   */\n      0x20\n        /* \"#utility.yul\":8372:8380   */\n      dup4\n        /* \"#utility.yul\":8369:8385   */\n      lt\n        /* \"#utility.yul\":8363:8366   */\n      0x0133\n        /* \"#utility.yul\":8357:8361   */\n      dup4\n        /* \"#utility.yul\":8354:8367   */\n      lt\n        /* \"#utility.yul\":8350:8386   */\n      and\n        /* \"#utility.yul\":8332:8334   */\n      0x4e\n        /* \"#utility.yul\":8322:8330   */\n      dup5\n        /* \"#utility.yul\":8319:8335   */\n      lt\n        /* \"#utility.yul\":8314:8316   */\n      0x0b\n        /* \"#utility.yul\":8308:8312   */\n      dup5\n        /* \"#utility.yul\":8305:8317   */\n      lt\n        /* \"#utility.yul\":8301:8336   */\n      and\n        /* \"#utility.yul\":8285:8396   */\n      or\n        /* \"#utility.yul\":8282:8528   */\n      iszero\n      tag_246\n      jumpi\n        /* \"#utility.yul\":8438:8446   */\n      dup3\n        /* \"#utility.yul\":8432:8436   */\n      dup3\n        /* \"#utility.yul\":8428:8447   */\n      exp\n        /* \"#utility.yul\":8419:8447   */\n      swap1\n      pop\n        /* \"#utility.yul\":8473:8476   */\n      dup4\n        /* \"#utility.yul\":8466:8471   */\n      dup2\n        /* \"#utility.yul\":8463:8477   */\n      gt\n        /* \"#utility.yul\":8460:8500   */\n      iszero\n      tag_247\n      jumpi\n        /* \"#utility.yul\":8480:8498   */\n      tag_248\n      tag_131\n      jump\t// in\n    tag_248:\n        /* \"#utility.yul\":8460:8500   */\n    tag_247:\n        /* \"#utility.yul\":8513:8518   */\n      jump(tag_236)\n        /* \"#utility.yul\":8282:8528   */\n    tag_246:\n        /* \"#utility.yul\":8553:8595   */\n      tag_249\n        /* \"#utility.yul\":8591:8594   */\n      dup5\n        /* \"#utility.yul\":8581:8589   */\n      dup5\n        /* \"#utility.yul\":8575:8579   */\n      dup5\n        /* \"#utility.yul\":8572:8573   */\n      0x01\n        /* \"#utility.yul\":8553:8595   */\n      tag_133\n      jump\t// in\n    tag_249:\n        /* \"#utility.yul\":8538:8595   */\n      swap3\n      pop\n      swap1\n      pop\n        /* \"#utility.yul\":8627:8631   */\n      dup2\n        /* \"#utility.yul\":8622:8625   */\n      dup5\n        /* \"#utility.yul\":8618:8632   */\n      div\n        /* \"#utility.yul\":8611:8616   */\n      dup2\n        /* \"#utility.yul\":8608:8633   */\n      gt\n        /* \"#utility.yul\":8605:8656   */\n      iszero\n      tag_250\n      jumpi\n        /* \"#utility.yul\":8636:8654   */\n      tag_251\n      tag_131\n      jump\t// in\n    tag_251:\n        /* \"#utility.yul\":8605:8656   */\n    tag_250:\n        /* \"#utility.yul\":8685:8689   */\n      dup2\n        /* \"#utility.yul\":8678:8683   */\n      dup2\n        /* \"#utility.yul\":8674:8690   */\n      mul\n        /* \"#utility.yul\":8665:8690   */\n      swap1\n      pop\n        /* \"#utility.yul\":7623:8696   */\n    tag_236:\n      swap4\n      swap3\n      pop\n      pop\n      pop\n      jump\t// out\n        /* \"#utility.yul\":8702:8987   */\n    tag_25:\n        /* \"#utility.yul\":8762:8767   */\n      0x00\n        /* \"#utility.yul\":8786:8809   */\n      tag_253\n        /* \"#utility.yul\":8804:8808   */\n      dup3\n        /* \"#utility.yul\":8786:8809   */\n      tag_113\n      jump\t// in\n    tag_253:\n        /* \"#utility.yul\":8778:8809   */\n      swap2\n      pop\n        /* \"#utility.yul\":8830:8857   */\n      tag_254\n        /* \"#utility.yul\":8848:8856   */\n      dup4\n        /* \"#utility.yul\":8830:8857   */\n      tag_113\n      jump\t// in\n    tag_254:\n        /* \"#utility.yul\":8818:8857   */\n      swap3\n      pop\n        /* \"#utility.yul\":8876:8980   */\n      tag_255\n        /* \"#utility.yul\":8913:8979   */\n      0xffffffffffffffffffffffffffffffffffffffffffffffffffffffffffffffff\n        /* \"#utility.yul\":8903:8911   */\n      dup5\n        /* \"#utility.yul\":8897:8901   */\n      dup5\n        /* \"#utility.yul\":8876:8980   */\n      tag_134\n      jump\t// in\n    tag_255:\n        /* \"#utility.yul\":8867:8980   */\n      swap1\n      pop\n        /* \"#utility.yul\":8702:8987   */\n      swap3\n      swap2\n      pop\n      pop\n      jump\t// out\n        /* \"#utility.yul\":8993:9173   */\n    tag_135:\n        /* \"#utility.yul\":9041:9118   */\n      0x4e487b7100000000000000000000000000000000000000000000000000000000\n        /* \"#utility.yul\":9038:9039   */\n      0x00\n        /* \"#utility.yul\":9031:9119   */\n      mstore\n        /* \"#utility.yul\":9138:9142   */\n      0x12\n        /* \"#utility.yul\":9135:9136   */\n      0x04\n        /* \"#utility.yul\":9128:9143   */\n      mstore\n        /* \"#utility.yul\":9162:9166   */\n      0x24\n        /* \"#utility.yul\":9159:9160   */\n      0x00\n        /* \"#utility.yul\":9152:9167   */\n      revert\n        /* \"#utility.yul\":9179:9364   */\n    tag_27:\n        /* \"#utility.yul\":9219:9220   */\n      0x00\n        /* \"#utility.yul\":9236:9256   */\n      tag_258\n        /* \"#utility.yul\":9254:9255   */\n      dup3\n        /* \"#utility.yul\":9236:9256   */\n      tag_113\n      jump\t// in\n    tag_258:\n        /* \"#utility.yul\":9231:9256   */\n      swap2\n      pop\n        /* \"#utility.yul\":9270:9290   */\n      tag_259\n        /* \"#utility.yul\":9288:9289   */\n      dup4\n        /* \"#utility.yul\":9270:9290   */\n      tag_113\n      jump\t// in\n    tag_259:\n        /* \"#utility.yul\":9265:9290   */\n      swap3\n      pop\n        /* \"#utility.yul\":9309:9310   */\n      dup3\n        /* \"#utility.yul\":9299:9334   */\n      tag_260\n      jumpi\n        /* \"#utility.yul\":9314:9332   */\n      tag_261\n      tag_135\n      jump\t// in\n    tag_261:\n        /* \"#utility.yul\":9299:9334   */\n    tag_260:\n        /* \"#utility.yul\":9356:9357   */\n      dup3\n        /* \"#utility.yul\":9353:9354   */\n      dup3\n        /* \"#utility.yul\":9349:9358   */\n      div\n        /* \"#utility.yul\":9344:9358   */\n      swap1\n      pop\n        /* \"#utility.yul\":9179:9364   */\n      swap3\n      swap2\n      pop\n      pop\n      jump\t// out\n        /* \"#utility.yul\":9370:9546   */\n    tag_29:\n        /* \"#utility.yul\":9402:9403   */\n      0x00\n        /* \"#utility.yul\":9419:9439   */\n      tag_263\n        /* \"#utility.yul\":9437:9438   */\n      dup3\n        /* \"#utility.yul\":9419:9439   */\n      tag_113\n      jump\t// in\n    tag_263:\n        /* \"#utility.yul\":9414:9439   */\n      swap2\n      pop\n        /* \"#utility.yul\":9453:9473   */\n      tag_264\n        /* \"#utility.yul\":9471:9472   */\n      dup4\n        /* \"#utility.yul\":9453:9473   */\n      tag_113\n      jump\t// in\n    tag_264:\n        /* \"#utility.yul\":9448:9473   */\n      swap3\n      pop\n        /* \"#utility.yul\":9492:9493   */\n      dup3\n        /* \"#utility.yul\":9482:9517   */\n      tag_265\n      jumpi\n        /* \"#utility.yul\":9497:9515   */\n      tag_266\n      tag_135\n      jump\t// in\n    tag_266:\n        /* \"#utility.yul\":9482:9517   */\n    tag_265:\n        /* \"#utility.yul\":9538:9539   */\n      dup3\n        /* \"#utility.yul\":9535:9536   */\n      dup3\n        /* \"#utility.yul\":9531:9540   */\n      mod\n        /* \"#utility.yul\":9526:9540   */\n      swap1\n      pop\n        /* \"#utility.yul\":9370:9546   */\n      swap3\n      swap2\n      pop\n      pop\n      jump\t// out\n        /* \"#utility.yul\":9552:9700   */\n    tag_136:\n        /* \"#utility.yul\":9654:9665   */\n      0x00\n        /* \"#utility.yul\":9691:9694   */\n      dup2\n        /* \"#utility.yul\":9676:9694   */\n      swap1\n      pop\n        /* \"#utility.yul\":9552:9700   */\n      swap3\n      swap2\n      pop\n      pop\n      jump\t// out\n        /* \"#utility.yul\":9706:10096   */\n    tag_137:\n        /* \"#utility.yul\":9812:9815   */\n      0x00\n        /* \"#utility.yul\":9840:9879   */\n      tag_269\n        /* \"#utility.yul\":9873:9878   */\n      dup3\n        /* \"#utility.yul\":9840:9879   */\n      tag_127\n      jump\t// in\n    tag_269:\n        /* \"#utility.yul\":9895:9984   */\n      tag_270\n        /* \"#utility.yul\":9977:9983   */\n      dup2\n        /* \"#utility.yul\":9972:9975   */\n      dup6\n        /* \"#utility.yul\":9895:9984   */\n      tag_136\n      jump\t// in\n    tag_270:\n        /* \"#utility.yul\":9888:9984   */\n      swap4\n      pop\n        /* \"#utility.yul\":9993:10058   */\n      tag_271\n        /* \"#utility.yul\":10051:10057   */\n      dup2\n        /* \"#utility.yul\":10046:10049   */\n      dup6\n        /* \"#utility.yul\":10039:10043   */\n      0x20\n        /* \"#utility.yul\":10032:10037   */\n      dup7\n        /* \"#utility.yul\":10028:10044   */\n      add\n        /* \"#utility.yul\":9993:10058   */\n      tag_129\n      jump\t// in\n    tag_271:\n        /* \"#utility.yul\":10083:10089   */\n      dup1\n        /* \"#utility.yul\":10078:10081   */\n      dup5\n        /* \"#utility.yul\":10074:10090   */\n      add\n        /* \"#utility.yul\":10067:10090   */\n      swap2\n      pop\n        /* \"#utility.yul\":9816:10096   */\n      pop\n        /* \"#utility.yul\":9706:10096   */\n      swap3\n      swap2\n      pop\n      pop\n      jump\t// out\n        /* \"#utility.yul\":10102:10697   */\n    tag_32:\n        /* \"#utility.yul\":10330:10333   */\n      0x00\n        /* \"#utility.yul\":10352:10447   */\n      tag_273\n        /* \"#utility.yul\":10443:10446   */\n      dup3\n        /* \"#utility.yul\":10434:10440   */\n      dup7\n        /* \"#utility.yul\":10352:10447   */\n      tag_137\n      jump\t// in\n    tag_273:\n        /* \"#utility.yul\":10345:10447   */\n      swap2\n      pop\n        /* \"#utility.yul\":10464:10559   */\n      tag_274\n        /* \"#utility.yul\":10555:10558   */\n      dup3\n        /* \"#utility.yul\":10546:10552   */\n      dup6\n        /* \"#utility.yul\":10464:10559   */\n      tag_137\n      jump\t// in\n    tag_274:\n        /* \"#utility.yul\":10457:10559   */\n      swap2\n      pop\n        /* \"#utility.yul\":10576:10671   */\n      tag_275\n        /* \"#utility.yul\":10667:10670   */\n      dup3\n        /* \"#utility.yul\":10658:10664   */\n      dup5\n        /* \"#utility.yul\":10576:10671   */\n      tag_137\n      jump\t// in\n    tag_275:\n        /* \"#utility.yul\":10569:10671   */\n      swap2\n      pop\n        /* \"#utility.yul\":10688:10691   */\n      dup2\n        /* \"#utility.yul\":10681:10691   */\n      swap1\n      pop\n        /* \"#utility.yul\":10102:10697   */\n      swap5\n      swap4\n      pop\n      pop\n      pop\n      pop\n      jump\t// out\n        /* \"#utility.yul\":10703:10854   */\n    tag_138:\n        /* \"#utility.yul\":10843:10846   */\n      0x4d00000000000000000000000000000000000000000000000000000000000000\n        /* \"#utility.yul\":10839:10840   */\n      0x00\n        /* \"#utility.yul\":10831:10837   */\n      dup3\n        /* \"#utility.yul\":10827:10841   */\n      add\n        /* \"#utility.yul\":10820:10847   */\n      mstore\n        /* \"#utility.yul\":10703:10854   */\n      pop\n      jump\t// out\n        /* \"#utility.yul\":10860:11260   */\n    tag_139:\n        /* \"#utility.yul\":11020:11023   */\n      0x00\n        /* \"#utility.yul\":11041:11125   */\n      tag_278\n        /* \"#utility.yul\":11123:11124   */\n      0x01\n        /* \"#utility.yul\":11118:11121   */\n      dup4\n        /* \"#utility.yul\":11041:11125   */\n      tag_136\n      jump\t// in\n    tag_278:\n        /* \"#utility.yul\":11034:11125   */\n      swap2\n      pop\n        /* \"#utility.yul\":11134:11227   */\n      tag_279\n        /* \"#utility.yul\":11223:11226   */\n      dup3\n        /* \"#utility.yul\":11134:11227   */\n      tag_138\n      jump\t// in\n    tag_279:\n        /* \"#utility.yul\":11252:11253   */\n      0x01\n        /* \"#utility.yul\":11247:11250   */\n      dup3\n        /* \"#utility.yul\":11243:11254   */\n      add\n        /* \"#utility.yul\":11236:11254   */\n      swap1\n      pop\n        /* \"#utility.yul\":10860:11260   */\n      swap2\n      swap1\n      pop\n      jump\t// out\n        /* \"#utility.yul\":11266:11807   */\n    tag_42:\n        /* \"#utility.yul\":11499:11502   */\n      0x00\n        /* \"#utility.yul\":11521:11616   */\n      tag_281\n        /* \"#utility.yul\":11612:11615   */\n      dup3\n        /* \"#utility.yul\":11603:11609   */\n      dup5\n        /* \"#utility.yul\":11521:11616   */\n      tag_137\n      jump\t// in\n    tag_281:\n        /* \"#utility.yul\":11514:11616   */\n      swap2\n      pop\n        /* \"#utility.yul\":11633:11781   */\n      tag_282\n        /* \"#utility.yul\":11777:11780   */\n      dup3\n        /* \"#utility.yul\":11633:11781   */\n      tag_139\n      jump\t// in\n    tag_282:\n        /* \"#utility.yul\":11626:11781   */\n      swap2\n      pop\n        /* \"#utility.yul\":11798:11801   */\n      dup2\n        /* \"#utility.yul\":11791:11801   */\n      swap1\n      pop\n        /* \"#utility.yul\":11266:11807   */\n      swap3\n      swap2\n      pop\n      pop\n      jump\t// out\n        /* \"#utility.yul\":11813:12046   */\n    tag_44:\n        /* \"#utility.yul\":11852:11855   */\n      0x00\n        /* \"#utility.yul\":11875:11899   */\n      tag_284\n        /* \"#utility.yul\":11893:11898   */\n      dup3\n        /* \"#utility.yul\":11875:11899   */\n      tag_113\n      jump\t// in\n    tag_284:\n        /* \"#utility.yul\":11866:11899   */\n      swap2\n      pop\n        /* \"#utility.yul\":11921:11987   */\n      0xffffffffffffffffffffffffffffffffffffffffffffffffffffffffffffffff\n        /* \"#utility.yul\":11914:11919   */\n      dup3\n        /* \"#utility.yul\":11911:11988   */\n      sub\n        /* \"#utility.yul\":11908:12011   */\n      tag_285\n      jumpi\n        /* \"#utility.yul\":11991:12009   */\n      tag_286\n      tag_131\n      jump\t// in\n    tag_286:\n        /* \"#utility.yul\":11908:12011   */\n    tag_285:\n        /* \"#utility.yul\":12038:12039   */\n      0x01\n        /* \"#utility.yul\":12031:12036   */\n      dup3\n        /* \"#utility.yul\":12027:12040   */\n      add\n        /* \"#utility.yul\":12020:12040   */\n      swap1\n      pop\n        /* \"#utility.yul\":11813:12046   */\n      swap2\n      swap1\n      pop\n      jump\t// out\n        /* \"#utility.yul\":12052:12203   */\n    tag_140:\n        /* \"#utility.yul\":12192:12195   */\n      0x4400000000000000000000000000000000000000000000000000000000000000\n        /* \"#utility.yul\":12188:12189   */\n      0x00\n        /* \"#utility.yul\":12180:12186   */\n      dup3\n        /* \"#utility.yul\":12176:12190   */\n      add\n        /* \"#utility.yul\":12169:12196   */\n      mstore\n        /* \"#utility.yul\":12052:12203   */\n      pop\n      jump\t// out\n        /* \"#utility.yul\":12209:12609   */\n    tag_141:\n        /* \"#utility.yul\":12369:12372   */\n      0x00\n        /* \"#utility.yul\":12390:12474   */\n      tag_289\n        /* \"#utility.yul\":12472:12473   */\n      0x01\n        /* \"#utility.yul\":12467:12470   */\n      dup4\n        /* \"#utility.yul\":12390:12474   */\n      tag_136\n      jump\t// in\n    tag_289:\n        /* \"#utility.yul\":12383:12474   */\n      swap2\n      pop\n        /* \"#utility.yul\":12483:12576   */\n      tag_290\n        /* \"#utility.yul\":12572:12575   */\n      dup3\n        /* \"#utility.yul\":12483:12576   */\n      tag_140\n      jump\t// in\n    tag_290:\n        /* \"#utility.yul\":12601:12602   */\n      0x01\n        /* \"#utility.yul\":12596:12599   */\n      dup3\n        /* \"#utility.yul\":12592:12603   */\n      add\n        /* \"#utility.yul\":12585:12603   */\n      swap1\n      pop\n        /* \"#utility.yul\":12209:12609   */\n      swap2\n      swap1\n      pop\n      jump\t// out\n        /* \"#utility.yul\":12615:13156   */\n    tag_50:\n        /* \"#utility.yul\":12848:12851   */\n      0x00\n        /* \"#utility.yul\":12870:12965   */\n      tag_292\n        /* \"#utility.yul\":12961:12964   */\n      dup3\n        /* \"#utility.yul\":12952:12958   */\n      dup5\n        /* \"#utility.yul\":12870:12965   */\n      tag_137\n      jump\t// in\n    tag_292:\n        /* \"#utility.yul\":12863:12965   */\n      swap2\n      pop\n        /* \"#utility.yul\":12982:13130   */\n      tag_293\n        /* \"#utility.yul\":13126:13129   */\n      dup3\n        /* \"#utility.yul\":12982:13130   */\n      tag_141\n      jump\t// in\n    tag_293:\n        /* \"#utility.yul\":12975:13130   */\n      swap2\n      pop\n        /* \"#utility.yul\":13147:13150   */\n      dup2\n        /* \"#utility.yul\":13140:13150   */\n      swap1\n      pop\n        /* \"#utility.yul\":12615:13156   */\n      swap3\n      swap2\n      pop\n      pop\n      jump\t// out\n        /* \"#utility.yul\":13162:13356   */\n    tag_53:\n        /* \"#utility.yul\":13202:13206   */\n      0x00\n        /* \"#utility.yul\":13222:13242   */\n      tag_295\n        /* \"#utility.yul\":13240:13241   */\n      dup3\n        /* \"#utility.yul\":13222:13242   */\n      tag_113\n      jump\t// in\n    tag_295:\n        /* \"#utility.yul\":13217:13242   */\n      swap2\n      pop\n        /* \"#utility.yul\":13256:13276   */\n      tag_296\n        /* \"#utility.yul\":13274:13275   */\n      dup4\n        /* \"#utility.yul\":13256:13276   */\n      tag_113\n      jump\t// in\n    tag_296:\n        /* \"#utility.yul\":13251:13276   */\n      swap3\n      pop\n        /* \"#utility.yul\":13300:13301   */\n      dup3\n        /* \"#utility.yul\":13297:13298   */\n      dup3\n        /* \"#utility.yul\":13293:13302   */\n      sub\n        /* \"#utility.yul\":13285:13302   */\n      swap1\n      pop\n        /* \"#utility.yul\":13324:13325   */\n      dup2\n        /* \"#utility.yul\":13318:13322   */\n      dup2\n        /* \"#utility.yul\":13315:13326   */\n      gt\n        /* \"#utility.yul\":13312:13349   */\n      iszero\n      tag_297\n      jumpi\n        /* \"#utility.yul\":13329:13347   */\n      tag_298\n      tag_131\n      jump\t// in\n    tag_298:\n        /* \"#utility.yul\":13312:13349   */\n    tag_297:\n        /* \"#utility.yul\":13162:13356   */\n      swap3\n      swap2\n      pop\n      pop\n      jump\t// out\n        /* \"#utility.yul\":13362:13513   */\n    tag_142:\n        /* \"#utility.yul\":13502:13505   */\n      0x4300000000000000000000000000000000000000000000000000000000000000\n        /* \"#utility.yul\":13498:13499   */\n      0x00\n        /* \"#utility.yul\":13490:13496   */\n      dup3\n        /* \"#utility.yul\":13486:13500   */\n      add\n        /* \"#utility.yul\":13479:13506   */\n      mstore\n        /* \"#utility.yul\":13362:13513   */\n      pop\n      jump\t// out\n        /* \"#utility.yul\":13519:13919   */\n    tag_143:\n        /* \"#utility.yul\":13679:13682   */\n      0x00\n        /* \"#utility.yul\":13700:13784   */\n      tag_301\n        /* \"#utility.yul\":13782:13783   */\n      0x01\n        /* \"#utility.yul\":13777:13780   */\n      dup4\n        /* \"#utility.yul\":13700:13784   */\n      tag_136\n      jump\t// in\n    tag_301:\n        /* \"#utility.yul\":13693:13784   */\n      swap2\n      pop\n        /* \"#utility.yul\":13793:13886   */\n      tag_302\n        /* \"#utility.yul\":13882:13885   */\n      dup3\n        /* \"#utility.yul\":13793:13886   */\n      tag_142\n      jump\t// in\n    tag_302:\n        /* \"#utility.yul\":13911:13912   */\n      0x01\n        /* \"#utility.yul\":13906:13909   */\n      dup3\n        /* \"#utility.yul\":13902:13913   */\n      add\n        /* \"#utility.yul\":13895:13913   */\n      swap1\n      pop\n        /* \"#utility.yul\":13519:13919   */\n      swap2\n      swap1\n      pop\n      jump\t// out\n        /* \"#utility.yul\":13925:14466   */\n    tag_58:\n        /* \"#utility.yul\":14158:14161   */\n      0x00\n        /* \"#utility.yul\":14180:14275   */\n      tag_304\n        /* \"#utility.yul\":14271:14274   */\n      dup3\n        /* \"#utility.yul\":14262:14268   */\n      dup5\n        /* \"#utility.yul\":14180:14275   */\n      tag_137\n      jump\t// in\n    tag_304:\n        /* \"#utility.yul\":14173:14275   */\n      swap2\n      pop\n        /* \"#utility.yul\":14292:14440   */\n      tag_305\n        /* \"#utility.yul\":14436:14439   */\n      dup3\n        /* \"#utility.yul\":14292:14440   */\n      tag_143\n      jump\t// in\n    tag_305:\n        /* \"#utility.yul\":14285:14440   */\n      swap2\n      pop\n        /* \"#utility.yul\":14457:14460   */\n      dup2\n        /* \"#utility.yul\":14450:14460   */\n      swap1\n      pop\n        /* \"#utility.yul\":13925:14466   */\n      swap3\n      swap2\n      pop\n      pop\n      jump\t// out\n        /* \"#utility.yul\":14472:14623   */\n    tag_144:\n        /* \"#utility.yul\":14612:14615   */\n      0x4c00000000000000000000000000000000000000000000000000000000000000\n        /* \"#utility.yul\":14608:14609   */\n      0x00\n        /* \"#utility.yul\":14600:14606   */\n      dup3\n        /* \"#utility.yul\":14596:14610   */\n      add\n        /* \"#utility.yul\":14589:14616   */\n      mstore\n        /* \"#utility.yul\":14472:14623   */\n      pop\n      jump\t// out\n        /* \"#utility.yul\":14629:15029   */\n    tag_145:\n        /* \"#utility.yul\":14789:14792   */\n      0x00\n        /* \"#utility.yul\":14810:14894   */\n      tag_308\n        /* \"#utility.yul\":14892:14893   */\n      0x01\n        /* \"#utility.yul\":14887:14890   */\n      dup4\n        /* \"#utility.yul\":14810:14894   */\n      tag_136\n      jump\t// in\n    tag_308:\n        /* \"#utility.yul\":14803:14894   */\n      swap2\n      pop\n        /* \"#utility.yul\":14903:14996   */\n      tag_309\n        /* \"#utility.yul\":14992:14995   */\n      dup3\n        /* \"#utility.yul\":14903:14996   */\n      tag_144\n      jump\t// in\n    tag_309:\n        /* \"#utility.yul\":15021:15022   */\n      0x01\n        /* \"#utility.yul\":15016:15019   */\n      dup3\n        /* \"#utility.yul\":15012:15023   */\n      add\n        /* \"#utility.yul\":15005:15023   */\n      swap1\n      pop\n        /* \"#utility.yul\":14629:15029   */\n      swap2\n      swap1\n      pop\n      jump\t// out\n        /* \"#utility.yul\":15035:15576   */\n    tag_72:\n        /* \"#utility.yul\":15268:15271   */\n      0x00\n        /* \"#utility.yul\":15290:15385   */\n      tag_311\n        /* \"#utility.yul\":15381:15384   */\n      dup3\n        /* \"#utility.yul\":15372:15378   */\n      dup5\n        /* \"#utility.yul\":15290:15385   */\n      tag_137\n      jump\t// in\n    tag_311:\n        /* \"#utility.yul\":15283:15385   */\n      swap2\n      pop\n        /* \"#utility.yul\":15402:15550   */\n      tag_312\n        /* \"#utility.yul\":15546:15549   */\n      dup3\n        /* \"#utility.yul\":15402:15550   */\n      tag_145\n      jump\t// in\n    tag_312:\n        /* \"#utility.yul\":15395:15550   */\n      swap2\n      pop\n        /* \"#utility.yul\":15567:15570   */\n      dup2\n        /* \"#utility.yul\":15560:15570   */\n      swap1\n      pop\n        /* \"#utility.yul\":15035:15576   */\n      swap3\n      swap2\n      pop\n      pop\n      jump\t// out\n        /* \"#utility.yul\":15582:15733   */\n    tag_146:\n        /* \"#utility.yul\":15722:15725   */\n      0x5800000000000000000000000000000000000000000000000000000000000000\n        /* \"#utility.yul\":15718:15719   */\n      0x00\n        /* \"#utility.yul\":15710:15716   */\n      dup3\n        /* \"#utility.yul\":15706:15720   */\n      add\n        /* \"#utility.yul\":15699:15726   */\n      mstore\n        /* \"#utility.yul\":15582:15733   */\n      pop\n      jump\t// out\n        /* \"#utility.yul\":15739:16139   */\n    tag_147:\n        /* \"#utility.yul\":15899:15902   */\n      0x00\n        /* \"#utility.yul\":15920:16004   */\n      tag_315\n        /* \"#utility.yul\":16002:16003   */\n      0x01\n        /* \"#utility.yul\":15997:16000   */\n      dup4\n        /* \"#utility.yul\":15920:16004   */\n      tag_136\n      jump\t// in\n    tag_315:\n        /* \"#utility.yul\":15913:16004   */\n      swap2\n      pop\n        /* \"#utility.yul\":16013:16106   */\n      tag_316\n        /* \"#utility.yul\":16102:16105   */\n      dup3\n        /* \"#utility.yul\":16013:16106   */\n      tag_146\n      jump\t// in\n    tag_316:\n        /* \"#utility.yul\":16131:16132   */\n      0x01\n        /* \"#utility.yul\":16126:16129   */\n      dup3\n        /* \"#utility.yul\":16122:16133   */\n      add\n        /* \"#utility.yul\":16115:16133   */\n      swap1\n      pop\n        /* \"#utility.yul\":15739:16139   */\n      swap2\n      swap1\n      pop\n      jump\t// out\n        /* \"#utility.yul\":16145:16686   */\n    tag_79:\n        /* \"#utility.yul\":16378:16381   */\n      0x00\n        /* \"#utility.yul\":16400:16495   */\n      tag_318\n        /* \"#utility.yul\":16491:16494   */\n      dup3\n        /* \"#utility.yul\":16482:16488   */\n      dup5\n        /* \"#utility.yul\":16400:16495   */\n      tag_137\n      jump\t// in\n    tag_318:\n        /* \"#utility.yul\":16393:16495   */\n      swap2\n      pop\n        /* \"#utility.yul\":16512:16660   */\n      tag_319\n        /* \"#utility.yul\":16656:16659   */\n      dup3\n        /* \"#utility.yul\":16512:16660   */\n      tag_147\n      jump\t// in\n    tag_319:\n        /* \"#utility.yul\":16505:16660   */\n      swap2\n      pop\n        /* \"#utility.yul\":16677:16680   */\n      dup2\n        /* \"#utility.yul\":16670:16680   */\n      swap1\n      pop\n        /* \"#utility.yul\":16145:16686   */\n      swap3\n      swap2\n      pop\n      pop\n      jump\t// out\n        /* \"#utility.yul\":16692:16843   */\n    tag_148:\n        /* \"#utility.yul\":16832:16835   */\n      0x5600000000000000000000000000000000000000000000000000000000000000\n        /* \"#utility.yul\":16828:16829   */\n      0x00\n        /* \"#utility.yul\":16820:16826   */\n      dup3\n        /* \"#utility.yul\":16816:16830   */\n      add\n        /* \"#utility.yul\":16809:16836   */\n      mstore\n        /* \"#utility.yul\":16692:16843   */\n      pop\n      jump\t// out\n        /* \"#utility.yul\":16849:17249   */\n    tag_149:\n        /* \"#utility.yul\":17009:17012   */\n      0x00\n        /* \"#utility.yul\":17030:17114   */\n      tag_322\n        /* \"#utility.yul\":17112:17113   */\n      0x01\n        /* \"#utility.yul\":17107:17110   */\n      dup4\n        /* \"#utility.yul\":17030:17114   */\n      tag_136\n      jump\t// in\n    tag_322:\n        /* \"#utility.yul\":17023:17114   */\n      swap2\n      pop\n        /* \"#utility.yul\":17123:17216   */\n      tag_323\n        /* \"#utility.yul\":17212:17215   */\n      dup3\n        /* \"#utility.yul\":17123:17216   */\n      tag_148\n      jump\t// in\n    tag_323:\n        /* \"#utility.yul\":17241:17242   */\n      0x01\n        /* \"#utility.yul\":17236:17239   */\n      dup3\n        /* \"#utility.yul\":17232:17243   */\n      add\n        /* \"#utility.yul\":17225:17243   */\n      swap1\n      pop\n        /* \"#utility.yul\":16849:17249   */\n      swap2\n      swap1\n      pop\n      jump\t// out\n        /* \"#utility.yul\":17255:17796   */\n    tag_93:\n        /* \"#utility.yul\":17488:17491   */\n      0x00\n        /* \"#utility.yul\":17510:17605   */\n      tag_325\n        /* \"#utility.yul\":17601:17604   */\n      dup3\n        /* \"#utility.yul\":17592:17598   */\n      dup5\n        /* \"#utility.yul\":17510:17605   */\n      tag_137\n      jump\t// in\n    tag_325:\n        /* \"#utility.yul\":17503:17605   */\n      swap2\n      pop\n        /* \"#utility.yul\":17622:17770   */\n      tag_326\n        /* \"#utility.yul\":17766:17769   */\n      dup3\n        /* \"#utility.yul\":17622:17770   */\n      tag_149\n      jump\t// in\n    tag_326:\n        /* \"#utility.yul\":17615:17770   */\n      swap2\n      pop\n        /* \"#utility.yul\":17787:17790   */\n      dup2\n        /* \"#utility.yul\":17780:17790   */\n      swap1\n      pop\n        /* \"#utility.yul\":17255:17796   */\n      swap3\n      swap2\n      pop\n      pop\n      jump\t// out\n        /* \"#utility.yul\":17802:17953   */\n    tag_150:\n        /* \"#utility.yul\":17942:17945   */\n      0x4900000000000000000000000000000000000000000000000000000000000000\n        /* \"#utility.yul\":17938:17939   */\n      0x00\n        /* \"#utility.yul\":17930:17936   */\n      dup3\n        /* \"#utility.yul\":17926:17940   */\n      add\n        /* \"#utility.yul\":17919:17946   */\n      mstore\n        /* \"#utility.yul\":17802:17953   */\n      pop\n      jump\t// out\n        /* \"#utility.yul\":17959:18359   */\n    tag_151:\n        /* \"#utility.yul\":18119:18122   */\n      0x00\n        /* \"#utility.yul\":18140:18224   */\n      tag_329\n        /* \"#utility.yul\":18222:18223   */\n      0x01\n        /* \"#utility.yul\":18217:18220   */\n      dup4\n        /* \"#utility.yul\":18140:18224   */\n      tag_136\n      jump\t// in\n    tag_329:\n        /* \"#utility.yul\":18133:18224   */\n      swap2\n      pop\n        /* \"#utility.yul\":18233:18326   */\n      tag_330\n        /* \"#utility.yul\":18322:18325   */\n      dup3\n        /* \"#utility.yul\":18233:18326   */\n      tag_150\n      jump\t// in\n    tag_330:\n        /* \"#utility.yul\":18351:18352   */\n      0x01\n        /* \"#utility.yul\":18346:18349   */\n      dup3\n        /* \"#utility.yul\":18342:18353   */\n      add\n        /* \"#utility.yul\":18335:18353   */\n      swap1\n      pop\n        /* \"#utility.yul\":17959:18359   */\n      swap2\n      swap1\n      pop\n      jump\t// out\n        /* \"#utility.yul\":18365:18906   */\n    tag_100:\n        /* \"#utility.yul\":18598:18601   */\n      0x00\n        /* \"#utility.yul\":18620:18715   */\n      tag_332\n        /* \"#utility.yul\":18711:18714   */\n      dup3\n        /* \"#utility.yul\":18702:18708   */\n      dup5\n        /* \"#utility.yul\":18620:18715   */\n      tag_137\n      jump\t// in\n    tag_332:\n        /* \"#utility.yul\":18613:18715   */\n      swap2\n      pop\n        /* \"#utility.yul\":18732:18880   */\n      tag_333\n        /* \"#utility.yul\":18876:18879   */\n      dup3\n        /* \"#utility.yul\":18732:18880   */\n      tag_151\n      jump\t// in\n    tag_333:\n        /* \"#utility.yul\":18725:18880   */\n      swap2\n      pop\n        /* \"#utility.yul\":18897:18900   */\n      dup2\n        /* \"#utility.yul\":18890:18900   */\n      swap1\n      pop\n        /* \"#utility.yul\":18365:18906   */\n      swap3\n      swap2\n      pop\n      pop\n      jump\t// out\n\n    auxdata: 0xa2646970667358221220560303e26cd0d265197f80e0412e04771a15907c2e8ec006fed777ff0b6326e364736f6c63430008140033\n}\n",
				"bytecode": {
					"linkReferences": {},
					"object": "608060405234801561000f575f80fd5b50610e708061001d5f395ff3fe608060405234801561000f575f80fd5b506004361061003f575f3560e01c806310576af4146100435780631652a39314610073578063dd082aaf146100a3575b5f80fd5b61005d6004803603810190610058919061052b565b6100d3565b60405161006a9190610578565b60405180910390f35b61008d600480360381019061008891906106cd565b61010a565b60405161009a91906107eb565b60405180910390f35b6100bd60048036038101906100b8919061080b565b610139565b6040516100ca91906107eb565b60405180910390f35b5f8082600a6100e29190610992565b90505f600a82866100f39190610a09565b6100fd9190610a39565b9050809250505092915050565b606083838360405160200161012193929190610aa3565b60405160208183030381529060405290509392505050565b60605f8290505f6003905060605b5f83146104dc576103e88311156101b8575f6101648460036100d3565b90505f5b818110156101a557826040516020016101819190610b1d565b6040516020818303038152906040529250808061019d90610b3e565b915050610168565b506103e8846101b49190610a39565b9350505b606483101580156101ca57506103e883105b156102dd576101f4831061026657806040516020016101e99190610bcf565b60405160208183030381529060405290505f6102136101f48561020c9190610bf0565b60026100d3565b90505f5b8181101561025457826040516020016102309190610c6d565b6040516020818303038152906040529250808061024c90610b3e565b915050610217565b506064846102629190610a39565b9350505b6064831015801561027857506101f483105b156102dc575f6102898460026100d3565b90505f5b818110156102ca57826040516020016102a69190610bcf565b604051602081830303815290604052925080806102c290610b3e565b91505061028d565b506064846102d89190610a39565b9350505b5b6032831061037257806040516020016102f69190610cd8565b60405160208183030381529060405290505f61031f6032856103189190610bf0565b60016100d3565b90505f5b81811015610360578260405160200161033c9190610d43565b6040516020818303038152906040529250808061035890610b3e565b915050610323565b50600a8461036e9190610a39565b9350505b600a83101580156103835750603283105b156103e7575f6103948460016100d3565b90505f5b818110156103d557826040516020016103b19190610d43565b604051602081830303815290604052925080806103cd90610b3e565b915050610398565b50600a846103e39190610a39565b9350505b6005831061046f57806040516020016104009190610dae565b60405160208183030381529060405290505f6104286005856104229190610bf0565b5f6100d3565b90505f5b8181101561046957826040516020016104459190610e19565b6040516020818303038152906040529250808061046190610b3e565b91505061042c565b505f9350505b600183101580156104805750600583105b156104d7575f610490845f6100d3565b90505f5b818110156104d157826040516020016104ad9190610e19565b604051602081830303815290604052925080806104c990610b3e565b915050610494565b505f9350505b610147565b809350505050919050565b5f604051905090565b5f80fd5b5f80fd5b5f819050919050565b61050a816104f8565b8114610514575f80fd5b50565b5f8135905061052581610501565b92915050565b5f8060408385031215610541576105406104f0565b5b5f61054e85828601610517565b925050602061055f85828601610517565b9150509250929050565b610572816104f8565b82525050565b5f60208201905061058b5f830184610569565b92915050565b5f80fd5b5f80fd5b5f601f19601f8301169050919050565b7f4e487b71000000000000000000000000000000000000000000000000000000005f52604160045260245ffd5b6105df82610599565b810181811067ffffffffffffffff821117156105fe576105fd6105a9565b5b80604052505050565b5f6106106104e7565b905061061c82826105d6565b919050565b5f67ffffffffffffffff82111561063b5761063a6105a9565b5b61064482610599565b9050602081019050919050565b828183375f83830152505050565b5f61067161066c84610621565b610607565b90508281526020810184848401111561068d5761068c610595565b5b610698848285610651565b509392505050565b5f82601f8301126106b4576106b3610591565b5b81356106c484826020860161065f565b91505092915050565b5f805f606084860312156106e4576106e36104f0565b5b5f84013567ffffffffffffffff811115610701576107006104f4565b5b61070d868287016106a0565b935050602084013567ffffffffffffffff81111561072e5761072d6104f4565b5b61073a868287016106a0565b925050604084013567ffffffffffffffff81111561075b5761075a6104f4565b5b610767868287016106a0565b9150509250925092565b5f81519050919050565b5f82825260208201905092915050565b5f5b838110156107a857808201518184015260208101905061078d565b5f8484015250505050565b5f6107bd82610771565b6107c7818561077b565b93506107d781856020860161078b565b6107e081610599565b840191505092915050565b5f6020820190508181035f83015261080381846107b3565b905092915050565b5f602082840312156108205761081f6104f0565b5b5f61082d84828501610517565b91505092915050565b7f4e487b71000000000000000000000000000000000000000000000000000000005f52601160045260245ffd5b5f8160011c9050919050565b5f808291508390505b60018511156108b85780860481111561089457610893610836565b5b60018516156108a35780820291505b80810290506108b185610863565b9450610878565b94509492505050565b5f826108d0576001905061098b565b816108dd575f905061098b565b81600181146108f357600281146108fd5761092c565b600191505061098b565b60ff84111561090f5761090e610836565b5b8360020a91508482111561092657610925610836565b5b5061098b565b5060208310610133831016604e8410600b84101617156109615782820a90508381111561095c5761095b610836565b5b61098b565b61096e848484600161086f565b9250905081840481111561098557610984610836565b5b81810290505b9392505050565b5f61099c826104f8565b91506109a7836104f8565b92506109d47fffffffffffffffffffffffffffffffffffffffffffffffffffffffffffffffff84846108c1565b905092915050565b7f4e487b71000000000000000000000000000000000000000000000000000000005f52601260045260245ffd5b5f610a13826104f8565b9150610a1e836104f8565b925082610a2e57610a2d6109dc565b5b828204905092915050565b5f610a43826104f8565b9150610a4e836104f8565b925082610a5e57610a5d6109dc565b5b828206905092915050565b5f81905092915050565b5f610a7d82610771565b610a878185610a69565b9350610a9781856020860161078b565b80840191505092915050565b5f610aae8286610a73565b9150610aba8285610a73565b9150610ac68284610a73565b9150819050949350505050565b7f4d000000000000000000000000000000000000000000000000000000000000005f82015250565b5f610b07600183610a69565b9150610b1282610ad3565b600182019050919050565b5f610b288284610a73565b9150610b3382610afb565b915081905092915050565b5f610b48826104f8565b91507fffffffffffffffffffffffffffffffffffffffffffffffffffffffffffffffff8203610b7a57610b79610836565b5b600182019050919050565b7f44000000000000000000000000000000000000000000000000000000000000005f82015250565b5f610bb9600183610a69565b9150610bc482610b85565b600182019050919050565b5f610bda8284610a73565b9150610be582610bad565b915081905092915050565b5f610bfa826104f8565b9150610c05836104f8565b9250828203905081811115610c1d57610c1c610836565b5b92915050565b7f43000000000000000000000000000000000000000000000000000000000000005f82015250565b5f610c57600183610a69565b9150610c6282610c23565b600182019050919050565b5f610c788284610a73565b9150610c8382610c4b565b915081905092915050565b7f4c000000000000000000000000000000000000000000000000000000000000005f82015250565b5f610cc2600183610a69565b9150610ccd82610c8e565b600182019050919050565b5f610ce38284610a73565b9150610cee82610cb6565b915081905092915050565b7f58000000000000000000000000000000000000000000000000000000000000005f82015250565b5f610d2d600183610a69565b9150610d3882610cf9565b600182019050919050565b5f610d4e8284610a73565b9150610d5982610d21565b915081905092915050565b7f56000000000000000000000000000000000000000000000000000000000000005f82015250565b5f610d98600183610a69565b9150610da382610d64565b600182019050919050565b5f610db98284610a73565b9150610dc482610d8c565b915081905092915050565b7f49000000000000000000000000000000000000000000000000000000000000005f82015250565b5f610e03600183610a69565b9150610e0e82610dcf565b600182019050919050565b5f610e248284610a73565b9150610e2f82610df7565b91508190509291505056fea2646970667358221220560303e26cd0d265197f80e0412e04771a15907c2e8ec006fed777ff0b6326e364736f6c63430008140033",
					"opcodes": "PUSH1 0x80 PUSH1 0x40 MSTORE CALLVALUE DUP1 ISZERO PUSH2 0xF JUMPI PUSH0 DUP1 REVERT JUMPDEST POP PUSH2 0xE70 DUP1 PUSH2 0x1D PUSH0 CODECOPY PUSH0 RETURN INVALID PUSH1 0x80 PUSH1 0x40 MSTORE CALLVALUE DUP1 ISZERO PUSH2 0xF JUMPI PUSH0 DUP1 REVERT JUMPDEST POP PUSH1 0x4 CALLDATASIZE LT PUSH2 0x3F JUMPI PUSH0 CALLDATALOAD PUSH1 0xE0 SHR DUP1 PUSH4 0x10576AF4 EQ PUSH2 0x43 JUMPI DUP1 PUSH4 0x1652A393 EQ PUSH2 0x73 JUMPI DUP1 PUSH4 0xDD082AAF EQ PUSH2 0xA3 JUMPI JUMPDEST PUSH0 DUP1 REVERT JUMPDEST PUSH2 0x5D PUSH1 0x4 DUP1 CALLDATASIZE SUB DUP2 ADD SWAP1 PUSH2 0x58 SWAP2 SWAP1 PUSH2 0x52B JUMP JUMPDEST PUSH2 0xD3 JUMP JUMPDEST PUSH1 0x40 MLOAD PUSH2 0x6A SWAP2 SWAP1 PUSH2 0x578 JUMP JUMPDEST PUSH1 0x40 MLOAD DUP1 SWAP2 SUB SWAP1 RETURN JUMPDEST PUSH2 0x8D PUSH1 0x4 DUP1 CALLDATASIZE SUB DUP2 ADD SWAP1 PUSH2 0x88 SWAP2 SWAP1 PUSH2 0x6CD JUMP JUMPDEST PUSH2 0x10A JUMP JUMPDEST PUSH1 0x40 MLOAD PUSH2 0x9A SWAP2 SWAP1 PUSH2 0x7EB JUMP JUMPDEST PUSH1 0x40 MLOAD DUP1 SWAP2 SUB SWAP1 RETURN JUMPDEST PUSH2 0xBD PUSH1 0x4 DUP1 CALLDATASIZE SUB DUP2 ADD SWAP1 PUSH2 0xB8 SWAP2 SWAP1 PUSH2 0x80B JUMP JUMPDEST PUSH2 0x139 JUMP JUMPDEST PUSH1 0x40 MLOAD PUSH2 0xCA SWAP2 SWAP1 PUSH2 0x7EB JUMP JUMPDEST PUSH1 0x40 MLOAD DUP1 SWAP2 SUB SWAP1 RETURN JUMPDEST PUSH0 DUP1 DUP3 PUSH1 0xA PUSH2 0xE2 SWAP2 SWAP1 PUSH2 0x992 JUMP JUMPDEST SWAP1 POP PUSH0 PUSH1 0xA DUP3 DUP7 PUSH2 0xF3 SWAP2 SWAP1 PUSH2 0xA09 JUMP JUMPDEST PUSH2 0xFD SWAP2 SWAP1 PUSH2 0xA39 JUMP JUMPDEST SWAP1 POP DUP1 SWAP3 POP POP POP SWAP3 SWAP2 POP POP JUMP JUMPDEST PUSH1 0x60 DUP4 DUP4 DUP4 PUSH1 0x40 MLOAD PUSH1 0x20 ADD PUSH2 0x121 SWAP4 SWAP3 SWAP2 SWAP1 PUSH2 0xAA3 JUMP JUMPDEST PUSH1 0x40 MLOAD PUSH1 0x20 DUP2 DUP4 SUB SUB DUP2 MSTORE SWAP1 PUSH1 0x40 MSTORE SWAP1 POP SWAP4 SWAP3 POP POP POP JUMP JUMPDEST PUSH1 0x60 PUSH0 DUP3 SWAP1 POP PUSH0 PUSH1 0x3 SWAP1 POP PUSH1 0x60 JUMPDEST PUSH0 DUP4 EQ PUSH2 0x4DC JUMPI PUSH2 0x3E8 DUP4 GT ISZERO PUSH2 0x1B8 JUMPI PUSH0 PUSH2 0x164 DUP5 PUSH1 0x3 PUSH2 0xD3 JUMP JUMPDEST SWAP1 POP PUSH0 JUMPDEST DUP2 DUP2 LT ISZERO PUSH2 0x1A5 JUMPI DUP3 PUSH1 0x40 MLOAD PUSH1 0x20 ADD PUSH2 0x181 SWAP2 SWAP1 PUSH2 0xB1D JUMP JUMPDEST PUSH1 0x40 MLOAD PUSH1 0x20 DUP2 DUP4 SUB SUB DUP2 MSTORE SWAP1 PUSH1 0x40 MSTORE SWAP3 POP DUP1 DUP1 PUSH2 0x19D SWAP1 PUSH2 0xB3E JUMP JUMPDEST SWAP2 POP POP PUSH2 0x168 JUMP JUMPDEST POP PUSH2 0x3E8 DUP5 PUSH2 0x1B4 SWAP2 SWAP1 PUSH2 0xA39 JUMP JUMPDEST SWAP4 POP POP JUMPDEST PUSH1 0x64 DUP4 LT ISZERO DUP1 ISZERO PUSH2 0x1CA JUMPI POP PUSH2 0x3E8 DUP4 LT JUMPDEST ISZERO PUSH2 0x2DD JUMPI PUSH2 0x1F4 DUP4 LT PUSH2 0x266 JUMPI DUP1 PUSH1 0x40 MLOAD PUSH1 0x20 ADD PUSH2 0x1E9 SWAP2 SWAP1 PUSH2 0xBCF JUMP JUMPDEST PUSH1 0x40 MLOAD PUSH1 0x20 DUP2 DUP4 SUB SUB DUP2 MSTORE SWAP1 PUSH1 0x40 MSTORE SWAP1 POP PUSH0 PUSH2 0x213 PUSH2 0x1F4 DUP6 PUSH2 0x20C SWAP2 SWAP1 PUSH2 0xBF0 JUMP JUMPDEST PUSH1 0x2 PUSH2 0xD3 JUMP JUMPDEST SWAP1 POP PUSH0 JUMPDEST DUP2 DUP2 LT ISZERO PUSH2 0x254 JUMPI DUP3 PUSH1 0x40 MLOAD PUSH1 0x20 ADD PUSH2 0x230 SWAP2 SWAP1 PUSH2 0xC6D JUMP JUMPDEST PUSH1 0x40 MLOAD PUSH1 0x20 DUP2 DUP4 SUB SUB DUP2 MSTORE SWAP1 PUSH1 0x40 MSTORE SWAP3 POP DUP1 DUP1 PUSH2 0x24C SWAP1 PUSH2 0xB3E JUMP JUMPDEST SWAP2 POP POP PUSH2 0x217 JUMP JUMPDEST POP PUSH1 0x64 DUP5 PUSH2 0x262 SWAP2 SWAP1 PUSH2 0xA39 JUMP JUMPDEST SWAP4 POP POP JUMPDEST PUSH1 0x64 DUP4 LT ISZERO DUP1 ISZERO PUSH2 0x278 JUMPI POP PUSH2 0x1F4 DUP4 LT JUMPDEST ISZERO PUSH2 0x2DC JUMPI PUSH0 PUSH2 0x289 DUP5 PUSH1 0x2 PUSH2 0xD3 JUMP JUMPDEST SWAP1 POP PUSH0 JUMPDEST DUP2 DUP2 LT ISZERO PUSH2 0x2CA JUMPI DUP3 PUSH1 0x40 MLOAD PUSH1 0x20 ADD PUSH2 0x2A6 SWAP2 SWAP1 PUSH2 0xBCF JUMP JUMPDEST PUSH1 0x40 MLOAD PUSH1 0x20 DUP2 DUP4 SUB SUB DUP2 MSTORE SWAP1 PUSH1 0x40 MSTORE SWAP3 POP DUP1 DUP1 PUSH2 0x2C2 SWAP1 PUSH2 0xB3E JUMP JUMPDEST SWAP2 POP POP PUSH2 0x28D JUMP JUMPDEST POP PUSH1 0x64 DUP5 PUSH2 0x2D8 SWAP2 SWAP1 PUSH2 0xA39 JUMP JUMPDEST SWAP4 POP POP JUMPDEST JUMPDEST PUSH1 0x32 DUP4 LT PUSH2 0x372 JUMPI DUP1 PUSH1 0x40 MLOAD PUSH1 0x20 ADD PUSH2 0x2F6 SWAP2 SWAP1 PUSH2 0xCD8 JUMP JUMPDEST PUSH1 0x40 MLOAD PUSH1 0x20 DUP2 DUP4 SUB SUB DUP2 MSTORE SWAP1 PUSH1 0x40 MSTORE SWAP1 POP PUSH0 PUSH2 0x31F PUSH1 0x32 DUP6 PUSH2 0x318 SWAP2 SWAP1 PUSH2 0xBF0 JUMP JUMPDEST PUSH1 0x1 PUSH2 0xD3 JUMP JUMPDEST SWAP1 POP PUSH0 JUMPDEST DUP2 DUP2 LT ISZERO PUSH2 0x360 JUMPI DUP3 PUSH1 0x40 MLOAD PUSH1 0x20 ADD PUSH2 0x33C SWAP2 SWAP1 PUSH2 0xD43 JUMP JUMPDEST PUSH1 0x40 MLOAD PUSH1 0x20 DUP2 DUP4 SUB SUB DUP2 MSTORE SWAP1 PUSH1 0x40 MSTORE SWAP3 POP DUP1 DUP1 PUSH2 0x358 SWAP1 PUSH2 0xB3E JUMP JUMPDEST SWAP2 POP POP PUSH2 0x323 JUMP JUMPDEST POP PUSH1 0xA DUP5 PUSH2 0x36E SWAP2 SWAP1 PUSH2 0xA39 JUMP JUMPDEST SWAP4 POP POP JUMPDEST PUSH1 0xA DUP4 LT ISZERO DUP1 ISZERO PUSH2 0x383 JUMPI POP PUSH1 0x32 DUP4 LT JUMPDEST ISZERO PUSH2 0x3E7 JUMPI PUSH0 PUSH2 0x394 DUP5 PUSH1 0x1 PUSH2 0xD3 JUMP JUMPDEST SWAP1 POP PUSH0 JUMPDEST DUP2 DUP2 LT ISZERO PUSH2 0x3D5 JUMPI DUP3 PUSH1 0x40 MLOAD PUSH1 0x20 ADD PUSH2 0x3B1 SWAP2 SWAP1 PUSH2 0xD43 JUMP JUMPDEST PUSH1 0x40 MLOAD PUSH1 0x20 DUP2 DUP4 SUB SUB DUP2 MSTORE SWAP1 PUSH1 0x40 MSTORE SWAP3 POP DUP1 DUP1 PUSH2 0x3CD SWAP1 PUSH2 0xB3E JUMP JUMPDEST SWAP2 POP POP PUSH2 0x398 JUMP JUMPDEST POP PUSH1 0xA DUP5 PUSH2 0x3E3 SWAP2 SWAP1 PUSH2 0xA39 JUMP JUMPDEST SWAP4 POP POP JUMPDEST PUSH1 0x5 DUP4 LT PUSH2 0x46F JUMPI DUP1 PUSH1 0x40 MLOAD PUSH1 0x20 ADD PUSH2 0x400 SWAP2 SWAP1 PUSH2 0xDAE JUMP JUMPDEST PUSH1 0x40 MLOAD PUSH1 0x20 DUP2 DUP4 SUB SUB DUP2 MSTORE SWAP1 PUSH1 0x40 MSTORE SWAP1 POP PUSH0 PUSH2 0x428 PUSH1 0x5 DUP6 PUSH2 0x422 SWAP2 SWAP1 PUSH2 0xBF0 JUMP JUMPDEST PUSH0 PUSH2 0xD3 JUMP JUMPDEST SWAP1 POP PUSH0 JUMPDEST DUP2 DUP2 LT ISZERO PUSH2 0x469 JUMPI DUP3 PUSH1 0x40 MLOAD PUSH1 0x20 ADD PUSH2 0x445 SWAP2 SWAP1 PUSH2 0xE19 JUMP JUMPDEST PUSH1 0x40 MLOAD PUSH1 0x20 DUP2 DUP4 SUB SUB DUP2 MSTORE SWAP1 PUSH1 0x40 MSTORE SWAP3 POP DUP1 DUP1 PUSH2 0x461 SWAP1 PUSH2 0xB3E JUMP JUMPDEST SWAP2 POP POP PUSH2 0x42C JUMP JUMPDEST POP PUSH0 SWAP4 POP POP JUMPDEST PUSH1 0x1 DUP4 LT ISZERO DUP1 ISZERO PUSH2 0x480 JUMPI POP PUSH1 0x5 DUP4 LT JUMPDEST ISZERO PUSH2 0x4D7 JUMPI PUSH0 PUSH2 0x490 DUP5 PUSH0 PUSH2 0xD3 JUMP JUMPDEST SWAP1 POP PUSH0 JUMPDEST DUP2 DUP2 LT ISZERO PUSH2 0x4D1 JUMPI DUP3 PUSH1 0x40 MLOAD PUSH1 0x20 ADD PUSH2 0x4AD SWAP2 SWAP1 PUSH2 0xE19 JUMP JUMPDEST PUSH1 0x40 MLOAD PUSH1 0x20 DUP2 DUP4 SUB SUB DUP2 MSTORE SWAP1 PUSH1 0x40 MSTORE SWAP3 POP DUP1 DUP1 PUSH2 0x4C9 SWAP1 PUSH2 0xB3E JUMP JUMPDEST SWAP2 POP POP PUSH2 0x494 JUMP JUMPDEST POP PUSH0 SWAP4 POP POP JUMPDEST PUSH2 0x147 JUMP JUMPDEST DUP1 SWAP4 POP POP POP POP SWAP2 SWAP1 POP JUMP JUMPDEST PUSH0 PUSH1 0x40 MLOAD SWAP1 POP SWAP1 JUMP JUMPDEST PUSH0 DUP1 REVERT JUMPDEST PUSH0 DUP1 REVERT JUMPDEST PUSH0 DUP2 SWAP1 POP SWAP2 SWAP1 POP JUMP JUMPDEST PUSH2 0x50A DUP2 PUSH2 0x4F8 JUMP JUMPDEST DUP2 EQ PUSH2 0x514 JUMPI PUSH0 DUP1 REVERT JUMPDEST POP JUMP JUMPDEST PUSH0 DUP2 CALLDATALOAD SWAP1 POP PUSH2 0x525 DUP2 PUSH2 0x501 JUMP JUMPDEST SWAP3 SWAP2 POP POP JUMP JUMPDEST PUSH0 DUP1 PUSH1 0x40 DUP4 DUP6 SUB SLT ISZERO PUSH2 0x541 JUMPI PUSH2 0x540 PUSH2 0x4F0 JUMP JUMPDEST JUMPDEST PUSH0 PUSH2 0x54E DUP6 DUP3 DUP7 ADD PUSH2 0x517 JUMP JUMPDEST SWAP3 POP POP PUSH1 0x20 PUSH2 0x55F DUP6 DUP3 DUP7 ADD PUSH2 0x517 JUMP JUMPDEST SWAP2 POP POP SWAP3 POP SWAP3 SWAP1 POP JUMP JUMPDEST PUSH2 0x572 DUP2 PUSH2 0x4F8 JUMP JUMPDEST DUP3 MSTORE POP POP JUMP JUMPDEST PUSH0 PUSH1 0x20 DUP3 ADD SWAP1 POP PUSH2 0x58B PUSH0 DUP4 ADD DUP5 PUSH2 0x569 JUMP JUMPDEST SWAP3 SWAP2 POP POP JUMP JUMPDEST PUSH0 DUP1 REVERT JUMPDEST PUSH0 DUP1 REVERT JUMPDEST PUSH0 PUSH1 0x1F NOT PUSH1 0x1F DUP4 ADD AND SWAP1 POP SWAP2 SWAP1 POP JUMP JUMPDEST PUSH32 0x4E487B7100000000000000000000000000000000000000000000000000000000 PUSH0 MSTORE PUSH1 0x41 PUSH1 0x4 MSTORE PUSH1 0x24 PUSH0 REVERT JUMPDEST PUSH2 0x5DF DUP3 PUSH2 0x599 JUMP JUMPDEST DUP2 ADD DUP2 DUP2 LT PUSH8 0xFFFFFFFFFFFFFFFF DUP3 GT OR ISZERO PUSH2 0x5FE JUMPI PUSH2 0x5FD PUSH2 0x5A9 JUMP JUMPDEST JUMPDEST DUP1 PUSH1 0x40 MSTORE POP POP POP JUMP JUMPDEST PUSH0 PUSH2 0x610 PUSH2 0x4E7 JUMP JUMPDEST SWAP1 POP PUSH2 0x61C DUP3 DUP3 PUSH2 0x5D6 JUMP JUMPDEST SWAP2 SWAP1 POP JUMP JUMPDEST PUSH0 PUSH8 0xFFFFFFFFFFFFFFFF DUP3 GT ISZERO PUSH2 0x63B JUMPI PUSH2 0x63A PUSH2 0x5A9 JUMP JUMPDEST JUMPDEST PUSH2 0x644 DUP3 PUSH2 0x599 JUMP JUMPDEST SWAP1 POP PUSH1 0x20 DUP2 ADD SWAP1 POP SWAP2 SWAP1 POP JUMP JUMPDEST DUP3 DUP2 DUP4 CALLDATACOPY PUSH0 DUP4 DUP4 ADD MSTORE POP POP POP JUMP JUMPDEST PUSH0 PUSH2 0x671 PUSH2 0x66C DUP5 PUSH2 0x621 JUMP JUMPDEST PUSH2 0x607 JUMP JUMPDEST SWAP1 POP DUP3 DUP2 MSTORE PUSH1 0x20 DUP2 ADD DUP5 DUP5 DUP5 ADD GT ISZERO PUSH2 0x68D JUMPI PUSH2 0x68C PUSH2 0x595 JUMP JUMPDEST JUMPDEST PUSH2 0x698 DUP5 DUP3 DUP6 PUSH2 0x651 JUMP JUMPDEST POP SWAP4 SWAP3 POP POP POP JUMP JUMPDEST PUSH0 DUP3 PUSH1 0x1F DUP4 ADD SLT PUSH2 0x6B4 JUMPI PUSH2 0x6B3 PUSH2 0x591 JUMP JUMPDEST JUMPDEST DUP2 CALLDATALOAD PUSH2 0x6C4 DUP5 DUP3 PUSH1 0x20 DUP7 ADD PUSH2 0x65F JUMP JUMPDEST SWAP2 POP POP SWAP3 SWAP2 POP POP JUMP JUMPDEST PUSH0 DUP1 PUSH0 PUSH1 0x60 DUP5 DUP7 SUB SLT ISZERO PUSH2 0x6E4 JUMPI PUSH2 0x6E3 PUSH2 0x4F0 JUMP JUMPDEST JUMPDEST PUSH0 DUP5 ADD CALLDATALOAD PUSH8 0xFFFFFFFFFFFFFFFF DUP2 GT ISZERO PUSH2 0x701 JUMPI PUSH2 0x700 PUSH2 0x4F4 JUMP JUMPDEST JUMPDEST PUSH2 0x70D DUP7 DUP3 DUP8 ADD PUSH2 0x6A0 JUMP JUMPDEST SWAP4 POP POP PUSH1 0x20 DUP5 ADD CALLDATALOAD PUSH8 0xFFFFFFFFFFFFFFFF DUP2 GT ISZERO PUSH2 0x72E JUMPI PUSH2 0x72D PUSH2 0x4F4 JUMP JUMPDEST JUMPDEST PUSH2 0x73A DUP7 DUP3 DUP8 ADD PUSH2 0x6A0 JUMP JUMPDEST SWAP3 POP POP PUSH1 0x40 DUP5 ADD CALLDATALOAD PUSH8 0xFFFFFFFFFFFFFFFF DUP2 GT ISZERO PUSH2 0x75B JUMPI PUSH2 0x75A PUSH2 0x4F4 JUMP JUMPDEST JUMPDEST PUSH2 0x767 DUP7 DUP3 DUP8 ADD PUSH2 0x6A0 JUMP JUMPDEST SWAP2 POP POP SWAP3 POP SWAP3 POP SWAP3 JUMP JUMPDEST PUSH0 DUP2 MLOAD SWAP1 POP SWAP2 SWAP1 POP JUMP JUMPDEST PUSH0 DUP3 DUP3 MSTORE PUSH1 0x20 DUP3 ADD SWAP1 POP SWAP3 SWAP2 POP POP JUMP JUMPDEST PUSH0 JUMPDEST DUP4 DUP2 LT ISZERO PUSH2 0x7A8 JUMPI DUP1 DUP3 ADD MLOAD DUP2 DUP5 ADD MSTORE PUSH1 0x20 DUP2 ADD SWAP1 POP PUSH2 0x78D JUMP JUMPDEST PUSH0 DUP5 DUP5 ADD MSTORE POP POP POP POP JUMP JUMPDEST PUSH0 PUSH2 0x7BD DUP3 PUSH2 0x771 JUMP JUMPDEST PUSH2 0x7C7 DUP2 DUP6 PUSH2 0x77B JUMP JUMPDEST SWAP4 POP PUSH2 0x7D7 DUP2 DUP6 PUSH1 0x20 DUP7 ADD PUSH2 0x78B JUMP JUMPDEST PUSH2 0x7E0 DUP2 PUSH2 0x599 JUMP JUMPDEST DUP5 ADD SWAP2 POP POP SWAP3 SWAP2 POP POP JUMP JUMPDEST PUSH0 PUSH1 0x20 DUP3 ADD SWAP1 POP DUP2 DUP2 SUB PUSH0 DUP4 ADD MSTORE PUSH2 0x803 DUP2 DUP5 PUSH2 0x7B3 JUMP JUMPDEST SWAP1 POP SWAP3 SWAP2 POP POP JUMP JUMPDEST PUSH0 PUSH1 0x20 DUP3 DUP5 SUB SLT ISZERO PUSH2 0x820 JUMPI PUSH2 0x81F PUSH2 0x4F0 JUMP JUMPDEST JUMPDEST PUSH0 PUSH2 0x82D DUP5 DUP3 DUP6 ADD PUSH2 0x517 JUMP JUMPDEST SWAP2 POP POP SWAP3 SWAP2 POP POP JUMP JUMPDEST PUSH32 0x4E487B7100000000000000000000000000000000000000000000000000000000 PUSH0 MSTORE PUSH1 0x11 PUSH1 0x4 MSTORE PUSH1 0x24 PUSH0 REVERT JUMPDEST PUSH0 DUP2 PUSH1 0x1 SHR SWAP1 POP SWAP2 SWAP1 POP JUMP JUMPDEST PUSH0 DUP1 DUP3 SWAP2 POP DUP4 SWAP1 POP JUMPDEST PUSH1 0x1 DUP6 GT ISZERO PUSH2 0x8B8 JUMPI DUP1 DUP7 DIV DUP2 GT ISZERO PUSH2 0x894 JUMPI PUSH2 0x893 PUSH2 0x836 JUMP JUMPDEST JUMPDEST PUSH1 0x1 DUP6 AND ISZERO PUSH2 0x8A3 JUMPI DUP1 DUP3 MUL SWAP2 POP JUMPDEST DUP1 DUP2 MUL SWAP1 POP PUSH2 0x8B1 DUP6 PUSH2 0x863 JUMP JUMPDEST SWAP5 POP PUSH2 0x878 JUMP JUMPDEST SWAP5 POP SWAP5 SWAP3 POP POP POP JUMP JUMPDEST PUSH0 DUP3 PUSH2 0x8D0 JUMPI PUSH1 0x1 SWAP1 POP PUSH2 0x98B JUMP JUMPDEST DUP2 PUSH2 0x8DD JUMPI PUSH0 SWAP1 POP PUSH2 0x98B JUMP JUMPDEST DUP2 PUSH1 0x1 DUP2 EQ PUSH2 0x8F3 JUMPI PUSH1 0x2 DUP2 EQ PUSH2 0x8FD JUMPI PUSH2 0x92C JUMP JUMPDEST PUSH1 0x1 SWAP2 POP POP PUSH2 0x98B JUMP JUMPDEST PUSH1 0xFF DUP5 GT ISZERO PUSH2 0x90F JUMPI PUSH2 0x90E PUSH2 0x836 JUMP JUMPDEST JUMPDEST DUP4 PUSH1 0x2 EXP SWAP2 POP DUP5 DUP3 GT ISZERO PUSH2 0x926 JUMPI PUSH2 0x925 PUSH2 0x836 JUMP JUMPDEST JUMPDEST POP PUSH2 0x98B JUMP JUMPDEST POP PUSH1 0x20 DUP4 LT PUSH2 0x133 DUP4 LT AND PUSH1 0x4E DUP5 LT PUSH1 0xB DUP5 LT AND OR ISZERO PUSH2 0x961 JUMPI DUP3 DUP3 EXP SWAP1 POP DUP4 DUP2 GT ISZERO PUSH2 0x95C JUMPI PUSH2 0x95B PUSH2 0x836 JUMP JUMPDEST JUMPDEST PUSH2 0x98B JUMP JUMPDEST PUSH2 0x96E DUP5 DUP5 DUP5 PUSH1 0x1 PUSH2 0x86F JUMP JUMPDEST SWAP3 POP SWAP1 POP DUP2 DUP5 DIV DUP2 GT ISZERO PUSH2 0x985 JUMPI PUSH2 0x984 PUSH2 0x836 JUMP JUMPDEST JUMPDEST DUP2 DUP2 MUL SWAP1 POP JUMPDEST SWAP4 SWAP3 POP POP POP JUMP JUMPDEST PUSH0 PUSH2 0x99C DUP3 PUSH2 0x4F8 JUMP JUMPDEST SWAP2 POP PUSH2 0x9A7 DUP4 PUSH2 0x4F8 JUMP JUMPDEST SWAP3 POP PUSH2 0x9D4 PUSH32 0xFFFFFFFFFFFFFFFFFFFFFFFFFFFFFFFFFFFFFFFFFFFFFFFFFFFFFFFFFFFFFFFF DUP5 DUP5 PUSH2 0x8C1 JUMP JUMPDEST SWAP1 POP SWAP3 SWAP2 POP POP JUMP JUMPDEST PUSH32 0x4E487B7100000000000000000000000000000000000000000000000000000000 PUSH0 MSTORE PUSH1 0x12 PUSH1 0x4 MSTORE PUSH1 0x24 PUSH0 REVERT JUMPDEST PUSH0 PUSH2 0xA13 DUP3 PUSH2 0x4F8 JUMP JUMPDEST SWAP2 POP PUSH2 0xA1E DUP4 PUSH2 0x4F8 JUMP JUMPDEST SWAP3 POP DUP3 PUSH2 0xA2E JUMPI PUSH2 0xA2D PUSH2 0x9DC JUMP JUMPDEST JUMPDEST DUP3 DUP3 DIV SWAP1 POP SWAP3 SWAP2 POP POP JUMP JUMPDEST PUSH0 PUSH2 0xA43 DUP3 PUSH2 0x4F8 JUMP JUMPDEST SWAP2 POP PUSH2 0xA4E DUP4 PUSH2 0x4F8 JUMP JUMPDEST SWAP3 POP DUP3 PUSH2 0xA5E JUMPI PUSH2 0xA5D PUSH2 0x9DC JUMP JUMPDEST JUMPDEST DUP3 DUP3 MOD SWAP1 POP SWAP3 SWAP2 POP POP JUMP JUMPDEST PUSH0 DUP2 SWAP1 POP SWAP3 SWAP2 POP POP JUMP JUMPDEST PUSH0 PUSH2 0xA7D DUP3 PUSH2 0x771 JUMP JUMPDEST PUSH2 0xA87 DUP2 DUP6 PUSH2 0xA69 JUMP JUMPDEST SWAP4 POP PUSH2 0xA97 DUP2 DUP6 PUSH1 0x20 DUP7 ADD PUSH2 0x78B JUMP JUMPDEST DUP1 DUP5 ADD SWAP2 POP POP SWAP3 SWAP2 POP POP JUMP JUMPDEST PUSH0 PUSH2 0xAAE DUP3 DUP7 PUSH2 0xA73 JUMP JUMPDEST SWAP2 POP PUSH2 0xABA DUP3 DUP6 PUSH2 0xA73 JUMP JUMPDEST SWAP2 POP PUSH2 0xAC6 DUP3 DUP5 PUSH2 0xA73 JUMP JUMPDEST SWAP2 POP DUP2 SWAP1 POP SWAP5 SWAP4 POP POP POP POP JUMP JUMPDEST PUSH32 0x4D00000000000000000000000000000000000000000000000000000000000000 PUSH0 DUP3 ADD MSTORE POP JUMP JUMPDEST PUSH0 PUSH2 0xB07 PUSH1 0x1 DUP4 PUSH2 0xA69 JUMP JUMPDEST SWAP2 POP PUSH2 0xB12 DUP3 PUSH2 0xAD3 JUMP JUMPDEST PUSH1 0x1 DUP3 ADD SWAP1 POP SWAP2 SWAP1 POP JUMP JUMPDEST PUSH0 PUSH2 0xB28 DUP3 DUP5 PUSH2 0xA73 JUMP JUMPDEST SWAP2 POP PUSH2 0xB33 DUP3 PUSH2 0xAFB JUMP JUMPDEST SWAP2 POP DUP2 SWAP1 POP SWAP3 SWAP2 POP POP JUMP JUMPDEST PUSH0 PUSH2 0xB48 DUP3 PUSH2 0x4F8 JUMP JUMPDEST SWAP2 POP PUSH32 0xFFFFFFFFFFFFFFFFFFFFFFFFFFFFFFFFFFFFFFFFFFFFFFFFFFFFFFFFFFFFFFFF DUP3 SUB PUSH2 0xB7A JUMPI PUSH2 0xB79 PUSH2 0x836 JUMP JUMPDEST JUMPDEST PUSH1 0x1 DUP3 ADD SWAP1 POP SWAP2 SWAP1 POP JUMP JUMPDEST PUSH32 0x4400000000000000000000000000000000000000000000000000000000000000 PUSH0 DUP3 ADD MSTORE POP JUMP JUMPDEST PUSH0 PUSH2 0xBB9 PUSH1 0x1 DUP4 PUSH2 0xA69 JUMP JUMPDEST SWAP2 POP PUSH2 0xBC4 DUP3 PUSH2 0xB85 JUMP JUMPDEST PUSH1 0x1 DUP3 ADD SWAP1 POP SWAP2 SWAP1 POP JUMP JUMPDEST PUSH0 PUSH2 0xBDA DUP3 DUP5 PUSH2 0xA73 JUMP JUMPDEST SWAP2 POP PUSH2 0xBE5 DUP3 PUSH2 0xBAD JUMP JUMPDEST SWAP2 POP DUP2 SWAP1 POP SWAP3 SWAP2 POP POP JUMP JUMPDEST PUSH0 PUSH2 0xBFA DUP3 PUSH2 0x4F8 JUMP JUMPDEST SWAP2 POP PUSH2 0xC05 DUP4 PUSH2 0x4F8 JUMP JUMPDEST SWAP3 POP DUP3 DUP3 SUB SWAP1 POP DUP2 DUP2 GT ISZERO PUSH2 0xC1D JUMPI PUSH2 0xC1C PUSH2 0x836 JUMP JUMPDEST JUMPDEST SWAP3 SWAP2 POP POP JUMP JUMPDEST PUSH32 0x4300000000000000000000000000000000000000000000000000000000000000 PUSH0 DUP3 ADD MSTORE POP JUMP JUMPDEST PUSH0 PUSH2 0xC57 PUSH1 0x1 DUP4 PUSH2 0xA69 JUMP JUMPDEST SWAP2 POP PUSH2 0xC62 DUP3 PUSH2 0xC23 JUMP JUMPDEST PUSH1 0x1 DUP3 ADD SWAP1 POP SWAP2 SWAP1 POP JUMP JUMPDEST PUSH0 PUSH2 0xC78 DUP3 DUP5 PUSH2 0xA73 JUMP JUMPDEST SWAP2 POP PUSH2 0xC83 DUP3 PUSH2 0xC4B JUMP JUMPDEST SWAP2 POP DUP2 SWAP1 POP SWAP3 SWAP2 POP POP JUMP JUMPDEST PUSH32 0x4C00000000000000000000000000000000000000000000000000000000000000 PUSH0 DUP3 ADD MSTORE POP JUMP JUMPDEST PUSH0 PUSH2 0xCC2 PUSH1 0x1 DUP4 PUSH2 0xA69 JUMP JUMPDEST SWAP2 POP PUSH2 0xCCD DUP3 PUSH2 0xC8E JUMP JUMPDEST PUSH1 0x1 DUP3 ADD SWAP1 POP SWAP2 SWAP1 POP JUMP JUMPDEST PUSH0 PUSH2 0xCE3 DUP3 DUP5 PUSH2 0xA73 JUMP JUMPDEST SWAP2 POP PUSH2 0xCEE DUP3 PUSH2 0xCB6 JUMP JUMPDEST SWAP2 POP DUP2 SWAP1 POP SWAP3 SWAP2 POP POP JUMP JUMPDEST PUSH32 0x5800000000000000000000000000000000000000000000000000000000000000 PUSH0 DUP3 ADD MSTORE POP JUMP JUMPDEST PUSH0 PUSH2 0xD2D PUSH1 0x1 DUP4 PUSH2 0xA69 JUMP JUMPDEST SWAP2 POP PUSH2 0xD38 DUP3 PUSH2 0xCF9 JUMP JUMPDEST PUSH1 0x1 DUP3 ADD SWAP1 POP SWAP2 SWAP1 POP JUMP JUMPDEST PUSH0 PUSH2 0xD4E DUP3 DUP5 PUSH2 0xA73 JUMP JUMPDEST SWAP2 POP PUSH2 0xD59 DUP3 PUSH2 0xD21 JUMP JUMPDEST SWAP2 POP DUP2 SWAP1 POP SWAP3 SWAP2 POP POP JUMP JUMPDEST PUSH32 0x5600000000000000000000000000000000000000000000000000000000000000 PUSH0 DUP3 ADD MSTORE POP JUMP JUMPDEST PUSH0 PUSH2 0xD98 PUSH1 0x1 DUP4 PUSH2 0xA69 JUMP JUMPDEST SWAP2 POP PUSH2 0xDA3 DUP3 PUSH2 0xD64 JUMP JUMPDEST PUSH1 0x1 DUP3 ADD SWAP1 POP SWAP2 SWAP1 POP JUMP JUMPDEST PUSH0 PUSH2 0xDB9 DUP3 DUP5 PUSH2 0xA73 JUMP JUMPDEST SWAP2 POP PUSH2 0xDC4 DUP3 PUSH2 0xD8C JUMP JUMPDEST SWAP2 POP DUP2 SWAP1 POP SWAP3 SWAP2 POP POP JUMP JUMPDEST PUSH32 0x4900000000000000000000000000000000000000000000000000000000000000 PUSH0 DUP3 ADD MSTORE POP JUMP JUMPDEST PUSH0 PUSH2 0xE03 PUSH1 0x1 DUP4 PUSH2 0xA69 JUMP JUMPDEST SWAP2 POP PUSH2 0xE0E DUP3 PUSH2 0xDCF JUMP JUMPDEST PUSH1 0x1 DUP3 ADD SWAP1 POP SWAP2 SWAP1 POP JUMP JUMPDEST PUSH0 PUSH2 0xE24 DUP3 DUP5 PUSH2 0xA73 JUMP JUMPDEST SWAP2 POP PUSH2 0xE2F DUP3 PUSH2 0xDF7 JUMP JUMPDEST SWAP2 POP DUP2 SWAP1 POP SWAP3 SWAP2 POP POP JUMP INVALID LOG2 PUSH5 0x6970667358 0x22 SLT KECCAK256 JUMP SUB SUB 0xE2 PUSH13 0xD0D265197F80E0412E04771A15 SWAP1 PUSH29 0x2E8EC006FED777FF0B6326E364736F6C63430008140033000000000000 "
				},
				"gasEstimates": {
					"creation": {
						"codeDepositCost": "739200",
						"executionCost": "771",
						"totalCost": "739971"
					},
					"external": {
						"appendString(string,string,string)": "infinite",
						"fetchDigit(uint256,uint256)": "infinite",
						"getRoman(uint256)": "infinite"
					}
				},
				"methodIdentifiers": {
					"appendString(string,string,string)": "1652a393",
					"fetchDigit(uint256,uint256)": "10576af4",
					"getRoman(uint256)": "dd082aaf"
				}
			},
			"storageLayout": {
				"storage": [],
				"types": null
			},
			"userdoc": {
				"kind": "user",
				"methods": {},
				"version": 1
			}
		}
	}
}