{
	"P2PLending.sol": {
		"MyToken": {
			"abi": [
				{
					"inputs": [],
					"stateMutability": "nonpayable",
					"type": "constructor"
				},
				{
					"anonymous": false,
					"inputs": [
						{
							"indexed": true,
							"internalType": "address",
							"name": "owner",
							"type": "address"
						},
						{
							"indexed": true,
							"internalType": "address",
							"name": "spender",
							"type": "address"
						},
						{
							"indexed": false,
							"internalType": "uint256",
							"name": "value",
							"type": "uint256"
						}
					],
					"name": "Approval",
					"type": "event"
				},
				{
					"anonymous": false,
					"inputs": [
						{
							"indexed": true,
							"internalType": "address",
							"name": "from",
							"type": "address"
						},
						{
							"indexed": true,
							"internalType": "address",
							"name": "to",
							"type": "address"
						},
						{
							"indexed": false,
							"internalType": "uint256",
							"name": "value",
							"type": "uint256"
						}
					],
					"name": "Transfer",
					"type": "event"
				},
				{
					"inputs": [],
					"name": "DOMAIN_SEPARATOR",
					"outputs": [
						{
							"internalType": "bytes32",
							"name": "",
							"type": "bytes32"
						}
					],
					"stateMutability": "view",
					"type": "function"
				},
				{
					"inputs": [
						{
							"internalType": "uint256",
							"name": "_amount",
							"type": "uint256"
						},
						{
							"internalType": "uint256",
							"name": "_deadline",
							"type": "uint256"
						},
						{
							"internalType": "uint8",
							"name": "_v",
							"type": "uint8"
						},
						{
							"internalType": "bytes32",
							"name": "_r",
							"type": "bytes32"
						},
						{
							"internalType": "bytes32",
							"name": "_s",
							"type": "bytes32"
						}
					],
					"name": "RegisterLender",
					"outputs": [
						{
							"internalType": "bool",
							"name": "",
							"type": "bool"
						}
					],
					"stateMutability": "nonpayable",
					"type": "function"
				},
				{
					"inputs": [
						{
							"internalType": "address",
							"name": "owner",
							"type": "address"
						},
						{
							"internalType": "address",
							"name": "spender",
							"type": "address"
						}
					],
					"name": "allowance",
					"outputs": [
						{
							"internalType": "uint256",
							"name": "",
							"type": "uint256"
						}
					],
					"stateMutability": "view",
					"type": "function"
				},
				{
					"inputs": [
						{
							"internalType": "address",
							"name": "spender",
							"type": "address"
						},
						{
							"internalType": "uint256",
							"name": "amount",
							"type": "uint256"
						}
					],
					"name": "approve",
					"outputs": [
						{
							"internalType": "bool",
							"name": "",
							"type": "bool"
						}
					],
					"stateMutability": "nonpayable",
					"type": "function"
				},
				{
					"inputs": [
						{
							"internalType": "address",
							"name": "account",
							"type": "address"
						}
					],
					"name": "balanceOf",
					"outputs": [
						{
							"internalType": "uint256",
							"name": "",
							"type": "uint256"
						}
					],
					"stateMutability": "view",
					"type": "function"
				},
				{
					"inputs": [
						{
							"internalType": "address",
							"name": "",
							"type": "address"
						}
					],
					"name": "borrowedAmount",
					"outputs": [
						{
							"internalType": "uint256",
							"name": "",
							"type": "uint256"
						}
					],
					"stateMutability": "view",
					"type": "function"
				},
				{
					"inputs": [],
					"name": "decimals",
					"outputs": [
						{
							"internalType": "uint8",
							"name": "",
							"type": "uint8"
						}
					],
					"stateMutability": "view",
					"type": "function"
				},
				{
					"inputs": [
						{
							"internalType": "address",
							"name": "spender",
							"type": "address"
						},
						{
							"internalType": "uint256",
							"name": "subtractedValue",
							"type": "uint256"
						}
					],
					"name": "decreaseAllowance",
					"outputs": [
						{
							"internalType": "bool",
							"name": "",
							"type": "bool"
						}
					],
					"stateMutability": "nonpayable",
					"type": "function"
				},
				{
					"inputs": [
						{
							"internalType": "address",
							"name": "spender",
							"type": "address"
						},
						{
							"internalType": "uint256",
							"name": "addedValue",
							"type": "uint256"
						}
					],
					"name": "increaseAllowance",
					"outputs": [
						{
							"internalType": "bool",
							"name": "",
							"type": "bool"
						}
					],
					"stateMutability": "nonpayable",
					"type": "function"
				},
				{
					"inputs": [
						{
							"internalType": "address",
							"name": "",
							"type": "address"
						}
					],
					"name": "lendedAmount",
					"outputs": [
						{
							"internalType": "uint256",
							"name": "",
							"type": "uint256"
						}
					],
					"stateMutability": "view",
					"type": "function"
				},
				{
					"inputs": [
						{
							"internalType": "address",
							"name": "to",
							"type": "address"
						},
						{
							"internalType": "uint256",
							"name": "value",
							"type": "uint256"
						}
					],
					"name": "mint",
					"outputs": [],
					"stateMutability": "nonpayable",
					"type": "function"
				},
				{
					"inputs": [],
					"name": "name",
					"outputs": [
						{
							"internalType": "string",
							"name": "",
							"type": "string"
						}
					],
					"stateMutability": "view",
					"type": "function"
				},
				{
					"inputs": [
						{
							"internalType": "address",
							"name": "owner",
							"type": "address"
						}
					],
					"name": "nonces",
					"outputs": [
						{
							"internalType": "uint256",
							"name": "",
							"type": "uint256"
						}
					],
					"stateMutability": "view",
					"type": "function"
				},
				{
					"inputs": [
						{
							"internalType": "address",
							"name": "owner",
							"type": "address"
						},
						{
							"internalType": "address",
							"name": "spender",
							"type": "address"
						},
						{
							"internalType": "uint256",
							"name": "value",
							"type": "uint256"
						},
						{
							"internalType": "uint256",
							"name": "deadline",
							"type": "uint256"
						},
						{
							"internalType": "uint8",
							"name": "v",
							"type": "uint8"
						},
						{
							"internalType": "bytes32",
							"name": "r",
							"type": "bytes32"
						},
						{
							"internalType": "bytes32",
							"name": "s",
							"type": "bytes32"
						}
					],
					"name": "permit",
					"outputs": [],
					"stateMutability": "nonpayable",
					"type": "function"
				},
				{
					"inputs": [],
					"name": "symbol",
					"outputs": [
						{
							"internalType": "string",
							"name": "",
							"type": "string"
						}
					],
					"stateMutability": "view",
					"type": "function"
				},
				{
					"inputs": [
						{
							"internalType": "address",
							"name": "_from",
							"type": "address"
						},
						{
							"internalType": "address",
							"name": "_to",
							"type": "address"
						},
						{
							"internalType": "uint256",
							"name": "_amount",
							"type": "uint256"
						}
					],
					"name": "testTransfer",
					"outputs": [],
					"stateMutability": "nonpayable",
					"type": "function"
				},
				{
					"inputs": [],
					"name": "totalSupply",
					"outputs": [
						{
							"internalType": "uint256",
							"name": "",
							"type": "uint256"
						}
					],
					"stateMutability": "view",
					"type": "function"
				},
				{
					"inputs": [
						{
							"internalType": "address",
							"name": "to",
							"type": "address"
						},
						{
							"internalType": "uint256",
							"name": "amount",
							"type": "uint256"
						}
					],
					"name": "transfer",
					"outputs": [
						{
							"internalType": "bool",
							"name": "",
							"type": "bool"
						}
					],
					"stateMutability": "nonpayable",
					"type": "function"
				},
				{
					"inputs": [
						{
							"internalType": "address",
							"name": "from",
							"type": "address"
						},
						{
							"internalType": "address",
							"name": "to",
							"type": "address"
						},
						{
							"internalType": "uint256",
							"name": "amount",
							"type": "uint256"
						}
					],
					"name": "transferFrom",
					"outputs": [
						{
							"internalType": "bool",
							"name": "",
							"type": "bool"
						}
					],
					"stateMutability": "nonpayable",
					"type": "function"
				},
				{
					"inputs": [
						{
							"internalType": "address",
							"name": "_from",
							"type": "address"
						},
						{
							"internalType": "address",
							"name": "_to",
							"type": "address"
						},
						{
							"internalType": "uint256",
							"name": "_amount",
							"type": "uint256"
						}
					],
					"name": "transferToAddr",
					"outputs": [],
					"stateMutability": "nonpayable",
					"type": "function"
				},
				{
					"inputs": [
						{
							"internalType": "address",
							"name": "_from",
							"type": "address"
						},
						{
							"internalType": "uint256",
							"name": "_amount",
							"type": "uint256"
						}
					],
					"name": "transfertoContract",
					"outputs": [],
					"stateMutability": "nonpayable",
					"type": "function"
				}
			],
			"devdoc": {
				"events": {
					"Approval(address,address,uint256)": {
						"details": "Emitted when the allowance of a `spender` for an `owner` is set by a call to {approve}. `value` is the new allowance."
					},
					"Transfer(address,address,uint256)": {
						"details": "Emitted when `value` tokens are moved from one account (`from`) to another (`to`). Note that `value` may be zero."
					}
				},
				"kind": "dev",
				"methods": {
					"DOMAIN_SEPARATOR()": {
						"details": "See {IERC20Permit-DOMAIN_SEPARATOR}."
					},
					"allowance(address,address)": {
						"details": "See {IERC20-allowance}."
					},
					"approve(address,uint256)": {
						"details": "See {IERC20-approve}. NOTE: If `amount` is the maximum `uint256`, the allowance is not updated on `transferFrom`. This is semantically equivalent to an infinite approval. Requirements: - `spender` cannot be the zero address."
					},
					"balanceOf(address)": {
						"details": "See {IERC20-balanceOf}."
					},
					"decimals()": {
						"details": "Returns the number of decimals used to get its user representation. For example, if `decimals` equals `2`, a balance of `505` tokens should be displayed to a user as `5.05` (`505 / 10 ** 2`). Tokens usually opt for a value of 18, imitating the relationship between Ether and Wei. This is the value {ERC20} uses, unless this function is overridden; NOTE: This information is only used for _display_ purposes: it in no way affects any of the arithmetic of the contract, including {IERC20-balanceOf} and {IERC20-transfer}."
					},
					"decreaseAllowance(address,uint256)": {
						"details": "Atomically decreases the allowance granted to `spender` by the caller. This is an alternative to {approve} that can be used as a mitigation for problems described in {IERC20-approve}. Emits an {Approval} event indicating the updated allowance. Requirements: - `spender` cannot be the zero address. - `spender` must have allowance for the caller of at least `subtractedValue`."
					},
					"increaseAllowance(address,uint256)": {
						"details": "Atomically increases the allowance granted to `spender` by the caller. This is an alternative to {approve} that can be used as a mitigation for problems described in {IERC20-approve}. Emits an {Approval} event indicating the updated allowance. Requirements: - `spender` cannot be the zero address."
					},
					"name()": {
						"details": "Returns the name of the token."
					},
					"nonces(address)": {
						"details": "See {IERC20Permit-nonces}."
					},
					"permit(address,address,uint256,uint256,uint8,bytes32,bytes32)": {
						"details": "See {IERC20Permit-permit}."
					},
					"symbol()": {
						"details": "Returns the symbol of the token, usually a shorter version of the name."
					},
					"totalSupply()": {
						"details": "See {IERC20-totalSupply}."
					},
					"transfer(address,uint256)": {
						"details": "See {IERC20-transfer}. Requirements: - `to` cannot be the zero address. - the caller must have a balance of at least `amount`."
					},
					"transferFrom(address,address,uint256)": {
						"details": "See {IERC20-transferFrom}. Emits an {Approval} event indicating the updated allowance. This is not required by the EIP. See the note at the beginning of {ERC20}. NOTE: Does not update the allowance if the current allowance is the maximum `uint256`. Requirements: - `from` and `to` cannot be the zero address. - `from` must have a balance of at least `amount`. - the caller must have allowance for ``from``'s tokens of at least `amount`."
					}
				},
				"version": 1
			},
			"evm": {
				"assembly": "    /* \"P2PLending.sol\":205:1617  contract MyToken is ERC20, ERC20Permit {... */\n  mstore(0x40, 0x0140)\n    /* \"P2PLending.sol\":250:313  constructor() ERC20(\"MyToken\", \"MTK\") ERC20Permit(\"MyToken\") {} */\n  callvalue\n  dup1\n  iszero\n  tag_1\n  jumpi\n  0x00\n  dup1\n  revert\ntag_1:\n  pop\n    /* \"@openzeppelin/contracts@4.7.3/token/ERC20/extensions/draft-ERC20Permit.sol\":1835:1887  constructor(string memory name) EIP712(name, \"1\") {} */\n  mload(0x40)\n  dup1\n  0x40\n  add\n  0x40\n  mstore\n  dup1\n  0x07\n  dup2\n  mstore\n  0x20\n  add\n  shl(0xc9, 0x26bcaa37b5b2b7)\n  dup2\n  mstore\n  pop\n    /* \"@openzeppelin/contracts@4.7.3/token/ERC20/extensions/draft-ERC20Permit.sol\":1874:1878  name */\n  dup1\n    /* \"@openzeppelin/contracts@4.7.3/utils/cryptography/draft-EIP712.sol\":2455:3057  constructor(string memory name, string memory version) {... */\n  mload(0x40)\n  dup1\n  0x40\n  add\n  0x40\n  mstore\n  dup1\n  0x01\n  dup2\n  mstore\n  0x20\n  add\n  shl(0xf8, 0x31)\n  dup2\n  mstore\n  pop\n    /* \"@openzeppelin/contracts@4.7.3/token/ERC20/ERC20.sol\":1978:2091  constructor(string memory name_, string memory symbol_) {... */\n  mload(0x40)\n  dup1\n  0x40\n  add\n  0x40\n  mstore\n  dup1\n  0x07\n  dup2\n  mstore\n  0x20\n  add\n  shl(0xc9, 0x26bcaa37b5b2b7)\n  dup2\n  mstore\n  pop\n  mload(0x40)\n  dup1\n  0x40\n  add\n  0x40\n  mstore\n  dup1\n  0x03\n  dup2\n  mstore\n  0x20\n  add\n  shl(0xe8, 0x4d544b)\n  dup2\n  mstore\n  pop\n    /* \"@openzeppelin/contracts@4.7.3/token/ERC20/ERC20.sol\":2052:2057  name_ */\n  dup2\n    /* \"@openzeppelin/contracts@4.7.3/token/ERC20/ERC20.sol\":2044:2049  _name */\n  0x03\n    /* \"@openzeppelin/contracts@4.7.3/token/ERC20/ERC20.sol\":2044:2057  _name = name_ */\n  swap1\n  dup2\n  tag_7\n  swap2\n  swap1\n  tag_8\n  jump\t// in\ntag_7:\n  pop\n    /* \"@openzeppelin/contracts@4.7.3/token/ERC20/ERC20.sol\":2067:2074  _symbol */\n  0x04\n    /* \"@openzeppelin/contracts@4.7.3/token/ERC20/ERC20.sol\":2067:2084  _symbol = symbol_ */\n  tag_9\n    /* \"@openzeppelin/contracts@4.7.3/token/ERC20/ERC20.sol\":2077:2084  symbol_ */\n  dup3\n    /* \"@openzeppelin/contracts@4.7.3/token/ERC20/ERC20.sol\":2067:2074  _symbol */\n  dup3\n    /* \"@openzeppelin/contracts@4.7.3/token/ERC20/ERC20.sol\":2067:2084  _symbol = symbol_ */\n  tag_8\n  jump\t// in\ntag_9:\n  pop\n  pop\n    /* \"@openzeppelin/contracts@4.7.3/utils/cryptography/draft-EIP712.sol\":2541:2563  keccak256(bytes(name)) */\n  dup3\n  mload\n  0x20\n  dup1\n  dup6\n  add\n  swap2\n  swap1\n  swap2\n  keccak256\n    /* \"@openzeppelin/contracts@4.7.3/utils/cryptography/draft-EIP712.sol\":2597:2622  keccak256(bytes(version)) */\n  dup4\n  mload\n  dup5\n  dup4\n  add\n  keccak256\n    /* \"@openzeppelin/contracts@4.7.3/utils/cryptography/draft-EIP712.sol\":2778:2803  _HASHED_NAME = hashedName */\n  0xe0\n  dup3\n  swap1\n  mstore\n    /* \"@openzeppelin/contracts@4.7.3/utils/cryptography/draft-EIP712.sol\":2813:2844  _HASHED_VERSION = hashedVersion */\n  0x0100\n  dup2\n  swap1\n  mstore\n    /* \"@openzeppelin/contracts@4.7.3/utils/cryptography/draft-EIP712.sol\":2873:2886  block.chainid */\n  chainid\n    /* \"@openzeppelin/contracts@4.7.3/utils/cryptography/draft-EIP712.sol\":2854:2886  _CACHED_CHAIN_ID = block.chainid */\n  0xa0\n  dup2\n  dup2\n  mstore\n  0x40\n    /* \"@openzeppelin/contracts@4.7.3/utils/cryptography/draft-EIP712.sol\":3633:3706  abi.encode(typeHash, nameHash, versionHash, block.chainid, address(this)) */\n  dup1\n  mload\n    /* \"@openzeppelin/contracts@4.7.3/utils/cryptography/draft-EIP712.sol\":2651:2768  keccak256(... */\n  0x8b73c3c69bb8fe3d512ecc4cf759cc79239f7b179b0ffacaa9a75d522b39400f\n    /* \"@openzeppelin/contracts@4.7.3/utils/cryptography/draft-EIP712.sol\":3633:3706  abi.encode(typeHash, nameHash, versionHash, block.chainid, address(this)) */\n  dup2\n  dup9\n  add\n    /* \"#utility.yul\":2994:3019   */\n  dup2\n  swap1\n  mstore\n    /* \"#utility.yul\":3035:3053   */\n  dup2\n  dup4\n  add\n    /* \"#utility.yul\":3028:3062   */\n  dup8\n  swap1\n  mstore\n  0x60\n    /* \"#utility.yul\":3078:3096   */\n  dup3\n  add\n    /* \"#utility.yul\":3071:3105   */\n  dup7\n  swap1\n  mstore\n    /* \"#utility.yul\":3121:3139   */\n  0x80\n  dup3\n  add\n    /* \"#utility.yul\":3114:3148   */\n  swap5\n  swap1\n  swap5\n  mstore\n    /* \"@openzeppelin/contracts@4.7.3/utils/cryptography/draft-EIP712.sol\":3700:3704  this */\n  address\n    /* \"#utility.yul\":3164:3183   */\n  dup2\n  dup5\n  add\n    /* \"#utility.yul\":3157:3218   */\n  mstore\n    /* \"@openzeppelin/contracts@4.7.3/utils/cryptography/draft-EIP712.sol\":3633:3706  abi.encode(typeHash, nameHash, versionHash, block.chainid, address(this)) */\n  dup2\n  mload\n  dup1\n  dup3\n  sub\n  swap1\n  swap4\n  add\n  dup4\n  mstore\n    /* \"#utility.yul\":2966:2985   */\n  0xc0\n  add\n    /* \"@openzeppelin/contracts@4.7.3/utils/cryptography/draft-EIP712.sol\":3633:3706  abi.encode(typeHash, nameHash, versionHash, block.chainid, address(this)) */\n  swap1\n  mstore\n    /* \"@openzeppelin/contracts@4.7.3/utils/cryptography/draft-EIP712.sol\":3623:3707  keccak256(abi.encode(typeHash, nameHash, versionHash, block.chainid, address(this))) */\n  dup1\n  mload\n  swap5\n  add\n  swap4\n  swap1\n  swap4\n  keccak256\n    /* \"@openzeppelin/contracts@4.7.3/utils/cryptography/draft-EIP712.sol\":2541:2563  keccak256(bytes(name)) */\n  swap2\n  swap4\n  pop\n    /* \"@openzeppelin/contracts@4.7.3/utils/cryptography/draft-EIP712.sol\":2597:2622  keccak256(bytes(version)) */\n  swap2\n    /* \"@openzeppelin/contracts@4.7.3/utils/cryptography/draft-EIP712.sol\":2651:2768  keccak256(... */\n  swap1\n    /* \"@openzeppelin/contracts@4.7.3/utils/cryptography/draft-EIP712.sol\":2896:2981  _CACHED_DOMAIN_SEPARATOR = _buildDomainSeparator(typeHash, hashedName, hashedVersion) */\n  0x80\n  mstore\n    /* \"@openzeppelin/contracts@4.7.3/utils/cryptography/draft-EIP712.sol\":3014:3018  this */\n  address\n    /* \"@openzeppelin/contracts@4.7.3/utils/cryptography/draft-EIP712.sol\":2991:3019  _CACHED_THIS = address(this) */\n  0xc0\n  mstore\n    /* \"@openzeppelin/contracts@4.7.3/utils/cryptography/draft-EIP712.sol\":3029:3050  _TYPE_HASH = typeHash */\n  0x0120\n  mstore\n  pop\n    /* \"P2PLending.sol\":205:1617  contract MyToken is ERC20, ERC20Permit {... */\n  tag_24\n  swap4\n  pop\n  pop\n  pop\n  pop\n  jump\n    /* \"#utility.yul\":14:141   */\ntag_19:\n    /* \"#utility.yul\":75:85   */\n  0x4e487b71\n    /* \"#utility.yul\":70:73   */\n  0xe0\n    /* \"#utility.yul\":66:86   */\n  shl\n    /* \"#utility.yul\":63:64   */\n  0x00\n    /* \"#utility.yul\":56:87   */\n  mstore\n    /* \"#utility.yul\":106:110   */\n  0x41\n    /* \"#utility.yul\":103:104   */\n  0x04\n    /* \"#utility.yul\":96:111   */\n  mstore\n    /* \"#utility.yul\":130:134   */\n  0x24\n    /* \"#utility.yul\":127:128   */\n  0x00\n    /* \"#utility.yul\":120:135   */\n  revert\n    /* \"#utility.yul\":146:526   */\ntag_20:\n    /* \"#utility.yul\":225:226   */\n  0x01\n    /* \"#utility.yul\":221:233   */\n  dup2\n  dup2\n  shr\n  swap1\n    /* \"#utility.yul\":268:280   */\n  dup3\n  and\n  dup1\n    /* \"#utility.yul\":289:350   */\n  tag_27\n  jumpi\n    /* \"#utility.yul\":343:347   */\n  0x7f\n    /* \"#utility.yul\":335:341   */\n  dup3\n    /* \"#utility.yul\":331:348   */\n  and\n    /* \"#utility.yul\":321:348   */\n  swap2\n  pop\n    /* \"#utility.yul\":289:350   */\ntag_27:\n    /* \"#utility.yul\":396:398   */\n  0x20\n    /* \"#utility.yul\":388:394   */\n  dup3\n    /* \"#utility.yul\":385:399   */\n  lt\n    /* \"#utility.yul\":365:383   */\n  dup2\n    /* \"#utility.yul\":362:400   */\n  sub\n    /* \"#utility.yul\":359:520   */\n  tag_28\n  jumpi\n    /* \"#utility.yul\":442:452   */\n  0x4e487b71\n    /* \"#utility.yul\":437:440   */\n  0xe0\n    /* \"#utility.yul\":433:453   */\n  shl\n    /* \"#utility.yul\":430:431   */\n  0x00\n    /* \"#utility.yul\":423:454   */\n  mstore\n    /* \"#utility.yul\":477:481   */\n  0x22\n    /* \"#utility.yul\":474:475   */\n  0x04\n    /* \"#utility.yul\":467:482   */\n  mstore\n    /* \"#utility.yul\":505:509   */\n  0x24\n    /* \"#utility.yul\":502:503   */\n  0x00\n    /* \"#utility.yul\":495:510   */\n  revert\n    /* \"#utility.yul\":359:520   */\ntag_28:\n  pop\n    /* \"#utility.yul\":146:526   */\n  swap2\n  swap1\n  pop\n  jump\t// out\n    /* \"#utility.yul\":657:1202   */\ntag_22:\n    /* \"#utility.yul\":759:761   */\n  0x1f\n    /* \"#utility.yul\":754:757   */\n  dup3\n    /* \"#utility.yul\":751:762   */\n  gt\n    /* \"#utility.yul\":748:1196   */\n  iszero\n  tag_31\n  jumpi\n    /* \"#utility.yul\":795:796   */\n  0x00\n    /* \"#utility.yul\":820:825   */\n  dup2\n    /* \"#utility.yul\":816:818   */\n  dup2\n    /* \"#utility.yul\":809:826   */\n  mstore\n    /* \"#utility.yul\":865:869   */\n  0x20\n    /* \"#utility.yul\":861:863   */\n  dup2\n    /* \"#utility.yul\":851:870   */\n  keccak256\n    /* \"#utility.yul\":935:937   */\n  0x1f\n    /* \"#utility.yul\":923:933   */\n  dup6\n    /* \"#utility.yul\":919:938   */\n  add\n    /* \"#utility.yul\":916:917   */\n  0x05\n    /* \"#utility.yul\":912:939   */\n  shr\n    /* \"#utility.yul\":906:910   */\n  dup2\n    /* \"#utility.yul\":902:940   */\n  add\n    /* \"#utility.yul\":971:975   */\n  0x20\n    /* \"#utility.yul\":959:969   */\n  dup7\n    /* \"#utility.yul\":956:976   */\n  lt\n    /* \"#utility.yul\":953:1000   */\n  iszero\n  tag_32\n  jumpi\n  pop\n    /* \"#utility.yul\":994:998   */\n  dup1\n    /* \"#utility.yul\":953:1000   */\ntag_32:\n    /* \"#utility.yul\":1049:1051   */\n  0x1f\n    /* \"#utility.yul\":1044:1047   */\n  dup6\n    /* \"#utility.yul\":1040:1052   */\n  add\n    /* \"#utility.yul\":1037:1038   */\n  0x05\n    /* \"#utility.yul\":1033:1053   */\n  shr\n    /* \"#utility.yul\":1027:1031   */\n  dup3\n    /* \"#utility.yul\":1023:1054   */\n  add\n    /* \"#utility.yul\":1013:1054   */\n  swap2\n  pop\n    /* \"#utility.yul\":1104:1186   */\ntag_33:\n    /* \"#utility.yul\":1122:1124   */\n  dup2\n    /* \"#utility.yul\":1115:1120   */\n  dup2\n    /* \"#utility.yul\":1112:1125   */\n  lt\n    /* \"#utility.yul\":1104:1186   */\n  iszero\n  tag_35\n  jumpi\n    /* \"#utility.yul\":1167:1184   */\n  dup3\n  dup2\n  sstore\n    /* \"#utility.yul\":1148:1149   */\n  0x01\n    /* \"#utility.yul\":1137:1150   */\n  add\n    /* \"#utility.yul\":1104:1186   */\n  jump(tag_33)\ntag_35:\n    /* \"#utility.yul\":1108:1111   */\n  pop\n  pop\n  pop\n    /* \"#utility.yul\":748:1196   */\ntag_31:\n    /* \"#utility.yul\":657:1202   */\n  pop\n  pop\n  pop\n  jump\t// out\n    /* \"#utility.yul\":1378:2730   */\ntag_8:\n    /* \"#utility.yul\":1498:1508   */\n  dup2\n  mload\n  sub(shl(0x40, 0x01), 0x01)\n    /* \"#utility.yul\":1520:1550   */\n  dup2\n  gt\n    /* \"#utility.yul\":1517:1573   */\n  iszero\n  tag_39\n  jumpi\n    /* \"#utility.yul\":1553:1571   */\n  tag_39\n  tag_19\n  jump\t// in\ntag_39:\n    /* \"#utility.yul\":1582:1679   */\n  tag_40\n    /* \"#utility.yul\":1672:1678   */\n  dup2\n    /* \"#utility.yul\":1632:1670   */\n  tag_41\n    /* \"#utility.yul\":1664:1668   */\n  dup5\n    /* \"#utility.yul\":1658:1669   */\n  sload\n    /* \"#utility.yul\":1632:1670   */\n  tag_20\n  jump\t// in\ntag_41:\n    /* \"#utility.yul\":1626:1630   */\n  dup5\n    /* \"#utility.yul\":1582:1679   */\n  tag_22\n  jump\t// in\ntag_40:\n    /* \"#utility.yul\":1734:1738   */\n  0x20\n  dup1\n    /* \"#utility.yul\":1798:1800   */\n  0x1f\n    /* \"#utility.yul\":1787:1801   */\n  dup4\n  gt\n    /* \"#utility.yul\":1815:1816   */\n  0x01\n    /* \"#utility.yul\":1810:2473   */\n  dup2\n  eq\n  tag_43\n  jumpi\n    /* \"#utility.yul\":2517:2518   */\n  0x00\n    /* \"#utility.yul\":2534:2540   */\n  dup5\n    /* \"#utility.yul\":2531:2620   */\n  iszero\n  tag_44\n  jumpi\n  pop\n    /* \"#utility.yul\":2586:2605   */\n  dup6\n  dup4\n  add\n    /* \"#utility.yul\":2580:2606   */\n  mload\n    /* \"#utility.yul\":2531:2620   */\ntag_44:\n  not(0x00)\n    /* \"#utility.yul\":1335:1336   */\n  0x03\n    /* \"#utility.yul\":1331:1342   */\n  dup7\n  swap1\n  shl\n    /* \"#utility.yul\":1327:1351   */\n  shr\n    /* \"#utility.yul\":1323:1352   */\n  not\n    /* \"#utility.yul\":1313:1353   */\n  and\n    /* \"#utility.yul\":1359:1360   */\n  0x01\n    /* \"#utility.yul\":1355:1366   */\n  dup6\n  swap1\n  shl\n    /* \"#utility.yul\":1310:1367   */\n  or\n    /* \"#utility.yul\":2633:2714   */\n  dup6\n  sstore\n    /* \"#utility.yul\":1780:2724   */\n  jump(tag_35)\n    /* \"#utility.yul\":1810:2473   */\ntag_43:\n    /* \"#utility.yul\":604:605   */\n  0x00\n    /* \"#utility.yul\":597:611   */\n  dup6\n  dup2\n  mstore\n    /* \"#utility.yul\":641:645   */\n  0x20\n    /* \"#utility.yul\":628:646   */\n  dup2\n  keccak256\n  not(0x1f)\n    /* \"#utility.yul\":1846:1866   */\n  dup7\n  and\n  swap2\n    /* \"#utility.yul\":1964:2200   */\ntag_47:\n    /* \"#utility.yul\":1978:1985   */\n  dup3\n    /* \"#utility.yul\":1975:1976   */\n  dup2\n    /* \"#utility.yul\":1972:1986   */\n  lt\n    /* \"#utility.yul\":1964:2200   */\n  iszero\n  tag_49\n  jumpi\n    /* \"#utility.yul\":2067:2086   */\n  dup9\n  dup7\n  add\n    /* \"#utility.yul\":2061:2087   */\n  mload\n    /* \"#utility.yul\":2046:2088   */\n  dup3\n  sstore\n    /* \"#utility.yul\":2159:2186   */\n  swap5\n  dup5\n  add\n  swap5\n    /* \"#utility.yul\":2127:2128   */\n  0x01\n    /* \"#utility.yul\":2115:2129   */\n  swap1\n  swap2\n  add\n  swap1\n    /* \"#utility.yul\":1994:2013   */\n  dup5\n  add\n    /* \"#utility.yul\":1964:2200   */\n  jump(tag_47)\ntag_49:\n    /* \"#utility.yul\":1968:1971   */\n  pop\n    /* \"#utility.yul\":2228:2234   */\n  dup6\n    /* \"#utility.yul\":2219:2226   */\n  dup3\n    /* \"#utility.yul\":2216:2235   */\n  lt\n    /* \"#utility.yul\":2213:2414   */\n  iszero\n  tag_50\n  jumpi\n    /* \"#utility.yul\":2289:2308   */\n  dup8\n  dup6\n  add\n    /* \"#utility.yul\":2283:2309   */\n  mload\n  not(0x00)\n    /* \"#utility.yul\":2372:2373   */\n  0x03\n    /* \"#utility.yul\":2368:2382   */\n  dup9\n  swap1\n  shl\n    /* \"#utility.yul\":2384:2387   */\n  0xf8\n    /* \"#utility.yul\":2364:2388   */\n  and\n    /* \"#utility.yul\":2360:2397   */\n  shr\n    /* \"#utility.yul\":2356:2398   */\n  not\n    /* \"#utility.yul\":2341:2399   */\n  and\n    /* \"#utility.yul\":2326:2400   */\n  dup2\n  sstore\n    /* \"#utility.yul\":2213:2414   */\ntag_50:\n  pop\n  pop\n  pop\n  pop\n  pop\n    /* \"#utility.yul\":2460:2461   */\n  0x01\n    /* \"#utility.yul\":2444:2458   */\n  swap1\n  dup2\n  shl\n    /* \"#utility.yul\":2440:2462   */\n  add\n    /* \"#utility.yul\":2427:2463   */\n  swap1\n  sstore\n  pop\n    /* \"#utility.yul\":1378:2730   */\n  jump\t// out\n    /* \"#utility.yul\":2735:3224   */\ntag_24:\n    /* \"P2PLending.sol\":205:1617  contract MyToken is ERC20, ERC20Permit {... */\n  mload(0x80)\n  mload(0xa0)\n  mload(0xc0)\n  mload(0xe0)\n  mload(0x0100)\n  mload(0x0120)\n  codecopy(0x00, dataOffset(sub_0), dataSize(sub_0))\n  0x00\n  assignImmutable(\"0xbb18ebaa1cddf829bcac2337ea2baf9a257d86fba8ce2baebe40d33d4470291e\")\n  0x00\n  assignImmutable(\"0x3ab4fb69c8e122442af87ae588015f836e7cde3029bbb6dab1983bc840231d63\")\n  0x00\n  assignImmutable(\"0x4f4ac30ff8bfcef8cd1068d1427faf7fb52fa3a1610b1f430e1f69a91ebb9673\")\n  0x00\n  assignImmutable(\"0x029f4bc6ebbac7821b38f11e82c50ce2b63772f63b6ad2c35af4c148b2c4bad3\")\n  0x00\n  assignImmutable(\"0x79ede0e1d4663a040c0927e7555c0aa914d60646b0bd94798f4654567b709b95\")\n  0x00\n  assignImmutable(\"0x287b91f0b101ece3728dd9f02ea2865cf4f06b72e55fc122f67e14412d5d078c\")\n  return(0x00, dataSize(sub_0))\nstop\n\nsub_0: assembly {\n        /* \"P2PLending.sol\":205:1617  contract MyToken is ERC20, ERC20Permit {... */\n      mstore(0x40, 0x80)\n      callvalue\n      dup1\n      iszero\n      tag_1\n      jumpi\n      0x00\n      dup1\n      revert\n    tag_1:\n      pop\n      jumpi(tag_2, lt(calldatasize, 0x04))\n      shr(0xe0, calldataload(0x00))\n      dup1\n      0x7ecebe00\n      gt\n      tag_24\n      jumpi\n      dup1\n      0xb4b05958\n      gt\n      tag_25\n      jumpi\n      dup1\n      0xb4b05958\n      eq\n      tag_18\n      jumpi\n      dup1\n      0xce2e08e5\n      eq\n      tag_19\n      jumpi\n      dup1\n      0xd1003ed4\n      eq\n      tag_20\n      jumpi\n      dup1\n      0xd505accf\n      eq\n      tag_21\n      jumpi\n      dup1\n      0xdb673035\n      eq\n      tag_22\n      jumpi\n      dup1\n      0xdd62ed3e\n      eq\n      tag_23\n      jumpi\n      0x00\n      dup1\n      revert\n    tag_25:\n      dup1\n      0x7ecebe00\n      eq\n      tag_13\n      jumpi\n      dup1\n      0x948adb8f\n      eq\n      tag_14\n      jumpi\n      dup1\n      0x95d89b41\n      eq\n      tag_15\n      jumpi\n      dup1\n      0xa457c2d7\n      eq\n      tag_16\n      jumpi\n      dup1\n      0xa9059cbb\n      eq\n      tag_17\n      jumpi\n      0x00\n      dup1\n      revert\n    tag_24:\n      dup1\n      0x3644e515\n      gt\n      tag_26\n      jumpi\n      dup1\n      0x3644e515\n      eq\n      tag_8\n      jumpi\n      dup1\n      0x39509351\n      eq\n      tag_9\n      jumpi\n      dup1\n      0x3b4c0c07\n      eq\n      tag_10\n      jumpi\n      dup1\n      0x40c10f19\n      eq\n      tag_11\n      jumpi\n      dup1\n      0x70a08231\n      eq\n      tag_12\n      jumpi\n      0x00\n      dup1\n      revert\n    tag_26:\n      dup1\n      0x06fdde03\n      eq\n      tag_3\n      jumpi\n      dup1\n      0x095ea7b3\n      eq\n      tag_4\n      jumpi\n      dup1\n      0x18160ddd\n      eq\n      tag_5\n      jumpi\n      dup1\n      0x23b872dd\n      eq\n      tag_6\n      jumpi\n      dup1\n      0x313ce567\n      eq\n      tag_7\n      jumpi\n    tag_2:\n      0x00\n      dup1\n      revert\n        /* \"@openzeppelin/contracts@4.7.3/token/ERC20/ERC20.sol\":2156:2254  function name() public view virtual override returns (string memory) {... */\n    tag_3:\n      tag_27\n      tag_28\n      jump\t// in\n    tag_27:\n      mload(0x40)\n      tag_29\n      swap2\n      swap1\n      tag_30\n      jump\t// in\n    tag_29:\n      mload(0x40)\n      dup1\n      swap2\n      sub\n      swap1\n      return\n        /* \"@openzeppelin/contracts@4.7.3/token/ERC20/ERC20.sol\":4433:4630  function approve(address spender, uint256 amount) public virtual override returns (bool) {... */\n    tag_4:\n      tag_31\n      tag_32\n      calldatasize\n      0x04\n      tag_33\n      jump\t// in\n    tag_32:\n      tag_34\n      jump\t// in\n    tag_31:\n      mload(0x40)\n        /* \"#utility.yul\":1169:1183   */\n      swap1\n      iszero\n        /* \"#utility.yul\":1162:1184   */\n      iszero\n        /* \"#utility.yul\":1144:1185   */\n      dup2\n      mstore\n        /* \"#utility.yul\":1132:1134   */\n      0x20\n        /* \"#utility.yul\":1117:1135   */\n      add\n        /* \"@openzeppelin/contracts@4.7.3/token/ERC20/ERC20.sol\":4433:4630  function approve(address spender, uint256 amount) public virtual override returns (bool) {... */\n      tag_29\n        /* \"#utility.yul\":1004:1191   */\n      jump\n        /* \"@openzeppelin/contracts@4.7.3/token/ERC20/ERC20.sol\":3244:3350  function totalSupply() public view virtual override returns (uint256) {... */\n    tag_5:\n        /* \"@openzeppelin/contracts@4.7.3/token/ERC20/ERC20.sol\":3331:3343  _totalSupply */\n      sload(0x02)\n        /* \"@openzeppelin/contracts@4.7.3/token/ERC20/ERC20.sol\":3244:3350  function totalSupply() public view virtual override returns (uint256) {... */\n    tag_37:\n      mload(0x40)\n        /* \"#utility.yul\":1342:1367   */\n      swap1\n      dup2\n      mstore\n        /* \"#utility.yul\":1330:1332   */\n      0x20\n        /* \"#utility.yul\":1315:1333   */\n      add\n        /* \"@openzeppelin/contracts@4.7.3/token/ERC20/ERC20.sol\":3244:3350  function totalSupply() public view virtual override returns (uint256) {... */\n      tag_29\n        /* \"#utility.yul\":1196:1373   */\n      jump\n        /* \"@openzeppelin/contracts@4.7.3/token/ERC20/ERC20.sol\":5192:5478  function transferFrom(... */\n    tag_6:\n      tag_31\n      tag_42\n      calldatasize\n      0x04\n      tag_43\n      jump\t// in\n    tag_42:\n      tag_44\n      jump\t// in\n        /* \"@openzeppelin/contracts@4.7.3/token/ERC20/ERC20.sol\":3093:3184  function decimals() public view virtual override returns (uint8) {... */\n    tag_7:\n      mload(0x40)\n        /* \"@openzeppelin/contracts@4.7.3/token/ERC20/ERC20.sol\":3175:3177  18 */\n      0x12\n        /* \"#utility.yul\":1853:1889   */\n      dup2\n      mstore\n        /* \"#utility.yul\":1841:1843   */\n      0x20\n        /* \"#utility.yul\":1826:1844   */\n      add\n        /* \"@openzeppelin/contracts@4.7.3/token/ERC20/ERC20.sol\":3093:3184  function decimals() public view virtual override returns (uint8) {... */\n      tag_29\n        /* \"#utility.yul\":1711:1895   */\n      jump\n        /* \"@openzeppelin/contracts@4.7.3/token/ERC20/extensions/draft-ERC20Permit.sol\":2885:2998  function DOMAIN_SEPARATOR() external view override returns (bytes32) {... */\n    tag_8:\n      tag_37\n      tag_51\n      jump\t// in\n        /* \"@openzeppelin/contracts@4.7.3/token/ERC20/ERC20.sol\":5873:6107  function increaseAllowance(address spender, uint256 addedValue) public virtual returns (bool) {... */\n    tag_9:\n      tag_31\n      tag_55\n      calldatasize\n      0x04\n      tag_33\n      jump\t// in\n    tag_55:\n      tag_56\n      jump\t// in\n        /* \"P2PLending.sol\":958:1081  function transfertoContract(address _from, uint _amount) external {... */\n    tag_10:\n      tag_58\n      tag_59\n      calldatasize\n      0x04\n      tag_33\n      jump\t// in\n    tag_59:\n      tag_60\n      jump\t// in\n    tag_58:\n      stop\n        /* \"P2PLending.sol\":869:952  function mint(address to, uint256 value) external {... */\n    tag_11:\n      tag_58\n      tag_62\n      calldatasize\n      0x04\n      tag_33\n      jump\t// in\n    tag_62:\n      tag_63\n      jump\t// in\n        /* \"@openzeppelin/contracts@4.7.3/token/ERC20/ERC20.sol\":3408:3533  function balanceOf(address account) public view virtual override returns (uint256) {... */\n    tag_12:\n      tag_37\n      tag_65\n      calldatasize\n      0x04\n      tag_66\n      jump\t// in\n    tag_65:\n      sub(shl(0xa0, 0x01), 0x01)\n        /* \"@openzeppelin/contracts@4.7.3/token/ERC20/ERC20.sol\":3508:3526  _balances[account] */\n      and\n        /* \"@openzeppelin/contracts@4.7.3/token/ERC20/ERC20.sol\":3482:3489  uint256 */\n      0x00\n        /* \"@openzeppelin/contracts@4.7.3/token/ERC20/ERC20.sol\":3508:3526  _balances[account] */\n      swap1\n      dup2\n      mstore\n      0x20\n      dup2\n      swap1\n      mstore\n      0x40\n      swap1\n      keccak256\n      sload\n      swap1\n        /* \"@openzeppelin/contracts@4.7.3/token/ERC20/ERC20.sol\":3408:3533  function balanceOf(address account) public view virtual override returns (uint256) {... */\n      jump\n        /* \"@openzeppelin/contracts@4.7.3/token/ERC20/extensions/draft-ERC20Permit.sol\":2635:2761  function nonces(address owner) public view virtual override returns (uint256) {... */\n    tag_13:\n      tag_37\n      tag_70\n      calldatasize\n      0x04\n      tag_66\n      jump\t// in\n    tag_70:\n      tag_71\n      jump\t// in\n        /* \"P2PLending.sol\":421:467  mapping(address => uint) public borrowedAmount */\n    tag_14:\n      tag_37\n      tag_74\n      calldatasize\n      0x04\n      tag_66\n      jump\t// in\n    tag_74:\n      mstore(0x20, 0x09)\n      0x00\n      swap1\n      dup2\n      mstore\n      0x40\n      swap1\n      keccak256\n      sload\n      dup2\n      jump\n        /* \"@openzeppelin/contracts@4.7.3/token/ERC20/ERC20.sol\":2367:2469  function symbol() public view virtual override returns (string memory) {... */\n    tag_15:\n      tag_27\n      tag_78\n      jump\t// in\n        /* \"@openzeppelin/contracts@4.7.3/token/ERC20/ERC20.sol\":6594:7021  function decreaseAllowance(address spender, uint256 subtractedValue) public virtual returns (bool) {... */\n    tag_16:\n      tag_31\n      tag_81\n      calldatasize\n      0x04\n      tag_33\n      jump\t// in\n    tag_81:\n      tag_82\n      jump\t// in\n        /* \"@openzeppelin/contracts@4.7.3/token/ERC20/ERC20.sol\":3729:3918  function transfer(address to, uint256 amount) public virtual override returns (bool) {... */\n    tag_17:\n      tag_31\n      tag_85\n      calldatasize\n      0x04\n      tag_33\n      jump\t// in\n    tag_85:\n      tag_86\n      jump\t// in\n        /* \"P2PLending.sol\":370:415  mapping (address => uint) public lendedAmount */\n    tag_18:\n      tag_37\n      tag_89\n      calldatasize\n      0x04\n      tag_66\n      jump\t// in\n    tag_89:\n      mstore(0x20, 0x08)\n      0x00\n      swap1\n      dup2\n      mstore\n      0x40\n      swap1\n      keccak256\n      sload\n      dup2\n      jump\n        /* \"P2PLending.sol\":1087:1615  function transferToAddr(address _from, address _to, uint _amount) external {... */\n    tag_19:\n      tag_58\n      tag_93\n      calldatasize\n      0x04\n      tag_43\n      jump\t// in\n    tag_93:\n      tag_94\n      jump\t// in\n        /* \"P2PLending.sol\":474:677  function RegisterLender(uint _amount, uint _deadline, uint8 _v, bytes32 _r, bytes32 _s) public returns (bool) {... */\n    tag_20:\n      tag_31\n      tag_96\n      calldatasize\n      0x04\n      tag_97\n      jump\t// in\n    tag_96:\n      tag_98\n      jump\t// in\n        /* \"@openzeppelin/contracts@4.7.3/token/ERC20/extensions/draft-ERC20Permit.sol\":1948:2574  function permit(... */\n    tag_21:\n      tag_58\n      tag_101\n      calldatasize\n      0x04\n      tag_102\n      jump\t// in\n    tag_101:\n      tag_103\n      jump\t// in\n        /* \"P2PLending.sol\":685:863  function testTransfer(address _from, address _to, uint _amount) public {... */\n    tag_22:\n      tag_58\n      tag_105\n      calldatasize\n      0x04\n      tag_43\n      jump\t// in\n    tag_105:\n      tag_106\n      jump\t// in\n        /* \"@openzeppelin/contracts@4.7.3/token/ERC20/ERC20.sol\":3976:4125  function allowance(address owner, address spender) public view virtual override returns (uint256) {... */\n    tag_23:\n      tag_37\n      tag_108\n      calldatasize\n      0x04\n      tag_109\n      jump\t// in\n    tag_108:\n      tag_110\n      jump\t// in\n        /* \"@openzeppelin/contracts@4.7.3/token/ERC20/ERC20.sol\":2156:2254  function name() public view virtual override returns (string memory) {... */\n    tag_28:\n        /* \"@openzeppelin/contracts@4.7.3/token/ERC20/ERC20.sol\":2210:2223  string memory */\n      0x60\n        /* \"@openzeppelin/contracts@4.7.3/token/ERC20/ERC20.sol\":2242:2247  _name */\n      0x03\n        /* \"@openzeppelin/contracts@4.7.3/token/ERC20/ERC20.sol\":2235:2247  return _name */\n      dup1\n      sload\n      tag_113\n      swap1\n      tag_114\n      jump\t// in\n    tag_113:\n      dup1\n      0x1f\n      add\n      0x20\n      dup1\n      swap2\n      div\n      mul\n      0x20\n      add\n      mload(0x40)\n      swap1\n      dup2\n      add\n      0x40\n      mstore\n      dup1\n      swap3\n      swap2\n      swap1\n      dup2\n      dup2\n      mstore\n      0x20\n      add\n      dup3\n      dup1\n      sload\n      tag_115\n      swap1\n      tag_114\n      jump\t// in\n    tag_115:\n      dup1\n      iszero\n      tag_116\n      jumpi\n      dup1\n      0x1f\n      lt\n      tag_117\n      jumpi\n      0x0100\n      dup1\n      dup4\n      sload\n      div\n      mul\n      dup4\n      mstore\n      swap2\n      0x20\n      add\n      swap2\n      jump(tag_116)\n    tag_117:\n      dup3\n      add\n      swap2\n      swap1\n      0x00\n      mstore\n      keccak256(0x00, 0x20)\n      swap1\n    tag_118:\n      dup2\n      sload\n      dup2\n      mstore\n      swap1\n      0x01\n      add\n      swap1\n      0x20\n      add\n      dup1\n      dup4\n      gt\n      tag_118\n      jumpi\n      dup3\n      swap1\n      sub\n      0x1f\n      and\n      dup3\n      add\n      swap2\n    tag_116:\n      pop\n      pop\n      pop\n      pop\n      pop\n      swap1\n      pop\n        /* \"@openzeppelin/contracts@4.7.3/token/ERC20/ERC20.sol\":2156:2254  function name() public view virtual override returns (string memory) {... */\n      swap1\n      jump\t// out\n        /* \"@openzeppelin/contracts@4.7.3/token/ERC20/ERC20.sol\":4433:4630  function approve(address spender, uint256 amount) public virtual override returns (bool) {... */\n    tag_34:\n        /* \"@openzeppelin/contracts@4.7.3/token/ERC20/ERC20.sol\":4516:4520  bool */\n      0x00\n        /* \"@openzeppelin/contracts@4.7.3/utils/Context.sol\":719:729  msg.sender */\n      caller\n        /* \"@openzeppelin/contracts@4.7.3/token/ERC20/ERC20.sol\":4570:4602  _approve(owner, spender, amount) */\n      tag_122\n        /* \"@openzeppelin/contracts@4.7.3/utils/Context.sol\":719:729  msg.sender */\n      dup2\n        /* \"@openzeppelin/contracts@4.7.3/token/ERC20/ERC20.sol\":4586:4593  spender */\n      dup6\n        /* \"@openzeppelin/contracts@4.7.3/token/ERC20/ERC20.sol\":4595:4601  amount */\n      dup6\n        /* \"@openzeppelin/contracts@4.7.3/token/ERC20/ERC20.sol\":4570:4578  _approve */\n      tag_123\n        /* \"@openzeppelin/contracts@4.7.3/token/ERC20/ERC20.sol\":4570:4602  _approve(owner, spender, amount) */\n      jump\t// in\n    tag_122:\n        /* \"@openzeppelin/contracts@4.7.3/token/ERC20/ERC20.sol\":4619:4623  true */\n      0x01\n        /* \"@openzeppelin/contracts@4.7.3/token/ERC20/ERC20.sol\":4612:4623  return true */\n      swap2\n      pop\n      pop\n        /* \"@openzeppelin/contracts@4.7.3/token/ERC20/ERC20.sol\":4433:4630  function approve(address spender, uint256 amount) public virtual override returns (bool) {... */\n    tag_119:\n      swap3\n      swap2\n      pop\n      pop\n      jump\t// out\n        /* \"@openzeppelin/contracts@4.7.3/token/ERC20/ERC20.sol\":5192:5478  function transferFrom(... */\n    tag_44:\n        /* \"@openzeppelin/contracts@4.7.3/token/ERC20/ERC20.sol\":5319:5323  bool */\n      0x00\n        /* \"@openzeppelin/contracts@4.7.3/utils/Context.sol\":719:729  msg.sender */\n      caller\n        /* \"@openzeppelin/contracts@4.7.3/token/ERC20/ERC20.sol\":5375:5413  _spendAllowance(from, spender, amount) */\n      tag_127\n        /* \"@openzeppelin/contracts@4.7.3/token/ERC20/ERC20.sol\":5391:5395  from */\n      dup6\n        /* \"@openzeppelin/contracts@4.7.3/utils/Context.sol\":719:729  msg.sender */\n      dup3\n        /* \"@openzeppelin/contracts@4.7.3/token/ERC20/ERC20.sol\":5406:5412  amount */\n      dup6\n        /* \"@openzeppelin/contracts@4.7.3/token/ERC20/ERC20.sol\":5375:5390  _spendAllowance */\n      tag_128\n        /* \"@openzeppelin/contracts@4.7.3/token/ERC20/ERC20.sol\":5375:5413  _spendAllowance(from, spender, amount) */\n      jump\t// in\n    tag_127:\n        /* \"@openzeppelin/contracts@4.7.3/token/ERC20/ERC20.sol\":5423:5450  _transfer(from, to, amount) */\n      tag_129\n        /* \"@openzeppelin/contracts@4.7.3/token/ERC20/ERC20.sol\":5433:5437  from */\n      dup6\n        /* \"@openzeppelin/contracts@4.7.3/token/ERC20/ERC20.sol\":5439:5441  to */\n      dup6\n        /* \"@openzeppelin/contracts@4.7.3/token/ERC20/ERC20.sol\":5443:5449  amount */\n      dup6\n        /* \"@openzeppelin/contracts@4.7.3/token/ERC20/ERC20.sol\":5423:5432  _transfer */\n      tag_130\n        /* \"@openzeppelin/contracts@4.7.3/token/ERC20/ERC20.sol\":5423:5450  _transfer(from, to, amount) */\n      jump\t// in\n    tag_129:\n      pop\n        /* \"@openzeppelin/contracts@4.7.3/token/ERC20/ERC20.sol\":5467:5471  true */\n      0x01\n      swap5\n        /* \"@openzeppelin/contracts@4.7.3/token/ERC20/ERC20.sol\":5192:5478  function transferFrom(... */\n      swap4\n      pop\n      pop\n      pop\n      pop\n      jump\t// out\n        /* \"@openzeppelin/contracts@4.7.3/token/ERC20/extensions/draft-ERC20Permit.sol\":2885:2998  function DOMAIN_SEPARATOR() external view override returns (bytes32) {... */\n    tag_51:\n        /* \"@openzeppelin/contracts@4.7.3/token/ERC20/extensions/draft-ERC20Permit.sol\":2945:2952  bytes32 */\n      0x00\n        /* \"@openzeppelin/contracts@4.7.3/token/ERC20/extensions/draft-ERC20Permit.sol\":2971:2991  _domainSeparatorV4() */\n      tag_133\n        /* \"@openzeppelin/contracts@4.7.3/token/ERC20/extensions/draft-ERC20Permit.sol\":2971:2989  _domainSeparatorV4 */\n      tag_134\n        /* \"@openzeppelin/contracts@4.7.3/token/ERC20/extensions/draft-ERC20Permit.sol\":2971:2991  _domainSeparatorV4() */\n      jump\t// in\n    tag_133:\n        /* \"@openzeppelin/contracts@4.7.3/token/ERC20/extensions/draft-ERC20Permit.sol\":2964:2991  return _domainSeparatorV4() */\n      swap1\n      pop\n        /* \"@openzeppelin/contracts@4.7.3/token/ERC20/extensions/draft-ERC20Permit.sol\":2885:2998  function DOMAIN_SEPARATOR() external view override returns (bytes32) {... */\n      swap1\n      jump\t// out\n        /* \"@openzeppelin/contracts@4.7.3/token/ERC20/ERC20.sol\":5873:6107  function increaseAllowance(address spender, uint256 addedValue) public virtual returns (bool) {... */\n    tag_56:\n        /* \"@openzeppelin/contracts@4.7.3/token/ERC20/ERC20.sol\":5961:5965  bool */\n      0x00\n        /* \"@openzeppelin/contracts@4.7.3/utils/Context.sol\":719:729  msg.sender */\n      caller\n        /* \"@openzeppelin/contracts@4.7.3/token/ERC20/ERC20.sol\":6015:6079  _approve(owner, spender, allowance(owner, spender) + addedValue) */\n      tag_122\n        /* \"@openzeppelin/contracts@4.7.3/utils/Context.sol\":719:729  msg.sender */\n      dup2\n        /* \"@openzeppelin/contracts@4.7.3/token/ERC20/ERC20.sol\":6031:6038  spender */\n      dup6\n        /* \"@openzeppelin/contracts@4.7.3/token/ERC20/ERC20.sol\":6068:6078  addedValue */\n      dup6\n        /* \"@openzeppelin/contracts@4.7.3/token/ERC20/ERC20.sol\":6040:6065  allowance(owner, spender) */\n      tag_138\n        /* \"@openzeppelin/contracts@4.7.3/utils/Context.sol\":719:729  msg.sender */\n      dup4\n        /* \"@openzeppelin/contracts@4.7.3/token/ERC20/ERC20.sol\":6031:6038  spender */\n      dup4\n        /* \"@openzeppelin/contracts@4.7.3/token/ERC20/ERC20.sol\":6040:6049  allowance */\n      tag_110\n        /* \"@openzeppelin/contracts@4.7.3/token/ERC20/ERC20.sol\":6040:6065  allowance(owner, spender) */\n      jump\t// in\n    tag_138:\n        /* \"@openzeppelin/contracts@4.7.3/token/ERC20/ERC20.sol\":6040:6078  allowance(owner, spender) + addedValue */\n      tag_139\n      swap2\n      swap1\n      tag_140\n      jump\t// in\n    tag_139:\n        /* \"@openzeppelin/contracts@4.7.3/token/ERC20/ERC20.sol\":6015:6023  _approve */\n      tag_123\n        /* \"@openzeppelin/contracts@4.7.3/token/ERC20/ERC20.sol\":6015:6079  _approve(owner, spender, allowance(owner, spender) + addedValue) */\n      jump\t// in\n        /* \"P2PLending.sol\":958:1081  function transfertoContract(address _from, uint _amount) external {... */\n    tag_60:\n        /* \"P2PLending.sol\":1034:1074  _transfer(_from, address(this), _amount) */\n      tag_142\n        /* \"P2PLending.sol\":1044:1049  _from */\n      dup3\n        /* \"P2PLending.sol\":1059:1063  this */\n      address\n        /* \"P2PLending.sol\":1066:1073  _amount */\n      dup4\n        /* \"P2PLending.sol\":1034:1043  _transfer */\n      tag_130\n        /* \"P2PLending.sol\":1034:1074  _transfer(_from, address(this), _amount) */\n      jump\t// in\n    tag_142:\n        /* \"P2PLending.sol\":958:1081  function transfertoContract(address _from, uint _amount) external {... */\n      pop\n      pop\n      jump\t// out\n        /* \"P2PLending.sol\":869:952  function mint(address to, uint256 value) external {... */\n    tag_63:\n        /* \"P2PLending.sol\":929:945  _mint(to, value) */\n      tag_142\n        /* \"P2PLending.sol\":935:937  to */\n      dup3\n        /* \"P2PLending.sol\":939:944  value */\n      dup3\n        /* \"P2PLending.sol\":929:934  _mint */\n      tag_145\n        /* \"P2PLending.sol\":929:945  _mint(to, value) */\n      jump\t// in\n        /* \"@openzeppelin/contracts@4.7.3/token/ERC20/extensions/draft-ERC20Permit.sol\":2635:2761  function nonces(address owner) public view virtual override returns (uint256) {... */\n    tag_71:\n      sub(shl(0xa0, 0x01), 0x01)\n        /* \"@openzeppelin/contracts@4.7.3/token/ERC20/extensions/draft-ERC20Permit.sol\":2730:2744  _nonces[owner] */\n      dup2\n      and\n        /* \"@openzeppelin/contracts@4.7.3/token/ERC20/extensions/draft-ERC20Permit.sol\":2704:2711  uint256 */\n      0x00\n        /* \"@openzeppelin/contracts@4.7.3/token/ERC20/extensions/draft-ERC20Permit.sol\":2730:2744  _nonces[owner] */\n      swap1\n      dup2\n      mstore\n        /* \"@openzeppelin/contracts@4.7.3/token/ERC20/extensions/draft-ERC20Permit.sol\":2730:2737  _nonces */\n      0x05\n        /* \"@openzeppelin/contracts@4.7.3/token/ERC20/extensions/draft-ERC20Permit.sol\":2730:2744  _nonces[owner] */\n      0x20\n      mstore\n      0x40\n      dup2\n      keccak256\n        /* \"@openzeppelin/contracts@4.7.3/utils/Counters.sol\":918:932  counter._value */\n      sload\n        /* \"@openzeppelin/contracts@4.7.3/token/ERC20/extensions/draft-ERC20Permit.sol\":2730:2754  _nonces[owner].current() */\n      tag_119\n        /* \"@openzeppelin/contracts@4.7.3/utils/Counters.sol\":827:939  function current(Counter storage counter) internal view returns (uint256) {... */\n      jump\n        /* \"@openzeppelin/contracts@4.7.3/token/ERC20/ERC20.sol\":2367:2469  function symbol() public view virtual override returns (string memory) {... */\n    tag_78:\n        /* \"@openzeppelin/contracts@4.7.3/token/ERC20/ERC20.sol\":2423:2436  string memory */\n      0x60\n        /* \"@openzeppelin/contracts@4.7.3/token/ERC20/ERC20.sol\":2455:2462  _symbol */\n      0x04\n        /* \"@openzeppelin/contracts@4.7.3/token/ERC20/ERC20.sol\":2448:2462  return _symbol */\n      dup1\n      sload\n      tag_113\n      swap1\n      tag_114\n      jump\t// in\n        /* \"@openzeppelin/contracts@4.7.3/token/ERC20/ERC20.sol\":6594:7021  function decreaseAllowance(address spender, uint256 subtractedValue) public virtual returns (bool) {... */\n    tag_82:\n        /* \"@openzeppelin/contracts@4.7.3/token/ERC20/ERC20.sol\":6687:6691  bool */\n      0x00\n        /* \"@openzeppelin/contracts@4.7.3/utils/Context.sol\":719:729  msg.sender */\n      caller\n        /* \"@openzeppelin/contracts@4.7.3/token/ERC20/ERC20.sol\":6687:6691  bool */\n      dup2\n        /* \"@openzeppelin/contracts@4.7.3/token/ERC20/ERC20.sol\":6768:6793  allowance(owner, spender) */\n      tag_158\n        /* \"@openzeppelin/contracts@4.7.3/utils/Context.sol\":719:729  msg.sender */\n      dup3\n        /* \"@openzeppelin/contracts@4.7.3/token/ERC20/ERC20.sol\":6785:6792  spender */\n      dup7\n        /* \"@openzeppelin/contracts@4.7.3/token/ERC20/ERC20.sol\":6768:6777  allowance */\n      tag_110\n        /* \"@openzeppelin/contracts@4.7.3/token/ERC20/ERC20.sol\":6768:6793  allowance(owner, spender) */\n      jump\t// in\n    tag_158:\n        /* \"@openzeppelin/contracts@4.7.3/token/ERC20/ERC20.sol\":6741:6793  uint256 currentAllowance = allowance(owner, spender) */\n      swap1\n      pop\n        /* \"@openzeppelin/contracts@4.7.3/token/ERC20/ERC20.sol\":6831:6846  subtractedValue */\n      dup4\n        /* \"@openzeppelin/contracts@4.7.3/token/ERC20/ERC20.sol\":6811:6827  currentAllowance */\n      dup2\n        /* \"@openzeppelin/contracts@4.7.3/token/ERC20/ERC20.sol\":6811:6846  currentAllowance >= subtractedValue */\n      lt\n      iszero\n        /* \"@openzeppelin/contracts@4.7.3/token/ERC20/ERC20.sol\":6803:6888  require(currentAllowance >= subtractedValue, \"ERC20: decreased allowance below zero\") */\n      tag_159\n      jumpi\n      mload(0x40)\n      shl(0xe5, 0x461bcd)\n      dup2\n      mstore\n        /* \"#utility.yul\":4620:4622   */\n      0x20\n        /* \"@openzeppelin/contracts@4.7.3/token/ERC20/ERC20.sol\":6803:6888  require(currentAllowance >= subtractedValue, \"ERC20: decreased allowance below zero\") */\n      0x04\n      dup3\n      add\n        /* \"#utility.yul\":4602:4623   */\n      mstore\n        /* \"#utility.yul\":4659:4661   */\n      0x25\n        /* \"#utility.yul\":4639:4657   */\n      0x24\n      dup3\n      add\n        /* \"#utility.yul\":4632:4662   */\n      mstore\n        /* \"#utility.yul\":4698:4732   */\n      0x45524332303a2064656372656173656420616c6c6f77616e63652062656c6f77\n        /* \"#utility.yul\":4678:4696   */\n      0x44\n      dup3\n      add\n        /* \"#utility.yul\":4671:4733   */\n      mstore\n      shl(0xd8, 0x207a65726f)\n        /* \"#utility.yul\":4749:4767   */\n      0x64\n      dup3\n      add\n        /* \"#utility.yul\":4742:4777   */\n      mstore\n        /* \"#utility.yul\":4794:4813   */\n      0x84\n      add\n        /* \"@openzeppelin/contracts@4.7.3/token/ERC20/ERC20.sol\":6803:6888  require(currentAllowance >= subtractedValue, \"ERC20: decreased allowance below zero\") */\n    tag_160:\n      mload(0x40)\n      dup1\n      swap2\n      sub\n      swap1\n      revert\n    tag_159:\n        /* \"@openzeppelin/contracts@4.7.3/token/ERC20/ERC20.sol\":6922:6982  _approve(owner, spender, currentAllowance - subtractedValue) */\n      tag_129\n        /* \"@openzeppelin/contracts@4.7.3/token/ERC20/ERC20.sol\":6931:6936  owner */\n      dup3\n        /* \"@openzeppelin/contracts@4.7.3/token/ERC20/ERC20.sol\":6938:6945  spender */\n      dup7\n        /* \"@openzeppelin/contracts@4.7.3/token/ERC20/ERC20.sol\":6966:6981  subtractedValue */\n      dup7\n        /* \"@openzeppelin/contracts@4.7.3/token/ERC20/ERC20.sol\":6947:6963  currentAllowance */\n      dup5\n        /* \"@openzeppelin/contracts@4.7.3/token/ERC20/ERC20.sol\":6947:6981  currentAllowance - subtractedValue */\n      sub\n        /* \"@openzeppelin/contracts@4.7.3/token/ERC20/ERC20.sol\":6922:6930  _approve */\n      tag_123\n        /* \"@openzeppelin/contracts@4.7.3/token/ERC20/ERC20.sol\":6922:6982  _approve(owner, spender, currentAllowance - subtractedValue) */\n      jump\t// in\n        /* \"@openzeppelin/contracts@4.7.3/token/ERC20/ERC20.sol\":3729:3918  function transfer(address to, uint256 amount) public virtual override returns (bool) {... */\n    tag_86:\n        /* \"@openzeppelin/contracts@4.7.3/token/ERC20/ERC20.sol\":3808:3812  bool */\n      0x00\n        /* \"@openzeppelin/contracts@4.7.3/utils/Context.sol\":719:729  msg.sender */\n      caller\n        /* \"@openzeppelin/contracts@4.7.3/token/ERC20/ERC20.sol\":3862:3890  _transfer(owner, to, amount) */\n      tag_122\n        /* \"@openzeppelin/contracts@4.7.3/utils/Context.sol\":719:729  msg.sender */\n      dup2\n        /* \"@openzeppelin/contracts@4.7.3/token/ERC20/ERC20.sol\":3879:3881  to */\n      dup6\n        /* \"@openzeppelin/contracts@4.7.3/token/ERC20/ERC20.sol\":3883:3889  amount */\n      dup6\n        /* \"@openzeppelin/contracts@4.7.3/token/ERC20/ERC20.sol\":3862:3871  _transfer */\n      tag_130\n        /* \"@openzeppelin/contracts@4.7.3/token/ERC20/ERC20.sol\":3862:3890  _transfer(owner, to, amount) */\n      jump\t// in\n        /* \"P2PLending.sol\":1087:1615  function transferToAddr(address _from, address _to, uint _amount) external {... */\n    tag_94:\n        /* \"P2PLending.sol\":1189:1191  20 */\n      0x14\n        /* \"P2PLending.sol\":1180:1187  _amount */\n      dup2\n        /* \"P2PLending.sol\":1180:1191  _amount >20 */\n      gt\n        /* \"P2PLending.sol\":1172:1217  require(_amount >20, \"token is less than 20\") */\n      tag_167\n      jumpi\n      mload(0x40)\n      shl(0xe5, 0x461bcd)\n      dup2\n      mstore\n        /* \"#utility.yul\":5026:5028   */\n      0x20\n        /* \"P2PLending.sol\":1172:1217  require(_amount >20, \"token is less than 20\") */\n      0x04\n      dup3\n      add\n        /* \"#utility.yul\":5008:5029   */\n      mstore\n        /* \"#utility.yul\":5065:5067   */\n      0x15\n        /* \"#utility.yul\":5045:5063   */\n      0x24\n      dup3\n      add\n        /* \"#utility.yul\":5038:5068   */\n      mstore\n      shl(0x5c, 0x0746f6b656e206973206c657373207468616e20323)\n        /* \"#utility.yul\":5084:5102   */\n      0x44\n      dup3\n      add\n        /* \"#utility.yul\":5077:5128   */\n      mstore\n        /* \"#utility.yul\":5145:5163   */\n      0x64\n      add\n        /* \"P2PLending.sol\":1172:1217  require(_amount >20, \"token is less than 20\") */\n      tag_160\n        /* \"#utility.yul\":4824:5169   */\n      jump\n        /* \"P2PLending.sol\":1172:1217  require(_amount >20, \"token is less than 20\") */\n    tag_167:\n        /* \"P2PLending.sol\":1326:1330  1000 */\n      0x03e8\n        /* \"P2PLending.sol\":1316:1323  _amount */\n      dup2\n        /* \"P2PLending.sol\":1316:1330  _amount < 1000 */\n      lt\n        /* \"P2PLending.sol\":1313:1608  if(_amount < 1000) {... */\n      iszero\n      tag_170\n      jumpi\n        /* \"P2PLending.sol\":1346:1381  _transfer(_from, address(this), 20) */\n      tag_171\n        /* \"P2PLending.sol\":1356:1361  _from */\n      dup4\n        /* \"P2PLending.sol\":1371:1375  this */\n      address\n        /* \"P2PLending.sol\":1378:1380  20 */\n      0x14\n        /* \"P2PLending.sol\":1346:1355  _transfer */\n      tag_130\n        /* \"P2PLending.sol\":1346:1381  _transfer(_from, address(this), 20) */\n      jump\t// in\n    tag_171:\n        /* \"P2PLending.sol\":1395:1428  _transfer(_from, _to, _amount-20) */\n      tag_172\n        /* \"P2PLending.sol\":1405:1410  _from */\n      dup4\n        /* \"P2PLending.sol\":1412:1415  _to */\n      dup4\n        /* \"P2PLending.sol\":1417:1427  _amount-20 */\n      tag_173\n        /* \"P2PLending.sol\":1425:1427  20 */\n      0x14\n        /* \"P2PLending.sol\":1417:1424  _amount */\n      dup6\n        /* \"P2PLending.sol\":1417:1427  _amount-20 */\n      tag_174\n      jump\t// in\n    tag_173:\n        /* \"P2PLending.sol\":1395:1404  _transfer */\n      tag_130\n        /* \"P2PLending.sol\":1395:1428  _transfer(_from, _to, _amount-20) */\n      jump\t// in\n    tag_172:\n        /* \"P2PLending.sol\":1087:1615  function transferToAddr(address _from, address _to, uint _amount) external {... */\n      pop\n      pop\n      pop\n      jump\t// out\n        /* \"P2PLending.sol\":1313:1608  if(_amount < 1000) {... */\n    tag_170:\n        /* \"P2PLending.sol\":1467:1476  uint fees */\n      0x00\n        /* \"P2PLending.sol\":1493:1496  100 */\n      0x64\n        /* \"P2PLending.sol\":1480:1490  _amount *2 */\n      tag_176\n        /* \"P2PLending.sol\":1480:1487  _amount */\n      dup4\n        /* \"P2PLending.sol\":1489:1490  2 */\n      0x02\n        /* \"P2PLending.sol\":1480:1490  _amount *2 */\n      tag_177\n      jump\t// in\n    tag_176:\n        /* \"P2PLending.sol\":1479:1497  (_amount *2)/(100) */\n      tag_178\n      swap2\n      swap1\n      tag_179\n      jump\t// in\n    tag_178:\n        /* \"P2PLending.sol\":1467:1497  uint fees = (_amount *2)/(100) */\n      swap1\n      pop\n        /* \"P2PLending.sol\":1511:1548  _transfer(_from, address(this), fees) */\n      tag_180\n        /* \"P2PLending.sol\":1521:1526  _from */\n      dup5\n        /* \"P2PLending.sol\":1536:1540  this */\n      address\n        /* \"P2PLending.sol\":1543:1547  fees */\n      dup4\n        /* \"P2PLending.sol\":1511:1520  _transfer */\n      tag_130\n        /* \"P2PLending.sol\":1511:1548  _transfer(_from, address(this), fees) */\n      jump\t// in\n    tag_180:\n        /* \"P2PLending.sol\":1562:1597  _transfer(_from, _to, _amount-fees) */\n      tag_181\n        /* \"P2PLending.sol\":1572:1577  _from */\n      dup5\n        /* \"P2PLending.sol\":1579:1582  _to */\n      dup5\n        /* \"P2PLending.sol\":1584:1596  _amount-fees */\n      tag_173\n        /* \"P2PLending.sol\":1592:1596  fees */\n      dup5\n        /* \"P2PLending.sol\":1584:1591  _amount */\n      dup7\n        /* \"P2PLending.sol\":1584:1596  _amount-fees */\n      tag_174\n      jump\t// in\n        /* \"P2PLending.sol\":1562:1597  _transfer(_from, _to, _amount-fees) */\n    tag_181:\n        /* \"P2PLending.sol\":1453:1608  {... */\n      pop\n        /* \"P2PLending.sol\":1087:1615  function transferToAddr(address _from, address _to, uint _amount) external {... */\n      pop\n      pop\n      pop\n      jump\t// out\n        /* \"P2PLending.sol\":474:677  function RegisterLender(uint _amount, uint _deadline, uint8 _v, bytes32 _r, bytes32 _s) public returns (bool) {... */\n    tag_98:\n        /* \"P2PLending.sol\":578:582  bool */\n      0x00\n        /* \"P2PLending.sol\":603:669  permit(msg.sender, address(this), _amount, _deadline, _v, _r, _s ) */\n      tag_184\n        /* \"P2PLending.sol\":610:620  msg.sender */\n      caller\n        /* \"P2PLending.sol\":630:634  this */\n      address\n        /* \"P2PLending.sol\":637:644  _amount */\n      dup9\n        /* \"P2PLending.sol\":646:655  _deadline */\n      dup9\n        /* \"P2PLending.sol\":657:659  _v */\n      dup9\n        /* \"P2PLending.sol\":661:663  _r */\n      dup9\n        /* \"P2PLending.sol\":665:667  _s */\n      dup9\n        /* \"P2PLending.sol\":603:609  permit */\n      tag_103\n        /* \"P2PLending.sol\":603:669  permit(msg.sender, address(this), _amount, _deadline, _v, _r, _s ) */\n      jump\t// in\n    tag_184:\n        /* \"P2PLending.sol\":474:677  function RegisterLender(uint _amount, uint _deadline, uint8 _v, bytes32 _r, bytes32 _s) public returns (bool) {... */\n      swap6\n      swap5\n      pop\n      pop\n      pop\n      pop\n      pop\n      jump\t// out\n        /* \"@openzeppelin/contracts@4.7.3/token/ERC20/extensions/draft-ERC20Permit.sol\":1948:2574  function permit(... */\n    tag_103:\n        /* \"@openzeppelin/contracts@4.7.3/token/ERC20/extensions/draft-ERC20Permit.sol\":2183:2191  deadline */\n      dup4\n        /* \"@openzeppelin/contracts@4.7.3/token/ERC20/extensions/draft-ERC20Permit.sol\":2164:2179  block.timestamp */\n      timestamp\n        /* \"@openzeppelin/contracts@4.7.3/token/ERC20/extensions/draft-ERC20Permit.sol\":2164:2191  block.timestamp <= deadline */\n      gt\n      iszero\n        /* \"@openzeppelin/contracts@4.7.3/token/ERC20/extensions/draft-ERC20Permit.sol\":2156:2225  require(block.timestamp <= deadline, \"ERC20Permit: expired deadline\") */\n      tag_186\n      jumpi\n      mload(0x40)\n      shl(0xe5, 0x461bcd)\n      dup2\n      mstore\n        /* \"#utility.yul\":5904:5906   */\n      0x20\n        /* \"@openzeppelin/contracts@4.7.3/token/ERC20/extensions/draft-ERC20Permit.sol\":2156:2225  require(block.timestamp <= deadline, \"ERC20Permit: expired deadline\") */\n      0x04\n      dup3\n      add\n        /* \"#utility.yul\":5886:5907   */\n      mstore\n        /* \"#utility.yul\":5943:5945   */\n      0x1d\n        /* \"#utility.yul\":5923:5941   */\n      0x24\n      dup3\n      add\n        /* \"#utility.yul\":5916:5946   */\n      mstore\n        /* \"#utility.yul\":5982:6013   */\n      0x45524332305065726d69743a206578706972656420646561646c696e65000000\n        /* \"#utility.yul\":5962:5980   */\n      0x44\n      dup3\n      add\n        /* \"#utility.yul\":5955:6014   */\n      mstore\n        /* \"#utility.yul\":6031:6049   */\n      0x64\n      add\n        /* \"@openzeppelin/contracts@4.7.3/token/ERC20/extensions/draft-ERC20Permit.sol\":2156:2225  require(block.timestamp <= deadline, \"ERC20Permit: expired deadline\") */\n      tag_160\n        /* \"#utility.yul\":5702:6055   */\n      jump\n        /* \"@openzeppelin/contracts@4.7.3/token/ERC20/extensions/draft-ERC20Permit.sol\":2156:2225  require(block.timestamp <= deadline, \"ERC20Permit: expired deadline\") */\n    tag_186:\n        /* \"@openzeppelin/contracts@4.7.3/token/ERC20/extensions/draft-ERC20Permit.sol\":2236:2254  bytes32 structHash */\n      0x00\n        /* \"@openzeppelin/contracts@4.7.3/token/ERC20/extensions/draft-ERC20Permit.sol\":1143:1238  keccak256(\"Permit(address owner,address spender,uint256 value,uint256 nonce,uint256 deadline)\") */\n      0x6e71edae12b1b97f4d1f60370fef10105fa2faae0126114a169c64845d6126c9\n        /* \"@openzeppelin/contracts@4.7.3/token/ERC20/extensions/draft-ERC20Permit.sol\":2296:2301  owner */\n      dup9\n        /* \"@openzeppelin/contracts@4.7.3/token/ERC20/extensions/draft-ERC20Permit.sol\":2303:2310  spender */\n      dup9\n        /* \"@openzeppelin/contracts@4.7.3/token/ERC20/extensions/draft-ERC20Permit.sol\":2312:2317  value */\n      dup9\n        /* \"@openzeppelin/contracts@4.7.3/token/ERC20/extensions/draft-ERC20Permit.sol\":2319:2335  _useNonce(owner) */\n      tag_189\n        /* \"@openzeppelin/contracts@4.7.3/token/ERC20/extensions/draft-ERC20Permit.sol\":2329:2334  owner */\n      dup13\n        /* \"@openzeppelin/contracts@4.7.3/token/ERC20/extensions/draft-ERC20Permit.sol\":2319:2328  _useNonce */\n      tag_190\n        /* \"@openzeppelin/contracts@4.7.3/token/ERC20/extensions/draft-ERC20Permit.sol\":2319:2335  _useNonce(owner) */\n      jump\t// in\n    tag_189:\n        /* \"@openzeppelin/contracts@4.7.3/token/ERC20/extensions/draft-ERC20Permit.sol\":2267:2346  abi.encode(_PERMIT_TYPEHASH, owner, spender, value, _useNonce(owner), deadline) */\n      0x40\n      dup1\n      mload\n      0x20\n      dup2\n      add\n        /* \"#utility.yul\":6347:6372   */\n      swap7\n      swap1\n      swap7\n      mstore\n      sub(shl(0xa0, 0x01), 0x01)\n        /* \"#utility.yul\":6446:6461   */\n      swap5\n      dup6\n      and\n        /* \"#utility.yul\":6426:6444   */\n      swap1\n      dup7\n      add\n        /* \"#utility.yul\":6419:6462   */\n      mstore\n        /* \"#utility.yul\":6498:6513   */\n      swap3\n      swap1\n      swap2\n      and\n        /* \"#utility.yul\":6478:6496   */\n      0x60\n      dup5\n      add\n        /* \"#utility.yul\":6471:6514   */\n      mstore\n        /* \"#utility.yul\":6530:6548   */\n      0x80\n      dup4\n      add\n        /* \"#utility.yul\":6523:6557   */\n      mstore\n        /* \"#utility.yul\":6573:6592   */\n      0xa0\n      dup3\n      add\n        /* \"#utility.yul\":6566:6601   */\n      mstore\n        /* \"#utility.yul\":6617:6636   */\n      0xc0\n      dup2\n      add\n        /* \"#utility.yul\":6610:6645   */\n      dup7\n      swap1\n      mstore\n        /* \"#utility.yul\":6319:6338   */\n      0xe0\n      add\n        /* \"@openzeppelin/contracts@4.7.3/token/ERC20/extensions/draft-ERC20Permit.sol\":2267:2346  abi.encode(_PERMIT_TYPEHASH, owner, spender, value, _useNonce(owner), deadline) */\n      mload(0x40)\n      0x20\n      dup2\n      dup4\n      sub\n      sub\n      dup2\n      mstore\n      swap1\n      0x40\n      mstore\n        /* \"@openzeppelin/contracts@4.7.3/token/ERC20/extensions/draft-ERC20Permit.sol\":2257:2347  keccak256(abi.encode(_PERMIT_TYPEHASH, owner, spender, value, _useNonce(owner), deadline)) */\n      dup1\n      mload\n      swap1\n      0x20\n      add\n      keccak256\n        /* \"@openzeppelin/contracts@4.7.3/token/ERC20/extensions/draft-ERC20Permit.sol\":2236:2347  bytes32 structHash = keccak256(abi.encode(_PERMIT_TYPEHASH, owner, spender, value, _useNonce(owner), deadline)) */\n      swap1\n      pop\n        /* \"@openzeppelin/contracts@4.7.3/token/ERC20/extensions/draft-ERC20Permit.sol\":2358:2370  bytes32 hash */\n      0x00\n        /* \"@openzeppelin/contracts@4.7.3/token/ERC20/extensions/draft-ERC20Permit.sol\":2373:2401  _hashTypedDataV4(structHash) */\n      tag_193\n        /* \"@openzeppelin/contracts@4.7.3/token/ERC20/extensions/draft-ERC20Permit.sol\":2390:2400  structHash */\n      dup3\n        /* \"@openzeppelin/contracts@4.7.3/token/ERC20/extensions/draft-ERC20Permit.sol\":2373:2389  _hashTypedDataV4 */\n      tag_194\n        /* \"@openzeppelin/contracts@4.7.3/token/ERC20/extensions/draft-ERC20Permit.sol\":2373:2401  _hashTypedDataV4(structHash) */\n      jump\t// in\n    tag_193:\n        /* \"@openzeppelin/contracts@4.7.3/token/ERC20/extensions/draft-ERC20Permit.sol\":2358:2401  bytes32 hash = _hashTypedDataV4(structHash) */\n      swap1\n      pop\n        /* \"@openzeppelin/contracts@4.7.3/token/ERC20/extensions/draft-ERC20Permit.sol\":2412:2426  address signer */\n      0x00\n        /* \"@openzeppelin/contracts@4.7.3/token/ERC20/extensions/draft-ERC20Permit.sol\":2429:2457  ECDSA.recover(hash, v, r, s) */\n      tag_195\n        /* \"@openzeppelin/contracts@4.7.3/token/ERC20/extensions/draft-ERC20Permit.sol\":2443:2447  hash */\n      dup3\n        /* \"@openzeppelin/contracts@4.7.3/token/ERC20/extensions/draft-ERC20Permit.sol\":2449:2450  v */\n      dup8\n        /* \"@openzeppelin/contracts@4.7.3/token/ERC20/extensions/draft-ERC20Permit.sol\":2452:2453  r */\n      dup8\n        /* \"@openzeppelin/contracts@4.7.3/token/ERC20/extensions/draft-ERC20Permit.sol\":2455:2456  s */\n      dup8\n        /* \"@openzeppelin/contracts@4.7.3/token/ERC20/extensions/draft-ERC20Permit.sol\":2429:2442  ECDSA.recover */\n      tag_196\n        /* \"@openzeppelin/contracts@4.7.3/token/ERC20/extensions/draft-ERC20Permit.sol\":2429:2457  ECDSA.recover(hash, v, r, s) */\n      jump\t// in\n    tag_195:\n        /* \"@openzeppelin/contracts@4.7.3/token/ERC20/extensions/draft-ERC20Permit.sol\":2412:2457  address signer = ECDSA.recover(hash, v, r, s) */\n      swap1\n      pop\n        /* \"@openzeppelin/contracts@4.7.3/token/ERC20/extensions/draft-ERC20Permit.sol\":2485:2490  owner */\n      dup10\n      sub(shl(0xa0, 0x01), 0x01)\n        /* \"@openzeppelin/contracts@4.7.3/token/ERC20/extensions/draft-ERC20Permit.sol\":2475:2490  signer == owner */\n      and\n        /* \"@openzeppelin/contracts@4.7.3/token/ERC20/extensions/draft-ERC20Permit.sol\":2475:2481  signer */\n      dup2\n      sub(shl(0xa0, 0x01), 0x01)\n        /* \"@openzeppelin/contracts@4.7.3/token/ERC20/extensions/draft-ERC20Permit.sol\":2475:2490  signer == owner */\n      and\n      eq\n        /* \"@openzeppelin/contracts@4.7.3/token/ERC20/extensions/draft-ERC20Permit.sol\":2467:2525  require(signer == owner, \"ERC20Permit: invalid signature\") */\n      tag_197\n      jumpi\n      mload(0x40)\n      shl(0xe5, 0x461bcd)\n      dup2\n      mstore\n        /* \"#utility.yul\":6858:6860   */\n      0x20\n        /* \"@openzeppelin/contracts@4.7.3/token/ERC20/extensions/draft-ERC20Permit.sol\":2467:2525  require(signer == owner, \"ERC20Permit: invalid signature\") */\n      0x04\n      dup3\n      add\n        /* \"#utility.yul\":6840:6861   */\n      mstore\n        /* \"#utility.yul\":6897:6899   */\n      0x1e\n        /* \"#utility.yul\":6877:6895   */\n      0x24\n      dup3\n      add\n        /* \"#utility.yul\":6870:6900   */\n      mstore\n        /* \"#utility.yul\":6936:6968   */\n      0x45524332305065726d69743a20696e76616c6964207369676e61747572650000\n        /* \"#utility.yul\":6916:6934   */\n      0x44\n      dup3\n      add\n        /* \"#utility.yul\":6909:6969   */\n      mstore\n        /* \"#utility.yul\":6986:7004   */\n      0x64\n      add\n        /* \"@openzeppelin/contracts@4.7.3/token/ERC20/extensions/draft-ERC20Permit.sol\":2467:2525  require(signer == owner, \"ERC20Permit: invalid signature\") */\n      tag_160\n        /* \"#utility.yul\":6656:7010   */\n      jump\n        /* \"@openzeppelin/contracts@4.7.3/token/ERC20/extensions/draft-ERC20Permit.sol\":2467:2525  require(signer == owner, \"ERC20Permit: invalid signature\") */\n    tag_197:\n        /* \"@openzeppelin/contracts@4.7.3/token/ERC20/extensions/draft-ERC20Permit.sol\":2536:2567  _approve(owner, spender, value) */\n      tag_200\n        /* \"@openzeppelin/contracts@4.7.3/token/ERC20/extensions/draft-ERC20Permit.sol\":2545:2550  owner */\n      dup11\n        /* \"@openzeppelin/contracts@4.7.3/token/ERC20/extensions/draft-ERC20Permit.sol\":2552:2559  spender */\n      dup11\n        /* \"@openzeppelin/contracts@4.7.3/token/ERC20/extensions/draft-ERC20Permit.sol\":2561:2566  value */\n      dup11\n        /* \"@openzeppelin/contracts@4.7.3/token/ERC20/extensions/draft-ERC20Permit.sol\":2536:2544  _approve */\n      tag_123\n        /* \"@openzeppelin/contracts@4.7.3/token/ERC20/extensions/draft-ERC20Permit.sol\":2536:2567  _approve(owner, spender, value) */\n      jump\t// in\n    tag_200:\n        /* \"@openzeppelin/contracts@4.7.3/token/ERC20/extensions/draft-ERC20Permit.sol\":2146:2574  {... */\n      pop\n      pop\n      pop\n        /* \"@openzeppelin/contracts@4.7.3/token/ERC20/extensions/draft-ERC20Permit.sol\":1948:2574  function permit(... */\n      pop\n      pop\n      pop\n      pop\n      pop\n      pop\n      pop\n      jump\t// out\n        /* \"P2PLending.sol\":685:863  function testTransfer(address _from, address _to, uint _amount) public {... */\n    tag_106:\n        /* \"P2PLending.sol\":767:807  _transfer(_from, address(this), _amount) */\n      tag_202\n        /* \"P2PLending.sol\":777:782  _from */\n      dup4\n        /* \"P2PLending.sol\":792:796  this */\n      address\n        /* \"P2PLending.sol\":799:806  _amount */\n      dup4\n        /* \"P2PLending.sol\":767:776  _transfer */\n      tag_130\n        /* \"P2PLending.sol\":767:807  _transfer(_from, address(this), _amount) */\n      jump\t// in\n    tag_202:\n        /* \"P2PLending.sol\":818:856  _transfer(address(this), _to, _amount) */\n      tag_172\n        /* \"P2PLending.sol\":836:840  this */\n      address\n        /* \"P2PLending.sol\":843:846  _to */\n      dup4\n        /* \"P2PLending.sol\":848:855  _amount */\n      dup4\n        /* \"P2PLending.sol\":818:827  _transfer */\n      tag_130\n        /* \"P2PLending.sol\":818:856  _transfer(address(this), _to, _amount) */\n      jump\t// in\n        /* \"@openzeppelin/contracts@4.7.3/token/ERC20/ERC20.sol\":3976:4125  function allowance(address owner, address spender) public view virtual override returns (uint256) {... */\n    tag_110:\n      sub(shl(0xa0, 0x01), 0x01)\n        /* \"@openzeppelin/contracts@4.7.3/token/ERC20/ERC20.sol\":4091:4109  _allowances[owner] */\n      swap2\n      dup3\n      and\n        /* \"@openzeppelin/contracts@4.7.3/token/ERC20/ERC20.sol\":4065:4072  uint256 */\n      0x00\n        /* \"@openzeppelin/contracts@4.7.3/token/ERC20/ERC20.sol\":4091:4109  _allowances[owner] */\n      swap1\n      dup2\n      mstore\n        /* \"@openzeppelin/contracts@4.7.3/token/ERC20/ERC20.sol\":4091:4102  _allowances */\n      0x01\n        /* \"@openzeppelin/contracts@4.7.3/token/ERC20/ERC20.sol\":4091:4109  _allowances[owner] */\n      0x20\n      swap1\n      dup2\n      mstore\n      0x40\n      dup1\n      dup4\n      keccak256\n        /* \"@openzeppelin/contracts@4.7.3/token/ERC20/ERC20.sol\":4091:4118  _allowances[owner][spender] */\n      swap4\n      swap1\n      swap5\n      and\n      dup3\n      mstore\n      swap2\n      swap1\n      swap2\n      mstore\n      keccak256\n      sload\n      swap1\n        /* \"@openzeppelin/contracts@4.7.3/token/ERC20/ERC20.sol\":3976:4125  function allowance(address owner, address spender) public view virtual override returns (uint256) {... */\n      jump\t// out\n        /* \"@openzeppelin/contracts@4.7.3/token/ERC20/ERC20.sol\":10110:10480  function _approve(... */\n    tag_123:\n      sub(shl(0xa0, 0x01), 0x01)\n        /* \"@openzeppelin/contracts@4.7.3/token/ERC20/ERC20.sol\":10241:10260  owner != address(0) */\n      dup4\n      and\n        /* \"@openzeppelin/contracts@4.7.3/token/ERC20/ERC20.sol\":10233:10301  require(owner != address(0), \"ERC20: approve from the zero address\") */\n      tag_207\n      jumpi\n      mload(0x40)\n      shl(0xe5, 0x461bcd)\n      dup2\n      mstore\n        /* \"#utility.yul\":7217:7219   */\n      0x20\n        /* \"@openzeppelin/contracts@4.7.3/token/ERC20/ERC20.sol\":10233:10301  require(owner != address(0), \"ERC20: approve from the zero address\") */\n      0x04\n      dup3\n      add\n        /* \"#utility.yul\":7199:7220   */\n      mstore\n        /* \"#utility.yul\":7256:7258   */\n      0x24\n        /* \"#utility.yul\":7236:7254   */\n      dup1\n      dup3\n      add\n        /* \"#utility.yul\":7229:7259   */\n      mstore\n        /* \"#utility.yul\":7295:7329   */\n      0x45524332303a20617070726f76652066726f6d20746865207a65726f20616464\n        /* \"#utility.yul\":7275:7293   */\n      0x44\n      dup3\n      add\n        /* \"#utility.yul\":7268:7330   */\n      mstore\n      shl(0xe0, 0x72657373)\n        /* \"#utility.yul\":7346:7364   */\n      0x64\n      dup3\n      add\n        /* \"#utility.yul\":7339:7373   */\n      mstore\n        /* \"#utility.yul\":7390:7409   */\n      0x84\n      add\n        /* \"@openzeppelin/contracts@4.7.3/token/ERC20/ERC20.sol\":10233:10301  require(owner != address(0), \"ERC20: approve from the zero address\") */\n      tag_160\n        /* \"#utility.yul\":7015:7415   */\n      jump\n        /* \"@openzeppelin/contracts@4.7.3/token/ERC20/ERC20.sol\":10233:10301  require(owner != address(0), \"ERC20: approve from the zero address\") */\n    tag_207:\n      sub(shl(0xa0, 0x01), 0x01)\n        /* \"@openzeppelin/contracts@4.7.3/token/ERC20/ERC20.sol\":10319:10340  spender != address(0) */\n      dup3\n      and\n        /* \"@openzeppelin/contracts@4.7.3/token/ERC20/ERC20.sol\":10311:10379  require(spender != address(0), \"ERC20: approve to the zero address\") */\n      tag_210\n      jumpi\n      mload(0x40)\n      shl(0xe5, 0x461bcd)\n      dup2\n      mstore\n        /* \"#utility.yul\":7622:7624   */\n      0x20\n        /* \"@openzeppelin/contracts@4.7.3/token/ERC20/ERC20.sol\":10311:10379  require(spender != address(0), \"ERC20: approve to the zero address\") */\n      0x04\n      dup3\n      add\n        /* \"#utility.yul\":7604:7625   */\n      mstore\n        /* \"#utility.yul\":7661:7663   */\n      0x22\n        /* \"#utility.yul\":7641:7659   */\n      0x24\n      dup3\n      add\n        /* \"#utility.yul\":7634:7664   */\n      mstore\n        /* \"#utility.yul\":7700:7734   */\n      0x45524332303a20617070726f766520746f20746865207a65726f206164647265\n        /* \"#utility.yul\":7680:7698   */\n      0x44\n      dup3\n      add\n        /* \"#utility.yul\":7673:7735   */\n      mstore\n      shl(0xf0, 0x7373)\n        /* \"#utility.yul\":7751:7769   */\n      0x64\n      dup3\n      add\n        /* \"#utility.yul\":7744:7776   */\n      mstore\n        /* \"#utility.yul\":7793:7812   */\n      0x84\n      add\n        /* \"@openzeppelin/contracts@4.7.3/token/ERC20/ERC20.sol\":10311:10379  require(spender != address(0), \"ERC20: approve to the zero address\") */\n      tag_160\n        /* \"#utility.yul\":7420:7818   */\n      jump\n        /* \"@openzeppelin/contracts@4.7.3/token/ERC20/ERC20.sol\":10311:10379  require(spender != address(0), \"ERC20: approve to the zero address\") */\n    tag_210:\n      sub(shl(0xa0, 0x01), 0x01)\n        /* \"@openzeppelin/contracts@4.7.3/token/ERC20/ERC20.sol\":10390:10408  _allowances[owner] */\n      dup4\n      dup2\n      and\n      0x00\n      dup2\n      dup2\n      mstore\n        /* \"@openzeppelin/contracts@4.7.3/token/ERC20/ERC20.sol\":10390:10401  _allowances */\n      0x01\n        /* \"@openzeppelin/contracts@4.7.3/token/ERC20/ERC20.sol\":10390:10408  _allowances[owner] */\n      0x20\n      swap1\n      dup2\n      mstore\n      0x40\n      dup1\n      dup4\n      keccak256\n        /* \"@openzeppelin/contracts@4.7.3/token/ERC20/ERC20.sol\":10390:10417  _allowances[owner][spender] */\n      swap5\n      dup8\n      and\n      dup1\n      dup5\n      mstore\n      swap5\n      dup3\n      mstore\n      swap2\n      dup3\n      swap1\n      keccak256\n        /* \"@openzeppelin/contracts@4.7.3/token/ERC20/ERC20.sol\":10390:10426  _allowances[owner][spender] = amount */\n      dup6\n      swap1\n      sstore\n        /* \"@openzeppelin/contracts@4.7.3/token/ERC20/ERC20.sol\":10441:10473  Approval(owner, spender, amount) */\n      swap1\n      mload\n        /* \"#utility.yul\":1342:1367   */\n      dup5\n      dup2\n      mstore\n        /* \"@openzeppelin/contracts@4.7.3/token/ERC20/ERC20.sol\":10441:10473  Approval(owner, spender, amount) */\n      0x8c5be1e5ebec7d5bd14f71427d1e84f3dd0314c0f7b2291e5b200ac8c7c3b925\n      swap2\n        /* \"#utility.yul\":1315:1333   */\n      add\n        /* \"@openzeppelin/contracts@4.7.3/token/ERC20/ERC20.sol\":10441:10473  Approval(owner, spender, amount) */\n      mload(0x40)\n      dup1\n      swap2\n      sub\n      swap1\n      log3\n        /* \"@openzeppelin/contracts@4.7.3/token/ERC20/ERC20.sol\":10110:10480  function _approve(... */\n      pop\n      pop\n      pop\n      jump\t// out\n        /* \"@openzeppelin/contracts@4.7.3/token/ERC20/ERC20.sol\":10761:11202  function _spendAllowance(... */\n    tag_128:\n        /* \"@openzeppelin/contracts@4.7.3/token/ERC20/ERC20.sol\":10891:10915  uint256 currentAllowance */\n      0x00\n        /* \"@openzeppelin/contracts@4.7.3/token/ERC20/ERC20.sol\":10918:10943  allowance(owner, spender) */\n      tag_215\n        /* \"@openzeppelin/contracts@4.7.3/token/ERC20/ERC20.sol\":10928:10933  owner */\n      dup5\n        /* \"@openzeppelin/contracts@4.7.3/token/ERC20/ERC20.sol\":10935:10942  spender */\n      dup5\n        /* \"@openzeppelin/contracts@4.7.3/token/ERC20/ERC20.sol\":10918:10927  allowance */\n      tag_110\n        /* \"@openzeppelin/contracts@4.7.3/token/ERC20/ERC20.sol\":10918:10943  allowance(owner, spender) */\n      jump\t// in\n    tag_215:\n        /* \"@openzeppelin/contracts@4.7.3/token/ERC20/ERC20.sol\":10891:10943  uint256 currentAllowance = allowance(owner, spender) */\n      swap1\n      pop\n      not(0x00)\n        /* \"@openzeppelin/contracts@4.7.3/token/ERC20/ERC20.sol\":10957:10973  currentAllowance */\n      dup2\n        /* \"@openzeppelin/contracts@4.7.3/token/ERC20/ERC20.sol\":10957:10994  currentAllowance != type(uint256).max */\n      eq\n        /* \"@openzeppelin/contracts@4.7.3/token/ERC20/ERC20.sol\":10953:11196  if (currentAllowance != type(uint256).max) {... */\n      tag_181\n      jumpi\n        /* \"@openzeppelin/contracts@4.7.3/token/ERC20/ERC20.sol\":11038:11044  amount */\n      dup2\n        /* \"@openzeppelin/contracts@4.7.3/token/ERC20/ERC20.sol\":11018:11034  currentAllowance */\n      dup2\n        /* \"@openzeppelin/contracts@4.7.3/token/ERC20/ERC20.sol\":11018:11044  currentAllowance >= amount */\n      lt\n      iszero\n        /* \"@openzeppelin/contracts@4.7.3/token/ERC20/ERC20.sol\":11010:11078  require(currentAllowance >= amount, \"ERC20: insufficient allowance\") */\n      tag_217\n      jumpi\n      mload(0x40)\n      shl(0xe5, 0x461bcd)\n      dup2\n      mstore\n        /* \"#utility.yul\":8025:8027   */\n      0x20\n        /* \"@openzeppelin/contracts@4.7.3/token/ERC20/ERC20.sol\":11010:11078  require(currentAllowance >= amount, \"ERC20: insufficient allowance\") */\n      0x04\n      dup3\n      add\n        /* \"#utility.yul\":8007:8028   */\n      mstore\n        /* \"#utility.yul\":8064:8066   */\n      0x1d\n        /* \"#utility.yul\":8044:8062   */\n      0x24\n      dup3\n      add\n        /* \"#utility.yul\":8037:8067   */\n      mstore\n        /* \"#utility.yul\":8103:8134   */\n      0x45524332303a20696e73756666696369656e7420616c6c6f77616e6365000000\n        /* \"#utility.yul\":8083:8101   */\n      0x44\n      dup3\n      add\n        /* \"#utility.yul\":8076:8135   */\n      mstore\n        /* \"#utility.yul\":8152:8170   */\n      0x64\n      add\n        /* \"@openzeppelin/contracts@4.7.3/token/ERC20/ERC20.sol\":11010:11078  require(currentAllowance >= amount, \"ERC20: insufficient allowance\") */\n      tag_160\n        /* \"#utility.yul\":7823:8176   */\n      jump\n        /* \"@openzeppelin/contracts@4.7.3/token/ERC20/ERC20.sol\":11010:11078  require(currentAllowance >= amount, \"ERC20: insufficient allowance\") */\n    tag_217:\n        /* \"@openzeppelin/contracts@4.7.3/token/ERC20/ERC20.sol\":11120:11171  _approve(owner, spender, currentAllowance - amount) */\n      tag_181\n        /* \"@openzeppelin/contracts@4.7.3/token/ERC20/ERC20.sol\":11129:11134  owner */\n      dup5\n        /* \"@openzeppelin/contracts@4.7.3/token/ERC20/ERC20.sol\":11136:11143  spender */\n      dup5\n        /* \"@openzeppelin/contracts@4.7.3/token/ERC20/ERC20.sol\":11164:11170  amount */\n      dup5\n        /* \"@openzeppelin/contracts@4.7.3/token/ERC20/ERC20.sol\":11145:11161  currentAllowance */\n      dup5\n        /* \"@openzeppelin/contracts@4.7.3/token/ERC20/ERC20.sol\":11145:11170  currentAllowance - amount */\n      sub\n        /* \"@openzeppelin/contracts@4.7.3/token/ERC20/ERC20.sol\":11120:11128  _approve */\n      tag_123\n        /* \"@openzeppelin/contracts@4.7.3/token/ERC20/ERC20.sol\":11120:11171  _approve(owner, spender, currentAllowance - amount) */\n      jump\t// in\n        /* \"@openzeppelin/contracts@4.7.3/token/ERC20/ERC20.sol\":7475:8126  function _transfer(... */\n    tag_130:\n      sub(shl(0xa0, 0x01), 0x01)\n        /* \"@openzeppelin/contracts@4.7.3/token/ERC20/ERC20.sol\":7601:7619  from != address(0) */\n      dup4\n      and\n        /* \"@openzeppelin/contracts@4.7.3/token/ERC20/ERC20.sol\":7593:7661  require(from != address(0), \"ERC20: transfer from the zero address\") */\n      tag_222\n      jumpi\n      mload(0x40)\n      shl(0xe5, 0x461bcd)\n      dup2\n      mstore\n        /* \"#utility.yul\":8383:8385   */\n      0x20\n        /* \"@openzeppelin/contracts@4.7.3/token/ERC20/ERC20.sol\":7593:7661  require(from != address(0), \"ERC20: transfer from the zero address\") */\n      0x04\n      dup3\n      add\n        /* \"#utility.yul\":8365:8386   */\n      mstore\n        /* \"#utility.yul\":8422:8424   */\n      0x25\n        /* \"#utility.yul\":8402:8420   */\n      0x24\n      dup3\n      add\n        /* \"#utility.yul\":8395:8425   */\n      mstore\n        /* \"#utility.yul\":8461:8495   */\n      0x45524332303a207472616e736665722066726f6d20746865207a65726f206164\n        /* \"#utility.yul\":8441:8459   */\n      0x44\n      dup3\n      add\n        /* \"#utility.yul\":8434:8496   */\n      mstore\n      shl(0xd8, 0x6472657373)\n        /* \"#utility.yul\":8512:8530   */\n      0x64\n      dup3\n      add\n        /* \"#utility.yul\":8505:8540   */\n      mstore\n        /* \"#utility.yul\":8557:8576   */\n      0x84\n      add\n        /* \"@openzeppelin/contracts@4.7.3/token/ERC20/ERC20.sol\":7593:7661  require(from != address(0), \"ERC20: transfer from the zero address\") */\n      tag_160\n        /* \"#utility.yul\":8181:8582   */\n      jump\n        /* \"@openzeppelin/contracts@4.7.3/token/ERC20/ERC20.sol\":7593:7661  require(from != address(0), \"ERC20: transfer from the zero address\") */\n    tag_222:\n      sub(shl(0xa0, 0x01), 0x01)\n        /* \"@openzeppelin/contracts@4.7.3/token/ERC20/ERC20.sol\":7679:7695  to != address(0) */\n      dup3\n      and\n        /* \"@openzeppelin/contracts@4.7.3/token/ERC20/ERC20.sol\":7671:7735  require(to != address(0), \"ERC20: transfer to the zero address\") */\n      tag_225\n      jumpi\n      mload(0x40)\n      shl(0xe5, 0x461bcd)\n      dup2\n      mstore\n        /* \"#utility.yul\":8789:8791   */\n      0x20\n        /* \"@openzeppelin/contracts@4.7.3/token/ERC20/ERC20.sol\":7671:7735  require(to != address(0), \"ERC20: transfer to the zero address\") */\n      0x04\n      dup3\n      add\n        /* \"#utility.yul\":8771:8792   */\n      mstore\n        /* \"#utility.yul\":8828:8830   */\n      0x23\n        /* \"#utility.yul\":8808:8826   */\n      0x24\n      dup3\n      add\n        /* \"#utility.yul\":8801:8831   */\n      mstore\n        /* \"#utility.yul\":8867:8901   */\n      0x45524332303a207472616e7366657220746f20746865207a65726f2061646472\n        /* \"#utility.yul\":8847:8865   */\n      0x44\n      dup3\n      add\n        /* \"#utility.yul\":8840:8902   */\n      mstore\n      shl(0xe8, 0x657373)\n        /* \"#utility.yul\":8918:8936   */\n      0x64\n      dup3\n      add\n        /* \"#utility.yul\":8911:8944   */\n      mstore\n        /* \"#utility.yul\":8961:8980   */\n      0x84\n      add\n        /* \"@openzeppelin/contracts@4.7.3/token/ERC20/ERC20.sol\":7671:7735  require(to != address(0), \"ERC20: transfer to the zero address\") */\n      tag_160\n        /* \"#utility.yul\":8587:8986   */\n      jump\n        /* \"@openzeppelin/contracts@4.7.3/token/ERC20/ERC20.sol\":7671:7735  require(to != address(0), \"ERC20: transfer to the zero address\") */\n    tag_225:\n      sub(shl(0xa0, 0x01), 0x01)\n        /* \"@openzeppelin/contracts@4.7.3/token/ERC20/ERC20.sol\":7817:7832  _balances[from] */\n      dup4\n      and\n        /* \"@openzeppelin/contracts@4.7.3/token/ERC20/ERC20.sol\":7795:7814  uint256 fromBalance */\n      0x00\n        /* \"@openzeppelin/contracts@4.7.3/token/ERC20/ERC20.sol\":7817:7832  _balances[from] */\n      swap1\n      dup2\n      mstore\n      0x20\n      dup2\n      swap1\n      mstore\n      0x40\n      swap1\n      keccak256\n      sload\n        /* \"@openzeppelin/contracts@4.7.3/token/ERC20/ERC20.sol\":7850:7871  fromBalance >= amount */\n      dup2\n      dup2\n      lt\n      iszero\n        /* \"@openzeppelin/contracts@4.7.3/token/ERC20/ERC20.sol\":7842:7914  require(fromBalance >= amount, \"ERC20: transfer amount exceeds balance\") */\n      tag_230\n      jumpi\n      mload(0x40)\n      shl(0xe5, 0x461bcd)\n      dup2\n      mstore\n        /* \"#utility.yul\":9193:9195   */\n      0x20\n        /* \"@openzeppelin/contracts@4.7.3/token/ERC20/ERC20.sol\":7842:7914  require(fromBalance >= amount, \"ERC20: transfer amount exceeds balance\") */\n      0x04\n      dup3\n      add\n        /* \"#utility.yul\":9175:9196   */\n      mstore\n        /* \"#utility.yul\":9232:9234   */\n      0x26\n        /* \"#utility.yul\":9212:9230   */\n      0x24\n      dup3\n      add\n        /* \"#utility.yul\":9205:9235   */\n      mstore\n        /* \"#utility.yul\":9271:9305   */\n      0x45524332303a207472616e7366657220616d6f756e7420657863656564732062\n        /* \"#utility.yul\":9251:9269   */\n      0x44\n      dup3\n      add\n        /* \"#utility.yul\":9244:9306   */\n      mstore\n      shl(0xd0, 0x616c616e6365)\n        /* \"#utility.yul\":9322:9340   */\n      0x64\n      dup3\n      add\n        /* \"#utility.yul\":9315:9351   */\n      mstore\n        /* \"#utility.yul\":9368:9387   */\n      0x84\n      add\n        /* \"@openzeppelin/contracts@4.7.3/token/ERC20/ERC20.sol\":7842:7914  require(fromBalance >= amount, \"ERC20: transfer amount exceeds balance\") */\n      tag_160\n        /* \"#utility.yul\":8991:9393   */\n      jump\n        /* \"@openzeppelin/contracts@4.7.3/token/ERC20/ERC20.sol\":7842:7914  require(fromBalance >= amount, \"ERC20: transfer amount exceeds balance\") */\n    tag_230:\n      sub(shl(0xa0, 0x01), 0x01)\n        /* \"@openzeppelin/contracts@4.7.3/token/ERC20/ERC20.sol\":7948:7963  _balances[from] */\n      dup1\n      dup6\n      and\n        /* \"@openzeppelin/contracts@4.7.3/token/ERC20/ERC20.sol\":7948:7957  _balances */\n      0x00\n        /* \"@openzeppelin/contracts@4.7.3/token/ERC20/ERC20.sol\":7948:7963  _balances[from] */\n      swap1\n      dup2\n      mstore\n      0x20\n      dup2\n      swap1\n      mstore\n      0x40\n      dup1\n      dup3\n      keccak256\n        /* \"@openzeppelin/contracts@4.7.3/token/ERC20/ERC20.sol\":7966:7986  fromBalance - amount */\n      dup6\n      dup6\n      sub\n        /* \"@openzeppelin/contracts@4.7.3/token/ERC20/ERC20.sol\":7948:7986  _balances[from] = fromBalance - amount */\n      swap1\n      sstore\n        /* \"@openzeppelin/contracts@4.7.3/token/ERC20/ERC20.sol\":8006:8019  _balances[to] */\n      swap2\n      dup6\n      and\n      dup2\n      mstore\n      swap1\n      dup2\n      keccak256\n        /* \"@openzeppelin/contracts@4.7.3/token/ERC20/ERC20.sol\":8006:8029  _balances[to] += amount */\n      dup1\n      sload\n        /* \"@openzeppelin/contracts@4.7.3/token/ERC20/ERC20.sol\":7980:7986  amount */\n      dup5\n      swap3\n        /* \"@openzeppelin/contracts@4.7.3/token/ERC20/ERC20.sol\":7948:7957  _balances */\n      swap1\n        /* \"@openzeppelin/contracts@4.7.3/token/ERC20/ERC20.sol\":8006:8029  _balances[to] += amount */\n      tag_233\n      swap1\n        /* \"@openzeppelin/contracts@4.7.3/token/ERC20/ERC20.sol\":7980:7986  amount */\n      dup5\n      swap1\n        /* \"@openzeppelin/contracts@4.7.3/token/ERC20/ERC20.sol\":8006:8029  _balances[to] += amount */\n      tag_140\n      jump\t// in\n    tag_233:\n      swap3\n      pop\n      pop\n      dup2\n      swap1\n      sstore\n      pop\n        /* \"@openzeppelin/contracts@4.7.3/token/ERC20/ERC20.sol\":8060:8062  to */\n      dup3\n      sub(shl(0xa0, 0x01), 0x01)\n        /* \"@openzeppelin/contracts@4.7.3/token/ERC20/ERC20.sol\":8045:8071  Transfer(from, to, amount) */\n      and\n        /* \"@openzeppelin/contracts@4.7.3/token/ERC20/ERC20.sol\":8054:8058  from */\n      dup5\n      sub(shl(0xa0, 0x01), 0x01)\n        /* \"@openzeppelin/contracts@4.7.3/token/ERC20/ERC20.sol\":8045:8071  Transfer(from, to, amount) */\n      and\n      0xddf252ad1be2c89b69c2b068fc378daa952ba7f163c4a11628f55a4df523b3ef\n        /* \"@openzeppelin/contracts@4.7.3/token/ERC20/ERC20.sol\":8064:8070  amount */\n      dup5\n        /* \"@openzeppelin/contracts@4.7.3/token/ERC20/ERC20.sol\":8045:8071  Transfer(from, to, amount) */\n      mload(0x40)\n      tag_234\n      swap2\n        /* \"#utility.yul\":1342:1367   */\n      dup2\n      mstore\n        /* \"#utility.yul\":1330:1332   */\n      0x20\n        /* \"#utility.yul\":1315:1333   */\n      add\n      swap1\n        /* \"#utility.yul\":1196:1373   */\n      jump\n        /* \"@openzeppelin/contracts@4.7.3/token/ERC20/ERC20.sol\":8045:8071  Transfer(from, to, amount) */\n    tag_234:\n      mload(0x40)\n      dup1\n      swap2\n      sub\n      swap1\n      log3\n        /* \"@openzeppelin/contracts@4.7.3/token/ERC20/ERC20.sol\":8082:8119  _afterTokenTransfer(from, to, amount) */\n      tag_181\n        /* \"P2PLending.sol\":1087:1615  function transferToAddr(address _from, address _to, uint _amount) external {... */\n      jump\n        /* \"@openzeppelin/contracts@4.7.3/utils/cryptography/draft-EIP712.sol\":3143:3451  function _domainSeparatorV4() internal view returns (bytes32) {... */\n    tag_134:\n        /* \"@openzeppelin/contracts@4.7.3/utils/cryptography/draft-EIP712.sol\":3196:3203  bytes32 */\n      0x00\n        /* \"@openzeppelin/contracts@4.7.3/utils/cryptography/draft-EIP712.sol\":3227:3231  this */\n      address\n      sub(shl(0xa0, 0x01), 0x01)\n        /* \"@openzeppelin/contracts@4.7.3/utils/cryptography/draft-EIP712.sol\":3236:3248  _CACHED_THIS */\n      immutable(\"0x029f4bc6ebbac7821b38f11e82c50ce2b63772f63b6ad2c35af4c148b2c4bad3\")\n        /* \"@openzeppelin/contracts@4.7.3/utils/cryptography/draft-EIP712.sol\":3219:3248  address(this) == _CACHED_THIS */\n      and\n      eq\n        /* \"@openzeppelin/contracts@4.7.3/utils/cryptography/draft-EIP712.sol\":3219:3285  address(this) == _CACHED_THIS && block.chainid == _CACHED_CHAIN_ID */\n      dup1\n      iszero\n      tag_238\n      jumpi\n      pop\n        /* \"@openzeppelin/contracts@4.7.3/utils/cryptography/draft-EIP712.sol\":3269:3285  _CACHED_CHAIN_ID */\n      immutable(\"0x79ede0e1d4663a040c0927e7555c0aa914d60646b0bd94798f4654567b709b95\")\n        /* \"@openzeppelin/contracts@4.7.3/utils/cryptography/draft-EIP712.sol\":3252:3265  block.chainid */\n      chainid\n        /* \"@openzeppelin/contracts@4.7.3/utils/cryptography/draft-EIP712.sol\":3252:3285  block.chainid == _CACHED_CHAIN_ID */\n      eq\n        /* \"@openzeppelin/contracts@4.7.3/utils/cryptography/draft-EIP712.sol\":3219:3285  address(this) == _CACHED_THIS && block.chainid == _CACHED_CHAIN_ID */\n    tag_238:\n        /* \"@openzeppelin/contracts@4.7.3/utils/cryptography/draft-EIP712.sol\":3215:3445  if (address(this) == _CACHED_THIS && block.chainid == _CACHED_CHAIN_ID) {... */\n      iszero\n      tag_239\n      jumpi\n      pop\n        /* \"@openzeppelin/contracts@4.7.3/utils/cryptography/draft-EIP712.sol\":3308:3332  _CACHED_DOMAIN_SEPARATOR */\n      immutable(\"0x287b91f0b101ece3728dd9f02ea2865cf4f06b72e55fc122f67e14412d5d078c\")\n      swap1\n        /* \"@openzeppelin/contracts@4.7.3/utils/cryptography/draft-EIP712.sol\":3143:3451  function _domainSeparatorV4() internal view returns (bytes32) {... */\n      jump\t// out\n        /* \"@openzeppelin/contracts@4.7.3/utils/cryptography/draft-EIP712.sol\":3215:3445  if (address(this) == _CACHED_THIS && block.chainid == _CACHED_CHAIN_ID) {... */\n    tag_239:\n      pop\n        /* \"@openzeppelin/contracts@4.7.3/utils/cryptography/draft-EIP712.sol\":3633:3706  abi.encode(typeHash, nameHash, versionHash, block.chainid, address(this)) */\n      0x40\n      dup1\n      mload\n        /* \"@openzeppelin/contracts@4.7.3/utils/cryptography/draft-EIP712.sol\":3392:3402  _TYPE_HASH */\n      immutable(\"0xbb18ebaa1cddf829bcac2337ea2baf9a257d86fba8ce2baebe40d33d4470291e\")\n        /* \"@openzeppelin/contracts@4.7.3/utils/cryptography/draft-EIP712.sol\":3633:3706  abi.encode(typeHash, nameHash, versionHash, block.chainid, address(this)) */\n      0x20\n      dup1\n      dup4\n      add\n        /* \"#utility.yul\":10017:10042   */\n      swap2\n      swap1\n      swap2\n      mstore\n        /* \"@openzeppelin/contracts@4.7.3/utils/cryptography/draft-EIP712.sol\":3404:3416  _HASHED_NAME */\n      immutable(\"0x4f4ac30ff8bfcef8cd1068d1427faf7fb52fa3a1610b1f430e1f69a91ebb9673\")\n        /* \"#utility.yul\":10058:10076   */\n      dup3\n      dup5\n      add\n        /* \"#utility.yul\":10051:10085   */\n      mstore\n        /* \"@openzeppelin/contracts@4.7.3/utils/cryptography/draft-EIP712.sol\":3418:3433  _HASHED_VERSION */\n      immutable(\"0x3ab4fb69c8e122442af87ae588015f836e7cde3029bbb6dab1983bc840231d63\")\n        /* \"#utility.yul\":10101:10119   */\n      0x60\n      dup4\n      add\n        /* \"#utility.yul\":10094:10128   */\n      mstore\n        /* \"@openzeppelin/contracts@4.7.3/utils/cryptography/draft-EIP712.sol\":3677:3690  block.chainid */\n      chainid\n        /* \"#utility.yul\":10144:10162   */\n      0x80\n      dup4\n      add\n        /* \"#utility.yul\":10137:10171   */\n      mstore\n        /* \"@openzeppelin/contracts@4.7.3/utils/cryptography/draft-EIP712.sol\":3700:3704  this */\n      address\n        /* \"#utility.yul\":10187:10206   */\n      0xa0\n      dup1\n      dup5\n      add\n        /* \"#utility.yul\":10180:10241   */\n      swap2\n      swap1\n      swap2\n      mstore\n        /* \"@openzeppelin/contracts@4.7.3/utils/cryptography/draft-EIP712.sol\":3633:3706  abi.encode(typeHash, nameHash, versionHash, block.chainid, address(this)) */\n      dup4\n      mload\n      dup1\n      dup5\n      sub\n      swap1\n      swap2\n      add\n      dup2\n      mstore\n        /* \"#utility.yul\":9989:10008   */\n      0xc0\n      swap1\n      swap3\n      add\n        /* \"@openzeppelin/contracts@4.7.3/utils/cryptography/draft-EIP712.sol\":3633:3706  abi.encode(typeHash, nameHash, versionHash, block.chainid, address(this)) */\n      swap1\n      swap3\n      mstore\n        /* \"@openzeppelin/contracts@4.7.3/utils/cryptography/draft-EIP712.sol\":3623:3707  keccak256(abi.encode(typeHash, nameHash, versionHash, block.chainid, address(this))) */\n      dup1\n      mload\n      swap2\n      add\n      keccak256\n      swap1\n        /* \"@openzeppelin/contracts@4.7.3/token/ERC20/extensions/draft-ERC20Permit.sol\":2885:2998  function DOMAIN_SEPARATOR() external view override returns (bytes32) {... */\n      jump\t// out\n        /* \"@openzeppelin/contracts@4.7.3/token/ERC20/ERC20.sol\":8402:8791  function _mint(address account, uint256 amount) internal virtual {... */\n    tag_145:\n      sub(shl(0xa0, 0x01), 0x01)\n        /* \"@openzeppelin/contracts@4.7.3/token/ERC20/ERC20.sol\":8485:8506  account != address(0) */\n      dup3\n      and\n        /* \"@openzeppelin/contracts@4.7.3/token/ERC20/ERC20.sol\":8477:8542  require(account != address(0), \"ERC20: mint to the zero address\") */\n      tag_244\n      jumpi\n      mload(0x40)\n      shl(0xe5, 0x461bcd)\n      dup2\n      mstore\n        /* \"#utility.yul\":9600:9602   */\n      0x20\n        /* \"@openzeppelin/contracts@4.7.3/token/ERC20/ERC20.sol\":8477:8542  require(account != address(0), \"ERC20: mint to the zero address\") */\n      0x04\n      dup3\n      add\n        /* \"#utility.yul\":9582:9603   */\n      mstore\n        /* \"#utility.yul\":9639:9641   */\n      0x1f\n        /* \"#utility.yul\":9619:9637   */\n      0x24\n      dup3\n      add\n        /* \"#utility.yul\":9612:9642   */\n      mstore\n        /* \"#utility.yul\":9678:9711   */\n      0x45524332303a206d696e7420746f20746865207a65726f206164647265737300\n        /* \"#utility.yul\":9658:9676   */\n      0x44\n      dup3\n      add\n        /* \"#utility.yul\":9651:9712   */\n      mstore\n        /* \"#utility.yul\":9729:9747   */\n      0x64\n      add\n        /* \"@openzeppelin/contracts@4.7.3/token/ERC20/ERC20.sol\":8477:8542  require(account != address(0), \"ERC20: mint to the zero address\") */\n      tag_160\n        /* \"#utility.yul\":9398:9753   */\n      jump\n        /* \"@openzeppelin/contracts@4.7.3/token/ERC20/ERC20.sol\":8477:8542  require(account != address(0), \"ERC20: mint to the zero address\") */\n    tag_244:\n        /* \"@openzeppelin/contracts@4.7.3/token/ERC20/ERC20.sol\":8629:8635  amount */\n      dup1\n        /* \"@openzeppelin/contracts@4.7.3/token/ERC20/ERC20.sol\":8613:8625  _totalSupply */\n      0x02\n      0x00\n        /* \"@openzeppelin/contracts@4.7.3/token/ERC20/ERC20.sol\":8613:8635  _totalSupply += amount */\n      dup3\n      dup3\n      sload\n      tag_248\n      swap2\n      swap1\n      tag_140\n      jump\t// in\n    tag_248:\n      swap1\n      swap2\n      sstore\n      pop\n      pop\n      sub(shl(0xa0, 0x01), 0x01)\n        /* \"@openzeppelin/contracts@4.7.3/token/ERC20/ERC20.sol\":8645:8663  _balances[account] */\n      dup3\n      and\n        /* \"@openzeppelin/contracts@4.7.3/token/ERC20/ERC20.sol\":8645:8654  _balances */\n      0x00\n        /* \"@openzeppelin/contracts@4.7.3/token/ERC20/ERC20.sol\":8645:8663  _balances[account] */\n      swap1\n      dup2\n      mstore\n      0x20\n      dup2\n      swap1\n      mstore\n      0x40\n      dup2\n      keccak256\n        /* \"@openzeppelin/contracts@4.7.3/token/ERC20/ERC20.sol\":8645:8673  _balances[account] += amount */\n      dup1\n      sload\n        /* \"@openzeppelin/contracts@4.7.3/token/ERC20/ERC20.sol\":8667:8673  amount */\n      dup4\n      swap3\n        /* \"@openzeppelin/contracts@4.7.3/token/ERC20/ERC20.sol\":8645:8654  _balances */\n      swap1\n        /* \"@openzeppelin/contracts@4.7.3/token/ERC20/ERC20.sol\":8645:8673  _balances[account] += amount */\n      tag_249\n      swap1\n        /* \"@openzeppelin/contracts@4.7.3/token/ERC20/ERC20.sol\":8667:8673  amount */\n      dup5\n      swap1\n        /* \"@openzeppelin/contracts@4.7.3/token/ERC20/ERC20.sol\":8645:8673  _balances[account] += amount */\n      tag_140\n      jump\t// in\n    tag_249:\n      swap1\n      swap2\n      sstore\n      pop\n      pop\n        /* \"@openzeppelin/contracts@4.7.3/token/ERC20/ERC20.sol\":8688:8725  Transfer(address(0), account, amount) */\n      mload(0x40)\n        /* \"#utility.yul\":1342:1367   */\n      dup2\n      dup2\n      mstore\n      sub(shl(0xa0, 0x01), 0x01)\n        /* \"@openzeppelin/contracts@4.7.3/token/ERC20/ERC20.sol\":8688:8725  Transfer(address(0), account, amount) */\n      dup4\n      and\n      swap1\n        /* \"@openzeppelin/contracts@4.7.3/token/ERC20/ERC20.sol\":8705:8706  0 */\n      0x00\n      swap1\n        /* \"@openzeppelin/contracts@4.7.3/token/ERC20/ERC20.sol\":8688:8725  Transfer(address(0), account, amount) */\n      0xddf252ad1be2c89b69c2b068fc378daa952ba7f163c4a11628f55a4df523b3ef\n      swap1\n        /* \"#utility.yul\":1330:1332   */\n      0x20\n        /* \"#utility.yul\":1315:1333   */\n      add\n        /* \"@openzeppelin/contracts@4.7.3/token/ERC20/ERC20.sol\":8688:8725  Transfer(address(0), account, amount) */\n      mload(0x40)\n      dup1\n      swap2\n      sub\n      swap1\n      log3\n        /* \"P2PLending.sol\":958:1081  function transfertoContract(address _from, uint _amount) external {... */\n      pop\n      pop\n      jump\t// out\n        /* \"@openzeppelin/contracts@4.7.3/token/ERC20/extensions/draft-ERC20Permit.sol\":3129:3332  function _useNonce(address owner) internal virtual returns (uint256 current) {... */\n    tag_190:\n      sub(shl(0xa0, 0x01), 0x01)\n        /* \"@openzeppelin/contracts@4.7.3/token/ERC20/extensions/draft-ERC20Permit.sol\":3249:3263  _nonces[owner] */\n      dup2\n      and\n        /* \"@openzeppelin/contracts@4.7.3/token/ERC20/extensions/draft-ERC20Permit.sol\":3189:3204  uint256 current */\n      0x00\n        /* \"@openzeppelin/contracts@4.7.3/token/ERC20/extensions/draft-ERC20Permit.sol\":3249:3263  _nonces[owner] */\n      swap1\n      dup2\n      mstore\n        /* \"@openzeppelin/contracts@4.7.3/token/ERC20/extensions/draft-ERC20Permit.sol\":3249:3256  _nonces */\n      0x05\n        /* \"@openzeppelin/contracts@4.7.3/token/ERC20/extensions/draft-ERC20Permit.sol\":3249:3263  _nonces[owner] */\n      0x20\n      mstore\n      0x40\n      swap1\n      keccak256\n        /* \"@openzeppelin/contracts@4.7.3/utils/Counters.sol\":918:932  counter._value */\n      dup1\n      sload\n        /* \"@openzeppelin/contracts@4.7.3/utils/Counters.sol\":1050:1051  1 */\n      0x01\n        /* \"@openzeppelin/contracts@4.7.3/utils/Counters.sol\":1032:1051  counter._value += 1 */\n      dup2\n      add\n      dup3\n      sstore\n        /* \"@openzeppelin/contracts@4.7.3/utils/Counters.sol\":918:932  counter._value */\n      swap1\n        /* \"@openzeppelin/contracts@4.7.3/token/ERC20/extensions/draft-ERC20Permit.sol\":3308:3325  nonce.increment() */\n    tag_255:\n        /* \"@openzeppelin/contracts@4.7.3/token/ERC20/extensions/draft-ERC20Permit.sol\":3206:3332  {... */\n      pop\n        /* \"@openzeppelin/contracts@4.7.3/token/ERC20/extensions/draft-ERC20Permit.sol\":3129:3332  function _useNonce(address owner) internal virtual returns (uint256 current) {... */\n      swap2\n      swap1\n      pop\n      jump\t// out\n        /* \"@openzeppelin/contracts@4.7.3/utils/cryptography/draft-EIP712.sol\":4339:4504  function _hashTypedDataV4(bytes32 structHash) internal view virtual returns (bytes32) {... */\n    tag_194:\n        /* \"@openzeppelin/contracts@4.7.3/utils/cryptography/draft-EIP712.sol\":4416:4423  bytes32 */\n      0x00\n        /* \"@openzeppelin/contracts@4.7.3/utils/cryptography/draft-EIP712.sol\":4442:4497  ECDSA.toTypedDataHash(_domainSeparatorV4(), structHash) */\n      tag_119\n        /* \"@openzeppelin/contracts@4.7.3/utils/cryptography/draft-EIP712.sol\":4464:4484  _domainSeparatorV4() */\n      tag_259\n        /* \"@openzeppelin/contracts@4.7.3/utils/cryptography/draft-EIP712.sol\":4464:4482  _domainSeparatorV4 */\n      tag_134\n        /* \"@openzeppelin/contracts@4.7.3/utils/cryptography/draft-EIP712.sol\":4464:4484  _domainSeparatorV4() */\n      jump\t// in\n    tag_259:\n        /* \"@openzeppelin/contracts@4.7.3/utils/cryptography/draft-EIP712.sol\":4486:4496  structHash */\n      dup4\n        /* \"@openzeppelin/contracts@4.7.3/utils/cryptography/ECDSA.sol\":8677:8734  abi.encodePacked(\"\\x19\\x01\", domainSeparator, structHash) */\n      mload(0x40)\n      shl(0xf0, 0x1901)\n      0x20\n      dup3\n      add\n        /* \"#utility.yul\":10510:10537   */\n      mstore\n        /* \"#utility.yul\":10553:10564   */\n      0x22\n      dup2\n      add\n        /* \"#utility.yul\":10546:10573   */\n      dup4\n      swap1\n      mstore\n        /* \"#utility.yul\":10589:10601   */\n      0x42\n      dup2\n      add\n        /* \"#utility.yul\":10582:10610   */\n      dup3\n      swap1\n      mstore\n        /* \"@openzeppelin/contracts@4.7.3/utils/cryptography/ECDSA.sol\":8641:8648  bytes32 */\n      0x00\n      swap1\n        /* \"#utility.yul\":10626:10638   */\n      0x62\n      add\n        /* \"@openzeppelin/contracts@4.7.3/utils/cryptography/ECDSA.sol\":8677:8734  abi.encodePacked(\"\\x19\\x01\", domainSeparator, structHash) */\n      mload(0x40)\n      0x20\n      dup2\n      dup4\n      sub\n      sub\n      dup2\n      mstore\n      swap1\n      0x40\n      mstore\n        /* \"@openzeppelin/contracts@4.7.3/utils/cryptography/ECDSA.sol\":8667:8735  keccak256(abi.encodePacked(\"\\x19\\x01\", domainSeparator, structHash)) */\n      dup1\n      mload\n      swap1\n      0x20\n      add\n      keccak256\n        /* \"@openzeppelin/contracts@4.7.3/utils/cryptography/ECDSA.sol\":8660:8735  return keccak256(abi.encodePacked(\"\\x19\\x01\", domainSeparator, structHash)) */\n      swap1\n      pop\n        /* \"@openzeppelin/contracts@4.7.3/utils/cryptography/ECDSA.sol\":8548:8742  function toTypedDataHash(bytes32 domainSeparator, bytes32 structHash) internal pure returns (bytes32) {... */\n      swap3\n      swap2\n      pop\n      pop\n      jump\n        /* \"@openzeppelin/contracts@4.7.3/utils/cryptography/ECDSA.sol\":6903:7173  function recover(... */\n    tag_196:\n        /* \"@openzeppelin/contracts@4.7.3/utils/cryptography/ECDSA.sol\":7026:7033  address */\n      0x00\n        /* \"@openzeppelin/contracts@4.7.3/utils/cryptography/ECDSA.sol\":7046:7063  address recovered */\n      dup1\n        /* \"@openzeppelin/contracts@4.7.3/utils/cryptography/ECDSA.sol\":7065:7083  RecoverError error */\n      0x00\n        /* \"@openzeppelin/contracts@4.7.3/utils/cryptography/ECDSA.sol\":7087:7112  tryRecover(hash, v, r, s) */\n      tag_262\n        /* \"@openzeppelin/contracts@4.7.3/utils/cryptography/ECDSA.sol\":7098:7102  hash */\n      dup8\n        /* \"@openzeppelin/contracts@4.7.3/utils/cryptography/ECDSA.sol\":7104:7105  v */\n      dup8\n        /* \"@openzeppelin/contracts@4.7.3/utils/cryptography/ECDSA.sol\":7107:7108  r */\n      dup8\n        /* \"@openzeppelin/contracts@4.7.3/utils/cryptography/ECDSA.sol\":7110:7111  s */\n      dup8\n        /* \"@openzeppelin/contracts@4.7.3/utils/cryptography/ECDSA.sol\":7087:7097  tryRecover */\n      tag_263\n        /* \"@openzeppelin/contracts@4.7.3/utils/cryptography/ECDSA.sol\":7087:7112  tryRecover(hash, v, r, s) */\n      jump\t// in\n    tag_262:\n        /* \"@openzeppelin/contracts@4.7.3/utils/cryptography/ECDSA.sol\":7045:7112  (address recovered, RecoverError error) = tryRecover(hash, v, r, s) */\n      swap2\n      pop\n      swap2\n      pop\n        /* \"@openzeppelin/contracts@4.7.3/utils/cryptography/ECDSA.sol\":7122:7140  _throwError(error) */\n      tag_264\n        /* \"@openzeppelin/contracts@4.7.3/utils/cryptography/ECDSA.sol\":7134:7139  error */\n      dup2\n        /* \"@openzeppelin/contracts@4.7.3/utils/cryptography/ECDSA.sol\":7122:7133  _throwError */\n      tag_265\n        /* \"@openzeppelin/contracts@4.7.3/utils/cryptography/ECDSA.sol\":7122:7140  _throwError(error) */\n      jump\t// in\n    tag_264:\n      pop\n        /* \"@openzeppelin/contracts@4.7.3/utils/cryptography/ECDSA.sol\":7157:7166  recovered */\n      swap6\n        /* \"@openzeppelin/contracts@4.7.3/utils/cryptography/ECDSA.sol\":6903:7173  function recover(... */\n      swap5\n      pop\n      pop\n      pop\n      pop\n      pop\n      jump\t// out\n        /* \"@openzeppelin/contracts@4.7.3/utils/cryptography/ECDSA.sol\":5167:6770  function tryRecover(... */\n    tag_263:\n        /* \"@openzeppelin/contracts@4.7.3/utils/cryptography/ECDSA.sol\":5293:5300  address */\n      0x00\n      dup1\n        /* \"@openzeppelin/contracts@4.7.3/utils/cryptography/ECDSA.sol\":6217:6283  0x7FFFFFFFFFFFFFFFFFFFFFFFFFFFFFFF5D576E7357A4501DDFE92F46681B20A0 */\n      0x7fffffffffffffffffffffffffffffff5d576e7357a4501ddfe92f46681b20a0\n        /* \"@openzeppelin/contracts@4.7.3/utils/cryptography/ECDSA.sol\":6204:6283  uint256(s) > 0x7FFFFFFFFFFFFFFFFFFFFFFFFFFFFFFF5D576E7357A4501DDFE92F46681B20A0 */\n      dup4\n      gt\n        /* \"@openzeppelin/contracts@4.7.3/utils/cryptography/ECDSA.sol\":6200:6361  if (uint256(s) > 0x7FFFFFFFFFFFFFFFFFFFFFFFFFFFFFFF5D576E7357A4501DDFE92F46681B20A0) {... */\n      iszero\n      tag_276\n      jumpi\n      pop\n        /* \"@openzeppelin/contracts@4.7.3/utils/cryptography/ECDSA.sol\":6315:6316  0 */\n      0x00\n      swap1\n      pop\n        /* \"@openzeppelin/contracts@4.7.3/utils/cryptography/ECDSA.sol\":6319:6349  RecoverError.InvalidSignatureS */\n      0x03\n        /* \"@openzeppelin/contracts@4.7.3/utils/cryptography/ECDSA.sol\":6299:6350  return (address(0), RecoverError.InvalidSignatureS) */\n      jump(tag_275)\n        /* \"@openzeppelin/contracts@4.7.3/utils/cryptography/ECDSA.sol\":6200:6361  if (uint256(s) > 0x7FFFFFFFFFFFFFFFFFFFFFFFFFFFFFFF5D576E7357A4501DDFE92F46681B20A0) {... */\n    tag_276:\n        /* \"@openzeppelin/contracts@4.7.3/utils/cryptography/ECDSA.sol\":6374:6375  v */\n      dup5\n        /* \"@openzeppelin/contracts@4.7.3/utils/cryptography/ECDSA.sol\":6374:6381  v != 27 */\n      0xff\n      and\n        /* \"@openzeppelin/contracts@4.7.3/utils/cryptography/ECDSA.sol\":6379:6381  27 */\n      0x1b\n        /* \"@openzeppelin/contracts@4.7.3/utils/cryptography/ECDSA.sol\":6374:6381  v != 27 */\n      eq\n      iszero\n        /* \"@openzeppelin/contracts@4.7.3/utils/cryptography/ECDSA.sol\":6374:6392  v != 27 && v != 28 */\n      dup1\n      iszero\n      tag_277\n      jumpi\n      pop\n        /* \"@openzeppelin/contracts@4.7.3/utils/cryptography/ECDSA.sol\":6385:6386  v */\n      dup5\n        /* \"@openzeppelin/contracts@4.7.3/utils/cryptography/ECDSA.sol\":6385:6392  v != 28 */\n      0xff\n      and\n        /* \"@openzeppelin/contracts@4.7.3/utils/cryptography/ECDSA.sol\":6390:6392  28 */\n      0x1c\n        /* \"@openzeppelin/contracts@4.7.3/utils/cryptography/ECDSA.sol\":6385:6392  v != 28 */\n      eq\n      iszero\n        /* \"@openzeppelin/contracts@4.7.3/utils/cryptography/ECDSA.sol\":6374:6392  v != 27 && v != 28 */\n    tag_277:\n        /* \"@openzeppelin/contracts@4.7.3/utils/cryptography/ECDSA.sol\":6370:6470  if (v != 27 && v != 28) {... */\n      iszero\n      tag_278\n      jumpi\n      pop\n        /* \"@openzeppelin/contracts@4.7.3/utils/cryptography/ECDSA.sol\":6424:6425  0 */\n      0x00\n      swap1\n      pop\n        /* \"@openzeppelin/contracts@4.7.3/utils/cryptography/ECDSA.sol\":6428:6458  RecoverError.InvalidSignatureV */\n      0x04\n        /* \"@openzeppelin/contracts@4.7.3/utils/cryptography/ECDSA.sol\":6408:6459  return (address(0), RecoverError.InvalidSignatureV) */\n      jump(tag_275)\n        /* \"@openzeppelin/contracts@4.7.3/utils/cryptography/ECDSA.sol\":6370:6470  if (v != 27 && v != 28) {... */\n    tag_278:\n        /* \"@openzeppelin/contracts@4.7.3/utils/cryptography/ECDSA.sol\":6581:6605  ecrecover(hash, v, r, s) */\n      0x40\n      dup1\n      mload\n        /* \"@openzeppelin/contracts@4.7.3/utils/cryptography/ECDSA.sol\":6564:6578  address signer */\n      0x00\n        /* \"@openzeppelin/contracts@4.7.3/utils/cryptography/ECDSA.sol\":6581:6605  ecrecover(hash, v, r, s) */\n      dup1\n      dup3\n      mstore\n      0x20\n      dup3\n      add\n      dup1\n      dup5\n      mstore\n        /* \"#utility.yul\":10876:10901   */\n      dup10\n      swap1\n      mstore\n        /* \"#utility.yul\":10949:10953   */\n      0xff\n        /* \"#utility.yul\":10937:10954   */\n      dup9\n      and\n        /* \"#utility.yul\":10917:10935   */\n      swap3\n      dup3\n      add\n        /* \"#utility.yul\":10910:10955   */\n      swap3\n      swap1\n      swap3\n      mstore\n        /* \"#utility.yul\":10971:10989   */\n      0x60\n      dup2\n      add\n        /* \"#utility.yul\":10964:10998   */\n      dup7\n      swap1\n      mstore\n        /* \"#utility.yul\":11014:11032   */\n      0x80\n      dup2\n      add\n        /* \"#utility.yul\":11007:11041   */\n      dup6\n      swap1\n      mstore\n        /* \"@openzeppelin/contracts@4.7.3/utils/cryptography/ECDSA.sol\":6581:6605  ecrecover(hash, v, r, s) */\n      0x01\n      swap1\n        /* \"#utility.yul\":10848:10867   */\n      0xa0\n      add\n        /* \"@openzeppelin/contracts@4.7.3/utils/cryptography/ECDSA.sol\":6581:6605  ecrecover(hash, v, r, s) */\n      0x20\n      mload(0x40)\n      0x20\n      dup2\n      sub\n      swap1\n      dup1\n      dup5\n      sub\n      swap1\n      dup6\n      gas\n      staticcall\n      iszero\n      dup1\n      iszero\n      tag_282\n      jumpi\n      returndatasize\n      0x00\n      dup1\n      returndatacopy\n      revert(0x00, returndatasize)\n    tag_282:\n      pop\n      pop\n      mload(add(not(0x1f), mload(0x40)))\n      swap2\n      pop\n      pop\n      sub(shl(0xa0, 0x01), 0x01)\n        /* \"@openzeppelin/contracts@4.7.3/utils/cryptography/ECDSA.sol\":6619:6639  signer == address(0) */\n      dup2\n      and\n        /* \"@openzeppelin/contracts@4.7.3/utils/cryptography/ECDSA.sol\":6615:6716  if (signer == address(0)) {... */\n      tag_283\n      jumpi\n        /* \"@openzeppelin/contracts@4.7.3/utils/cryptography/ECDSA.sol\":6671:6672  0 */\n      0x00\n        /* \"@openzeppelin/contracts@4.7.3/utils/cryptography/ECDSA.sol\":6675:6704  RecoverError.InvalidSignature */\n      0x01\n        /* \"@openzeppelin/contracts@4.7.3/utils/cryptography/ECDSA.sol\":6655:6705  return (address(0), RecoverError.InvalidSignature) */\n      swap3\n      pop\n      swap3\n      pop\n      pop\n      jump(tag_275)\n        /* \"@openzeppelin/contracts@4.7.3/utils/cryptography/ECDSA.sol\":6615:6716  if (signer == address(0)) {... */\n    tag_283:\n        /* \"@openzeppelin/contracts@4.7.3/utils/cryptography/ECDSA.sol\":6734:6740  signer */\n      swap2\n      pop\n        /* \"@openzeppelin/contracts@4.7.3/utils/cryptography/ECDSA.sol\":6742:6762  RecoverError.NoError */\n      0x00\n      swap1\n      pop\n        /* \"@openzeppelin/contracts@4.7.3/utils/cryptography/ECDSA.sol\":5167:6770  function tryRecover(... */\n    tag_275:\n      swap5\n      pop\n      swap5\n      swap3\n      pop\n      pop\n      pop\n      jump\t// out\n        /* \"@openzeppelin/contracts@4.7.3/utils/cryptography/ECDSA.sol\":548:1179  function _throwError(RecoverError error) private pure {... */\n    tag_265:\n        /* \"@openzeppelin/contracts@4.7.3/utils/cryptography/ECDSA.sol\":625:645  RecoverError.NoError */\n      0x00\n        /* \"@openzeppelin/contracts@4.7.3/utils/cryptography/ECDSA.sol\":616:621  error */\n      dup2\n        /* \"@openzeppelin/contracts@4.7.3/utils/cryptography/ECDSA.sol\":616:645  error == RecoverError.NoError */\n      0x04\n      dup2\n      gt\n      iszero\n      tag_289\n      jumpi\n      tag_289\n      tag_287\n      jump\t// in\n    tag_289:\n      sub\n        /* \"@openzeppelin/contracts@4.7.3/utils/cryptography/ECDSA.sol\":612:1173  if (error == RecoverError.NoError) {... */\n      tag_290\n      jumpi\n        /* \"@openzeppelin/contracts@4.7.3/utils/cryptography/ECDSA.sol\":548:1179  function _throwError(RecoverError error) private pure {... */\n      pop\n      jump\t// out\n        /* \"@openzeppelin/contracts@4.7.3/utils/cryptography/ECDSA.sol\":612:1173  if (error == RecoverError.NoError) {... */\n    tag_290:\n        /* \"@openzeppelin/contracts@4.7.3/utils/cryptography/ECDSA.sol\":721:750  RecoverError.InvalidSignature */\n      0x01\n        /* \"@openzeppelin/contracts@4.7.3/utils/cryptography/ECDSA.sol\":712:717  error */\n      dup2\n        /* \"@openzeppelin/contracts@4.7.3/utils/cryptography/ECDSA.sol\":712:750  error == RecoverError.InvalidSignature */\n      0x04\n      dup2\n      gt\n      iszero\n      tag_295\n      jumpi\n      tag_295\n      tag_287\n      jump\t// in\n    tag_295:\n      sub\n        /* \"@openzeppelin/contracts@4.7.3/utils/cryptography/ECDSA.sol\":708:1173  if (error == RecoverError.InvalidSignature) {... */\n      tag_296\n      jumpi\n        /* \"@openzeppelin/contracts@4.7.3/utils/cryptography/ECDSA.sol\":766:800  revert(\"ECDSA: invalid signature\") */\n      mload(0x40)\n      shl(0xe5, 0x461bcd)\n      dup2\n      mstore\n        /* \"#utility.yul\":11386:11388   */\n      0x20\n        /* \"@openzeppelin/contracts@4.7.3/utils/cryptography/ECDSA.sol\":766:800  revert(\"ECDSA: invalid signature\") */\n      0x04\n      dup3\n      add\n        /* \"#utility.yul\":11368:11389   */\n      mstore\n        /* \"#utility.yul\":11425:11427   */\n      0x18\n        /* \"#utility.yul\":11405:11423   */\n      0x24\n      dup3\n      add\n        /* \"#utility.yul\":11398:11428   */\n      mstore\n        /* \"#utility.yul\":11464:11490   */\n      0x45434453413a20696e76616c6964207369676e61747572650000000000000000\n        /* \"#utility.yul\":11444:11462   */\n      0x44\n      dup3\n      add\n        /* \"#utility.yul\":11437:11491   */\n      mstore\n        /* \"#utility.yul\":11508:11526   */\n      0x64\n      add\n        /* \"@openzeppelin/contracts@4.7.3/utils/cryptography/ECDSA.sol\":766:800  revert(\"ECDSA: invalid signature\") */\n      tag_160\n        /* \"#utility.yul\":11184:11532   */\n      jump\n        /* \"@openzeppelin/contracts@4.7.3/utils/cryptography/ECDSA.sol\":708:1173  if (error == RecoverError.InvalidSignature) {... */\n    tag_296:\n        /* \"@openzeppelin/contracts@4.7.3/utils/cryptography/ECDSA.sol\":830:865  RecoverError.InvalidSignatureLength */\n      0x02\n        /* \"@openzeppelin/contracts@4.7.3/utils/cryptography/ECDSA.sol\":821:826  error */\n      dup2\n        /* \"@openzeppelin/contracts@4.7.3/utils/cryptography/ECDSA.sol\":821:865  error == RecoverError.InvalidSignatureLength */\n      0x04\n      dup2\n      gt\n      iszero\n      tag_303\n      jumpi\n      tag_303\n      tag_287\n      jump\t// in\n    tag_303:\n      sub\n        /* \"@openzeppelin/contracts@4.7.3/utils/cryptography/ECDSA.sol\":817:1173  if (error == RecoverError.InvalidSignatureLength) {... */\n      tag_304\n      jumpi\n        /* \"@openzeppelin/contracts@4.7.3/utils/cryptography/ECDSA.sol\":881:922  revert(\"ECDSA: invalid signature length\") */\n      mload(0x40)\n      shl(0xe5, 0x461bcd)\n      dup2\n      mstore\n        /* \"#utility.yul\":11739:11741   */\n      0x20\n        /* \"@openzeppelin/contracts@4.7.3/utils/cryptography/ECDSA.sol\":881:922  revert(\"ECDSA: invalid signature length\") */\n      0x04\n      dup3\n      add\n        /* \"#utility.yul\":11721:11742   */\n      mstore\n        /* \"#utility.yul\":11778:11780   */\n      0x1f\n        /* \"#utility.yul\":11758:11776   */\n      0x24\n      dup3\n      add\n        /* \"#utility.yul\":11751:11781   */\n      mstore\n        /* \"#utility.yul\":11817:11850   */\n      0x45434453413a20696e76616c6964207369676e6174757265206c656e67746800\n        /* \"#utility.yul\":11797:11815   */\n      0x44\n      dup3\n      add\n        /* \"#utility.yul\":11790:11851   */\n      mstore\n        /* \"#utility.yul\":11868:11886   */\n      0x64\n      add\n        /* \"@openzeppelin/contracts@4.7.3/utils/cryptography/ECDSA.sol\":881:922  revert(\"ECDSA: invalid signature length\") */\n      tag_160\n        /* \"#utility.yul\":11537:11892   */\n      jump\n        /* \"@openzeppelin/contracts@4.7.3/utils/cryptography/ECDSA.sol\":817:1173  if (error == RecoverError.InvalidSignatureLength) {... */\n    tag_304:\n        /* \"@openzeppelin/contracts@4.7.3/utils/cryptography/ECDSA.sol\":952:982  RecoverError.InvalidSignatureS */\n      0x03\n        /* \"@openzeppelin/contracts@4.7.3/utils/cryptography/ECDSA.sol\":943:948  error */\n      dup2\n        /* \"@openzeppelin/contracts@4.7.3/utils/cryptography/ECDSA.sol\":943:982  error == RecoverError.InvalidSignatureS */\n      0x04\n      dup2\n      gt\n      iszero\n      tag_311\n      jumpi\n      tag_311\n      tag_287\n      jump\t// in\n    tag_311:\n      sub\n        /* \"@openzeppelin/contracts@4.7.3/utils/cryptography/ECDSA.sol\":939:1173  if (error == RecoverError.InvalidSignatureS) {... */\n      tag_312\n      jumpi\n        /* \"@openzeppelin/contracts@4.7.3/utils/cryptography/ECDSA.sol\":998:1042  revert(\"ECDSA: invalid signature 's' value\") */\n      mload(0x40)\n      shl(0xe5, 0x461bcd)\n      dup2\n      mstore\n        /* \"#utility.yul\":12099:12101   */\n      0x20\n        /* \"@openzeppelin/contracts@4.7.3/utils/cryptography/ECDSA.sol\":998:1042  revert(\"ECDSA: invalid signature 's' value\") */\n      0x04\n      dup3\n      add\n        /* \"#utility.yul\":12081:12102   */\n      mstore\n        /* \"#utility.yul\":12138:12140   */\n      0x22\n        /* \"#utility.yul\":12118:12136   */\n      0x24\n      dup3\n      add\n        /* \"#utility.yul\":12111:12141   */\n      mstore\n        /* \"#utility.yul\":12177:12211   */\n      0x45434453413a20696e76616c6964207369676e6174757265202773272076616c\n        /* \"#utility.yul\":12157:12175   */\n      0x44\n      dup3\n      add\n        /* \"#utility.yul\":12150:12212   */\n      mstore\n      shl(0xf0, 0x7565)\n        /* \"#utility.yul\":12228:12246   */\n      0x64\n      dup3\n      add\n        /* \"#utility.yul\":12221:12253   */\n      mstore\n        /* \"#utility.yul\":12270:12289   */\n      0x84\n      add\n        /* \"@openzeppelin/contracts@4.7.3/utils/cryptography/ECDSA.sol\":998:1042  revert(\"ECDSA: invalid signature 's' value\") */\n      tag_160\n        /* \"#utility.yul\":11897:12295   */\n      jump\n        /* \"@openzeppelin/contracts@4.7.3/utils/cryptography/ECDSA.sol\":939:1173  if (error == RecoverError.InvalidSignatureS) {... */\n    tag_312:\n        /* \"@openzeppelin/contracts@4.7.3/utils/cryptography/ECDSA.sol\":1072:1102  RecoverError.InvalidSignatureV */\n      0x04\n        /* \"@openzeppelin/contracts@4.7.3/utils/cryptography/ECDSA.sol\":1063:1068  error */\n      dup2\n        /* \"@openzeppelin/contracts@4.7.3/utils/cryptography/ECDSA.sol\":1063:1102  error == RecoverError.InvalidSignatureV */\n      0x04\n      dup2\n      gt\n      iszero\n      tag_319\n      jumpi\n      tag_319\n      tag_287\n      jump\t// in\n    tag_319:\n      sub\n        /* \"@openzeppelin/contracts@4.7.3/utils/cryptography/ECDSA.sol\":1059:1173  if (error == RecoverError.InvalidSignatureV) {... */\n      tag_320\n      jumpi\n        /* \"@openzeppelin/contracts@4.7.3/utils/cryptography/ECDSA.sol\":1118:1162  revert(\"ECDSA: invalid signature 'v' value\") */\n      mload(0x40)\n      shl(0xe5, 0x461bcd)\n      dup2\n      mstore\n        /* \"#utility.yul\":12502:12504   */\n      0x20\n        /* \"@openzeppelin/contracts@4.7.3/utils/cryptography/ECDSA.sol\":1118:1162  revert(\"ECDSA: invalid signature 'v' value\") */\n      0x04\n      dup3\n      add\n        /* \"#utility.yul\":12484:12505   */\n      mstore\n        /* \"#utility.yul\":12541:12543   */\n      0x22\n        /* \"#utility.yul\":12521:12539   */\n      0x24\n      dup3\n      add\n        /* \"#utility.yul\":12514:12544   */\n      mstore\n        /* \"#utility.yul\":12580:12614   */\n      0x45434453413a20696e76616c6964207369676e6174757265202776272076616c\n        /* \"#utility.yul\":12560:12578   */\n      0x44\n      dup3\n      add\n        /* \"#utility.yul\":12553:12615   */\n      mstore\n      shl(0xf0, 0x7565)\n        /* \"#utility.yul\":12631:12649   */\n      0x64\n      dup3\n      add\n        /* \"#utility.yul\":12624:12656   */\n      mstore\n        /* \"#utility.yul\":12673:12692   */\n      0x84\n      add\n        /* \"@openzeppelin/contracts@4.7.3/utils/cryptography/ECDSA.sol\":1118:1162  revert(\"ECDSA: invalid signature 'v' value\") */\n      tag_160\n        /* \"#utility.yul\":12300:12698   */\n      jump\n        /* \"@openzeppelin/contracts@4.7.3/utils/cryptography/ECDSA.sol\":1059:1173  if (error == RecoverError.InvalidSignatureV) {... */\n    tag_320:\n        /* \"@openzeppelin/contracts@4.7.3/utils/cryptography/ECDSA.sol\":548:1179  function _throwError(RecoverError error) private pure {... */\n      pop\n      jump\t// out\n        /* \"#utility.yul\":14:562   */\n    tag_30:\n        /* \"#utility.yul\":126:130   */\n      0x00\n        /* \"#utility.yul\":155:157   */\n      0x20\n        /* \"#utility.yul\":184:186   */\n      dup1\n        /* \"#utility.yul\":173:182   */\n      dup4\n        /* \"#utility.yul\":166:187   */\n      mstore\n        /* \"#utility.yul\":216:222   */\n      dup4\n        /* \"#utility.yul\":210:223   */\n      mload\n        /* \"#utility.yul\":259:265   */\n      dup1\n        /* \"#utility.yul\":254:256   */\n      dup3\n        /* \"#utility.yul\":243:252   */\n      dup6\n        /* \"#utility.yul\":239:257   */\n      add\n        /* \"#utility.yul\":232:266   */\n      mstore\n        /* \"#utility.yul\":284:285   */\n      0x00\n        /* \"#utility.yul\":294:434   */\n    tag_328:\n        /* \"#utility.yul\":308:314   */\n      dup2\n        /* \"#utility.yul\":305:306   */\n      dup2\n        /* \"#utility.yul\":302:315   */\n      lt\n        /* \"#utility.yul\":294:434   */\n      iszero\n      tag_330\n      jumpi\n        /* \"#utility.yul\":403:417   */\n      dup6\n      dup2\n      add\n        /* \"#utility.yul\":399:422   */\n      dup4\n      add\n        /* \"#utility.yul\":393:423   */\n      mload\n        /* \"#utility.yul\":369:386   */\n      dup6\n      dup3\n      add\n        /* \"#utility.yul\":388:390   */\n      0x40\n        /* \"#utility.yul\":365:391   */\n      add\n        /* \"#utility.yul\":358:424   */\n      mstore\n        /* \"#utility.yul\":323:333   */\n      dup3\n      add\n        /* \"#utility.yul\":294:434   */\n      jump(tag_328)\n    tag_330:\n        /* \"#utility.yul\":298:301   */\n      pop\n        /* \"#utility.yul\":483:484   */\n      0x00\n        /* \"#utility.yul\":478:480   */\n      0x40\n        /* \"#utility.yul\":469:475   */\n      dup3\n        /* \"#utility.yul\":458:467   */\n      dup7\n        /* \"#utility.yul\":454:476   */\n      add\n        /* \"#utility.yul\":450:481   */\n      add\n        /* \"#utility.yul\":443:485   */\n      mstore\n        /* \"#utility.yul\":553:555   */\n      0x40\n        /* \"#utility.yul\":546:548   */\n      0x1f\n        /* \"#utility.yul\":542:549   */\n      not\n        /* \"#utility.yul\":537:539   */\n      0x1f\n        /* \"#utility.yul\":529:535   */\n      dup4\n        /* \"#utility.yul\":525:540   */\n      add\n        /* \"#utility.yul\":521:550   */\n      and\n        /* \"#utility.yul\":510:519   */\n      dup6\n        /* \"#utility.yul\":506:551   */\n      add\n        /* \"#utility.yul\":502:556   */\n      add\n        /* \"#utility.yul\":494:556   */\n      swap3\n      pop\n      pop\n      pop\n        /* \"#utility.yul\":14:562   */\n      swap3\n      swap2\n      pop\n      pop\n      jump\t// out\n        /* \"#utility.yul\":567:740   */\n    tag_323:\n        /* \"#utility.yul\":635:655   */\n      dup1\n      calldataload\n      sub(shl(0xa0, 0x01), 0x01)\n        /* \"#utility.yul\":684:715   */\n      dup2\n      and\n        /* \"#utility.yul\":674:716   */\n      dup2\n      eq\n        /* \"#utility.yul\":664:734   */\n      tag_332\n      jumpi\n        /* \"#utility.yul\":730:731   */\n      0x00\n        /* \"#utility.yul\":727:728   */\n      dup1\n        /* \"#utility.yul\":720:732   */\n      revert\n        /* \"#utility.yul\":664:734   */\n    tag_332:\n        /* \"#utility.yul\":567:740   */\n      swap2\n      swap1\n      pop\n      jump\t// out\n        /* \"#utility.yul\":745:999   */\n    tag_33:\n        /* \"#utility.yul\":813:819   */\n      0x00\n        /* \"#utility.yul\":821:827   */\n      dup1\n        /* \"#utility.yul\":874:876   */\n      0x40\n        /* \"#utility.yul\":862:871   */\n      dup4\n        /* \"#utility.yul\":853:860   */\n      dup6\n        /* \"#utility.yul\":849:872   */\n      sub\n        /* \"#utility.yul\":845:877   */\n      slt\n        /* \"#utility.yul\":842:894   */\n      iszero\n      tag_334\n      jumpi\n        /* \"#utility.yul\":890:891   */\n      0x00\n        /* \"#utility.yul\":887:888   */\n      dup1\n        /* \"#utility.yul\":880:892   */\n      revert\n        /* \"#utility.yul\":842:894   */\n    tag_334:\n        /* \"#utility.yul\":913:942   */\n      tag_335\n        /* \"#utility.yul\":932:941   */\n      dup4\n        /* \"#utility.yul\":913:942   */\n      tag_323\n      jump\t// in\n    tag_335:\n        /* \"#utility.yul\":903:942   */\n      swap5\n        /* \"#utility.yul\":989:991   */\n      0x20\n        /* \"#utility.yul\":974:992   */\n      swap4\n      swap1\n      swap4\n      add\n        /* \"#utility.yul\":961:993   */\n      calldataload\n      swap4\n      pop\n      pop\n      pop\n        /* \"#utility.yul\":745:999   */\n      jump\t// out\n        /* \"#utility.yul\":1378:1706   */\n    tag_43:\n        /* \"#utility.yul\":1455:1461   */\n      0x00\n        /* \"#utility.yul\":1463:1469   */\n      dup1\n        /* \"#utility.yul\":1471:1477   */\n      0x00\n        /* \"#utility.yul\":1524:1526   */\n      0x60\n        /* \"#utility.yul\":1512:1521   */\n      dup5\n        /* \"#utility.yul\":1503:1510   */\n      dup7\n        /* \"#utility.yul\":1499:1522   */\n      sub\n        /* \"#utility.yul\":1495:1527   */\n      slt\n        /* \"#utility.yul\":1492:1544   */\n      iszero\n      tag_339\n      jumpi\n        /* \"#utility.yul\":1540:1541   */\n      0x00\n        /* \"#utility.yul\":1537:1538   */\n      dup1\n        /* \"#utility.yul\":1530:1542   */\n      revert\n        /* \"#utility.yul\":1492:1544   */\n    tag_339:\n        /* \"#utility.yul\":1563:1592   */\n      tag_340\n        /* \"#utility.yul\":1582:1591   */\n      dup5\n        /* \"#utility.yul\":1563:1592   */\n      tag_323\n      jump\t// in\n    tag_340:\n        /* \"#utility.yul\":1553:1592   */\n      swap3\n      pop\n        /* \"#utility.yul\":1611:1649   */\n      tag_341\n        /* \"#utility.yul\":1645:1647   */\n      0x20\n        /* \"#utility.yul\":1634:1643   */\n      dup6\n        /* \"#utility.yul\":1630:1648   */\n      add\n        /* \"#utility.yul\":1611:1649   */\n      tag_323\n      jump\t// in\n    tag_341:\n        /* \"#utility.yul\":1601:1649   */\n      swap2\n      pop\n        /* \"#utility.yul\":1696:1698   */\n      0x40\n        /* \"#utility.yul\":1685:1694   */\n      dup5\n        /* \"#utility.yul\":1681:1699   */\n      add\n        /* \"#utility.yul\":1668:1700   */\n      calldataload\n        /* \"#utility.yul\":1658:1700   */\n      swap1\n      pop\n        /* \"#utility.yul\":1378:1706   */\n      swap3\n      pop\n      swap3\n      pop\n      swap3\n      jump\t// out\n        /* \"#utility.yul\":2082:2268   */\n    tag_66:\n        /* \"#utility.yul\":2141:2147   */\n      0x00\n        /* \"#utility.yul\":2194:2196   */\n      0x20\n        /* \"#utility.yul\":2182:2191   */\n      dup3\n        /* \"#utility.yul\":2173:2180   */\n      dup5\n        /* \"#utility.yul\":2169:2192   */\n      sub\n        /* \"#utility.yul\":2165:2197   */\n      slt\n        /* \"#utility.yul\":2162:2214   */\n      iszero\n      tag_345\n      jumpi\n        /* \"#utility.yul\":2210:2211   */\n      0x00\n        /* \"#utility.yul\":2207:2208   */\n      dup1\n        /* \"#utility.yul\":2200:2212   */\n      revert\n        /* \"#utility.yul\":2162:2214   */\n    tag_345:\n        /* \"#utility.yul\":2233:2262   */\n      tag_346\n        /* \"#utility.yul\":2252:2261   */\n      dup3\n        /* \"#utility.yul\":2233:2262   */\n      tag_323\n      jump\t// in\n    tag_346:\n        /* \"#utility.yul\":2223:2262   */\n      swap4\n        /* \"#utility.yul\":2082:2268   */\n      swap3\n      pop\n      pop\n      pop\n      jump\t// out\n        /* \"#utility.yul\":2273:2429   */\n    tag_324:\n        /* \"#utility.yul\":2339:2359   */\n      dup1\n      calldataload\n        /* \"#utility.yul\":2399:2403   */\n      0xff\n        /* \"#utility.yul\":2388:2404   */\n      dup2\n      and\n        /* \"#utility.yul\":2378:2405   */\n      dup2\n      eq\n        /* \"#utility.yul\":2368:2423   */\n      tag_332\n      jumpi\n        /* \"#utility.yul\":2419:2420   */\n      0x00\n        /* \"#utility.yul\":2416:2417   */\n      dup1\n        /* \"#utility.yul\":2409:2421   */\n      revert\n        /* \"#utility.yul\":2434:2890   */\n    tag_97:\n        /* \"#utility.yul\":2527:2533   */\n      0x00\n        /* \"#utility.yul\":2535:2541   */\n      dup1\n        /* \"#utility.yul\":2543:2549   */\n      0x00\n        /* \"#utility.yul\":2551:2557   */\n      dup1\n        /* \"#utility.yul\":2559:2565   */\n      0x00\n        /* \"#utility.yul\":2612:2615   */\n      0xa0\n        /* \"#utility.yul\":2600:2609   */\n      dup7\n        /* \"#utility.yul\":2591:2598   */\n      dup9\n        /* \"#utility.yul\":2587:2610   */\n      sub\n        /* \"#utility.yul\":2583:2616   */\n      slt\n        /* \"#utility.yul\":2580:2633   */\n      iszero\n      tag_350\n      jumpi\n        /* \"#utility.yul\":2629:2630   */\n      0x00\n        /* \"#utility.yul\":2626:2627   */\n      dup1\n        /* \"#utility.yul\":2619:2631   */\n      revert\n        /* \"#utility.yul\":2580:2633   */\n    tag_350:\n        /* \"#utility.yul\":2665:2674   */\n      dup6\n        /* \"#utility.yul\":2652:2675   */\n      calldataload\n        /* \"#utility.yul\":2642:2675   */\n      swap5\n      pop\n        /* \"#utility.yul\":2722:2724   */\n      0x20\n        /* \"#utility.yul\":2711:2720   */\n      dup7\n        /* \"#utility.yul\":2707:2725   */\n      add\n        /* \"#utility.yul\":2694:2726   */\n      calldataload\n        /* \"#utility.yul\":2684:2726   */\n      swap4\n      pop\n        /* \"#utility.yul\":2745:2781   */\n      tag_351\n        /* \"#utility.yul\":2777:2779   */\n      0x40\n        /* \"#utility.yul\":2766:2775   */\n      dup8\n        /* \"#utility.yul\":2762:2780   */\n      add\n        /* \"#utility.yul\":2745:2781   */\n      tag_324\n      jump\t// in\n    tag_351:\n        /* \"#utility.yul\":2434:2890   */\n      swap5\n      swap8\n      swap4\n      swap7\n      pop\n        /* \"#utility.yul\":2735:2781   */\n      swap4\n      swap5\n        /* \"#utility.yul\":2828:2830   */\n      0x60\n        /* \"#utility.yul\":2813:2831   */\n      dup2\n      add\n        /* \"#utility.yul\":2800:2832   */\n      calldataload\n      swap5\n      pop\n        /* \"#utility.yul\":2879:2882   */\n      0x80\n        /* \"#utility.yul\":2864:2883   */\n      add\n        /* \"#utility.yul\":2851:2884   */\n      calldataload\n      swap3\n        /* \"#utility.yul\":2434:2890   */\n      swap2\n      pop\n      pop\n      jump\t// out\n        /* \"#utility.yul\":2895:3501   */\n    tag_102:\n        /* \"#utility.yul\":3006:3012   */\n      0x00\n        /* \"#utility.yul\":3014:3020   */\n      dup1\n        /* \"#utility.yul\":3022:3028   */\n      0x00\n        /* \"#utility.yul\":3030:3036   */\n      dup1\n        /* \"#utility.yul\":3038:3044   */\n      0x00\n        /* \"#utility.yul\":3046:3052   */\n      dup1\n        /* \"#utility.yul\":3054:3060   */\n      0x00\n        /* \"#utility.yul\":3107:3110   */\n      0xe0\n        /* \"#utility.yul\":3095:3104   */\n      dup9\n        /* \"#utility.yul\":3086:3093   */\n      dup11\n        /* \"#utility.yul\":3082:3105   */\n      sub\n        /* \"#utility.yul\":3078:3111   */\n      slt\n        /* \"#utility.yul\":3075:3128   */\n      iszero\n      tag_353\n      jumpi\n        /* \"#utility.yul\":3124:3125   */\n      0x00\n        /* \"#utility.yul\":3121:3122   */\n      dup1\n        /* \"#utility.yul\":3114:3126   */\n      revert\n        /* \"#utility.yul\":3075:3128   */\n    tag_353:\n        /* \"#utility.yul\":3147:3176   */\n      tag_354\n        /* \"#utility.yul\":3166:3175   */\n      dup9\n        /* \"#utility.yul\":3147:3176   */\n      tag_323\n      jump\t// in\n    tag_354:\n        /* \"#utility.yul\":3137:3176   */\n      swap7\n      pop\n        /* \"#utility.yul\":3195:3233   */\n      tag_355\n        /* \"#utility.yul\":3229:3231   */\n      0x20\n        /* \"#utility.yul\":3218:3227   */\n      dup10\n        /* \"#utility.yul\":3214:3232   */\n      add\n        /* \"#utility.yul\":3195:3233   */\n      tag_323\n      jump\t// in\n    tag_355:\n        /* \"#utility.yul\":3185:3233   */\n      swap6\n      pop\n        /* \"#utility.yul\":3280:3282   */\n      0x40\n        /* \"#utility.yul\":3269:3278   */\n      dup9\n        /* \"#utility.yul\":3265:3283   */\n      add\n        /* \"#utility.yul\":3252:3284   */\n      calldataload\n        /* \"#utility.yul\":3242:3284   */\n      swap5\n      pop\n        /* \"#utility.yul\":3331:3333   */\n      0x60\n        /* \"#utility.yul\":3320:3329   */\n      dup9\n        /* \"#utility.yul\":3316:3334   */\n      add\n        /* \"#utility.yul\":3303:3335   */\n      calldataload\n        /* \"#utility.yul\":3293:3335   */\n      swap4\n      pop\n        /* \"#utility.yul\":3354:3391   */\n      tag_356\n        /* \"#utility.yul\":3386:3389   */\n      0x80\n        /* \"#utility.yul\":3375:3384   */\n      dup10\n        /* \"#utility.yul\":3371:3390   */\n      add\n        /* \"#utility.yul\":3354:3391   */\n      tag_324\n      jump\t// in\n    tag_356:\n        /* \"#utility.yul\":3344:3391   */\n      swap3\n      pop\n        /* \"#utility.yul\":3438:3441   */\n      0xa0\n        /* \"#utility.yul\":3427:3436   */\n      dup9\n        /* \"#utility.yul\":3423:3442   */\n      add\n        /* \"#utility.yul\":3410:3443   */\n      calldataload\n        /* \"#utility.yul\":3400:3443   */\n      swap2\n      pop\n        /* \"#utility.yul\":3490:3493   */\n      0xc0\n        /* \"#utility.yul\":3479:3488   */\n      dup9\n        /* \"#utility.yul\":3475:3494   */\n      add\n        /* \"#utility.yul\":3462:3495   */\n      calldataload\n        /* \"#utility.yul\":3452:3495   */\n      swap1\n      pop\n        /* \"#utility.yul\":2895:3501   */\n      swap3\n      swap6\n      swap9\n      swap2\n      swap5\n      swap8\n      pop\n      swap3\n      swap6\n      pop\n      jump\t// out\n        /* \"#utility.yul\":3506:3766   */\n    tag_109:\n        /* \"#utility.yul\":3574:3580   */\n      0x00\n        /* \"#utility.yul\":3582:3588   */\n      dup1\n        /* \"#utility.yul\":3635:3637   */\n      0x40\n        /* \"#utility.yul\":3623:3632   */\n      dup4\n        /* \"#utility.yul\":3614:3621   */\n      dup6\n        /* \"#utility.yul\":3610:3633   */\n      sub\n        /* \"#utility.yul\":3606:3638   */\n      slt\n        /* \"#utility.yul\":3603:3655   */\n      iszero\n      tag_358\n      jumpi\n        /* \"#utility.yul\":3651:3652   */\n      0x00\n        /* \"#utility.yul\":3648:3649   */\n      dup1\n        /* \"#utility.yul\":3641:3653   */\n      revert\n        /* \"#utility.yul\":3603:3655   */\n    tag_358:\n        /* \"#utility.yul\":3674:3703   */\n      tag_359\n        /* \"#utility.yul\":3693:3702   */\n      dup4\n        /* \"#utility.yul\":3674:3703   */\n      tag_323\n      jump\t// in\n    tag_359:\n        /* \"#utility.yul\":3664:3703   */\n      swap2\n      pop\n        /* \"#utility.yul\":3722:3760   */\n      tag_360\n        /* \"#utility.yul\":3756:3758   */\n      0x20\n        /* \"#utility.yul\":3745:3754   */\n      dup5\n        /* \"#utility.yul\":3741:3759   */\n      add\n        /* \"#utility.yul\":3722:3760   */\n      tag_323\n      jump\t// in\n    tag_360:\n        /* \"#utility.yul\":3712:3760   */\n      swap1\n      pop\n        /* \"#utility.yul\":3506:3766   */\n      swap3\n      pop\n      swap3\n      swap1\n      pop\n      jump\t// out\n        /* \"#utility.yul\":3771:4151   */\n    tag_114:\n        /* \"#utility.yul\":3850:3851   */\n      0x01\n        /* \"#utility.yul\":3846:3858   */\n      dup2\n      dup2\n      shr\n      swap1\n        /* \"#utility.yul\":3893:3905   */\n      dup3\n      and\n      dup1\n        /* \"#utility.yul\":3914:3975   */\n      tag_362\n      jumpi\n        /* \"#utility.yul\":3968:3972   */\n      0x7f\n        /* \"#utility.yul\":3960:3966   */\n      dup3\n        /* \"#utility.yul\":3956:3973   */\n      and\n        /* \"#utility.yul\":3946:3973   */\n      swap2\n      pop\n        /* \"#utility.yul\":3914:3975   */\n    tag_362:\n        /* \"#utility.yul\":4021:4023   */\n      0x20\n        /* \"#utility.yul\":4013:4019   */\n      dup3\n        /* \"#utility.yul\":4010:4024   */\n      lt\n        /* \"#utility.yul\":3990:4008   */\n      dup2\n        /* \"#utility.yul\":3987:4025   */\n      sub\n        /* \"#utility.yul\":3984:4145   */\n      tag_255\n      jumpi\n        /* \"#utility.yul\":4067:4077   */\n      0x4e487b71\n        /* \"#utility.yul\":4062:4065   */\n      0xe0\n        /* \"#utility.yul\":4058:4078   */\n      shl\n        /* \"#utility.yul\":4055:4056   */\n      0x00\n        /* \"#utility.yul\":4048:4079   */\n      mstore\n        /* \"#utility.yul\":4102:4106   */\n      0x22\n        /* \"#utility.yul\":4099:4100   */\n      0x04\n        /* \"#utility.yul\":4092:4107   */\n      mstore\n        /* \"#utility.yul\":4130:4134   */\n      0x24\n        /* \"#utility.yul\":4127:4128   */\n      0x00\n        /* \"#utility.yul\":4120:4135   */\n      revert\n        /* \"#utility.yul\":4156:4283   */\n    tag_325:\n        /* \"#utility.yul\":4217:4227   */\n      0x4e487b71\n        /* \"#utility.yul\":4212:4215   */\n      0xe0\n        /* \"#utility.yul\":4208:4228   */\n      shl\n        /* \"#utility.yul\":4205:4206   */\n      0x00\n        /* \"#utility.yul\":4198:4229   */\n      mstore\n        /* \"#utility.yul\":4248:4252   */\n      0x11\n        /* \"#utility.yul\":4245:4246   */\n      0x04\n        /* \"#utility.yul\":4238:4253   */\n      mstore\n        /* \"#utility.yul\":4272:4276   */\n      0x24\n        /* \"#utility.yul\":4269:4270   */\n      0x00\n        /* \"#utility.yul\":4262:4277   */\n      revert\n        /* \"#utility.yul\":4288:4413   */\n    tag_140:\n        /* \"#utility.yul\":4353:4362   */\n      dup1\n      dup3\n      add\n        /* \"#utility.yul\":4374:4384   */\n      dup1\n      dup3\n      gt\n        /* \"#utility.yul\":4371:4407   */\n      iszero\n      tag_119\n      jumpi\n        /* \"#utility.yul\":4387:4405   */\n      tag_119\n      tag_325\n      jump\t// in\n        /* \"#utility.yul\":5174:5302   */\n    tag_174:\n        /* \"#utility.yul\":5241:5250   */\n      dup2\n      dup2\n      sub\n        /* \"#utility.yul\":5262:5273   */\n      dup2\n      dup2\n      gt\n        /* \"#utility.yul\":5259:5296   */\n      iszero\n      tag_119\n      jumpi\n        /* \"#utility.yul\":5276:5294   */\n      tag_119\n      tag_325\n      jump\t// in\n        /* \"#utility.yul\":5307:5475   */\n    tag_177:\n        /* \"#utility.yul\":5380:5389   */\n      dup1\n      dup3\n      mul\n        /* \"#utility.yul\":5411:5420   */\n      dup2\n      iszero\n        /* \"#utility.yul\":5428:5443   */\n      dup3\n      dup3\n      div\n        /* \"#utility.yul\":5422:5444   */\n      dup5\n      eq\n        /* \"#utility.yul\":5408:5445   */\n      or\n        /* \"#utility.yul\":5398:5469   */\n      tag_119\n      jumpi\n        /* \"#utility.yul\":5449:5467   */\n      tag_119\n      tag_325\n      jump\t// in\n        /* \"#utility.yul\":5480:5697   */\n    tag_179:\n        /* \"#utility.yul\":5520:5521   */\n      0x00\n        /* \"#utility.yul\":5546:5547   */\n      dup3\n        /* \"#utility.yul\":5536:5668   */\n      tag_377\n      jumpi\n        /* \"#utility.yul\":5590:5600   */\n      0x4e487b71\n        /* \"#utility.yul\":5585:5588   */\n      0xe0\n        /* \"#utility.yul\":5581:5601   */\n      shl\n        /* \"#utility.yul\":5578:5579   */\n      0x00\n        /* \"#utility.yul\":5571:5602   */\n      mstore\n        /* \"#utility.yul\":5625:5629   */\n      0x12\n        /* \"#utility.yul\":5622:5623   */\n      0x04\n        /* \"#utility.yul\":5615:5630   */\n      mstore\n        /* \"#utility.yul\":5653:5657   */\n      0x24\n        /* \"#utility.yul\":5650:5651   */\n      0x00\n        /* \"#utility.yul\":5643:5658   */\n      revert\n        /* \"#utility.yul\":5536:5668   */\n    tag_377:\n      pop\n        /* \"#utility.yul\":5682:5691   */\n      div\n      swap1\n        /* \"#utility.yul\":5480:5697   */\n      jump\t// out\n        /* \"#utility.yul\":11052:11179   */\n    tag_287:\n        /* \"#utility.yul\":11113:11123   */\n      0x4e487b71\n        /* \"#utility.yul\":11108:11111   */\n      0xe0\n        /* \"#utility.yul\":11104:11124   */\n      shl\n        /* \"#utility.yul\":11101:11102   */\n      0x00\n        /* \"#utility.yul\":11094:11125   */\n      mstore\n        /* \"#utility.yul\":11144:11148   */\n      0x21\n        /* \"#utility.yul\":11141:11142   */\n      0x04\n        /* \"#utility.yul\":11134:11149   */\n      mstore\n        /* \"#utility.yul\":11168:11172   */\n      0x24\n        /* \"#utility.yul\":11165:11166   */\n      0x00\n        /* \"#utility.yul\":11158:11173   */\n      revert\n\n    auxdata: 0xa26469706673582212207d9348407b3865221ac9fd7d9acb371ca859f0e85021cd9694f41cef86a8730364736f6c63430008150033\n}\n",
				"bytecode": {
					"linkReferences": {},
					"object": "61014060405234801562000011575f80fd5b506040518060400160405280600781526020016626bcaa37b5b2b760c91b81525080604051806040016040528060018152602001603160f81b8152506040518060400160405280600781526020016626bcaa37b5b2b760c91b815250604051806040016040528060038152602001624d544b60e81b81525081600390816200009a9190620001e5565b506004620000a98282620001e5565b5050825160208085019190912083518483012060e08290526101008190524660a0818152604080517f8b73c3c69bb8fe3d512ecc4cf759cc79239f7b179b0ffacaa9a75d522b39400f81880181905281830187905260608201869052608082019490945230818401528151808203909301835260c0019052805194019390932091935091906080523060c0526101205250620002ad9350505050565b634e487b7160e01b5f52604160045260245ffd5b600181811c908216806200016e57607f821691505b6020821081036200018d57634e487b7160e01b5f52602260045260245ffd5b50919050565b601f821115620001e0575f81815260208120601f850160051c81016020861015620001bb5750805b601f850160051c820191505b81811015620001dc57828155600101620001c7565b5050505b505050565b81516001600160401b0381111562000201576200020162000145565b620002198162000212845462000159565b8462000193565b602080601f8311600181146200024f575f8415620002375750858301515b5f19600386901b1c1916600185901b178555620001dc565b5f85815260208120601f198616915b828110156200027f578886015182559484019460019091019084016200025e565b50858210156200029d57878501515f19600388901b60f8161c191681555b5050505050600190811b01905550565b60805160a05160c05160e0516101005161012051611281620002f55f395f610b1601525f610b6501525f610b4001525f610a9901525f610ac301525f610aed01526112815ff3fe608060405234801561000f575f80fd5b5060043610610132575f3560e01c80637ecebe00116100b4578063b4b0595811610079578063b4b0595814610276578063ce2e08e514610295578063d1003ed4146102a8578063d505accf146102bb578063db673035146102ce578063dd62ed3e146102e1575f80fd5b80637ecebe0014610216578063948adb8f1461022957806395d89b4114610248578063a457c2d714610250578063a9059cbb14610263575f80fd5b80633644e515116100fa5780633644e515146101ab57806339509351146101b35780633b4c0c07146101c657806340c10f19146101db57806370a08231146101ee575f80fd5b806306fdde0314610136578063095ea7b31461015457806318160ddd1461017757806323b872dd14610189578063313ce5671461019c575b5f80fd5b61013e6102f4565b60405161014b9190610fc5565b60405180910390f35b61016761016236600461102b565b610384565b604051901515815260200161014b565b6002545b60405190815260200161014b565b610167610197366004611053565b61039d565b6040516012815260200161014b565b61017b6103c0565b6101676101c136600461102b565b6103ce565b6101d96101d436600461102b565b6103ef565b005b6101d96101e936600461102b565b6103fe565b61017b6101fc36600461108c565b6001600160a01b03165f9081526020819052604090205490565b61017b61022436600461108c565b610408565b61017b61023736600461108c565b60096020525f908152604090205481565b61013e610425565b61016761025e36600461102b565b610434565b61016761027136600461102b565b6104b3565b61017b61028436600461108c565b60086020525f908152604090205481565b6101d96102a3366004611053565b6104c0565b6101676102b63660046110bc565b610572565b6101d96102c93660046110ff565b61058b565b6101d96102dc366004611053565b6106ec565b61017b6102ef366004611164565b610702565b60606003805461030390611195565b80601f016020809104026020016040519081016040528092919081815260200182805461032f90611195565b801561037a5780601f106103515761010080835404028352916020019161037a565b820191905f5260205f20905b81548152906001019060200180831161035d57829003601f168201915b5050505050905090565b5f3361039181858561072c565b60019150505b92915050565b5f336103aa85828561084f565b6103b58585856108c1565b506001949350505050565b5f6103c9610a8d565b905090565b5f336103918185856103e08383610702565b6103ea91906111db565b61072c565b6103fa8230836108c1565b5050565b6103fa8282610bb3565b6001600160a01b0381165f90815260056020526040812054610397565b60606004805461030390611195565b5f33816104418286610702565b9050838110156104a65760405162461bcd60e51b815260206004820152602560248201527f45524332303a2064656372656173656420616c6c6f77616e63652062656c6f77604482015264207a65726f60d81b60648201526084015b60405180910390fd5b6103b5828686840361072c565b5f336103918185856108c1565b601481116105085760405162461bcd60e51b81526020600482015260156024820152740746f6b656e206973206c657373207468616e20323605c1b604482015260640161049d565b6103e88110156105385761051e833060146108c1565b610533838361052e6014856111ee565b6108c1565b505050565b5f6064610546836002611201565b6105509190611218565b905061055d8430836108c1565b61056c848461052e84866111ee565b50505050565b5f6105823330888888888861058b565b95945050505050565b834211156105db5760405162461bcd60e51b815260206004820152601d60248201527f45524332305065726d69743a206578706972656420646561646c696e65000000604482015260640161049d565b5f7f6e71edae12b1b97f4d1f60370fef10105fa2faae0126114a169c64845d6126c98888886106098c610c8f565b6040805160208101969096526001600160a01b0394851690860152929091166060840152608083015260a082015260c0810186905260e0016040516020818303038152906040528051906020012090505f61066382610cb6565b90505f61067282878787610d02565b9050896001600160a01b0316816001600160a01b0316146106d55760405162461bcd60e51b815260206004820152601e60248201527f45524332305065726d69743a20696e76616c6964207369676e61747572650000604482015260640161049d565b6106e08a8a8a61072c565b50505050505050505050565b6106f78330836108c1565b6105333083836108c1565b6001600160a01b039182165f90815260016020908152604080832093909416825291909152205490565b6001600160a01b03831661078e5760405162461bcd60e51b8152602060048201526024808201527f45524332303a20617070726f76652066726f6d20746865207a65726f206164646044820152637265737360e01b606482015260840161049d565b6001600160a01b0382166107ef5760405162461bcd60e51b815260206004820152602260248201527f45524332303a20617070726f766520746f20746865207a65726f206164647265604482015261737360f01b606482015260840161049d565b6001600160a01b038381165f8181526001602090815260408083209487168084529482529182902085905590518481527f8c5be1e5ebec7d5bd14f71427d1e84f3dd0314c0f7b2291e5b200ac8c7c3b925910160405180910390a3505050565b5f61085a8484610702565b90505f19811461056c57818110156108b45760405162461bcd60e51b815260206004820152601d60248201527f45524332303a20696e73756666696369656e7420616c6c6f77616e6365000000604482015260640161049d565b61056c848484840361072c565b6001600160a01b0383166109255760405162461bcd60e51b815260206004820152602560248201527f45524332303a207472616e736665722066726f6d20746865207a65726f206164604482015264647265737360d81b606482015260840161049d565b6001600160a01b0382166109875760405162461bcd60e51b815260206004820152602360248201527f45524332303a207472616e7366657220746f20746865207a65726f206164647260448201526265737360e81b606482015260840161049d565b6001600160a01b0383165f90815260208190526040902054818110156109fe5760405162461bcd60e51b815260206004820152602660248201527f45524332303a207472616e7366657220616d6f756e7420657863656564732062604482015265616c616e636560d01b606482015260840161049d565b6001600160a01b038085165f90815260208190526040808220858503905591851681529081208054849290610a349084906111db565b92505081905550826001600160a01b0316846001600160a01b03167fddf252ad1be2c89b69c2b068fc378daa952ba7f163c4a11628f55a4df523b3ef84604051610a8091815260200190565b60405180910390a361056c565b5f306001600160a01b037f000000000000000000000000000000000000000000000000000000000000000016148015610ae557507f000000000000000000000000000000000000000000000000000000000000000046145b15610b0f57507f000000000000000000000000000000000000000000000000000000000000000090565b50604080517f00000000000000000000000000000000000000000000000000000000000000006020808301919091527f0000000000000000000000000000000000000000000000000000000000000000828401527f000000000000000000000000000000000000000000000000000000000000000060608301524660808301523060a0808401919091528351808403909101815260c0909201909252805191012090565b6001600160a01b038216610c095760405162461bcd60e51b815260206004820152601f60248201527f45524332303a206d696e7420746f20746865207a65726f206164647265737300604482015260640161049d565b8060025f828254610c1a91906111db565b90915550506001600160a01b0382165f9081526020819052604081208054839290610c469084906111db565b90915550506040518181526001600160a01b038316905f907fddf252ad1be2c89b69c2b068fc378daa952ba7f163c4a11628f55a4df523b3ef9060200160405180910390a35050565b6001600160a01b0381165f9081526005602052604090208054600181018255905b50919050565b5f610397610cc2610a8d565b8360405161190160f01b602082015260228101839052604281018290525f9060620160405160208183030381529060405280519060200120905092915050565b5f805f610d1187878787610d28565b91509150610d1e81610e0d565b5095945050505050565b5f807f7fffffffffffffffffffffffffffffff5d576e7357a4501ddfe92f46681b20a0831115610d5d57505f90506003610e04565b8460ff16601b14158015610d7557508460ff16601c14155b15610d8557505f90506004610e04565b604080515f8082526020820180845289905260ff881692820192909252606081018690526080810185905260019060a0016020604051602081039080840390855afa158015610dd6573d5f803e3d5ffd5b5050604051601f1901519150506001600160a01b038116610dfe575f60019250925050610e04565b91505f90505b94509492505050565b5f816004811115610e2057610e20611237565b03610e285750565b6001816004811115610e3c57610e3c611237565b03610e895760405162461bcd60e51b815260206004820152601860248201527f45434453413a20696e76616c6964207369676e61747572650000000000000000604482015260640161049d565b6002816004811115610e9d57610e9d611237565b03610eea5760405162461bcd60e51b815260206004820152601f60248201527f45434453413a20696e76616c6964207369676e6174757265206c656e67746800604482015260640161049d565b6003816004811115610efe57610efe611237565b03610f565760405162461bcd60e51b815260206004820152602260248201527f45434453413a20696e76616c6964207369676e6174757265202773272076616c604482015261756560f01b606482015260840161049d565b6004816004811115610f6a57610f6a611237565b03610fc25760405162461bcd60e51b815260206004820152602260248201527f45434453413a20696e76616c6964207369676e6174757265202776272076616c604482015261756560f01b606482015260840161049d565b50565b5f6020808352835180828501525f5b81811015610ff057858101830151858201604001528201610fd4565b505f604082860101526040601f19601f8301168501019250505092915050565b80356001600160a01b0381168114611026575f80fd5b919050565b5f806040838503121561103c575f80fd5b61104583611010565b946020939093013593505050565b5f805f60608486031215611065575f80fd5b61106e84611010565b925061107c60208501611010565b9150604084013590509250925092565b5f6020828403121561109c575f80fd5b6110a582611010565b9392505050565b803560ff81168114611026575f80fd5b5f805f805f60a086880312156110d0575f80fd5b85359450602086013593506110e7604087016110ac565b94979396509394606081013594506080013592915050565b5f805f805f805f60e0888a031215611115575f80fd5b61111e88611010565b965061112c60208901611010565b95506040880135945060608801359350611148608089016110ac565b925060a0880135915060c0880135905092959891949750929550565b5f8060408385031215611175575f80fd5b61117e83611010565b915061118c60208401611010565b90509250929050565b600181811c908216806111a957607f821691505b602082108103610cb057634e487b7160e01b5f52602260045260245ffd5b634e487b7160e01b5f52601160045260245ffd5b80820180821115610397576103976111c7565b81810381811115610397576103976111c7565b8082028115828204841417610397576103976111c7565b5f8261123257634e487b7160e01b5f52601260045260245ffd5b500490565b634e487b7160e01b5f52602160045260245ffdfea26469706673582212207d9348407b3865221ac9fd7d9acb371ca859f0e85021cd9694f41cef86a8730364736f6c63430008150033",
					"opcodes": "PUSH2 0x140 PUSH1 0x40 MSTORE CALLVALUE DUP1 ISZERO PUSH3 0x11 JUMPI PUSH0 DUP1 REVERT JUMPDEST POP PUSH1 0x40 MLOAD DUP1 PUSH1 0x40 ADD PUSH1 0x40 MSTORE DUP1 PUSH1 0x7 DUP2 MSTORE PUSH1 0x20 ADD PUSH7 0x26BCAA37B5B2B7 PUSH1 0xC9 SHL DUP2 MSTORE POP DUP1 PUSH1 0x40 MLOAD DUP1 PUSH1 0x40 ADD PUSH1 0x40 MSTORE DUP1 PUSH1 0x1 DUP2 MSTORE PUSH1 0x20 ADD PUSH1 0x31 PUSH1 0xF8 SHL DUP2 MSTORE POP PUSH1 0x40 MLOAD DUP1 PUSH1 0x40 ADD PUSH1 0x40 MSTORE DUP1 PUSH1 0x7 DUP2 MSTORE PUSH1 0x20 ADD PUSH7 0x26BCAA37B5B2B7 PUSH1 0xC9 SHL DUP2 MSTORE POP PUSH1 0x40 MLOAD DUP1 PUSH1 0x40 ADD PUSH1 0x40 MSTORE DUP1 PUSH1 0x3 DUP2 MSTORE PUSH1 0x20 ADD PUSH3 0x4D544B PUSH1 0xE8 SHL DUP2 MSTORE POP DUP2 PUSH1 0x3 SWAP1 DUP2 PUSH3 0x9A SWAP2 SWAP1 PUSH3 0x1E5 JUMP JUMPDEST POP PUSH1 0x4 PUSH3 0xA9 DUP3 DUP3 PUSH3 0x1E5 JUMP JUMPDEST POP POP DUP3 MLOAD PUSH1 0x20 DUP1 DUP6 ADD SWAP2 SWAP1 SWAP2 KECCAK256 DUP4 MLOAD DUP5 DUP4 ADD KECCAK256 PUSH1 0xE0 DUP3 SWAP1 MSTORE PUSH2 0x100 DUP2 SWAP1 MSTORE CHAINID PUSH1 0xA0 DUP2 DUP2 MSTORE PUSH1 0x40 DUP1 MLOAD PUSH32 0x8B73C3C69BB8FE3D512ECC4CF759CC79239F7B179B0FFACAA9A75D522B39400F DUP2 DUP9 ADD DUP2 SWAP1 MSTORE DUP2 DUP4 ADD DUP8 SWAP1 MSTORE PUSH1 0x60 DUP3 ADD DUP7 SWAP1 MSTORE PUSH1 0x80 DUP3 ADD SWAP5 SWAP1 SWAP5 MSTORE ADDRESS DUP2 DUP5 ADD MSTORE DUP2 MLOAD DUP1 DUP3 SUB SWAP1 SWAP4 ADD DUP4 MSTORE PUSH1 0xC0 ADD SWAP1 MSTORE DUP1 MLOAD SWAP5 ADD SWAP4 SWAP1 SWAP4 KECCAK256 SWAP2 SWAP4 POP SWAP2 SWAP1 PUSH1 0x80 MSTORE ADDRESS PUSH1 0xC0 MSTORE PUSH2 0x120 MSTORE POP PUSH3 0x2AD SWAP4 POP POP POP POP JUMP JUMPDEST PUSH4 0x4E487B71 PUSH1 0xE0 SHL PUSH0 MSTORE PUSH1 0x41 PUSH1 0x4 MSTORE PUSH1 0x24 PUSH0 REVERT JUMPDEST PUSH1 0x1 DUP2 DUP2 SHR SWAP1 DUP3 AND DUP1 PUSH3 0x16E JUMPI PUSH1 0x7F DUP3 AND SWAP2 POP JUMPDEST PUSH1 0x20 DUP3 LT DUP2 SUB PUSH3 0x18D JUMPI PUSH4 0x4E487B71 PUSH1 0xE0 SHL PUSH0 MSTORE PUSH1 0x22 PUSH1 0x4 MSTORE PUSH1 0x24 PUSH0 REVERT JUMPDEST POP SWAP2 SWAP1 POP JUMP JUMPDEST PUSH1 0x1F DUP3 GT ISZERO PUSH3 0x1E0 JUMPI PUSH0 DUP2 DUP2 MSTORE PUSH1 0x20 DUP2 KECCAK256 PUSH1 0x1F DUP6 ADD PUSH1 0x5 SHR DUP2 ADD PUSH1 0x20 DUP7 LT ISZERO PUSH3 0x1BB JUMPI POP DUP1 JUMPDEST PUSH1 0x1F DUP6 ADD PUSH1 0x5 SHR DUP3 ADD SWAP2 POP JUMPDEST DUP2 DUP2 LT ISZERO PUSH3 0x1DC JUMPI DUP3 DUP2 SSTORE PUSH1 0x1 ADD PUSH3 0x1C7 JUMP JUMPDEST POP POP POP JUMPDEST POP POP POP JUMP JUMPDEST DUP2 MLOAD PUSH1 0x1 PUSH1 0x1 PUSH1 0x40 SHL SUB DUP2 GT ISZERO PUSH3 0x201 JUMPI PUSH3 0x201 PUSH3 0x145 JUMP JUMPDEST PUSH3 0x219 DUP2 PUSH3 0x212 DUP5 SLOAD PUSH3 0x159 JUMP JUMPDEST DUP5 PUSH3 0x193 JUMP JUMPDEST PUSH1 0x20 DUP1 PUSH1 0x1F DUP4 GT PUSH1 0x1 DUP2 EQ PUSH3 0x24F JUMPI PUSH0 DUP5 ISZERO PUSH3 0x237 JUMPI POP DUP6 DUP4 ADD MLOAD JUMPDEST PUSH0 NOT PUSH1 0x3 DUP7 SWAP1 SHL SHR NOT AND PUSH1 0x1 DUP6 SWAP1 SHL OR DUP6 SSTORE PUSH3 0x1DC JUMP JUMPDEST PUSH0 DUP6 DUP2 MSTORE PUSH1 0x20 DUP2 KECCAK256 PUSH1 0x1F NOT DUP7 AND SWAP2 JUMPDEST DUP3 DUP2 LT ISZERO PUSH3 0x27F JUMPI DUP9 DUP7 ADD MLOAD DUP3 SSTORE SWAP5 DUP5 ADD SWAP5 PUSH1 0x1 SWAP1 SWAP2 ADD SWAP1 DUP5 ADD PUSH3 0x25E JUMP JUMPDEST POP DUP6 DUP3 LT ISZERO PUSH3 0x29D JUMPI DUP8 DUP6 ADD MLOAD PUSH0 NOT PUSH1 0x3 DUP9 SWAP1 SHL PUSH1 0xF8 AND SHR NOT AND DUP2 SSTORE JUMPDEST POP POP POP POP POP PUSH1 0x1 SWAP1 DUP2 SHL ADD SWAP1 SSTORE POP JUMP JUMPDEST PUSH1 0x80 MLOAD PUSH1 0xA0 MLOAD PUSH1 0xC0 MLOAD PUSH1 0xE0 MLOAD PUSH2 0x100 MLOAD PUSH2 0x120 MLOAD PUSH2 0x1281 PUSH3 0x2F5 PUSH0 CODECOPY PUSH0 PUSH2 0xB16 ADD MSTORE PUSH0 PUSH2 0xB65 ADD MSTORE PUSH0 PUSH2 0xB40 ADD MSTORE PUSH0 PUSH2 0xA99 ADD MSTORE PUSH0 PUSH2 0xAC3 ADD MSTORE PUSH0 PUSH2 0xAED ADD MSTORE PUSH2 0x1281 PUSH0 RETURN INVALID PUSH1 0x80 PUSH1 0x40 MSTORE CALLVALUE DUP1 ISZERO PUSH2 0xF JUMPI PUSH0 DUP1 REVERT JUMPDEST POP PUSH1 0x4 CALLDATASIZE LT PUSH2 0x132 JUMPI PUSH0 CALLDATALOAD PUSH1 0xE0 SHR DUP1 PUSH4 0x7ECEBE00 GT PUSH2 0xB4 JUMPI DUP1 PUSH4 0xB4B05958 GT PUSH2 0x79 JUMPI DUP1 PUSH4 0xB4B05958 EQ PUSH2 0x276 JUMPI DUP1 PUSH4 0xCE2E08E5 EQ PUSH2 0x295 JUMPI DUP1 PUSH4 0xD1003ED4 EQ PUSH2 0x2A8 JUMPI DUP1 PUSH4 0xD505ACCF EQ PUSH2 0x2BB JUMPI DUP1 PUSH4 0xDB673035 EQ PUSH2 0x2CE JUMPI DUP1 PUSH4 0xDD62ED3E EQ PUSH2 0x2E1 JUMPI PUSH0 DUP1 REVERT JUMPDEST DUP1 PUSH4 0x7ECEBE00 EQ PUSH2 0x216 JUMPI DUP1 PUSH4 0x948ADB8F EQ PUSH2 0x229 JUMPI DUP1 PUSH4 0x95D89B41 EQ PUSH2 0x248 JUMPI DUP1 PUSH4 0xA457C2D7 EQ PUSH2 0x250 JUMPI DUP1 PUSH4 0xA9059CBB EQ PUSH2 0x263 JUMPI PUSH0 DUP1 REVERT JUMPDEST DUP1 PUSH4 0x3644E515 GT PUSH2 0xFA JUMPI DUP1 PUSH4 0x3644E515 EQ PUSH2 0x1AB JUMPI DUP1 PUSH4 0x39509351 EQ PUSH2 0x1B3 JUMPI DUP1 PUSH4 0x3B4C0C07 EQ PUSH2 0x1C6 JUMPI DUP1 PUSH4 0x40C10F19 EQ PUSH2 0x1DB JUMPI DUP1 PUSH4 0x70A08231 EQ PUSH2 0x1EE JUMPI PUSH0 DUP1 REVERT JUMPDEST DUP1 PUSH4 0x6FDDE03 EQ PUSH2 0x136 JUMPI DUP1 PUSH4 0x95EA7B3 EQ PUSH2 0x154 JUMPI DUP1 PUSH4 0x18160DDD EQ PUSH2 0x177 JUMPI DUP1 PUSH4 0x23B872DD EQ PUSH2 0x189 JUMPI DUP1 PUSH4 0x313CE567 EQ PUSH2 0x19C JUMPI JUMPDEST PUSH0 DUP1 REVERT JUMPDEST PUSH2 0x13E PUSH2 0x2F4 JUMP JUMPDEST PUSH1 0x40 MLOAD PUSH2 0x14B SWAP2 SWAP1 PUSH2 0xFC5 JUMP JUMPDEST PUSH1 0x40 MLOAD DUP1 SWAP2 SUB SWAP1 RETURN JUMPDEST PUSH2 0x167 PUSH2 0x162 CALLDATASIZE PUSH1 0x4 PUSH2 0x102B JUMP JUMPDEST PUSH2 0x384 JUMP JUMPDEST PUSH1 0x40 MLOAD SWAP1 ISZERO ISZERO DUP2 MSTORE PUSH1 0x20 ADD PUSH2 0x14B JUMP JUMPDEST PUSH1 0x2 SLOAD JUMPDEST PUSH1 0x40 MLOAD SWAP1 DUP2 MSTORE PUSH1 0x20 ADD PUSH2 0x14B JUMP JUMPDEST PUSH2 0x167 PUSH2 0x197 CALLDATASIZE PUSH1 0x4 PUSH2 0x1053 JUMP JUMPDEST PUSH2 0x39D JUMP JUMPDEST PUSH1 0x40 MLOAD PUSH1 0x12 DUP2 MSTORE PUSH1 0x20 ADD PUSH2 0x14B JUMP JUMPDEST PUSH2 0x17B PUSH2 0x3C0 JUMP JUMPDEST PUSH2 0x167 PUSH2 0x1C1 CALLDATASIZE PUSH1 0x4 PUSH2 0x102B JUMP JUMPDEST PUSH2 0x3CE JUMP JUMPDEST PUSH2 0x1D9 PUSH2 0x1D4 CALLDATASIZE PUSH1 0x4 PUSH2 0x102B JUMP JUMPDEST PUSH2 0x3EF JUMP JUMPDEST STOP JUMPDEST PUSH2 0x1D9 PUSH2 0x1E9 CALLDATASIZE PUSH1 0x4 PUSH2 0x102B JUMP JUMPDEST PUSH2 0x3FE JUMP JUMPDEST PUSH2 0x17B PUSH2 0x1FC CALLDATASIZE PUSH1 0x4 PUSH2 0x108C JUMP JUMPDEST PUSH1 0x1 PUSH1 0x1 PUSH1 0xA0 SHL SUB AND PUSH0 SWAP1 DUP2 MSTORE PUSH1 0x20 DUP2 SWAP1 MSTORE PUSH1 0x40 SWAP1 KECCAK256 SLOAD SWAP1 JUMP JUMPDEST PUSH2 0x17B PUSH2 0x224 CALLDATASIZE PUSH1 0x4 PUSH2 0x108C JUMP JUMPDEST PUSH2 0x408 JUMP JUMPDEST PUSH2 0x17B PUSH2 0x237 CALLDATASIZE PUSH1 0x4 PUSH2 0x108C JUMP JUMPDEST PUSH1 0x9 PUSH1 0x20 MSTORE PUSH0 SWAP1 DUP2 MSTORE PUSH1 0x40 SWAP1 KECCAK256 SLOAD DUP2 JUMP JUMPDEST PUSH2 0x13E PUSH2 0x425 JUMP JUMPDEST PUSH2 0x167 PUSH2 0x25E CALLDATASIZE PUSH1 0x4 PUSH2 0x102B JUMP JUMPDEST PUSH2 0x434 JUMP JUMPDEST PUSH2 0x167 PUSH2 0x271 CALLDATASIZE PUSH1 0x4 PUSH2 0x102B JUMP JUMPDEST PUSH2 0x4B3 JUMP JUMPDEST PUSH2 0x17B PUSH2 0x284 CALLDATASIZE PUSH1 0x4 PUSH2 0x108C JUMP JUMPDEST PUSH1 0x8 PUSH1 0x20 MSTORE PUSH0 SWAP1 DUP2 MSTORE PUSH1 0x40 SWAP1 KECCAK256 SLOAD DUP2 JUMP JUMPDEST PUSH2 0x1D9 PUSH2 0x2A3 CALLDATASIZE PUSH1 0x4 PUSH2 0x1053 JUMP JUMPDEST PUSH2 0x4C0 JUMP JUMPDEST PUSH2 0x167 PUSH2 0x2B6 CALLDATASIZE PUSH1 0x4 PUSH2 0x10BC JUMP JUMPDEST PUSH2 0x572 JUMP JUMPDEST PUSH2 0x1D9 PUSH2 0x2C9 CALLDATASIZE PUSH1 0x4 PUSH2 0x10FF JUMP JUMPDEST PUSH2 0x58B JUMP JUMPDEST PUSH2 0x1D9 PUSH2 0x2DC CALLDATASIZE PUSH1 0x4 PUSH2 0x1053 JUMP JUMPDEST PUSH2 0x6EC JUMP JUMPDEST PUSH2 0x17B PUSH2 0x2EF CALLDATASIZE PUSH1 0x4 PUSH2 0x1164 JUMP JUMPDEST PUSH2 0x702 JUMP JUMPDEST PUSH1 0x60 PUSH1 0x3 DUP1 SLOAD PUSH2 0x303 SWAP1 PUSH2 0x1195 JUMP JUMPDEST DUP1 PUSH1 0x1F ADD PUSH1 0x20 DUP1 SWAP2 DIV MUL PUSH1 0x20 ADD PUSH1 0x40 MLOAD SWAP1 DUP2 ADD PUSH1 0x40 MSTORE DUP1 SWAP3 SWAP2 SWAP1 DUP2 DUP2 MSTORE PUSH1 0x20 ADD DUP3 DUP1 SLOAD PUSH2 0x32F SWAP1 PUSH2 0x1195 JUMP JUMPDEST DUP1 ISZERO PUSH2 0x37A JUMPI DUP1 PUSH1 0x1F LT PUSH2 0x351 JUMPI PUSH2 0x100 DUP1 DUP4 SLOAD DIV MUL DUP4 MSTORE SWAP2 PUSH1 0x20 ADD SWAP2 PUSH2 0x37A JUMP JUMPDEST DUP3 ADD SWAP2 SWAP1 PUSH0 MSTORE PUSH1 0x20 PUSH0 KECCAK256 SWAP1 JUMPDEST DUP2 SLOAD DUP2 MSTORE SWAP1 PUSH1 0x1 ADD SWAP1 PUSH1 0x20 ADD DUP1 DUP4 GT PUSH2 0x35D JUMPI DUP3 SWAP1 SUB PUSH1 0x1F AND DUP3 ADD SWAP2 JUMPDEST POP POP POP POP POP SWAP1 POP SWAP1 JUMP JUMPDEST PUSH0 CALLER PUSH2 0x391 DUP2 DUP6 DUP6 PUSH2 0x72C JUMP JUMPDEST PUSH1 0x1 SWAP2 POP POP JUMPDEST SWAP3 SWAP2 POP POP JUMP JUMPDEST PUSH0 CALLER PUSH2 0x3AA DUP6 DUP3 DUP6 PUSH2 0x84F JUMP JUMPDEST PUSH2 0x3B5 DUP6 DUP6 DUP6 PUSH2 0x8C1 JUMP JUMPDEST POP PUSH1 0x1 SWAP5 SWAP4 POP POP POP POP JUMP JUMPDEST PUSH0 PUSH2 0x3C9 PUSH2 0xA8D JUMP JUMPDEST SWAP1 POP SWAP1 JUMP JUMPDEST PUSH0 CALLER PUSH2 0x391 DUP2 DUP6 DUP6 PUSH2 0x3E0 DUP4 DUP4 PUSH2 0x702 JUMP JUMPDEST PUSH2 0x3EA SWAP2 SWAP1 PUSH2 0x11DB JUMP JUMPDEST PUSH2 0x72C JUMP JUMPDEST PUSH2 0x3FA DUP3 ADDRESS DUP4 PUSH2 0x8C1 JUMP JUMPDEST POP POP JUMP JUMPDEST PUSH2 0x3FA DUP3 DUP3 PUSH2 0xBB3 JUMP JUMPDEST PUSH1 0x1 PUSH1 0x1 PUSH1 0xA0 SHL SUB DUP2 AND PUSH0 SWAP1 DUP2 MSTORE PUSH1 0x5 PUSH1 0x20 MSTORE PUSH1 0x40 DUP2 KECCAK256 SLOAD PUSH2 0x397 JUMP JUMPDEST PUSH1 0x60 PUSH1 0x4 DUP1 SLOAD PUSH2 0x303 SWAP1 PUSH2 0x1195 JUMP JUMPDEST PUSH0 CALLER DUP2 PUSH2 0x441 DUP3 DUP7 PUSH2 0x702 JUMP JUMPDEST SWAP1 POP DUP4 DUP2 LT ISZERO PUSH2 0x4A6 JUMPI PUSH1 0x40 MLOAD PUSH3 0x461BCD PUSH1 0xE5 SHL DUP2 MSTORE PUSH1 0x20 PUSH1 0x4 DUP3 ADD MSTORE PUSH1 0x25 PUSH1 0x24 DUP3 ADD MSTORE PUSH32 0x45524332303A2064656372656173656420616C6C6F77616E63652062656C6F77 PUSH1 0x44 DUP3 ADD MSTORE PUSH5 0x207A65726F PUSH1 0xD8 SHL PUSH1 0x64 DUP3 ADD MSTORE PUSH1 0x84 ADD JUMPDEST PUSH1 0x40 MLOAD DUP1 SWAP2 SUB SWAP1 REVERT JUMPDEST PUSH2 0x3B5 DUP3 DUP7 DUP7 DUP5 SUB PUSH2 0x72C JUMP JUMPDEST PUSH0 CALLER PUSH2 0x391 DUP2 DUP6 DUP6 PUSH2 0x8C1 JUMP JUMPDEST PUSH1 0x14 DUP2 GT PUSH2 0x508 JUMPI PUSH1 0x40 MLOAD PUSH3 0x461BCD PUSH1 0xE5 SHL DUP2 MSTORE PUSH1 0x20 PUSH1 0x4 DUP3 ADD MSTORE PUSH1 0x15 PUSH1 0x24 DUP3 ADD MSTORE PUSH21 0x746F6B656E206973206C657373207468616E20323 PUSH1 0x5C SHL PUSH1 0x44 DUP3 ADD MSTORE PUSH1 0x64 ADD PUSH2 0x49D JUMP JUMPDEST PUSH2 0x3E8 DUP2 LT ISZERO PUSH2 0x538 JUMPI PUSH2 0x51E DUP4 ADDRESS PUSH1 0x14 PUSH2 0x8C1 JUMP JUMPDEST PUSH2 0x533 DUP4 DUP4 PUSH2 0x52E PUSH1 0x14 DUP6 PUSH2 0x11EE JUMP JUMPDEST PUSH2 0x8C1 JUMP JUMPDEST POP POP POP JUMP JUMPDEST PUSH0 PUSH1 0x64 PUSH2 0x546 DUP4 PUSH1 0x2 PUSH2 0x1201 JUMP JUMPDEST PUSH2 0x550 SWAP2 SWAP1 PUSH2 0x1218 JUMP JUMPDEST SWAP1 POP PUSH2 0x55D DUP5 ADDRESS DUP4 PUSH2 0x8C1 JUMP JUMPDEST PUSH2 0x56C DUP5 DUP5 PUSH2 0x52E DUP5 DUP7 PUSH2 0x11EE JUMP JUMPDEST POP POP POP POP JUMP JUMPDEST PUSH0 PUSH2 0x582 CALLER ADDRESS DUP9 DUP9 DUP9 DUP9 DUP9 PUSH2 0x58B JUMP JUMPDEST SWAP6 SWAP5 POP POP POP POP POP JUMP JUMPDEST DUP4 TIMESTAMP GT ISZERO PUSH2 0x5DB JUMPI PUSH1 0x40 MLOAD PUSH3 0x461BCD PUSH1 0xE5 SHL DUP2 MSTORE PUSH1 0x20 PUSH1 0x4 DUP3 ADD MSTORE PUSH1 0x1D PUSH1 0x24 DUP3 ADD MSTORE PUSH32 0x45524332305065726D69743A206578706972656420646561646C696E65000000 PUSH1 0x44 DUP3 ADD MSTORE PUSH1 0x64 ADD PUSH2 0x49D JUMP JUMPDEST PUSH0 PUSH32 0x6E71EDAE12B1B97F4D1F60370FEF10105FA2FAAE0126114A169C64845D6126C9 DUP9 DUP9 DUP9 PUSH2 0x609 DUP13 PUSH2 0xC8F JUMP JUMPDEST PUSH1 0x40 DUP1 MLOAD PUSH1 0x20 DUP2 ADD SWAP7 SWAP1 SWAP7 MSTORE PUSH1 0x1 PUSH1 0x1 PUSH1 0xA0 SHL SUB SWAP5 DUP6 AND SWAP1 DUP7 ADD MSTORE SWAP3 SWAP1 SWAP2 AND PUSH1 0x60 DUP5 ADD MSTORE PUSH1 0x80 DUP4 ADD MSTORE PUSH1 0xA0 DUP3 ADD MSTORE PUSH1 0xC0 DUP2 ADD DUP7 SWAP1 MSTORE PUSH1 0xE0 ADD PUSH1 0x40 MLOAD PUSH1 0x20 DUP2 DUP4 SUB SUB DUP2 MSTORE SWAP1 PUSH1 0x40 MSTORE DUP1 MLOAD SWAP1 PUSH1 0x20 ADD KECCAK256 SWAP1 POP PUSH0 PUSH2 0x663 DUP3 PUSH2 0xCB6 JUMP JUMPDEST SWAP1 POP PUSH0 PUSH2 0x672 DUP3 DUP8 DUP8 DUP8 PUSH2 0xD02 JUMP JUMPDEST SWAP1 POP DUP10 PUSH1 0x1 PUSH1 0x1 PUSH1 0xA0 SHL SUB AND DUP2 PUSH1 0x1 PUSH1 0x1 PUSH1 0xA0 SHL SUB AND EQ PUSH2 0x6D5 JUMPI PUSH1 0x40 MLOAD PUSH3 0x461BCD PUSH1 0xE5 SHL DUP2 MSTORE PUSH1 0x20 PUSH1 0x4 DUP3 ADD MSTORE PUSH1 0x1E PUSH1 0x24 DUP3 ADD MSTORE PUSH32 0x45524332305065726D69743A20696E76616C6964207369676E61747572650000 PUSH1 0x44 DUP3 ADD MSTORE PUSH1 0x64 ADD PUSH2 0x49D JUMP JUMPDEST PUSH2 0x6E0 DUP11 DUP11 DUP11 PUSH2 0x72C JUMP JUMPDEST POP POP POP POP POP POP POP POP POP POP JUMP JUMPDEST PUSH2 0x6F7 DUP4 ADDRESS DUP4 PUSH2 0x8C1 JUMP JUMPDEST PUSH2 0x533 ADDRESS DUP4 DUP4 PUSH2 0x8C1 JUMP JUMPDEST PUSH1 0x1 PUSH1 0x1 PUSH1 0xA0 SHL SUB SWAP2 DUP3 AND PUSH0 SWAP1 DUP2 MSTORE PUSH1 0x1 PUSH1 0x20 SWAP1 DUP2 MSTORE PUSH1 0x40 DUP1 DUP4 KECCAK256 SWAP4 SWAP1 SWAP5 AND DUP3 MSTORE SWAP2 SWAP1 SWAP2 MSTORE KECCAK256 SLOAD SWAP1 JUMP JUMPDEST PUSH1 0x1 PUSH1 0x1 PUSH1 0xA0 SHL SUB DUP4 AND PUSH2 0x78E JUMPI PUSH1 0x40 MLOAD PUSH3 0x461BCD PUSH1 0xE5 SHL DUP2 MSTORE PUSH1 0x20 PUSH1 0x4 DUP3 ADD MSTORE PUSH1 0x24 DUP1 DUP3 ADD MSTORE PUSH32 0x45524332303A20617070726F76652066726F6D20746865207A65726F20616464 PUSH1 0x44 DUP3 ADD MSTORE PUSH4 0x72657373 PUSH1 0xE0 SHL PUSH1 0x64 DUP3 ADD MSTORE PUSH1 0x84 ADD PUSH2 0x49D JUMP JUMPDEST PUSH1 0x1 PUSH1 0x1 PUSH1 0xA0 SHL SUB DUP3 AND PUSH2 0x7EF JUMPI PUSH1 0x40 MLOAD PUSH3 0x461BCD PUSH1 0xE5 SHL DUP2 MSTORE PUSH1 0x20 PUSH1 0x4 DUP3 ADD MSTORE PUSH1 0x22 PUSH1 0x24 DUP3 ADD MSTORE PUSH32 0x45524332303A20617070726F766520746F20746865207A65726F206164647265 PUSH1 0x44 DUP3 ADD MSTORE PUSH2 0x7373 PUSH1 0xF0 SHL PUSH1 0x64 DUP3 ADD MSTORE PUSH1 0x84 ADD PUSH2 0x49D JUMP JUMPDEST PUSH1 0x1 PUSH1 0x1 PUSH1 0xA0 SHL SUB DUP4 DUP2 AND PUSH0 DUP2 DUP2 MSTORE PUSH1 0x1 PUSH1 0x20 SWAP1 DUP2 MSTORE PUSH1 0x40 DUP1 DUP4 KECCAK256 SWAP5 DUP8 AND DUP1 DUP5 MSTORE SWAP5 DUP3 MSTORE SWAP2 DUP3 SWAP1 KECCAK256 DUP6 SWAP1 SSTORE SWAP1 MLOAD DUP5 DUP2 MSTORE PUSH32 0x8C5BE1E5EBEC7D5BD14F71427D1E84F3DD0314C0F7B2291E5B200AC8C7C3B925 SWAP2 ADD PUSH1 0x40 MLOAD DUP1 SWAP2 SUB SWAP1 LOG3 POP POP POP JUMP JUMPDEST PUSH0 PUSH2 0x85A DUP5 DUP5 PUSH2 0x702 JUMP JUMPDEST SWAP1 POP PUSH0 NOT DUP2 EQ PUSH2 0x56C JUMPI DUP2 DUP2 LT ISZERO PUSH2 0x8B4 JUMPI PUSH1 0x40 MLOAD PUSH3 0x461BCD PUSH1 0xE5 SHL DUP2 MSTORE PUSH1 0x20 PUSH1 0x4 DUP3 ADD MSTORE PUSH1 0x1D PUSH1 0x24 DUP3 ADD MSTORE PUSH32 0x45524332303A20696E73756666696369656E7420616C6C6F77616E6365000000 PUSH1 0x44 DUP3 ADD MSTORE PUSH1 0x64 ADD PUSH2 0x49D JUMP JUMPDEST PUSH2 0x56C DUP5 DUP5 DUP5 DUP5 SUB PUSH2 0x72C JUMP JUMPDEST PUSH1 0x1 PUSH1 0x1 PUSH1 0xA0 SHL SUB DUP4 AND PUSH2 0x925 JUMPI PUSH1 0x40 MLOAD PUSH3 0x461BCD PUSH1 0xE5 SHL DUP2 MSTORE PUSH1 0x20 PUSH1 0x4 DUP3 ADD MSTORE PUSH1 0x25 PUSH1 0x24 DUP3 ADD MSTORE PUSH32 0x45524332303A207472616E736665722066726F6D20746865207A65726F206164 PUSH1 0x44 DUP3 ADD MSTORE PUSH5 0x6472657373 PUSH1 0xD8 SHL PUSH1 0x64 DUP3 ADD MSTORE PUSH1 0x84 ADD PUSH2 0x49D JUMP JUMPDEST PUSH1 0x1 PUSH1 0x1 PUSH1 0xA0 SHL SUB DUP3 AND PUSH2 0x987 JUMPI PUSH1 0x40 MLOAD PUSH3 0x461BCD PUSH1 0xE5 SHL DUP2 MSTORE PUSH1 0x20 PUSH1 0x4 DUP3 ADD MSTORE PUSH1 0x23 PUSH1 0x24 DUP3 ADD MSTORE PUSH32 0x45524332303A207472616E7366657220746F20746865207A65726F2061646472 PUSH1 0x44 DUP3 ADD MSTORE PUSH3 0x657373 PUSH1 0xE8 SHL PUSH1 0x64 DUP3 ADD MSTORE PUSH1 0x84 ADD PUSH2 0x49D JUMP JUMPDEST PUSH1 0x1 PUSH1 0x1 PUSH1 0xA0 SHL SUB DUP4 AND PUSH0 SWAP1 DUP2 MSTORE PUSH1 0x20 DUP2 SWAP1 MSTORE PUSH1 0x40 SWAP1 KECCAK256 SLOAD DUP2 DUP2 LT ISZERO PUSH2 0x9FE JUMPI PUSH1 0x40 MLOAD PUSH3 0x461BCD PUSH1 0xE5 SHL DUP2 MSTORE PUSH1 0x20 PUSH1 0x4 DUP3 ADD MSTORE PUSH1 0x26 PUSH1 0x24 DUP3 ADD MSTORE PUSH32 0x45524332303A207472616E7366657220616D6F756E7420657863656564732062 PUSH1 0x44 DUP3 ADD MSTORE PUSH6 0x616C616E6365 PUSH1 0xD0 SHL PUSH1 0x64 DUP3 ADD MSTORE PUSH1 0x84 ADD PUSH2 0x49D JUMP JUMPDEST PUSH1 0x1 PUSH1 0x1 PUSH1 0xA0 SHL SUB DUP1 DUP6 AND PUSH0 SWAP1 DUP2 MSTORE PUSH1 0x20 DUP2 SWAP1 MSTORE PUSH1 0x40 DUP1 DUP3 KECCAK256 DUP6 DUP6 SUB SWAP1 SSTORE SWAP2 DUP6 AND DUP2 MSTORE SWAP1 DUP2 KECCAK256 DUP1 SLOAD DUP5 SWAP3 SWAP1 PUSH2 0xA34 SWAP1 DUP5 SWAP1 PUSH2 0x11DB JUMP JUMPDEST SWAP3 POP POP DUP2 SWAP1 SSTORE POP DUP3 PUSH1 0x1 PUSH1 0x1 PUSH1 0xA0 SHL SUB AND DUP5 PUSH1 0x1 PUSH1 0x1 PUSH1 0xA0 SHL SUB AND PUSH32 0xDDF252AD1BE2C89B69C2B068FC378DAA952BA7F163C4A11628F55A4DF523B3EF DUP5 PUSH1 0x40 MLOAD PUSH2 0xA80 SWAP2 DUP2 MSTORE PUSH1 0x20 ADD SWAP1 JUMP JUMPDEST PUSH1 0x40 MLOAD DUP1 SWAP2 SUB SWAP1 LOG3 PUSH2 0x56C JUMP JUMPDEST PUSH0 ADDRESS PUSH1 0x1 PUSH1 0x1 PUSH1 0xA0 SHL SUB PUSH32 0x0 AND EQ DUP1 ISZERO PUSH2 0xAE5 JUMPI POP PUSH32 0x0 CHAINID EQ JUMPDEST ISZERO PUSH2 0xB0F JUMPI POP PUSH32 0x0 SWAP1 JUMP JUMPDEST POP PUSH1 0x40 DUP1 MLOAD PUSH32 0x0 PUSH1 0x20 DUP1 DUP4 ADD SWAP2 SWAP1 SWAP2 MSTORE PUSH32 0x0 DUP3 DUP5 ADD MSTORE PUSH32 0x0 PUSH1 0x60 DUP4 ADD MSTORE CHAINID PUSH1 0x80 DUP4 ADD MSTORE ADDRESS PUSH1 0xA0 DUP1 DUP5 ADD SWAP2 SWAP1 SWAP2 MSTORE DUP4 MLOAD DUP1 DUP5 SUB SWAP1 SWAP2 ADD DUP2 MSTORE PUSH1 0xC0 SWAP1 SWAP3 ADD SWAP1 SWAP3 MSTORE DUP1 MLOAD SWAP2 ADD KECCAK256 SWAP1 JUMP JUMPDEST PUSH1 0x1 PUSH1 0x1 PUSH1 0xA0 SHL SUB DUP3 AND PUSH2 0xC09 JUMPI PUSH1 0x40 MLOAD PUSH3 0x461BCD PUSH1 0xE5 SHL DUP2 MSTORE PUSH1 0x20 PUSH1 0x4 DUP3 ADD MSTORE PUSH1 0x1F PUSH1 0x24 DUP3 ADD MSTORE PUSH32 0x45524332303A206D696E7420746F20746865207A65726F206164647265737300 PUSH1 0x44 DUP3 ADD MSTORE PUSH1 0x64 ADD PUSH2 0x49D JUMP JUMPDEST DUP1 PUSH1 0x2 PUSH0 DUP3 DUP3 SLOAD PUSH2 0xC1A SWAP2 SWAP1 PUSH2 0x11DB JUMP JUMPDEST SWAP1 SWAP2 SSTORE POP POP PUSH1 0x1 PUSH1 0x1 PUSH1 0xA0 SHL SUB DUP3 AND PUSH0 SWAP1 DUP2 MSTORE PUSH1 0x20 DUP2 SWAP1 MSTORE PUSH1 0x40 DUP2 KECCAK256 DUP1 SLOAD DUP4 SWAP3 SWAP1 PUSH2 0xC46 SWAP1 DUP5 SWAP1 PUSH2 0x11DB JUMP JUMPDEST SWAP1 SWAP2 SSTORE POP POP PUSH1 0x40 MLOAD DUP2 DUP2 MSTORE PUSH1 0x1 PUSH1 0x1 PUSH1 0xA0 SHL SUB DUP4 AND SWAP1 PUSH0 SWAP1 PUSH32 0xDDF252AD1BE2C89B69C2B068FC378DAA952BA7F163C4A11628F55A4DF523B3EF SWAP1 PUSH1 0x20 ADD PUSH1 0x40 MLOAD DUP1 SWAP2 SUB SWAP1 LOG3 POP POP JUMP JUMPDEST PUSH1 0x1 PUSH1 0x1 PUSH1 0xA0 SHL SUB DUP2 AND PUSH0 SWAP1 DUP2 MSTORE PUSH1 0x5 PUSH1 0x20 MSTORE PUSH1 0x40 SWAP1 KECCAK256 DUP1 SLOAD PUSH1 0x1 DUP2 ADD DUP3 SSTORE SWAP1 JUMPDEST POP SWAP2 SWAP1 POP JUMP JUMPDEST PUSH0 PUSH2 0x397 PUSH2 0xCC2 PUSH2 0xA8D JUMP JUMPDEST DUP4 PUSH1 0x40 MLOAD PUSH2 0x1901 PUSH1 0xF0 SHL PUSH1 0x20 DUP3 ADD MSTORE PUSH1 0x22 DUP2 ADD DUP4 SWAP1 MSTORE PUSH1 0x42 DUP2 ADD DUP3 SWAP1 MSTORE PUSH0 SWAP1 PUSH1 0x62 ADD PUSH1 0x40 MLOAD PUSH1 0x20 DUP2 DUP4 SUB SUB DUP2 MSTORE SWAP1 PUSH1 0x40 MSTORE DUP1 MLOAD SWAP1 PUSH1 0x20 ADD KECCAK256 SWAP1 POP SWAP3 SWAP2 POP POP JUMP JUMPDEST PUSH0 DUP1 PUSH0 PUSH2 0xD11 DUP8 DUP8 DUP8 DUP8 PUSH2 0xD28 JUMP JUMPDEST SWAP2 POP SWAP2 POP PUSH2 0xD1E DUP2 PUSH2 0xE0D JUMP JUMPDEST POP SWAP6 SWAP5 POP POP POP POP POP JUMP JUMPDEST PUSH0 DUP1 PUSH32 0x7FFFFFFFFFFFFFFFFFFFFFFFFFFFFFFF5D576E7357A4501DDFE92F46681B20A0 DUP4 GT ISZERO PUSH2 0xD5D JUMPI POP PUSH0 SWAP1 POP PUSH1 0x3 PUSH2 0xE04 JUMP JUMPDEST DUP5 PUSH1 0xFF AND PUSH1 0x1B EQ ISZERO DUP1 ISZERO PUSH2 0xD75 JUMPI POP DUP5 PUSH1 0xFF AND PUSH1 0x1C EQ ISZERO JUMPDEST ISZERO PUSH2 0xD85 JUMPI POP PUSH0 SWAP1 POP PUSH1 0x4 PUSH2 0xE04 JUMP JUMPDEST PUSH1 0x40 DUP1 MLOAD PUSH0 DUP1 DUP3 MSTORE PUSH1 0x20 DUP3 ADD DUP1 DUP5 MSTORE DUP10 SWAP1 MSTORE PUSH1 0xFF DUP9 AND SWAP3 DUP3 ADD SWAP3 SWAP1 SWAP3 MSTORE PUSH1 0x60 DUP2 ADD DUP7 SWAP1 MSTORE PUSH1 0x80 DUP2 ADD DUP6 SWAP1 MSTORE PUSH1 0x1 SWAP1 PUSH1 0xA0 ADD PUSH1 0x20 PUSH1 0x40 MLOAD PUSH1 0x20 DUP2 SUB SWAP1 DUP1 DUP5 SUB SWAP1 DUP6 GAS STATICCALL ISZERO DUP1 ISZERO PUSH2 0xDD6 JUMPI RETURNDATASIZE PUSH0 DUP1 RETURNDATACOPY RETURNDATASIZE PUSH0 REVERT JUMPDEST POP POP PUSH1 0x40 MLOAD PUSH1 0x1F NOT ADD MLOAD SWAP2 POP POP PUSH1 0x1 PUSH1 0x1 PUSH1 0xA0 SHL SUB DUP2 AND PUSH2 0xDFE JUMPI PUSH0 PUSH1 0x1 SWAP3 POP SWAP3 POP POP PUSH2 0xE04 JUMP JUMPDEST SWAP2 POP PUSH0 SWAP1 POP JUMPDEST SWAP5 POP SWAP5 SWAP3 POP POP POP JUMP JUMPDEST PUSH0 DUP2 PUSH1 0x4 DUP2 GT ISZERO PUSH2 0xE20 JUMPI PUSH2 0xE20 PUSH2 0x1237 JUMP JUMPDEST SUB PUSH2 0xE28 JUMPI POP JUMP JUMPDEST PUSH1 0x1 DUP2 PUSH1 0x4 DUP2 GT ISZERO PUSH2 0xE3C JUMPI PUSH2 0xE3C PUSH2 0x1237 JUMP JUMPDEST SUB PUSH2 0xE89 JUMPI PUSH1 0x40 MLOAD PUSH3 0x461BCD PUSH1 0xE5 SHL DUP2 MSTORE PUSH1 0x20 PUSH1 0x4 DUP3 ADD MSTORE PUSH1 0x18 PUSH1 0x24 DUP3 ADD MSTORE PUSH32 0x45434453413A20696E76616C6964207369676E61747572650000000000000000 PUSH1 0x44 DUP3 ADD MSTORE PUSH1 0x64 ADD PUSH2 0x49D JUMP JUMPDEST PUSH1 0x2 DUP2 PUSH1 0x4 DUP2 GT ISZERO PUSH2 0xE9D JUMPI PUSH2 0xE9D PUSH2 0x1237 JUMP JUMPDEST SUB PUSH2 0xEEA JUMPI PUSH1 0x40 MLOAD PUSH3 0x461BCD PUSH1 0xE5 SHL DUP2 MSTORE PUSH1 0x20 PUSH1 0x4 DUP3 ADD MSTORE PUSH1 0x1F PUSH1 0x24 DUP3 ADD MSTORE PUSH32 0x45434453413A20696E76616C6964207369676E6174757265206C656E67746800 PUSH1 0x44 DUP3 ADD MSTORE PUSH1 0x64 ADD PUSH2 0x49D JUMP JUMPDEST PUSH1 0x3 DUP2 PUSH1 0x4 DUP2 GT ISZERO PUSH2 0xEFE JUMPI PUSH2 0xEFE PUSH2 0x1237 JUMP JUMPDEST SUB PUSH2 0xF56 JUMPI PUSH1 0x40 MLOAD PUSH3 0x461BCD PUSH1 0xE5 SHL DUP2 MSTORE PUSH1 0x20 PUSH1 0x4 DUP3 ADD MSTORE PUSH1 0x22 PUSH1 0x24 DUP3 ADD MSTORE PUSH32 0x45434453413A20696E76616C6964207369676E6174757265202773272076616C PUSH1 0x44 DUP3 ADD MSTORE PUSH2 0x7565 PUSH1 0xF0 SHL PUSH1 0x64 DUP3 ADD MSTORE PUSH1 0x84 ADD PUSH2 0x49D JUMP JUMPDEST PUSH1 0x4 DUP2 PUSH1 0x4 DUP2 GT ISZERO PUSH2 0xF6A JUMPI PUSH2 0xF6A PUSH2 0x1237 JUMP JUMPDEST SUB PUSH2 0xFC2 JUMPI PUSH1 0x40 MLOAD PUSH3 0x461BCD PUSH1 0xE5 SHL DUP2 MSTORE PUSH1 0x20 PUSH1 0x4 DUP3 ADD MSTORE PUSH1 0x22 PUSH1 0x24 DUP3 ADD MSTORE PUSH32 0x45434453413A20696E76616C6964207369676E6174757265202776272076616C PUSH1 0x44 DUP3 ADD MSTORE PUSH2 0x7565 PUSH1 0xF0 SHL PUSH1 0x64 DUP3 ADD MSTORE PUSH1 0x84 ADD PUSH2 0x49D JUMP JUMPDEST POP JUMP JUMPDEST PUSH0 PUSH1 0x20 DUP1 DUP4 MSTORE DUP4 MLOAD DUP1 DUP3 DUP6 ADD MSTORE PUSH0 JUMPDEST DUP2 DUP2 LT ISZERO PUSH2 0xFF0 JUMPI DUP6 DUP2 ADD DUP4 ADD MLOAD DUP6 DUP3 ADD PUSH1 0x40 ADD MSTORE DUP3 ADD PUSH2 0xFD4 JUMP JUMPDEST POP PUSH0 PUSH1 0x40 DUP3 DUP7 ADD ADD MSTORE PUSH1 0x40 PUSH1 0x1F NOT PUSH1 0x1F DUP4 ADD AND DUP6 ADD ADD SWAP3 POP POP POP SWAP3 SWAP2 POP POP JUMP JUMPDEST DUP1 CALLDATALOAD PUSH1 0x1 PUSH1 0x1 PUSH1 0xA0 SHL SUB DUP2 AND DUP2 EQ PUSH2 0x1026 JUMPI PUSH0 DUP1 REVERT JUMPDEST SWAP2 SWAP1 POP JUMP JUMPDEST PUSH0 DUP1 PUSH1 0x40 DUP4 DUP6 SUB SLT ISZERO PUSH2 0x103C JUMPI PUSH0 DUP1 REVERT JUMPDEST PUSH2 0x1045 DUP4 PUSH2 0x1010 JUMP JUMPDEST SWAP5 PUSH1 0x20 SWAP4 SWAP1 SWAP4 ADD CALLDATALOAD SWAP4 POP POP POP JUMP JUMPDEST PUSH0 DUP1 PUSH0 PUSH1 0x60 DUP5 DUP7 SUB SLT ISZERO PUSH2 0x1065 JUMPI PUSH0 DUP1 REVERT JUMPDEST PUSH2 0x106E DUP5 PUSH2 0x1010 JUMP JUMPDEST SWAP3 POP PUSH2 0x107C PUSH1 0x20 DUP6 ADD PUSH2 0x1010 JUMP JUMPDEST SWAP2 POP PUSH1 0x40 DUP5 ADD CALLDATALOAD SWAP1 POP SWAP3 POP SWAP3 POP SWAP3 JUMP JUMPDEST PUSH0 PUSH1 0x20 DUP3 DUP5 SUB SLT ISZERO PUSH2 0x109C JUMPI PUSH0 DUP1 REVERT JUMPDEST PUSH2 0x10A5 DUP3 PUSH2 0x1010 JUMP JUMPDEST SWAP4 SWAP3 POP POP POP JUMP JUMPDEST DUP1 CALLDATALOAD PUSH1 0xFF DUP2 AND DUP2 EQ PUSH2 0x1026 JUMPI PUSH0 DUP1 REVERT JUMPDEST PUSH0 DUP1 PUSH0 DUP1 PUSH0 PUSH1 0xA0 DUP7 DUP9 SUB SLT ISZERO PUSH2 0x10D0 JUMPI PUSH0 DUP1 REVERT JUMPDEST DUP6 CALLDATALOAD SWAP5 POP PUSH1 0x20 DUP7 ADD CALLDATALOAD SWAP4 POP PUSH2 0x10E7 PUSH1 0x40 DUP8 ADD PUSH2 0x10AC JUMP JUMPDEST SWAP5 SWAP8 SWAP4 SWAP7 POP SWAP4 SWAP5 PUSH1 0x60 DUP2 ADD CALLDATALOAD SWAP5 POP PUSH1 0x80 ADD CALLDATALOAD SWAP3 SWAP2 POP POP JUMP JUMPDEST PUSH0 DUP1 PUSH0 DUP1 PUSH0 DUP1 PUSH0 PUSH1 0xE0 DUP9 DUP11 SUB SLT ISZERO PUSH2 0x1115 JUMPI PUSH0 DUP1 REVERT JUMPDEST PUSH2 0x111E DUP9 PUSH2 0x1010 JUMP JUMPDEST SWAP7 POP PUSH2 0x112C PUSH1 0x20 DUP10 ADD PUSH2 0x1010 JUMP JUMPDEST SWAP6 POP PUSH1 0x40 DUP9 ADD CALLDATALOAD SWAP5 POP PUSH1 0x60 DUP9 ADD CALLDATALOAD SWAP4 POP PUSH2 0x1148 PUSH1 0x80 DUP10 ADD PUSH2 0x10AC JUMP JUMPDEST SWAP3 POP PUSH1 0xA0 DUP9 ADD CALLDATALOAD SWAP2 POP PUSH1 0xC0 DUP9 ADD CALLDATALOAD SWAP1 POP SWAP3 SWAP6 SWAP9 SWAP2 SWAP5 SWAP8 POP SWAP3 SWAP6 POP JUMP JUMPDEST PUSH0 DUP1 PUSH1 0x40 DUP4 DUP6 SUB SLT ISZERO PUSH2 0x1175 JUMPI PUSH0 DUP1 REVERT JUMPDEST PUSH2 0x117E DUP4 PUSH2 0x1010 JUMP JUMPDEST SWAP2 POP PUSH2 0x118C PUSH1 0x20 DUP5 ADD PUSH2 0x1010 JUMP JUMPDEST SWAP1 POP SWAP3 POP SWAP3 SWAP1 POP JUMP JUMPDEST PUSH1 0x1 DUP2 DUP2 SHR SWAP1 DUP3 AND DUP1 PUSH2 0x11A9 JUMPI PUSH1 0x7F DUP3 AND SWAP2 POP JUMPDEST PUSH1 0x20 DUP3 LT DUP2 SUB PUSH2 0xCB0 JUMPI PUSH4 0x4E487B71 PUSH1 0xE0 SHL PUSH0 MSTORE PUSH1 0x22 PUSH1 0x4 MSTORE PUSH1 0x24 PUSH0 REVERT JUMPDEST PUSH4 0x4E487B71 PUSH1 0xE0 SHL PUSH0 MSTORE PUSH1 0x11 PUSH1 0x4 MSTORE PUSH1 0x24 PUSH0 REVERT JUMPDEST DUP1 DUP3 ADD DUP1 DUP3 GT ISZERO PUSH2 0x397 JUMPI PUSH2 0x397 PUSH2 0x11C7 JUMP JUMPDEST DUP2 DUP2 SUB DUP2 DUP2 GT ISZERO PUSH2 0x397 JUMPI PUSH2 0x397 PUSH2 0x11C7 JUMP JUMPDEST DUP1 DUP3 MUL DUP2 ISZERO DUP3 DUP3 DIV DUP5 EQ OR PUSH2 0x397 JUMPI PUSH2 0x397 PUSH2 0x11C7 JUMP JUMPDEST PUSH0 DUP3 PUSH2 0x1232 JUMPI PUSH4 0x4E487B71 PUSH1 0xE0 SHL PUSH0 MSTORE PUSH1 0x12 PUSH1 0x4 MSTORE PUSH1 0x24 PUSH0 REVERT JUMPDEST POP DIV SWAP1 JUMP JUMPDEST PUSH4 0x4E487B71 PUSH1 0xE0 SHL PUSH0 MSTORE PUSH1 0x21 PUSH1 0x4 MSTORE PUSH1 0x24 PUSH0 REVERT INVALID LOG2 PUSH5 0x6970667358 0x22 SLT KECCAK256 PUSH30 0x9348407B3865221AC9FD7D9ACB371CA859F0E85021CD9694F41CEF86A873 SUB PUSH5 0x736F6C6343 STOP ADDMOD ISZERO STOP CALLER "
				},
				"gasEstimates": {
					"creation": {
						"codeDepositCost": "947400",
						"executionCost": "infinite",
						"totalCost": "infinite"
					},
					"external": {
						"DOMAIN_SEPARATOR()": "infinite",
						"RegisterLender(uint256,uint256,uint8,bytes32,bytes32)": "infinite",
						"allowance(address,address)": "infinite",
						"approve(address,uint256)": "24647",
						"balanceOf(address)": "2648",
						"borrowedAmount(address)": "2561",
						"decimals()": "288",
						"decreaseAllowance(address,uint256)": "27034",
						"increaseAllowance(address,uint256)": "infinite",
						"lendedAmount(address)": "2538",
						"mint(address,uint256)": "infinite",
						"name()": "infinite",
						"nonces(address)": "2591",
						"permit(address,address,uint256,uint256,uint8,bytes32,bytes32)": "infinite",
						"symbol()": "infinite",
						"testTransfer(address,address,uint256)": "infinite",
						"totalSupply()": "2348",
						"transfer(address,uint256)": "infinite",
						"transferFrom(address,address,uint256)": "infinite",
						"transferToAddr(address,address,uint256)": "infinite",
						"transfertoContract(address,uint256)": "51174"
					}
				},
				"methodIdentifiers": {
					"DOMAIN_SEPARATOR()": "3644e515",
					"RegisterLender(uint256,uint256,uint8,bytes32,bytes32)": "d1003ed4",
					"allowance(address,address)": "dd62ed3e",
					"approve(address,uint256)": "095ea7b3",
					"balanceOf(address)": "70a08231",
					"borrowedAmount(address)": "948adb8f",
					"decimals()": "313ce567",
					"decreaseAllowance(address,uint256)": "a457c2d7",
					"increaseAllowance(address,uint256)": "39509351",
					"lendedAmount(address)": "b4b05958",
					"mint(address,uint256)": "40c10f19",
					"name()": "06fdde03",
					"nonces(address)": "7ecebe00",
					"permit(address,address,uint256,uint256,uint8,bytes32,bytes32)": "d505accf",
					"symbol()": "95d89b41",
					"testTransfer(address,address,uint256)": "db673035",
					"totalSupply()": "18160ddd",
					"transfer(address,uint256)": "a9059cbb",
					"transferFrom(address,address,uint256)": "23b872dd",
					"transferToAddr(address,address,uint256)": "ce2e08e5",
					"transfertoContract(address,uint256)": "3b4c0c07"
				}
			},
			"storageLayout": {
				"storage": [
					{
						"astId": 15,
						"contract": "P2PLending.sol:MyToken",
						"label": "_balances",
						"offset": 0,
						"slot": "0",
						"type": "t_mapping(t_address,t_uint256)"
					},
					{
						"astId": 21,
						"contract": "P2PLending.sol:MyToken",
						"label": "_allowances",
						"offset": 0,
						"slot": "1",
						"type": "t_mapping(t_address,t_mapping(t_address,t_uint256))"
					},
					{
						"astId": 23,
						"contract": "P2PLending.sol:MyToken",
						"label": "_totalSupply",
						"offset": 0,
						"slot": "2",
						"type": "t_uint256"
					},
					{
						"astId": 25,
						"contract": "P2PLending.sol:MyToken",
						"label": "_name",
						"offset": 0,
						"slot": "3",
						"type": "t_string_storage"
					},
					{
						"astId": 27,
						"contract": "P2PLending.sol:MyToken",
						"label": "_symbol",
						"offset": 0,
						"slot": "4",
						"type": "t_string_storage"
					},
					{
						"astId": 711,
						"contract": "P2PLending.sol:MyToken",
						"label": "_nonces",
						"offset": 0,
						"slot": "5",
						"type": "t_mapping(t_address,t_struct(Counter)924_storage)"
					},
					{
						"astId": 719,
						"contract": "P2PLending.sol:MyToken",
						"label": "_PERMIT_TYPEHASH_DEPRECATED_SLOT",
						"offset": 0,
						"slot": "6",
						"type": "t_bytes32"
					},
					{
						"astId": 1783,
						"contract": "P2PLending.sol:MyToken",
						"label": "BorrowerToLender",
						"offset": 0,
						"slot": "7",
						"type": "t_mapping(t_address,t_address)"
					},
					{
						"astId": 1787,
						"contract": "P2PLending.sol:MyToken",
						"label": "lendedAmount",
						"offset": 0,
						"slot": "8",
						"type": "t_mapping(t_address,t_uint256)"
					},
					{
						"astId": 1791,
						"contract": "P2PLending.sol:MyToken",
						"label": "borrowedAmount",
						"offset": 0,
						"slot": "9",
						"type": "t_mapping(t_address,t_uint256)"
					}
				],
				"types": {
					"t_address": {
						"encoding": "inplace",
						"label": "address",
						"numberOfBytes": "20"
					},
					"t_bytes32": {
						"encoding": "inplace",
						"label": "bytes32",
						"numberOfBytes": "32"
					},
					"t_mapping(t_address,t_address)": {
						"encoding": "mapping",
						"key": "t_address",
						"label": "mapping(address => address)",
						"numberOfBytes": "32",
						"value": "t_address"
					},
					"t_mapping(t_address,t_mapping(t_address,t_uint256))": {
						"encoding": "mapping",
						"key": "t_address",
						"label": "mapping(address => mapping(address => uint256))",
						"numberOfBytes": "32",
						"value": "t_mapping(t_address,t_uint256)"
					},
					"t_mapping(t_address,t_struct(Counter)924_storage)": {
						"encoding": "mapping",
						"key": "t_address",
						"label": "mapping(address => struct Counters.Counter)",
						"numberOfBytes": "32",
						"value": "t_struct(Counter)924_storage"
					},
					"t_mapping(t_address,t_uint256)": {
						"encoding": "mapping",
						"key": "t_address",
						"label": "mapping(address => uint256)",
						"numberOfBytes": "32",
						"value": "t_uint256"
					},
					"t_string_storage": {
						"encoding": "bytes",
						"label": "string",
						"numberOfBytes": "32"
					},
					"t_struct(Counter)924_storage": {
						"encoding": "inplace",
						"label": "struct Counters.Counter",
						"members": [
							{
								"astId": 923,
								"contract": "P2PLending.sol:MyToken",
								"label": "_value",
								"offset": 0,
								"slot": "0",
								"type": "t_uint256"
							}
						],
						"numberOfBytes": "32"
					},
					"t_uint256": {
						"encoding": "inplace",
						"label": "uint256",
						"numberOfBytes": "32"
					}
				}
			},
			"userdoc": {
				"kind": "user",
				"methods": {},
				"version": 1
			}
		}
	}
}