{
	"structpractice.sol": {
		"structPractice": {
			"abi": [
				{
					"inputs": [],
					"name": "generateUniqueNumber",
					"outputs": [
						{
							"internalType": "uint256",
							"name": "",
							"type": "uint256"
						}
					],
					"stateMutability": "nonpayable",
					"type": "function"
				},
				{
					"inputs": [
						{
							"internalType": "address",
							"name": "",
							"type": "address"
						}
					],
					"name": "personMappingOnAddress",
					"outputs": [
						{
							"internalType": "string",
							"name": "name",
							"type": "string"
						},
						{
							"internalType": "uint256",
							"name": "age",
							"type": "uint256"
						},
						{
							"internalType": "uint256",
							"name": "phoneNo",
							"type": "uint256"
						},
						{
							"internalType": "string",
							"name": "addressDetails",
							"type": "string"
						},
						{
							"internalType": "uint256",
							"name": "uniqueId",
							"type": "uint256"
						}
					],
					"stateMutability": "view",
					"type": "function"
				},
				{
					"inputs": [
						{
							"internalType": "uint256",
							"name": "",
							"type": "uint256"
						}
					],
					"name": "personMappingOnUinqueID",
					"outputs": [
						{
							"internalType": "string",
							"name": "name",
							"type": "string"
						},
						{
							"internalType": "uint256",
							"name": "age",
							"type": "uint256"
						},
						{
							"internalType": "uint256",
							"name": "phoneNo",
							"type": "uint256"
						},
						{
							"internalType": "string",
							"name": "addressDetails",
							"type": "string"
						},
						{
							"internalType": "uint256",
							"name": "uniqueId",
							"type": "uint256"
						}
					],
					"stateMutability": "view",
					"type": "function"
				},
				{
					"inputs": [],
					"name": "returnDetails",
					"outputs": [
						{
							"components": [
								{
									"internalType": "string",
									"name": "name",
									"type": "string"
								},
								{
									"internalType": "uint256",
									"name": "age",
									"type": "uint256"
								},
								{
									"internalType": "uint256",
									"name": "phoneNo",
									"type": "uint256"
								},
								{
									"internalType": "string",
									"name": "addressDetails",
									"type": "string"
								},
								{
									"internalType": "uint256",
									"name": "uniqueId",
									"type": "uint256"
								}
							],
							"internalType": "struct structPractice.personDetails",
							"name": "",
							"type": "tuple"
						}
					],
					"stateMutability": "view",
					"type": "function"
				},
				{
					"inputs": [
						{
							"internalType": "string",
							"name": "_name",
							"type": "string"
						},
						{
							"internalType": "uint256",
							"name": "_age",
							"type": "uint256"
						},
						{
							"internalType": "uint256",
							"name": "_phoneNo",
							"type": "uint256"
						},
						{
							"internalType": "string",
							"name": "_addressDetails",
							"type": "string"
						}
					],
					"name": "setDetailsOfPerson",
					"outputs": [],
					"stateMutability": "nonpayable",
					"type": "function"
				}
			],
			"devdoc": {
				"kind": "dev",
				"methods": {},
				"version": 1
			},
			"evm": {
				"assembly": "    /* \"structpractice.sol\":27:1141  contract structPractice {... */\n  mstore(0x40, 0x80)\n    /* \"structpractice.sol\":407:408  0 */\n  0x00\n    /* \"structpractice.sol\":381:408  uint256 private counter = 0 */\n  0x07\n  sstore\n    /* \"structpractice.sol\":27:1141  contract structPractice {... */\n  callvalue\n  dup1\n  iszero\n  tag_1\n  jumpi\n  0x00\n  dup1\n  revert\ntag_1:\n  pop\n  dataSize(sub_0)\n  dup1\n  dataOffset(sub_0)\n  0x00\n  codecopy\n  0x00\n  return\nstop\n\nsub_0: assembly {\n        /* \"structpractice.sol\":27:1141  contract structPractice {... */\n      mstore(0x40, 0x80)\n      callvalue\n      dup1\n      iszero\n      tag_1\n      jumpi\n      0x00\n      dup1\n      revert\n    tag_1:\n      pop\n      jumpi(tag_2, lt(calldatasize, 0x04))\n      shr(0xe0, calldataload(0x00))\n      dup1\n      0x6fc22123\n      eq\n      tag_3\n      jumpi\n      dup1\n      0x8739e663\n      eq\n      tag_4\n      jumpi\n      dup1\n      0x88dd9323\n      eq\n      tag_5\n      jumpi\n      dup1\n      0xb155f116\n      eq\n      tag_6\n      jumpi\n      dup1\n      0xd819c635\n      eq\n      tag_7\n      jumpi\n    tag_2:\n      0x00\n      dup1\n      revert\n        /* \"structpractice.sol\":608:1008  function setDetailsOfPerson(string memory _name, uint _age, uint _phoneNo, string memory _addressDetails) public {... */\n    tag_3:\n      tag_8\n      0x04\n      dup1\n      calldatasize\n      sub\n      dup2\n      add\n      swap1\n      tag_9\n      swap2\n      swap1\n      tag_10\n      jump\t// in\n    tag_9:\n      tag_11\n      jump\t// in\n    tag_8:\n      stop\n        /* \"structpractice.sol\":1014:1139  function returnDetails() public view returns(personDetails memory) {... */\n    tag_4:\n      tag_12\n      tag_13\n      jump\t// in\n    tag_12:\n      mload(0x40)\n      tag_14\n      swap2\n      swap1\n      tag_15\n      jump\t// in\n    tag_14:\n      mload(0x40)\n      dup1\n      swap2\n      sub\n      swap1\n      return\n        /* \"structpractice.sol\":313:375  mapping (uint => personDetails) public personMappingOnUinqueID */\n    tag_5:\n      tag_16\n      0x04\n      dup1\n      calldatasize\n      sub\n      dup2\n      add\n      swap1\n      tag_17\n      swap2\n      swap1\n      tag_18\n      jump\t// in\n    tag_17:\n      tag_19\n      jump\t// in\n    tag_16:\n      mload(0x40)\n      tag_20\n      swap6\n      swap5\n      swap4\n      swap3\n      swap2\n      swap1\n      tag_21\n      jump\t// in\n    tag_20:\n      mload(0x40)\n      dup1\n      swap2\n      sub\n      swap1\n      return\n        /* \"structpractice.sol\":243:307  mapping (address => personDetails) public personMappingOnAddress */\n    tag_6:\n      tag_22\n      0x04\n      dup1\n      calldatasize\n      sub\n      dup2\n      add\n      swap1\n      tag_23\n      swap2\n      swap1\n      tag_24\n      jump\t// in\n    tag_23:\n      tag_25\n      jump\t// in\n    tag_22:\n      mload(0x40)\n      tag_26\n      swap6\n      swap5\n      swap4\n      swap3\n      swap2\n      swap1\n      tag_21\n      jump\t// in\n    tag_26:\n      mload(0x40)\n      dup1\n      swap2\n      sub\n      swap1\n      return\n        /* \"structpractice.sol\":415:602  function generateUniqueNumber() public returns (uint256) {... */\n    tag_7:\n      tag_27\n      tag_28\n      jump\t// in\n    tag_27:\n      mload(0x40)\n      tag_29\n      swap2\n      swap1\n      tag_30\n      jump\t// in\n    tag_29:\n      mload(0x40)\n      dup1\n      swap2\n      sub\n      swap1\n      return\n        /* \"structpractice.sol\":608:1008  function setDetailsOfPerson(string memory _name, uint _age, uint _phoneNo, string memory _addressDetails) public {... */\n    tag_11:\n        /* \"structpractice.sol\":731:752  uint256 _uniqueNumber */\n      0x00\n        /* \"structpractice.sol\":755:777  generateUniqueNumber() */\n      tag_32\n        /* \"structpractice.sol\":755:775  generateUniqueNumber */\n      tag_28\n        /* \"structpractice.sol\":755:777  generateUniqueNumber() */\n      jump\t// in\n    tag_32:\n        /* \"structpractice.sol\":731:777  uint256 _uniqueNumber = generateUniqueNumber() */\n      swap1\n      pop\n        /* \"structpractice.sol\":805:873  personDetails(_name, _age, _phoneNo, _addressDetails, _uniqueNumber) */\n      mload(0x40)\n      dup1\n      0xa0\n      add\n      0x40\n      mstore\n      dup1\n        /* \"structpractice.sol\":819:824  _name */\n      dup7\n        /* \"structpractice.sol\":805:873  personDetails(_name, _age, _phoneNo, _addressDetails, _uniqueNumber) */\n      dup2\n      mstore\n      0x20\n      add\n        /* \"structpractice.sol\":826:830  _age */\n      dup6\n        /* \"structpractice.sol\":805:873  personDetails(_name, _age, _phoneNo, _addressDetails, _uniqueNumber) */\n      dup2\n      mstore\n      0x20\n      add\n        /* \"structpractice.sol\":832:840  _phoneNo */\n      dup5\n        /* \"structpractice.sol\":805:873  personDetails(_name, _age, _phoneNo, _addressDetails, _uniqueNumber) */\n      dup2\n      mstore\n      0x20\n      add\n        /* \"structpractice.sol\":842:857  _addressDetails */\n      dup4\n        /* \"structpractice.sol\":805:873  personDetails(_name, _age, _phoneNo, _addressDetails, _uniqueNumber) */\n      dup2\n      mstore\n      0x20\n      add\n        /* \"structpractice.sol\":859:872  _uniqueNumber */\n      dup3\n        /* \"structpractice.sol\":805:873  personDetails(_name, _age, _phoneNo, _addressDetails, _uniqueNumber) */\n      dup2\n      mstore\n      pop\n        /* \"structpractice.sol\":787:802  detailsOfPerson */\n      0x00\n        /* \"structpractice.sol\":787:873  detailsOfPerson = personDetails(_name, _age, _phoneNo, _addressDetails, _uniqueNumber) */\n      dup1\n      dup3\n      add\n      mload\n      dup2\n      0x00\n      add\n      swap1\n      dup2\n      tag_33\n      swap2\n      swap1\n      tag_34\n      jump\t// in\n    tag_33:\n      pop\n      0x20\n      dup3\n      add\n      mload\n      dup2\n      0x01\n      add\n      sstore\n      0x40\n      dup3\n      add\n      mload\n      dup2\n      0x02\n      add\n      sstore\n      0x60\n      dup3\n      add\n      mload\n      dup2\n      0x03\n      add\n      swap1\n      dup2\n      tag_35\n      swap2\n      swap1\n      tag_34\n      jump\t// in\n    tag_35:\n      pop\n      0x80\n      dup3\n      add\n      mload\n      dup2\n      0x04\n      add\n      sstore\n      swap1\n      pop\n      pop\n        /* \"structpractice.sol\":920:935  detailsOfPerson */\n      0x00\n        /* \"structpractice.sol\":883:905  personMappingOnAddress */\n      0x05\n        /* \"structpractice.sol\":883:917  personMappingOnAddress[msg.sender] */\n      0x00\n        /* \"structpractice.sol\":906:916  msg.sender */\n      caller\n        /* \"structpractice.sol\":883:917  personMappingOnAddress[msg.sender] */\n      0xffffffffffffffffffffffffffffffffffffffff\n      and\n      0xffffffffffffffffffffffffffffffffffffffff\n      and\n      dup2\n      mstore\n      0x20\n      add\n      swap1\n      dup2\n      mstore\n      0x20\n      add\n      0x00\n      keccak256\n        /* \"structpractice.sol\":883:935  personMappingOnAddress[msg.sender] = detailsOfPerson */\n      0x00\n      dup3\n      add\n      dup2\n      0x00\n      add\n      swap1\n      dup2\n      tag_36\n      swap2\n      swap1\n      tag_37\n      jump\t// in\n    tag_36:\n      pop\n      0x01\n      dup3\n      add\n      sload\n      dup2\n      0x01\n      add\n      sstore\n      0x02\n      dup3\n      add\n      sload\n      dup2\n      0x02\n      add\n      sstore\n      0x03\n      dup3\n      add\n      dup2\n      0x03\n      add\n      swap1\n      dup2\n      tag_38\n      swap2\n      swap1\n      tag_37\n      jump\t// in\n    tag_38:\n      pop\n      0x04\n      dup3\n      add\n      sload\n      dup2\n      0x04\n      add\n      sstore\n      swap1\n      pop\n      pop\n        /* \"structpractice.sol\":986:1001  detailsOfPerson */\n      0x00\n        /* \"structpractice.sol\":945:968  personMappingOnUinqueID */\n      0x06\n        /* \"structpractice.sol\":945:983  personMappingOnUinqueID[_uniqueNumber] */\n      0x00\n        /* \"structpractice.sol\":969:982  _uniqueNumber */\n      dup4\n        /* \"structpractice.sol\":945:983  personMappingOnUinqueID[_uniqueNumber] */\n      dup2\n      mstore\n      0x20\n      add\n      swap1\n      dup2\n      mstore\n      0x20\n      add\n      0x00\n      keccak256\n        /* \"structpractice.sol\":945:1001  personMappingOnUinqueID[_uniqueNumber] = detailsOfPerson */\n      0x00\n      dup3\n      add\n      dup2\n      0x00\n      add\n      swap1\n      dup2\n      tag_39\n      swap2\n      swap1\n      tag_37\n      jump\t// in\n    tag_39:\n      pop\n      0x01\n      dup3\n      add\n      sload\n      dup2\n      0x01\n      add\n      sstore\n      0x02\n      dup3\n      add\n      sload\n      dup2\n      0x02\n      add\n      sstore\n      0x03\n      dup3\n      add\n      dup2\n      0x03\n      add\n      swap1\n      dup2\n      tag_40\n      swap2\n      swap1\n      tag_37\n      jump\t// in\n    tag_40:\n      pop\n      0x04\n      dup3\n      add\n      sload\n      dup2\n      0x04\n      add\n      sstore\n      swap1\n      pop\n      pop\n        /* \"structpractice.sol\":721:1008  {... */\n      pop\n        /* \"structpractice.sol\":608:1008  function setDetailsOfPerson(string memory _name, uint _age, uint _phoneNo, string memory _addressDetails) public {... */\n      pop\n      pop\n      pop\n      pop\n      jump\t// out\n        /* \"structpractice.sol\":1014:1139  function returnDetails() public view returns(personDetails memory) {... */\n    tag_13:\n        /* \"structpractice.sol\":1059:1079  personDetails memory */\n      tag_41\n      tag_42\n      jump\t// in\n    tag_41:\n        /* \"structpractice.sol\":1098:1120  personMappingOnAddress */\n      0x05\n        /* \"structpractice.sol\":1098:1132  personMappingOnAddress[msg.sender] */\n      0x00\n        /* \"structpractice.sol\":1121:1131  msg.sender */\n      caller\n        /* \"structpractice.sol\":1098:1132  personMappingOnAddress[msg.sender] */\n      0xffffffffffffffffffffffffffffffffffffffff\n      and\n      0xffffffffffffffffffffffffffffffffffffffff\n      and\n      dup2\n      mstore\n      0x20\n      add\n      swap1\n      dup2\n      mstore\n      0x20\n      add\n      0x00\n      keccak256\n        /* \"structpractice.sol\":1091:1132  return personMappingOnAddress[msg.sender] */\n      mload(0x40)\n      dup1\n      0xa0\n      add\n      0x40\n      mstore\n      swap1\n      dup2\n      0x00\n      dup3\n      add\n      dup1\n      sload\n      tag_44\n      swap1\n      tag_45\n      jump\t// in\n    tag_44:\n      dup1\n      0x1f\n      add\n      0x20\n      dup1\n      swap2\n      div\n      mul\n      0x20\n      add\n      mload(0x40)\n      swap1\n      dup2\n      add\n      0x40\n      mstore\n      dup1\n      swap3\n      swap2\n      swap1\n      dup2\n      dup2\n      mstore\n      0x20\n      add\n      dup3\n      dup1\n      sload\n      tag_46\n      swap1\n      tag_45\n      jump\t// in\n    tag_46:\n      dup1\n      iszero\n      tag_47\n      jumpi\n      dup1\n      0x1f\n      lt\n      tag_48\n      jumpi\n      0x0100\n      dup1\n      dup4\n      sload\n      div\n      mul\n      dup4\n      mstore\n      swap2\n      0x20\n      add\n      swap2\n      jump(tag_47)\n    tag_48:\n      dup3\n      add\n      swap2\n      swap1\n      0x00\n      mstore\n      keccak256(0x00, 0x20)\n      swap1\n    tag_49:\n      dup2\n      sload\n      dup2\n      mstore\n      swap1\n      0x01\n      add\n      swap1\n      0x20\n      add\n      dup1\n      dup4\n      gt\n      tag_49\n      jumpi\n      dup3\n      swap1\n      sub\n      0x1f\n      and\n      dup3\n      add\n      swap2\n    tag_47:\n      pop\n      pop\n      pop\n      pop\n      pop\n      dup2\n      mstore\n      0x20\n      add\n      0x01\n      dup3\n      add\n      sload\n      dup2\n      mstore\n      0x20\n      add\n      0x02\n      dup3\n      add\n      sload\n      dup2\n      mstore\n      0x20\n      add\n      0x03\n      dup3\n      add\n      dup1\n      sload\n      tag_50\n      swap1\n      tag_45\n      jump\t// in\n    tag_50:\n      dup1\n      0x1f\n      add\n      0x20\n      dup1\n      swap2\n      div\n      mul\n      0x20\n      add\n      mload(0x40)\n      swap1\n      dup2\n      add\n      0x40\n      mstore\n      dup1\n      swap3\n      swap2\n      swap1\n      dup2\n      dup2\n      mstore\n      0x20\n      add\n      dup3\n      dup1\n      sload\n      tag_51\n      swap1\n      tag_45\n      jump\t// in\n    tag_51:\n      dup1\n      iszero\n      tag_52\n      jumpi\n      dup1\n      0x1f\n      lt\n      tag_53\n      jumpi\n      0x0100\n      dup1\n      dup4\n      sload\n      div\n      mul\n      dup4\n      mstore\n      swap2\n      0x20\n      add\n      swap2\n      jump(tag_52)\n    tag_53:\n      dup3\n      add\n      swap2\n      swap1\n      0x00\n      mstore\n      keccak256(0x00, 0x20)\n      swap1\n    tag_54:\n      dup2\n      sload\n      dup2\n      mstore\n      swap1\n      0x01\n      add\n      swap1\n      0x20\n      add\n      dup1\n      dup4\n      gt\n      tag_54\n      jumpi\n      dup3\n      swap1\n      sub\n      0x1f\n      and\n      dup3\n      add\n      swap2\n    tag_52:\n      pop\n      pop\n      pop\n      pop\n      pop\n      dup2\n      mstore\n      0x20\n      add\n      0x04\n      dup3\n      add\n      sload\n      dup2\n      mstore\n      pop\n      pop\n      swap1\n      pop\n        /* \"structpractice.sol\":1014:1139  function returnDetails() public view returns(personDetails memory) {... */\n      swap1\n      jump\t// out\n        /* \"structpractice.sol\":313:375  mapping (uint => personDetails) public personMappingOnUinqueID */\n    tag_19:\n      mstore(0x20, 0x06)\n      dup1\n      0x00\n      mstore\n      keccak256(0x00, 0x40)\n      0x00\n      swap2\n      pop\n      swap1\n      pop\n      dup1\n      0x00\n      add\n      dup1\n      sload\n      tag_55\n      swap1\n      tag_45\n      jump\t// in\n    tag_55:\n      dup1\n      0x1f\n      add\n      0x20\n      dup1\n      swap2\n      div\n      mul\n      0x20\n      add\n      mload(0x40)\n      swap1\n      dup2\n      add\n      0x40\n      mstore\n      dup1\n      swap3\n      swap2\n      swap1\n      dup2\n      dup2\n      mstore\n      0x20\n      add\n      dup3\n      dup1\n      sload\n      tag_56\n      swap1\n      tag_45\n      jump\t// in\n    tag_56:\n      dup1\n      iszero\n      tag_57\n      jumpi\n      dup1\n      0x1f\n      lt\n      tag_58\n      jumpi\n      0x0100\n      dup1\n      dup4\n      sload\n      div\n      mul\n      dup4\n      mstore\n      swap2\n      0x20\n      add\n      swap2\n      jump(tag_57)\n    tag_58:\n      dup3\n      add\n      swap2\n      swap1\n      0x00\n      mstore\n      keccak256(0x00, 0x20)\n      swap1\n    tag_59:\n      dup2\n      sload\n      dup2\n      mstore\n      swap1\n      0x01\n      add\n      swap1\n      0x20\n      add\n      dup1\n      dup4\n      gt\n      tag_59\n      jumpi\n      dup3\n      swap1\n      sub\n      0x1f\n      and\n      dup3\n      add\n      swap2\n    tag_57:\n      pop\n      pop\n      pop\n      pop\n      pop\n      swap1\n      dup1\n      0x01\n      add\n      sload\n      swap1\n      dup1\n      0x02\n      add\n      sload\n      swap1\n      dup1\n      0x03\n      add\n      dup1\n      sload\n      tag_60\n      swap1\n      tag_45\n      jump\t// in\n    tag_60:\n      dup1\n      0x1f\n      add\n      0x20\n      dup1\n      swap2\n      div\n      mul\n      0x20\n      add\n      mload(0x40)\n      swap1\n      dup2\n      add\n      0x40\n      mstore\n      dup1\n      swap3\n      swap2\n      swap1\n      dup2\n      dup2\n      mstore\n      0x20\n      add\n      dup3\n      dup1\n      sload\n      tag_61\n      swap1\n      tag_45\n      jump\t// in\n    tag_61:\n      dup1\n      iszero\n      tag_62\n      jumpi\n      dup1\n      0x1f\n      lt\n      tag_63\n      jumpi\n      0x0100\n      dup1\n      dup4\n      sload\n      div\n      mul\n      dup4\n      mstore\n      swap2\n      0x20\n      add\n      swap2\n      jump(tag_62)\n    tag_63:\n      dup3\n      add\n      swap2\n      swap1\n      0x00\n      mstore\n      keccak256(0x00, 0x20)\n      swap1\n    tag_64:\n      dup2\n      sload\n      dup2\n      mstore\n      swap1\n      0x01\n      add\n      swap1\n      0x20\n      add\n      dup1\n      dup4\n      gt\n      tag_64\n      jumpi\n      dup3\n      swap1\n      sub\n      0x1f\n      and\n      dup3\n      add\n      swap2\n    tag_62:\n      pop\n      pop\n      pop\n      pop\n      pop\n      swap1\n      dup1\n      0x04\n      add\n      sload\n      swap1\n      pop\n      dup6\n      jump\t// out\n        /* \"structpractice.sol\":243:307  mapping (address => personDetails) public personMappingOnAddress */\n    tag_25:\n      mstore(0x20, 0x05)\n      dup1\n      0x00\n      mstore\n      keccak256(0x00, 0x40)\n      0x00\n      swap2\n      pop\n      swap1\n      pop\n      dup1\n      0x00\n      add\n      dup1\n      sload\n      tag_65\n      swap1\n      tag_45\n      jump\t// in\n    tag_65:\n      dup1\n      0x1f\n      add\n      0x20\n      dup1\n      swap2\n      div\n      mul\n      0x20\n      add\n      mload(0x40)\n      swap1\n      dup2\n      add\n      0x40\n      mstore\n      dup1\n      swap3\n      swap2\n      swap1\n      dup2\n      dup2\n      mstore\n      0x20\n      add\n      dup3\n      dup1\n      sload\n      tag_66\n      swap1\n      tag_45\n      jump\t// in\n    tag_66:\n      dup1\n      iszero\n      tag_67\n      jumpi\n      dup1\n      0x1f\n      lt\n      tag_68\n      jumpi\n      0x0100\n      dup1\n      dup4\n      sload\n      div\n      mul\n      dup4\n      mstore\n      swap2\n      0x20\n      add\n      swap2\n      jump(tag_67)\n    tag_68:\n      dup3\n      add\n      swap2\n      swap1\n      0x00\n      mstore\n      keccak256(0x00, 0x20)\n      swap1\n    tag_69:\n      dup2\n      sload\n      dup2\n      mstore\n      swap1\n      0x01\n      add\n      swap1\n      0x20\n      add\n      dup1\n      dup4\n      gt\n      tag_69\n      jumpi\n      dup3\n      swap1\n      sub\n      0x1f\n      and\n      dup3\n      add\n      swap2\n    tag_67:\n      pop\n      pop\n      pop\n      pop\n      pop\n      swap1\n      dup1\n      0x01\n      add\n      sload\n      swap1\n      dup1\n      0x02\n      add\n      sload\n      swap1\n      dup1\n      0x03\n      add\n      dup1\n      sload\n      tag_70\n      swap1\n      tag_45\n      jump\t// in\n    tag_70:\n      dup1\n      0x1f\n      add\n      0x20\n      dup1\n      swap2\n      div\n      mul\n      0x20\n      add\n      mload(0x40)\n      swap1\n      dup2\n      add\n      0x40\n      mstore\n      dup1\n      swap3\n      swap2\n      swap1\n      dup2\n      dup2\n      mstore\n      0x20\n      add\n      dup3\n      dup1\n      sload\n      tag_71\n      swap1\n      tag_45\n      jump\t// in\n    tag_71:\n      dup1\n      iszero\n      tag_72\n      jumpi\n      dup1\n      0x1f\n      lt\n      tag_73\n      jumpi\n      0x0100\n      dup1\n      dup4\n      sload\n      div\n      mul\n      dup4\n      mstore\n      swap2\n      0x20\n      add\n      swap2\n      jump(tag_72)\n    tag_73:\n      dup3\n      add\n      swap2\n      swap1\n      0x00\n      mstore\n      keccak256(0x00, 0x20)\n      swap1\n    tag_74:\n      dup2\n      sload\n      dup2\n      mstore\n      swap1\n      0x01\n      add\n      swap1\n      0x20\n      add\n      dup1\n      dup4\n      gt\n      tag_74\n      jumpi\n      dup3\n      swap1\n      sub\n      0x1f\n      and\n      dup3\n      add\n      swap2\n    tag_72:\n      pop\n      pop\n      pop\n      pop\n      pop\n      swap1\n      dup1\n      0x04\n      add\n      sload\n      swap1\n      pop\n      dup6\n      jump\t// out\n        /* \"structpractice.sol\":415:602  function generateUniqueNumber() public returns (uint256) {... */\n    tag_28:\n        /* \"structpractice.sol\":463:470  uint256 */\n      0x00\n        /* \"structpractice.sol\":482:489  counter */\n      0x07\n      0x00\n        /* \"structpractice.sol\":482:491  counter++ */\n      dup2\n      sload\n      dup1\n      swap3\n      swap2\n      swap1\n      tag_76\n      swap1\n      tag_77\n      jump\t// in\n    tag_76:\n      swap2\n      swap1\n      pop\n      sstore\n      pop\n        /* \"structpractice.sol\":501:521  uint256 uniqueNumber */\n      0x00\n        /* \"structpractice.sol\":559:566  counter */\n      sload(0x07)\n        /* \"structpractice.sol\":543:555  100000000000 */\n      0x174876e800\n        /* \"structpractice.sol\":525:540  block.timestamp */\n      timestamp\n        /* \"structpractice.sol\":525:555  block.timestamp * 100000000000 */\n      tag_78\n      swap2\n      swap1\n      tag_79\n      jump\t// in\n    tag_78:\n        /* \"structpractice.sol\":524:566  (block.timestamp * 100000000000) + counter */\n      tag_80\n      swap2\n      swap1\n      tag_81\n      jump\t// in\n    tag_80:\n        /* \"structpractice.sol\":501:566  uint256 uniqueNumber = (block.timestamp * 100000000000) + counter */\n      swap1\n      pop\n        /* \"structpractice.sol\":583:595  uniqueNumber */\n      dup1\n        /* \"structpractice.sol\":576:595  return uniqueNumber */\n      swap2\n      pop\n      pop\n        /* \"structpractice.sol\":415:602  function generateUniqueNumber() public returns (uint256) {... */\n      swap1\n      jump\t// out\n    tag_42:\n      mload(0x40)\n      dup1\n      0xa0\n      add\n      0x40\n      mstore\n      dup1\n      0x60\n      dup2\n      mstore\n      0x20\n      add\n      0x00\n      dup2\n      mstore\n      0x20\n      add\n      0x00\n      dup2\n      mstore\n      0x20\n      add\n      0x60\n      dup2\n      mstore\n      0x20\n      add\n      0x00\n      dup2\n      mstore\n      pop\n      swap1\n      jump\t// out\n        /* \"#utility.yul\":7:82   */\n    tag_82:\n        /* \"#utility.yul\":40:46   */\n      0x00\n        /* \"#utility.yul\":73:75   */\n      0x40\n        /* \"#utility.yul\":67:76   */\n      mload\n        /* \"#utility.yul\":57:76   */\n      swap1\n      pop\n        /* \"#utility.yul\":7:82   */\n      swap1\n      jump\t// out\n        /* \"#utility.yul\":88:205   */\n    tag_83:\n        /* \"#utility.yul\":197:198   */\n      0x00\n        /* \"#utility.yul\":194:195   */\n      dup1\n        /* \"#utility.yul\":187:199   */\n      revert\n        /* \"#utility.yul\":211:328   */\n    tag_84:\n        /* \"#utility.yul\":320:321   */\n      0x00\n        /* \"#utility.yul\":317:318   */\n      dup1\n        /* \"#utility.yul\":310:322   */\n      revert\n        /* \"#utility.yul\":334:451   */\n    tag_85:\n        /* \"#utility.yul\":443:444   */\n      0x00\n        /* \"#utility.yul\":440:441   */\n      dup1\n        /* \"#utility.yul\":433:445   */\n      revert\n        /* \"#utility.yul\":457:574   */\n    tag_86:\n        /* \"#utility.yul\":566:567   */\n      0x00\n        /* \"#utility.yul\":563:564   */\n      dup1\n        /* \"#utility.yul\":556:568   */\n      revert\n        /* \"#utility.yul\":580:682   */\n    tag_87:\n        /* \"#utility.yul\":621:627   */\n      0x00\n        /* \"#utility.yul\":672:674   */\n      0x1f\n        /* \"#utility.yul\":668:675   */\n      not\n        /* \"#utility.yul\":663:665   */\n      0x1f\n        /* \"#utility.yul\":656:661   */\n      dup4\n        /* \"#utility.yul\":652:666   */\n      add\n        /* \"#utility.yul\":648:676   */\n      and\n        /* \"#utility.yul\":638:676   */\n      swap1\n      pop\n        /* \"#utility.yul\":580:682   */\n      swap2\n      swap1\n      pop\n      jump\t// out\n        /* \"#utility.yul\":688:868   */\n    tag_88:\n        /* \"#utility.yul\":736:813   */\n      0x4e487b7100000000000000000000000000000000000000000000000000000000\n        /* \"#utility.yul\":733:734   */\n      0x00\n        /* \"#utility.yul\":726:814   */\n      mstore\n        /* \"#utility.yul\":833:837   */\n      0x41\n        /* \"#utility.yul\":830:831   */\n      0x04\n        /* \"#utility.yul\":823:838   */\n      mstore\n        /* \"#utility.yul\":857:861   */\n      0x24\n        /* \"#utility.yul\":854:855   */\n      0x00\n        /* \"#utility.yul\":847:862   */\n      revert\n        /* \"#utility.yul\":874:1155   */\n    tag_89:\n        /* \"#utility.yul\":957:984   */\n      tag_138\n        /* \"#utility.yul\":979:983   */\n      dup3\n        /* \"#utility.yul\":957:984   */\n      tag_87\n      jump\t// in\n    tag_138:\n        /* \"#utility.yul\":949:955   */\n      dup2\n        /* \"#utility.yul\":945:985   */\n      add\n        /* \"#utility.yul\":1087:1093   */\n      dup2\n        /* \"#utility.yul\":1075:1085   */\n      dup2\n        /* \"#utility.yul\":1072:1094   */\n      lt\n        /* \"#utility.yul\":1051:1069   */\n      0xffffffffffffffff\n        /* \"#utility.yul\":1039:1049   */\n      dup3\n        /* \"#utility.yul\":1036:1070   */\n      gt\n        /* \"#utility.yul\":1033:1095   */\n      or\n        /* \"#utility.yul\":1030:1118   */\n      iszero\n      tag_139\n      jumpi\n        /* \"#utility.yul\":1098:1116   */\n      tag_140\n      tag_88\n      jump\t// in\n    tag_140:\n        /* \"#utility.yul\":1030:1118   */\n    tag_139:\n        /* \"#utility.yul\":1138:1148   */\n      dup1\n        /* \"#utility.yul\":1134:1136   */\n      0x40\n        /* \"#utility.yul\":1127:1149   */\n      mstore\n        /* \"#utility.yul\":917:1155   */\n      pop\n        /* \"#utility.yul\":874:1155   */\n      pop\n      pop\n      jump\t// out\n        /* \"#utility.yul\":1161:1290   */\n    tag_90:\n        /* \"#utility.yul\":1195:1201   */\n      0x00\n        /* \"#utility.yul\":1222:1242   */\n      tag_142\n      tag_82\n      jump\t// in\n    tag_142:\n        /* \"#utility.yul\":1212:1242   */\n      swap1\n      pop\n        /* \"#utility.yul\":1251:1284   */\n      tag_143\n        /* \"#utility.yul\":1279:1283   */\n      dup3\n        /* \"#utility.yul\":1271:1277   */\n      dup3\n        /* \"#utility.yul\":1251:1284   */\n      tag_89\n      jump\t// in\n    tag_143:\n        /* \"#utility.yul\":1161:1290   */\n      swap2\n      swap1\n      pop\n      jump\t// out\n        /* \"#utility.yul\":1296:1604   */\n    tag_91:\n        /* \"#utility.yul\":1358:1362   */\n      0x00\n        /* \"#utility.yul\":1448:1466   */\n      0xffffffffffffffff\n        /* \"#utility.yul\":1440:1446   */\n      dup3\n        /* \"#utility.yul\":1437:1467   */\n      gt\n        /* \"#utility.yul\":1434:1490   */\n      iszero\n      tag_145\n      jumpi\n        /* \"#utility.yul\":1470:1488   */\n      tag_146\n      tag_88\n      jump\t// in\n    tag_146:\n        /* \"#utility.yul\":1434:1490   */\n    tag_145:\n        /* \"#utility.yul\":1508:1537   */\n      tag_147\n        /* \"#utility.yul\":1530:1536   */\n      dup3\n        /* \"#utility.yul\":1508:1537   */\n      tag_87\n      jump\t// in\n    tag_147:\n        /* \"#utility.yul\":1500:1537   */\n      swap1\n      pop\n        /* \"#utility.yul\":1592:1596   */\n      0x20\n        /* \"#utility.yul\":1586:1590   */\n      dup2\n        /* \"#utility.yul\":1582:1597   */\n      add\n        /* \"#utility.yul\":1574:1597   */\n      swap1\n      pop\n        /* \"#utility.yul\":1296:1604   */\n      swap2\n      swap1\n      pop\n      jump\t// out\n        /* \"#utility.yul\":1610:1756   */\n    tag_92:\n        /* \"#utility.yul\":1707:1713   */\n      dup3\n        /* \"#utility.yul\":1702:1705   */\n      dup2\n        /* \"#utility.yul\":1697:1700   */\n      dup4\n        /* \"#utility.yul\":1684:1714   */\n      calldatacopy\n        /* \"#utility.yul\":1748:1749   */\n      0x00\n        /* \"#utility.yul\":1739:1745   */\n      dup4\n        /* \"#utility.yul\":1734:1737   */\n      dup4\n        /* \"#utility.yul\":1730:1746   */\n      add\n        /* \"#utility.yul\":1723:1750   */\n      mstore\n        /* \"#utility.yul\":1610:1756   */\n      pop\n      pop\n      pop\n      jump\t// out\n        /* \"#utility.yul\":1762:2187   */\n    tag_93:\n        /* \"#utility.yul\":1840:1845   */\n      0x00\n        /* \"#utility.yul\":1865:1931   */\n      tag_150\n        /* \"#utility.yul\":1881:1930   */\n      tag_151\n        /* \"#utility.yul\":1923:1929   */\n      dup5\n        /* \"#utility.yul\":1881:1930   */\n      tag_91\n      jump\t// in\n    tag_151:\n        /* \"#utility.yul\":1865:1931   */\n      tag_90\n      jump\t// in\n    tag_150:\n        /* \"#utility.yul\":1856:1931   */\n      swap1\n      pop\n        /* \"#utility.yul\":1954:1960   */\n      dup3\n        /* \"#utility.yul\":1947:1952   */\n      dup2\n        /* \"#utility.yul\":1940:1961   */\n      mstore\n        /* \"#utility.yul\":1992:1996   */\n      0x20\n        /* \"#utility.yul\":1985:1990   */\n      dup2\n        /* \"#utility.yul\":1981:1997   */\n      add\n        /* \"#utility.yul\":2030:2033   */\n      dup5\n        /* \"#utility.yul\":2021:2027   */\n      dup5\n        /* \"#utility.yul\":2016:2019   */\n      dup5\n        /* \"#utility.yul\":2012:2028   */\n      add\n        /* \"#utility.yul\":2009:2034   */\n      gt\n        /* \"#utility.yul\":2006:2118   */\n      iszero\n      tag_152\n      jumpi\n        /* \"#utility.yul\":2037:2116   */\n      tag_153\n      tag_86\n      jump\t// in\n    tag_153:\n        /* \"#utility.yul\":2006:2118   */\n    tag_152:\n        /* \"#utility.yul\":2127:2181   */\n      tag_154\n        /* \"#utility.yul\":2174:2180   */\n      dup5\n        /* \"#utility.yul\":2169:2172   */\n      dup3\n        /* \"#utility.yul\":2164:2167   */\n      dup6\n        /* \"#utility.yul\":2127:2181   */\n      tag_92\n      jump\t// in\n    tag_154:\n        /* \"#utility.yul\":1846:2187   */\n      pop\n        /* \"#utility.yul\":1762:2187   */\n      swap4\n      swap3\n      pop\n      pop\n      pop\n      jump\t// out\n        /* \"#utility.yul\":2207:2547   */\n    tag_94:\n        /* \"#utility.yul\":2263:2268   */\n      0x00\n        /* \"#utility.yul\":2312:2315   */\n      dup3\n        /* \"#utility.yul\":2305:2309   */\n      0x1f\n        /* \"#utility.yul\":2297:2303   */\n      dup4\n        /* \"#utility.yul\":2293:2310   */\n      add\n        /* \"#utility.yul\":2289:2316   */\n      slt\n        /* \"#utility.yul\":2279:2401   */\n      tag_156\n      jumpi\n        /* \"#utility.yul\":2320:2399   */\n      tag_157\n      tag_85\n      jump\t// in\n    tag_157:\n        /* \"#utility.yul\":2279:2401   */\n    tag_156:\n        /* \"#utility.yul\":2437:2443   */\n      dup2\n        /* \"#utility.yul\":2424:2444   */\n      calldataload\n        /* \"#utility.yul\":2462:2541   */\n      tag_158\n        /* \"#utility.yul\":2537:2540   */\n      dup5\n        /* \"#utility.yul\":2529:2535   */\n      dup3\n        /* \"#utility.yul\":2522:2526   */\n      0x20\n        /* \"#utility.yul\":2514:2520   */\n      dup7\n        /* \"#utility.yul\":2510:2527   */\n      add\n        /* \"#utility.yul\":2462:2541   */\n      tag_93\n      jump\t// in\n    tag_158:\n        /* \"#utility.yul\":2453:2541   */\n      swap2\n      pop\n        /* \"#utility.yul\":2269:2547   */\n      pop\n        /* \"#utility.yul\":2207:2547   */\n      swap3\n      swap2\n      pop\n      pop\n      jump\t// out\n        /* \"#utility.yul\":2553:2630   */\n    tag_95:\n        /* \"#utility.yul\":2590:2597   */\n      0x00\n        /* \"#utility.yul\":2619:2624   */\n      dup2\n        /* \"#utility.yul\":2608:2624   */\n      swap1\n      pop\n        /* \"#utility.yul\":2553:2630   */\n      swap2\n      swap1\n      pop\n      jump\t// out\n        /* \"#utility.yul\":2636:2758   */\n    tag_96:\n        /* \"#utility.yul\":2709:2733   */\n      tag_161\n        /* \"#utility.yul\":2727:2732   */\n      dup2\n        /* \"#utility.yul\":2709:2733   */\n      tag_95\n      jump\t// in\n    tag_161:\n        /* \"#utility.yul\":2702:2707   */\n      dup2\n        /* \"#utility.yul\":2699:2734   */\n      eq\n        /* \"#utility.yul\":2689:2752   */\n      tag_162\n      jumpi\n        /* \"#utility.yul\":2748:2749   */\n      0x00\n        /* \"#utility.yul\":2745:2746   */\n      dup1\n        /* \"#utility.yul\":2738:2750   */\n      revert\n        /* \"#utility.yul\":2689:2752   */\n    tag_162:\n        /* \"#utility.yul\":2636:2758   */\n      pop\n      jump\t// out\n        /* \"#utility.yul\":2764:2903   */\n    tag_97:\n        /* \"#utility.yul\":2810:2815   */\n      0x00\n        /* \"#utility.yul\":2848:2854   */\n      dup2\n        /* \"#utility.yul\":2835:2855   */\n      calldataload\n        /* \"#utility.yul\":2826:2855   */\n      swap1\n      pop\n        /* \"#utility.yul\":2864:2897   */\n      tag_164\n        /* \"#utility.yul\":2891:2896   */\n      dup2\n        /* \"#utility.yul\":2864:2897   */\n      tag_96\n      jump\t// in\n    tag_164:\n        /* \"#utility.yul\":2764:2903   */\n      swap3\n      swap2\n      pop\n      pop\n      jump\t// out\n        /* \"#utility.yul\":2909:4034   */\n    tag_10:\n        /* \"#utility.yul\":3015:3021   */\n      0x00\n        /* \"#utility.yul\":3023:3029   */\n      dup1\n        /* \"#utility.yul\":3031:3037   */\n      0x00\n        /* \"#utility.yul\":3039:3045   */\n      dup1\n        /* \"#utility.yul\":3088:3091   */\n      0x80\n        /* \"#utility.yul\":3076:3085   */\n      dup6\n        /* \"#utility.yul\":3067:3074   */\n      dup8\n        /* \"#utility.yul\":3063:3086   */\n      sub\n        /* \"#utility.yul\":3059:3092   */\n      slt\n        /* \"#utility.yul\":3056:3176   */\n      iszero\n      tag_166\n      jumpi\n        /* \"#utility.yul\":3095:3174   */\n      tag_167\n      tag_83\n      jump\t// in\n    tag_167:\n        /* \"#utility.yul\":3056:3176   */\n    tag_166:\n        /* \"#utility.yul\":3243:3244   */\n      0x00\n        /* \"#utility.yul\":3232:3241   */\n      dup6\n        /* \"#utility.yul\":3228:3245   */\n      add\n        /* \"#utility.yul\":3215:3246   */\n      calldataload\n        /* \"#utility.yul\":3273:3291   */\n      0xffffffffffffffff\n        /* \"#utility.yul\":3265:3271   */\n      dup2\n        /* \"#utility.yul\":3262:3292   */\n      gt\n        /* \"#utility.yul\":3259:3376   */\n      iszero\n      tag_168\n      jumpi\n        /* \"#utility.yul\":3295:3374   */\n      tag_169\n      tag_84\n      jump\t// in\n    tag_169:\n        /* \"#utility.yul\":3259:3376   */\n    tag_168:\n        /* \"#utility.yul\":3400:3463   */\n      tag_170\n        /* \"#utility.yul\":3455:3462   */\n      dup8\n        /* \"#utility.yul\":3446:3452   */\n      dup3\n        /* \"#utility.yul\":3435:3444   */\n      dup9\n        /* \"#utility.yul\":3431:3453   */\n      add\n        /* \"#utility.yul\":3400:3463   */\n      tag_94\n      jump\t// in\n    tag_170:\n        /* \"#utility.yul\":3390:3463   */\n      swap5\n      pop\n        /* \"#utility.yul\":3186:3473   */\n      pop\n        /* \"#utility.yul\":3512:3514   */\n      0x20\n        /* \"#utility.yul\":3538:3591   */\n      tag_171\n        /* \"#utility.yul\":3583:3590   */\n      dup8\n        /* \"#utility.yul\":3574:3580   */\n      dup3\n        /* \"#utility.yul\":3563:3572   */\n      dup9\n        /* \"#utility.yul\":3559:3581   */\n      add\n        /* \"#utility.yul\":3538:3591   */\n      tag_97\n      jump\t// in\n    tag_171:\n        /* \"#utility.yul\":3528:3591   */\n      swap4\n      pop\n        /* \"#utility.yul\":3483:3601   */\n      pop\n        /* \"#utility.yul\":3640:3642   */\n      0x40\n        /* \"#utility.yul\":3666:3719   */\n      tag_172\n        /* \"#utility.yul\":3711:3718   */\n      dup8\n        /* \"#utility.yul\":3702:3708   */\n      dup3\n        /* \"#utility.yul\":3691:3700   */\n      dup9\n        /* \"#utility.yul\":3687:3709   */\n      add\n        /* \"#utility.yul\":3666:3719   */\n      tag_97\n      jump\t// in\n    tag_172:\n        /* \"#utility.yul\":3656:3719   */\n      swap3\n      pop\n        /* \"#utility.yul\":3611:3729   */\n      pop\n        /* \"#utility.yul\":3796:3798   */\n      0x60\n        /* \"#utility.yul\":3785:3794   */\n      dup6\n        /* \"#utility.yul\":3781:3799   */\n      add\n        /* \"#utility.yul\":3768:3800   */\n      calldataload\n        /* \"#utility.yul\":3827:3845   */\n      0xffffffffffffffff\n        /* \"#utility.yul\":3819:3825   */\n      dup2\n        /* \"#utility.yul\":3816:3846   */\n      gt\n        /* \"#utility.yul\":3813:3930   */\n      iszero\n      tag_173\n      jumpi\n        /* \"#utility.yul\":3849:3928   */\n      tag_174\n      tag_84\n      jump\t// in\n    tag_174:\n        /* \"#utility.yul\":3813:3930   */\n    tag_173:\n        /* \"#utility.yul\":3954:4017   */\n      tag_175\n        /* \"#utility.yul\":4009:4016   */\n      dup8\n        /* \"#utility.yul\":4000:4006   */\n      dup3\n        /* \"#utility.yul\":3989:3998   */\n      dup9\n        /* \"#utility.yul\":3985:4007   */\n      add\n        /* \"#utility.yul\":3954:4017   */\n      tag_94\n      jump\t// in\n    tag_175:\n        /* \"#utility.yul\":3944:4017   */\n      swap2\n      pop\n        /* \"#utility.yul\":3739:4027   */\n      pop\n        /* \"#utility.yul\":2909:4034   */\n      swap3\n      swap6\n      swap2\n      swap5\n      pop\n      swap3\n      pop\n      jump\t// out\n        /* \"#utility.yul\":4040:4139   */\n    tag_98:\n        /* \"#utility.yul\":4092:4098   */\n      0x00\n        /* \"#utility.yul\":4126:4131   */\n      dup2\n        /* \"#utility.yul\":4120:4132   */\n      mload\n        /* \"#utility.yul\":4110:4132   */\n      swap1\n      pop\n        /* \"#utility.yul\":4040:4139   */\n      swap2\n      swap1\n      pop\n      jump\t// out\n        /* \"#utility.yul\":4145:4304   */\n    tag_99:\n        /* \"#utility.yul\":4219:4230   */\n      0x00\n        /* \"#utility.yul\":4253:4259   */\n      dup3\n        /* \"#utility.yul\":4248:4251   */\n      dup3\n        /* \"#utility.yul\":4241:4260   */\n      mstore\n        /* \"#utility.yul\":4293:4297   */\n      0x20\n        /* \"#utility.yul\":4288:4291   */\n      dup3\n        /* \"#utility.yul\":4284:4298   */\n      add\n        /* \"#utility.yul\":4269:4298   */\n      swap1\n      pop\n        /* \"#utility.yul\":4145:4304   */\n      swap3\n      swap2\n      pop\n      pop\n      jump\t// out\n        /* \"#utility.yul\":4310:4556   */\n    tag_100:\n        /* \"#utility.yul\":4391:4392   */\n      0x00\n        /* \"#utility.yul\":4401:4514   */\n    tag_179:\n        /* \"#utility.yul\":4415:4421   */\n      dup4\n        /* \"#utility.yul\":4412:4413   */\n      dup2\n        /* \"#utility.yul\":4409:4422   */\n      lt\n        /* \"#utility.yul\":4401:4514   */\n      iszero\n      tag_181\n      jumpi\n        /* \"#utility.yul\":4500:4501   */\n      dup1\n        /* \"#utility.yul\":4495:4498   */\n      dup3\n        /* \"#utility.yul\":4491:4502   */\n      add\n        /* \"#utility.yul\":4485:4503   */\n      mload\n        /* \"#utility.yul\":4481:4482   */\n      dup2\n        /* \"#utility.yul\":4476:4479   */\n      dup5\n        /* \"#utility.yul\":4472:4483   */\n      add\n        /* \"#utility.yul\":4465:4504   */\n      mstore\n        /* \"#utility.yul\":4437:4439   */\n      0x20\n        /* \"#utility.yul\":4434:4435   */\n      dup2\n        /* \"#utility.yul\":4430:4440   */\n      add\n        /* \"#utility.yul\":4425:4440   */\n      swap1\n      pop\n        /* \"#utility.yul\":4401:4514   */\n      jump(tag_179)\n    tag_181:\n        /* \"#utility.yul\":4548:4549   */\n      0x00\n        /* \"#utility.yul\":4539:4545   */\n      dup5\n        /* \"#utility.yul\":4534:4537   */\n      dup5\n        /* \"#utility.yul\":4530:4546   */\n      add\n        /* \"#utility.yul\":4523:4550   */\n      mstore\n        /* \"#utility.yul\":4372:4556   */\n      pop\n        /* \"#utility.yul\":4310:4556   */\n      pop\n      pop\n      pop\n      jump\t// out\n        /* \"#utility.yul\":4562:4919   */\n    tag_101:\n        /* \"#utility.yul\":4640:4643   */\n      0x00\n        /* \"#utility.yul\":4668:4707   */\n      tag_183\n        /* \"#utility.yul\":4701:4706   */\n      dup3\n        /* \"#utility.yul\":4668:4707   */\n      tag_98\n      jump\t// in\n    tag_183:\n        /* \"#utility.yul\":4723:4784   */\n      tag_184\n        /* \"#utility.yul\":4777:4783   */\n      dup2\n        /* \"#utility.yul\":4772:4775   */\n      dup6\n        /* \"#utility.yul\":4723:4784   */\n      tag_99\n      jump\t// in\n    tag_184:\n        /* \"#utility.yul\":4716:4784   */\n      swap4\n      pop\n        /* \"#utility.yul\":4793:4858   */\n      tag_185\n        /* \"#utility.yul\":4851:4857   */\n      dup2\n        /* \"#utility.yul\":4846:4849   */\n      dup6\n        /* \"#utility.yul\":4839:4843   */\n      0x20\n        /* \"#utility.yul\":4832:4837   */\n      dup7\n        /* \"#utility.yul\":4828:4844   */\n      add\n        /* \"#utility.yul\":4793:4858   */\n      tag_100\n      jump\t// in\n    tag_185:\n        /* \"#utility.yul\":4883:4912   */\n      tag_186\n        /* \"#utility.yul\":4905:4911   */\n      dup2\n        /* \"#utility.yul\":4883:4912   */\n      tag_87\n      jump\t// in\n    tag_186:\n        /* \"#utility.yul\":4878:4881   */\n      dup5\n        /* \"#utility.yul\":4874:4913   */\n      add\n        /* \"#utility.yul\":4867:4913   */\n      swap2\n      pop\n        /* \"#utility.yul\":4644:4919   */\n      pop\n        /* \"#utility.yul\":4562:4919   */\n      swap3\n      swap2\n      pop\n      pop\n      jump\t// out\n        /* \"#utility.yul\":4925:5033   */\n    tag_102:\n        /* \"#utility.yul\":5002:5026   */\n      tag_188\n        /* \"#utility.yul\":5020:5025   */\n      dup2\n        /* \"#utility.yul\":5002:5026   */\n      tag_95\n      jump\t// in\n    tag_188:\n        /* \"#utility.yul\":4997:5000   */\n      dup3\n        /* \"#utility.yul\":4990:5027   */\n      mstore\n        /* \"#utility.yul\":4925:5033   */\n      pop\n      pop\n      jump\t// out\n        /* \"#utility.yul\":5121:6344   */\n    tag_103:\n        /* \"#utility.yul\":5248:5251   */\n      0x00\n        /* \"#utility.yul\":5284:5288   */\n      0xa0\n        /* \"#utility.yul\":5279:5282   */\n      dup4\n        /* \"#utility.yul\":5275:5289   */\n      add\n        /* \"#utility.yul\":5371:5375   */\n      0x00\n        /* \"#utility.yul\":5364:5369   */\n      dup4\n        /* \"#utility.yul\":5360:5376   */\n      add\n        /* \"#utility.yul\":5354:5377   */\n      mload\n        /* \"#utility.yul\":5424:5427   */\n      dup5\n        /* \"#utility.yul\":5418:5422   */\n      dup3\n        /* \"#utility.yul\":5414:5428   */\n      sub\n        /* \"#utility.yul\":5407:5411   */\n      0x00\n        /* \"#utility.yul\":5402:5405   */\n      dup7\n        /* \"#utility.yul\":5398:5412   */\n      add\n        /* \"#utility.yul\":5391:5429   */\n      mstore\n        /* \"#utility.yul\":5450:5523   */\n      tag_190\n        /* \"#utility.yul\":5518:5522   */\n      dup3\n        /* \"#utility.yul\":5504:5516   */\n      dup3\n        /* \"#utility.yul\":5450:5523   */\n      tag_101\n      jump\t// in\n    tag_190:\n        /* \"#utility.yul\":5442:5523   */\n      swap2\n      pop\n        /* \"#utility.yul\":5299:5534   */\n      pop\n        /* \"#utility.yul\":5615:5619   */\n      0x20\n        /* \"#utility.yul\":5608:5613   */\n      dup4\n        /* \"#utility.yul\":5604:5620   */\n      add\n        /* \"#utility.yul\":5598:5621   */\n      mload\n        /* \"#utility.yul\":5634:5697   */\n      tag_191\n        /* \"#utility.yul\":5691:5695   */\n      0x20\n        /* \"#utility.yul\":5686:5689   */\n      dup7\n        /* \"#utility.yul\":5682:5696   */\n      add\n        /* \"#utility.yul\":5668:5680   */\n      dup3\n        /* \"#utility.yul\":5634:5697   */\n      tag_102\n      jump\t// in\n    tag_191:\n        /* \"#utility.yul\":5544:5707   */\n      pop\n        /* \"#utility.yul\":5792:5796   */\n      0x40\n        /* \"#utility.yul\":5785:5790   */\n      dup4\n        /* \"#utility.yul\":5781:5797   */\n      add\n        /* \"#utility.yul\":5775:5798   */\n      mload\n        /* \"#utility.yul\":5811:5874   */\n      tag_192\n        /* \"#utility.yul\":5868:5872   */\n      0x40\n        /* \"#utility.yul\":5863:5866   */\n      dup7\n        /* \"#utility.yul\":5859:5873   */\n      add\n        /* \"#utility.yul\":5845:5857   */\n      dup3\n        /* \"#utility.yul\":5811:5874   */\n      tag_102\n      jump\t// in\n    tag_192:\n        /* \"#utility.yul\":5717:5884   */\n      pop\n        /* \"#utility.yul\":5976:5980   */\n      0x60\n        /* \"#utility.yul\":5969:5974   */\n      dup4\n        /* \"#utility.yul\":5965:5981   */\n      add\n        /* \"#utility.yul\":5959:5982   */\n      mload\n        /* \"#utility.yul\":6029:6032   */\n      dup5\n        /* \"#utility.yul\":6023:6027   */\n      dup3\n        /* \"#utility.yul\":6019:6033   */\n      sub\n        /* \"#utility.yul\":6012:6016   */\n      0x60\n        /* \"#utility.yul\":6007:6010   */\n      dup7\n        /* \"#utility.yul\":6003:6017   */\n      add\n        /* \"#utility.yul\":5996:6034   */\n      mstore\n        /* \"#utility.yul\":6055:6128   */\n      tag_193\n        /* \"#utility.yul\":6123:6127   */\n      dup3\n        /* \"#utility.yul\":6109:6121   */\n      dup3\n        /* \"#utility.yul\":6055:6128   */\n      tag_101\n      jump\t// in\n    tag_193:\n        /* \"#utility.yul\":6047:6128   */\n      swap2\n      pop\n        /* \"#utility.yul\":5894:6139   */\n      pop\n        /* \"#utility.yul\":6225:6229   */\n      0x80\n        /* \"#utility.yul\":6218:6223   */\n      dup4\n        /* \"#utility.yul\":6214:6230   */\n      add\n        /* \"#utility.yul\":6208:6231   */\n      mload\n        /* \"#utility.yul\":6244:6307   */\n      tag_194\n        /* \"#utility.yul\":6301:6305   */\n      0x80\n        /* \"#utility.yul\":6296:6299   */\n      dup7\n        /* \"#utility.yul\":6292:6306   */\n      add\n        /* \"#utility.yul\":6278:6290   */\n      dup3\n        /* \"#utility.yul\":6244:6307   */\n      tag_102\n      jump\t// in\n    tag_194:\n        /* \"#utility.yul\":6149:6317   */\n      pop\n        /* \"#utility.yul\":6334:6338   */\n      dup1\n        /* \"#utility.yul\":6327:6338   */\n      swap2\n      pop\n        /* \"#utility.yul\":5253:6344   */\n      pop\n        /* \"#utility.yul\":5121:6344   */\n      swap3\n      swap2\n      pop\n      pop\n      jump\t// out\n        /* \"#utility.yul\":6350:6739   */\n    tag_15:\n        /* \"#utility.yul\":6501:6505   */\n      0x00\n        /* \"#utility.yul\":6539:6541   */\n      0x20\n        /* \"#utility.yul\":6528:6537   */\n      dup3\n        /* \"#utility.yul\":6524:6542   */\n      add\n        /* \"#utility.yul\":6516:6542   */\n      swap1\n      pop\n        /* \"#utility.yul\":6588:6597   */\n      dup2\n        /* \"#utility.yul\":6582:6586   */\n      dup2\n        /* \"#utility.yul\":6578:6598   */\n      sub\n        /* \"#utility.yul\":6574:6575   */\n      0x00\n        /* \"#utility.yul\":6563:6572   */\n      dup4\n        /* \"#utility.yul\":6559:6576   */\n      add\n        /* \"#utility.yul\":6552:6599   */\n      mstore\n        /* \"#utility.yul\":6616:6732   */\n      tag_196\n        /* \"#utility.yul\":6727:6731   */\n      dup2\n        /* \"#utility.yul\":6718:6724   */\n      dup5\n        /* \"#utility.yul\":6616:6732   */\n      tag_103\n      jump\t// in\n    tag_196:\n        /* \"#utility.yul\":6608:6732   */\n      swap1\n      pop\n        /* \"#utility.yul\":6350:6739   */\n      swap3\n      swap2\n      pop\n      pop\n      jump\t// out\n        /* \"#utility.yul\":6745:7074   */\n    tag_18:\n        /* \"#utility.yul\":6804:6810   */\n      0x00\n        /* \"#utility.yul\":6853:6855   */\n      0x20\n        /* \"#utility.yul\":6841:6850   */\n      dup3\n        /* \"#utility.yul\":6832:6839   */\n      dup5\n        /* \"#utility.yul\":6828:6851   */\n      sub\n        /* \"#utility.yul\":6824:6856   */\n      slt\n        /* \"#utility.yul\":6821:6940   */\n      iszero\n      tag_198\n      jumpi\n        /* \"#utility.yul\":6859:6938   */\n      tag_199\n      tag_83\n      jump\t// in\n    tag_199:\n        /* \"#utility.yul\":6821:6940   */\n    tag_198:\n        /* \"#utility.yul\":6979:6980   */\n      0x00\n        /* \"#utility.yul\":7004:7057   */\n      tag_200\n        /* \"#utility.yul\":7049:7056   */\n      dup5\n        /* \"#utility.yul\":7040:7046   */\n      dup3\n        /* \"#utility.yul\":7029:7038   */\n      dup6\n        /* \"#utility.yul\":7025:7047   */\n      add\n        /* \"#utility.yul\":7004:7057   */\n      tag_97\n      jump\t// in\n    tag_200:\n        /* \"#utility.yul\":6994:7057   */\n      swap2\n      pop\n        /* \"#utility.yul\":6950:7067   */\n      pop\n        /* \"#utility.yul\":6745:7074   */\n      swap3\n      swap2\n      pop\n      pop\n      jump\t// out\n        /* \"#utility.yul\":7080:7249   */\n    tag_104:\n        /* \"#utility.yul\":7164:7175   */\n      0x00\n        /* \"#utility.yul\":7198:7204   */\n      dup3\n        /* \"#utility.yul\":7193:7196   */\n      dup3\n        /* \"#utility.yul\":7186:7205   */\n      mstore\n        /* \"#utility.yul\":7238:7242   */\n      0x20\n        /* \"#utility.yul\":7233:7236   */\n      dup3\n        /* \"#utility.yul\":7229:7243   */\n      add\n        /* \"#utility.yul\":7214:7243   */\n      swap1\n      pop\n        /* \"#utility.yul\":7080:7249   */\n      swap3\n      swap2\n      pop\n      pop\n      jump\t// out\n        /* \"#utility.yul\":7255:7632   */\n    tag_105:\n        /* \"#utility.yul\":7343:7346   */\n      0x00\n        /* \"#utility.yul\":7371:7410   */\n      tag_203\n        /* \"#utility.yul\":7404:7409   */\n      dup3\n        /* \"#utility.yul\":7371:7410   */\n      tag_98\n      jump\t// in\n    tag_203:\n        /* \"#utility.yul\":7426:7497   */\n      tag_204\n        /* \"#utility.yul\":7490:7496   */\n      dup2\n        /* \"#utility.yul\":7485:7488   */\n      dup6\n        /* \"#utility.yul\":7426:7497   */\n      tag_104\n      jump\t// in\n    tag_204:\n        /* \"#utility.yul\":7419:7497   */\n      swap4\n      pop\n        /* \"#utility.yul\":7506:7571   */\n      tag_205\n        /* \"#utility.yul\":7564:7570   */\n      dup2\n        /* \"#utility.yul\":7559:7562   */\n      dup6\n        /* \"#utility.yul\":7552:7556   */\n      0x20\n        /* \"#utility.yul\":7545:7550   */\n      dup7\n        /* \"#utility.yul\":7541:7557   */\n      add\n        /* \"#utility.yul\":7506:7571   */\n      tag_100\n      jump\t// in\n    tag_205:\n        /* \"#utility.yul\":7596:7625   */\n      tag_206\n        /* \"#utility.yul\":7618:7624   */\n      dup2\n        /* \"#utility.yul\":7596:7625   */\n      tag_87\n      jump\t// in\n    tag_206:\n        /* \"#utility.yul\":7591:7594   */\n      dup5\n        /* \"#utility.yul\":7587:7626   */\n      add\n        /* \"#utility.yul\":7580:7626   */\n      swap2\n      pop\n        /* \"#utility.yul\":7347:7632   */\n      pop\n        /* \"#utility.yul\":7255:7632   */\n      swap3\n      swap2\n      pop\n      pop\n      jump\t// out\n        /* \"#utility.yul\":7638:7756   */\n    tag_106:\n        /* \"#utility.yul\":7725:7749   */\n      tag_208\n        /* \"#utility.yul\":7743:7748   */\n      dup2\n        /* \"#utility.yul\":7725:7749   */\n      tag_95\n      jump\t// in\n    tag_208:\n        /* \"#utility.yul\":7720:7723   */\n      dup3\n        /* \"#utility.yul\":7713:7750   */\n      mstore\n        /* \"#utility.yul\":7638:7756   */\n      pop\n      pop\n      jump\t// out\n        /* \"#utility.yul\":7762:8608   */\n    tag_21:\n        /* \"#utility.yul\":8007:8011   */\n      0x00\n        /* \"#utility.yul\":8045:8048   */\n      0xa0\n        /* \"#utility.yul\":8034:8043   */\n      dup3\n        /* \"#utility.yul\":8030:8049   */\n      add\n        /* \"#utility.yul\":8022:8049   */\n      swap1\n      pop\n        /* \"#utility.yul\":8095:8104   */\n      dup2\n        /* \"#utility.yul\":8089:8093   */\n      dup2\n        /* \"#utility.yul\":8085:8105   */\n      sub\n        /* \"#utility.yul\":8081:8082   */\n      0x00\n        /* \"#utility.yul\":8070:8079   */\n      dup4\n        /* \"#utility.yul\":8066:8083   */\n      add\n        /* \"#utility.yul\":8059:8106   */\n      mstore\n        /* \"#utility.yul\":8123:8201   */\n      tag_210\n        /* \"#utility.yul\":8196:8200   */\n      dup2\n        /* \"#utility.yul\":8187:8193   */\n      dup9\n        /* \"#utility.yul\":8123:8201   */\n      tag_105\n      jump\t// in\n    tag_210:\n        /* \"#utility.yul\":8115:8201   */\n      swap1\n      pop\n        /* \"#utility.yul\":8211:8283   */\n      tag_211\n        /* \"#utility.yul\":8279:8281   */\n      0x20\n        /* \"#utility.yul\":8268:8277   */\n      dup4\n        /* \"#utility.yul\":8264:8282   */\n      add\n        /* \"#utility.yul\":8255:8261   */\n      dup8\n        /* \"#utility.yul\":8211:8283   */\n      tag_106\n      jump\t// in\n    tag_211:\n        /* \"#utility.yul\":8293:8365   */\n      tag_212\n        /* \"#utility.yul\":8361:8363   */\n      0x40\n        /* \"#utility.yul\":8350:8359   */\n      dup4\n        /* \"#utility.yul\":8346:8364   */\n      add\n        /* \"#utility.yul\":8337:8343   */\n      dup7\n        /* \"#utility.yul\":8293:8365   */\n      tag_106\n      jump\t// in\n    tag_212:\n        /* \"#utility.yul\":8412:8421   */\n      dup2\n        /* \"#utility.yul\":8406:8410   */\n      dup2\n        /* \"#utility.yul\":8402:8422   */\n      sub\n        /* \"#utility.yul\":8397:8399   */\n      0x60\n        /* \"#utility.yul\":8386:8395   */\n      dup4\n        /* \"#utility.yul\":8382:8400   */\n      add\n        /* \"#utility.yul\":8375:8423   */\n      mstore\n        /* \"#utility.yul\":8440:8518   */\n      tag_213\n        /* \"#utility.yul\":8513:8517   */\n      dup2\n        /* \"#utility.yul\":8504:8510   */\n      dup6\n        /* \"#utility.yul\":8440:8518   */\n      tag_105\n      jump\t// in\n    tag_213:\n        /* \"#utility.yul\":8432:8518   */\n      swap1\n      pop\n        /* \"#utility.yul\":8528:8601   */\n      tag_214\n        /* \"#utility.yul\":8596:8599   */\n      0x80\n        /* \"#utility.yul\":8585:8594   */\n      dup4\n        /* \"#utility.yul\":8581:8600   */\n      add\n        /* \"#utility.yul\":8572:8578   */\n      dup5\n        /* \"#utility.yul\":8528:8601   */\n      tag_106\n      jump\t// in\n    tag_214:\n        /* \"#utility.yul\":7762:8608   */\n      swap7\n      swap6\n      pop\n      pop\n      pop\n      pop\n      pop\n      pop\n      jump\t// out\n        /* \"#utility.yul\":8614:8740   */\n    tag_107:\n        /* \"#utility.yul\":8651:8658   */\n      0x00\n        /* \"#utility.yul\":8691:8733   */\n      0xffffffffffffffffffffffffffffffffffffffff\n        /* \"#utility.yul\":8684:8689   */\n      dup3\n        /* \"#utility.yul\":8680:8734   */\n      and\n        /* \"#utility.yul\":8669:8734   */\n      swap1\n      pop\n        /* \"#utility.yul\":8614:8740   */\n      swap2\n      swap1\n      pop\n      jump\t// out\n        /* \"#utility.yul\":8746:8842   */\n    tag_108:\n        /* \"#utility.yul\":8783:8790   */\n      0x00\n        /* \"#utility.yul\":8812:8836   */\n      tag_217\n        /* \"#utility.yul\":8830:8835   */\n      dup3\n        /* \"#utility.yul\":8812:8836   */\n      tag_107\n      jump\t// in\n    tag_217:\n        /* \"#utility.yul\":8801:8836   */\n      swap1\n      pop\n        /* \"#utility.yul\":8746:8842   */\n      swap2\n      swap1\n      pop\n      jump\t// out\n        /* \"#utility.yul\":8848:8970   */\n    tag_109:\n        /* \"#utility.yul\":8921:8945   */\n      tag_219\n        /* \"#utility.yul\":8939:8944   */\n      dup2\n        /* \"#utility.yul\":8921:8945   */\n      tag_108\n      jump\t// in\n    tag_219:\n        /* \"#utility.yul\":8914:8919   */\n      dup2\n        /* \"#utility.yul\":8911:8946   */\n      eq\n        /* \"#utility.yul\":8901:8964   */\n      tag_220\n      jumpi\n        /* \"#utility.yul\":8960:8961   */\n      0x00\n        /* \"#utility.yul\":8957:8958   */\n      dup1\n        /* \"#utility.yul\":8950:8962   */\n      revert\n        /* \"#utility.yul\":8901:8964   */\n    tag_220:\n        /* \"#utility.yul\":8848:8970   */\n      pop\n      jump\t// out\n        /* \"#utility.yul\":8976:9115   */\n    tag_110:\n        /* \"#utility.yul\":9022:9027   */\n      0x00\n        /* \"#utility.yul\":9060:9066   */\n      dup2\n        /* \"#utility.yul\":9047:9067   */\n      calldataload\n        /* \"#utility.yul\":9038:9067   */\n      swap1\n      pop\n        /* \"#utility.yul\":9076:9109   */\n      tag_222\n        /* \"#utility.yul\":9103:9108   */\n      dup2\n        /* \"#utility.yul\":9076:9109   */\n      tag_109\n      jump\t// in\n    tag_222:\n        /* \"#utility.yul\":8976:9115   */\n      swap3\n      swap2\n      pop\n      pop\n      jump\t// out\n        /* \"#utility.yul\":9121:9450   */\n    tag_24:\n        /* \"#utility.yul\":9180:9186   */\n      0x00\n        /* \"#utility.yul\":9229:9231   */\n      0x20\n        /* \"#utility.yul\":9217:9226   */\n      dup3\n        /* \"#utility.yul\":9208:9215   */\n      dup5\n        /* \"#utility.yul\":9204:9227   */\n      sub\n        /* \"#utility.yul\":9200:9232   */\n      slt\n        /* \"#utility.yul\":9197:9316   */\n      iszero\n      tag_224\n      jumpi\n        /* \"#utility.yul\":9235:9314   */\n      tag_225\n      tag_83\n      jump\t// in\n    tag_225:\n        /* \"#utility.yul\":9197:9316   */\n    tag_224:\n        /* \"#utility.yul\":9355:9356   */\n      0x00\n        /* \"#utility.yul\":9380:9433   */\n      tag_226\n        /* \"#utility.yul\":9425:9432   */\n      dup5\n        /* \"#utility.yul\":9416:9422   */\n      dup3\n        /* \"#utility.yul\":9405:9414   */\n      dup6\n        /* \"#utility.yul\":9401:9423   */\n      add\n        /* \"#utility.yul\":9380:9433   */\n      tag_110\n      jump\t// in\n    tag_226:\n        /* \"#utility.yul\":9370:9433   */\n      swap2\n      pop\n        /* \"#utility.yul\":9326:9443   */\n      pop\n        /* \"#utility.yul\":9121:9450   */\n      swap3\n      swap2\n      pop\n      pop\n      jump\t// out\n        /* \"#utility.yul\":9456:9678   */\n    tag_30:\n        /* \"#utility.yul\":9549:9553   */\n      0x00\n        /* \"#utility.yul\":9587:9589   */\n      0x20\n        /* \"#utility.yul\":9576:9585   */\n      dup3\n        /* \"#utility.yul\":9572:9590   */\n      add\n        /* \"#utility.yul\":9564:9590   */\n      swap1\n      pop\n        /* \"#utility.yul\":9600:9671   */\n      tag_228\n        /* \"#utility.yul\":9668:9669   */\n      0x00\n        /* \"#utility.yul\":9657:9666   */\n      dup4\n        /* \"#utility.yul\":9653:9670   */\n      add\n        /* \"#utility.yul\":9644:9650   */\n      dup5\n        /* \"#utility.yul\":9600:9671   */\n      tag_106\n      jump\t// in\n    tag_228:\n        /* \"#utility.yul\":9456:9678   */\n      swap3\n      swap2\n      pop\n      pop\n      jump\t// out\n        /* \"#utility.yul\":9684:9864   */\n    tag_111:\n        /* \"#utility.yul\":9732:9809   */\n      0x4e487b7100000000000000000000000000000000000000000000000000000000\n        /* \"#utility.yul\":9729:9730   */\n      0x00\n        /* \"#utility.yul\":9722:9810   */\n      mstore\n        /* \"#utility.yul\":9829:9833   */\n      0x22\n        /* \"#utility.yul\":9826:9827   */\n      0x04\n        /* \"#utility.yul\":9819:9834   */\n      mstore\n        /* \"#utility.yul\":9853:9857   */\n      0x24\n        /* \"#utility.yul\":9850:9851   */\n      0x00\n        /* \"#utility.yul\":9843:9858   */\n      revert\n        /* \"#utility.yul\":9870:10190   */\n    tag_45:\n        /* \"#utility.yul\":9914:9920   */\n      0x00\n        /* \"#utility.yul\":9951:9952   */\n      0x02\n        /* \"#utility.yul\":9945:9949   */\n      dup3\n        /* \"#utility.yul\":9941:9953   */\n      div\n        /* \"#utility.yul\":9931:9953   */\n      swap1\n      pop\n        /* \"#utility.yul\":9998:9999   */\n      0x01\n        /* \"#utility.yul\":9992:9996   */\n      dup3\n        /* \"#utility.yul\":9988:10000   */\n      and\n        /* \"#utility.yul\":10019:10037   */\n      dup1\n        /* \"#utility.yul\":10009:10090   */\n      tag_231\n      jumpi\n        /* \"#utility.yul\":10075:10079   */\n      0x7f\n        /* \"#utility.yul\":10067:10073   */\n      dup3\n        /* \"#utility.yul\":10063:10080   */\n      and\n        /* \"#utility.yul\":10053:10080   */\n      swap2\n      pop\n        /* \"#utility.yul\":10009:10090   */\n    tag_231:\n        /* \"#utility.yul\":10137:10139   */\n      0x20\n        /* \"#utility.yul\":10129:10135   */\n      dup3\n        /* \"#utility.yul\":10126:10140   */\n      lt\n        /* \"#utility.yul\":10106:10124   */\n      dup2\n        /* \"#utility.yul\":10103:10141   */\n      sub\n        /* \"#utility.yul\":10100:10184   */\n      tag_232\n      jumpi\n        /* \"#utility.yul\":10156:10174   */\n      tag_233\n      tag_111\n      jump\t// in\n    tag_233:\n        /* \"#utility.yul\":10100:10184   */\n    tag_232:\n        /* \"#utility.yul\":9921:10190   */\n      pop\n        /* \"#utility.yul\":9870:10190   */\n      swap2\n      swap1\n      pop\n      jump\t// out\n        /* \"#utility.yul\":10196:10337   */\n    tag_112:\n        /* \"#utility.yul\":10245:10249   */\n      0x00\n        /* \"#utility.yul\":10268:10271   */\n      dup2\n        /* \"#utility.yul\":10260:10271   */\n      swap1\n      pop\n        /* \"#utility.yul\":10291:10294   */\n      dup2\n        /* \"#utility.yul\":10288:10289   */\n      0x00\n        /* \"#utility.yul\":10281:10295   */\n      mstore\n        /* \"#utility.yul\":10325:10329   */\n      0x20\n        /* \"#utility.yul\":10322:10323   */\n      0x00\n        /* \"#utility.yul\":10312:10330   */\n      keccak256\n        /* \"#utility.yul\":10304:10330   */\n      swap1\n      pop\n        /* \"#utility.yul\":10196:10337   */\n      swap2\n      swap1\n      pop\n      jump\t// out\n        /* \"#utility.yul\":10343:10436   */\n    tag_113:\n        /* \"#utility.yul\":10380:10386   */\n      0x00\n        /* \"#utility.yul\":10427:10429   */\n      0x20\n        /* \"#utility.yul\":10422:10424   */\n      0x1f\n        /* \"#utility.yul\":10415:10420   */\n      dup4\n        /* \"#utility.yul\":10411:10425   */\n      add\n        /* \"#utility.yul\":10407:10430   */\n      div\n        /* \"#utility.yul\":10397:10430   */\n      swap1\n      pop\n        /* \"#utility.yul\":10343:10436   */\n      swap2\n      swap1\n      pop\n      jump\t// out\n        /* \"#utility.yul\":10442:10549   */\n    tag_114:\n        /* \"#utility.yul\":10486:10494   */\n      0x00\n        /* \"#utility.yul\":10536:10541   */\n      dup3\n        /* \"#utility.yul\":10530:10534   */\n      dup3\n        /* \"#utility.yul\":10526:10542   */\n      shl\n        /* \"#utility.yul\":10505:10542   */\n      swap1\n      pop\n        /* \"#utility.yul\":10442:10549   */\n      swap3\n      swap2\n      pop\n      pop\n      jump\t// out\n        /* \"#utility.yul\":10555:10948   */\n    tag_115:\n        /* \"#utility.yul\":10624:10630   */\n      0x00\n        /* \"#utility.yul\":10674:10675   */\n      0x08\n        /* \"#utility.yul\":10662:10672   */\n      dup4\n        /* \"#utility.yul\":10658:10676   */\n      mul\n        /* \"#utility.yul\":10697:10794   */\n      tag_238\n        /* \"#utility.yul\":10727:10793   */\n      0xffffffffffffffffffffffffffffffffffffffffffffffffffffffffffffffff\n        /* \"#utility.yul\":10716:10725   */\n      dup3\n        /* \"#utility.yul\":10697:10794   */\n      tag_114\n      jump\t// in\n    tag_238:\n        /* \"#utility.yul\":10815:10854   */\n      tag_239\n        /* \"#utility.yul\":10845:10853   */\n      dup7\n        /* \"#utility.yul\":10834:10843   */\n      dup4\n        /* \"#utility.yul\":10815:10854   */\n      tag_114\n      jump\t// in\n    tag_239:\n        /* \"#utility.yul\":10803:10854   */\n      swap6\n      pop\n        /* \"#utility.yul\":10887:10891   */\n      dup1\n        /* \"#utility.yul\":10883:10892   */\n      not\n        /* \"#utility.yul\":10876:10881   */\n      dup5\n        /* \"#utility.yul\":10872:10893   */\n      and\n        /* \"#utility.yul\":10863:10893   */\n      swap4\n      pop\n        /* \"#utility.yul\":10936:10940   */\n      dup1\n        /* \"#utility.yul\":10926:10934   */\n      dup7\n        /* \"#utility.yul\":10922:10941   */\n      and\n        /* \"#utility.yul\":10915:10920   */\n      dup5\n        /* \"#utility.yul\":10912:10942   */\n      or\n        /* \"#utility.yul\":10902:10942   */\n      swap3\n      pop\n        /* \"#utility.yul\":10631:10948   */\n      pop\n      pop\n        /* \"#utility.yul\":10555:10948   */\n      swap4\n      swap3\n      pop\n      pop\n      pop\n      jump\t// out\n        /* \"#utility.yul\":10954:11014   */\n    tag_116:\n        /* \"#utility.yul\":10982:10985   */\n      0x00\n        /* \"#utility.yul\":11003:11008   */\n      dup2\n        /* \"#utility.yul\":10996:11008   */\n      swap1\n      pop\n        /* \"#utility.yul\":10954:11014   */\n      swap2\n      swap1\n      pop\n      jump\t// out\n        /* \"#utility.yul\":11020:11162   */\n    tag_117:\n        /* \"#utility.yul\":11070:11079   */\n      0x00\n        /* \"#utility.yul\":11103:11156   */\n      tag_242\n        /* \"#utility.yul\":11121:11155   */\n      tag_243\n        /* \"#utility.yul\":11130:11154   */\n      tag_244\n        /* \"#utility.yul\":11148:11153   */\n      dup5\n        /* \"#utility.yul\":11130:11154   */\n      tag_95\n      jump\t// in\n    tag_244:\n        /* \"#utility.yul\":11121:11155   */\n      tag_116\n      jump\t// in\n    tag_243:\n        /* \"#utility.yul\":11103:11156   */\n      tag_95\n      jump\t// in\n    tag_242:\n        /* \"#utility.yul\":11090:11156   */\n      swap1\n      pop\n        /* \"#utility.yul\":11020:11162   */\n      swap2\n      swap1\n      pop\n      jump\t// out\n        /* \"#utility.yul\":11168:11243   */\n    tag_118:\n        /* \"#utility.yul\":11211:11214   */\n      0x00\n        /* \"#utility.yul\":11232:11237   */\n      dup2\n        /* \"#utility.yul\":11225:11237   */\n      swap1\n      pop\n        /* \"#utility.yul\":11168:11243   */\n      swap2\n      swap1\n      pop\n      jump\t// out\n        /* \"#utility.yul\":11249:11518   */\n    tag_119:\n        /* \"#utility.yul\":11359:11398   */\n      tag_247\n        /* \"#utility.yul\":11390:11397   */\n      dup4\n        /* \"#utility.yul\":11359:11398   */\n      tag_117\n      jump\t// in\n    tag_247:\n        /* \"#utility.yul\":11420:11511   */\n      tag_248\n        /* \"#utility.yul\":11469:11510   */\n      tag_249\n        /* \"#utility.yul\":11493:11509   */\n      dup3\n        /* \"#utility.yul\":11469:11510   */\n      tag_118\n      jump\t// in\n    tag_249:\n        /* \"#utility.yul\":11461:11467   */\n      dup5\n        /* \"#utility.yul\":11454:11458   */\n      dup5\n        /* \"#utility.yul\":11448:11459   */\n      sload\n        /* \"#utility.yul\":11420:11511   */\n      tag_115\n      jump\t// in\n    tag_248:\n        /* \"#utility.yul\":11414:11418   */\n      dup3\n        /* \"#utility.yul\":11407:11512   */\n      sstore\n        /* \"#utility.yul\":11325:11518   */\n      pop\n        /* \"#utility.yul\":11249:11518   */\n      pop\n      pop\n      pop\n      jump\t// out\n        /* \"#utility.yul\":11524:11597   */\n    tag_120:\n        /* \"#utility.yul\":11569:11572   */\n      0x00\n        /* \"#utility.yul\":11524:11597   */\n      swap1\n      jump\t// out\n        /* \"#utility.yul\":11603:11792   */\n    tag_121:\n        /* \"#utility.yul\":11680:11712   */\n      tag_252\n      tag_120\n      jump\t// in\n    tag_252:\n        /* \"#utility.yul\":11721:11786   */\n      tag_253\n        /* \"#utility.yul\":11779:11785   */\n      dup2\n        /* \"#utility.yul\":11771:11777   */\n      dup5\n        /* \"#utility.yul\":11765:11769   */\n      dup5\n        /* \"#utility.yul\":11721:11786   */\n      tag_119\n      jump\t// in\n    tag_253:\n        /* \"#utility.yul\":11656:11792   */\n      pop\n        /* \"#utility.yul\":11603:11792   */\n      pop\n      pop\n      jump\t// out\n        /* \"#utility.yul\":11798:11984   */\n    tag_122:\n        /* \"#utility.yul\":11858:11978   */\n    tag_255:\n        /* \"#utility.yul\":11875:11878   */\n      dup2\n        /* \"#utility.yul\":11868:11873   */\n      dup2\n        /* \"#utility.yul\":11865:11879   */\n      lt\n        /* \"#utility.yul\":11858:11978   */\n      iszero\n      tag_257\n      jumpi\n        /* \"#utility.yul\":11929:11968   */\n      tag_258\n        /* \"#utility.yul\":11966:11967   */\n      0x00\n        /* \"#utility.yul\":11959:11964   */\n      dup3\n        /* \"#utility.yul\":11929:11968   */\n      tag_121\n      jump\t// in\n    tag_258:\n        /* \"#utility.yul\":11902:11903   */\n      0x01\n        /* \"#utility.yul\":11895:11900   */\n      dup2\n        /* \"#utility.yul\":11891:11904   */\n      add\n        /* \"#utility.yul\":11882:11904   */\n      swap1\n      pop\n        /* \"#utility.yul\":11858:11978   */\n      jump(tag_255)\n    tag_257:\n        /* \"#utility.yul\":11798:11984   */\n      pop\n      pop\n      jump\t// out\n        /* \"#utility.yul\":11990:12533   */\n    tag_123:\n        /* \"#utility.yul\":12091:12093   */\n      0x1f\n        /* \"#utility.yul\":12086:12089   */\n      dup3\n        /* \"#utility.yul\":12083:12094   */\n      gt\n        /* \"#utility.yul\":12080:12526   */\n      iszero\n      tag_260\n      jumpi\n        /* \"#utility.yul\":12125:12163   */\n      tag_261\n        /* \"#utility.yul\":12157:12162   */\n      dup2\n        /* \"#utility.yul\":12125:12163   */\n      tag_112\n      jump\t// in\n    tag_261:\n        /* \"#utility.yul\":12209:12238   */\n      tag_262\n        /* \"#utility.yul\":12227:12237   */\n      dup5\n        /* \"#utility.yul\":12209:12238   */\n      tag_113\n      jump\t// in\n    tag_262:\n        /* \"#utility.yul\":12199:12207   */\n      dup2\n        /* \"#utility.yul\":12195:12239   */\n      add\n        /* \"#utility.yul\":12392:12394   */\n      0x20\n        /* \"#utility.yul\":12380:12390   */\n      dup6\n        /* \"#utility.yul\":12377:12395   */\n      lt\n        /* \"#utility.yul\":12374:12423   */\n      iszero\n      tag_263\n      jumpi\n        /* \"#utility.yul\":12413:12421   */\n      dup2\n        /* \"#utility.yul\":12398:12421   */\n      swap1\n      pop\n        /* \"#utility.yul\":12374:12423   */\n    tag_263:\n        /* \"#utility.yul\":12436:12516   */\n      tag_264\n        /* \"#utility.yul\":12492:12514   */\n      tag_265\n        /* \"#utility.yul\":12510:12513   */\n      dup6\n        /* \"#utility.yul\":12492:12514   */\n      tag_113\n      jump\t// in\n    tag_265:\n        /* \"#utility.yul\":12482:12490   */\n      dup4\n        /* \"#utility.yul\":12478:12515   */\n      add\n        /* \"#utility.yul\":12465:12476   */\n      dup3\n        /* \"#utility.yul\":12436:12516   */\n      tag_122\n      jump\t// in\n    tag_264:\n        /* \"#utility.yul\":12095:12526   */\n      pop\n      pop\n        /* \"#utility.yul\":12080:12526   */\n    tag_260:\n        /* \"#utility.yul\":11990:12533   */\n      pop\n      pop\n      pop\n      jump\t// out\n        /* \"#utility.yul\":12539:12656   */\n    tag_124:\n        /* \"#utility.yul\":12593:12601   */\n      0x00\n        /* \"#utility.yul\":12643:12648   */\n      dup3\n        /* \"#utility.yul\":12637:12641   */\n      dup3\n        /* \"#utility.yul\":12633:12649   */\n      shr\n        /* \"#utility.yul\":12612:12649   */\n      swap1\n      pop\n        /* \"#utility.yul\":12539:12656   */\n      swap3\n      swap2\n      pop\n      pop\n      jump\t// out\n        /* \"#utility.yul\":12662:12831   */\n    tag_125:\n        /* \"#utility.yul\":12706:12712   */\n      0x00\n        /* \"#utility.yul\":12739:12790   */\n      tag_268\n        /* \"#utility.yul\":12787:12788   */\n      0x00\n        /* \"#utility.yul\":12783:12789   */\n      not\n        /* \"#utility.yul\":12775:12780   */\n      dup5\n        /* \"#utility.yul\":12772:12773   */\n      0x08\n        /* \"#utility.yul\":12768:12781   */\n      mul\n        /* \"#utility.yul\":12739:12790   */\n      tag_124\n      jump\t// in\n    tag_268:\n        /* \"#utility.yul\":12735:12791   */\n      not\n        /* \"#utility.yul\":12820:12824   */\n      dup1\n        /* \"#utility.yul\":12814:12818   */\n      dup4\n        /* \"#utility.yul\":12810:12825   */\n      and\n        /* \"#utility.yul\":12800:12825   */\n      swap2\n      pop\n        /* \"#utility.yul\":12713:12831   */\n      pop\n        /* \"#utility.yul\":12662:12831   */\n      swap3\n      swap2\n      pop\n      pop\n      jump\t// out\n        /* \"#utility.yul\":12836:13131   */\n    tag_126:\n        /* \"#utility.yul\":12912:12916   */\n      0x00\n        /* \"#utility.yul\":13058:13087   */\n      tag_270\n        /* \"#utility.yul\":13083:13086   */\n      dup4\n        /* \"#utility.yul\":13077:13081   */\n      dup4\n        /* \"#utility.yul\":13058:13087   */\n      tag_125\n      jump\t// in\n    tag_270:\n        /* \"#utility.yul\":13050:13087   */\n      swap2\n      pop\n        /* \"#utility.yul\":13120:13123   */\n      dup3\n        /* \"#utility.yul\":13117:13118   */\n      0x02\n        /* \"#utility.yul\":13113:13124   */\n      mul\n        /* \"#utility.yul\":13107:13111   */\n      dup3\n        /* \"#utility.yul\":13104:13125   */\n      or\n        /* \"#utility.yul\":13096:13125   */\n      swap1\n      pop\n        /* \"#utility.yul\":12836:13131   */\n      swap3\n      swap2\n      pop\n      pop\n      jump\t// out\n        /* \"#utility.yul\":13136:14531   */\n    tag_34:\n        /* \"#utility.yul\":13253:13290   */\n      tag_272\n        /* \"#utility.yul\":13286:13289   */\n      dup3\n        /* \"#utility.yul\":13253:13290   */\n      tag_98\n      jump\t// in\n    tag_272:\n        /* \"#utility.yul\":13355:13373   */\n      0xffffffffffffffff\n        /* \"#utility.yul\":13347:13353   */\n      dup2\n        /* \"#utility.yul\":13344:13374   */\n      gt\n        /* \"#utility.yul\":13341:13397   */\n      iszero\n      tag_273\n      jumpi\n        /* \"#utility.yul\":13377:13395   */\n      tag_274\n      tag_88\n      jump\t// in\n    tag_274:\n        /* \"#utility.yul\":13341:13397   */\n    tag_273:\n        /* \"#utility.yul\":13421:13459   */\n      tag_275\n        /* \"#utility.yul\":13453:13457   */\n      dup3\n        /* \"#utility.yul\":13447:13458   */\n      sload\n        /* \"#utility.yul\":13421:13459   */\n      tag_45\n      jump\t// in\n    tag_275:\n        /* \"#utility.yul\":13506:13573   */\n      tag_276\n        /* \"#utility.yul\":13566:13572   */\n      dup3\n        /* \"#utility.yul\":13558:13564   */\n      dup3\n        /* \"#utility.yul\":13552:13556   */\n      dup6\n        /* \"#utility.yul\":13506:13573   */\n      tag_123\n      jump\t// in\n    tag_276:\n        /* \"#utility.yul\":13600:13601   */\n      0x00\n        /* \"#utility.yul\":13624:13628   */\n      0x20\n        /* \"#utility.yul\":13611:13628   */\n      swap1\n      pop\n        /* \"#utility.yul\":13656:13658   */\n      0x1f\n        /* \"#utility.yul\":13648:13654   */\n      dup4\n        /* \"#utility.yul\":13645:13659   */\n      gt\n        /* \"#utility.yul\":13673:13674   */\n      0x01\n        /* \"#utility.yul\":13668:14286   */\n      dup2\n      eq\n      tag_278\n      jumpi\n        /* \"#utility.yul\":14330:14331   */\n      0x00\n        /* \"#utility.yul\":14347:14353   */\n      dup5\n        /* \"#utility.yul\":14344:14421   */\n      iszero\n      tag_279\n      jumpi\n        /* \"#utility.yul\":14396:14405   */\n      dup3\n        /* \"#utility.yul\":14391:14394   */\n      dup8\n        /* \"#utility.yul\":14387:14406   */\n      add\n        /* \"#utility.yul\":14381:14407   */\n      mload\n        /* \"#utility.yul\":14372:14407   */\n      swap1\n      pop\n        /* \"#utility.yul\":14344:14421   */\n    tag_279:\n        /* \"#utility.yul\":14447:14514   */\n      tag_280\n        /* \"#utility.yul\":14507:14513   */\n      dup6\n        /* \"#utility.yul\":14500:14505   */\n      dup3\n        /* \"#utility.yul\":14447:14514   */\n      tag_126\n      jump\t// in\n    tag_280:\n        /* \"#utility.yul\":14441:14445   */\n      dup7\n        /* \"#utility.yul\":14434:14515   */\n      sstore\n        /* \"#utility.yul\":14303:14525   */\n      pop\n        /* \"#utility.yul\":13638:14525   */\n      jump(tag_277)\n        /* \"#utility.yul\":13668:14286   */\n    tag_278:\n        /* \"#utility.yul\":13720:13724   */\n      0x1f\n        /* \"#utility.yul\":13716:13725   */\n      not\n        /* \"#utility.yul\":13708:13714   */\n      dup5\n        /* \"#utility.yul\":13704:13726   */\n      and\n        /* \"#utility.yul\":13754:13791   */\n      tag_281\n        /* \"#utility.yul\":13786:13790   */\n      dup7\n        /* \"#utility.yul\":13754:13791   */\n      tag_112\n      jump\t// in\n    tag_281:\n        /* \"#utility.yul\":13813:13814   */\n      0x00\n        /* \"#utility.yul\":13827:14035   */\n    tag_282:\n        /* \"#utility.yul\":13841:13848   */\n      dup3\n        /* \"#utility.yul\":13838:13839   */\n      dup2\n        /* \"#utility.yul\":13835:13849   */\n      lt\n        /* \"#utility.yul\":13827:14035   */\n      iszero\n      tag_284\n      jumpi\n        /* \"#utility.yul\":13920:13929   */\n      dup5\n        /* \"#utility.yul\":13915:13918   */\n      dup10\n        /* \"#utility.yul\":13911:13930   */\n      add\n        /* \"#utility.yul\":13905:13931   */\n      mload\n        /* \"#utility.yul\":13897:13903   */\n      dup3\n        /* \"#utility.yul\":13890:13932   */\n      sstore\n        /* \"#utility.yul\":13971:13972   */\n      0x01\n        /* \"#utility.yul\":13963:13969   */\n      dup3\n        /* \"#utility.yul\":13959:13973   */\n      add\n        /* \"#utility.yul\":13949:13973   */\n      swap2\n      pop\n        /* \"#utility.yul\":14018:14020   */\n      0x20\n        /* \"#utility.yul\":14007:14016   */\n      dup6\n        /* \"#utility.yul\":14003:14021   */\n      add\n        /* \"#utility.yul\":13990:14021   */\n      swap5\n      pop\n        /* \"#utility.yul\":13864:13868   */\n      0x20\n        /* \"#utility.yul\":13861:13862   */\n      dup2\n        /* \"#utility.yul\":13857:13869   */\n      add\n        /* \"#utility.yul\":13852:13869   */\n      swap1\n      pop\n        /* \"#utility.yul\":13827:14035   */\n      jump(tag_282)\n    tag_284:\n        /* \"#utility.yul\":14063:14069   */\n      dup7\n        /* \"#utility.yul\":14054:14061   */\n      dup4\n        /* \"#utility.yul\":14051:14070   */\n      lt\n        /* \"#utility.yul\":14048:14227   */\n      iszero\n      tag_285\n      jumpi\n        /* \"#utility.yul\":14121:14130   */\n      dup5\n        /* \"#utility.yul\":14116:14119   */\n      dup10\n        /* \"#utility.yul\":14112:14131   */\n      add\n        /* \"#utility.yul\":14106:14132   */\n      mload\n        /* \"#utility.yul\":14164:14212   */\n      tag_286\n        /* \"#utility.yul\":14206:14210   */\n      0x1f\n        /* \"#utility.yul\":14198:14204   */\n      dup10\n        /* \"#utility.yul\":14194:14211   */\n      and\n        /* \"#utility.yul\":14183:14192   */\n      dup3\n        /* \"#utility.yul\":14164:14212   */\n      tag_125\n      jump\t// in\n    tag_286:\n        /* \"#utility.yul\":14156:14162   */\n      dup4\n        /* \"#utility.yul\":14149:14213   */\n      sstore\n        /* \"#utility.yul\":14071:14227   */\n      pop\n        /* \"#utility.yul\":14048:14227   */\n    tag_285:\n        /* \"#utility.yul\":14273:14274   */\n      0x01\n        /* \"#utility.yul\":14269:14270   */\n      0x02\n        /* \"#utility.yul\":14261:14267   */\n      dup9\n        /* \"#utility.yul\":14257:14271   */\n      mul\n        /* \"#utility.yul\":14253:14275   */\n      add\n        /* \"#utility.yul\":14247:14251   */\n      dup9\n        /* \"#utility.yul\":14240:14276   */\n      sstore\n        /* \"#utility.yul\":13675:14286   */\n      pop\n      pop\n      pop\n        /* \"#utility.yul\":13638:14525   */\n    tag_277:\n      pop\n        /* \"#utility.yul\":13228:14531   */\n      pop\n      pop\n      pop\n        /* \"#utility.yul\":13136:14531   */\n      pop\n      pop\n      jump\t// out\n        /* \"#utility.yul\":14537:14686   */\n    tag_127:\n        /* \"#utility.yul\":14586:14592   */\n      0x00\n        /* \"#utility.yul\":14620:14625   */\n      dup2\n        /* \"#utility.yul\":14614:14626   */\n      sload\n        /* \"#utility.yul\":14604:14626   */\n      swap1\n      pop\n        /* \"#utility.yul\":14646:14679   */\n      tag_288\n        /* \"#utility.yul\":14672:14678   */\n      dup2\n        /* \"#utility.yul\":14646:14679   */\n      tag_45\n      jump\t// in\n    tag_288:\n        /* \"#utility.yul\":14636:14679   */\n      swap1\n      pop\n        /* \"#utility.yul\":14537:14686   */\n      swap2\n      swap1\n      pop\n      jump\t// out\n        /* \"#utility.yul\":14692:16143   */\n    tag_37:\n        /* \"#utility.yul\":14803:14806   */\n      dup2\n        /* \"#utility.yul\":14797:14801   */\n      dup2\n        /* \"#utility.yul\":14794:14807   */\n      sub\n        /* \"#utility.yul\":14791:14817   */\n      tag_290\n      jumpi\n        /* \"#utility.yul\":14810:14815   */\n      pop\n      pop\n      jump(tag_289)\n        /* \"#utility.yul\":14791:14817   */\n    tag_290:\n        /* \"#utility.yul\":14841:14875   */\n      tag_291\n        /* \"#utility.yul\":14871:14874   */\n      dup3\n        /* \"#utility.yul\":14841:14875   */\n      tag_127\n      jump\t// in\n    tag_291:\n        /* \"#utility.yul\":14940:14958   */\n      0xffffffffffffffff\n        /* \"#utility.yul\":14932:14938   */\n      dup2\n        /* \"#utility.yul\":14929:14959   */\n      gt\n        /* \"#utility.yul\":14926:14982   */\n      iszero\n      tag_292\n      jumpi\n        /* \"#utility.yul\":14962:14980   */\n      tag_293\n      tag_88\n      jump\t// in\n    tag_293:\n        /* \"#utility.yul\":14926:14982   */\n    tag_292:\n        /* \"#utility.yul\":15006:15044   */\n      tag_294\n        /* \"#utility.yul\":15038:15042   */\n      dup3\n        /* \"#utility.yul\":15032:15043   */\n      sload\n        /* \"#utility.yul\":15006:15044   */\n      tag_45\n      jump\t// in\n    tag_294:\n        /* \"#utility.yul\":15091:15158   */\n      tag_295\n        /* \"#utility.yul\":15151:15157   */\n      dup3\n        /* \"#utility.yul\":15143:15149   */\n      dup3\n        /* \"#utility.yul\":15137:15141   */\n      dup6\n        /* \"#utility.yul\":15091:15158   */\n      tag_123\n      jump\t// in\n    tag_295:\n        /* \"#utility.yul\":15185:15186   */\n      0x00\n        /* \"#utility.yul\":15214:15216   */\n      0x1f\n        /* \"#utility.yul\":15206:15212   */\n      dup4\n        /* \"#utility.yul\":15203:15217   */\n      gt\n        /* \"#utility.yul\":15231:15232   */\n      0x01\n        /* \"#utility.yul\":15226:15898   */\n      dup2\n      eq\n      tag_297\n      jumpi\n        /* \"#utility.yul\":15942:15943   */\n      0x00\n        /* \"#utility.yul\":15959:15965   */\n      dup5\n        /* \"#utility.yul\":15956:16033   */\n      iszero\n      tag_298\n      jumpi\n        /* \"#utility.yul\":16008:16017   */\n      dup3\n        /* \"#utility.yul\":16003:16006   */\n      dup8\n        /* \"#utility.yul\":15999:16018   */\n      add\n        /* \"#utility.yul\":15993:16019   */\n      sload\n        /* \"#utility.yul\":15984:16019   */\n      swap1\n      pop\n        /* \"#utility.yul\":15956:16033   */\n    tag_298:\n        /* \"#utility.yul\":16059:16126   */\n      tag_299\n        /* \"#utility.yul\":16119:16125   */\n      dup6\n        /* \"#utility.yul\":16112:16117   */\n      dup3\n        /* \"#utility.yul\":16059:16126   */\n      tag_126\n      jump\t// in\n    tag_299:\n        /* \"#utility.yul\":16053:16057   */\n      dup7\n        /* \"#utility.yul\":16046:16127   */\n      sstore\n        /* \"#utility.yul\":15915:16137   */\n      pop\n        /* \"#utility.yul\":15196:16137   */\n      jump(tag_296)\n        /* \"#utility.yul\":15226:15898   */\n    tag_297:\n        /* \"#utility.yul\":15278:15282   */\n      0x1f\n        /* \"#utility.yul\":15274:15283   */\n      not\n        /* \"#utility.yul\":15266:15272   */\n      dup5\n        /* \"#utility.yul\":15262:15284   */\n      and\n        /* \"#utility.yul\":15304:15340   */\n      tag_300\n        /* \"#utility.yul\":15336:15339   */\n      dup8\n        /* \"#utility.yul\":15304:15340   */\n      tag_112\n      jump\t// in\n    tag_300:\n        /* \"#utility.yul\":15297:15340   */\n      swap7\n      pop\n        /* \"#utility.yul\":15367:15404   */\n      tag_301\n        /* \"#utility.yul\":15399:15403   */\n      dup7\n        /* \"#utility.yul\":15367:15404   */\n      tag_112\n      jump\t// in\n    tag_301:\n        /* \"#utility.yul\":15426:15427   */\n      0x00\n        /* \"#utility.yul\":15440:15647   */\n    tag_302:\n        /* \"#utility.yul\":15454:15461   */\n      dup3\n        /* \"#utility.yul\":15451:15452   */\n      dup2\n        /* \"#utility.yul\":15448:15462   */\n      lt\n        /* \"#utility.yul\":15440:15647   */\n      iszero\n      tag_304\n      jumpi\n        /* \"#utility.yul\":15533:15542   */\n      dup5\n        /* \"#utility.yul\":15528:15531   */\n      dup10\n        /* \"#utility.yul\":15524:15543   */\n      add\n        /* \"#utility.yul\":15518:15544   */\n      sload\n        /* \"#utility.yul\":15510:15516   */\n      dup3\n        /* \"#utility.yul\":15503:15545   */\n      sstore\n        /* \"#utility.yul\":15584:15585   */\n      0x01\n        /* \"#utility.yul\":15576:15582   */\n      dup3\n        /* \"#utility.yul\":15572:15586   */\n      add\n        /* \"#utility.yul\":15562:15586   */\n      swap2\n      pop\n        /* \"#utility.yul\":15631:15632   */\n      0x01\n        /* \"#utility.yul\":15620:15629   */\n      dup6\n        /* \"#utility.yul\":15616:15633   */\n      add\n        /* \"#utility.yul\":15603:15633   */\n      swap5\n      pop\n        /* \"#utility.yul\":15477:15481   */\n      0x20\n        /* \"#utility.yul\":15474:15475   */\n      dup2\n        /* \"#utility.yul\":15470:15482   */\n      add\n        /* \"#utility.yul\":15465:15482   */\n      swap1\n      pop\n        /* \"#utility.yul\":15440:15647   */\n      jump(tag_302)\n    tag_304:\n        /* \"#utility.yul\":15675:15681   */\n      dup7\n        /* \"#utility.yul\":15666:15673   */\n      dup4\n        /* \"#utility.yul\":15663:15682   */\n      lt\n        /* \"#utility.yul\":15660:15839   */\n      iszero\n      tag_305\n      jumpi\n        /* \"#utility.yul\":15733:15742   */\n      dup5\n        /* \"#utility.yul\":15728:15731   */\n      dup10\n        /* \"#utility.yul\":15724:15743   */\n      add\n        /* \"#utility.yul\":15718:15744   */\n      sload\n        /* \"#utility.yul\":15776:15824   */\n      tag_306\n        /* \"#utility.yul\":15818:15822   */\n      0x1f\n        /* \"#utility.yul\":15810:15816   */\n      dup10\n        /* \"#utility.yul\":15806:15823   */\n      and\n        /* \"#utility.yul\":15795:15804   */\n      dup3\n        /* \"#utility.yul\":15776:15824   */\n      tag_125\n      jump\t// in\n    tag_306:\n        /* \"#utility.yul\":15768:15774   */\n      dup4\n        /* \"#utility.yul\":15761:15825   */\n      sstore\n        /* \"#utility.yul\":15683:15839   */\n      pop\n        /* \"#utility.yul\":15660:15839   */\n    tag_305:\n        /* \"#utility.yul\":15885:15886   */\n      0x01\n        /* \"#utility.yul\":15881:15882   */\n      0x02\n        /* \"#utility.yul\":15873:15879   */\n      dup9\n        /* \"#utility.yul\":15869:15883   */\n      mul\n        /* \"#utility.yul\":15865:15887   */\n      add\n        /* \"#utility.yul\":15859:15863   */\n      dup9\n        /* \"#utility.yul\":15852:15888   */\n      sstore\n        /* \"#utility.yul\":15233:15898   */\n      pop\n      pop\n      pop\n        /* \"#utility.yul\":15196:16137   */\n    tag_296:\n      pop\n        /* \"#utility.yul\":14781:16143   */\n      pop\n      pop\n      pop\n        /* \"#utility.yul\":14692:16143   */\n      pop\n      pop\n    tag_289:\n      jump\t// out\n        /* \"#utility.yul\":16149:16329   */\n    tag_128:\n        /* \"#utility.yul\":16197:16274   */\n      0x4e487b7100000000000000000000000000000000000000000000000000000000\n        /* \"#utility.yul\":16194:16195   */\n      0x00\n        /* \"#utility.yul\":16187:16275   */\n      mstore\n        /* \"#utility.yul\":16294:16298   */\n      0x11\n        /* \"#utility.yul\":16291:16292   */\n      0x04\n        /* \"#utility.yul\":16284:16299   */\n      mstore\n        /* \"#utility.yul\":16318:16322   */\n      0x24\n        /* \"#utility.yul\":16315:16316   */\n      0x00\n        /* \"#utility.yul\":16308:16323   */\n      revert\n        /* \"#utility.yul\":16335:16568   */\n    tag_77:\n        /* \"#utility.yul\":16374:16377   */\n      0x00\n        /* \"#utility.yul\":16397:16421   */\n      tag_309\n        /* \"#utility.yul\":16415:16420   */\n      dup3\n        /* \"#utility.yul\":16397:16421   */\n      tag_95\n      jump\t// in\n    tag_309:\n        /* \"#utility.yul\":16388:16421   */\n      swap2\n      pop\n        /* \"#utility.yul\":16443:16509   */\n      0xffffffffffffffffffffffffffffffffffffffffffffffffffffffffffffffff\n        /* \"#utility.yul\":16436:16441   */\n      dup3\n        /* \"#utility.yul\":16433:16510   */\n      sub\n        /* \"#utility.yul\":16430:16533   */\n      tag_310\n      jumpi\n        /* \"#utility.yul\":16513:16531   */\n      tag_311\n      tag_128\n      jump\t// in\n    tag_311:\n        /* \"#utility.yul\":16430:16533   */\n    tag_310:\n        /* \"#utility.yul\":16560:16561   */\n      0x01\n        /* \"#utility.yul\":16553:16558   */\n      dup3\n        /* \"#utility.yul\":16549:16562   */\n      add\n        /* \"#utility.yul\":16542:16562   */\n      swap1\n      pop\n        /* \"#utility.yul\":16335:16568   */\n      swap2\n      swap1\n      pop\n      jump\t// out\n        /* \"#utility.yul\":16574:16984   */\n    tag_79:\n        /* \"#utility.yul\":16614:16621   */\n      0x00\n        /* \"#utility.yul\":16637:16657   */\n      tag_313\n        /* \"#utility.yul\":16655:16656   */\n      dup3\n        /* \"#utility.yul\":16637:16657   */\n      tag_95\n      jump\t// in\n    tag_313:\n        /* \"#utility.yul\":16632:16657   */\n      swap2\n      pop\n        /* \"#utility.yul\":16671:16691   */\n      tag_314\n        /* \"#utility.yul\":16689:16690   */\n      dup4\n        /* \"#utility.yul\":16671:16691   */\n      tag_95\n      jump\t// in\n    tag_314:\n        /* \"#utility.yul\":16666:16691   */\n      swap3\n      pop\n        /* \"#utility.yul\":16726:16727   */\n      dup3\n        /* \"#utility.yul\":16723:16724   */\n      dup3\n        /* \"#utility.yul\":16719:16728   */\n      mul\n        /* \"#utility.yul\":16748:16778   */\n      tag_315\n        /* \"#utility.yul\":16766:16777   */\n      dup2\n        /* \"#utility.yul\":16748:16778   */\n      tag_95\n      jump\t// in\n    tag_315:\n        /* \"#utility.yul\":16737:16778   */\n      swap2\n      pop\n        /* \"#utility.yul\":16927:16928   */\n      dup3\n        /* \"#utility.yul\":16918:16925   */\n      dup3\n        /* \"#utility.yul\":16914:16929   */\n      div\n        /* \"#utility.yul\":16911:16912   */\n      dup5\n        /* \"#utility.yul\":16908:16930   */\n      eq\n        /* \"#utility.yul\":16888:16889   */\n      dup4\n        /* \"#utility.yul\":16881:16890   */\n      iszero\n        /* \"#utility.yul\":16861:16944   */\n      or\n        /* \"#utility.yul\":16838:16977   */\n      tag_316\n      jumpi\n        /* \"#utility.yul\":16957:16975   */\n      tag_317\n      tag_128\n      jump\t// in\n    tag_317:\n        /* \"#utility.yul\":16838:16977   */\n    tag_316:\n        /* \"#utility.yul\":16622:16984   */\n      pop\n        /* \"#utility.yul\":16574:16984   */\n      swap3\n      swap2\n      pop\n      pop\n      jump\t// out\n        /* \"#utility.yul\":16990:17181   */\n    tag_81:\n        /* \"#utility.yul\":17030:17033   */\n      0x00\n        /* \"#utility.yul\":17049:17069   */\n      tag_319\n        /* \"#utility.yul\":17067:17068   */\n      dup3\n        /* \"#utility.yul\":17049:17069   */\n      tag_95\n      jump\t// in\n    tag_319:\n        /* \"#utility.yul\":17044:17069   */\n      swap2\n      pop\n        /* \"#utility.yul\":17083:17103   */\n      tag_320\n        /* \"#utility.yul\":17101:17102   */\n      dup4\n        /* \"#utility.yul\":17083:17103   */\n      tag_95\n      jump\t// in\n    tag_320:\n        /* \"#utility.yul\":17078:17103   */\n      swap3\n      pop\n        /* \"#utility.yul\":17126:17127   */\n      dup3\n        /* \"#utility.yul\":17123:17124   */\n      dup3\n        /* \"#utility.yul\":17119:17128   */\n      add\n        /* \"#utility.yul\":17112:17128   */\n      swap1\n      pop\n        /* \"#utility.yul\":17147:17150   */\n      dup1\n        /* \"#utility.yul\":17144:17145   */\n      dup3\n        /* \"#utility.yul\":17141:17151   */\n      gt\n        /* \"#utility.yul\":17138:17174   */\n      iszero\n      tag_321\n      jumpi\n        /* \"#utility.yul\":17154:17172   */\n      tag_322\n      tag_128\n      jump\t// in\n    tag_322:\n        /* \"#utility.yul\":17138:17174   */\n    tag_321:\n        /* \"#utility.yul\":16990:17181   */\n      swap3\n      swap2\n      pop\n      pop\n      jump\t// out\n\n    auxdata: 0xa2646970667358221220feacb1a0d397148b7c7fc2f91d487e983e1c18f0a1dbe02c8e796eb333e8fa9464736f6c63430008140033\n}\n",
				"bytecode": {
					"linkReferences": {},
					"object": "60806040525f600755348015610013575f80fd5b50611099806100215f395ff3fe608060405234801561000f575f80fd5b5060043610610055575f3560e01c80636fc22123146100595780638739e6631461007557806388dd932314610093578063b155f116146100c7578063d819c635146100fb575b5f80fd5b610073600480360381019061006e919061087a565b610119565b005b61007d610280565b60405161008a9190610a19565b60405180910390f35b6100ad60048036038101906100a89190610a39565b610412565b6040516100be959493929190610abb565b60405180910390f35b6100e160048036038101906100dc9190610b74565b610550565b6040516100f2959493929190610abb565b60405180910390f35b61010361068e565b6040516101109190610b9f565b60405180910390f35b5f61012261068e565b90506040518060a00160405280868152602001858152602001848152602001838152602001828152505f80820151815f01908161015f9190610db2565b50602082015181600101556040820151816002015560608201518160030190816101899190610db2565b50608082015181600401559050505f60055f3373ffffffffffffffffffffffffffffffffffffffff1673ffffffffffffffffffffffffffffffffffffffff1681526020019081526020015f205f8201815f0190816101e79190610e96565b506001820154816001015560028201548160020155600382018160030190816102109190610e96565b50600482015481600401559050505f60065f8381526020019081526020015f205f8201815f0190816102429190610e96565b5060018201548160010155600282015481600201556003820181600301908161026b9190610e96565b50600482015481600401559050505050505050565b6102886106ce565b60055f3373ffffffffffffffffffffffffffffffffffffffff1673ffffffffffffffffffffffffffffffffffffffff1681526020019081526020015f206040518060a00160405290815f820180546102df90610be5565b80601f016020809104026020016040519081016040528092919081815260200182805461030b90610be5565b80156103565780601f1061032d57610100808354040283529160200191610356565b820191905f5260205f20905b81548152906001019060200180831161033957829003601f168201915b50505050508152602001600182015481526020016002820154815260200160038201805461038390610be5565b80601f01602080910402602001604051908101604052809291908181526020018280546103af90610be5565b80156103fa5780601f106103d1576101008083540402835291602001916103fa565b820191905f5260205f20905b8154815290600101906020018083116103dd57829003601f168201915b50505050508152602001600482015481525050905090565b6006602052805f5260405f205f91509050805f01805461043190610be5565b80601f016020809104026020016040519081016040528092919081815260200182805461045d90610be5565b80156104a85780601f1061047f576101008083540402835291602001916104a8565b820191905f5260205f20905b81548152906001019060200180831161048b57829003601f168201915b5050505050908060010154908060020154908060030180546104c990610be5565b80601f01602080910402602001604051908101604052809291908181526020018280546104f590610be5565b80156105405780601f1061051757610100808354040283529160200191610540565b820191905f5260205f20905b81548152906001019060200180831161052357829003601f168201915b5050505050908060040154905085565b6005602052805f5260405f205f91509050805f01805461056f90610be5565b80601f016020809104026020016040519081016040528092919081815260200182805461059b90610be5565b80156105e65780601f106105bd576101008083540402835291602001916105e6565b820191905f5260205f20905b8154815290600101906020018083116105c957829003601f168201915b50505050509080600101549080600201549080600301805461060790610be5565b80601f016020809104026020016040519081016040528092919081815260200182805461063390610be5565b801561067e5780601f106106555761010080835404028352916020019161067e565b820191905f5260205f20905b81548152906001019060200180831161066157829003601f168201915b5050505050908060040154905085565b5f60075f8154809291906106a190610fa8565b91905055505f60075464174876e800426106bb9190610fef565b6106c59190611030565b90508091505090565b6040518060a00160405280606081526020015f81526020015f8152602001606081526020015f81525090565b5f604051905090565b5f80fd5b5f80fd5b5f80fd5b5f80fd5b5f601f19601f8301169050919050565b7f4e487b71000000000000000000000000000000000000000000000000000000005f52604160045260245ffd5b61075982610713565b810181811067ffffffffffffffff8211171561077857610777610723565b5b80604052505050565b5f61078a6106fa565b90506107968282610750565b919050565b5f67ffffffffffffffff8211156107b5576107b4610723565b5b6107be82610713565b9050602081019050919050565b828183375f83830152505050565b5f6107eb6107e68461079b565b610781565b9050828152602081018484840111156108075761080661070f565b5b6108128482856107cb565b509392505050565b5f82601f83011261082e5761082d61070b565b5b813561083e8482602086016107d9565b91505092915050565b5f819050919050565b61085981610847565b8114610863575f80fd5b50565b5f8135905061087481610850565b92915050565b5f805f806080858703121561089257610891610703565b5b5f85013567ffffffffffffffff8111156108af576108ae610707565b5b6108bb8782880161081a565b94505060206108cc87828801610866565b93505060406108dd87828801610866565b925050606085013567ffffffffffffffff8111156108fe576108fd610707565b5b61090a8782880161081a565b91505092959194509250565b5f81519050919050565b5f82825260208201905092915050565b5f5b8381101561094d578082015181840152602081019050610932565b5f8484015250505050565b5f61096282610916565b61096c8185610920565b935061097c818560208601610930565b61098581610713565b840191505092915050565b61099981610847565b82525050565b5f60a083015f8301518482035f8601526109b98282610958565b91505060208301516109ce6020860182610990565b5060408301516109e16040860182610990565b50606083015184820360608601526109f98282610958565b9150506080830151610a0e6080860182610990565b508091505092915050565b5f6020820190508181035f830152610a31818461099f565b905092915050565b5f60208284031215610a4e57610a4d610703565b5b5f610a5b84828501610866565b91505092915050565b5f82825260208201905092915050565b5f610a7e82610916565b610a888185610a64565b9350610a98818560208601610930565b610aa181610713565b840191505092915050565b610ab581610847565b82525050565b5f60a0820190508181035f830152610ad38188610a74565b9050610ae26020830187610aac565b610aef6040830186610aac565b8181036060830152610b018185610a74565b9050610b106080830184610aac565b9695505050505050565b5f73ffffffffffffffffffffffffffffffffffffffff82169050919050565b5f610b4382610b1a565b9050919050565b610b5381610b39565b8114610b5d575f80fd5b50565b5f81359050610b6e81610b4a565b92915050565b5f60208284031215610b8957610b88610703565b5b5f610b9684828501610b60565b91505092915050565b5f602082019050610bb25f830184610aac565b92915050565b7f4e487b71000000000000000000000000000000000000000000000000000000005f52602260045260245ffd5b5f6002820490506001821680610bfc57607f821691505b602082108103610c0f57610c0e610bb8565b5b50919050565b5f819050815f5260205f209050919050565b5f6020601f8301049050919050565b5f82821b905092915050565b5f60088302610c717fffffffffffffffffffffffffffffffffffffffffffffffffffffffffffffffff82610c36565b610c7b8683610c36565b95508019841693508086168417925050509392505050565b5f819050919050565b5f610cb6610cb1610cac84610847565b610c93565b610847565b9050919050565b5f819050919050565b610ccf83610c9c565b610ce3610cdb82610cbd565b848454610c42565b825550505050565b5f90565b610cf7610ceb565b610d02818484610cc6565b505050565b5b81811015610d2557610d1a5f82610cef565b600181019050610d08565b5050565b601f821115610d6a57610d3b81610c15565b610d4484610c27565b81016020851015610d53578190505b610d67610d5f85610c27565b830182610d07565b50505b505050565b5f82821c905092915050565b5f610d8a5f1984600802610d6f565b1980831691505092915050565b5f610da28383610d7b565b9150826002028217905092915050565b610dbb82610916565b67ffffffffffffffff811115610dd457610dd3610723565b5b610dde8254610be5565b610de9828285610d29565b5f60209050601f831160018114610e1a575f8415610e08578287015190505b610e128582610d97565b865550610e79565b601f198416610e2886610c15565b5f5b82811015610e4f57848901518255600182019150602085019450602081019050610e2a565b86831015610e6c5784890151610e68601f891682610d7b565b8355505b6001600288020188555050505b505050505050565b5f81549050610e8f81610be5565b9050919050565b818103610ea4575050610f79565b610ead82610e81565b67ffffffffffffffff811115610ec657610ec5610723565b5b610ed08254610be5565b610edb828285610d29565b5f601f831160018114610f08575f8415610ef6578287015490505b610f008582610d97565b865550610f72565b601f198416610f1687610c15565b9650610f2186610c15565b5f5b82811015610f4857848901548255600182019150600185019450602081019050610f23565b86831015610f655784890154610f61601f891682610d7b565b8355505b6001600288020188555050505b5050505050505b565b7f4e487b71000000000000000000000000000000000000000000000000000000005f52601160045260245ffd5b5f610fb282610847565b91507fffffffffffffffffffffffffffffffffffffffffffffffffffffffffffffffff8203610fe457610fe3610f7b565b5b600182019050919050565b5f610ff982610847565b915061100483610847565b925082820261101281610847565b9150828204841483151761102957611028610f7b565b5b5092915050565b5f61103a82610847565b915061104583610847565b925082820190508082111561105d5761105c610f7b565b5b9291505056fea2646970667358221220feacb1a0d397148b7c7fc2f91d487e983e1c18f0a1dbe02c8e796eb333e8fa9464736f6c63430008140033",
					"opcodes": "PUSH1 0x80 PUSH1 0x40 MSTORE PUSH0 PUSH1 0x7 SSTORE CALLVALUE DUP1 ISZERO PUSH2 0x13 JUMPI PUSH0 DUP1 REVERT JUMPDEST POP PUSH2 0x1099 DUP1 PUSH2 0x21 PUSH0 CODECOPY PUSH0 RETURN INVALID PUSH1 0x80 PUSH1 0x40 MSTORE CALLVALUE DUP1 ISZERO PUSH2 0xF JUMPI PUSH0 DUP1 REVERT JUMPDEST POP PUSH1 0x4 CALLDATASIZE LT PUSH2 0x55 JUMPI PUSH0 CALLDATALOAD PUSH1 0xE0 SHR DUP1 PUSH4 0x6FC22123 EQ PUSH2 0x59 JUMPI DUP1 PUSH4 0x8739E663 EQ PUSH2 0x75 JUMPI DUP1 PUSH4 0x88DD9323 EQ PUSH2 0x93 JUMPI DUP1 PUSH4 0xB155F116 EQ PUSH2 0xC7 JUMPI DUP1 PUSH4 0xD819C635 EQ PUSH2 0xFB JUMPI JUMPDEST PUSH0 DUP1 REVERT JUMPDEST PUSH2 0x73 PUSH1 0x4 DUP1 CALLDATASIZE SUB DUP2 ADD SWAP1 PUSH2 0x6E SWAP2 SWAP1 PUSH2 0x87A JUMP JUMPDEST PUSH2 0x119 JUMP JUMPDEST STOP JUMPDEST PUSH2 0x7D PUSH2 0x280 JUMP JUMPDEST PUSH1 0x40 MLOAD PUSH2 0x8A SWAP2 SWAP1 PUSH2 0xA19 JUMP JUMPDEST PUSH1 0x40 MLOAD DUP1 SWAP2 SUB SWAP1 RETURN JUMPDEST PUSH2 0xAD PUSH1 0x4 DUP1 CALLDATASIZE SUB DUP2 ADD SWAP1 PUSH2 0xA8 SWAP2 SWAP1 PUSH2 0xA39 JUMP JUMPDEST PUSH2 0x412 JUMP JUMPDEST PUSH1 0x40 MLOAD PUSH2 0xBE SWAP6 SWAP5 SWAP4 SWAP3 SWAP2 SWAP1 PUSH2 0xABB JUMP JUMPDEST PUSH1 0x40 MLOAD DUP1 SWAP2 SUB SWAP1 RETURN JUMPDEST PUSH2 0xE1 PUSH1 0x4 DUP1 CALLDATASIZE SUB DUP2 ADD SWAP1 PUSH2 0xDC SWAP2 SWAP1 PUSH2 0xB74 JUMP JUMPDEST PUSH2 0x550 JUMP JUMPDEST PUSH1 0x40 MLOAD PUSH2 0xF2 SWAP6 SWAP5 SWAP4 SWAP3 SWAP2 SWAP1 PUSH2 0xABB JUMP JUMPDEST PUSH1 0x40 MLOAD DUP1 SWAP2 SUB SWAP1 RETURN JUMPDEST PUSH2 0x103 PUSH2 0x68E JUMP JUMPDEST PUSH1 0x40 MLOAD PUSH2 0x110 SWAP2 SWAP1 PUSH2 0xB9F JUMP JUMPDEST PUSH1 0x40 MLOAD DUP1 SWAP2 SUB SWAP1 RETURN JUMPDEST PUSH0 PUSH2 0x122 PUSH2 0x68E JUMP JUMPDEST SWAP1 POP PUSH1 0x40 MLOAD DUP1 PUSH1 0xA0 ADD PUSH1 0x40 MSTORE DUP1 DUP7 DUP2 MSTORE PUSH1 0x20 ADD DUP6 DUP2 MSTORE PUSH1 0x20 ADD DUP5 DUP2 MSTORE PUSH1 0x20 ADD DUP4 DUP2 MSTORE PUSH1 0x20 ADD DUP3 DUP2 MSTORE POP PUSH0 DUP1 DUP3 ADD MLOAD DUP2 PUSH0 ADD SWAP1 DUP2 PUSH2 0x15F SWAP2 SWAP1 PUSH2 0xDB2 JUMP JUMPDEST POP PUSH1 0x20 DUP3 ADD MLOAD DUP2 PUSH1 0x1 ADD SSTORE PUSH1 0x40 DUP3 ADD MLOAD DUP2 PUSH1 0x2 ADD SSTORE PUSH1 0x60 DUP3 ADD MLOAD DUP2 PUSH1 0x3 ADD SWAP1 DUP2 PUSH2 0x189 SWAP2 SWAP1 PUSH2 0xDB2 JUMP JUMPDEST POP PUSH1 0x80 DUP3 ADD MLOAD DUP2 PUSH1 0x4 ADD SSTORE SWAP1 POP POP PUSH0 PUSH1 0x5 PUSH0 CALLER PUSH20 0xFFFFFFFFFFFFFFFFFFFFFFFFFFFFFFFFFFFFFFFF AND PUSH20 0xFFFFFFFFFFFFFFFFFFFFFFFFFFFFFFFFFFFFFFFF AND DUP2 MSTORE PUSH1 0x20 ADD SWAP1 DUP2 MSTORE PUSH1 0x20 ADD PUSH0 KECCAK256 PUSH0 DUP3 ADD DUP2 PUSH0 ADD SWAP1 DUP2 PUSH2 0x1E7 SWAP2 SWAP1 PUSH2 0xE96 JUMP JUMPDEST POP PUSH1 0x1 DUP3 ADD SLOAD DUP2 PUSH1 0x1 ADD SSTORE PUSH1 0x2 DUP3 ADD SLOAD DUP2 PUSH1 0x2 ADD SSTORE PUSH1 0x3 DUP3 ADD DUP2 PUSH1 0x3 ADD SWAP1 DUP2 PUSH2 0x210 SWAP2 SWAP1 PUSH2 0xE96 JUMP JUMPDEST POP PUSH1 0x4 DUP3 ADD SLOAD DUP2 PUSH1 0x4 ADD SSTORE SWAP1 POP POP PUSH0 PUSH1 0x6 PUSH0 DUP4 DUP2 MSTORE PUSH1 0x20 ADD SWAP1 DUP2 MSTORE PUSH1 0x20 ADD PUSH0 KECCAK256 PUSH0 DUP3 ADD DUP2 PUSH0 ADD SWAP1 DUP2 PUSH2 0x242 SWAP2 SWAP1 PUSH2 0xE96 JUMP JUMPDEST POP PUSH1 0x1 DUP3 ADD SLOAD DUP2 PUSH1 0x1 ADD SSTORE PUSH1 0x2 DUP3 ADD SLOAD DUP2 PUSH1 0x2 ADD SSTORE PUSH1 0x3 DUP3 ADD DUP2 PUSH1 0x3 ADD SWAP1 DUP2 PUSH2 0x26B SWAP2 SWAP1 PUSH2 0xE96 JUMP JUMPDEST POP PUSH1 0x4 DUP3 ADD SLOAD DUP2 PUSH1 0x4 ADD SSTORE SWAP1 POP POP POP POP POP POP POP JUMP JUMPDEST PUSH2 0x288 PUSH2 0x6CE JUMP JUMPDEST PUSH1 0x5 PUSH0 CALLER PUSH20 0xFFFFFFFFFFFFFFFFFFFFFFFFFFFFFFFFFFFFFFFF AND PUSH20 0xFFFFFFFFFFFFFFFFFFFFFFFFFFFFFFFFFFFFFFFF AND DUP2 MSTORE PUSH1 0x20 ADD SWAP1 DUP2 MSTORE PUSH1 0x20 ADD PUSH0 KECCAK256 PUSH1 0x40 MLOAD DUP1 PUSH1 0xA0 ADD PUSH1 0x40 MSTORE SWAP1 DUP2 PUSH0 DUP3 ADD DUP1 SLOAD PUSH2 0x2DF SWAP1 PUSH2 0xBE5 JUMP JUMPDEST DUP1 PUSH1 0x1F ADD PUSH1 0x20 DUP1 SWAP2 DIV MUL PUSH1 0x20 ADD PUSH1 0x40 MLOAD SWAP1 DUP2 ADD PUSH1 0x40 MSTORE DUP1 SWAP3 SWAP2 SWAP1 DUP2 DUP2 MSTORE PUSH1 0x20 ADD DUP3 DUP1 SLOAD PUSH2 0x30B SWAP1 PUSH2 0xBE5 JUMP JUMPDEST DUP1 ISZERO PUSH2 0x356 JUMPI DUP1 PUSH1 0x1F LT PUSH2 0x32D JUMPI PUSH2 0x100 DUP1 DUP4 SLOAD DIV MUL DUP4 MSTORE SWAP2 PUSH1 0x20 ADD SWAP2 PUSH2 0x356 JUMP JUMPDEST DUP3 ADD SWAP2 SWAP1 PUSH0 MSTORE PUSH1 0x20 PUSH0 KECCAK256 SWAP1 JUMPDEST DUP2 SLOAD DUP2 MSTORE SWAP1 PUSH1 0x1 ADD SWAP1 PUSH1 0x20 ADD DUP1 DUP4 GT PUSH2 0x339 JUMPI DUP3 SWAP1 SUB PUSH1 0x1F AND DUP3 ADD SWAP2 JUMPDEST POP POP POP POP POP DUP2 MSTORE PUSH1 0x20 ADD PUSH1 0x1 DUP3 ADD SLOAD DUP2 MSTORE PUSH1 0x20 ADD PUSH1 0x2 DUP3 ADD SLOAD DUP2 MSTORE PUSH1 0x20 ADD PUSH1 0x3 DUP3 ADD DUP1 SLOAD PUSH2 0x383 SWAP1 PUSH2 0xBE5 JUMP JUMPDEST DUP1 PUSH1 0x1F ADD PUSH1 0x20 DUP1 SWAP2 DIV MUL PUSH1 0x20 ADD PUSH1 0x40 MLOAD SWAP1 DUP2 ADD PUSH1 0x40 MSTORE DUP1 SWAP3 SWAP2 SWAP1 DUP2 DUP2 MSTORE PUSH1 0x20 ADD DUP3 DUP1 SLOAD PUSH2 0x3AF SWAP1 PUSH2 0xBE5 JUMP JUMPDEST DUP1 ISZERO PUSH2 0x3FA JUMPI DUP1 PUSH1 0x1F LT PUSH2 0x3D1 JUMPI PUSH2 0x100 DUP1 DUP4 SLOAD DIV MUL DUP4 MSTORE SWAP2 PUSH1 0x20 ADD SWAP2 PUSH2 0x3FA JUMP JUMPDEST DUP3 ADD SWAP2 SWAP1 PUSH0 MSTORE PUSH1 0x20 PUSH0 KECCAK256 SWAP1 JUMPDEST DUP2 SLOAD DUP2 MSTORE SWAP1 PUSH1 0x1 ADD SWAP1 PUSH1 0x20 ADD DUP1 DUP4 GT PUSH2 0x3DD JUMPI DUP3 SWAP1 SUB PUSH1 0x1F AND DUP3 ADD SWAP2 JUMPDEST POP POP POP POP POP DUP2 MSTORE PUSH1 0x20 ADD PUSH1 0x4 DUP3 ADD SLOAD DUP2 MSTORE POP POP SWAP1 POP SWAP1 JUMP JUMPDEST PUSH1 0x6 PUSH1 0x20 MSTORE DUP1 PUSH0 MSTORE PUSH1 0x40 PUSH0 KECCAK256 PUSH0 SWAP2 POP SWAP1 POP DUP1 PUSH0 ADD DUP1 SLOAD PUSH2 0x431 SWAP1 PUSH2 0xBE5 JUMP JUMPDEST DUP1 PUSH1 0x1F ADD PUSH1 0x20 DUP1 SWAP2 DIV MUL PUSH1 0x20 ADD PUSH1 0x40 MLOAD SWAP1 DUP2 ADD PUSH1 0x40 MSTORE DUP1 SWAP3 SWAP2 SWAP1 DUP2 DUP2 MSTORE PUSH1 0x20 ADD DUP3 DUP1 SLOAD PUSH2 0x45D SWAP1 PUSH2 0xBE5 JUMP JUMPDEST DUP1 ISZERO PUSH2 0x4A8 JUMPI DUP1 PUSH1 0x1F LT PUSH2 0x47F JUMPI PUSH2 0x100 DUP1 DUP4 SLOAD DIV MUL DUP4 MSTORE SWAP2 PUSH1 0x20 ADD SWAP2 PUSH2 0x4A8 JUMP JUMPDEST DUP3 ADD SWAP2 SWAP1 PUSH0 MSTORE PUSH1 0x20 PUSH0 KECCAK256 SWAP1 JUMPDEST DUP2 SLOAD DUP2 MSTORE SWAP1 PUSH1 0x1 ADD SWAP1 PUSH1 0x20 ADD DUP1 DUP4 GT PUSH2 0x48B JUMPI DUP3 SWAP1 SUB PUSH1 0x1F AND DUP3 ADD SWAP2 JUMPDEST POP POP POP POP POP SWAP1 DUP1 PUSH1 0x1 ADD SLOAD SWAP1 DUP1 PUSH1 0x2 ADD SLOAD SWAP1 DUP1 PUSH1 0x3 ADD DUP1 SLOAD PUSH2 0x4C9 SWAP1 PUSH2 0xBE5 JUMP JUMPDEST DUP1 PUSH1 0x1F ADD PUSH1 0x20 DUP1 SWAP2 DIV MUL PUSH1 0x20 ADD PUSH1 0x40 MLOAD SWAP1 DUP2 ADD PUSH1 0x40 MSTORE DUP1 SWAP3 SWAP2 SWAP1 DUP2 DUP2 MSTORE PUSH1 0x20 ADD DUP3 DUP1 SLOAD PUSH2 0x4F5 SWAP1 PUSH2 0xBE5 JUMP JUMPDEST DUP1 ISZERO PUSH2 0x540 JUMPI DUP1 PUSH1 0x1F LT PUSH2 0x517 JUMPI PUSH2 0x100 DUP1 DUP4 SLOAD DIV MUL DUP4 MSTORE SWAP2 PUSH1 0x20 ADD SWAP2 PUSH2 0x540 JUMP JUMPDEST DUP3 ADD SWAP2 SWAP1 PUSH0 MSTORE PUSH1 0x20 PUSH0 KECCAK256 SWAP1 JUMPDEST DUP2 SLOAD DUP2 MSTORE SWAP1 PUSH1 0x1 ADD SWAP1 PUSH1 0x20 ADD DUP1 DUP4 GT PUSH2 0x523 JUMPI DUP3 SWAP1 SUB PUSH1 0x1F AND DUP3 ADD SWAP2 JUMPDEST POP POP POP POP POP SWAP1 DUP1 PUSH1 0x4 ADD SLOAD SWAP1 POP DUP6 JUMP JUMPDEST PUSH1 0x5 PUSH1 0x20 MSTORE DUP1 PUSH0 MSTORE PUSH1 0x40 PUSH0 KECCAK256 PUSH0 SWAP2 POP SWAP1 POP DUP1 PUSH0 ADD DUP1 SLOAD PUSH2 0x56F SWAP1 PUSH2 0xBE5 JUMP JUMPDEST DUP1 PUSH1 0x1F ADD PUSH1 0x20 DUP1 SWAP2 DIV MUL PUSH1 0x20 ADD PUSH1 0x40 MLOAD SWAP1 DUP2 ADD PUSH1 0x40 MSTORE DUP1 SWAP3 SWAP2 SWAP1 DUP2 DUP2 MSTORE PUSH1 0x20 ADD DUP3 DUP1 SLOAD PUSH2 0x59B SWAP1 PUSH2 0xBE5 JUMP JUMPDEST DUP1 ISZERO PUSH2 0x5E6 JUMPI DUP1 PUSH1 0x1F LT PUSH2 0x5BD JUMPI PUSH2 0x100 DUP1 DUP4 SLOAD DIV MUL DUP4 MSTORE SWAP2 PUSH1 0x20 ADD SWAP2 PUSH2 0x5E6 JUMP JUMPDEST DUP3 ADD SWAP2 SWAP1 PUSH0 MSTORE PUSH1 0x20 PUSH0 KECCAK256 SWAP1 JUMPDEST DUP2 SLOAD DUP2 MSTORE SWAP1 PUSH1 0x1 ADD SWAP1 PUSH1 0x20 ADD DUP1 DUP4 GT PUSH2 0x5C9 JUMPI DUP3 SWAP1 SUB PUSH1 0x1F AND DUP3 ADD SWAP2 JUMPDEST POP POP POP POP POP SWAP1 DUP1 PUSH1 0x1 ADD SLOAD SWAP1 DUP1 PUSH1 0x2 ADD SLOAD SWAP1 DUP1 PUSH1 0x3 ADD DUP1 SLOAD PUSH2 0x607 SWAP1 PUSH2 0xBE5 JUMP JUMPDEST DUP1 PUSH1 0x1F ADD PUSH1 0x20 DUP1 SWAP2 DIV MUL PUSH1 0x20 ADD PUSH1 0x40 MLOAD SWAP1 DUP2 ADD PUSH1 0x40 MSTORE DUP1 SWAP3 SWAP2 SWAP1 DUP2 DUP2 MSTORE PUSH1 0x20 ADD DUP3 DUP1 SLOAD PUSH2 0x633 SWAP1 PUSH2 0xBE5 JUMP JUMPDEST DUP1 ISZERO PUSH2 0x67E JUMPI DUP1 PUSH1 0x1F LT PUSH2 0x655 JUMPI PUSH2 0x100 DUP1 DUP4 SLOAD DIV MUL DUP4 MSTORE SWAP2 PUSH1 0x20 ADD SWAP2 PUSH2 0x67E JUMP JUMPDEST DUP3 ADD SWAP2 SWAP1 PUSH0 MSTORE PUSH1 0x20 PUSH0 KECCAK256 SWAP1 JUMPDEST DUP2 SLOAD DUP2 MSTORE SWAP1 PUSH1 0x1 ADD SWAP1 PUSH1 0x20 ADD DUP1 DUP4 GT PUSH2 0x661 JUMPI DUP3 SWAP1 SUB PUSH1 0x1F AND DUP3 ADD SWAP2 JUMPDEST POP POP POP POP POP SWAP1 DUP1 PUSH1 0x4 ADD SLOAD SWAP1 POP DUP6 JUMP JUMPDEST PUSH0 PUSH1 0x7 PUSH0 DUP2 SLOAD DUP1 SWAP3 SWAP2 SWAP1 PUSH2 0x6A1 SWAP1 PUSH2 0xFA8 JUMP JUMPDEST SWAP2 SWAP1 POP SSTORE POP PUSH0 PUSH1 0x7 SLOAD PUSH5 0x174876E800 TIMESTAMP PUSH2 0x6BB SWAP2 SWAP1 PUSH2 0xFEF JUMP JUMPDEST PUSH2 0x6C5 SWAP2 SWAP1 PUSH2 0x1030 JUMP JUMPDEST SWAP1 POP DUP1 SWAP2 POP POP SWAP1 JUMP JUMPDEST PUSH1 0x40 MLOAD DUP1 PUSH1 0xA0 ADD PUSH1 0x40 MSTORE DUP1 PUSH1 0x60 DUP2 MSTORE PUSH1 0x20 ADD PUSH0 DUP2 MSTORE PUSH1 0x20 ADD PUSH0 DUP2 MSTORE PUSH1 0x20 ADD PUSH1 0x60 DUP2 MSTORE PUSH1 0x20 ADD PUSH0 DUP2 MSTORE POP SWAP1 JUMP JUMPDEST PUSH0 PUSH1 0x40 MLOAD SWAP1 POP SWAP1 JUMP JUMPDEST PUSH0 DUP1 REVERT JUMPDEST PUSH0 DUP1 REVERT JUMPDEST PUSH0 DUP1 REVERT JUMPDEST PUSH0 DUP1 REVERT JUMPDEST PUSH0 PUSH1 0x1F NOT PUSH1 0x1F DUP4 ADD AND SWAP1 POP SWAP2 SWAP1 POP JUMP JUMPDEST PUSH32 0x4E487B7100000000000000000000000000000000000000000000000000000000 PUSH0 MSTORE PUSH1 0x41 PUSH1 0x4 MSTORE PUSH1 0x24 PUSH0 REVERT JUMPDEST PUSH2 0x759 DUP3 PUSH2 0x713 JUMP JUMPDEST DUP2 ADD DUP2 DUP2 LT PUSH8 0xFFFFFFFFFFFFFFFF DUP3 GT OR ISZERO PUSH2 0x778 JUMPI PUSH2 0x777 PUSH2 0x723 JUMP JUMPDEST JUMPDEST DUP1 PUSH1 0x40 MSTORE POP POP POP JUMP JUMPDEST PUSH0 PUSH2 0x78A PUSH2 0x6FA JUMP JUMPDEST SWAP1 POP PUSH2 0x796 DUP3 DUP3 PUSH2 0x750 JUMP JUMPDEST SWAP2 SWAP1 POP JUMP JUMPDEST PUSH0 PUSH8 0xFFFFFFFFFFFFFFFF DUP3 GT ISZERO PUSH2 0x7B5 JUMPI PUSH2 0x7B4 PUSH2 0x723 JUMP JUMPDEST JUMPDEST PUSH2 0x7BE DUP3 PUSH2 0x713 JUMP JUMPDEST SWAP1 POP PUSH1 0x20 DUP2 ADD SWAP1 POP SWAP2 SWAP1 POP JUMP JUMPDEST DUP3 DUP2 DUP4 CALLDATACOPY PUSH0 DUP4 DUP4 ADD MSTORE POP POP POP JUMP JUMPDEST PUSH0 PUSH2 0x7EB PUSH2 0x7E6 DUP5 PUSH2 0x79B JUMP JUMPDEST PUSH2 0x781 JUMP JUMPDEST SWAP1 POP DUP3 DUP2 MSTORE PUSH1 0x20 DUP2 ADD DUP5 DUP5 DUP5 ADD GT ISZERO PUSH2 0x807 JUMPI PUSH2 0x806 PUSH2 0x70F JUMP JUMPDEST JUMPDEST PUSH2 0x812 DUP5 DUP3 DUP6 PUSH2 0x7CB JUMP JUMPDEST POP SWAP4 SWAP3 POP POP POP JUMP JUMPDEST PUSH0 DUP3 PUSH1 0x1F DUP4 ADD SLT PUSH2 0x82E JUMPI PUSH2 0x82D PUSH2 0x70B JUMP JUMPDEST JUMPDEST DUP2 CALLDATALOAD PUSH2 0x83E DUP5 DUP3 PUSH1 0x20 DUP7 ADD PUSH2 0x7D9 JUMP JUMPDEST SWAP2 POP POP SWAP3 SWAP2 POP POP JUMP JUMPDEST PUSH0 DUP2 SWAP1 POP SWAP2 SWAP1 POP JUMP JUMPDEST PUSH2 0x859 DUP2 PUSH2 0x847 JUMP JUMPDEST DUP2 EQ PUSH2 0x863 JUMPI PUSH0 DUP1 REVERT JUMPDEST POP JUMP JUMPDEST PUSH0 DUP2 CALLDATALOAD SWAP1 POP PUSH2 0x874 DUP2 PUSH2 0x850 JUMP JUMPDEST SWAP3 SWAP2 POP POP JUMP JUMPDEST PUSH0 DUP1 PUSH0 DUP1 PUSH1 0x80 DUP6 DUP8 SUB SLT ISZERO PUSH2 0x892 JUMPI PUSH2 0x891 PUSH2 0x703 JUMP JUMPDEST JUMPDEST PUSH0 DUP6 ADD CALLDATALOAD PUSH8 0xFFFFFFFFFFFFFFFF DUP2 GT ISZERO PUSH2 0x8AF JUMPI PUSH2 0x8AE PUSH2 0x707 JUMP JUMPDEST JUMPDEST PUSH2 0x8BB DUP8 DUP3 DUP9 ADD PUSH2 0x81A JUMP JUMPDEST SWAP5 POP POP PUSH1 0x20 PUSH2 0x8CC DUP8 DUP3 DUP9 ADD PUSH2 0x866 JUMP JUMPDEST SWAP4 POP POP PUSH1 0x40 PUSH2 0x8DD DUP8 DUP3 DUP9 ADD PUSH2 0x866 JUMP JUMPDEST SWAP3 POP POP PUSH1 0x60 DUP6 ADD CALLDATALOAD PUSH8 0xFFFFFFFFFFFFFFFF DUP2 GT ISZERO PUSH2 0x8FE JUMPI PUSH2 0x8FD PUSH2 0x707 JUMP JUMPDEST JUMPDEST PUSH2 0x90A DUP8 DUP3 DUP9 ADD PUSH2 0x81A JUMP JUMPDEST SWAP2 POP POP SWAP3 SWAP6 SWAP2 SWAP5 POP SWAP3 POP JUMP JUMPDEST PUSH0 DUP2 MLOAD SWAP1 POP SWAP2 SWAP1 POP JUMP JUMPDEST PUSH0 DUP3 DUP3 MSTORE PUSH1 0x20 DUP3 ADD SWAP1 POP SWAP3 SWAP2 POP POP JUMP JUMPDEST PUSH0 JUMPDEST DUP4 DUP2 LT ISZERO PUSH2 0x94D JUMPI DUP1 DUP3 ADD MLOAD DUP2 DUP5 ADD MSTORE PUSH1 0x20 DUP2 ADD SWAP1 POP PUSH2 0x932 JUMP JUMPDEST PUSH0 DUP5 DUP5 ADD MSTORE POP POP POP POP JUMP JUMPDEST PUSH0 PUSH2 0x962 DUP3 PUSH2 0x916 JUMP JUMPDEST PUSH2 0x96C DUP2 DUP6 PUSH2 0x920 JUMP JUMPDEST SWAP4 POP PUSH2 0x97C DUP2 DUP6 PUSH1 0x20 DUP7 ADD PUSH2 0x930 JUMP JUMPDEST PUSH2 0x985 DUP2 PUSH2 0x713 JUMP JUMPDEST DUP5 ADD SWAP2 POP POP SWAP3 SWAP2 POP POP JUMP JUMPDEST PUSH2 0x999 DUP2 PUSH2 0x847 JUMP JUMPDEST DUP3 MSTORE POP POP JUMP JUMPDEST PUSH0 PUSH1 0xA0 DUP4 ADD PUSH0 DUP4 ADD MLOAD DUP5 DUP3 SUB PUSH0 DUP7 ADD MSTORE PUSH2 0x9B9 DUP3 DUP3 PUSH2 0x958 JUMP JUMPDEST SWAP2 POP POP PUSH1 0x20 DUP4 ADD MLOAD PUSH2 0x9CE PUSH1 0x20 DUP7 ADD DUP3 PUSH2 0x990 JUMP JUMPDEST POP PUSH1 0x40 DUP4 ADD MLOAD PUSH2 0x9E1 PUSH1 0x40 DUP7 ADD DUP3 PUSH2 0x990 JUMP JUMPDEST POP PUSH1 0x60 DUP4 ADD MLOAD DUP5 DUP3 SUB PUSH1 0x60 DUP7 ADD MSTORE PUSH2 0x9F9 DUP3 DUP3 PUSH2 0x958 JUMP JUMPDEST SWAP2 POP POP PUSH1 0x80 DUP4 ADD MLOAD PUSH2 0xA0E PUSH1 0x80 DUP7 ADD DUP3 PUSH2 0x990 JUMP JUMPDEST POP DUP1 SWAP2 POP POP SWAP3 SWAP2 POP POP JUMP JUMPDEST PUSH0 PUSH1 0x20 DUP3 ADD SWAP1 POP DUP2 DUP2 SUB PUSH0 DUP4 ADD MSTORE PUSH2 0xA31 DUP2 DUP5 PUSH2 0x99F JUMP JUMPDEST SWAP1 POP SWAP3 SWAP2 POP POP JUMP JUMPDEST PUSH0 PUSH1 0x20 DUP3 DUP5 SUB SLT ISZERO PUSH2 0xA4E JUMPI PUSH2 0xA4D PUSH2 0x703 JUMP JUMPDEST JUMPDEST PUSH0 PUSH2 0xA5B DUP5 DUP3 DUP6 ADD PUSH2 0x866 JUMP JUMPDEST SWAP2 POP POP SWAP3 SWAP2 POP POP JUMP JUMPDEST PUSH0 DUP3 DUP3 MSTORE PUSH1 0x20 DUP3 ADD SWAP1 POP SWAP3 SWAP2 POP POP JUMP JUMPDEST PUSH0 PUSH2 0xA7E DUP3 PUSH2 0x916 JUMP JUMPDEST PUSH2 0xA88 DUP2 DUP6 PUSH2 0xA64 JUMP JUMPDEST SWAP4 POP PUSH2 0xA98 DUP2 DUP6 PUSH1 0x20 DUP7 ADD PUSH2 0x930 JUMP JUMPDEST PUSH2 0xAA1 DUP2 PUSH2 0x713 JUMP JUMPDEST DUP5 ADD SWAP2 POP POP SWAP3 SWAP2 POP POP JUMP JUMPDEST PUSH2 0xAB5 DUP2 PUSH2 0x847 JUMP JUMPDEST DUP3 MSTORE POP POP JUMP JUMPDEST PUSH0 PUSH1 0xA0 DUP3 ADD SWAP1 POP DUP2 DUP2 SUB PUSH0 DUP4 ADD MSTORE PUSH2 0xAD3 DUP2 DUP9 PUSH2 0xA74 JUMP JUMPDEST SWAP1 POP PUSH2 0xAE2 PUSH1 0x20 DUP4 ADD DUP8 PUSH2 0xAAC JUMP JUMPDEST PUSH2 0xAEF PUSH1 0x40 DUP4 ADD DUP7 PUSH2 0xAAC JUMP JUMPDEST DUP2 DUP2 SUB PUSH1 0x60 DUP4 ADD MSTORE PUSH2 0xB01 DUP2 DUP6 PUSH2 0xA74 JUMP JUMPDEST SWAP1 POP PUSH2 0xB10 PUSH1 0x80 DUP4 ADD DUP5 PUSH2 0xAAC JUMP JUMPDEST SWAP7 SWAP6 POP POP POP POP POP POP JUMP JUMPDEST PUSH0 PUSH20 0xFFFFFFFFFFFFFFFFFFFFFFFFFFFFFFFFFFFFFFFF DUP3 AND SWAP1 POP SWAP2 SWAP1 POP JUMP JUMPDEST PUSH0 PUSH2 0xB43 DUP3 PUSH2 0xB1A JUMP JUMPDEST SWAP1 POP SWAP2 SWAP1 POP JUMP JUMPDEST PUSH2 0xB53 DUP2 PUSH2 0xB39 JUMP JUMPDEST DUP2 EQ PUSH2 0xB5D JUMPI PUSH0 DUP1 REVERT JUMPDEST POP JUMP JUMPDEST PUSH0 DUP2 CALLDATALOAD SWAP1 POP PUSH2 0xB6E DUP2 PUSH2 0xB4A JUMP JUMPDEST SWAP3 SWAP2 POP POP JUMP JUMPDEST PUSH0 PUSH1 0x20 DUP3 DUP5 SUB SLT ISZERO PUSH2 0xB89 JUMPI PUSH2 0xB88 PUSH2 0x703 JUMP JUMPDEST JUMPDEST PUSH0 PUSH2 0xB96 DUP5 DUP3 DUP6 ADD PUSH2 0xB60 JUMP JUMPDEST SWAP2 POP POP SWAP3 SWAP2 POP POP JUMP JUMPDEST PUSH0 PUSH1 0x20 DUP3 ADD SWAP1 POP PUSH2 0xBB2 PUSH0 DUP4 ADD DUP5 PUSH2 0xAAC JUMP JUMPDEST SWAP3 SWAP2 POP POP JUMP JUMPDEST PUSH32 0x4E487B7100000000000000000000000000000000000000000000000000000000 PUSH0 MSTORE PUSH1 0x22 PUSH1 0x4 MSTORE PUSH1 0x24 PUSH0 REVERT JUMPDEST PUSH0 PUSH1 0x2 DUP3 DIV SWAP1 POP PUSH1 0x1 DUP3 AND DUP1 PUSH2 0xBFC JUMPI PUSH1 0x7F DUP3 AND SWAP2 POP JUMPDEST PUSH1 0x20 DUP3 LT DUP2 SUB PUSH2 0xC0F JUMPI PUSH2 0xC0E PUSH2 0xBB8 JUMP JUMPDEST JUMPDEST POP SWAP2 SWAP1 POP JUMP JUMPDEST PUSH0 DUP2 SWAP1 POP DUP2 PUSH0 MSTORE PUSH1 0x20 PUSH0 KECCAK256 SWAP1 POP SWAP2 SWAP1 POP JUMP JUMPDEST PUSH0 PUSH1 0x20 PUSH1 0x1F DUP4 ADD DIV SWAP1 POP SWAP2 SWAP1 POP JUMP JUMPDEST PUSH0 DUP3 DUP3 SHL SWAP1 POP SWAP3 SWAP2 POP POP JUMP JUMPDEST PUSH0 PUSH1 0x8 DUP4 MUL PUSH2 0xC71 PUSH32 0xFFFFFFFFFFFFFFFFFFFFFFFFFFFFFFFFFFFFFFFFFFFFFFFFFFFFFFFFFFFFFFFF DUP3 PUSH2 0xC36 JUMP JUMPDEST PUSH2 0xC7B DUP7 DUP4 PUSH2 0xC36 JUMP JUMPDEST SWAP6 POP DUP1 NOT DUP5 AND SWAP4 POP DUP1 DUP7 AND DUP5 OR SWAP3 POP POP POP SWAP4 SWAP3 POP POP POP JUMP JUMPDEST PUSH0 DUP2 SWAP1 POP SWAP2 SWAP1 POP JUMP JUMPDEST PUSH0 PUSH2 0xCB6 PUSH2 0xCB1 PUSH2 0xCAC DUP5 PUSH2 0x847 JUMP JUMPDEST PUSH2 0xC93 JUMP JUMPDEST PUSH2 0x847 JUMP JUMPDEST SWAP1 POP SWAP2 SWAP1 POP JUMP JUMPDEST PUSH0 DUP2 SWAP1 POP SWAP2 SWAP1 POP JUMP JUMPDEST PUSH2 0xCCF DUP4 PUSH2 0xC9C JUMP JUMPDEST PUSH2 0xCE3 PUSH2 0xCDB DUP3 PUSH2 0xCBD JUMP JUMPDEST DUP5 DUP5 SLOAD PUSH2 0xC42 JUMP JUMPDEST DUP3 SSTORE POP POP POP POP JUMP JUMPDEST PUSH0 SWAP1 JUMP JUMPDEST PUSH2 0xCF7 PUSH2 0xCEB JUMP JUMPDEST PUSH2 0xD02 DUP2 DUP5 DUP5 PUSH2 0xCC6 JUMP JUMPDEST POP POP POP JUMP JUMPDEST JUMPDEST DUP2 DUP2 LT ISZERO PUSH2 0xD25 JUMPI PUSH2 0xD1A PUSH0 DUP3 PUSH2 0xCEF JUMP JUMPDEST PUSH1 0x1 DUP2 ADD SWAP1 POP PUSH2 0xD08 JUMP JUMPDEST POP POP JUMP JUMPDEST PUSH1 0x1F DUP3 GT ISZERO PUSH2 0xD6A JUMPI PUSH2 0xD3B DUP2 PUSH2 0xC15 JUMP JUMPDEST PUSH2 0xD44 DUP5 PUSH2 0xC27 JUMP JUMPDEST DUP2 ADD PUSH1 0x20 DUP6 LT ISZERO PUSH2 0xD53 JUMPI DUP2 SWAP1 POP JUMPDEST PUSH2 0xD67 PUSH2 0xD5F DUP6 PUSH2 0xC27 JUMP JUMPDEST DUP4 ADD DUP3 PUSH2 0xD07 JUMP JUMPDEST POP POP JUMPDEST POP POP POP JUMP JUMPDEST PUSH0 DUP3 DUP3 SHR SWAP1 POP SWAP3 SWAP2 POP POP JUMP JUMPDEST PUSH0 PUSH2 0xD8A PUSH0 NOT DUP5 PUSH1 0x8 MUL PUSH2 0xD6F JUMP JUMPDEST NOT DUP1 DUP4 AND SWAP2 POP POP SWAP3 SWAP2 POP POP JUMP JUMPDEST PUSH0 PUSH2 0xDA2 DUP4 DUP4 PUSH2 0xD7B JUMP JUMPDEST SWAP2 POP DUP3 PUSH1 0x2 MUL DUP3 OR SWAP1 POP SWAP3 SWAP2 POP POP JUMP JUMPDEST PUSH2 0xDBB DUP3 PUSH2 0x916 JUMP JUMPDEST PUSH8 0xFFFFFFFFFFFFFFFF DUP2 GT ISZERO PUSH2 0xDD4 JUMPI PUSH2 0xDD3 PUSH2 0x723 JUMP JUMPDEST JUMPDEST PUSH2 0xDDE DUP3 SLOAD PUSH2 0xBE5 JUMP JUMPDEST PUSH2 0xDE9 DUP3 DUP3 DUP6 PUSH2 0xD29 JUMP JUMPDEST PUSH0 PUSH1 0x20 SWAP1 POP PUSH1 0x1F DUP4 GT PUSH1 0x1 DUP2 EQ PUSH2 0xE1A JUMPI PUSH0 DUP5 ISZERO PUSH2 0xE08 JUMPI DUP3 DUP8 ADD MLOAD SWAP1 POP JUMPDEST PUSH2 0xE12 DUP6 DUP3 PUSH2 0xD97 JUMP JUMPDEST DUP7 SSTORE POP PUSH2 0xE79 JUMP JUMPDEST PUSH1 0x1F NOT DUP5 AND PUSH2 0xE28 DUP7 PUSH2 0xC15 JUMP JUMPDEST PUSH0 JUMPDEST DUP3 DUP2 LT ISZERO PUSH2 0xE4F JUMPI DUP5 DUP10 ADD MLOAD DUP3 SSTORE PUSH1 0x1 DUP3 ADD SWAP2 POP PUSH1 0x20 DUP6 ADD SWAP5 POP PUSH1 0x20 DUP2 ADD SWAP1 POP PUSH2 0xE2A JUMP JUMPDEST DUP7 DUP4 LT ISZERO PUSH2 0xE6C JUMPI DUP5 DUP10 ADD MLOAD PUSH2 0xE68 PUSH1 0x1F DUP10 AND DUP3 PUSH2 0xD7B JUMP JUMPDEST DUP4 SSTORE POP JUMPDEST PUSH1 0x1 PUSH1 0x2 DUP9 MUL ADD DUP9 SSTORE POP POP POP JUMPDEST POP POP POP POP POP POP JUMP JUMPDEST PUSH0 DUP2 SLOAD SWAP1 POP PUSH2 0xE8F DUP2 PUSH2 0xBE5 JUMP JUMPDEST SWAP1 POP SWAP2 SWAP1 POP JUMP JUMPDEST DUP2 DUP2 SUB PUSH2 0xEA4 JUMPI POP POP PUSH2 0xF79 JUMP JUMPDEST PUSH2 0xEAD DUP3 PUSH2 0xE81 JUMP JUMPDEST PUSH8 0xFFFFFFFFFFFFFFFF DUP2 GT ISZERO PUSH2 0xEC6 JUMPI PUSH2 0xEC5 PUSH2 0x723 JUMP JUMPDEST JUMPDEST PUSH2 0xED0 DUP3 SLOAD PUSH2 0xBE5 JUMP JUMPDEST PUSH2 0xEDB DUP3 DUP3 DUP6 PUSH2 0xD29 JUMP JUMPDEST PUSH0 PUSH1 0x1F DUP4 GT PUSH1 0x1 DUP2 EQ PUSH2 0xF08 JUMPI PUSH0 DUP5 ISZERO PUSH2 0xEF6 JUMPI DUP3 DUP8 ADD SLOAD SWAP1 POP JUMPDEST PUSH2 0xF00 DUP6 DUP3 PUSH2 0xD97 JUMP JUMPDEST DUP7 SSTORE POP PUSH2 0xF72 JUMP JUMPDEST PUSH1 0x1F NOT DUP5 AND PUSH2 0xF16 DUP8 PUSH2 0xC15 JUMP JUMPDEST SWAP7 POP PUSH2 0xF21 DUP7 PUSH2 0xC15 JUMP JUMPDEST PUSH0 JUMPDEST DUP3 DUP2 LT ISZERO PUSH2 0xF48 JUMPI DUP5 DUP10 ADD SLOAD DUP3 SSTORE PUSH1 0x1 DUP3 ADD SWAP2 POP PUSH1 0x1 DUP6 ADD SWAP5 POP PUSH1 0x20 DUP2 ADD SWAP1 POP PUSH2 0xF23 JUMP JUMPDEST DUP7 DUP4 LT ISZERO PUSH2 0xF65 JUMPI DUP5 DUP10 ADD SLOAD PUSH2 0xF61 PUSH1 0x1F DUP10 AND DUP3 PUSH2 0xD7B JUMP JUMPDEST DUP4 SSTORE POP JUMPDEST PUSH1 0x1 PUSH1 0x2 DUP9 MUL ADD DUP9 SSTORE POP POP POP JUMPDEST POP POP POP POP POP POP JUMPDEST JUMP JUMPDEST PUSH32 0x4E487B7100000000000000000000000000000000000000000000000000000000 PUSH0 MSTORE PUSH1 0x11 PUSH1 0x4 MSTORE PUSH1 0x24 PUSH0 REVERT JUMPDEST PUSH0 PUSH2 0xFB2 DUP3 PUSH2 0x847 JUMP JUMPDEST SWAP2 POP PUSH32 0xFFFFFFFFFFFFFFFFFFFFFFFFFFFFFFFFFFFFFFFFFFFFFFFFFFFFFFFFFFFFFFFF DUP3 SUB PUSH2 0xFE4 JUMPI PUSH2 0xFE3 PUSH2 0xF7B JUMP JUMPDEST JUMPDEST PUSH1 0x1 DUP3 ADD SWAP1 POP SWAP2 SWAP1 POP JUMP JUMPDEST PUSH0 PUSH2 0xFF9 DUP3 PUSH2 0x847 JUMP JUMPDEST SWAP2 POP PUSH2 0x1004 DUP4 PUSH2 0x847 JUMP JUMPDEST SWAP3 POP DUP3 DUP3 MUL PUSH2 0x1012 DUP2 PUSH2 0x847 JUMP JUMPDEST SWAP2 POP DUP3 DUP3 DIV DUP5 EQ DUP4 ISZERO OR PUSH2 0x1029 JUMPI PUSH2 0x1028 PUSH2 0xF7B JUMP JUMPDEST JUMPDEST POP SWAP3 SWAP2 POP POP JUMP JUMPDEST PUSH0 PUSH2 0x103A DUP3 PUSH2 0x847 JUMP JUMPDEST SWAP2 POP PUSH2 0x1045 DUP4 PUSH2 0x847 JUMP JUMPDEST SWAP3 POP DUP3 DUP3 ADD SWAP1 POP DUP1 DUP3 GT ISZERO PUSH2 0x105D JUMPI PUSH2 0x105C PUSH2 0xF7B JUMP JUMPDEST JUMPDEST SWAP3 SWAP2 POP POP JUMP INVALID LOG2 PUSH5 0x6970667358 0x22 SLT KECCAK256 INVALID 0xAC 0xB1 LOG0 0xD3 SWAP8 EQ DUP12 PUSH29 0x7FC2F91D487E983E1C18F0A1DBE02C8E796EB333E8FA9464736F6C6343 STOP ADDMOD EQ STOP CALLER "
				},
				"gasEstimates": {
					"creation": {
						"codeDepositCost": "849800",
						"executionCost": "5886",
						"totalCost": "855686"
					},
					"external": {
						"generateUniqueNumber()": "infinite",
						"personMappingOnAddress(address)": "infinite",
						"personMappingOnUinqueID(uint256)": "infinite",
						"returnDetails()": "infinite",
						"setDetailsOfPerson(string,uint256,uint256,string)": "infinite"
					}
				},
				"methodIdentifiers": {
					"generateUniqueNumber()": "d819c635",
					"personMappingOnAddress(address)": "b155f116",
					"personMappingOnUinqueID(uint256)": "88dd9323",
					"returnDetails()": "8739e663",
					"setDetailsOfPerson(string,uint256,uint256,string)": "6fc22123"
				}
			},
			"storageLayout": {
				"storage": [
					{
						"astId": 15,
						"contract": "structpractice.sol:structPractice",
						"label": "detailsOfPerson",
						"offset": 0,
						"slot": "0",
						"type": "t_struct(personDetails)12_storage"
					},
					{
						"astId": 20,
						"contract": "structpractice.sol:structPractice",
						"label": "personMappingOnAddress",
						"offset": 0,
						"slot": "5",
						"type": "t_mapping(t_address,t_struct(personDetails)12_storage)"
					},
					{
						"astId": 25,
						"contract": "structpractice.sol:structPractice",
						"label": "personMappingOnUinqueID",
						"offset": 0,
						"slot": "6",
						"type": "t_mapping(t_uint256,t_struct(personDetails)12_storage)"
					},
					{
						"astId": 28,
						"contract": "structpractice.sol:structPractice",
						"label": "counter",
						"offset": 0,
						"slot": "7",
						"type": "t_uint256"
					}
				],
				"types": {
					"t_address": {
						"encoding": "inplace",
						"label": "address",
						"numberOfBytes": "20"
					},
					"t_mapping(t_address,t_struct(personDetails)12_storage)": {
						"encoding": "mapping",
						"key": "t_address",
						"label": "mapping(address => struct structPractice.personDetails)",
						"numberOfBytes": "32",
						"value": "t_struct(personDetails)12_storage"
					},
					"t_mapping(t_uint256,t_struct(personDetails)12_storage)": {
						"encoding": "mapping",
						"key": "t_uint256",
						"label": "mapping(uint256 => struct structPractice.personDetails)",
						"numberOfBytes": "32",
						"value": "t_struct(personDetails)12_storage"
					},
					"t_string_storage": {
						"encoding": "bytes",
						"label": "string",
						"numberOfBytes": "32"
					},
					"t_struct(personDetails)12_storage": {
						"encoding": "inplace",
						"label": "struct structPractice.personDetails",
						"members": [
							{
								"astId": 3,
								"contract": "structpractice.sol:structPractice",
								"label": "name",
								"offset": 0,
								"slot": "0",
								"type": "t_string_storage"
							},
							{
								"astId": 5,
								"contract": "structpractice.sol:structPractice",
								"label": "age",
								"offset": 0,
								"slot": "1",
								"type": "t_uint256"
							},
							{
								"astId": 7,
								"contract": "structpractice.sol:structPractice",
								"label": "phoneNo",
								"offset": 0,
								"slot": "2",
								"type": "t_uint256"
							},
							{
								"astId": 9,
								"contract": "structpractice.sol:structPractice",
								"label": "addressDetails",
								"offset": 0,
								"slot": "3",
								"type": "t_string_storage"
							},
							{
								"astId": 11,
								"contract": "structpractice.sol:structPractice",
								"label": "uniqueId",
								"offset": 0,
								"slot": "4",
								"type": "t_uint256"
							}
						],
						"numberOfBytes": "160"
					},
					"t_uint256": {
						"encoding": "inplace",
						"label": "uint256",
						"numberOfBytes": "32"
					}
				}
			},
			"userdoc": {
				"kind": "user",
				"methods": {},
				"version": 1
			}
		}
	}
}