{
	"kata.sol": {
		"Kata": {
			"abi": [
				{
					"inputs": [
						{
							"internalType": "int256",
							"name": "d",
							"type": "int256"
						},
						{
							"internalType": "int256",
							"name": "b",
							"type": "int256"
						}
					],
					"name": "maxMultiple",
					"outputs": [
						{
							"internalType": "int256",
							"name": "",
							"type": "int256"
						}
					],
					"stateMutability": "pure",
					"type": "function"
				}
			],
			"devdoc": {
				"kind": "dev",
				"methods": {},
				"version": 1
			},
			"evm": {
				"assembly": "    /* \"kata.sol\":26:367  contract Kata {... */\n  mstore(0x40, 0x80)\n  callvalue\n  dup1\n  iszero\n  tag_1\n  jumpi\n  0x00\n  dup1\n  revert\ntag_1:\n  pop\n  dataSize(sub_0)\n  dup1\n  dataOffset(sub_0)\n  0x00\n  codecopy\n  0x00\n  return\nstop\n\nsub_0: assembly {\n        /* \"kata.sol\":26:367  contract Kata {... */\n      mstore(0x40, 0x80)\n      callvalue\n      dup1\n      iszero\n      tag_1\n      jumpi\n      0x00\n      dup1\n      revert\n    tag_1:\n      pop\n      jumpi(tag_2, lt(calldatasize, 0x04))\n      shr(0xe0, calldataload(0x00))\n      dup1\n      0x9ad5be3c\n      eq\n      tag_3\n      jumpi\n    tag_2:\n      0x00\n      dup1\n      revert\n        /* \"kata.sol\":44:365  function maxMultiple(int d, int b) public pure returns (int) {... */\n    tag_3:\n      tag_4\n      0x04\n      dup1\n      calldatasize\n      sub\n      dup2\n      add\n      swap1\n      tag_5\n      swap2\n      swap1\n      tag_6\n      jump\t// in\n    tag_5:\n      tag_7\n      jump\t// in\n    tag_4:\n      mload(0x40)\n      tag_8\n      swap2\n      swap1\n      tag_9\n      jump\t// in\n    tag_8:\n      mload(0x40)\n      dup1\n      swap2\n      sub\n      swap1\n      return\n    tag_7:\n        /* \"kata.sol\":100:103  int */\n      0x00\n        /* \"kata.sol\":111:118  int num */\n      dup1\n        /* \"kata.sol\":121:122  1 */\n      0x01\n        /* \"kata.sol\":111:122  int num = 1 */\n      swap1\n      pop\n        /* \"kata.sol\":128:137  int temp1 */\n      0x00\n        /* \"kata.sol\":140:141  1 */\n      0x01\n        /* \"kata.sol\":128:141  int temp1 = 1 */\n      swap1\n      pop\n        /* \"kata.sol\":147:156  int temp2 */\n      0x00\n        /* \"kata.sol\":159:160  1 */\n      0x01\n        /* \"kata.sol\":147:160  int temp2 = 1 */\n      swap1\n      pop\n        /* \"kata.sol\":171:176  int i */\n      0x00\n        /* \"kata.sol\":179:180  1 */\n      0x01\n        /* \"kata.sol\":171:180  int i = 1 */\n      swap1\n      pop\n        /* \"kata.sol\":166:360  for (int i = 1; i<=num; i++)... */\n    tag_11:\n        /* \"kata.sol\":185:188  num */\n      dup4\n        /* \"kata.sol\":182:183  i */\n      dup2\n        /* \"kata.sol\":182:188  i<=num */\n      sgt\n        /* \"kata.sol\":166:360  for (int i = 1; i<=num; i++)... */\n      tag_12\n      jumpi\n        /* \"kata.sol\":219:220  b */\n      dup6\n        /* \"kata.sol\":210:215  temp2 */\n      dup3\n        /* \"kata.sol\":210:220  temp2 <= b */\n      sgt\n        /* \"kata.sol\":207:354  if(temp2 <= b) {... */\n      tag_14\n      jumpi\n        /* \"kata.sol\":254:255  d */\n      dup7\n        /* \"kata.sol\":248:251  num */\n      dup5\n        /* \"kata.sol\":247:255  (num) *d */\n      tag_15\n      swap2\n      swap1\n      tag_16\n      jump\t// in\n    tag_15:\n        /* \"kata.sol\":239:255  temp1 = (num) *d */\n      swap3\n      pop\n        /* \"kata.sol\":280:281  d */\n      dup7\n        /* \"kata.sol\":276:277  1 */\n      0x01\n        /* \"kata.sol\":272:275  num */\n      dup6\n        /* \"kata.sol\":272:277  num+1 */\n      tag_17\n      swap2\n      swap1\n      tag_18\n      jump\t// in\n    tag_17:\n        /* \"kata.sol\":271:281  (num+1) *d */\n      tag_19\n      swap2\n      swap1\n      tag_16\n      jump\t// in\n    tag_19:\n        /* \"kata.sol\":263:281  temp2 = (num+1) *d */\n      swap2\n      pop\n        /* \"kata.sol\":297:302  num++ */\n      dup4\n      dup1\n      tag_20\n      swap1\n      tag_21\n      jump\t// in\n    tag_20:\n      swap5\n      pop\n      pop\n        /* \"kata.sol\":207:354  if(temp2 <= b) {... */\n      jump(tag_22)\n    tag_14:\n        /* \"kata.sol\":340:345  temp1 */\n      dup3\n        /* \"kata.sol\":333:345  return temp1 */\n      swap5\n      pop\n      pop\n      pop\n      pop\n      pop\n      jump(tag_10)\n        /* \"kata.sol\":207:354  if(temp2 <= b) {... */\n    tag_22:\n        /* \"kata.sol\":190:193  i++ */\n      dup1\n      dup1\n      tag_23\n      swap1\n      tag_21\n      jump\t// in\n    tag_23:\n      swap2\n      pop\n      pop\n        /* \"kata.sol\":166:360  for (int i = 1; i<=num; i++)... */\n      jump(tag_11)\n    tag_12:\n      pop\n        /* \"kata.sol\":105:365  {... */\n      pop\n      pop\n      pop\n        /* \"kata.sol\":44:365  function maxMultiple(int d, int b) public pure returns (int) {... */\n    tag_10:\n      swap3\n      swap2\n      pop\n      pop\n      jump\t// out\n        /* \"#utility.yul\":88:205   */\n    tag_25:\n        /* \"#utility.yul\":197:198   */\n      0x00\n        /* \"#utility.yul\":194:195   */\n      dup1\n        /* \"#utility.yul\":187:199   */\n      revert\n        /* \"#utility.yul\":334:410   */\n    tag_27:\n        /* \"#utility.yul\":370:377   */\n      0x00\n        /* \"#utility.yul\":399:404   */\n      dup2\n        /* \"#utility.yul\":388:404   */\n      swap1\n      pop\n        /* \"#utility.yul\":334:410   */\n      swap2\n      swap1\n      pop\n      jump\t// out\n        /* \"#utility.yul\":416:536   */\n    tag_28:\n        /* \"#utility.yul\":488:511   */\n      tag_38\n        /* \"#utility.yul\":505:510   */\n      dup2\n        /* \"#utility.yul\":488:511   */\n      tag_27\n      jump\t// in\n    tag_38:\n        /* \"#utility.yul\":481:486   */\n      dup2\n        /* \"#utility.yul\":478:512   */\n      eq\n        /* \"#utility.yul\":468:530   */\n      tag_39\n      jumpi\n        /* \"#utility.yul\":526:527   */\n      0x00\n        /* \"#utility.yul\":523:524   */\n      dup1\n        /* \"#utility.yul\":516:528   */\n      revert\n        /* \"#utility.yul\":468:530   */\n    tag_39:\n        /* \"#utility.yul\":416:536   */\n      pop\n      jump\t// out\n        /* \"#utility.yul\":542:679   */\n    tag_29:\n        /* \"#utility.yul\":587:592   */\n      0x00\n        /* \"#utility.yul\":625:631   */\n      dup2\n        /* \"#utility.yul\":612:632   */\n      calldataload\n        /* \"#utility.yul\":603:632   */\n      swap1\n      pop\n        /* \"#utility.yul\":641:673   */\n      tag_41\n        /* \"#utility.yul\":667:672   */\n      dup2\n        /* \"#utility.yul\":641:673   */\n      tag_28\n      jump\t// in\n    tag_41:\n        /* \"#utility.yul\":542:679   */\n      swap3\n      swap2\n      pop\n      pop\n      jump\t// out\n        /* \"#utility.yul\":685:1155   */\n    tag_6:\n        /* \"#utility.yul\":751:757   */\n      0x00\n        /* \"#utility.yul\":759:765   */\n      dup1\n        /* \"#utility.yul\":808:810   */\n      0x40\n        /* \"#utility.yul\":796:805   */\n      dup4\n        /* \"#utility.yul\":787:794   */\n      dup6\n        /* \"#utility.yul\":783:806   */\n      sub\n        /* \"#utility.yul\":779:811   */\n      slt\n        /* \"#utility.yul\":776:895   */\n      iszero\n      tag_43\n      jumpi\n        /* \"#utility.yul\":814:893   */\n      tag_44\n      tag_25\n      jump\t// in\n    tag_44:\n        /* \"#utility.yul\":776:895   */\n    tag_43:\n        /* \"#utility.yul\":934:935   */\n      0x00\n        /* \"#utility.yul\":959:1011   */\n      tag_45\n        /* \"#utility.yul\":1003:1010   */\n      dup6\n        /* \"#utility.yul\":994:1000   */\n      dup3\n        /* \"#utility.yul\":983:992   */\n      dup7\n        /* \"#utility.yul\":979:1001   */\n      add\n        /* \"#utility.yul\":959:1011   */\n      tag_29\n      jump\t// in\n    tag_45:\n        /* \"#utility.yul\":949:1011   */\n      swap3\n      pop\n        /* \"#utility.yul\":905:1021   */\n      pop\n        /* \"#utility.yul\":1060:1062   */\n      0x20\n        /* \"#utility.yul\":1086:1138   */\n      tag_46\n        /* \"#utility.yul\":1130:1137   */\n      dup6\n        /* \"#utility.yul\":1121:1127   */\n      dup3\n        /* \"#utility.yul\":1110:1119   */\n      dup7\n        /* \"#utility.yul\":1106:1128   */\n      add\n        /* \"#utility.yul\":1086:1138   */\n      tag_29\n      jump\t// in\n    tag_46:\n        /* \"#utility.yul\":1076:1138   */\n      swap2\n      pop\n        /* \"#utility.yul\":1031:1148   */\n      pop\n        /* \"#utility.yul\":685:1155   */\n      swap3\n      pop\n      swap3\n      swap1\n      pop\n      jump\t// out\n        /* \"#utility.yul\":1161:1276   */\n    tag_30:\n        /* \"#utility.yul\":1246:1269   */\n      tag_48\n        /* \"#utility.yul\":1263:1268   */\n      dup2\n        /* \"#utility.yul\":1246:1269   */\n      tag_27\n      jump\t// in\n    tag_48:\n        /* \"#utility.yul\":1241:1244   */\n      dup3\n        /* \"#utility.yul\":1234:1270   */\n      mstore\n        /* \"#utility.yul\":1161:1276   */\n      pop\n      pop\n      jump\t// out\n        /* \"#utility.yul\":1282:1500   */\n    tag_9:\n        /* \"#utility.yul\":1373:1377   */\n      0x00\n        /* \"#utility.yul\":1411:1413   */\n      0x20\n        /* \"#utility.yul\":1400:1409   */\n      dup3\n        /* \"#utility.yul\":1396:1414   */\n      add\n        /* \"#utility.yul\":1388:1414   */\n      swap1\n      pop\n        /* \"#utility.yul\":1424:1493   */\n      tag_50\n        /* \"#utility.yul\":1490:1491   */\n      0x00\n        /* \"#utility.yul\":1479:1488   */\n      dup4\n        /* \"#utility.yul\":1475:1492   */\n      add\n        /* \"#utility.yul\":1466:1472   */\n      dup5\n        /* \"#utility.yul\":1424:1493   */\n      tag_30\n      jump\t// in\n    tag_50:\n        /* \"#utility.yul\":1282:1500   */\n      swap3\n      swap2\n      pop\n      pop\n      jump\t// out\n        /* \"#utility.yul\":1506:1686   */\n    tag_31:\n        /* \"#utility.yul\":1554:1631   */\n      0x4e487b7100000000000000000000000000000000000000000000000000000000\n        /* \"#utility.yul\":1551:1552   */\n      0x00\n        /* \"#utility.yul\":1544:1632   */\n      mstore\n        /* \"#utility.yul\":1651:1655   */\n      0x11\n        /* \"#utility.yul\":1648:1649   */\n      0x04\n        /* \"#utility.yul\":1641:1656   */\n      mstore\n        /* \"#utility.yul\":1675:1679   */\n      0x24\n        /* \"#utility.yul\":1672:1673   */\n      0x00\n        /* \"#utility.yul\":1665:1680   */\n      revert\n        /* \"#utility.yul\":1692:2248   */\n    tag_16:\n        /* \"#utility.yul\":1731:1738   */\n      0x00\n        /* \"#utility.yul\":1754:1773   */\n      tag_53\n        /* \"#utility.yul\":1771:1772   */\n      dup3\n        /* \"#utility.yul\":1754:1773   */\n      tag_27\n      jump\t// in\n    tag_53:\n        /* \"#utility.yul\":1749:1773   */\n      swap2\n      pop\n        /* \"#utility.yul\":1787:1806   */\n      tag_54\n        /* \"#utility.yul\":1804:1805   */\n      dup4\n        /* \"#utility.yul\":1787:1806   */\n      tag_27\n      jump\t// in\n    tag_54:\n        /* \"#utility.yul\":1782:1806   */\n      swap3\n      pop\n        /* \"#utility.yul\":1841:1842   */\n      dup3\n        /* \"#utility.yul\":1838:1839   */\n      dup3\n        /* \"#utility.yul\":1834:1843   */\n      mul\n        /* \"#utility.yul\":1863:1892   */\n      tag_55\n        /* \"#utility.yul\":1880:1891   */\n      dup2\n        /* \"#utility.yul\":1863:1892   */\n      tag_27\n      jump\t// in\n    tag_55:\n        /* \"#utility.yul\":1852:1892   */\n      swap2\n      pop\n        /* \"#utility.yul\":1950:2016   */\n      0x8000000000000000000000000000000000000000000000000000000000000000\n        /* \"#utility.yul\":1947:1948   */\n      dup5\n        /* \"#utility.yul\":1944:2017   */\n      eq\n        /* \"#utility.yul\":1940:1941   */\n      0x00\n        /* \"#utility.yul\":1937:1938   */\n      dup5\n        /* \"#utility.yul\":1933:1942   */\n      slt\n        /* \"#utility.yul\":1929:2018   */\n      and\n        /* \"#utility.yul\":1926:2041   */\n      iszero\n      tag_56\n      jumpi\n        /* \"#utility.yul\":2021:2039   */\n      tag_57\n      tag_31\n      jump\t// in\n    tag_57:\n        /* \"#utility.yul\":1926:2041   */\n    tag_56:\n        /* \"#utility.yul\":2191:2192   */\n      dup3\n        /* \"#utility.yul\":2182:2189   */\n      dup3\n        /* \"#utility.yul\":2177:2193   */\n      sdiv\n        /* \"#utility.yul\":2174:2175   */\n      dup5\n        /* \"#utility.yul\":2171:2194   */\n      eq\n        /* \"#utility.yul\":2151:2152   */\n      dup4\n        /* \"#utility.yul\":2144:2153   */\n      iszero\n        /* \"#utility.yul\":2124:2208   */\n      or\n        /* \"#utility.yul\":2101:2241   */\n      tag_58\n      jumpi\n        /* \"#utility.yul\":2221:2239   */\n      tag_59\n      tag_31\n      jump\t// in\n    tag_59:\n        /* \"#utility.yul\":2101:2241   */\n    tag_58:\n        /* \"#utility.yul\":1739:2248   */\n      pop\n        /* \"#utility.yul\":1692:2248   */\n      swap3\n      swap2\n      pop\n      pop\n      jump\t// out\n        /* \"#utility.yul\":2254:2629   */\n    tag_18:\n        /* \"#utility.yul\":2293:2296   */\n      0x00\n        /* \"#utility.yul\":2312:2331   */\n      tag_61\n        /* \"#utility.yul\":2329:2330   */\n      dup3\n        /* \"#utility.yul\":2312:2331   */\n      tag_27\n      jump\t// in\n    tag_61:\n        /* \"#utility.yul\":2307:2331   */\n      swap2\n      pop\n        /* \"#utility.yul\":2345:2364   */\n      tag_62\n        /* \"#utility.yul\":2362:2363   */\n      dup4\n        /* \"#utility.yul\":2345:2364   */\n      tag_27\n      jump\t// in\n    tag_62:\n        /* \"#utility.yul\":2340:2364   */\n      swap3\n      pop\n        /* \"#utility.yul\":2387:2388   */\n      dup3\n        /* \"#utility.yul\":2384:2385   */\n      dup3\n        /* \"#utility.yul\":2380:2389   */\n      add\n        /* \"#utility.yul\":2373:2389   */\n      swap1\n      pop\n        /* \"#utility.yul\":2585:2586   */\n      dup3\n        /* \"#utility.yul\":2580:2583   */\n      dup2\n        /* \"#utility.yul\":2576:2587   */\n      slt\n        /* \"#utility.yul\":2569:2588   */\n      iszero\n        /* \"#utility.yul\":2565:2566   */\n      0x00\n        /* \"#utility.yul\":2562:2563   */\n      dup4\n        /* \"#utility.yul\":2558:2567   */\n      slt\n        /* \"#utility.yul\":2554:2589   */\n      and\n        /* \"#utility.yul\":2537:2538   */\n      dup4\n        /* \"#utility.yul\":2532:2535   */\n      dup3\n        /* \"#utility.yul\":2528:2539   */\n      slt\n        /* \"#utility.yul\":2523:2524   */\n      0x00\n        /* \"#utility.yul\":2520:2521   */\n      dup5\n        /* \"#utility.yul\":2516:2525   */\n      slt\n        /* \"#utility.yul\":2509:2526   */\n      iszero\n        /* \"#utility.yul\":2505:2540   */\n      and\n        /* \"#utility.yul\":2489:2599   */\n      or\n        /* \"#utility.yul\":2486:2622   */\n      iszero\n      tag_63\n      jumpi\n        /* \"#utility.yul\":2602:2620   */\n      tag_64\n      tag_31\n      jump\t// in\n    tag_64:\n        /* \"#utility.yul\":2486:2622   */\n    tag_63:\n        /* \"#utility.yul\":2254:2629   */\n      swap3\n      swap2\n      pop\n      pop\n      jump\t// out\n        /* \"#utility.yul\":2635:2866   */\n    tag_21:\n        /* \"#utility.yul\":2673:2676   */\n      0x00\n        /* \"#utility.yul\":2696:2719   */\n      tag_66\n        /* \"#utility.yul\":2713:2718   */\n      dup3\n        /* \"#utility.yul\":2696:2719   */\n      tag_27\n      jump\t// in\n    tag_66:\n        /* \"#utility.yul\":2687:2719   */\n      swap2\n      pop\n        /* \"#utility.yul\":2741:2807   */\n      0x7fffffffffffffffffffffffffffffffffffffffffffffffffffffffffffffff\n        /* \"#utility.yul\":2734:2739   */\n      dup3\n        /* \"#utility.yul\":2731:2808   */\n      sub\n        /* \"#utility.yul\":2728:2831   */\n      tag_67\n      jumpi\n        /* \"#utility.yul\":2811:2829   */\n      tag_68\n      tag_31\n      jump\t// in\n    tag_68:\n        /* \"#utility.yul\":2728:2831   */\n    tag_67:\n        /* \"#utility.yul\":2858:2859   */\n      0x01\n        /* \"#utility.yul\":2851:2856   */\n      dup3\n        /* \"#utility.yul\":2847:2860   */\n      add\n        /* \"#utility.yul\":2840:2860   */\n      swap1\n      pop\n        /* \"#utility.yul\":2635:2866   */\n      swap2\n      swap1\n      pop\n      jump\t// out\n\n    auxdata: 0xa264697066735822122046bed54cf112712d90adcbd56e73d3664a55a0b599d5866d418b19d0c8ecf1e264736f6c63430008140033\n}\n",
				"bytecode": {
					"linkReferences": {},
					"object": "608060405234801561000f575f80fd5b506102e48061001d5f395ff3fe608060405234801561000f575f80fd5b5060043610610029575f3560e01c80639ad5be3c1461002d575b5f80fd5b6100476004803603810190610042919061011d565b61005d565b604051610054919061016a565b60405180910390f35b5f80600190505f600190505f600190505f600190505b8381136100db578582136100bc57868461008d91906101b0565b92508660018561009d9190610226565b6100a791906101b0565b915083806100b490610267565b9450506100c8565b829450505050506100e0565b80806100d390610267565b915050610073565b505050505b92915050565b5f80fd5b5f819050919050565b6100fc816100ea565b8114610106575f80fd5b50565b5f81359050610117816100f3565b92915050565b5f8060408385031215610133576101326100e6565b5b5f61014085828601610109565b925050602061015185828601610109565b9150509250929050565b610164816100ea565b82525050565b5f60208201905061017d5f83018461015b565b92915050565b7f4e487b71000000000000000000000000000000000000000000000000000000005f52601160045260245ffd5b5f6101ba826100ea565b91506101c5836100ea565b92508282026101d3816100ea565b91507f800000000000000000000000000000000000000000000000000000000000000084145f8412161561020a57610209610183565b5b828205841483151761021f5761021e610183565b5b5092915050565b5f610230826100ea565b915061023b836100ea565b92508282019050828112155f8312168382125f84121516171561026157610260610183565b5b92915050565b5f610271826100ea565b91507f7fffffffffffffffffffffffffffffffffffffffffffffffffffffffffffffff82036102a3576102a2610183565b5b60018201905091905056fea264697066735822122046bed54cf112712d90adcbd56e73d3664a55a0b599d5866d418b19d0c8ecf1e264736f6c63430008140033",
					"opcodes": "PUSH1 0x80 PUSH1 0x40 MSTORE CALLVALUE DUP1 ISZERO PUSH2 0xF JUMPI PUSH0 DUP1 REVERT JUMPDEST POP PUSH2 0x2E4 DUP1 PUSH2 0x1D PUSH0 CODECOPY PUSH0 RETURN INVALID PUSH1 0x80 PUSH1 0x40 MSTORE CALLVALUE DUP1 ISZERO PUSH2 0xF JUMPI PUSH0 DUP1 REVERT JUMPDEST POP PUSH1 0x4 CALLDATASIZE LT PUSH2 0x29 JUMPI PUSH0 CALLDATALOAD PUSH1 0xE0 SHR DUP1 PUSH4 0x9AD5BE3C EQ PUSH2 0x2D JUMPI JUMPDEST PUSH0 DUP1 REVERT JUMPDEST PUSH2 0x47 PUSH1 0x4 DUP1 CALLDATASIZE SUB DUP2 ADD SWAP1 PUSH2 0x42 SWAP2 SWAP1 PUSH2 0x11D JUMP JUMPDEST PUSH2 0x5D JUMP JUMPDEST PUSH1 0x40 MLOAD PUSH2 0x54 SWAP2 SWAP1 PUSH2 0x16A JUMP JUMPDEST PUSH1 0x40 MLOAD DUP1 SWAP2 SUB SWAP1 RETURN JUMPDEST PUSH0 DUP1 PUSH1 0x1 SWAP1 POP PUSH0 PUSH1 0x1 SWAP1 POP PUSH0 PUSH1 0x1 SWAP1 POP PUSH0 PUSH1 0x1 SWAP1 POP JUMPDEST DUP4 DUP2 SGT PUSH2 0xDB JUMPI DUP6 DUP3 SGT PUSH2 0xBC JUMPI DUP7 DUP5 PUSH2 0x8D SWAP2 SWAP1 PUSH2 0x1B0 JUMP JUMPDEST SWAP3 POP DUP7 PUSH1 0x1 DUP6 PUSH2 0x9D SWAP2 SWAP1 PUSH2 0x226 JUMP JUMPDEST PUSH2 0xA7 SWAP2 SWAP1 PUSH2 0x1B0 JUMP JUMPDEST SWAP2 POP DUP4 DUP1 PUSH2 0xB4 SWAP1 PUSH2 0x267 JUMP JUMPDEST SWAP5 POP POP PUSH2 0xC8 JUMP JUMPDEST DUP3 SWAP5 POP POP POP POP POP PUSH2 0xE0 JUMP JUMPDEST DUP1 DUP1 PUSH2 0xD3 SWAP1 PUSH2 0x267 JUMP JUMPDEST SWAP2 POP POP PUSH2 0x73 JUMP JUMPDEST POP POP POP POP JUMPDEST SWAP3 SWAP2 POP POP JUMP JUMPDEST PUSH0 DUP1 REVERT JUMPDEST PUSH0 DUP2 SWAP1 POP SWAP2 SWAP1 POP JUMP JUMPDEST PUSH2 0xFC DUP2 PUSH2 0xEA JUMP JUMPDEST DUP2 EQ PUSH2 0x106 JUMPI PUSH0 DUP1 REVERT JUMPDEST POP JUMP JUMPDEST PUSH0 DUP2 CALLDATALOAD SWAP1 POP PUSH2 0x117 DUP2 PUSH2 0xF3 JUMP JUMPDEST SWAP3 SWAP2 POP POP JUMP JUMPDEST PUSH0 DUP1 PUSH1 0x40 DUP4 DUP6 SUB SLT ISZERO PUSH2 0x133 JUMPI PUSH2 0x132 PUSH2 0xE6 JUMP JUMPDEST JUMPDEST PUSH0 PUSH2 0x140 DUP6 DUP3 DUP7 ADD PUSH2 0x109 JUMP JUMPDEST SWAP3 POP POP PUSH1 0x20 PUSH2 0x151 DUP6 DUP3 DUP7 ADD PUSH2 0x109 JUMP JUMPDEST SWAP2 POP POP SWAP3 POP SWAP3 SWAP1 POP JUMP JUMPDEST PUSH2 0x164 DUP2 PUSH2 0xEA JUMP JUMPDEST DUP3 MSTORE POP POP JUMP JUMPDEST PUSH0 PUSH1 0x20 DUP3 ADD SWAP1 POP PUSH2 0x17D PUSH0 DUP4 ADD DUP5 PUSH2 0x15B JUMP JUMPDEST SWAP3 SWAP2 POP POP JUMP JUMPDEST PUSH32 0x4E487B7100000000000000000000000000000000000000000000000000000000 PUSH0 MSTORE PUSH1 0x11 PUSH1 0x4 MSTORE PUSH1 0x24 PUSH0 REVERT JUMPDEST PUSH0 PUSH2 0x1BA DUP3 PUSH2 0xEA JUMP JUMPDEST SWAP2 POP PUSH2 0x1C5 DUP4 PUSH2 0xEA JUMP JUMPDEST SWAP3 POP DUP3 DUP3 MUL PUSH2 0x1D3 DUP2 PUSH2 0xEA JUMP JUMPDEST SWAP2 POP PUSH32 0x8000000000000000000000000000000000000000000000000000000000000000 DUP5 EQ PUSH0 DUP5 SLT AND ISZERO PUSH2 0x20A JUMPI PUSH2 0x209 PUSH2 0x183 JUMP JUMPDEST JUMPDEST DUP3 DUP3 SDIV DUP5 EQ DUP4 ISZERO OR PUSH2 0x21F JUMPI PUSH2 0x21E PUSH2 0x183 JUMP JUMPDEST JUMPDEST POP SWAP3 SWAP2 POP POP JUMP JUMPDEST PUSH0 PUSH2 0x230 DUP3 PUSH2 0xEA JUMP JUMPDEST SWAP2 POP PUSH2 0x23B DUP4 PUSH2 0xEA JUMP JUMPDEST SWAP3 POP DUP3 DUP3 ADD SWAP1 POP DUP3 DUP2 SLT ISZERO PUSH0 DUP4 SLT AND DUP4 DUP3 SLT PUSH0 DUP5 SLT ISZERO AND OR ISZERO PUSH2 0x261 JUMPI PUSH2 0x260 PUSH2 0x183 JUMP JUMPDEST JUMPDEST SWAP3 SWAP2 POP POP JUMP JUMPDEST PUSH0 PUSH2 0x271 DUP3 PUSH2 0xEA JUMP JUMPDEST SWAP2 POP PUSH32 0x7FFFFFFFFFFFFFFFFFFFFFFFFFFFFFFFFFFFFFFFFFFFFFFFFFFFFFFFFFFFFFFF DUP3 SUB PUSH2 0x2A3 JUMPI PUSH2 0x2A2 PUSH2 0x183 JUMP JUMPDEST JUMPDEST PUSH1 0x1 DUP3 ADD SWAP1 POP SWAP2 SWAP1 POP JUMP INVALID LOG2 PUSH5 0x6970667358 0x22 SLT KECCAK256 CHAINID 0xBE 0xD5 0x4C CALL SLT PUSH18 0x2D90ADCBD56E73D3664A55A0B599D5866D41 DUP12 NOT 0xD0 0xC8 0xEC CALL 0xE2 PUSH5 0x736F6C6343 STOP ADDMOD EQ STOP CALLER "
				},
				"gasEstimates": {
					"creation": {
						"codeDepositCost": "148000",
						"executionCost": "194",
						"totalCost": "148194"
					},
					"external": {
						"maxMultiple(int256,int256)": "infinite"
					}
				},
				"methodIdentifiers": {
					"maxMultiple(int256,int256)": "9ad5be3c"
				}
			},
			"storageLayout": {
				"storage": [],
				"types": null
			},
			"userdoc": {
				"kind": "user",
				"methods": {},
				"version": 1
			}
		}
	}
}