{
	"enumpractice.sol": {
		"enums": {
			"abi": [
				{
					"inputs": [],
					"stateMutability": "nonpayable",
					"type": "constructor"
				},
				{
					"inputs": [
						{
							"internalType": "uint256",
							"name": "_routineNumber",
							"type": "uint256"
						}
					],
					"name": "CompleteDeliveryToWarehouse",
					"outputs": [],
					"stateMutability": "nonpayable",
					"type": "function"
				},
				{
					"inputs": [
						{
							"internalType": "uint256",
							"name": "_routineNumber",
							"type": "uint256"
						}
					],
					"name": "CompleteMfg",
					"outputs": [],
					"stateMutability": "nonpayable",
					"type": "function"
				},
				{
					"inputs": [
						{
							"internalType": "uint256",
							"name": "_routineNumber",
							"type": "uint256"
						}
					],
					"name": "CompleteRawMaterialProd",
					"outputs": [],
					"stateMutability": "nonpayable",
					"type": "function"
				},
				{
					"inputs": [
						{
							"internalType": "uint256",
							"name": "_routineNumber",
							"type": "uint256"
						}
					],
					"name": "CompleteSupply",
					"outputs": [],
					"stateMutability": "nonpayable",
					"type": "function"
				},
				{
					"inputs": [
						{
							"internalType": "uint256",
							"name": "",
							"type": "uint256"
						}
					],
					"name": "mappingRoutine",
					"outputs": [
						{
							"internalType": "uint256",
							"name": "routineNo",
							"type": "uint256"
						},
						{
							"internalType": "uint256",
							"name": "routineDateCreation",
							"type": "uint256"
						},
						{
							"internalType": "uint256",
							"name": "rawMaterialProdDate",
							"type": "uint256"
						},
						{
							"internalType": "uint256",
							"name": "deliveryToWarehouseDate",
							"type": "uint256"
						},
						{
							"internalType": "uint256",
							"name": "mfgDate",
							"type": "uint256"
						},
						{
							"internalType": "uint256",
							"name": "supplyDate",
							"type": "uint256"
						},
						{
							"internalType": "enum enums.progress",
							"name": "routineProgress",
							"type": "uint8"
						}
					],
					"stateMutability": "view",
					"type": "function"
				},
				{
					"inputs": [],
					"name": "routineNumber",
					"outputs": [
						{
							"internalType": "uint256",
							"name": "",
							"type": "uint256"
						}
					],
					"stateMutability": "view",
					"type": "function"
				},
				{
					"inputs": [],
					"name": "setRoutine",
					"outputs": [],
					"stateMutability": "nonpayable",
					"type": "function"
				}
			],
			"devdoc": {
				"kind": "dev",
				"methods": {},
				"version": 1
			},
			"evm": {
				"assembly": "    /* \"enumpractice.sol\":26:4176  contract enums {... */\n  mstore(0x40, 0xa0)\n    /* \"enumpractice.sol\":286:287  0 */\n  0x00\n    /* \"enumpractice.sol\":258:287  uint public routineNumber = 0 */\n  dup1\n  sstore\n    /* \"enumpractice.sol\":294:343  constructor() {... */\n  callvalue\n  dup1\n  iszero\n  tag_1\n  jumpi\n  0x00\n  dup1\n  revert\ntag_1:\n  pop\n    /* \"enumpractice.sol\":326:336  msg.sender */\n  caller\n    /* \"enumpractice.sol\":318:336  owner = msg.sender */\n  0xffffffffffffffffffffffffffffffffffffffff\n  and\n  0x80\n  dup2\n  0xffffffffffffffffffffffffffffffffffffffff\n  and\n  dup2\n  mstore\n  pop\n  pop\n    /* \"enumpractice.sol\":26:4176  contract enums {... */\n  mload(0x80)\n  codecopy(0x00, dataOffset(sub_0), dataSize(sub_0))\n  0x00\n  assignImmutable(\"0x1d3be50b2bb17407dd170f1d5da128d1def30c6b1598d6a629e79b4775265526\")\n  return(0x00, dataSize(sub_0))\nstop\n\nsub_0: assembly {\n        /* \"enumpractice.sol\":26:4176  contract enums {... */\n      mstore(0x40, 0x80)\n      callvalue\n      dup1\n      iszero\n      tag_1\n      jumpi\n      0x00\n      dup1\n      revert\n    tag_1:\n      pop\n      jumpi(tag_2, lt(calldatasize, 0x04))\n      shr(0xe0, calldataload(0x00))\n      dup1\n      0xd38ed81f\n      gt\n      tag_10\n      jumpi\n      dup1\n      0xd38ed81f\n      eq\n      tag_6\n      jumpi\n      dup1\n      0xd9ab25ad\n      eq\n      tag_7\n      jumpi\n      dup1\n      0xdd76e6e2\n      eq\n      tag_8\n      jumpi\n      dup1\n      0xf3bb763b\n      eq\n      tag_9\n      jumpi\n      jump(tag_2)\n    tag_10:\n      dup1\n      0x5c17bef1\n      eq\n      tag_3\n      jumpi\n      dup1\n      0xcbc451f7\n      eq\n      tag_4\n      jumpi\n      dup1\n      0xcec560b2\n      eq\n      tag_5\n      jumpi\n    tag_2:\n      0x00\n      dup1\n      revert\n        /* \"enumpractice.sol\":1117:1891  function CompleteRawMaterialProd(uint _routineNumber) public {... */\n    tag_3:\n      tag_11\n      0x04\n      dup1\n      calldatasize\n      sub\n      dup2\n      add\n      swap1\n      tag_12\n      swap2\n      swap1\n      tag_13\n      jump\t// in\n    tag_12:\n      tag_14\n      jump\t// in\n    tag_11:\n      stop\n        /* \"enumpractice.sol\":662:718  mapping(uint => productionRoutine) public mappingRoutine */\n    tag_4:\n      tag_15\n      0x04\n      dup1\n      calldatasize\n      sub\n      dup2\n      add\n      swap1\n      tag_16\n      swap2\n      swap1\n      tag_13\n      jump\t// in\n    tag_16:\n      tag_17\n      jump\t// in\n    tag_15:\n      mload(0x40)\n      tag_18\n      swap8\n      swap7\n      swap6\n      swap5\n      swap4\n      swap3\n      swap2\n      swap1\n      tag_19\n      jump\t// in\n    tag_18:\n      mload(0x40)\n      dup1\n      swap2\n      sub\n      swap1\n      return\n        /* \"enumpractice.sol\":1897:2670  function CompleteDeliveryToWarehouse(uint _routineNumber) public {... */\n    tag_5:\n      tag_20\n      0x04\n      dup1\n      calldatasize\n      sub\n      dup2\n      add\n      swap1\n      tag_21\n      swap2\n      swap1\n      tag_13\n      jump\t// in\n    tag_21:\n      tag_22\n      jump\t// in\n    tag_20:\n      stop\n        /* \"enumpractice.sol\":874:1111  function setRoutine() public onlyOwner{... */\n    tag_6:\n      tag_23\n      tag_24\n      jump\t// in\n    tag_23:\n      stop\n        /* \"enumpractice.sol\":258:287  uint public routineNumber = 0 */\n    tag_7:\n      tag_25\n      tag_26\n      jump\t// in\n    tag_25:\n      mload(0x40)\n      tag_27\n      swap2\n      swap1\n      tag_28\n      jump\t// in\n    tag_27:\n      mload(0x40)\n      dup1\n      swap2\n      sub\n      swap1\n      return\n        /* \"enumpractice.sol\":2676:3410  function CompleteMfg(uint _routineNumber) public {... */\n    tag_8:\n      tag_29\n      0x04\n      dup1\n      calldatasize\n      sub\n      dup2\n      add\n      swap1\n      tag_30\n      swap2\n      swap1\n      tag_13\n      jump\t// in\n    tag_30:\n      tag_31\n      jump\t// in\n    tag_29:\n      stop\n        /* \"enumpractice.sol\":3416:4173  function CompleteSupply(uint _routineNumber) public {... */\n    tag_9:\n      tag_32\n      0x04\n      dup1\n      calldatasize\n      sub\n      dup2\n      add\n      swap1\n      tag_33\n      swap2\n      swap1\n      tag_13\n      jump\t// in\n    tag_33:\n      tag_34\n      jump\t// in\n    tag_32:\n      stop\n        /* \"enumpractice.sol\":1117:1891  function CompleteRawMaterialProd(uint _routineNumber) public {... */\n    tag_14:\n        /* \"enumpractice.sol\":1246:1278  progress.raw_material_production */\n      0x01\n        /* \"enumpractice.sol\":1196:1278  mappingRoutine[_routineNumber].routineProgress != progress.raw_material_production */\n      0x05\n      dup2\n      gt\n      iszero\n      tag_36\n      jumpi\n      tag_37\n      tag_38\n      jump\t// in\n    tag_37:\n    tag_36:\n        /* \"enumpractice.sol\":1196:1210  mappingRoutine */\n      0x09\n        /* \"enumpractice.sol\":1196:1226  mappingRoutine[_routineNumber] */\n      0x00\n        /* \"enumpractice.sol\":1211:1225  _routineNumber */\n      dup4\n        /* \"enumpractice.sol\":1196:1226  mappingRoutine[_routineNumber] */\n      dup2\n      mstore\n      0x20\n      add\n      swap1\n      dup2\n      mstore\n      0x20\n      add\n      0x00\n      keccak256\n        /* \"enumpractice.sol\":1196:1242  mappingRoutine[_routineNumber].routineProgress */\n      0x06\n      add\n      0x00\n      swap1\n      sload\n      swap1\n      0x0100\n      exp\n      swap1\n      div\n      0xff\n      and\n        /* \"enumpractice.sol\":1196:1278  mappingRoutine[_routineNumber].routineProgress != progress.raw_material_production */\n      0x05\n      dup2\n      gt\n      iszero\n      tag_39\n      jumpi\n      tag_40\n      tag_38\n      jump\t// in\n    tag_40:\n    tag_39:\n      eq\n      iszero\n        /* \"enumpractice.sol\":1196:1371  mappingRoutine[_routineNumber].routineProgress != progress.raw_material_production && ... */\n      dup1\n      iszero\n      tag_41\n      jumpi\n      pop\n        /* \"enumpractice.sol\":1341:1371  progress.delivery_to_warehouse */\n      0x02\n        /* \"enumpractice.sol\":1291:1371  mappingRoutine[_routineNumber].routineProgress != progress.delivery_to_warehouse */\n      0x05\n      dup2\n      gt\n      iszero\n      tag_42\n      jumpi\n      tag_43\n      tag_38\n      jump\t// in\n    tag_43:\n    tag_42:\n        /* \"enumpractice.sol\":1291:1305  mappingRoutine */\n      0x09\n        /* \"enumpractice.sol\":1291:1321  mappingRoutine[_routineNumber] */\n      0x00\n        /* \"enumpractice.sol\":1306:1320  _routineNumber */\n      dup4\n        /* \"enumpractice.sol\":1291:1321  mappingRoutine[_routineNumber] */\n      dup2\n      mstore\n      0x20\n      add\n      swap1\n      dup2\n      mstore\n      0x20\n      add\n      0x00\n      keccak256\n        /* \"enumpractice.sol\":1291:1337  mappingRoutine[_routineNumber].routineProgress */\n      0x06\n      add\n      0x00\n      swap1\n      sload\n      swap1\n      0x0100\n      exp\n      swap1\n      div\n      0xff\n      and\n        /* \"enumpractice.sol\":1291:1371  mappingRoutine[_routineNumber].routineProgress != progress.delivery_to_warehouse */\n      0x05\n      dup2\n      gt\n      iszero\n      tag_44\n      jumpi\n      tag_45\n      tag_38\n      jump\t// in\n    tag_45:\n    tag_44:\n      eq\n      iszero\n        /* \"enumpractice.sol\":1196:1371  mappingRoutine[_routineNumber].routineProgress != progress.raw_material_production && ... */\n    tag_41:\n        /* \"enumpractice.sol\":1196:1455  mappingRoutine[_routineNumber].routineProgress != progress.raw_material_production && ... */\n      dup1\n      iszero\n      tag_46\n      jumpi\n      pop\n        /* \"enumpractice.sol\":1433:1455  progress.manufacturing */\n      0x03\n        /* \"enumpractice.sol\":1383:1455  mappingRoutine[_routineNumber].routineProgress != progress.manufacturing */\n      0x05\n      dup2\n      gt\n      iszero\n      tag_47\n      jumpi\n      tag_48\n      tag_38\n      jump\t// in\n    tag_48:\n    tag_47:\n        /* \"enumpractice.sol\":1383:1397  mappingRoutine */\n      0x09\n        /* \"enumpractice.sol\":1383:1413  mappingRoutine[_routineNumber] */\n      0x00\n        /* \"enumpractice.sol\":1398:1412  _routineNumber */\n      dup4\n        /* \"enumpractice.sol\":1383:1413  mappingRoutine[_routineNumber] */\n      dup2\n      mstore\n      0x20\n      add\n      swap1\n      dup2\n      mstore\n      0x20\n      add\n      0x00\n      keccak256\n        /* \"enumpractice.sol\":1383:1429  mappingRoutine[_routineNumber].routineProgress */\n      0x06\n      add\n      0x00\n      swap1\n      sload\n      swap1\n      0x0100\n      exp\n      swap1\n      div\n      0xff\n      and\n        /* \"enumpractice.sol\":1383:1455  mappingRoutine[_routineNumber].routineProgress != progress.manufacturing */\n      0x05\n      dup2\n      gt\n      iszero\n      tag_49\n      jumpi\n      tag_50\n      tag_38\n      jump\t// in\n    tag_50:\n    tag_49:\n      eq\n      iszero\n        /* \"enumpractice.sol\":1196:1455  mappingRoutine[_routineNumber].routineProgress != progress.raw_material_production && ... */\n    tag_46:\n        /* \"enumpractice.sol\":1196:1547  mappingRoutine[_routineNumber].routineProgress != progress.raw_material_production && ... */\n      dup1\n      iszero\n      tag_51\n      jumpi\n      pop\n        /* \"enumpractice.sol\":1517:1547  progress.suppling_to_suppliers */\n      0x04\n        /* \"enumpractice.sol\":1467:1547  mappingRoutine[_routineNumber].routineProgress != progress.suppling_to_suppliers */\n      0x05\n      dup2\n      gt\n      iszero\n      tag_52\n      jumpi\n      tag_53\n      tag_38\n      jump\t// in\n    tag_53:\n    tag_52:\n        /* \"enumpractice.sol\":1467:1481  mappingRoutine */\n      0x09\n        /* \"enumpractice.sol\":1467:1497  mappingRoutine[_routineNumber] */\n      0x00\n        /* \"enumpractice.sol\":1482:1496  _routineNumber */\n      dup4\n        /* \"enumpractice.sol\":1467:1497  mappingRoutine[_routineNumber] */\n      dup2\n      mstore\n      0x20\n      add\n      swap1\n      dup2\n      mstore\n      0x20\n      add\n      0x00\n      keccak256\n        /* \"enumpractice.sol\":1467:1513  mappingRoutine[_routineNumber].routineProgress */\n      0x06\n      add\n      0x00\n      swap1\n      sload\n      swap1\n      0x0100\n      exp\n      swap1\n      div\n      0xff\n      and\n        /* \"enumpractice.sol\":1467:1547  mappingRoutine[_routineNumber].routineProgress != progress.suppling_to_suppliers */\n      0x05\n      dup2\n      gt\n      iszero\n      tag_54\n      jumpi\n      tag_55\n      tag_38\n      jump\t// in\n    tag_55:\n    tag_54:\n      eq\n      iszero\n        /* \"enumpractice.sol\":1196:1547  mappingRoutine[_routineNumber].routineProgress != progress.raw_material_production && ... */\n    tag_51:\n        /* \"enumpractice.sol\":1196:1626  mappingRoutine[_routineNumber].routineProgress != progress.raw_material_production && ... */\n      dup1\n      iszero\n      tag_56\n      jumpi\n      pop\n        /* \"enumpractice.sol\":1609:1626  progress.complete */\n      0x05\n        /* \"enumpractice.sol\":1559:1626  mappingRoutine[_routineNumber].routineProgress != progress.complete */\n      dup1\n      dup2\n      gt\n      iszero\n      tag_57\n      jumpi\n      tag_58\n      tag_38\n      jump\t// in\n    tag_58:\n    tag_57:\n        /* \"enumpractice.sol\":1559:1573  mappingRoutine */\n      0x09\n        /* \"enumpractice.sol\":1559:1589  mappingRoutine[_routineNumber] */\n      0x00\n        /* \"enumpractice.sol\":1574:1588  _routineNumber */\n      dup4\n        /* \"enumpractice.sol\":1559:1589  mappingRoutine[_routineNumber] */\n      dup2\n      mstore\n      0x20\n      add\n      swap1\n      dup2\n      mstore\n      0x20\n      add\n      0x00\n      keccak256\n        /* \"enumpractice.sol\":1559:1605  mappingRoutine[_routineNumber].routineProgress */\n      0x06\n      add\n      0x00\n      swap1\n      sload\n      swap1\n      0x0100\n      exp\n      swap1\n      div\n      0xff\n      and\n        /* \"enumpractice.sol\":1559:1626  mappingRoutine[_routineNumber].routineProgress != progress.complete */\n      0x05\n      dup2\n      gt\n      iszero\n      tag_59\n      jumpi\n      tag_60\n      tag_38\n      jump\t// in\n    tag_60:\n    tag_59:\n      eq\n      iszero\n        /* \"enumpractice.sol\":1196:1626  mappingRoutine[_routineNumber].routineProgress != progress.raw_material_production && ... */\n    tag_56:\n        /* \"enumpractice.sol\":1188:1642  require(mappingRoutine[_routineNumber].routineProgress != progress.raw_material_production && ... */\n      tag_61\n      jumpi\n      mload(0x40)\n      0x08c379a000000000000000000000000000000000000000000000000000000000\n      dup2\n      mstore\n      0x04\n      add\n      tag_62\n      swap1\n      tag_63\n      jump\t// in\n    tag_62:\n      mload(0x40)\n      dup1\n      swap2\n      sub\n      swap1\n      revert\n    tag_61:\n        /* \"enumpractice.sol\":1652:1682  productionRoutine memory prodr */\n      0x00\n        /* \"enumpractice.sol\":1685:1699  mappingRoutine */\n      0x09\n        /* \"enumpractice.sol\":1685:1715  mappingRoutine[_routineNumber] */\n      0x00\n        /* \"enumpractice.sol\":1700:1714  _routineNumber */\n      dup4\n        /* \"enumpractice.sol\":1685:1715  mappingRoutine[_routineNumber] */\n      dup2\n      mstore\n      0x20\n      add\n      swap1\n      dup2\n      mstore\n      0x20\n      add\n      0x00\n      keccak256\n        /* \"enumpractice.sol\":1652:1715  productionRoutine memory prodr = mappingRoutine[_routineNumber] */\n      mload(0x40)\n      dup1\n      0xe0\n      add\n      0x40\n      mstore\n      swap1\n      dup2\n      0x00\n      dup3\n      add\n      sload\n      dup2\n      mstore\n      0x20\n      add\n      0x01\n      dup3\n      add\n      sload\n      dup2\n      mstore\n      0x20\n      add\n      0x02\n      dup3\n      add\n      sload\n      dup2\n      mstore\n      0x20\n      add\n      0x03\n      dup3\n      add\n      sload\n      dup2\n      mstore\n      0x20\n      add\n      0x04\n      dup3\n      add\n      sload\n      dup2\n      mstore\n      0x20\n      add\n      0x05\n      dup3\n      add\n      sload\n      dup2\n      mstore\n      0x20\n      add\n      0x06\n      dup3\n      add\n      0x00\n      swap1\n      sload\n      swap1\n      0x0100\n      exp\n      swap1\n      div\n      0xff\n      and\n      0x05\n      dup2\n      gt\n      iszero\n      tag_64\n      jumpi\n      tag_65\n      tag_38\n      jump\t// in\n    tag_65:\n    tag_64:\n      0x05\n      dup2\n      gt\n      iszero\n      tag_66\n      jumpi\n      tag_67\n      tag_38\n      jump\t// in\n    tag_67:\n    tag_66:\n      dup2\n      mstore\n      pop\n      pop\n      swap1\n      pop\n        /* \"enumpractice.sol\":1753:1768  block.timestamp */\n      timestamp\n        /* \"enumpractice.sol\":1725:1730  prodr */\n      dup2\n        /* \"enumpractice.sol\":1725:1750  prodr.rawMaterialProdDate */\n      0x40\n      add\n        /* \"enumpractice.sol\":1725:1768  prodr.rawMaterialProdDate = block.timestamp */\n      dup2\n      dup2\n      mstore\n      pop\n      pop\n        /* \"enumpractice.sol\":1803:1835  progress.raw_material_production */\n      0x01\n        /* \"enumpractice.sol\":1778:1783  prodr */\n      dup2\n        /* \"enumpractice.sol\":1778:1799  prodr.routineProgress */\n      0xc0\n      add\n        /* \"enumpractice.sol\":1778:1835  prodr.routineProgress =  progress.raw_material_production */\n      swap1\n      0x05\n      dup2\n      gt\n      iszero\n      tag_68\n      jumpi\n      tag_69\n      tag_38\n      jump\t// in\n    tag_69:\n    tag_68:\n      swap1\n      dup2\n      0x05\n      dup2\n      gt\n      iszero\n      tag_70\n      jumpi\n      tag_71\n      tag_38\n      jump\t// in\n    tag_71:\n    tag_70:\n      dup2\n      mstore\n      pop\n      pop\n        /* \"enumpractice.sol\":1878:1883  prodr */\n      dup1\n        /* \"enumpractice.sol\":1845:1859  mappingRoutine */\n      0x09\n        /* \"enumpractice.sol\":1845:1875  mappingRoutine[_routineNumber] */\n      0x00\n        /* \"enumpractice.sol\":1860:1874  _routineNumber */\n      dup5\n        /* \"enumpractice.sol\":1845:1875  mappingRoutine[_routineNumber] */\n      dup2\n      mstore\n      0x20\n      add\n      swap1\n      dup2\n      mstore\n      0x20\n      add\n      0x00\n      keccak256\n        /* \"enumpractice.sol\":1845:1883  mappingRoutine[_routineNumber] = prodr */\n      0x00\n      dup3\n      add\n      mload\n      dup2\n      0x00\n      add\n      sstore\n      0x20\n      dup3\n      add\n      mload\n      dup2\n      0x01\n      add\n      sstore\n      0x40\n      dup3\n      add\n      mload\n      dup2\n      0x02\n      add\n      sstore\n      0x60\n      dup3\n      add\n      mload\n      dup2\n      0x03\n      add\n      sstore\n      0x80\n      dup3\n      add\n      mload\n      dup2\n      0x04\n      add\n      sstore\n      0xa0\n      dup3\n      add\n      mload\n      dup2\n      0x05\n      add\n      sstore\n      0xc0\n      dup3\n      add\n      mload\n      dup2\n      0x06\n      add\n      exp(0x0100, 0x00)\n      dup2\n      sload\n      dup2\n      0xff\n      mul\n      not\n      and\n      swap1\n      dup4\n      0x05\n      dup2\n      gt\n      iszero\n      tag_72\n      jumpi\n      tag_73\n      tag_38\n      jump\t// in\n    tag_73:\n    tag_72:\n      mul\n      or\n      swap1\n      sstore\n      pop\n      swap1\n      pop\n      pop\n        /* \"enumpractice.sol\":1178:1891  {... */\n      pop\n        /* \"enumpractice.sol\":1117:1891  function CompleteRawMaterialProd(uint _routineNumber) public {... */\n      pop\n      jump\t// out\n        /* \"enumpractice.sol\":662:718  mapping(uint => productionRoutine) public mappingRoutine */\n    tag_17:\n      mstore(0x20, 0x09)\n      dup1\n      0x00\n      mstore\n      keccak256(0x00, 0x40)\n      0x00\n      swap2\n      pop\n      swap1\n      pop\n      dup1\n      0x00\n      add\n      sload\n      swap1\n      dup1\n      0x01\n      add\n      sload\n      swap1\n      dup1\n      0x02\n      add\n      sload\n      swap1\n      dup1\n      0x03\n      add\n      sload\n      swap1\n      dup1\n      0x04\n      add\n      sload\n      swap1\n      dup1\n      0x05\n      add\n      sload\n      swap1\n      dup1\n      0x06\n      add\n      0x00\n      swap1\n      sload\n      swap1\n      0x0100\n      exp\n      swap1\n      div\n      0xff\n      and\n      swap1\n      pop\n      dup8\n      jump\t// out\n        /* \"enumpractice.sol\":1897:2670  function CompleteDeliveryToWarehouse(uint _routineNumber) public {... */\n    tag_22:\n        /* \"enumpractice.sol\":2030:2055  progress.routine_creation */\n      0x00\n        /* \"enumpractice.sol\":1980:2055  mappingRoutine[_routineNumber].routineProgress != progress.routine_creation */\n      0x05\n      dup2\n      gt\n      iszero\n      tag_75\n      jumpi\n      tag_76\n      tag_38\n      jump\t// in\n    tag_76:\n    tag_75:\n        /* \"enumpractice.sol\":1980:1994  mappingRoutine */\n      0x09\n        /* \"enumpractice.sol\":1980:2010  mappingRoutine[_routineNumber] */\n      0x00\n        /* \"enumpractice.sol\":1995:2009  _routineNumber */\n      dup4\n        /* \"enumpractice.sol\":1980:2010  mappingRoutine[_routineNumber] */\n      dup2\n      mstore\n      0x20\n      add\n      swap1\n      dup2\n      mstore\n      0x20\n      add\n      0x00\n      keccak256\n        /* \"enumpractice.sol\":1980:2026  mappingRoutine[_routineNumber].routineProgress */\n      0x06\n      add\n      0x00\n      swap1\n      sload\n      swap1\n      0x0100\n      exp\n      swap1\n      div\n      0xff\n      and\n        /* \"enumpractice.sol\":1980:2055  mappingRoutine[_routineNumber].routineProgress != progress.routine_creation */\n      0x05\n      dup2\n      gt\n      iszero\n      tag_77\n      jumpi\n      tag_78\n      tag_38\n      jump\t// in\n    tag_78:\n    tag_77:\n      eq\n      iszero\n        /* \"enumpractice.sol\":1980:2148  mappingRoutine[_routineNumber].routineProgress != progress.routine_creation && ... */\n      dup1\n      iszero\n      tag_79\n      jumpi\n      pop\n        /* \"enumpractice.sol\":2118:2148  progress.delivery_to_warehouse */\n      0x02\n        /* \"enumpractice.sol\":2068:2148  mappingRoutine[_routineNumber].routineProgress != progress.delivery_to_warehouse */\n      0x05\n      dup2\n      gt\n      iszero\n      tag_80\n      jumpi\n      tag_81\n      tag_38\n      jump\t// in\n    tag_81:\n    tag_80:\n        /* \"enumpractice.sol\":2068:2082  mappingRoutine */\n      0x09\n        /* \"enumpractice.sol\":2068:2098  mappingRoutine[_routineNumber] */\n      0x00\n        /* \"enumpractice.sol\":2083:2097  _routineNumber */\n      dup4\n        /* \"enumpractice.sol\":2068:2098  mappingRoutine[_routineNumber] */\n      dup2\n      mstore\n      0x20\n      add\n      swap1\n      dup2\n      mstore\n      0x20\n      add\n      0x00\n      keccak256\n        /* \"enumpractice.sol\":2068:2114  mappingRoutine[_routineNumber].routineProgress */\n      0x06\n      add\n      0x00\n      swap1\n      sload\n      swap1\n      0x0100\n      exp\n      swap1\n      div\n      0xff\n      and\n        /* \"enumpractice.sol\":2068:2148  mappingRoutine[_routineNumber].routineProgress != progress.delivery_to_warehouse */\n      0x05\n      dup2\n      gt\n      iszero\n      tag_82\n      jumpi\n      tag_83\n      tag_38\n      jump\t// in\n    tag_83:\n    tag_82:\n      eq\n      iszero\n        /* \"enumpractice.sol\":1980:2148  mappingRoutine[_routineNumber].routineProgress != progress.routine_creation && ... */\n    tag_79:\n        /* \"enumpractice.sol\":1980:2232  mappingRoutine[_routineNumber].routineProgress != progress.routine_creation && ... */\n      dup1\n      iszero\n      tag_84\n      jumpi\n      pop\n        /* \"enumpractice.sol\":2210:2232  progress.manufacturing */\n      0x03\n        /* \"enumpractice.sol\":2160:2232  mappingRoutine[_routineNumber].routineProgress != progress.manufacturing */\n      0x05\n      dup2\n      gt\n      iszero\n      tag_85\n      jumpi\n      tag_86\n      tag_38\n      jump\t// in\n    tag_86:\n    tag_85:\n        /* \"enumpractice.sol\":2160:2174  mappingRoutine */\n      0x09\n        /* \"enumpractice.sol\":2160:2190  mappingRoutine[_routineNumber] */\n      0x00\n        /* \"enumpractice.sol\":2175:2189  _routineNumber */\n      dup4\n        /* \"enumpractice.sol\":2160:2190  mappingRoutine[_routineNumber] */\n      dup2\n      mstore\n      0x20\n      add\n      swap1\n      dup2\n      mstore\n      0x20\n      add\n      0x00\n      keccak256\n        /* \"enumpractice.sol\":2160:2206  mappingRoutine[_routineNumber].routineProgress */\n      0x06\n      add\n      0x00\n      swap1\n      sload\n      swap1\n      0x0100\n      exp\n      swap1\n      div\n      0xff\n      and\n        /* \"enumpractice.sol\":2160:2232  mappingRoutine[_routineNumber].routineProgress != progress.manufacturing */\n      0x05\n      dup2\n      gt\n      iszero\n      tag_87\n      jumpi\n      tag_88\n      tag_38\n      jump\t// in\n    tag_88:\n    tag_87:\n      eq\n      iszero\n        /* \"enumpractice.sol\":1980:2232  mappingRoutine[_routineNumber].routineProgress != progress.routine_creation && ... */\n    tag_84:\n        /* \"enumpractice.sol\":1980:2324  mappingRoutine[_routineNumber].routineProgress != progress.routine_creation && ... */\n      dup1\n      iszero\n      tag_89\n      jumpi\n      pop\n        /* \"enumpractice.sol\":2294:2324  progress.suppling_to_suppliers */\n      0x04\n        /* \"enumpractice.sol\":2244:2324  mappingRoutine[_routineNumber].routineProgress != progress.suppling_to_suppliers */\n      0x05\n      dup2\n      gt\n      iszero\n      tag_90\n      jumpi\n      tag_91\n      tag_38\n      jump\t// in\n    tag_91:\n    tag_90:\n        /* \"enumpractice.sol\":2244:2258  mappingRoutine */\n      0x09\n        /* \"enumpractice.sol\":2244:2274  mappingRoutine[_routineNumber] */\n      0x00\n        /* \"enumpractice.sol\":2259:2273  _routineNumber */\n      dup4\n        /* \"enumpractice.sol\":2244:2274  mappingRoutine[_routineNumber] */\n      dup2\n      mstore\n      0x20\n      add\n      swap1\n      dup2\n      mstore\n      0x20\n      add\n      0x00\n      keccak256\n        /* \"enumpractice.sol\":2244:2290  mappingRoutine[_routineNumber].routineProgress */\n      0x06\n      add\n      0x00\n      swap1\n      sload\n      swap1\n      0x0100\n      exp\n      swap1\n      div\n      0xff\n      and\n        /* \"enumpractice.sol\":2244:2324  mappingRoutine[_routineNumber].routineProgress != progress.suppling_to_suppliers */\n      0x05\n      dup2\n      gt\n      iszero\n      tag_92\n      jumpi\n      tag_93\n      tag_38\n      jump\t// in\n    tag_93:\n    tag_92:\n      eq\n      iszero\n        /* \"enumpractice.sol\":1980:2324  mappingRoutine[_routineNumber].routineProgress != progress.routine_creation && ... */\n    tag_89:\n        /* \"enumpractice.sol\":1980:2403  mappingRoutine[_routineNumber].routineProgress != progress.routine_creation && ... */\n      dup1\n      iszero\n      tag_94\n      jumpi\n      pop\n        /* \"enumpractice.sol\":2386:2403  progress.complete */\n      0x05\n        /* \"enumpractice.sol\":2336:2403  mappingRoutine[_routineNumber].routineProgress != progress.complete */\n      dup1\n      dup2\n      gt\n      iszero\n      tag_95\n      jumpi\n      tag_96\n      tag_38\n      jump\t// in\n    tag_96:\n    tag_95:\n        /* \"enumpractice.sol\":2336:2350  mappingRoutine */\n      0x09\n        /* \"enumpractice.sol\":2336:2366  mappingRoutine[_routineNumber] */\n      0x00\n        /* \"enumpractice.sol\":2351:2365  _routineNumber */\n      dup4\n        /* \"enumpractice.sol\":2336:2366  mappingRoutine[_routineNumber] */\n      dup2\n      mstore\n      0x20\n      add\n      swap1\n      dup2\n      mstore\n      0x20\n      add\n      0x00\n      keccak256\n        /* \"enumpractice.sol\":2336:2382  mappingRoutine[_routineNumber].routineProgress */\n      0x06\n      add\n      0x00\n      swap1\n      sload\n      swap1\n      0x0100\n      exp\n      swap1\n      div\n      0xff\n      and\n        /* \"enumpractice.sol\":2336:2403  mappingRoutine[_routineNumber].routineProgress != progress.complete */\n      0x05\n      dup2\n      gt\n      iszero\n      tag_97\n      jumpi\n      tag_98\n      tag_38\n      jump\t// in\n    tag_98:\n    tag_97:\n      eq\n      iszero\n        /* \"enumpractice.sol\":1980:2403  mappingRoutine[_routineNumber].routineProgress != progress.routine_creation && ... */\n    tag_94:\n        /* \"enumpractice.sol\":1972:2419  require(mappingRoutine[_routineNumber].routineProgress != progress.routine_creation && ... */\n      tag_99\n      jumpi\n      mload(0x40)\n      0x08c379a000000000000000000000000000000000000000000000000000000000\n      dup2\n      mstore\n      0x04\n      add\n      tag_100\n      swap1\n      tag_63\n      jump\t// in\n    tag_100:\n      mload(0x40)\n      dup1\n      swap2\n      sub\n      swap1\n      revert\n    tag_99:\n        /* \"enumpractice.sol\":2429:2459  productionRoutine memory prodr */\n      0x00\n        /* \"enumpractice.sol\":2462:2476  mappingRoutine */\n      0x09\n        /* \"enumpractice.sol\":2462:2492  mappingRoutine[_routineNumber] */\n      0x00\n        /* \"enumpractice.sol\":2477:2491  _routineNumber */\n      dup4\n        /* \"enumpractice.sol\":2462:2492  mappingRoutine[_routineNumber] */\n      dup2\n      mstore\n      0x20\n      add\n      swap1\n      dup2\n      mstore\n      0x20\n      add\n      0x00\n      keccak256\n        /* \"enumpractice.sol\":2429:2492  productionRoutine memory prodr = mappingRoutine[_routineNumber] */\n      mload(0x40)\n      dup1\n      0xe0\n      add\n      0x40\n      mstore\n      swap1\n      dup2\n      0x00\n      dup3\n      add\n      sload\n      dup2\n      mstore\n      0x20\n      add\n      0x01\n      dup3\n      add\n      sload\n      dup2\n      mstore\n      0x20\n      add\n      0x02\n      dup3\n      add\n      sload\n      dup2\n      mstore\n      0x20\n      add\n      0x03\n      dup3\n      add\n      sload\n      dup2\n      mstore\n      0x20\n      add\n      0x04\n      dup3\n      add\n      sload\n      dup2\n      mstore\n      0x20\n      add\n      0x05\n      dup3\n      add\n      sload\n      dup2\n      mstore\n      0x20\n      add\n      0x06\n      dup3\n      add\n      0x00\n      swap1\n      sload\n      swap1\n      0x0100\n      exp\n      swap1\n      div\n      0xff\n      and\n      0x05\n      dup2\n      gt\n      iszero\n      tag_101\n      jumpi\n      tag_102\n      tag_38\n      jump\t// in\n    tag_102:\n    tag_101:\n      0x05\n      dup2\n      gt\n      iszero\n      tag_103\n      jumpi\n      tag_104\n      tag_38\n      jump\t// in\n    tag_104:\n    tag_103:\n      dup2\n      mstore\n      pop\n      pop\n      swap1\n      pop\n        /* \"enumpractice.sol\":2534:2549  block.timestamp */\n      timestamp\n        /* \"enumpractice.sol\":2502:2507  prodr */\n      dup2\n        /* \"enumpractice.sol\":2502:2531  prodr.deliveryToWarehouseDate */\n      0x60\n      add\n        /* \"enumpractice.sol\":2502:2549  prodr.deliveryToWarehouseDate = block.timestamp */\n      dup2\n      dup2\n      mstore\n      pop\n      pop\n        /* \"enumpractice.sol\":2584:2614  progress.delivery_to_warehouse */\n      0x02\n        /* \"enumpractice.sol\":2559:2564  prodr */\n      dup2\n        /* \"enumpractice.sol\":2559:2580  prodr.routineProgress */\n      0xc0\n      add\n        /* \"enumpractice.sol\":2559:2614  prodr.routineProgress =  progress.delivery_to_warehouse */\n      swap1\n      0x05\n      dup2\n      gt\n      iszero\n      tag_105\n      jumpi\n      tag_106\n      tag_38\n      jump\t// in\n    tag_106:\n    tag_105:\n      swap1\n      dup2\n      0x05\n      dup2\n      gt\n      iszero\n      tag_107\n      jumpi\n      tag_108\n      tag_38\n      jump\t// in\n    tag_108:\n    tag_107:\n      dup2\n      mstore\n      pop\n      pop\n        /* \"enumpractice.sol\":2657:2662  prodr */\n      dup1\n        /* \"enumpractice.sol\":2624:2638  mappingRoutine */\n      0x09\n        /* \"enumpractice.sol\":2624:2654  mappingRoutine[_routineNumber] */\n      0x00\n        /* \"enumpractice.sol\":2639:2653  _routineNumber */\n      dup5\n        /* \"enumpractice.sol\":2624:2654  mappingRoutine[_routineNumber] */\n      dup2\n      mstore\n      0x20\n      add\n      swap1\n      dup2\n      mstore\n      0x20\n      add\n      0x00\n      keccak256\n        /* \"enumpractice.sol\":2624:2662  mappingRoutine[_routineNumber] = prodr */\n      0x00\n      dup3\n      add\n      mload\n      dup2\n      0x00\n      add\n      sstore\n      0x20\n      dup3\n      add\n      mload\n      dup2\n      0x01\n      add\n      sstore\n      0x40\n      dup3\n      add\n      mload\n      dup2\n      0x02\n      add\n      sstore\n      0x60\n      dup3\n      add\n      mload\n      dup2\n      0x03\n      add\n      sstore\n      0x80\n      dup3\n      add\n      mload\n      dup2\n      0x04\n      add\n      sstore\n      0xa0\n      dup3\n      add\n      mload\n      dup2\n      0x05\n      add\n      sstore\n      0xc0\n      dup3\n      add\n      mload\n      dup2\n      0x06\n      add\n      exp(0x0100, 0x00)\n      dup2\n      sload\n      dup2\n      0xff\n      mul\n      not\n      and\n      swap1\n      dup4\n      0x05\n      dup2\n      gt\n      iszero\n      tag_109\n      jumpi\n      tag_110\n      tag_38\n      jump\t// in\n    tag_110:\n    tag_109:\n      mul\n      or\n      swap1\n      sstore\n      pop\n      swap1\n      pop\n      pop\n        /* \"enumpractice.sol\":1962:2670  {... */\n      pop\n        /* \"enumpractice.sol\":1897:2670  function CompleteDeliveryToWarehouse(uint _routineNumber) public {... */\n      pop\n      jump\t// out\n        /* \"enumpractice.sol\":874:1111  function setRoutine() public onlyOwner{... */\n    tag_24:\n        /* \"enumpractice.sol\":776:781  owner */\n      immutable(\"0x1d3be50b2bb17407dd170f1d5da128d1def30c6b1598d6a629e79b4775265526\")\n        /* \"enumpractice.sol\":762:781  msg.sender == owner */\n      0xffffffffffffffffffffffffffffffffffffffff\n      and\n        /* \"enumpractice.sol\":762:772  msg.sender */\n      caller\n        /* \"enumpractice.sol\":762:781  msg.sender == owner */\n      0xffffffffffffffffffffffffffffffffffffffff\n      and\n      eq\n        /* \"enumpractice.sol\":754:807  require(msg.sender == owner, \"user is not permitted\") */\n      tag_112\n      jumpi\n      mload(0x40)\n      0x08c379a000000000000000000000000000000000000000000000000000000000\n      dup2\n      mstore\n      0x04\n      add\n      tag_113\n      swap1\n      tag_114\n      jump\t// in\n    tag_113:\n      mload(0x40)\n      dup1\n      swap2\n      sub\n      swap1\n      revert\n    tag_112:\n        /* \"enumpractice.sol\":922:935  routineNumber */\n      0x00\n      dup1\n        /* \"enumpractice.sol\":922:937  routineNumber++ */\n      dup2\n      sload\n      dup1\n      swap3\n      swap2\n      swap1\n      tag_116\n      swap1\n      tag_117\n      jump\t// in\n    tag_116:\n      swap2\n      swap1\n      pop\n      sstore\n      pop\n        /* \"enumpractice.sol\":964:1047  productionRoutine(routineNumber, block.timestamp,0,0,0,0,progress.routine_creation) */\n      mload(0x40)\n      dup1\n      0xe0\n      add\n      0x40\n      mstore\n      dup1\n        /* \"enumpractice.sol\":982:995  routineNumber */\n      sload(0x00)\n        /* \"enumpractice.sol\":964:1047  productionRoutine(routineNumber, block.timestamp,0,0,0,0,progress.routine_creation) */\n      dup2\n      mstore\n      0x20\n      add\n        /* \"enumpractice.sol\":997:1012  block.timestamp */\n      timestamp\n        /* \"enumpractice.sol\":964:1047  productionRoutine(routineNumber, block.timestamp,0,0,0,0,progress.routine_creation) */\n      dup2\n      mstore\n      0x20\n      add\n        /* \"enumpractice.sol\":1013:1014  0 */\n      0x00\n        /* \"enumpractice.sol\":964:1047  productionRoutine(routineNumber, block.timestamp,0,0,0,0,progress.routine_creation) */\n      dup2\n      mstore\n      0x20\n      add\n        /* \"enumpractice.sol\":1015:1016  0 */\n      0x00\n        /* \"enumpractice.sol\":964:1047  productionRoutine(routineNumber, block.timestamp,0,0,0,0,progress.routine_creation) */\n      dup2\n      mstore\n      0x20\n      add\n        /* \"enumpractice.sol\":1017:1018  0 */\n      0x00\n        /* \"enumpractice.sol\":964:1047  productionRoutine(routineNumber, block.timestamp,0,0,0,0,progress.routine_creation) */\n      dup2\n      mstore\n      0x20\n      add\n        /* \"enumpractice.sol\":1019:1020  0 */\n      0x00\n        /* \"enumpractice.sol\":964:1047  productionRoutine(routineNumber, block.timestamp,0,0,0,0,progress.routine_creation) */\n      dup2\n      mstore\n      0x20\n      add\n        /* \"enumpractice.sol\":1021:1046  progress.routine_creation */\n      0x00\n        /* \"enumpractice.sol\":964:1047  productionRoutine(routineNumber, block.timestamp,0,0,0,0,progress.routine_creation) */\n      0x05\n      dup2\n      gt\n      iszero\n      tag_118\n      jumpi\n      tag_119\n      tag_38\n      jump\t// in\n    tag_119:\n    tag_118:\n      dup2\n      mstore\n      pop\n        /* \"enumpractice.sol\":947:961  NewProdRoutine */\n      0x02\n        /* \"enumpractice.sol\":947:1047  NewProdRoutine = productionRoutine(routineNumber, block.timestamp,0,0,0,0,progress.routine_creation) */\n      0x00\n      dup3\n      add\n      mload\n      dup2\n      0x00\n      add\n      sstore\n      0x20\n      dup3\n      add\n      mload\n      dup2\n      0x01\n      add\n      sstore\n      0x40\n      dup3\n      add\n      mload\n      dup2\n      0x02\n      add\n      sstore\n      0x60\n      dup3\n      add\n      mload\n      dup2\n      0x03\n      add\n      sstore\n      0x80\n      dup3\n      add\n      mload\n      dup2\n      0x04\n      add\n      sstore\n      0xa0\n      dup3\n      add\n      mload\n      dup2\n      0x05\n      add\n      sstore\n      0xc0\n      dup3\n      add\n      mload\n      dup2\n      0x06\n      add\n      exp(0x0100, 0x00)\n      dup2\n      sload\n      dup2\n      0xff\n      mul\n      not\n      and\n      swap1\n      dup4\n      0x05\n      dup2\n      gt\n      iszero\n      tag_120\n      jumpi\n      tag_121\n      tag_38\n      jump\t// in\n    tag_121:\n    tag_120:\n      mul\n      or\n      swap1\n      sstore\n      pop\n      swap1\n      pop\n      pop\n        /* \"enumpractice.sol\":1089:1103  NewProdRoutine */\n      0x02\n        /* \"enumpractice.sol\":1057:1071  mappingRoutine */\n      0x09\n        /* \"enumpractice.sol\":1057:1086  mappingRoutine[routineNumber] */\n      0x00\n        /* \"enumpractice.sol\":1072:1085  routineNumber */\n      dup1\n      sload\n        /* \"enumpractice.sol\":1057:1086  mappingRoutine[routineNumber] */\n      dup2\n      mstore\n      0x20\n      add\n      swap1\n      dup2\n      mstore\n      0x20\n      add\n      0x00\n      keccak256\n        /* \"enumpractice.sol\":1057:1103  mappingRoutine[routineNumber] = NewProdRoutine */\n      0x00\n      dup3\n      add\n      sload\n      dup2\n      0x00\n      add\n      sstore\n      0x01\n      dup3\n      add\n      sload\n      dup2\n      0x01\n      add\n      sstore\n      0x02\n      dup3\n      add\n      sload\n      dup2\n      0x02\n      add\n      sstore\n      0x03\n      dup3\n      add\n      sload\n      dup2\n      0x03\n      add\n      sstore\n      0x04\n      dup3\n      add\n      sload\n      dup2\n      0x04\n      add\n      sstore\n      0x05\n      dup3\n      add\n      sload\n      dup2\n      0x05\n      add\n      sstore\n      0x06\n      dup3\n      add\n      0x00\n      swap1\n      sload\n      swap1\n      0x0100\n      exp\n      swap1\n      div\n      0xff\n      and\n      dup2\n      0x06\n      add\n      exp(0x0100, 0x00)\n      dup2\n      sload\n      dup2\n      0xff\n      mul\n      not\n      and\n      swap1\n      dup4\n      0x05\n      dup2\n      gt\n      iszero\n      tag_122\n      jumpi\n      tag_123\n      tag_38\n      jump\t// in\n    tag_123:\n    tag_122:\n      mul\n      or\n      swap1\n      sstore\n      pop\n      swap1\n      pop\n      pop\n        /* \"enumpractice.sol\":874:1111  function setRoutine() public onlyOwner{... */\n      jump\t// out\n        /* \"enumpractice.sol\":258:287  uint public routineNumber = 0 */\n    tag_26:\n      sload(0x00)\n      dup2\n      jump\t// out\n        /* \"enumpractice.sol\":2676:3410  function CompleteMfg(uint _routineNumber) public {... */\n    tag_31:\n        /* \"enumpractice.sol\":2793:2818  progress.routine_creation */\n      0x00\n        /* \"enumpractice.sol\":2743:2818  mappingRoutine[_routineNumber].routineProgress != progress.routine_creation */\n      0x05\n      dup2\n      gt\n      iszero\n      tag_125\n      jumpi\n      tag_126\n      tag_38\n      jump\t// in\n    tag_126:\n    tag_125:\n        /* \"enumpractice.sol\":2743:2757  mappingRoutine */\n      0x09\n        /* \"enumpractice.sol\":2743:2773  mappingRoutine[_routineNumber] */\n      0x00\n        /* \"enumpractice.sol\":2758:2772  _routineNumber */\n      dup4\n        /* \"enumpractice.sol\":2743:2773  mappingRoutine[_routineNumber] */\n      dup2\n      mstore\n      0x20\n      add\n      swap1\n      dup2\n      mstore\n      0x20\n      add\n      0x00\n      keccak256\n        /* \"enumpractice.sol\":2743:2789  mappingRoutine[_routineNumber].routineProgress */\n      0x06\n      add\n      0x00\n      swap1\n      sload\n      swap1\n      0x0100\n      exp\n      swap1\n      div\n      0xff\n      and\n        /* \"enumpractice.sol\":2743:2818  mappingRoutine[_routineNumber].routineProgress != progress.routine_creation */\n      0x05\n      dup2\n      gt\n      iszero\n      tag_127\n      jumpi\n      tag_128\n      tag_38\n      jump\t// in\n    tag_128:\n    tag_127:\n      eq\n      iszero\n        /* \"enumpractice.sol\":2743:2912  mappingRoutine[_routineNumber].routineProgress != progress.routine_creation &&... */\n      dup1\n      iszero\n      tag_129\n      jumpi\n      pop\n        /* \"enumpractice.sol\":2880:2912  progress.raw_material_production */\n      0x01\n        /* \"enumpractice.sol\":2830:2912  mappingRoutine[_routineNumber].routineProgress != progress.raw_material_production */\n      0x05\n      dup2\n      gt\n      iszero\n      tag_130\n      jumpi\n      tag_131\n      tag_38\n      jump\t// in\n    tag_131:\n    tag_130:\n        /* \"enumpractice.sol\":2830:2844  mappingRoutine */\n      0x09\n        /* \"enumpractice.sol\":2830:2860  mappingRoutine[_routineNumber] */\n      0x00\n        /* \"enumpractice.sol\":2845:2859  _routineNumber */\n      dup4\n        /* \"enumpractice.sol\":2830:2860  mappingRoutine[_routineNumber] */\n      dup2\n      mstore\n      0x20\n      add\n      swap1\n      dup2\n      mstore\n      0x20\n      add\n      0x00\n      keccak256\n        /* \"enumpractice.sol\":2830:2876  mappingRoutine[_routineNumber].routineProgress */\n      0x06\n      add\n      0x00\n      swap1\n      sload\n      swap1\n      0x0100\n      exp\n      swap1\n      div\n      0xff\n      and\n        /* \"enumpractice.sol\":2830:2912  mappingRoutine[_routineNumber].routineProgress != progress.raw_material_production */\n      0x05\n      dup2\n      gt\n      iszero\n      tag_132\n      jumpi\n      tag_133\n      tag_38\n      jump\t// in\n    tag_133:\n    tag_132:\n      eq\n      iszero\n        /* \"enumpractice.sol\":2743:2912  mappingRoutine[_routineNumber].routineProgress != progress.routine_creation &&... */\n    tag_129:\n        /* \"enumpractice.sol\":2743:2996  mappingRoutine[_routineNumber].routineProgress != progress.routine_creation &&... */\n      dup1\n      iszero\n      tag_134\n      jumpi\n      pop\n        /* \"enumpractice.sol\":2974:2996  progress.manufacturing */\n      0x03\n        /* \"enumpractice.sol\":2924:2996  mappingRoutine[_routineNumber].routineProgress != progress.manufacturing */\n      0x05\n      dup2\n      gt\n      iszero\n      tag_135\n      jumpi\n      tag_136\n      tag_38\n      jump\t// in\n    tag_136:\n    tag_135:\n        /* \"enumpractice.sol\":2924:2938  mappingRoutine */\n      0x09\n        /* \"enumpractice.sol\":2924:2954  mappingRoutine[_routineNumber] */\n      0x00\n        /* \"enumpractice.sol\":2939:2953  _routineNumber */\n      dup4\n        /* \"enumpractice.sol\":2924:2954  mappingRoutine[_routineNumber] */\n      dup2\n      mstore\n      0x20\n      add\n      swap1\n      dup2\n      mstore\n      0x20\n      add\n      0x00\n      keccak256\n        /* \"enumpractice.sol\":2924:2970  mappingRoutine[_routineNumber].routineProgress */\n      0x06\n      add\n      0x00\n      swap1\n      sload\n      swap1\n      0x0100\n      exp\n      swap1\n      div\n      0xff\n      and\n        /* \"enumpractice.sol\":2924:2996  mappingRoutine[_routineNumber].routineProgress != progress.manufacturing */\n      0x05\n      dup2\n      gt\n      iszero\n      tag_137\n      jumpi\n      tag_138\n      tag_38\n      jump\t// in\n    tag_138:\n    tag_137:\n      eq\n      iszero\n        /* \"enumpractice.sol\":2743:2996  mappingRoutine[_routineNumber].routineProgress != progress.routine_creation &&... */\n    tag_134:\n        /* \"enumpractice.sol\":2743:3088  mappingRoutine[_routineNumber].routineProgress != progress.routine_creation &&... */\n      dup1\n      iszero\n      tag_139\n      jumpi\n      pop\n        /* \"enumpractice.sol\":3058:3088  progress.suppling_to_suppliers */\n      0x04\n        /* \"enumpractice.sol\":3008:3088  mappingRoutine[_routineNumber].routineProgress != progress.suppling_to_suppliers */\n      0x05\n      dup2\n      gt\n      iszero\n      tag_140\n      jumpi\n      tag_141\n      tag_38\n      jump\t// in\n    tag_141:\n    tag_140:\n        /* \"enumpractice.sol\":3008:3022  mappingRoutine */\n      0x09\n        /* \"enumpractice.sol\":3008:3038  mappingRoutine[_routineNumber] */\n      0x00\n        /* \"enumpractice.sol\":3023:3037  _routineNumber */\n      dup4\n        /* \"enumpractice.sol\":3008:3038  mappingRoutine[_routineNumber] */\n      dup2\n      mstore\n      0x20\n      add\n      swap1\n      dup2\n      mstore\n      0x20\n      add\n      0x00\n      keccak256\n        /* \"enumpractice.sol\":3008:3054  mappingRoutine[_routineNumber].routineProgress */\n      0x06\n      add\n      0x00\n      swap1\n      sload\n      swap1\n      0x0100\n      exp\n      swap1\n      div\n      0xff\n      and\n        /* \"enumpractice.sol\":3008:3088  mappingRoutine[_routineNumber].routineProgress != progress.suppling_to_suppliers */\n      0x05\n      dup2\n      gt\n      iszero\n      tag_142\n      jumpi\n      tag_143\n      tag_38\n      jump\t// in\n    tag_143:\n    tag_142:\n      eq\n      iszero\n        /* \"enumpractice.sol\":2743:3088  mappingRoutine[_routineNumber].routineProgress != progress.routine_creation &&... */\n    tag_139:\n        /* \"enumpractice.sol\":2743:3167  mappingRoutine[_routineNumber].routineProgress != progress.routine_creation &&... */\n      dup1\n      iszero\n      tag_144\n      jumpi\n      pop\n        /* \"enumpractice.sol\":3150:3167  progress.complete */\n      0x05\n        /* \"enumpractice.sol\":3100:3167  mappingRoutine[_routineNumber].routineProgress != progress.complete */\n      dup1\n      dup2\n      gt\n      iszero\n      tag_145\n      jumpi\n      tag_146\n      tag_38\n      jump\t// in\n    tag_146:\n    tag_145:\n        /* \"enumpractice.sol\":3100:3114  mappingRoutine */\n      0x09\n        /* \"enumpractice.sol\":3100:3130  mappingRoutine[_routineNumber] */\n      0x00\n        /* \"enumpractice.sol\":3115:3129  _routineNumber */\n      dup4\n        /* \"enumpractice.sol\":3100:3130  mappingRoutine[_routineNumber] */\n      dup2\n      mstore\n      0x20\n      add\n      swap1\n      dup2\n      mstore\n      0x20\n      add\n      0x00\n      keccak256\n        /* \"enumpractice.sol\":3100:3146  mappingRoutine[_routineNumber].routineProgress */\n      0x06\n      add\n      0x00\n      swap1\n      sload\n      swap1\n      0x0100\n      exp\n      swap1\n      div\n      0xff\n      and\n        /* \"enumpractice.sol\":3100:3167  mappingRoutine[_routineNumber].routineProgress != progress.complete */\n      0x05\n      dup2\n      gt\n      iszero\n      tag_147\n      jumpi\n      tag_148\n      tag_38\n      jump\t// in\n    tag_148:\n    tag_147:\n      eq\n      iszero\n        /* \"enumpractice.sol\":2743:3167  mappingRoutine[_routineNumber].routineProgress != progress.routine_creation &&... */\n    tag_144:\n        /* \"enumpractice.sol\":2735:3183  require(mappingRoutine[_routineNumber].routineProgress != progress.routine_creation &&... */\n      tag_149\n      jumpi\n      mload(0x40)\n      0x08c379a000000000000000000000000000000000000000000000000000000000\n      dup2\n      mstore\n      0x04\n      add\n      tag_150\n      swap1\n      tag_63\n      jump\t// in\n    tag_150:\n      mload(0x40)\n      dup1\n      swap2\n      sub\n      swap1\n      revert\n    tag_149:\n        /* \"enumpractice.sol\":3193:3223  productionRoutine memory prodr */\n      0x00\n        /* \"enumpractice.sol\":3226:3240  mappingRoutine */\n      0x09\n        /* \"enumpractice.sol\":3226:3256  mappingRoutine[_routineNumber] */\n      0x00\n        /* \"enumpractice.sol\":3241:3255  _routineNumber */\n      dup4\n        /* \"enumpractice.sol\":3226:3256  mappingRoutine[_routineNumber] */\n      dup2\n      mstore\n      0x20\n      add\n      swap1\n      dup2\n      mstore\n      0x20\n      add\n      0x00\n      keccak256\n        /* \"enumpractice.sol\":3193:3256  productionRoutine memory prodr = mappingRoutine[_routineNumber] */\n      mload(0x40)\n      dup1\n      0xe0\n      add\n      0x40\n      mstore\n      swap1\n      dup2\n      0x00\n      dup3\n      add\n      sload\n      dup2\n      mstore\n      0x20\n      add\n      0x01\n      dup3\n      add\n      sload\n      dup2\n      mstore\n      0x20\n      add\n      0x02\n      dup3\n      add\n      sload\n      dup2\n      mstore\n      0x20\n      add\n      0x03\n      dup3\n      add\n      sload\n      dup2\n      mstore\n      0x20\n      add\n      0x04\n      dup3\n      add\n      sload\n      dup2\n      mstore\n      0x20\n      add\n      0x05\n      dup3\n      add\n      sload\n      dup2\n      mstore\n      0x20\n      add\n      0x06\n      dup3\n      add\n      0x00\n      swap1\n      sload\n      swap1\n      0x0100\n      exp\n      swap1\n      div\n      0xff\n      and\n      0x05\n      dup2\n      gt\n      iszero\n      tag_151\n      jumpi\n      tag_152\n      tag_38\n      jump\t// in\n    tag_152:\n    tag_151:\n      0x05\n      dup2\n      gt\n      iszero\n      tag_153\n      jumpi\n      tag_154\n      tag_38\n      jump\t// in\n    tag_154:\n    tag_153:\n      dup2\n      mstore\n      pop\n      pop\n      swap1\n      pop\n        /* \"enumpractice.sol\":3282:3297  block.timestamp */\n      timestamp\n        /* \"enumpractice.sol\":3266:3271  prodr */\n      dup2\n        /* \"enumpractice.sol\":3266:3279  prodr.mfgDate */\n      0x80\n      add\n        /* \"enumpractice.sol\":3266:3297  prodr.mfgDate = block.timestamp */\n      dup2\n      dup2\n      mstore\n      pop\n      pop\n        /* \"enumpractice.sol\":3332:3354  progress.manufacturing */\n      0x03\n        /* \"enumpractice.sol\":3307:3312  prodr */\n      dup2\n        /* \"enumpractice.sol\":3307:3328  prodr.routineProgress */\n      0xc0\n      add\n        /* \"enumpractice.sol\":3307:3354  prodr.routineProgress =  progress.manufacturing */\n      swap1\n      0x05\n      dup2\n      gt\n      iszero\n      tag_155\n      jumpi\n      tag_156\n      tag_38\n      jump\t// in\n    tag_156:\n    tag_155:\n      swap1\n      dup2\n      0x05\n      dup2\n      gt\n      iszero\n      tag_157\n      jumpi\n      tag_158\n      tag_38\n      jump\t// in\n    tag_158:\n    tag_157:\n      dup2\n      mstore\n      pop\n      pop\n        /* \"enumpractice.sol\":3397:3402  prodr */\n      dup1\n        /* \"enumpractice.sol\":3364:3378  mappingRoutine */\n      0x09\n        /* \"enumpractice.sol\":3364:3394  mappingRoutine[_routineNumber] */\n      0x00\n        /* \"enumpractice.sol\":3379:3393  _routineNumber */\n      dup5\n        /* \"enumpractice.sol\":3364:3394  mappingRoutine[_routineNumber] */\n      dup2\n      mstore\n      0x20\n      add\n      swap1\n      dup2\n      mstore\n      0x20\n      add\n      0x00\n      keccak256\n        /* \"enumpractice.sol\":3364:3402  mappingRoutine[_routineNumber] = prodr */\n      0x00\n      dup3\n      add\n      mload\n      dup2\n      0x00\n      add\n      sstore\n      0x20\n      dup3\n      add\n      mload\n      dup2\n      0x01\n      add\n      sstore\n      0x40\n      dup3\n      add\n      mload\n      dup2\n      0x02\n      add\n      sstore\n      0x60\n      dup3\n      add\n      mload\n      dup2\n      0x03\n      add\n      sstore\n      0x80\n      dup3\n      add\n      mload\n      dup2\n      0x04\n      add\n      sstore\n      0xa0\n      dup3\n      add\n      mload\n      dup2\n      0x05\n      add\n      sstore\n      0xc0\n      dup3\n      add\n      mload\n      dup2\n      0x06\n      add\n      exp(0x0100, 0x00)\n      dup2\n      sload\n      dup2\n      0xff\n      mul\n      not\n      and\n      swap1\n      dup4\n      0x05\n      dup2\n      gt\n      iszero\n      tag_159\n      jumpi\n      tag_160\n      tag_38\n      jump\t// in\n    tag_160:\n    tag_159:\n      mul\n      or\n      swap1\n      sstore\n      pop\n      swap1\n      pop\n      pop\n        /* \"enumpractice.sol\":2725:3410  {... */\n      pop\n        /* \"enumpractice.sol\":2676:3410  function CompleteMfg(uint _routineNumber) public {... */\n      pop\n      jump\t// out\n        /* \"enumpractice.sol\":3416:4173  function CompleteSupply(uint _routineNumber) public {... */\n    tag_34:\n        /* \"enumpractice.sol\":3536:3561  progress.routine_creation */\n      0x00\n        /* \"enumpractice.sol\":3486:3561  mappingRoutine[_routineNumber].routineProgress != progress.routine_creation */\n      0x05\n      dup2\n      gt\n      iszero\n      tag_162\n      jumpi\n      tag_163\n      tag_38\n      jump\t// in\n    tag_163:\n    tag_162:\n        /* \"enumpractice.sol\":3486:3500  mappingRoutine */\n      0x09\n        /* \"enumpractice.sol\":3486:3516  mappingRoutine[_routineNumber] */\n      0x00\n        /* \"enumpractice.sol\":3501:3515  _routineNumber */\n      dup4\n        /* \"enumpractice.sol\":3486:3516  mappingRoutine[_routineNumber] */\n      dup2\n      mstore\n      0x20\n      add\n      swap1\n      dup2\n      mstore\n      0x20\n      add\n      0x00\n      keccak256\n        /* \"enumpractice.sol\":3486:3532  mappingRoutine[_routineNumber].routineProgress */\n      0x06\n      add\n      0x00\n      swap1\n      sload\n      swap1\n      0x0100\n      exp\n      swap1\n      div\n      0xff\n      and\n        /* \"enumpractice.sol\":3486:3561  mappingRoutine[_routineNumber].routineProgress != progress.routine_creation */\n      0x05\n      dup2\n      gt\n      iszero\n      tag_164\n      jumpi\n      tag_165\n      tag_38\n      jump\t// in\n    tag_165:\n    tag_164:\n      eq\n      iszero\n        /* \"enumpractice.sol\":3486:3656  mappingRoutine[_routineNumber].routineProgress != progress.routine_creation && ... */\n      dup1\n      iszero\n      tag_166\n      jumpi\n      pop\n        /* \"enumpractice.sol\":3624:3656  progress.raw_material_production */\n      0x01\n        /* \"enumpractice.sol\":3574:3656  mappingRoutine[_routineNumber].routineProgress != progress.raw_material_production */\n      0x05\n      dup2\n      gt\n      iszero\n      tag_167\n      jumpi\n      tag_168\n      tag_38\n      jump\t// in\n    tag_168:\n    tag_167:\n        /* \"enumpractice.sol\":3574:3588  mappingRoutine */\n      0x09\n        /* \"enumpractice.sol\":3574:3604  mappingRoutine[_routineNumber] */\n      0x00\n        /* \"enumpractice.sol\":3589:3603  _routineNumber */\n      dup4\n        /* \"enumpractice.sol\":3574:3604  mappingRoutine[_routineNumber] */\n      dup2\n      mstore\n      0x20\n      add\n      swap1\n      dup2\n      mstore\n      0x20\n      add\n      0x00\n      keccak256\n        /* \"enumpractice.sol\":3574:3620  mappingRoutine[_routineNumber].routineProgress */\n      0x06\n      add\n      0x00\n      swap1\n      sload\n      swap1\n      0x0100\n      exp\n      swap1\n      div\n      0xff\n      and\n        /* \"enumpractice.sol\":3574:3656  mappingRoutine[_routineNumber].routineProgress != progress.raw_material_production */\n      0x05\n      dup2\n      gt\n      iszero\n      tag_169\n      jumpi\n      tag_170\n      tag_38\n      jump\t// in\n    tag_170:\n    tag_169:\n      eq\n      iszero\n        /* \"enumpractice.sol\":3486:3656  mappingRoutine[_routineNumber].routineProgress != progress.routine_creation && ... */\n    tag_166:\n        /* \"enumpractice.sol\":3486:3735  mappingRoutine[_routineNumber].routineProgress != progress.routine_creation && ... */\n      dup1\n      iszero\n      tag_171\n      jumpi\n      pop\n        /* \"enumpractice.sol\":3718:3735  progress.complete */\n      0x05\n        /* \"enumpractice.sol\":3668:3735  mappingRoutine[_routineNumber].routineProgress != progress.complete */\n      dup1\n      dup2\n      gt\n      iszero\n      tag_172\n      jumpi\n      tag_173\n      tag_38\n      jump\t// in\n    tag_173:\n    tag_172:\n        /* \"enumpractice.sol\":3668:3682  mappingRoutine */\n      0x09\n        /* \"enumpractice.sol\":3668:3698  mappingRoutine[_routineNumber] */\n      0x00\n        /* \"enumpractice.sol\":3683:3697  _routineNumber */\n      dup4\n        /* \"enumpractice.sol\":3668:3698  mappingRoutine[_routineNumber] */\n      dup2\n      mstore\n      0x20\n      add\n      swap1\n      dup2\n      mstore\n      0x20\n      add\n      0x00\n      keccak256\n        /* \"enumpractice.sol\":3668:3714  mappingRoutine[_routineNumber].routineProgress */\n      0x06\n      add\n      0x00\n      swap1\n      sload\n      swap1\n      0x0100\n      exp\n      swap1\n      div\n      0xff\n      and\n        /* \"enumpractice.sol\":3668:3735  mappingRoutine[_routineNumber].routineProgress != progress.complete */\n      0x05\n      dup2\n      gt\n      iszero\n      tag_174\n      jumpi\n      tag_175\n      tag_38\n      jump\t// in\n    tag_175:\n    tag_174:\n      eq\n      iszero\n        /* \"enumpractice.sol\":3486:3735  mappingRoutine[_routineNumber].routineProgress != progress.routine_creation && ... */\n    tag_171:\n        /* \"enumpractice.sol\":3486:3827  mappingRoutine[_routineNumber].routineProgress != progress.routine_creation && ... */\n      dup1\n      iszero\n      tag_176\n      jumpi\n      pop\n        /* \"enumpractice.sol\":3797:3827  progress.suppling_to_suppliers */\n      0x04\n        /* \"enumpractice.sol\":3747:3827  mappingRoutine[_routineNumber].routineProgress != progress.suppling_to_suppliers */\n      0x05\n      dup2\n      gt\n      iszero\n      tag_177\n      jumpi\n      tag_178\n      tag_38\n      jump\t// in\n    tag_178:\n    tag_177:\n        /* \"enumpractice.sol\":3747:3761  mappingRoutine */\n      0x09\n        /* \"enumpractice.sol\":3747:3777  mappingRoutine[_routineNumber] */\n      0x00\n        /* \"enumpractice.sol\":3762:3776  _routineNumber */\n      dup4\n        /* \"enumpractice.sol\":3747:3777  mappingRoutine[_routineNumber] */\n      dup2\n      mstore\n      0x20\n      add\n      swap1\n      dup2\n      mstore\n      0x20\n      add\n      0x00\n      keccak256\n        /* \"enumpractice.sol\":3747:3793  mappingRoutine[_routineNumber].routineProgress */\n      0x06\n      add\n      0x00\n      swap1\n      sload\n      swap1\n      0x0100\n      exp\n      swap1\n      div\n      0xff\n      and\n        /* \"enumpractice.sol\":3747:3827  mappingRoutine[_routineNumber].routineProgress != progress.suppling_to_suppliers */\n      0x05\n      dup2\n      gt\n      iszero\n      tag_179\n      jumpi\n      tag_180\n      tag_38\n      jump\t// in\n    tag_180:\n    tag_179:\n      eq\n      iszero\n        /* \"enumpractice.sol\":3486:3827  mappingRoutine[_routineNumber].routineProgress != progress.routine_creation && ... */\n    tag_176:\n        /* \"enumpractice.sol\":3486:3919  mappingRoutine[_routineNumber].routineProgress != progress.routine_creation && ... */\n      dup1\n      iszero\n      tag_181\n      jumpi\n      pop\n        /* \"enumpractice.sol\":3889:3919  progress.delivery_to_warehouse */\n      0x02\n        /* \"enumpractice.sol\":3839:3919  mappingRoutine[_routineNumber].routineProgress != progress.delivery_to_warehouse */\n      0x05\n      dup2\n      gt\n      iszero\n      tag_182\n      jumpi\n      tag_183\n      tag_38\n      jump\t// in\n    tag_183:\n    tag_182:\n        /* \"enumpractice.sol\":3839:3853  mappingRoutine */\n      0x09\n        /* \"enumpractice.sol\":3839:3869  mappingRoutine[_routineNumber] */\n      0x00\n        /* \"enumpractice.sol\":3854:3868  _routineNumber */\n      dup4\n        /* \"enumpractice.sol\":3839:3869  mappingRoutine[_routineNumber] */\n      dup2\n      mstore\n      0x20\n      add\n      swap1\n      dup2\n      mstore\n      0x20\n      add\n      0x00\n      keccak256\n        /* \"enumpractice.sol\":3839:3885  mappingRoutine[_routineNumber].routineProgress */\n      0x06\n      add\n      0x00\n      swap1\n      sload\n      swap1\n      0x0100\n      exp\n      swap1\n      div\n      0xff\n      and\n        /* \"enumpractice.sol\":3839:3919  mappingRoutine[_routineNumber].routineProgress != progress.delivery_to_warehouse */\n      0x05\n      dup2\n      gt\n      iszero\n      tag_184\n      jumpi\n      tag_185\n      tag_38\n      jump\t// in\n    tag_185:\n    tag_184:\n      eq\n      iszero\n        /* \"enumpractice.sol\":3486:3919  mappingRoutine[_routineNumber].routineProgress != progress.routine_creation && ... */\n    tag_181:\n        /* \"enumpractice.sol\":3478:3935  require(mappingRoutine[_routineNumber].routineProgress != progress.routine_creation && ... */\n      tag_186\n      jumpi\n      mload(0x40)\n      0x08c379a000000000000000000000000000000000000000000000000000000000\n      dup2\n      mstore\n      0x04\n      add\n      tag_187\n      swap1\n      tag_63\n      jump\t// in\n    tag_187:\n      mload(0x40)\n      dup1\n      swap2\n      sub\n      swap1\n      revert\n    tag_186:\n        /* \"enumpractice.sol\":3945:3975  productionRoutine memory prodr */\n      0x00\n        /* \"enumpractice.sol\":3978:3992  mappingRoutine */\n      0x09\n        /* \"enumpractice.sol\":3978:4008  mappingRoutine[_routineNumber] */\n      0x00\n        /* \"enumpractice.sol\":3993:4007  _routineNumber */\n      dup4\n        /* \"enumpractice.sol\":3978:4008  mappingRoutine[_routineNumber] */\n      dup2\n      mstore\n      0x20\n      add\n      swap1\n      dup2\n      mstore\n      0x20\n      add\n      0x00\n      keccak256\n        /* \"enumpractice.sol\":3945:4008  productionRoutine memory prodr = mappingRoutine[_routineNumber] */\n      mload(0x40)\n      dup1\n      0xe0\n      add\n      0x40\n      mstore\n      swap1\n      dup2\n      0x00\n      dup3\n      add\n      sload\n      dup2\n      mstore\n      0x20\n      add\n      0x01\n      dup3\n      add\n      sload\n      dup2\n      mstore\n      0x20\n      add\n      0x02\n      dup3\n      add\n      sload\n      dup2\n      mstore\n      0x20\n      add\n      0x03\n      dup3\n      add\n      sload\n      dup2\n      mstore\n      0x20\n      add\n      0x04\n      dup3\n      add\n      sload\n      dup2\n      mstore\n      0x20\n      add\n      0x05\n      dup3\n      add\n      sload\n      dup2\n      mstore\n      0x20\n      add\n      0x06\n      dup3\n      add\n      0x00\n      swap1\n      sload\n      swap1\n      0x0100\n      exp\n      swap1\n      div\n      0xff\n      and\n      0x05\n      dup2\n      gt\n      iszero\n      tag_188\n      jumpi\n      tag_189\n      tag_38\n      jump\t// in\n    tag_189:\n    tag_188:\n      0x05\n      dup2\n      gt\n      iszero\n      tag_190\n      jumpi\n      tag_191\n      tag_38\n      jump\t// in\n    tag_191:\n    tag_190:\n      dup2\n      mstore\n      pop\n      pop\n      swap1\n      pop\n        /* \"enumpractice.sol\":4037:4052  block.timestamp */\n      timestamp\n        /* \"enumpractice.sol\":4018:4023  prodr */\n      dup2\n        /* \"enumpractice.sol\":4018:4034  prodr.supplyDate */\n      0xa0\n      add\n        /* \"enumpractice.sol\":4018:4052  prodr.supplyDate = block.timestamp */\n      dup2\n      dup2\n      mstore\n      pop\n      pop\n        /* \"enumpractice.sol\":4087:4117  progress.suppling_to_suppliers */\n      0x04\n        /* \"enumpractice.sol\":4062:4067  prodr */\n      dup2\n        /* \"enumpractice.sol\":4062:4083  prodr.routineProgress */\n      0xc0\n      add\n        /* \"enumpractice.sol\":4062:4117  prodr.routineProgress =  progress.suppling_to_suppliers */\n      swap1\n      0x05\n      dup2\n      gt\n      iszero\n      tag_192\n      jumpi\n      tag_193\n      tag_38\n      jump\t// in\n    tag_193:\n    tag_192:\n      swap1\n      dup2\n      0x05\n      dup2\n      gt\n      iszero\n      tag_194\n      jumpi\n      tag_195\n      tag_38\n      jump\t// in\n    tag_195:\n    tag_194:\n      dup2\n      mstore\n      pop\n      pop\n        /* \"enumpractice.sol\":4160:4165  prodr */\n      dup1\n        /* \"enumpractice.sol\":4127:4141  mappingRoutine */\n      0x09\n        /* \"enumpractice.sol\":4127:4157  mappingRoutine[_routineNumber] */\n      0x00\n        /* \"enumpractice.sol\":4142:4156  _routineNumber */\n      dup5\n        /* \"enumpractice.sol\":4127:4157  mappingRoutine[_routineNumber] */\n      dup2\n      mstore\n      0x20\n      add\n      swap1\n      dup2\n      mstore\n      0x20\n      add\n      0x00\n      keccak256\n        /* \"enumpractice.sol\":4127:4165  mappingRoutine[_routineNumber] = prodr */\n      0x00\n      dup3\n      add\n      mload\n      dup2\n      0x00\n      add\n      sstore\n      0x20\n      dup3\n      add\n      mload\n      dup2\n      0x01\n      add\n      sstore\n      0x40\n      dup3\n      add\n      mload\n      dup2\n      0x02\n      add\n      sstore\n      0x60\n      dup3\n      add\n      mload\n      dup2\n      0x03\n      add\n      sstore\n      0x80\n      dup3\n      add\n      mload\n      dup2\n      0x04\n      add\n      sstore\n      0xa0\n      dup3\n      add\n      mload\n      dup2\n      0x05\n      add\n      sstore\n      0xc0\n      dup3\n      add\n      mload\n      dup2\n      0x06\n      add\n      exp(0x0100, 0x00)\n      dup2\n      sload\n      dup2\n      0xff\n      mul\n      not\n      and\n      swap1\n      dup4\n      0x05\n      dup2\n      gt\n      iszero\n      tag_196\n      jumpi\n      tag_197\n      tag_38\n      jump\t// in\n    tag_197:\n    tag_196:\n      mul\n      or\n      swap1\n      sstore\n      pop\n      swap1\n      pop\n      pop\n        /* \"enumpractice.sol\":3468:4173  {... */\n      pop\n        /* \"enumpractice.sol\":3416:4173  function CompleteSupply(uint _routineNumber) public {... */\n      pop\n      jump\t// out\n        /* \"#utility.yul\":88:205   */\n    tag_199:\n        /* \"#utility.yul\":197:198   */\n      0x00\n        /* \"#utility.yul\":194:195   */\n      dup1\n        /* \"#utility.yul\":187:199   */\n      revert\n        /* \"#utility.yul\":334:411   */\n    tag_201:\n        /* \"#utility.yul\":371:378   */\n      0x00\n        /* \"#utility.yul\":400:405   */\n      dup2\n        /* \"#utility.yul\":389:405   */\n      swap1\n      pop\n        /* \"#utility.yul\":334:411   */\n      swap2\n      swap1\n      pop\n      jump\t// out\n        /* \"#utility.yul\":417:539   */\n    tag_202:\n        /* \"#utility.yul\":490:514   */\n      tag_221\n        /* \"#utility.yul\":508:513   */\n      dup2\n        /* \"#utility.yul\":490:514   */\n      tag_201\n      jump\t// in\n    tag_221:\n        /* \"#utility.yul\":483:488   */\n      dup2\n        /* \"#utility.yul\":480:515   */\n      eq\n        /* \"#utility.yul\":470:533   */\n      tag_222\n      jumpi\n        /* \"#utility.yul\":529:530   */\n      0x00\n        /* \"#utility.yul\":526:527   */\n      dup1\n        /* \"#utility.yul\":519:531   */\n      revert\n        /* \"#utility.yul\":470:533   */\n    tag_222:\n        /* \"#utility.yul\":417:539   */\n      pop\n      jump\t// out\n        /* \"#utility.yul\":545:684   */\n    tag_203:\n        /* \"#utility.yul\":591:596   */\n      0x00\n        /* \"#utility.yul\":629:635   */\n      dup2\n        /* \"#utility.yul\":616:636   */\n      calldataload\n        /* \"#utility.yul\":607:636   */\n      swap1\n      pop\n        /* \"#utility.yul\":645:678   */\n      tag_224\n        /* \"#utility.yul\":672:677   */\n      dup2\n        /* \"#utility.yul\":645:678   */\n      tag_202\n      jump\t// in\n    tag_224:\n        /* \"#utility.yul\":545:684   */\n      swap3\n      swap2\n      pop\n      pop\n      jump\t// out\n        /* \"#utility.yul\":690:1019   */\n    tag_13:\n        /* \"#utility.yul\":749:755   */\n      0x00\n        /* \"#utility.yul\":798:800   */\n      0x20\n        /* \"#utility.yul\":786:795   */\n      dup3\n        /* \"#utility.yul\":777:784   */\n      dup5\n        /* \"#utility.yul\":773:796   */\n      sub\n        /* \"#utility.yul\":769:801   */\n      slt\n        /* \"#utility.yul\":766:885   */\n      iszero\n      tag_226\n      jumpi\n        /* \"#utility.yul\":804:883   */\n      tag_227\n      tag_199\n      jump\t// in\n    tag_227:\n        /* \"#utility.yul\":766:885   */\n    tag_226:\n        /* \"#utility.yul\":924:925   */\n      0x00\n        /* \"#utility.yul\":949:1002   */\n      tag_228\n        /* \"#utility.yul\":994:1001   */\n      dup5\n        /* \"#utility.yul\":985:991   */\n      dup3\n        /* \"#utility.yul\":974:983   */\n      dup6\n        /* \"#utility.yul\":970:992   */\n      add\n        /* \"#utility.yul\":949:1002   */\n      tag_203\n      jump\t// in\n    tag_228:\n        /* \"#utility.yul\":939:1002   */\n      swap2\n      pop\n        /* \"#utility.yul\":895:1012   */\n      pop\n        /* \"#utility.yul\":690:1019   */\n      swap3\n      swap2\n      pop\n      pop\n      jump\t// out\n        /* \"#utility.yul\":1025:1143   */\n    tag_204:\n        /* \"#utility.yul\":1112:1136   */\n      tag_230\n        /* \"#utility.yul\":1130:1135   */\n      dup2\n        /* \"#utility.yul\":1112:1136   */\n      tag_201\n      jump\t// in\n    tag_230:\n        /* \"#utility.yul\":1107:1110   */\n      dup3\n        /* \"#utility.yul\":1100:1137   */\n      mstore\n        /* \"#utility.yul\":1025:1143   */\n      pop\n      pop\n      jump\t// out\n        /* \"#utility.yul\":1149:1329   */\n    tag_38:\n        /* \"#utility.yul\":1197:1274   */\n      0x4e487b7100000000000000000000000000000000000000000000000000000000\n        /* \"#utility.yul\":1194:1195   */\n      0x00\n        /* \"#utility.yul\":1187:1275   */\n      mstore\n        /* \"#utility.yul\":1294:1298   */\n      0x21\n        /* \"#utility.yul\":1291:1292   */\n      0x04\n        /* \"#utility.yul\":1284:1299   */\n      mstore\n        /* \"#utility.yul\":1318:1322   */\n      0x24\n        /* \"#utility.yul\":1315:1316   */\n      0x00\n        /* \"#utility.yul\":1308:1323   */\n      revert\n        /* \"#utility.yul\":1335:1451   */\n    tag_205:\n        /* \"#utility.yul\":1419:1420   */\n      0x06\n        /* \"#utility.yul\":1412:1417   */\n      dup2\n        /* \"#utility.yul\":1409:1421   */\n      lt\n        /* \"#utility.yul\":1399:1445   */\n      tag_233\n      jumpi\n        /* \"#utility.yul\":1425:1443   */\n      tag_234\n      tag_38\n      jump\t// in\n    tag_234:\n        /* \"#utility.yul\":1399:1445   */\n    tag_233:\n        /* \"#utility.yul\":1335:1451   */\n      pop\n      jump\t// out\n        /* \"#utility.yul\":1457:1590   */\n    tag_206:\n        /* \"#utility.yul\":1505:1512   */\n      0x00\n        /* \"#utility.yul\":1534:1539   */\n      dup2\n        /* \"#utility.yul\":1523:1539   */\n      swap1\n      pop\n        /* \"#utility.yul\":1540:1584   */\n      tag_236\n        /* \"#utility.yul\":1578:1583   */\n      dup3\n        /* \"#utility.yul\":1540:1584   */\n      tag_205\n      jump\t// in\n    tag_236:\n        /* \"#utility.yul\":1457:1590   */\n      swap2\n      swap1\n      pop\n      jump\t// out\n        /* \"#utility.yul\":1596:1729   */\n    tag_207:\n        /* \"#utility.yul\":1655:1664   */\n      0x00\n        /* \"#utility.yul\":1688:1723   */\n      tag_238\n        /* \"#utility.yul\":1717:1722   */\n      dup3\n        /* \"#utility.yul\":1688:1723   */\n      tag_206\n      jump\t// in\n    tag_238:\n        /* \"#utility.yul\":1675:1723   */\n      swap1\n      pop\n        /* \"#utility.yul\":1596:1729   */\n      swap2\n      swap1\n      pop\n      jump\t// out\n        /* \"#utility.yul\":1735:1884   */\n    tag_208:\n        /* \"#utility.yul\":1831:1877   */\n      tag_240\n        /* \"#utility.yul\":1871:1876   */\n      dup2\n        /* \"#utility.yul\":1831:1877   */\n      tag_207\n      jump\t// in\n    tag_240:\n        /* \"#utility.yul\":1826:1829   */\n      dup3\n        /* \"#utility.yul\":1819:1878   */\n      mstore\n        /* \"#utility.yul\":1735:1884   */\n      pop\n      pop\n      jump\t// out\n        /* \"#utility.yul\":1890:2794   */\n    tag_19:\n        /* \"#utility.yul\":2160:2164   */\n      0x00\n        /* \"#utility.yul\":2198:2201   */\n      0xe0\n        /* \"#utility.yul\":2187:2196   */\n      dup3\n        /* \"#utility.yul\":2183:2202   */\n      add\n        /* \"#utility.yul\":2175:2202   */\n      swap1\n      pop\n        /* \"#utility.yul\":2212:2283   */\n      tag_242\n        /* \"#utility.yul\":2280:2281   */\n      0x00\n        /* \"#utility.yul\":2269:2278   */\n      dup4\n        /* \"#utility.yul\":2265:2282   */\n      add\n        /* \"#utility.yul\":2256:2262   */\n      dup11\n        /* \"#utility.yul\":2212:2283   */\n      tag_204\n      jump\t// in\n    tag_242:\n        /* \"#utility.yul\":2293:2365   */\n      tag_243\n        /* \"#utility.yul\":2361:2363   */\n      0x20\n        /* \"#utility.yul\":2350:2359   */\n      dup4\n        /* \"#utility.yul\":2346:2364   */\n      add\n        /* \"#utility.yul\":2337:2343   */\n      dup10\n        /* \"#utility.yul\":2293:2365   */\n      tag_204\n      jump\t// in\n    tag_243:\n        /* \"#utility.yul\":2375:2447   */\n      tag_244\n        /* \"#utility.yul\":2443:2445   */\n      0x40\n        /* \"#utility.yul\":2432:2441   */\n      dup4\n        /* \"#utility.yul\":2428:2446   */\n      add\n        /* \"#utility.yul\":2419:2425   */\n      dup9\n        /* \"#utility.yul\":2375:2447   */\n      tag_204\n      jump\t// in\n    tag_244:\n        /* \"#utility.yul\":2457:2529   */\n      tag_245\n        /* \"#utility.yul\":2525:2527   */\n      0x60\n        /* \"#utility.yul\":2514:2523   */\n      dup4\n        /* \"#utility.yul\":2510:2528   */\n      add\n        /* \"#utility.yul\":2501:2507   */\n      dup8\n        /* \"#utility.yul\":2457:2529   */\n      tag_204\n      jump\t// in\n    tag_245:\n        /* \"#utility.yul\":2539:2612   */\n      tag_246\n        /* \"#utility.yul\":2607:2610   */\n      0x80\n        /* \"#utility.yul\":2596:2605   */\n      dup4\n        /* \"#utility.yul\":2592:2611   */\n      add\n        /* \"#utility.yul\":2583:2589   */\n      dup7\n        /* \"#utility.yul\":2539:2612   */\n      tag_204\n      jump\t// in\n    tag_246:\n        /* \"#utility.yul\":2622:2695   */\n      tag_247\n        /* \"#utility.yul\":2690:2693   */\n      0xa0\n        /* \"#utility.yul\":2679:2688   */\n      dup4\n        /* \"#utility.yul\":2675:2694   */\n      add\n        /* \"#utility.yul\":2666:2672   */\n      dup6\n        /* \"#utility.yul\":2622:2695   */\n      tag_204\n      jump\t// in\n    tag_247:\n        /* \"#utility.yul\":2705:2787   */\n      tag_248\n        /* \"#utility.yul\":2782:2785   */\n      0xc0\n        /* \"#utility.yul\":2771:2780   */\n      dup4\n        /* \"#utility.yul\":2767:2786   */\n      add\n        /* \"#utility.yul\":2758:2764   */\n      dup5\n        /* \"#utility.yul\":2705:2787   */\n      tag_208\n      jump\t// in\n    tag_248:\n        /* \"#utility.yul\":1890:2794   */\n      swap9\n      swap8\n      pop\n      pop\n      pop\n      pop\n      pop\n      pop\n      pop\n      pop\n      jump\t// out\n        /* \"#utility.yul\":2800:3022   */\n    tag_28:\n        /* \"#utility.yul\":2893:2897   */\n      0x00\n        /* \"#utility.yul\":2931:2933   */\n      0x20\n        /* \"#utility.yul\":2920:2929   */\n      dup3\n        /* \"#utility.yul\":2916:2934   */\n      add\n        /* \"#utility.yul\":2908:2934   */\n      swap1\n      pop\n        /* \"#utility.yul\":2944:3015   */\n      tag_250\n        /* \"#utility.yul\":3012:3013   */\n      0x00\n        /* \"#utility.yul\":3001:3010   */\n      dup4\n        /* \"#utility.yul\":2997:3014   */\n      add\n        /* \"#utility.yul\":2988:2994   */\n      dup5\n        /* \"#utility.yul\":2944:3015   */\n      tag_204\n      jump\t// in\n    tag_250:\n        /* \"#utility.yul\":2800:3022   */\n      swap3\n      swap2\n      pop\n      pop\n      jump\t// out\n        /* \"#utility.yul\":3028:3197   */\n    tag_209:\n        /* \"#utility.yul\":3112:3123   */\n      0x00\n        /* \"#utility.yul\":3146:3152   */\n      dup3\n        /* \"#utility.yul\":3141:3144   */\n      dup3\n        /* \"#utility.yul\":3134:3153   */\n      mstore\n        /* \"#utility.yul\":3186:3190   */\n      0x20\n        /* \"#utility.yul\":3181:3184   */\n      dup3\n        /* \"#utility.yul\":3177:3191   */\n      add\n        /* \"#utility.yul\":3162:3191   */\n      swap1\n      pop\n        /* \"#utility.yul\":3028:3197   */\n      swap3\n      swap2\n      pop\n      pop\n      jump\t// out\n        /* \"#utility.yul\":3203:3364   */\n    tag_210:\n        /* \"#utility.yul\":3343:3356   */\n      0x6e6f7420616c6c6f776564000000000000000000000000000000000000000000\n        /* \"#utility.yul\":3339:3340   */\n      0x00\n        /* \"#utility.yul\":3331:3337   */\n      dup3\n        /* \"#utility.yul\":3327:3341   */\n      add\n        /* \"#utility.yul\":3320:3357   */\n      mstore\n        /* \"#utility.yul\":3203:3364   */\n      pop\n      jump\t// out\n        /* \"#utility.yul\":3370:3736   */\n    tag_211:\n        /* \"#utility.yul\":3512:3515   */\n      0x00\n        /* \"#utility.yul\":3533:3600   */\n      tag_254\n        /* \"#utility.yul\":3597:3599   */\n      0x0b\n        /* \"#utility.yul\":3592:3595   */\n      dup4\n        /* \"#utility.yul\":3533:3600   */\n      tag_209\n      jump\t// in\n    tag_254:\n        /* \"#utility.yul\":3526:3600   */\n      swap2\n      pop\n        /* \"#utility.yul\":3609:3702   */\n      tag_255\n        /* \"#utility.yul\":3698:3701   */\n      dup3\n        /* \"#utility.yul\":3609:3702   */\n      tag_210\n      jump\t// in\n    tag_255:\n        /* \"#utility.yul\":3727:3729   */\n      0x20\n        /* \"#utility.yul\":3722:3725   */\n      dup3\n        /* \"#utility.yul\":3718:3730   */\n      add\n        /* \"#utility.yul\":3711:3730   */\n      swap1\n      pop\n        /* \"#utility.yul\":3370:3736   */\n      swap2\n      swap1\n      pop\n      jump\t// out\n        /* \"#utility.yul\":3742:4161   */\n    tag_63:\n        /* \"#utility.yul\":3908:3912   */\n      0x00\n        /* \"#utility.yul\":3946:3948   */\n      0x20\n        /* \"#utility.yul\":3935:3944   */\n      dup3\n        /* \"#utility.yul\":3931:3949   */\n      add\n        /* \"#utility.yul\":3923:3949   */\n      swap1\n      pop\n        /* \"#utility.yul\":3995:4004   */\n      dup2\n        /* \"#utility.yul\":3989:3993   */\n      dup2\n        /* \"#utility.yul\":3985:4005   */\n      sub\n        /* \"#utility.yul\":3981:3982   */\n      0x00\n        /* \"#utility.yul\":3970:3979   */\n      dup4\n        /* \"#utility.yul\":3966:3983   */\n      add\n        /* \"#utility.yul\":3959:4006   */\n      mstore\n        /* \"#utility.yul\":4023:4154   */\n      tag_257\n        /* \"#utility.yul\":4149:4153   */\n      dup2\n        /* \"#utility.yul\":4023:4154   */\n      tag_211\n      jump\t// in\n    tag_257:\n        /* \"#utility.yul\":4015:4154   */\n      swap1\n      pop\n        /* \"#utility.yul\":3742:4161   */\n      swap2\n      swap1\n      pop\n      jump\t// out\n        /* \"#utility.yul\":4167:4338   */\n    tag_212:\n        /* \"#utility.yul\":4307:4330   */\n      0x75736572206973206e6f74207065726d69747465640000000000000000000000\n        /* \"#utility.yul\":4303:4304   */\n      0x00\n        /* \"#utility.yul\":4295:4301   */\n      dup3\n        /* \"#utility.yul\":4291:4305   */\n      add\n        /* \"#utility.yul\":4284:4331   */\n      mstore\n        /* \"#utility.yul\":4167:4338   */\n      pop\n      jump\t// out\n        /* \"#utility.yul\":4344:4710   */\n    tag_213:\n        /* \"#utility.yul\":4486:4489   */\n      0x00\n        /* \"#utility.yul\":4507:4574   */\n      tag_260\n        /* \"#utility.yul\":4571:4573   */\n      0x15\n        /* \"#utility.yul\":4566:4569   */\n      dup4\n        /* \"#utility.yul\":4507:4574   */\n      tag_209\n      jump\t// in\n    tag_260:\n        /* \"#utility.yul\":4500:4574   */\n      swap2\n      pop\n        /* \"#utility.yul\":4583:4676   */\n      tag_261\n        /* \"#utility.yul\":4672:4675   */\n      dup3\n        /* \"#utility.yul\":4583:4676   */\n      tag_212\n      jump\t// in\n    tag_261:\n        /* \"#utility.yul\":4701:4703   */\n      0x20\n        /* \"#utility.yul\":4696:4699   */\n      dup3\n        /* \"#utility.yul\":4692:4704   */\n      add\n        /* \"#utility.yul\":4685:4704   */\n      swap1\n      pop\n        /* \"#utility.yul\":4344:4710   */\n      swap2\n      swap1\n      pop\n      jump\t// out\n        /* \"#utility.yul\":4716:5135   */\n    tag_114:\n        /* \"#utility.yul\":4882:4886   */\n      0x00\n        /* \"#utility.yul\":4920:4922   */\n      0x20\n        /* \"#utility.yul\":4909:4918   */\n      dup3\n        /* \"#utility.yul\":4905:4923   */\n      add\n        /* \"#utility.yul\":4897:4923   */\n      swap1\n      pop\n        /* \"#utility.yul\":4969:4978   */\n      dup2\n        /* \"#utility.yul\":4963:4967   */\n      dup2\n        /* \"#utility.yul\":4959:4979   */\n      sub\n        /* \"#utility.yul\":4955:4956   */\n      0x00\n        /* \"#utility.yul\":4944:4953   */\n      dup4\n        /* \"#utility.yul\":4940:4957   */\n      add\n        /* \"#utility.yul\":4933:4980   */\n      mstore\n        /* \"#utility.yul\":4997:5128   */\n      tag_263\n        /* \"#utility.yul\":5123:5127   */\n      dup2\n        /* \"#utility.yul\":4997:5128   */\n      tag_213\n      jump\t// in\n    tag_263:\n        /* \"#utility.yul\":4989:5128   */\n      swap1\n      pop\n        /* \"#utility.yul\":4716:5135   */\n      swap2\n      swap1\n      pop\n      jump\t// out\n        /* \"#utility.yul\":5141:5321   */\n    tag_214:\n        /* \"#utility.yul\":5189:5266   */\n      0x4e487b7100000000000000000000000000000000000000000000000000000000\n        /* \"#utility.yul\":5186:5187   */\n      0x00\n        /* \"#utility.yul\":5179:5267   */\n      mstore\n        /* \"#utility.yul\":5286:5290   */\n      0x11\n        /* \"#utility.yul\":5283:5284   */\n      0x04\n        /* \"#utility.yul\":5276:5291   */\n      mstore\n        /* \"#utility.yul\":5310:5314   */\n      0x24\n        /* \"#utility.yul\":5307:5308   */\n      0x00\n        /* \"#utility.yul\":5300:5315   */\n      revert\n        /* \"#utility.yul\":5327:5560   */\n    tag_117:\n        /* \"#utility.yul\":5366:5369   */\n      0x00\n        /* \"#utility.yul\":5389:5413   */\n      tag_266\n        /* \"#utility.yul\":5407:5412   */\n      dup3\n        /* \"#utility.yul\":5389:5413   */\n      tag_201\n      jump\t// in\n    tag_266:\n        /* \"#utility.yul\":5380:5413   */\n      swap2\n      pop\n        /* \"#utility.yul\":5435:5501   */\n      0xffffffffffffffffffffffffffffffffffffffffffffffffffffffffffffffff\n        /* \"#utility.yul\":5428:5433   */\n      dup3\n        /* \"#utility.yul\":5425:5502   */\n      sub\n        /* \"#utility.yul\":5422:5525   */\n      tag_267\n      jumpi\n        /* \"#utility.yul\":5505:5523   */\n      tag_268\n      tag_214\n      jump\t// in\n    tag_268:\n        /* \"#utility.yul\":5422:5525   */\n    tag_267:\n        /* \"#utility.yul\":5552:5553   */\n      0x01\n        /* \"#utility.yul\":5545:5550   */\n      dup3\n        /* \"#utility.yul\":5541:5554   */\n      add\n        /* \"#utility.yul\":5534:5554   */\n      swap1\n      pop\n        /* \"#utility.yul\":5327:5560   */\n      swap2\n      swap1\n      pop\n      jump\t// out\n\n    auxdata: 0xa2646970667358221220fc7a18a29ba5d7db06d348b3266ae32003a023755917725209826a5bd6f09c8464736f6c63430008140033\n}\n",
				"bytecode": {
					"linkReferences": {},
					"object": "60a06040525f8055348015610012575f80fd5b503373ffffffffffffffffffffffffffffffffffffffff1660808173ffffffffffffffffffffffffffffffffffffffff16815250506080516112e361005f5f395f6107d001526112e35ff3fe608060405234801561000f575f80fd5b506004361061007b575f3560e01c8063d38ed81f11610059578063d38ed81f146100ed578063d9ab25ad146100f7578063dd76e6e214610115578063f3bb763b146101315761007b565b80635c17bef11461007f578063cbc451f71461009b578063cec560b2146100d1575b5f80fd5b61009960048036038101906100949190611026565b61014d565b005b6100b560048036038101906100b09190611026565b610469565b6040516100c897969594939291906110d3565b60405180910390f35b6100eb60048036038101906100e69190611026565b6104b3565b005b6100f56107ce565b005b6100ff6109b4565b60405161010c9190611140565b60405180910390f35b61012f600480360381019061012a9190611026565b6109b9565b005b61014b60048036038101906101469190611026565b610cd4565b005b6001600581111561016157610160611060565b5b60095f8381526020019081526020015f206006015f9054906101000a900460ff16600581111561019457610193611060565b5b141580156101e75750600260058111156101b1576101b0611060565b5b60095f8381526020019081526020015f206006015f9054906101000a900460ff1660058111156101e4576101e3611060565b5b14155b801561023857506003600581111561020257610201611060565b5b60095f8381526020019081526020015f206006015f9054906101000a900460ff16600581111561023557610234611060565b5b14155b801561028957506004600581111561025357610252611060565b5b60095f8381526020019081526020015f206006015f9054906101000a900460ff16600581111561028657610285611060565b5b14155b80156102d957506005808111156102a3576102a2611060565b5b60095f8381526020019081526020015f206006015f9054906101000a900460ff1660058111156102d6576102d5611060565b5b14155b610318576040517f08c379a000000000000000000000000000000000000000000000000000000000815260040161030f906111b3565b60405180910390fd5b5f60095f8381526020019081526020015f206040518060e00160405290815f82015481526020016001820154815260200160028201548152602001600382015481526020016004820154815260200160058201548152602001600682015f9054906101000a900460ff16600581111561039457610393611060565b5b60058111156103a6576103a5611060565b5b8152505090504281604001818152505060018160c0019060058111156103cf576103ce611060565b5b908160058111156103e3576103e2611060565b5b815250508060095f8481526020019081526020015f205f820151815f01556020820151816001015560408201518160020155606082015181600301556080820151816004015560a0820151816005015560c0820151816006015f6101000a81548160ff0219169083600581111561045d5761045c611060565b5b02179055509050505050565b6009602052805f5260405f205f91509050805f015490806001015490806002015490806003015490806004015490806005015490806006015f9054906101000a900460ff16905087565b5f60058111156104c6576104c5611060565b5b60095f8381526020019081526020015f206006015f9054906101000a900460ff1660058111156104f9576104f8611060565b5b1415801561054c57506002600581111561051657610515611060565b5b60095f8381526020019081526020015f206006015f9054906101000a900460ff16600581111561054957610548611060565b5b14155b801561059d57506003600581111561056757610566611060565b5b60095f8381526020019081526020015f206006015f9054906101000a900460ff16600581111561059a57610599611060565b5b14155b80156105ee5750600460058111156105b8576105b7611060565b5b60095f8381526020019081526020015f206006015f9054906101000a900460ff1660058111156105eb576105ea611060565b5b14155b801561063e575060058081111561060857610607611060565b5b60095f8381526020019081526020015f206006015f9054906101000a900460ff16600581111561063b5761063a611060565b5b14155b61067d576040517f08c379a0000000000000000000000000000000000000000000000000000000008152600401610674906111b3565b60405180910390fd5b5f60095f8381526020019081526020015f206040518060e00160405290815f82015481526020016001820154815260200160028201548152602001600382015481526020016004820154815260200160058201548152602001600682015f9054906101000a900460ff1660058111156106f9576106f8611060565b5b600581111561070b5761070a611060565b5b8152505090504281606001818152505060028160c00190600581111561073457610733611060565b5b9081600581111561074857610747611060565b5b815250508060095f8481526020019081526020015f205f820151815f01556020820151816001015560408201518160020155606082015181600301556080820151816004015560a0820151816005015560c0820151816006015f6101000a81548160ff021916908360058111156107c2576107c1611060565b5b02179055509050505050565b7f000000000000000000000000000000000000000000000000000000000000000073ffffffffffffffffffffffffffffffffffffffff163373ffffffffffffffffffffffffffffffffffffffff161461085c576040517f08c379a00000000000000000000000000000000000000000000000000000000081526004016108539061121b565b60405180910390fd5b5f8081548092919061086d90611266565b91905055506040518060e001604052805f5481526020014281526020015f81526020015f81526020015f81526020015f81526020015f60058111156108b5576108b4611060565b5b81525060025f820151815f01556020820151816001015560408201518160020155606082015181600301556080820151816004015560a0820151816005015560c0820151816006015f6101000a81548160ff0219169083600581111561091e5761091d611060565b5b0217905550905050600260095f805481526020019081526020015f205f820154815f01556001820154816001015560028201548160020155600382015481600301556004820154816004015560058201548160050155600682015f9054906101000a900460ff16816006015f6101000a81548160ff021916908360058111156109aa576109a9611060565b5b0217905550905050565b5f5481565b5f60058111156109cc576109cb611060565b5b60095f8381526020019081526020015f206006015f9054906101000a900460ff1660058111156109ff576109fe611060565b5b14158015610a52575060016005811115610a1c57610a1b611060565b5b60095f8381526020019081526020015f206006015f9054906101000a900460ff166005811115610a4f57610a4e611060565b5b14155b8015610aa3575060036005811115610a6d57610a6c611060565b5b60095f8381526020019081526020015f206006015f9054906101000a900460ff166005811115610aa057610a9f611060565b5b14155b8015610af4575060046005811115610abe57610abd611060565b5b60095f8381526020019081526020015f206006015f9054906101000a900460ff166005811115610af157610af0611060565b5b14155b8015610b445750600580811115610b0e57610b0d611060565b5b60095f8381526020019081526020015f206006015f9054906101000a900460ff166005811115610b4157610b40611060565b5b14155b610b83576040517f08c379a0000000000000000000000000000000000000000000000000000000008152600401610b7a906111b3565b60405180910390fd5b5f60095f8381526020019081526020015f206040518060e00160405290815f82015481526020016001820154815260200160028201548152602001600382015481526020016004820154815260200160058201548152602001600682015f9054906101000a900460ff166005811115610bff57610bfe611060565b5b6005811115610c1157610c10611060565b5b8152505090504281608001818152505060038160c001906005811115610c3a57610c39611060565b5b90816005811115610c4e57610c4d611060565b5b815250508060095f8481526020019081526020015f205f820151815f01556020820151816001015560408201518160020155606082015181600301556080820151816004015560a0820151816005015560c0820151816006015f6101000a81548160ff02191690836005811115610cc857610cc7611060565b5b02179055509050505050565b5f6005811115610ce757610ce6611060565b5b60095f8381526020019081526020015f206006015f9054906101000a900460ff166005811115610d1a57610d19611060565b5b14158015610d6d575060016005811115610d3757610d36611060565b5b60095f8381526020019081526020015f206006015f9054906101000a900460ff166005811115610d6a57610d69611060565b5b14155b8015610dbd5750600580811115610d8757610d86611060565b5b60095f8381526020019081526020015f206006015f9054906101000a900460ff166005811115610dba57610db9611060565b5b14155b8015610e0e575060046005811115610dd857610dd7611060565b5b60095f8381526020019081526020015f206006015f9054906101000a900460ff166005811115610e0b57610e0a611060565b5b14155b8015610e5f575060026005811115610e2957610e28611060565b5b60095f8381526020019081526020015f206006015f9054906101000a900460ff166005811115610e5c57610e5b611060565b5b14155b610e9e576040517f08c379a0000000000000000000000000000000000000000000000000000000008152600401610e95906111b3565b60405180910390fd5b5f60095f8381526020019081526020015f206040518060e00160405290815f82015481526020016001820154815260200160028201548152602001600382015481526020016004820154815260200160058201548152602001600682015f9054906101000a900460ff166005811115610f1a57610f19611060565b5b6005811115610f2c57610f2b611060565b5b815250509050428160a001818152505060048160c001906005811115610f5557610f54611060565b5b90816005811115610f6957610f68611060565b5b815250508060095f8481526020019081526020015f205f820151815f01556020820151816001015560408201518160020155606082015181600301556080820151816004015560a0820151816005015560c0820151816006015f6101000a81548160ff02191690836005811115610fe357610fe2611060565b5b02179055509050505050565b5f80fd5b5f819050919050565b61100581610ff3565b811461100f575f80fd5b50565b5f8135905061102081610ffc565b92915050565b5f6020828403121561103b5761103a610fef565b5b5f61104884828501611012565b91505092915050565b61105a81610ff3565b82525050565b7f4e487b71000000000000000000000000000000000000000000000000000000005f52602160045260245ffd5b6006811061109e5761109d611060565b5b50565b5f8190506110ae8261108d565b919050565b5f6110bd826110a1565b9050919050565b6110cd816110b3565b82525050565b5f60e0820190506110e65f83018a611051565b6110f36020830189611051565b6111006040830188611051565b61110d6060830187611051565b61111a6080830186611051565b61112760a0830185611051565b61113460c08301846110c4565b98975050505050505050565b5f6020820190506111535f830184611051565b92915050565b5f82825260208201905092915050565b7f6e6f7420616c6c6f7765640000000000000000000000000000000000000000005f82015250565b5f61119d600b83611159565b91506111a882611169565b602082019050919050565b5f6020820190508181035f8301526111ca81611191565b9050919050565b7f75736572206973206e6f74207065726d697474656400000000000000000000005f82015250565b5f611205601583611159565b9150611210826111d1565b602082019050919050565b5f6020820190508181035f830152611232816111f9565b9050919050565b7f4e487b71000000000000000000000000000000000000000000000000000000005f52601160045260245ffd5b5f61127082610ff3565b91507fffffffffffffffffffffffffffffffffffffffffffffffffffffffffffffffff82036112a2576112a1611239565b5b60018201905091905056fea2646970667358221220fc7a18a29ba5d7db06d348b3266ae32003a023755917725209826a5bd6f09c8464736f6c63430008140033",
					"opcodes": "PUSH1 0xA0 PUSH1 0x40 MSTORE PUSH0 DUP1 SSTORE CALLVALUE DUP1 ISZERO PUSH2 0x12 JUMPI PUSH0 DUP1 REVERT JUMPDEST POP CALLER PUSH20 0xFFFFFFFFFFFFFFFFFFFFFFFFFFFFFFFFFFFFFFFF AND PUSH1 0x80 DUP2 PUSH20 0xFFFFFFFFFFFFFFFFFFFFFFFFFFFFFFFFFFFFFFFF AND DUP2 MSTORE POP POP PUSH1 0x80 MLOAD PUSH2 0x12E3 PUSH2 0x5F PUSH0 CODECOPY PUSH0 PUSH2 0x7D0 ADD MSTORE PUSH2 0x12E3 PUSH0 RETURN INVALID PUSH1 0x80 PUSH1 0x40 MSTORE CALLVALUE DUP1 ISZERO PUSH2 0xF JUMPI PUSH0 DUP1 REVERT JUMPDEST POP PUSH1 0x4 CALLDATASIZE LT PUSH2 0x7B JUMPI PUSH0 CALLDATALOAD PUSH1 0xE0 SHR DUP1 PUSH4 0xD38ED81F GT PUSH2 0x59 JUMPI DUP1 PUSH4 0xD38ED81F EQ PUSH2 0xED JUMPI DUP1 PUSH4 0xD9AB25AD EQ PUSH2 0xF7 JUMPI DUP1 PUSH4 0xDD76E6E2 EQ PUSH2 0x115 JUMPI DUP1 PUSH4 0xF3BB763B EQ PUSH2 0x131 JUMPI PUSH2 0x7B JUMP JUMPDEST DUP1 PUSH4 0x5C17BEF1 EQ PUSH2 0x7F JUMPI DUP1 PUSH4 0xCBC451F7 EQ PUSH2 0x9B JUMPI DUP1 PUSH4 0xCEC560B2 EQ PUSH2 0xD1 JUMPI JUMPDEST PUSH0 DUP1 REVERT JUMPDEST PUSH2 0x99 PUSH1 0x4 DUP1 CALLDATASIZE SUB DUP2 ADD SWAP1 PUSH2 0x94 SWAP2 SWAP1 PUSH2 0x1026 JUMP JUMPDEST PUSH2 0x14D JUMP JUMPDEST STOP JUMPDEST PUSH2 0xB5 PUSH1 0x4 DUP1 CALLDATASIZE SUB DUP2 ADD SWAP1 PUSH2 0xB0 SWAP2 SWAP1 PUSH2 0x1026 JUMP JUMPDEST PUSH2 0x469 JUMP JUMPDEST PUSH1 0x40 MLOAD PUSH2 0xC8 SWAP8 SWAP7 SWAP6 SWAP5 SWAP4 SWAP3 SWAP2 SWAP1 PUSH2 0x10D3 JUMP JUMPDEST PUSH1 0x40 MLOAD DUP1 SWAP2 SUB SWAP1 RETURN JUMPDEST PUSH2 0xEB PUSH1 0x4 DUP1 CALLDATASIZE SUB DUP2 ADD SWAP1 PUSH2 0xE6 SWAP2 SWAP1 PUSH2 0x1026 JUMP JUMPDEST PUSH2 0x4B3 JUMP JUMPDEST STOP JUMPDEST PUSH2 0xF5 PUSH2 0x7CE JUMP JUMPDEST STOP JUMPDEST PUSH2 0xFF PUSH2 0x9B4 JUMP JUMPDEST PUSH1 0x40 MLOAD PUSH2 0x10C SWAP2 SWAP1 PUSH2 0x1140 JUMP JUMPDEST PUSH1 0x40 MLOAD DUP1 SWAP2 SUB SWAP1 RETURN JUMPDEST PUSH2 0x12F PUSH1 0x4 DUP1 CALLDATASIZE SUB DUP2 ADD SWAP1 PUSH2 0x12A SWAP2 SWAP1 PUSH2 0x1026 JUMP JUMPDEST PUSH2 0x9B9 JUMP JUMPDEST STOP JUMPDEST PUSH2 0x14B PUSH1 0x4 DUP1 CALLDATASIZE SUB DUP2 ADD SWAP1 PUSH2 0x146 SWAP2 SWAP1 PUSH2 0x1026 JUMP JUMPDEST PUSH2 0xCD4 JUMP JUMPDEST STOP JUMPDEST PUSH1 0x1 PUSH1 0x5 DUP2 GT ISZERO PUSH2 0x161 JUMPI PUSH2 0x160 PUSH2 0x1060 JUMP JUMPDEST JUMPDEST PUSH1 0x9 PUSH0 DUP4 DUP2 MSTORE PUSH1 0x20 ADD SWAP1 DUP2 MSTORE PUSH1 0x20 ADD PUSH0 KECCAK256 PUSH1 0x6 ADD PUSH0 SWAP1 SLOAD SWAP1 PUSH2 0x100 EXP SWAP1 DIV PUSH1 0xFF AND PUSH1 0x5 DUP2 GT ISZERO PUSH2 0x194 JUMPI PUSH2 0x193 PUSH2 0x1060 JUMP JUMPDEST JUMPDEST EQ ISZERO DUP1 ISZERO PUSH2 0x1E7 JUMPI POP PUSH1 0x2 PUSH1 0x5 DUP2 GT ISZERO PUSH2 0x1B1 JUMPI PUSH2 0x1B0 PUSH2 0x1060 JUMP JUMPDEST JUMPDEST PUSH1 0x9 PUSH0 DUP4 DUP2 MSTORE PUSH1 0x20 ADD SWAP1 DUP2 MSTORE PUSH1 0x20 ADD PUSH0 KECCAK256 PUSH1 0x6 ADD PUSH0 SWAP1 SLOAD SWAP1 PUSH2 0x100 EXP SWAP1 DIV PUSH1 0xFF AND PUSH1 0x5 DUP2 GT ISZERO PUSH2 0x1E4 JUMPI PUSH2 0x1E3 PUSH2 0x1060 JUMP JUMPDEST JUMPDEST EQ ISZERO JUMPDEST DUP1 ISZERO PUSH2 0x238 JUMPI POP PUSH1 0x3 PUSH1 0x5 DUP2 GT ISZERO PUSH2 0x202 JUMPI PUSH2 0x201 PUSH2 0x1060 JUMP JUMPDEST JUMPDEST PUSH1 0x9 PUSH0 DUP4 DUP2 MSTORE PUSH1 0x20 ADD SWAP1 DUP2 MSTORE PUSH1 0x20 ADD PUSH0 KECCAK256 PUSH1 0x6 ADD PUSH0 SWAP1 SLOAD SWAP1 PUSH2 0x100 EXP SWAP1 DIV PUSH1 0xFF AND PUSH1 0x5 DUP2 GT ISZERO PUSH2 0x235 JUMPI PUSH2 0x234 PUSH2 0x1060 JUMP JUMPDEST JUMPDEST EQ ISZERO JUMPDEST DUP1 ISZERO PUSH2 0x289 JUMPI POP PUSH1 0x4 PUSH1 0x5 DUP2 GT ISZERO PUSH2 0x253 JUMPI PUSH2 0x252 PUSH2 0x1060 JUMP JUMPDEST JUMPDEST PUSH1 0x9 PUSH0 DUP4 DUP2 MSTORE PUSH1 0x20 ADD SWAP1 DUP2 MSTORE PUSH1 0x20 ADD PUSH0 KECCAK256 PUSH1 0x6 ADD PUSH0 SWAP1 SLOAD SWAP1 PUSH2 0x100 EXP SWAP1 DIV PUSH1 0xFF AND PUSH1 0x5 DUP2 GT ISZERO PUSH2 0x286 JUMPI PUSH2 0x285 PUSH2 0x1060 JUMP JUMPDEST JUMPDEST EQ ISZERO JUMPDEST DUP1 ISZERO PUSH2 0x2D9 JUMPI POP PUSH1 0x5 DUP1 DUP2 GT ISZERO PUSH2 0x2A3 JUMPI PUSH2 0x2A2 PUSH2 0x1060 JUMP JUMPDEST JUMPDEST PUSH1 0x9 PUSH0 DUP4 DUP2 MSTORE PUSH1 0x20 ADD SWAP1 DUP2 MSTORE PUSH1 0x20 ADD PUSH0 KECCAK256 PUSH1 0x6 ADD PUSH0 SWAP1 SLOAD SWAP1 PUSH2 0x100 EXP SWAP1 DIV PUSH1 0xFF AND PUSH1 0x5 DUP2 GT ISZERO PUSH2 0x2D6 JUMPI PUSH2 0x2D5 PUSH2 0x1060 JUMP JUMPDEST JUMPDEST EQ ISZERO JUMPDEST PUSH2 0x318 JUMPI PUSH1 0x40 MLOAD PUSH32 0x8C379A000000000000000000000000000000000000000000000000000000000 DUP2 MSTORE PUSH1 0x4 ADD PUSH2 0x30F SWAP1 PUSH2 0x11B3 JUMP JUMPDEST PUSH1 0x40 MLOAD DUP1 SWAP2 SUB SWAP1 REVERT JUMPDEST PUSH0 PUSH1 0x9 PUSH0 DUP4 DUP2 MSTORE PUSH1 0x20 ADD SWAP1 DUP2 MSTORE PUSH1 0x20 ADD PUSH0 KECCAK256 PUSH1 0x40 MLOAD DUP1 PUSH1 0xE0 ADD PUSH1 0x40 MSTORE SWAP1 DUP2 PUSH0 DUP3 ADD SLOAD DUP2 MSTORE PUSH1 0x20 ADD PUSH1 0x1 DUP3 ADD SLOAD DUP2 MSTORE PUSH1 0x20 ADD PUSH1 0x2 DUP3 ADD SLOAD DUP2 MSTORE PUSH1 0x20 ADD PUSH1 0x3 DUP3 ADD SLOAD DUP2 MSTORE PUSH1 0x20 ADD PUSH1 0x4 DUP3 ADD SLOAD DUP2 MSTORE PUSH1 0x20 ADD PUSH1 0x5 DUP3 ADD SLOAD DUP2 MSTORE PUSH1 0x20 ADD PUSH1 0x6 DUP3 ADD PUSH0 SWAP1 SLOAD SWAP1 PUSH2 0x100 EXP SWAP1 DIV PUSH1 0xFF AND PUSH1 0x5 DUP2 GT ISZERO PUSH2 0x394 JUMPI PUSH2 0x393 PUSH2 0x1060 JUMP JUMPDEST JUMPDEST PUSH1 0x5 DUP2 GT ISZERO PUSH2 0x3A6 JUMPI PUSH2 0x3A5 PUSH2 0x1060 JUMP JUMPDEST JUMPDEST DUP2 MSTORE POP POP SWAP1 POP TIMESTAMP DUP2 PUSH1 0x40 ADD DUP2 DUP2 MSTORE POP POP PUSH1 0x1 DUP2 PUSH1 0xC0 ADD SWAP1 PUSH1 0x5 DUP2 GT ISZERO PUSH2 0x3CF JUMPI PUSH2 0x3CE PUSH2 0x1060 JUMP JUMPDEST JUMPDEST SWAP1 DUP2 PUSH1 0x5 DUP2 GT ISZERO PUSH2 0x3E3 JUMPI PUSH2 0x3E2 PUSH2 0x1060 JUMP JUMPDEST JUMPDEST DUP2 MSTORE POP POP DUP1 PUSH1 0x9 PUSH0 DUP5 DUP2 MSTORE PUSH1 0x20 ADD SWAP1 DUP2 MSTORE PUSH1 0x20 ADD PUSH0 KECCAK256 PUSH0 DUP3 ADD MLOAD DUP2 PUSH0 ADD SSTORE PUSH1 0x20 DUP3 ADD MLOAD DUP2 PUSH1 0x1 ADD SSTORE PUSH1 0x40 DUP3 ADD MLOAD DUP2 PUSH1 0x2 ADD SSTORE PUSH1 0x60 DUP3 ADD MLOAD DUP2 PUSH1 0x3 ADD SSTORE PUSH1 0x80 DUP3 ADD MLOAD DUP2 PUSH1 0x4 ADD SSTORE PUSH1 0xA0 DUP3 ADD MLOAD DUP2 PUSH1 0x5 ADD SSTORE PUSH1 0xC0 DUP3 ADD MLOAD DUP2 PUSH1 0x6 ADD PUSH0 PUSH2 0x100 EXP DUP2 SLOAD DUP2 PUSH1 0xFF MUL NOT AND SWAP1 DUP4 PUSH1 0x5 DUP2 GT ISZERO PUSH2 0x45D JUMPI PUSH2 0x45C PUSH2 0x1060 JUMP JUMPDEST JUMPDEST MUL OR SWAP1 SSTORE POP SWAP1 POP POP POP POP JUMP JUMPDEST PUSH1 0x9 PUSH1 0x20 MSTORE DUP1 PUSH0 MSTORE PUSH1 0x40 PUSH0 KECCAK256 PUSH0 SWAP2 POP SWAP1 POP DUP1 PUSH0 ADD SLOAD SWAP1 DUP1 PUSH1 0x1 ADD SLOAD SWAP1 DUP1 PUSH1 0x2 ADD SLOAD SWAP1 DUP1 PUSH1 0x3 ADD SLOAD SWAP1 DUP1 PUSH1 0x4 ADD SLOAD SWAP1 DUP1 PUSH1 0x5 ADD SLOAD SWAP1 DUP1 PUSH1 0x6 ADD PUSH0 SWAP1 SLOAD SWAP1 PUSH2 0x100 EXP SWAP1 DIV PUSH1 0xFF AND SWAP1 POP DUP8 JUMP JUMPDEST PUSH0 PUSH1 0x5 DUP2 GT ISZERO PUSH2 0x4C6 JUMPI PUSH2 0x4C5 PUSH2 0x1060 JUMP JUMPDEST JUMPDEST PUSH1 0x9 PUSH0 DUP4 DUP2 MSTORE PUSH1 0x20 ADD SWAP1 DUP2 MSTORE PUSH1 0x20 ADD PUSH0 KECCAK256 PUSH1 0x6 ADD PUSH0 SWAP1 SLOAD SWAP1 PUSH2 0x100 EXP SWAP1 DIV PUSH1 0xFF AND PUSH1 0x5 DUP2 GT ISZERO PUSH2 0x4F9 JUMPI PUSH2 0x4F8 PUSH2 0x1060 JUMP JUMPDEST JUMPDEST EQ ISZERO DUP1 ISZERO PUSH2 0x54C JUMPI POP PUSH1 0x2 PUSH1 0x5 DUP2 GT ISZERO PUSH2 0x516 JUMPI PUSH2 0x515 PUSH2 0x1060 JUMP JUMPDEST JUMPDEST PUSH1 0x9 PUSH0 DUP4 DUP2 MSTORE PUSH1 0x20 ADD SWAP1 DUP2 MSTORE PUSH1 0x20 ADD PUSH0 KECCAK256 PUSH1 0x6 ADD PUSH0 SWAP1 SLOAD SWAP1 PUSH2 0x100 EXP SWAP1 DIV PUSH1 0xFF AND PUSH1 0x5 DUP2 GT ISZERO PUSH2 0x549 JUMPI PUSH2 0x548 PUSH2 0x1060 JUMP JUMPDEST JUMPDEST EQ ISZERO JUMPDEST DUP1 ISZERO PUSH2 0x59D JUMPI POP PUSH1 0x3 PUSH1 0x5 DUP2 GT ISZERO PUSH2 0x567 JUMPI PUSH2 0x566 PUSH2 0x1060 JUMP JUMPDEST JUMPDEST PUSH1 0x9 PUSH0 DUP4 DUP2 MSTORE PUSH1 0x20 ADD SWAP1 DUP2 MSTORE PUSH1 0x20 ADD PUSH0 KECCAK256 PUSH1 0x6 ADD PUSH0 SWAP1 SLOAD SWAP1 PUSH2 0x100 EXP SWAP1 DIV PUSH1 0xFF AND PUSH1 0x5 DUP2 GT ISZERO PUSH2 0x59A JUMPI PUSH2 0x599 PUSH2 0x1060 JUMP JUMPDEST JUMPDEST EQ ISZERO JUMPDEST DUP1 ISZERO PUSH2 0x5EE JUMPI POP PUSH1 0x4 PUSH1 0x5 DUP2 GT ISZERO PUSH2 0x5B8 JUMPI PUSH2 0x5B7 PUSH2 0x1060 JUMP JUMPDEST JUMPDEST PUSH1 0x9 PUSH0 DUP4 DUP2 MSTORE PUSH1 0x20 ADD SWAP1 DUP2 MSTORE PUSH1 0x20 ADD PUSH0 KECCAK256 PUSH1 0x6 ADD PUSH0 SWAP1 SLOAD SWAP1 PUSH2 0x100 EXP SWAP1 DIV PUSH1 0xFF AND PUSH1 0x5 DUP2 GT ISZERO PUSH2 0x5EB JUMPI PUSH2 0x5EA PUSH2 0x1060 JUMP JUMPDEST JUMPDEST EQ ISZERO JUMPDEST DUP1 ISZERO PUSH2 0x63E JUMPI POP PUSH1 0x5 DUP1 DUP2 GT ISZERO PUSH2 0x608 JUMPI PUSH2 0x607 PUSH2 0x1060 JUMP JUMPDEST JUMPDEST PUSH1 0x9 PUSH0 DUP4 DUP2 MSTORE PUSH1 0x20 ADD SWAP1 DUP2 MSTORE PUSH1 0x20 ADD PUSH0 KECCAK256 PUSH1 0x6 ADD PUSH0 SWAP1 SLOAD SWAP1 PUSH2 0x100 EXP SWAP1 DIV PUSH1 0xFF AND PUSH1 0x5 DUP2 GT ISZERO PUSH2 0x63B JUMPI PUSH2 0x63A PUSH2 0x1060 JUMP JUMPDEST JUMPDEST EQ ISZERO JUMPDEST PUSH2 0x67D JUMPI PUSH1 0x40 MLOAD PUSH32 0x8C379A000000000000000000000000000000000000000000000000000000000 DUP2 MSTORE PUSH1 0x4 ADD PUSH2 0x674 SWAP1 PUSH2 0x11B3 JUMP JUMPDEST PUSH1 0x40 MLOAD DUP1 SWAP2 SUB SWAP1 REVERT JUMPDEST PUSH0 PUSH1 0x9 PUSH0 DUP4 DUP2 MSTORE PUSH1 0x20 ADD SWAP1 DUP2 MSTORE PUSH1 0x20 ADD PUSH0 KECCAK256 PUSH1 0x40 MLOAD DUP1 PUSH1 0xE0 ADD PUSH1 0x40 MSTORE SWAP1 DUP2 PUSH0 DUP3 ADD SLOAD DUP2 MSTORE PUSH1 0x20 ADD PUSH1 0x1 DUP3 ADD SLOAD DUP2 MSTORE PUSH1 0x20 ADD PUSH1 0x2 DUP3 ADD SLOAD DUP2 MSTORE PUSH1 0x20 ADD PUSH1 0x3 DUP3 ADD SLOAD DUP2 MSTORE PUSH1 0x20 ADD PUSH1 0x4 DUP3 ADD SLOAD DUP2 MSTORE PUSH1 0x20 ADD PUSH1 0x5 DUP3 ADD SLOAD DUP2 MSTORE PUSH1 0x20 ADD PUSH1 0x6 DUP3 ADD PUSH0 SWAP1 SLOAD SWAP1 PUSH2 0x100 EXP SWAP1 DIV PUSH1 0xFF AND PUSH1 0x5 DUP2 GT ISZERO PUSH2 0x6F9 JUMPI PUSH2 0x6F8 PUSH2 0x1060 JUMP JUMPDEST JUMPDEST PUSH1 0x5 DUP2 GT ISZERO PUSH2 0x70B JUMPI PUSH2 0x70A PUSH2 0x1060 JUMP JUMPDEST JUMPDEST DUP2 MSTORE POP POP SWAP1 POP TIMESTAMP DUP2 PUSH1 0x60 ADD DUP2 DUP2 MSTORE POP POP PUSH1 0x2 DUP2 PUSH1 0xC0 ADD SWAP1 PUSH1 0x5 DUP2 GT ISZERO PUSH2 0x734 JUMPI PUSH2 0x733 PUSH2 0x1060 JUMP JUMPDEST JUMPDEST SWAP1 DUP2 PUSH1 0x5 DUP2 GT ISZERO PUSH2 0x748 JUMPI PUSH2 0x747 PUSH2 0x1060 JUMP JUMPDEST JUMPDEST DUP2 MSTORE POP POP DUP1 PUSH1 0x9 PUSH0 DUP5 DUP2 MSTORE PUSH1 0x20 ADD SWAP1 DUP2 MSTORE PUSH1 0x20 ADD PUSH0 KECCAK256 PUSH0 DUP3 ADD MLOAD DUP2 PUSH0 ADD SSTORE PUSH1 0x20 DUP3 ADD MLOAD DUP2 PUSH1 0x1 ADD SSTORE PUSH1 0x40 DUP3 ADD MLOAD DUP2 PUSH1 0x2 ADD SSTORE PUSH1 0x60 DUP3 ADD MLOAD DUP2 PUSH1 0x3 ADD SSTORE PUSH1 0x80 DUP3 ADD MLOAD DUP2 PUSH1 0x4 ADD SSTORE PUSH1 0xA0 DUP3 ADD MLOAD DUP2 PUSH1 0x5 ADD SSTORE PUSH1 0xC0 DUP3 ADD MLOAD DUP2 PUSH1 0x6 ADD PUSH0 PUSH2 0x100 EXP DUP2 SLOAD DUP2 PUSH1 0xFF MUL NOT AND SWAP1 DUP4 PUSH1 0x5 DUP2 GT ISZERO PUSH2 0x7C2 JUMPI PUSH2 0x7C1 PUSH2 0x1060 JUMP JUMPDEST JUMPDEST MUL OR SWAP1 SSTORE POP SWAP1 POP POP POP POP JUMP JUMPDEST PUSH32 0x0 PUSH20 0xFFFFFFFFFFFFFFFFFFFFFFFFFFFFFFFFFFFFFFFF AND CALLER PUSH20 0xFFFFFFFFFFFFFFFFFFFFFFFFFFFFFFFFFFFFFFFF AND EQ PUSH2 0x85C JUMPI PUSH1 0x40 MLOAD PUSH32 0x8C379A000000000000000000000000000000000000000000000000000000000 DUP2 MSTORE PUSH1 0x4 ADD PUSH2 0x853 SWAP1 PUSH2 0x121B JUMP JUMPDEST PUSH1 0x40 MLOAD DUP1 SWAP2 SUB SWAP1 REVERT JUMPDEST PUSH0 DUP1 DUP2 SLOAD DUP1 SWAP3 SWAP2 SWAP1 PUSH2 0x86D SWAP1 PUSH2 0x1266 JUMP JUMPDEST SWAP2 SWAP1 POP SSTORE POP PUSH1 0x40 MLOAD DUP1 PUSH1 0xE0 ADD PUSH1 0x40 MSTORE DUP1 PUSH0 SLOAD DUP2 MSTORE PUSH1 0x20 ADD TIMESTAMP DUP2 MSTORE PUSH1 0x20 ADD PUSH0 DUP2 MSTORE PUSH1 0x20 ADD PUSH0 DUP2 MSTORE PUSH1 0x20 ADD PUSH0 DUP2 MSTORE PUSH1 0x20 ADD PUSH0 DUP2 MSTORE PUSH1 0x20 ADD PUSH0 PUSH1 0x5 DUP2 GT ISZERO PUSH2 0x8B5 JUMPI PUSH2 0x8B4 PUSH2 0x1060 JUMP JUMPDEST JUMPDEST DUP2 MSTORE POP PUSH1 0x2 PUSH0 DUP3 ADD MLOAD DUP2 PUSH0 ADD SSTORE PUSH1 0x20 DUP3 ADD MLOAD DUP2 PUSH1 0x1 ADD SSTORE PUSH1 0x40 DUP3 ADD MLOAD DUP2 PUSH1 0x2 ADD SSTORE PUSH1 0x60 DUP3 ADD MLOAD DUP2 PUSH1 0x3 ADD SSTORE PUSH1 0x80 DUP3 ADD MLOAD DUP2 PUSH1 0x4 ADD SSTORE PUSH1 0xA0 DUP3 ADD MLOAD DUP2 PUSH1 0x5 ADD SSTORE PUSH1 0xC0 DUP3 ADD MLOAD DUP2 PUSH1 0x6 ADD PUSH0 PUSH2 0x100 EXP DUP2 SLOAD DUP2 PUSH1 0xFF MUL NOT AND SWAP1 DUP4 PUSH1 0x5 DUP2 GT ISZERO PUSH2 0x91E JUMPI PUSH2 0x91D PUSH2 0x1060 JUMP JUMPDEST JUMPDEST MUL OR SWAP1 SSTORE POP SWAP1 POP POP PUSH1 0x2 PUSH1 0x9 PUSH0 DUP1 SLOAD DUP2 MSTORE PUSH1 0x20 ADD SWAP1 DUP2 MSTORE PUSH1 0x20 ADD PUSH0 KECCAK256 PUSH0 DUP3 ADD SLOAD DUP2 PUSH0 ADD SSTORE PUSH1 0x1 DUP3 ADD SLOAD DUP2 PUSH1 0x1 ADD SSTORE PUSH1 0x2 DUP3 ADD SLOAD DUP2 PUSH1 0x2 ADD SSTORE PUSH1 0x3 DUP3 ADD SLOAD DUP2 PUSH1 0x3 ADD SSTORE PUSH1 0x4 DUP3 ADD SLOAD DUP2 PUSH1 0x4 ADD SSTORE PUSH1 0x5 DUP3 ADD SLOAD DUP2 PUSH1 0x5 ADD SSTORE PUSH1 0x6 DUP3 ADD PUSH0 SWAP1 SLOAD SWAP1 PUSH2 0x100 EXP SWAP1 DIV PUSH1 0xFF AND DUP2 PUSH1 0x6 ADD PUSH0 PUSH2 0x100 EXP DUP2 SLOAD DUP2 PUSH1 0xFF MUL NOT AND SWAP1 DUP4 PUSH1 0x5 DUP2 GT ISZERO PUSH2 0x9AA JUMPI PUSH2 0x9A9 PUSH2 0x1060 JUMP JUMPDEST JUMPDEST MUL OR SWAP1 SSTORE POP SWAP1 POP POP JUMP JUMPDEST PUSH0 SLOAD DUP2 JUMP JUMPDEST PUSH0 PUSH1 0x5 DUP2 GT ISZERO PUSH2 0x9CC JUMPI PUSH2 0x9CB PUSH2 0x1060 JUMP JUMPDEST JUMPDEST PUSH1 0x9 PUSH0 DUP4 DUP2 MSTORE PUSH1 0x20 ADD SWAP1 DUP2 MSTORE PUSH1 0x20 ADD PUSH0 KECCAK256 PUSH1 0x6 ADD PUSH0 SWAP1 SLOAD SWAP1 PUSH2 0x100 EXP SWAP1 DIV PUSH1 0xFF AND PUSH1 0x5 DUP2 GT ISZERO PUSH2 0x9FF JUMPI PUSH2 0x9FE PUSH2 0x1060 JUMP JUMPDEST JUMPDEST EQ ISZERO DUP1 ISZERO PUSH2 0xA52 JUMPI POP PUSH1 0x1 PUSH1 0x5 DUP2 GT ISZERO PUSH2 0xA1C JUMPI PUSH2 0xA1B PUSH2 0x1060 JUMP JUMPDEST JUMPDEST PUSH1 0x9 PUSH0 DUP4 DUP2 MSTORE PUSH1 0x20 ADD SWAP1 DUP2 MSTORE PUSH1 0x20 ADD PUSH0 KECCAK256 PUSH1 0x6 ADD PUSH0 SWAP1 SLOAD SWAP1 PUSH2 0x100 EXP SWAP1 DIV PUSH1 0xFF AND PUSH1 0x5 DUP2 GT ISZERO PUSH2 0xA4F JUMPI PUSH2 0xA4E PUSH2 0x1060 JUMP JUMPDEST JUMPDEST EQ ISZERO JUMPDEST DUP1 ISZERO PUSH2 0xAA3 JUMPI POP PUSH1 0x3 PUSH1 0x5 DUP2 GT ISZERO PUSH2 0xA6D JUMPI PUSH2 0xA6C PUSH2 0x1060 JUMP JUMPDEST JUMPDEST PUSH1 0x9 PUSH0 DUP4 DUP2 MSTORE PUSH1 0x20 ADD SWAP1 DUP2 MSTORE PUSH1 0x20 ADD PUSH0 KECCAK256 PUSH1 0x6 ADD PUSH0 SWAP1 SLOAD SWAP1 PUSH2 0x100 EXP SWAP1 DIV PUSH1 0xFF AND PUSH1 0x5 DUP2 GT ISZERO PUSH2 0xAA0 JUMPI PUSH2 0xA9F PUSH2 0x1060 JUMP JUMPDEST JUMPDEST EQ ISZERO JUMPDEST DUP1 ISZERO PUSH2 0xAF4 JUMPI POP PUSH1 0x4 PUSH1 0x5 DUP2 GT ISZERO PUSH2 0xABE JUMPI PUSH2 0xABD PUSH2 0x1060 JUMP JUMPDEST JUMPDEST PUSH1 0x9 PUSH0 DUP4 DUP2 MSTORE PUSH1 0x20 ADD SWAP1 DUP2 MSTORE PUSH1 0x20 ADD PUSH0 KECCAK256 PUSH1 0x6 ADD PUSH0 SWAP1 SLOAD SWAP1 PUSH2 0x100 EXP SWAP1 DIV PUSH1 0xFF AND PUSH1 0x5 DUP2 GT ISZERO PUSH2 0xAF1 JUMPI PUSH2 0xAF0 PUSH2 0x1060 JUMP JUMPDEST JUMPDEST EQ ISZERO JUMPDEST DUP1 ISZERO PUSH2 0xB44 JUMPI POP PUSH1 0x5 DUP1 DUP2 GT ISZERO PUSH2 0xB0E JUMPI PUSH2 0xB0D PUSH2 0x1060 JUMP JUMPDEST JUMPDEST PUSH1 0x9 PUSH0 DUP4 DUP2 MSTORE PUSH1 0x20 ADD SWAP1 DUP2 MSTORE PUSH1 0x20 ADD PUSH0 KECCAK256 PUSH1 0x6 ADD PUSH0 SWAP1 SLOAD SWAP1 PUSH2 0x100 EXP SWAP1 DIV PUSH1 0xFF AND PUSH1 0x5 DUP2 GT ISZERO PUSH2 0xB41 JUMPI PUSH2 0xB40 PUSH2 0x1060 JUMP JUMPDEST JUMPDEST EQ ISZERO JUMPDEST PUSH2 0xB83 JUMPI PUSH1 0x40 MLOAD PUSH32 0x8C379A000000000000000000000000000000000000000000000000000000000 DUP2 MSTORE PUSH1 0x4 ADD PUSH2 0xB7A SWAP1 PUSH2 0x11B3 JUMP JUMPDEST PUSH1 0x40 MLOAD DUP1 SWAP2 SUB SWAP1 REVERT JUMPDEST PUSH0 PUSH1 0x9 PUSH0 DUP4 DUP2 MSTORE PUSH1 0x20 ADD SWAP1 DUP2 MSTORE PUSH1 0x20 ADD PUSH0 KECCAK256 PUSH1 0x40 MLOAD DUP1 PUSH1 0xE0 ADD PUSH1 0x40 MSTORE SWAP1 DUP2 PUSH0 DUP3 ADD SLOAD DUP2 MSTORE PUSH1 0x20 ADD PUSH1 0x1 DUP3 ADD SLOAD DUP2 MSTORE PUSH1 0x20 ADD PUSH1 0x2 DUP3 ADD SLOAD DUP2 MSTORE PUSH1 0x20 ADD PUSH1 0x3 DUP3 ADD SLOAD DUP2 MSTORE PUSH1 0x20 ADD PUSH1 0x4 DUP3 ADD SLOAD DUP2 MSTORE PUSH1 0x20 ADD PUSH1 0x5 DUP3 ADD SLOAD DUP2 MSTORE PUSH1 0x20 ADD PUSH1 0x6 DUP3 ADD PUSH0 SWAP1 SLOAD SWAP1 PUSH2 0x100 EXP SWAP1 DIV PUSH1 0xFF AND PUSH1 0x5 DUP2 GT ISZERO PUSH2 0xBFF JUMPI PUSH2 0xBFE PUSH2 0x1060 JUMP JUMPDEST JUMPDEST PUSH1 0x5 DUP2 GT ISZERO PUSH2 0xC11 JUMPI PUSH2 0xC10 PUSH2 0x1060 JUMP JUMPDEST JUMPDEST DUP2 MSTORE POP POP SWAP1 POP TIMESTAMP DUP2 PUSH1 0x80 ADD DUP2 DUP2 MSTORE POP POP PUSH1 0x3 DUP2 PUSH1 0xC0 ADD SWAP1 PUSH1 0x5 DUP2 GT ISZERO PUSH2 0xC3A JUMPI PUSH2 0xC39 PUSH2 0x1060 JUMP JUMPDEST JUMPDEST SWAP1 DUP2 PUSH1 0x5 DUP2 GT ISZERO PUSH2 0xC4E JUMPI PUSH2 0xC4D PUSH2 0x1060 JUMP JUMPDEST JUMPDEST DUP2 MSTORE POP POP DUP1 PUSH1 0x9 PUSH0 DUP5 DUP2 MSTORE PUSH1 0x20 ADD SWAP1 DUP2 MSTORE PUSH1 0x20 ADD PUSH0 KECCAK256 PUSH0 DUP3 ADD MLOAD DUP2 PUSH0 ADD SSTORE PUSH1 0x20 DUP3 ADD MLOAD DUP2 PUSH1 0x1 ADD SSTORE PUSH1 0x40 DUP3 ADD MLOAD DUP2 PUSH1 0x2 ADD SSTORE PUSH1 0x60 DUP3 ADD MLOAD DUP2 PUSH1 0x3 ADD SSTORE PUSH1 0x80 DUP3 ADD MLOAD DUP2 PUSH1 0x4 ADD SSTORE PUSH1 0xA0 DUP3 ADD MLOAD DUP2 PUSH1 0x5 ADD SSTORE PUSH1 0xC0 DUP3 ADD MLOAD DUP2 PUSH1 0x6 ADD PUSH0 PUSH2 0x100 EXP DUP2 SLOAD DUP2 PUSH1 0xFF MUL NOT AND SWAP1 DUP4 PUSH1 0x5 DUP2 GT ISZERO PUSH2 0xCC8 JUMPI PUSH2 0xCC7 PUSH2 0x1060 JUMP JUMPDEST JUMPDEST MUL OR SWAP1 SSTORE POP SWAP1 POP POP POP POP JUMP JUMPDEST PUSH0 PUSH1 0x5 DUP2 GT ISZERO PUSH2 0xCE7 JUMPI PUSH2 0xCE6 PUSH2 0x1060 JUMP JUMPDEST JUMPDEST PUSH1 0x9 PUSH0 DUP4 DUP2 MSTORE PUSH1 0x20 ADD SWAP1 DUP2 MSTORE PUSH1 0x20 ADD PUSH0 KECCAK256 PUSH1 0x6 ADD PUSH0 SWAP1 SLOAD SWAP1 PUSH2 0x100 EXP SWAP1 DIV PUSH1 0xFF AND PUSH1 0x5 DUP2 GT ISZERO PUSH2 0xD1A JUMPI PUSH2 0xD19 PUSH2 0x1060 JUMP JUMPDEST JUMPDEST EQ ISZERO DUP1 ISZERO PUSH2 0xD6D JUMPI POP PUSH1 0x1 PUSH1 0x5 DUP2 GT ISZERO PUSH2 0xD37 JUMPI PUSH2 0xD36 PUSH2 0x1060 JUMP JUMPDEST JUMPDEST PUSH1 0x9 PUSH0 DUP4 DUP2 MSTORE PUSH1 0x20 ADD SWAP1 DUP2 MSTORE PUSH1 0x20 ADD PUSH0 KECCAK256 PUSH1 0x6 ADD PUSH0 SWAP1 SLOAD SWAP1 PUSH2 0x100 EXP SWAP1 DIV PUSH1 0xFF AND PUSH1 0x5 DUP2 GT ISZERO PUSH2 0xD6A JUMPI PUSH2 0xD69 PUSH2 0x1060 JUMP JUMPDEST JUMPDEST EQ ISZERO JUMPDEST DUP1 ISZERO PUSH2 0xDBD JUMPI POP PUSH1 0x5 DUP1 DUP2 GT ISZERO PUSH2 0xD87 JUMPI PUSH2 0xD86 PUSH2 0x1060 JUMP JUMPDEST JUMPDEST PUSH1 0x9 PUSH0 DUP4 DUP2 MSTORE PUSH1 0x20 ADD SWAP1 DUP2 MSTORE PUSH1 0x20 ADD PUSH0 KECCAK256 PUSH1 0x6 ADD PUSH0 SWAP1 SLOAD SWAP1 PUSH2 0x100 EXP SWAP1 DIV PUSH1 0xFF AND PUSH1 0x5 DUP2 GT ISZERO PUSH2 0xDBA JUMPI PUSH2 0xDB9 PUSH2 0x1060 JUMP JUMPDEST JUMPDEST EQ ISZERO JUMPDEST DUP1 ISZERO PUSH2 0xE0E JUMPI POP PUSH1 0x4 PUSH1 0x5 DUP2 GT ISZERO PUSH2 0xDD8 JUMPI PUSH2 0xDD7 PUSH2 0x1060 JUMP JUMPDEST JUMPDEST PUSH1 0x9 PUSH0 DUP4 DUP2 MSTORE PUSH1 0x20 ADD SWAP1 DUP2 MSTORE PUSH1 0x20 ADD PUSH0 KECCAK256 PUSH1 0x6 ADD PUSH0 SWAP1 SLOAD SWAP1 PUSH2 0x100 EXP SWAP1 DIV PUSH1 0xFF AND PUSH1 0x5 DUP2 GT ISZERO PUSH2 0xE0B JUMPI PUSH2 0xE0A PUSH2 0x1060 JUMP JUMPDEST JUMPDEST EQ ISZERO JUMPDEST DUP1 ISZERO PUSH2 0xE5F JUMPI POP PUSH1 0x2 PUSH1 0x5 DUP2 GT ISZERO PUSH2 0xE29 JUMPI PUSH2 0xE28 PUSH2 0x1060 JUMP JUMPDEST JUMPDEST PUSH1 0x9 PUSH0 DUP4 DUP2 MSTORE PUSH1 0x20 ADD SWAP1 DUP2 MSTORE PUSH1 0x20 ADD PUSH0 KECCAK256 PUSH1 0x6 ADD PUSH0 SWAP1 SLOAD SWAP1 PUSH2 0x100 EXP SWAP1 DIV PUSH1 0xFF AND PUSH1 0x5 DUP2 GT ISZERO PUSH2 0xE5C JUMPI PUSH2 0xE5B PUSH2 0x1060 JUMP JUMPDEST JUMPDEST EQ ISZERO JUMPDEST PUSH2 0xE9E JUMPI PUSH1 0x40 MLOAD PUSH32 0x8C379A000000000000000000000000000000000000000000000000000000000 DUP2 MSTORE PUSH1 0x4 ADD PUSH2 0xE95 SWAP1 PUSH2 0x11B3 JUMP JUMPDEST PUSH1 0x40 MLOAD DUP1 SWAP2 SUB SWAP1 REVERT JUMPDEST PUSH0 PUSH1 0x9 PUSH0 DUP4 DUP2 MSTORE PUSH1 0x20 ADD SWAP1 DUP2 MSTORE PUSH1 0x20 ADD PUSH0 KECCAK256 PUSH1 0x40 MLOAD DUP1 PUSH1 0xE0 ADD PUSH1 0x40 MSTORE SWAP1 DUP2 PUSH0 DUP3 ADD SLOAD DUP2 MSTORE PUSH1 0x20 ADD PUSH1 0x1 DUP3 ADD SLOAD DUP2 MSTORE PUSH1 0x20 ADD PUSH1 0x2 DUP3 ADD SLOAD DUP2 MSTORE PUSH1 0x20 ADD PUSH1 0x3 DUP3 ADD SLOAD DUP2 MSTORE PUSH1 0x20 ADD PUSH1 0x4 DUP3 ADD SLOAD DUP2 MSTORE PUSH1 0x20 ADD PUSH1 0x5 DUP3 ADD SLOAD DUP2 MSTORE PUSH1 0x20 ADD PUSH1 0x6 DUP3 ADD PUSH0 SWAP1 SLOAD SWAP1 PUSH2 0x100 EXP SWAP1 DIV PUSH1 0xFF AND PUSH1 0x5 DUP2 GT ISZERO PUSH2 0xF1A JUMPI PUSH2 0xF19 PUSH2 0x1060 JUMP JUMPDEST JUMPDEST PUSH1 0x5 DUP2 GT ISZERO PUSH2 0xF2C JUMPI PUSH2 0xF2B PUSH2 0x1060 JUMP JUMPDEST JUMPDEST DUP2 MSTORE POP POP SWAP1 POP TIMESTAMP DUP2 PUSH1 0xA0 ADD DUP2 DUP2 MSTORE POP POP PUSH1 0x4 DUP2 PUSH1 0xC0 ADD SWAP1 PUSH1 0x5 DUP2 GT ISZERO PUSH2 0xF55 JUMPI PUSH2 0xF54 PUSH2 0x1060 JUMP JUMPDEST JUMPDEST SWAP1 DUP2 PUSH1 0x5 DUP2 GT ISZERO PUSH2 0xF69 JUMPI PUSH2 0xF68 PUSH2 0x1060 JUMP JUMPDEST JUMPDEST DUP2 MSTORE POP POP DUP1 PUSH1 0x9 PUSH0 DUP5 DUP2 MSTORE PUSH1 0x20 ADD SWAP1 DUP2 MSTORE PUSH1 0x20 ADD PUSH0 KECCAK256 PUSH0 DUP3 ADD MLOAD DUP2 PUSH0 ADD SSTORE PUSH1 0x20 DUP3 ADD MLOAD DUP2 PUSH1 0x1 ADD SSTORE PUSH1 0x40 DUP3 ADD MLOAD DUP2 PUSH1 0x2 ADD SSTORE PUSH1 0x60 DUP3 ADD MLOAD DUP2 PUSH1 0x3 ADD SSTORE PUSH1 0x80 DUP3 ADD MLOAD DUP2 PUSH1 0x4 ADD SSTORE PUSH1 0xA0 DUP3 ADD MLOAD DUP2 PUSH1 0x5 ADD SSTORE PUSH1 0xC0 DUP3 ADD MLOAD DUP2 PUSH1 0x6 ADD PUSH0 PUSH2 0x100 EXP DUP2 SLOAD DUP2 PUSH1 0xFF MUL NOT AND SWAP1 DUP4 PUSH1 0x5 DUP2 GT ISZERO PUSH2 0xFE3 JUMPI PUSH2 0xFE2 PUSH2 0x1060 JUMP JUMPDEST JUMPDEST MUL OR SWAP1 SSTORE POP SWAP1 POP POP POP POP JUMP JUMPDEST PUSH0 DUP1 REVERT JUMPDEST PUSH0 DUP2 SWAP1 POP SWAP2 SWAP1 POP JUMP JUMPDEST PUSH2 0x1005 DUP2 PUSH2 0xFF3 JUMP JUMPDEST DUP2 EQ PUSH2 0x100F JUMPI PUSH0 DUP1 REVERT JUMPDEST POP JUMP JUMPDEST PUSH0 DUP2 CALLDATALOAD SWAP1 POP PUSH2 0x1020 DUP2 PUSH2 0xFFC JUMP JUMPDEST SWAP3 SWAP2 POP POP JUMP JUMPDEST PUSH0 PUSH1 0x20 DUP3 DUP5 SUB SLT ISZERO PUSH2 0x103B JUMPI PUSH2 0x103A PUSH2 0xFEF JUMP JUMPDEST JUMPDEST PUSH0 PUSH2 0x1048 DUP5 DUP3 DUP6 ADD PUSH2 0x1012 JUMP JUMPDEST SWAP2 POP POP SWAP3 SWAP2 POP POP JUMP JUMPDEST PUSH2 0x105A DUP2 PUSH2 0xFF3 JUMP JUMPDEST DUP3 MSTORE POP POP JUMP JUMPDEST PUSH32 0x4E487B7100000000000000000000000000000000000000000000000000000000 PUSH0 MSTORE PUSH1 0x21 PUSH1 0x4 MSTORE PUSH1 0x24 PUSH0 REVERT JUMPDEST PUSH1 0x6 DUP2 LT PUSH2 0x109E JUMPI PUSH2 0x109D PUSH2 0x1060 JUMP JUMPDEST JUMPDEST POP JUMP JUMPDEST PUSH0 DUP2 SWAP1 POP PUSH2 0x10AE DUP3 PUSH2 0x108D JUMP JUMPDEST SWAP2 SWAP1 POP JUMP JUMPDEST PUSH0 PUSH2 0x10BD DUP3 PUSH2 0x10A1 JUMP JUMPDEST SWAP1 POP SWAP2 SWAP1 POP JUMP JUMPDEST PUSH2 0x10CD DUP2 PUSH2 0x10B3 JUMP JUMPDEST DUP3 MSTORE POP POP JUMP JUMPDEST PUSH0 PUSH1 0xE0 DUP3 ADD SWAP1 POP PUSH2 0x10E6 PUSH0 DUP4 ADD DUP11 PUSH2 0x1051 JUMP JUMPDEST PUSH2 0x10F3 PUSH1 0x20 DUP4 ADD DUP10 PUSH2 0x1051 JUMP JUMPDEST PUSH2 0x1100 PUSH1 0x40 DUP4 ADD DUP9 PUSH2 0x1051 JUMP JUMPDEST PUSH2 0x110D PUSH1 0x60 DUP4 ADD DUP8 PUSH2 0x1051 JUMP JUMPDEST PUSH2 0x111A PUSH1 0x80 DUP4 ADD DUP7 PUSH2 0x1051 JUMP JUMPDEST PUSH2 0x1127 PUSH1 0xA0 DUP4 ADD DUP6 PUSH2 0x1051 JUMP JUMPDEST PUSH2 0x1134 PUSH1 0xC0 DUP4 ADD DUP5 PUSH2 0x10C4 JUMP JUMPDEST SWAP9 SWAP8 POP POP POP POP POP POP POP POP JUMP JUMPDEST PUSH0 PUSH1 0x20 DUP3 ADD SWAP1 POP PUSH2 0x1153 PUSH0 DUP4 ADD DUP5 PUSH2 0x1051 JUMP JUMPDEST SWAP3 SWAP2 POP POP JUMP JUMPDEST PUSH0 DUP3 DUP3 MSTORE PUSH1 0x20 DUP3 ADD SWAP1 POP SWAP3 SWAP2 POP POP JUMP JUMPDEST PUSH32 0x6E6F7420616C6C6F776564000000000000000000000000000000000000000000 PUSH0 DUP3 ADD MSTORE POP JUMP JUMPDEST PUSH0 PUSH2 0x119D PUSH1 0xB DUP4 PUSH2 0x1159 JUMP JUMPDEST SWAP2 POP PUSH2 0x11A8 DUP3 PUSH2 0x1169 JUMP JUMPDEST PUSH1 0x20 DUP3 ADD SWAP1 POP SWAP2 SWAP1 POP JUMP JUMPDEST PUSH0 PUSH1 0x20 DUP3 ADD SWAP1 POP DUP2 DUP2 SUB PUSH0 DUP4 ADD MSTORE PUSH2 0x11CA DUP2 PUSH2 0x1191 JUMP JUMPDEST SWAP1 POP SWAP2 SWAP1 POP JUMP JUMPDEST PUSH32 0x75736572206973206E6F74207065726D69747465640000000000000000000000 PUSH0 DUP3 ADD MSTORE POP JUMP JUMPDEST PUSH0 PUSH2 0x1205 PUSH1 0x15 DUP4 PUSH2 0x1159 JUMP JUMPDEST SWAP2 POP PUSH2 0x1210 DUP3 PUSH2 0x11D1 JUMP JUMPDEST PUSH1 0x20 DUP3 ADD SWAP1 POP SWAP2 SWAP1 POP JUMP JUMPDEST PUSH0 PUSH1 0x20 DUP3 ADD SWAP1 POP DUP2 DUP2 SUB PUSH0 DUP4 ADD MSTORE PUSH2 0x1232 DUP2 PUSH2 0x11F9 JUMP JUMPDEST SWAP1 POP SWAP2 SWAP1 POP JUMP JUMPDEST PUSH32 0x4E487B7100000000000000000000000000000000000000000000000000000000 PUSH0 MSTORE PUSH1 0x11 PUSH1 0x4 MSTORE PUSH1 0x24 PUSH0 REVERT JUMPDEST PUSH0 PUSH2 0x1270 DUP3 PUSH2 0xFF3 JUMP JUMPDEST SWAP2 POP PUSH32 0xFFFFFFFFFFFFFFFFFFFFFFFFFFFFFFFFFFFFFFFFFFFFFFFFFFFFFFFFFFFFFFFF DUP3 SUB PUSH2 0x12A2 JUMPI PUSH2 0x12A1 PUSH2 0x1239 JUMP JUMPDEST JUMPDEST PUSH1 0x1 DUP3 ADD SWAP1 POP SWAP2 SWAP1 POP JUMP INVALID LOG2 PUSH5 0x6970667358 0x22 SLT KECCAK256 0xFC PUSH27 0x18A29BA5D7DB06D348B3266AE32003A023755917725209826A5BD6 CREATE SWAP13 DUP5 PUSH5 0x736F6C6343 STOP ADDMOD EQ STOP CALLER "
				},
				"gasEstimates": {
					"creation": {
						"codeDepositCost": "967000",
						"executionCost": "infinite",
						"totalCost": "infinite"
					},
					"external": {
						"CompleteDeliveryToWarehouse(uint256)": "184243",
						"CompleteMfg(uint256)": "184242",
						"CompleteRawMaterialProd(uint256)": "184200",
						"CompleteSupply(uint256)": "184264",
						"mappingRoutine(uint256)": "infinite",
						"routineNumber()": "2446",
						"setRoutine()": "infinite"
					}
				},
				"methodIdentifiers": {
					"CompleteDeliveryToWarehouse(uint256)": "cec560b2",
					"CompleteMfg(uint256)": "dd76e6e2",
					"CompleteRawMaterialProd(uint256)": "5c17bef1",
					"CompleteSupply(uint256)": "f3bb763b",
					"mappingRoutine(uint256)": "cbc451f7",
					"routineNumber()": "d9ab25ad",
					"setRoutine()": "d38ed81f"
				}
			},
			"storageLayout": {
				"storage": [
					{
						"astId": 18,
						"contract": "enumpractice.sol:enums",
						"label": "routineNumber",
						"offset": 0,
						"slot": "0",
						"type": "t_uint256"
					},
					{
						"astId": 30,
						"contract": "enumpractice.sol:enums",
						"label": "mfgProgress",
						"offset": 0,
						"slot": "1",
						"type": "t_enum(progress)13"
					},
					{
						"astId": 49,
						"contract": "enumpractice.sol:enums",
						"label": "NewProdRoutine",
						"offset": 0,
						"slot": "2",
						"type": "t_struct(productionRoutine)46_storage"
					},
					{
						"astId": 54,
						"contract": "enumpractice.sol:enums",
						"label": "mappingRoutine",
						"offset": 0,
						"slot": "9",
						"type": "t_mapping(t_uint256,t_struct(productionRoutine)46_storage)"
					}
				],
				"types": {
					"t_enum(progress)13": {
						"encoding": "inplace",
						"label": "enum enums.progress",
						"numberOfBytes": "1"
					},
					"t_mapping(t_uint256,t_struct(productionRoutine)46_storage)": {
						"encoding": "mapping",
						"key": "t_uint256",
						"label": "mapping(uint256 => struct enums.productionRoutine)",
						"numberOfBytes": "32",
						"value": "t_struct(productionRoutine)46_storage"
					},
					"t_struct(productionRoutine)46_storage": {
						"encoding": "inplace",
						"label": "struct enums.productionRoutine",
						"members": [
							{
								"astId": 32,
								"contract": "enumpractice.sol:enums",
								"label": "routineNo",
								"offset": 0,
								"slot": "0",
								"type": "t_uint256"
							},
							{
								"astId": 34,
								"contract": "enumpractice.sol:enums",
								"label": "routineDateCreation",
								"offset": 0,
								"slot": "1",
								"type": "t_uint256"
							},
							{
								"astId": 36,
								"contract": "enumpractice.sol:enums",
								"label": "rawMaterialProdDate",
								"offset": 0,
								"slot": "2",
								"type": "t_uint256"
							},
							{
								"astId": 38,
								"contract": "enumpractice.sol:enums",
								"label": "deliveryToWarehouseDate",
								"offset": 0,
								"slot": "3",
								"type": "t_uint256"
							},
							{
								"astId": 40,
								"contract": "enumpractice.sol:enums",
								"label": "mfgDate",
								"offset": 0,
								"slot": "4",
								"type": "t_uint256"
							},
							{
								"astId": 42,
								"contract": "enumpractice.sol:enums",
								"label": "supplyDate",
								"offset": 0,
								"slot": "5",
								"type": "t_uint256"
							},
							{
								"astId": 45,
								"contract": "enumpractice.sol:enums",
								"label": "routineProgress",
								"offset": 0,
								"slot": "6",
								"type": "t_enum(progress)13"
							}
						],
						"numberOfBytes": "224"
					},
					"t_uint256": {
						"encoding": "inplace",
						"label": "uint256",
						"numberOfBytes": "32"
					}
				}
			},
			"userdoc": {
				"kind": "user",
				"methods": {},
				"version": 1
			}
		}
	}
}