{
	"CBDC.sol": {
		"CBDC": {
			"abi": [
				{
					"inputs": [
						{
							"internalType": "address",
							"name": "_controllingParty",
							"type": "address"
						},
						{
							"internalType": "uint256",
							"name": "initialSupply",
							"type": "uint256"
						}
					],
					"stateMutability": "nonpayable",
					"type": "constructor"
				},
				{
					"anonymous": false,
					"inputs": [
						{
							"indexed": true,
							"internalType": "address",
							"name": "owner",
							"type": "address"
						},
						{
							"indexed": true,
							"internalType": "address",
							"name": "spender",
							"type": "address"
						},
						{
							"indexed": false,
							"internalType": "uint256",
							"name": "value",
							"type": "uint256"
						}
					],
					"name": "Approval",
					"type": "event"
				},
				{
					"anonymous": false,
					"inputs": [
						{
							"indexed": false,
							"internalType": "address",
							"name": "user",
							"type": "address"
						},
						{
							"indexed": false,
							"internalType": "uint256",
							"name": "amount",
							"type": "uint256"
						}
					],
					"name": "ClaimTreasuryBonds",
					"type": "event"
				},
				{
					"anonymous": false,
					"inputs": [
						{
							"indexed": false,
							"internalType": "uint256",
							"name": "oldMoneySupply",
							"type": "uint256"
						},
						{
							"indexed": false,
							"internalType": "uint256",
							"name": "inflationAmount",
							"type": "uint256"
						}
					],
					"name": "IncreaseMoneySupply",
					"type": "event"
				},
				{
					"anonymous": false,
					"inputs": [
						{
							"indexed": false,
							"internalType": "address",
							"name": "user",
							"type": "address"
						},
						{
							"indexed": false,
							"internalType": "uint256",
							"name": "amount",
							"type": "uint256"
						}
					],
					"name": "StakeTreasuryBond",
					"type": "event"
				},
				{
					"anonymous": false,
					"inputs": [
						{
							"indexed": true,
							"internalType": "address",
							"name": "from",
							"type": "address"
						},
						{
							"indexed": true,
							"internalType": "address",
							"name": "to",
							"type": "address"
						},
						{
							"indexed": false,
							"internalType": "uint256",
							"name": "value",
							"type": "uint256"
						}
					],
					"name": "Transfer",
					"type": "event"
				},
				{
					"anonymous": false,
					"inputs": [
						{
							"indexed": false,
							"internalType": "address",
							"name": "user",
							"type": "address"
						},
						{
							"indexed": false,
							"internalType": "uint256",
							"name": "amount",
							"type": "uint256"
						}
					],
					"name": "UnStakeTreasuryBond",
					"type": "event"
				},
				{
					"anonymous": false,
					"inputs": [
						{
							"indexed": false,
							"internalType": "address",
							"name": "_criminal",
							"type": "address"
						},
						{
							"indexed": false,
							"internalType": "bool",
							"name": "blocked",
							"type": "bool"
						}
					],
					"name": "UpdateBlackList",
					"type": "event"
				},
				{
					"anonymous": false,
					"inputs": [
						{
							"indexed": false,
							"internalType": "address",
							"name": "oldConrollingParty",
							"type": "address"
						},
						{
							"indexed": false,
							"internalType": "address",
							"name": "newConrollingParty",
							"type": "address"
						}
					],
					"name": "UpdateConrollingParty",
					"type": "event"
				},
				{
					"anonymous": false,
					"inputs": [
						{
							"indexed": false,
							"internalType": "uint256",
							"name": "oldInterest",
							"type": "uint256"
						},
						{
							"indexed": false,
							"internalType": "uint256",
							"name": "newInterestRate",
							"type": "uint256"
						}
					],
					"name": "UpdateInterestRate",
					"type": "event"
				},
				{
					"inputs": [
						{
							"internalType": "address",
							"name": "owner",
							"type": "address"
						},
						{
							"internalType": "address",
							"name": "spender",
							"type": "address"
						}
					],
					"name": "allowance",
					"outputs": [
						{
							"internalType": "uint256",
							"name": "",
							"type": "uint256"
						}
					],
					"stateMutability": "view",
					"type": "function"
				},
				{
					"inputs": [
						{
							"internalType": "address",
							"name": "spender",
							"type": "address"
						},
						{
							"internalType": "uint256",
							"name": "amount",
							"type": "uint256"
						}
					],
					"name": "approve",
					"outputs": [
						{
							"internalType": "bool",
							"name": "",
							"type": "bool"
						}
					],
					"stateMutability": "nonpayable",
					"type": "function"
				},
				{
					"inputs": [
						{
							"internalType": "address",
							"name": "account",
							"type": "address"
						}
					],
					"name": "balanceOf",
					"outputs": [
						{
							"internalType": "uint256",
							"name": "",
							"type": "uint256"
						}
					],
					"stateMutability": "view",
					"type": "function"
				},
				{
					"inputs": [
						{
							"internalType": "address",
							"name": "",
							"type": "address"
						}
					],
					"name": "blacklist",
					"outputs": [
						{
							"internalType": "bool",
							"name": "",
							"type": "bool"
						}
					],
					"stateMutability": "view",
					"type": "function"
				},
				{
					"inputs": [],
					"name": "controllingParty",
					"outputs": [
						{
							"internalType": "address",
							"name": "",
							"type": "address"
						}
					],
					"stateMutability": "view",
					"type": "function"
				},
				{
					"inputs": [],
					"name": "decimals",
					"outputs": [
						{
							"internalType": "uint8",
							"name": "",
							"type": "uint8"
						}
					],
					"stateMutability": "view",
					"type": "function"
				},
				{
					"inputs": [
						{
							"internalType": "address",
							"name": "spender",
							"type": "address"
						},
						{
							"internalType": "uint256",
							"name": "subtractedValue",
							"type": "uint256"
						}
					],
					"name": "decreaseAllowance",
					"outputs": [
						{
							"internalType": "bool",
							"name": "",
							"type": "bool"
						}
					],
					"stateMutability": "nonpayable",
					"type": "function"
				},
				{
					"inputs": [
						{
							"internalType": "address",
							"name": "spender",
							"type": "address"
						},
						{
							"internalType": "uint256",
							"name": "addedValue",
							"type": "uint256"
						}
					],
					"name": "increaseAllowance",
					"outputs": [
						{
							"internalType": "bool",
							"name": "",
							"type": "bool"
						}
					],
					"stateMutability": "nonpayable",
					"type": "function"
				},
				{
					"inputs": [
						{
							"internalType": "uint256",
							"name": "inflationAmount",
							"type": "uint256"
						}
					],
					"name": "increaseMoneySupply",
					"outputs": [],
					"stateMutability": "nonpayable",
					"type": "function"
				},
				{
					"inputs": [],
					"name": "interestRateBasisPoints",
					"outputs": [
						{
							"internalType": "uint256",
							"name": "",
							"type": "uint256"
						}
					],
					"stateMutability": "view",
					"type": "function"
				},
				{
					"inputs": [],
					"name": "name",
					"outputs": [
						{
							"internalType": "string",
							"name": "",
							"type": "string"
						}
					],
					"stateMutability": "view",
					"type": "function"
				},
				{
					"inputs": [
						{
							"internalType": "uint256",
							"name": "stakeAmount",
							"type": "uint256"
						}
					],
					"name": "stakeCBDC",
					"outputs": [],
					"stateMutability": "nonpayable",
					"type": "function"
				},
				{
					"inputs": [
						{
							"internalType": "address",
							"name": "",
							"type": "address"
						}
					],
					"name": "stakeTime",
					"outputs": [
						{
							"internalType": "uint256",
							"name": "",
							"type": "uint256"
						}
					],
					"stateMutability": "view",
					"type": "function"
				},
				{
					"inputs": [],
					"name": "symbol",
					"outputs": [
						{
							"internalType": "string",
							"name": "",
							"type": "string"
						}
					],
					"stateMutability": "view",
					"type": "function"
				},
				{
					"inputs": [],
					"name": "totalSupply",
					"outputs": [
						{
							"internalType": "uint256",
							"name": "",
							"type": "uint256"
						}
					],
					"stateMutability": "view",
					"type": "function"
				},
				{
					"inputs": [
						{
							"internalType": "address",
							"name": "to",
							"type": "address"
						},
						{
							"internalType": "uint256",
							"name": "amount",
							"type": "uint256"
						}
					],
					"name": "transfer",
					"outputs": [
						{
							"internalType": "bool",
							"name": "",
							"type": "bool"
						}
					],
					"stateMutability": "nonpayable",
					"type": "function"
				},
				{
					"inputs": [
						{
							"internalType": "address",
							"name": "from",
							"type": "address"
						},
						{
							"internalType": "address",
							"name": "to",
							"type": "address"
						},
						{
							"internalType": "uint256",
							"name": "amount",
							"type": "uint256"
						}
					],
					"name": "transferFrom",
					"outputs": [
						{
							"internalType": "bool",
							"name": "",
							"type": "bool"
						}
					],
					"stateMutability": "nonpayable",
					"type": "function"
				},
				{
					"inputs": [],
					"name": "unstakeCBDC",
					"outputs": [],
					"stateMutability": "nonpayable",
					"type": "function"
				},
				{
					"inputs": [
						{
							"internalType": "address",
							"name": "newControllingParty",
							"type": "address"
						}
					],
					"name": "updateControllingParty",
					"outputs": [],
					"stateMutability": "nonpayable",
					"type": "function"
				},
				{
					"inputs": [
						{
							"internalType": "uint256",
							"name": "newInterestRateBasisPoints",
							"type": "uint256"
						}
					],
					"name": "updateInterestRate",
					"outputs": [],
					"stateMutability": "nonpayable",
					"type": "function"
				}
			],
			"devdoc": {
				"events": {
					"Approval(address,address,uint256)": {
						"details": "Emitted when the allowance of a `spender` for an `owner` is set by a call to {approve}. `value` is the new allowance."
					},
					"Transfer(address,address,uint256)": {
						"details": "Emitted when `value` tokens are moved from one account (`from`) to another (`to`). Note that `value` may be zero."
					}
				},
				"kind": "dev",
				"methods": {
					"allowance(address,address)": {
						"details": "See {IERC20-allowance}."
					},
					"approve(address,uint256)": {
						"details": "See {IERC20-approve}. NOTE: If `amount` is the maximum `uint256`, the allowance is not updated on `transferFrom`. This is semantically equivalent to an infinite approval. Requirements: - `spender` cannot be the zero address."
					},
					"balanceOf(address)": {
						"details": "See {IERC20-balanceOf}."
					},
					"decimals()": {
						"details": "Returns the number of decimals used to get its user representation. For example, if `decimals` equals `2`, a balance of `505` tokens should be displayed to a user as `5.05` (`505 / 10 ** 2`). Tokens usually opt for a value of 18, imitating the relationship between Ether and Wei. This is the value {ERC20} uses, unless this function is overridden; NOTE: This information is only used for _display_ purposes: it in no way affects any of the arithmetic of the contract, including {IERC20-balanceOf} and {IERC20-transfer}."
					},
					"decreaseAllowance(address,uint256)": {
						"details": "Atomically decreases the allowance granted to `spender` by the caller. This is an alternative to {approve} that can be used as a mitigation for problems described in {IERC20-approve}. Emits an {Approval} event indicating the updated allowance. Requirements: - `spender` cannot be the zero address. - `spender` must have allowance for the caller of at least `subtractedValue`."
					},
					"increaseAllowance(address,uint256)": {
						"details": "Atomically increases the allowance granted to `spender` by the caller. This is an alternative to {approve} that can be used as a mitigation for problems described in {IERC20-approve}. Emits an {Approval} event indicating the updated allowance. Requirements: - `spender` cannot be the zero address."
					},
					"name()": {
						"details": "Returns the name of the token."
					},
					"symbol()": {
						"details": "Returns the symbol of the token, usually a shorter version of the name."
					},
					"totalSupply()": {
						"details": "See {IERC20-totalSupply}."
					},
					"transfer(address,uint256)": {
						"details": "See {IERC20-transfer}. Requirements: - `to` cannot be the zero address. - the caller must have a balance of at least `amount`."
					},
					"transferFrom(address,address,uint256)": {
						"details": "See {IERC20-transferFrom}. Emits an {Approval} event indicating the updated allowance. This is not required by the EIP. See the note at the beginning of {ERC20}. NOTE: Does not update the allowance if the current allowance is the maximum `uint256`. Requirements: - `from` and `to` cannot be the zero address. - `from` must have a balance of at least `amount`. - the caller must have allowance for ``from``'s tokens of at least `amount`."
					}
				},
				"version": 1
			},
			"evm": {
				"assembly": "    /* \"CBDC.sol\":83:3310  contract CBDC is ERC20 {... */\n  mstore(0x40, 0x80)\n    /* \"CBDC.sol\":185:188  500 */\n  0x01f4\n    /* \"CBDC.sol\":149:188  uint public interestRateBasisPoints=500 */\n  0x06\n  sstore\n    /* \"CBDC.sol\":885:1112  constructor(address _controllingParty, uint initialSupply) ... */\n  callvalue\n  dup1\n  iszero\n  tag_1\n  jumpi\n  0x00\n  dup1\n  revert\ntag_1:\n  pop\n  mload(0x40)\n  sub(codesize, bytecodeSize)\n  dup1\n  bytecodeSize\n  dup4\n  codecopy\n  dup2\n  dup2\n  add\n  0x40\n  mstore\n  dup2\n  add\n  swap1\n  tag_2\n  swap2\n  swap1\n  tag_3\n  jump\t// in\ntag_2:\n    /* \"@openzeppelin/contracts/token/ERC20/ERC20.sol\":1976:2089  constructor(string memory name_, string memory symbol_) {... */\n  mload(0x40)\n  dup1\n  0x40\n  add\n  0x40\n  mstore\n  dup1\n  0x1d\n  dup2\n  mstore\n  0x20\n  add\n  0x43656e7472616c2062616e6b206469676974616c2063757272656e6379000000\n  dup2\n  mstore\n  pop\n  mload(0x40)\n  dup1\n  0x40\n  add\n  0x40\n  mstore\n  dup1\n  0x04\n  dup2\n  mstore\n  0x20\n  add\n  0x4342444300000000000000000000000000000000000000000000000000000000\n  dup2\n  mstore\n  pop\n    /* \"@openzeppelin/contracts/token/ERC20/ERC20.sol\":2050:2055  name_ */\n  dup2\n    /* \"@openzeppelin/contracts/token/ERC20/ERC20.sol\":2042:2047  _name */\n  0x03\n    /* \"@openzeppelin/contracts/token/ERC20/ERC20.sol\":2042:2055  _name = name_ */\n  swap1\n  dup2\n  tag_7\n  swap2\n  swap1\n  tag_8\n  jump\t// in\ntag_7:\n  pop\n    /* \"@openzeppelin/contracts/token/ERC20/ERC20.sol\":2075:2082  symbol_ */\n  dup1\n    /* \"@openzeppelin/contracts/token/ERC20/ERC20.sol\":2065:2072  _symbol */\n  0x04\n    /* \"@openzeppelin/contracts/token/ERC20/ERC20.sol\":2065:2082  _symbol = symbol_ */\n  swap1\n  dup2\n  tag_9\n  swap2\n  swap1\n  tag_8\n  jump\t// in\ntag_9:\n  pop\n    /* \"@openzeppelin/contracts/token/ERC20/ERC20.sol\":1976:2089  constructor(string memory name_, string memory symbol_) {... */\n  pop\n  pop\n    /* \"CBDC.sol\":1031:1048  _controllingParty */\n  dup2\n    /* \"CBDC.sol\":1013:1029  controllingParty */\n  0x05\n  0x00\n    /* \"CBDC.sol\":1013:1048  controllingParty= _controllingParty */\n  0x0100\n  exp\n  dup2\n  sload\n  dup2\n  0xffffffffffffffffffffffffffffffffffffffff\n  mul\n  not\n  and\n  swap1\n  dup4\n  0xffffffffffffffffffffffffffffffffffffffff\n  and\n  mul\n  or\n  swap1\n  sstore\n  pop\n    /* \"CBDC.sol\":1062:1101  _mint(_controllingParty, initialSupply) */\n  tag_11\n    /* \"CBDC.sol\":1068:1085  _controllingParty */\n  dup3\n    /* \"CBDC.sol\":1087:1100  initialSupply */\n  dup3\n    /* \"CBDC.sol\":1062:1067  _mint */\n  shl(0x20, tag_12)\n    /* \"CBDC.sol\":1062:1101  _mint(_controllingParty, initialSupply) */\n  0x20\n  shr\n  jump\t// in\ntag_11:\n    /* \"CBDC.sol\":885:1112  constructor(address _controllingParty, uint initialSupply) ... */\n  pop\n  pop\n    /* \"CBDC.sol\":83:3310  contract CBDC is ERC20 {... */\n  jump(tag_13)\n    /* \"@openzeppelin/contracts/token/ERC20/ERC20.sol\":8567:9102  function _mint(address account, uint256 amount) internal virtual {... */\ntag_12:\n    /* \"@openzeppelin/contracts/token/ERC20/ERC20.sol\":8669:8670  0 */\n  0x00\n    /* \"@openzeppelin/contracts/token/ERC20/ERC20.sol\":8650:8671  account != address(0) */\n  0xffffffffffffffffffffffffffffffffffffffff\n  and\n    /* \"@openzeppelin/contracts/token/ERC20/ERC20.sol\":8650:8657  account */\n  dup3\n    /* \"@openzeppelin/contracts/token/ERC20/ERC20.sol\":8650:8671  account != address(0) */\n  0xffffffffffffffffffffffffffffffffffffffff\n  and\n  sub\n    /* \"@openzeppelin/contracts/token/ERC20/ERC20.sol\":8642:8707  require(account != address(0), \"ERC20: mint to the zero address\") */\n  tag_15\n  jumpi\n  mload(0x40)\n  0x08c379a000000000000000000000000000000000000000000000000000000000\n  dup2\n  mstore\n  0x04\n  add\n  tag_16\n  swap1\n  tag_17\n  jump\t// in\ntag_16:\n  mload(0x40)\n  dup1\n  swap2\n  sub\n  swap1\n  revert\ntag_15:\n    /* \"@openzeppelin/contracts/token/ERC20/ERC20.sol\":8718:8767  _beforeTokenTransfer(address(0), account, amount) */\n  tag_18\n    /* \"@openzeppelin/contracts/token/ERC20/ERC20.sol\":8747:8748  0 */\n  0x00\n    /* \"@openzeppelin/contracts/token/ERC20/ERC20.sol\":8751:8758  account */\n  dup4\n    /* \"@openzeppelin/contracts/token/ERC20/ERC20.sol\":8760:8766  amount */\n  dup4\n    /* \"@openzeppelin/contracts/token/ERC20/ERC20.sol\":8718:8738  _beforeTokenTransfer */\n  shl(0x20, tag_19)\n    /* \"@openzeppelin/contracts/token/ERC20/ERC20.sol\":8718:8767  _beforeTokenTransfer(address(0), account, amount) */\n  0x20\n  shr\n  jump\t// in\ntag_18:\n    /* \"@openzeppelin/contracts/token/ERC20/ERC20.sol\":8794:8800  amount */\n  dup1\n    /* \"@openzeppelin/contracts/token/ERC20/ERC20.sol\":8778:8790  _totalSupply */\n  0x02\n  0x00\n    /* \"@openzeppelin/contracts/token/ERC20/ERC20.sol\":8778:8800  _totalSupply += amount */\n  dup3\n  dup3\n  sload\n  tag_20\n  swap2\n  swap1\n  tag_21\n  jump\t// in\ntag_20:\n  swap3\n  pop\n  pop\n  dup2\n  swap1\n  sstore\n  pop\n    /* \"@openzeppelin/contracts/token/ERC20/ERC20.sol\":8968:8974  amount */\n  dup1\n    /* \"@openzeppelin/contracts/token/ERC20/ERC20.sol\":8946:8955  _balances */\n  0x00\n    /* \"@openzeppelin/contracts/token/ERC20/ERC20.sol\":8946:8964  _balances[account] */\n  dup1\n    /* \"@openzeppelin/contracts/token/ERC20/ERC20.sol\":8956:8963  account */\n  dup5\n    /* \"@openzeppelin/contracts/token/ERC20/ERC20.sol\":8946:8964  _balances[account] */\n  0xffffffffffffffffffffffffffffffffffffffff\n  and\n  0xffffffffffffffffffffffffffffffffffffffff\n  and\n  dup2\n  mstore\n  0x20\n  add\n  swap1\n  dup2\n  mstore\n  0x20\n  add\n  0x00\n  keccak256\n  0x00\n    /* \"@openzeppelin/contracts/token/ERC20/ERC20.sol\":8946:8974  _balances[account] += amount */\n  dup3\n  dup3\n  sload\n  add\n  swap3\n  pop\n  pop\n  dup2\n  swap1\n  sstore\n  pop\n    /* \"@openzeppelin/contracts/token/ERC20/ERC20.sol\":9020:9027  account */\n  dup2\n    /* \"@openzeppelin/contracts/token/ERC20/ERC20.sol\":8999:9036  Transfer(address(0), account, amount) */\n  0xffffffffffffffffffffffffffffffffffffffff\n  and\n    /* \"@openzeppelin/contracts/token/ERC20/ERC20.sol\":9016:9017  0 */\n  0x00\n    /* \"@openzeppelin/contracts/token/ERC20/ERC20.sol\":8999:9036  Transfer(address(0), account, amount) */\n  0xffffffffffffffffffffffffffffffffffffffff\n  and\n  0xddf252ad1be2c89b69c2b068fc378daa952ba7f163c4a11628f55a4df523b3ef\n    /* \"@openzeppelin/contracts/token/ERC20/ERC20.sol\":9029:9035  amount */\n  dup4\n    /* \"@openzeppelin/contracts/token/ERC20/ERC20.sol\":8999:9036  Transfer(address(0), account, amount) */\n  mload(0x40)\n  tag_22\n  swap2\n  swap1\n  tag_23\n  jump\t// in\ntag_22:\n  mload(0x40)\n  dup1\n  swap2\n  sub\n  swap1\n  log3\n    /* \"@openzeppelin/contracts/token/ERC20/ERC20.sol\":9047:9095  _afterTokenTransfer(address(0), account, amount) */\n  tag_24\n    /* \"@openzeppelin/contracts/token/ERC20/ERC20.sol\":9075:9076  0 */\n  0x00\n    /* \"@openzeppelin/contracts/token/ERC20/ERC20.sol\":9079:9086  account */\n  dup4\n    /* \"@openzeppelin/contracts/token/ERC20/ERC20.sol\":9088:9094  amount */\n  dup4\n    /* \"@openzeppelin/contracts/token/ERC20/ERC20.sol\":9047:9066  _afterTokenTransfer */\n  shl(0x20, tag_25)\n    /* \"@openzeppelin/contracts/token/ERC20/ERC20.sol\":9047:9095  _afterTokenTransfer(address(0), account, amount) */\n  0x20\n  shr\n  jump\t// in\ntag_24:\n    /* \"@openzeppelin/contracts/token/ERC20/ERC20.sol\":8567:9102  function _mint(address account, uint256 amount) internal virtual {... */\n  pop\n  pop\n  jump\t// out\n    /* \"@openzeppelin/contracts/token/ERC20/ERC20.sol\":12180:12301  function _beforeTokenTransfer(... */\ntag_19:\n  pop\n  pop\n  pop\n  jump\t// out\n    /* \"@openzeppelin/contracts/token/ERC20/ERC20.sol\":12889:13009  function _afterTokenTransfer(... */\ntag_25:\n  pop\n  pop\n  pop\n  jump\t// out\n    /* \"#utility.yul\":88:205   */\ntag_29:\n    /* \"#utility.yul\":197:198   */\n  0x00\n    /* \"#utility.yul\":194:195   */\n  dup1\n    /* \"#utility.yul\":187:199   */\n  revert\n    /* \"#utility.yul\":334:460   */\ntag_31:\n    /* \"#utility.yul\":371:378   */\n  0x00\n    /* \"#utility.yul\":411:453   */\n  0xffffffffffffffffffffffffffffffffffffffff\n    /* \"#utility.yul\":404:409   */\n  dup3\n    /* \"#utility.yul\":400:454   */\n  and\n    /* \"#utility.yul\":389:454   */\n  swap1\n  pop\n    /* \"#utility.yul\":334:460   */\n  swap2\n  swap1\n  pop\n  jump\t// out\n    /* \"#utility.yul\":466:562   */\ntag_32:\n    /* \"#utility.yul\":503:510   */\n  0x00\n    /* \"#utility.yul\":532:556   */\n  tag_68\n    /* \"#utility.yul\":550:555   */\n  dup3\n    /* \"#utility.yul\":532:556   */\n  tag_31\n  jump\t// in\ntag_68:\n    /* \"#utility.yul\":521:556   */\n  swap1\n  pop\n    /* \"#utility.yul\":466:562   */\n  swap2\n  swap1\n  pop\n  jump\t// out\n    /* \"#utility.yul\":568:690   */\ntag_33:\n    /* \"#utility.yul\":641:665   */\n  tag_70\n    /* \"#utility.yul\":659:664   */\n  dup2\n    /* \"#utility.yul\":641:665   */\n  tag_32\n  jump\t// in\ntag_70:\n    /* \"#utility.yul\":634:639   */\n  dup2\n    /* \"#utility.yul\":631:666   */\n  eq\n    /* \"#utility.yul\":621:684   */\n  tag_71\n  jumpi\n    /* \"#utility.yul\":680:681   */\n  0x00\n    /* \"#utility.yul\":677:678   */\n  dup1\n    /* \"#utility.yul\":670:682   */\n  revert\n    /* \"#utility.yul\":621:684   */\ntag_71:\n    /* \"#utility.yul\":568:690   */\n  pop\n  jump\t// out\n    /* \"#utility.yul\":696:839   */\ntag_34:\n    /* \"#utility.yul\":753:758   */\n  0x00\n    /* \"#utility.yul\":784:790   */\n  dup2\n    /* \"#utility.yul\":778:791   */\n  mload\n    /* \"#utility.yul\":769:791   */\n  swap1\n  pop\n    /* \"#utility.yul\":800:833   */\n  tag_73\n    /* \"#utility.yul\":827:832   */\n  dup2\n    /* \"#utility.yul\":800:833   */\n  tag_33\n  jump\t// in\ntag_73:\n    /* \"#utility.yul\":696:839   */\n  swap3\n  swap2\n  pop\n  pop\n  jump\t// out\n    /* \"#utility.yul\":845:922   */\ntag_35:\n    /* \"#utility.yul\":882:889   */\n  0x00\n    /* \"#utility.yul\":911:916   */\n  dup2\n    /* \"#utility.yul\":900:916   */\n  swap1\n  pop\n    /* \"#utility.yul\":845:922   */\n  swap2\n  swap1\n  pop\n  jump\t// out\n    /* \"#utility.yul\":928:1050   */\ntag_36:\n    /* \"#utility.yul\":1001:1025   */\n  tag_76\n    /* \"#utility.yul\":1019:1024   */\n  dup2\n    /* \"#utility.yul\":1001:1025   */\n  tag_35\n  jump\t// in\ntag_76:\n    /* \"#utility.yul\":994:999   */\n  dup2\n    /* \"#utility.yul\":991:1026   */\n  eq\n    /* \"#utility.yul\":981:1044   */\n  tag_77\n  jumpi\n    /* \"#utility.yul\":1040:1041   */\n  0x00\n    /* \"#utility.yul\":1037:1038   */\n  dup1\n    /* \"#utility.yul\":1030:1042   */\n  revert\n    /* \"#utility.yul\":981:1044   */\ntag_77:\n    /* \"#utility.yul\":928:1050   */\n  pop\n  jump\t// out\n    /* \"#utility.yul\":1056:1199   */\ntag_37:\n    /* \"#utility.yul\":1113:1118   */\n  0x00\n    /* \"#utility.yul\":1144:1150   */\n  dup2\n    /* \"#utility.yul\":1138:1151   */\n  mload\n    /* \"#utility.yul\":1129:1151   */\n  swap1\n  pop\n    /* \"#utility.yul\":1160:1193   */\n  tag_79\n    /* \"#utility.yul\":1187:1192   */\n  dup2\n    /* \"#utility.yul\":1160:1193   */\n  tag_36\n  jump\t// in\ntag_79:\n    /* \"#utility.yul\":1056:1199   */\n  swap3\n  swap2\n  pop\n  pop\n  jump\t// out\n    /* \"#utility.yul\":1205:1712   */\ntag_3:\n    /* \"#utility.yul\":1284:1290   */\n  0x00\n    /* \"#utility.yul\":1292:1298   */\n  dup1\n    /* \"#utility.yul\":1341:1343   */\n  0x40\n    /* \"#utility.yul\":1329:1338   */\n  dup4\n    /* \"#utility.yul\":1320:1327   */\n  dup6\n    /* \"#utility.yul\":1316:1339   */\n  sub\n    /* \"#utility.yul\":1312:1344   */\n  slt\n    /* \"#utility.yul\":1309:1428   */\n  iszero\n  tag_81\n  jumpi\n    /* \"#utility.yul\":1347:1426   */\n  tag_82\n  tag_29\n  jump\t// in\ntag_82:\n    /* \"#utility.yul\":1309:1428   */\ntag_81:\n    /* \"#utility.yul\":1467:1468   */\n  0x00\n    /* \"#utility.yul\":1492:1556   */\n  tag_83\n    /* \"#utility.yul\":1548:1555   */\n  dup6\n    /* \"#utility.yul\":1539:1545   */\n  dup3\n    /* \"#utility.yul\":1528:1537   */\n  dup7\n    /* \"#utility.yul\":1524:1546   */\n  add\n    /* \"#utility.yul\":1492:1556   */\n  tag_34\n  jump\t// in\ntag_83:\n    /* \"#utility.yul\":1482:1556   */\n  swap3\n  pop\n    /* \"#utility.yul\":1438:1566   */\n  pop\n    /* \"#utility.yul\":1605:1607   */\n  0x20\n    /* \"#utility.yul\":1631:1695   */\n  tag_84\n    /* \"#utility.yul\":1687:1694   */\n  dup6\n    /* \"#utility.yul\":1678:1684   */\n  dup3\n    /* \"#utility.yul\":1667:1676   */\n  dup7\n    /* \"#utility.yul\":1663:1685   */\n  add\n    /* \"#utility.yul\":1631:1695   */\n  tag_37\n  jump\t// in\ntag_84:\n    /* \"#utility.yul\":1621:1695   */\n  swap2\n  pop\n    /* \"#utility.yul\":1576:1705   */\n  pop\n    /* \"#utility.yul\":1205:1712   */\n  swap3\n  pop\n  swap3\n  swap1\n  pop\n  jump\t// out\n    /* \"#utility.yul\":1718:1817   */\ntag_38:\n    /* \"#utility.yul\":1770:1776   */\n  0x00\n    /* \"#utility.yul\":1804:1809   */\n  dup2\n    /* \"#utility.yul\":1798:1810   */\n  mload\n    /* \"#utility.yul\":1788:1810   */\n  swap1\n  pop\n    /* \"#utility.yul\":1718:1817   */\n  swap2\n  swap1\n  pop\n  jump\t// out\n    /* \"#utility.yul\":1823:2003   */\ntag_39:\n    /* \"#utility.yul\":1871:1948   */\n  0x4e487b7100000000000000000000000000000000000000000000000000000000\n    /* \"#utility.yul\":1868:1869   */\n  0x00\n    /* \"#utility.yul\":1861:1949   */\n  mstore\n    /* \"#utility.yul\":1968:1972   */\n  0x41\n    /* \"#utility.yul\":1965:1966   */\n  0x04\n    /* \"#utility.yul\":1958:1973   */\n  mstore\n    /* \"#utility.yul\":1992:1996   */\n  0x24\n    /* \"#utility.yul\":1989:1990   */\n  0x00\n    /* \"#utility.yul\":1982:1997   */\n  revert\n    /* \"#utility.yul\":2009:2189   */\ntag_40:\n    /* \"#utility.yul\":2057:2134   */\n  0x4e487b7100000000000000000000000000000000000000000000000000000000\n    /* \"#utility.yul\":2054:2055   */\n  0x00\n    /* \"#utility.yul\":2047:2135   */\n  mstore\n    /* \"#utility.yul\":2154:2158   */\n  0x22\n    /* \"#utility.yul\":2151:2152   */\n  0x04\n    /* \"#utility.yul\":2144:2159   */\n  mstore\n    /* \"#utility.yul\":2178:2182   */\n  0x24\n    /* \"#utility.yul\":2175:2176   */\n  0x00\n    /* \"#utility.yul\":2168:2183   */\n  revert\n    /* \"#utility.yul\":2195:2515   */\ntag_41:\n    /* \"#utility.yul\":2239:2245   */\n  0x00\n    /* \"#utility.yul\":2276:2277   */\n  0x02\n    /* \"#utility.yul\":2270:2274   */\n  dup3\n    /* \"#utility.yul\":2266:2278   */\n  div\n    /* \"#utility.yul\":2256:2278   */\n  swap1\n  pop\n    /* \"#utility.yul\":2323:2324   */\n  0x01\n    /* \"#utility.yul\":2317:2321   */\n  dup3\n    /* \"#utility.yul\":2313:2325   */\n  and\n    /* \"#utility.yul\":2344:2362   */\n  dup1\n    /* \"#utility.yul\":2334:2415   */\n  tag_89\n  jumpi\n    /* \"#utility.yul\":2400:2404   */\n  0x7f\n    /* \"#utility.yul\":2392:2398   */\n  dup3\n    /* \"#utility.yul\":2388:2405   */\n  and\n    /* \"#utility.yul\":2378:2405   */\n  swap2\n  pop\n    /* \"#utility.yul\":2334:2415   */\ntag_89:\n    /* \"#utility.yul\":2462:2464   */\n  0x20\n    /* \"#utility.yul\":2454:2460   */\n  dup3\n    /* \"#utility.yul\":2451:2465   */\n  lt\n    /* \"#utility.yul\":2431:2449   */\n  dup2\n    /* \"#utility.yul\":2428:2466   */\n  sub\n    /* \"#utility.yul\":2425:2509   */\n  tag_90\n  jumpi\n    /* \"#utility.yul\":2481:2499   */\n  tag_91\n  tag_40\n  jump\t// in\ntag_91:\n    /* \"#utility.yul\":2425:2509   */\ntag_90:\n    /* \"#utility.yul\":2246:2515   */\n  pop\n    /* \"#utility.yul\":2195:2515   */\n  swap2\n  swap1\n  pop\n  jump\t// out\n    /* \"#utility.yul\":2521:2662   */\ntag_42:\n    /* \"#utility.yul\":2570:2574   */\n  0x00\n    /* \"#utility.yul\":2593:2596   */\n  dup2\n    /* \"#utility.yul\":2585:2596   */\n  swap1\n  pop\n    /* \"#utility.yul\":2616:2619   */\n  dup2\n    /* \"#utility.yul\":2613:2614   */\n  0x00\n    /* \"#utility.yul\":2606:2620   */\n  mstore\n    /* \"#utility.yul\":2650:2654   */\n  0x20\n    /* \"#utility.yul\":2647:2648   */\n  0x00\n    /* \"#utility.yul\":2637:2655   */\n  keccak256\n    /* \"#utility.yul\":2629:2655   */\n  swap1\n  pop\n    /* \"#utility.yul\":2521:2662   */\n  swap2\n  swap1\n  pop\n  jump\t// out\n    /* \"#utility.yul\":2668:2761   */\ntag_43:\n    /* \"#utility.yul\":2705:2711   */\n  0x00\n    /* \"#utility.yul\":2752:2754   */\n  0x20\n    /* \"#utility.yul\":2747:2749   */\n  0x1f\n    /* \"#utility.yul\":2740:2745   */\n  dup4\n    /* \"#utility.yul\":2736:2750   */\n  add\n    /* \"#utility.yul\":2732:2755   */\n  div\n    /* \"#utility.yul\":2722:2755   */\n  swap1\n  pop\n    /* \"#utility.yul\":2668:2761   */\n  swap2\n  swap1\n  pop\n  jump\t// out\n    /* \"#utility.yul\":2767:2874   */\ntag_44:\n    /* \"#utility.yul\":2811:2819   */\n  0x00\n    /* \"#utility.yul\":2861:2866   */\n  dup3\n    /* \"#utility.yul\":2855:2859   */\n  dup3\n    /* \"#utility.yul\":2851:2867   */\n  shl\n    /* \"#utility.yul\":2830:2867   */\n  swap1\n  pop\n    /* \"#utility.yul\":2767:2874   */\n  swap3\n  swap2\n  pop\n  pop\n  jump\t// out\n    /* \"#utility.yul\":2880:3273   */\ntag_45:\n    /* \"#utility.yul\":2949:2955   */\n  0x00\n    /* \"#utility.yul\":2999:3000   */\n  0x08\n    /* \"#utility.yul\":2987:2997   */\n  dup4\n    /* \"#utility.yul\":2983:3001   */\n  mul\n    /* \"#utility.yul\":3022:3119   */\n  tag_96\n    /* \"#utility.yul\":3052:3118   */\n  0xffffffffffffffffffffffffffffffffffffffffffffffffffffffffffffffff\n    /* \"#utility.yul\":3041:3050   */\n  dup3\n    /* \"#utility.yul\":3022:3119   */\n  tag_44\n  jump\t// in\ntag_96:\n    /* \"#utility.yul\":3140:3179   */\n  tag_97\n    /* \"#utility.yul\":3170:3178   */\n  dup7\n    /* \"#utility.yul\":3159:3168   */\n  dup4\n    /* \"#utility.yul\":3140:3179   */\n  tag_44\n  jump\t// in\ntag_97:\n    /* \"#utility.yul\":3128:3179   */\n  swap6\n  pop\n    /* \"#utility.yul\":3212:3216   */\n  dup1\n    /* \"#utility.yul\":3208:3217   */\n  not\n    /* \"#utility.yul\":3201:3206   */\n  dup5\n    /* \"#utility.yul\":3197:3218   */\n  and\n    /* \"#utility.yul\":3188:3218   */\n  swap4\n  pop\n    /* \"#utility.yul\":3261:3265   */\n  dup1\n    /* \"#utility.yul\":3251:3259   */\n  dup7\n    /* \"#utility.yul\":3247:3266   */\n  and\n    /* \"#utility.yul\":3240:3245   */\n  dup5\n    /* \"#utility.yul\":3237:3267   */\n  or\n    /* \"#utility.yul\":3227:3267   */\n  swap3\n  pop\n    /* \"#utility.yul\":2956:3273   */\n  pop\n  pop\n    /* \"#utility.yul\":2880:3273   */\n  swap4\n  swap3\n  pop\n  pop\n  pop\n  jump\t// out\n    /* \"#utility.yul\":3279:3339   */\ntag_46:\n    /* \"#utility.yul\":3307:3310   */\n  0x00\n    /* \"#utility.yul\":3328:3333   */\n  dup2\n    /* \"#utility.yul\":3321:3333   */\n  swap1\n  pop\n    /* \"#utility.yul\":3279:3339   */\n  swap2\n  swap1\n  pop\n  jump\t// out\n    /* \"#utility.yul\":3345:3487   */\ntag_47:\n    /* \"#utility.yul\":3395:3404   */\n  0x00\n    /* \"#utility.yul\":3428:3481   */\n  tag_100\n    /* \"#utility.yul\":3446:3480   */\n  tag_101\n    /* \"#utility.yul\":3455:3479   */\n  tag_102\n    /* \"#utility.yul\":3473:3478   */\n  dup5\n    /* \"#utility.yul\":3455:3479   */\n  tag_35\n  jump\t// in\ntag_102:\n    /* \"#utility.yul\":3446:3480   */\n  tag_46\n  jump\t// in\ntag_101:\n    /* \"#utility.yul\":3428:3481   */\n  tag_35\n  jump\t// in\ntag_100:\n    /* \"#utility.yul\":3415:3481   */\n  swap1\n  pop\n    /* \"#utility.yul\":3345:3487   */\n  swap2\n  swap1\n  pop\n  jump\t// out\n    /* \"#utility.yul\":3493:3568   */\ntag_48:\n    /* \"#utility.yul\":3536:3539   */\n  0x00\n    /* \"#utility.yul\":3557:3562   */\n  dup2\n    /* \"#utility.yul\":3550:3562   */\n  swap1\n  pop\n    /* \"#utility.yul\":3493:3568   */\n  swap2\n  swap1\n  pop\n  jump\t// out\n    /* \"#utility.yul\":3574:3843   */\ntag_49:\n    /* \"#utility.yul\":3684:3723   */\n  tag_105\n    /* \"#utility.yul\":3715:3722   */\n  dup4\n    /* \"#utility.yul\":3684:3723   */\n  tag_47\n  jump\t// in\ntag_105:\n    /* \"#utility.yul\":3745:3836   */\n  tag_106\n    /* \"#utility.yul\":3794:3835   */\n  tag_107\n    /* \"#utility.yul\":3818:3834   */\n  dup3\n    /* \"#utility.yul\":3794:3835   */\n  tag_48\n  jump\t// in\ntag_107:\n    /* \"#utility.yul\":3786:3792   */\n  dup5\n    /* \"#utility.yul\":3779:3783   */\n  dup5\n    /* \"#utility.yul\":3773:3784   */\n  sload\n    /* \"#utility.yul\":3745:3836   */\n  tag_45\n  jump\t// in\ntag_106:\n    /* \"#utility.yul\":3739:3743   */\n  dup3\n    /* \"#utility.yul\":3732:3837   */\n  sstore\n    /* \"#utility.yul\":3650:3843   */\n  pop\n    /* \"#utility.yul\":3574:3843   */\n  pop\n  pop\n  pop\n  jump\t// out\n    /* \"#utility.yul\":3849:3922   */\ntag_50:\n    /* \"#utility.yul\":3894:3897   */\n  0x00\n    /* \"#utility.yul\":3849:3922   */\n  swap1\n  jump\t// out\n    /* \"#utility.yul\":3928:4117   */\ntag_51:\n    /* \"#utility.yul\":4005:4037   */\n  tag_110\n  tag_50\n  jump\t// in\ntag_110:\n    /* \"#utility.yul\":4046:4111   */\n  tag_111\n    /* \"#utility.yul\":4104:4110   */\n  dup2\n    /* \"#utility.yul\":4096:4102   */\n  dup5\n    /* \"#utility.yul\":4090:4094   */\n  dup5\n    /* \"#utility.yul\":4046:4111   */\n  tag_49\n  jump\t// in\ntag_111:\n    /* \"#utility.yul\":3981:4117   */\n  pop\n    /* \"#utility.yul\":3928:4117   */\n  pop\n  pop\n  jump\t// out\n    /* \"#utility.yul\":4123:4309   */\ntag_52:\n    /* \"#utility.yul\":4183:4303   */\ntag_113:\n    /* \"#utility.yul\":4200:4203   */\n  dup2\n    /* \"#utility.yul\":4193:4198   */\n  dup2\n    /* \"#utility.yul\":4190:4204   */\n  lt\n    /* \"#utility.yul\":4183:4303   */\n  iszero\n  tag_115\n  jumpi\n    /* \"#utility.yul\":4254:4293   */\n  tag_116\n    /* \"#utility.yul\":4291:4292   */\n  0x00\n    /* \"#utility.yul\":4284:4289   */\n  dup3\n    /* \"#utility.yul\":4254:4293   */\n  tag_51\n  jump\t// in\ntag_116:\n    /* \"#utility.yul\":4227:4228   */\n  0x01\n    /* \"#utility.yul\":4220:4225   */\n  dup2\n    /* \"#utility.yul\":4216:4229   */\n  add\n    /* \"#utility.yul\":4207:4229   */\n  swap1\n  pop\n    /* \"#utility.yul\":4183:4303   */\n  jump(tag_113)\ntag_115:\n    /* \"#utility.yul\":4123:4309   */\n  pop\n  pop\n  jump\t// out\n    /* \"#utility.yul\":4315:4858   */\ntag_53:\n    /* \"#utility.yul\":4416:4418   */\n  0x1f\n    /* \"#utility.yul\":4411:4414   */\n  dup3\n    /* \"#utility.yul\":4408:4419   */\n  gt\n    /* \"#utility.yul\":4405:4851   */\n  iszero\n  tag_118\n  jumpi\n    /* \"#utility.yul\":4450:4488   */\n  tag_119\n    /* \"#utility.yul\":4482:4487   */\n  dup2\n    /* \"#utility.yul\":4450:4488   */\n  tag_42\n  jump\t// in\ntag_119:\n    /* \"#utility.yul\":4534:4563   */\n  tag_120\n    /* \"#utility.yul\":4552:4562   */\n  dup5\n    /* \"#utility.yul\":4534:4563   */\n  tag_43\n  jump\t// in\ntag_120:\n    /* \"#utility.yul\":4524:4532   */\n  dup2\n    /* \"#utility.yul\":4520:4564   */\n  add\n    /* \"#utility.yul\":4717:4719   */\n  0x20\n    /* \"#utility.yul\":4705:4715   */\n  dup6\n    /* \"#utility.yul\":4702:4720   */\n  lt\n    /* \"#utility.yul\":4699:4748   */\n  iszero\n  tag_121\n  jumpi\n    /* \"#utility.yul\":4738:4746   */\n  dup2\n    /* \"#utility.yul\":4723:4746   */\n  swap1\n  pop\n    /* \"#utility.yul\":4699:4748   */\ntag_121:\n    /* \"#utility.yul\":4761:4841   */\n  tag_122\n    /* \"#utility.yul\":4817:4839   */\n  tag_123\n    /* \"#utility.yul\":4835:4838   */\n  dup6\n    /* \"#utility.yul\":4817:4839   */\n  tag_43\n  jump\t// in\ntag_123:\n    /* \"#utility.yul\":4807:4815   */\n  dup4\n    /* \"#utility.yul\":4803:4840   */\n  add\n    /* \"#utility.yul\":4790:4801   */\n  dup3\n    /* \"#utility.yul\":4761:4841   */\n  tag_52\n  jump\t// in\ntag_122:\n    /* \"#utility.yul\":4420:4851   */\n  pop\n  pop\n    /* \"#utility.yul\":4405:4851   */\ntag_118:\n    /* \"#utility.yul\":4315:4858   */\n  pop\n  pop\n  pop\n  jump\t// out\n    /* \"#utility.yul\":4864:4981   */\ntag_54:\n    /* \"#utility.yul\":4918:4926   */\n  0x00\n    /* \"#utility.yul\":4968:4973   */\n  dup3\n    /* \"#utility.yul\":4962:4966   */\n  dup3\n    /* \"#utility.yul\":4958:4974   */\n  shr\n    /* \"#utility.yul\":4937:4974   */\n  swap1\n  pop\n    /* \"#utility.yul\":4864:4981   */\n  swap3\n  swap2\n  pop\n  pop\n  jump\t// out\n    /* \"#utility.yul\":4987:5156   */\ntag_55:\n    /* \"#utility.yul\":5031:5037   */\n  0x00\n    /* \"#utility.yul\":5064:5115   */\n  tag_126\n    /* \"#utility.yul\":5112:5113   */\n  0x00\n    /* \"#utility.yul\":5108:5114   */\n  not\n    /* \"#utility.yul\":5100:5105   */\n  dup5\n    /* \"#utility.yul\":5097:5098   */\n  0x08\n    /* \"#utility.yul\":5093:5106   */\n  mul\n    /* \"#utility.yul\":5064:5115   */\n  tag_54\n  jump\t// in\ntag_126:\n    /* \"#utility.yul\":5060:5116   */\n  not\n    /* \"#utility.yul\":5145:5149   */\n  dup1\n    /* \"#utility.yul\":5139:5143   */\n  dup4\n    /* \"#utility.yul\":5135:5150   */\n  and\n    /* \"#utility.yul\":5125:5150   */\n  swap2\n  pop\n    /* \"#utility.yul\":5038:5156   */\n  pop\n    /* \"#utility.yul\":4987:5156   */\n  swap3\n  swap2\n  pop\n  pop\n  jump\t// out\n    /* \"#utility.yul\":5161:5456   */\ntag_56:\n    /* \"#utility.yul\":5237:5241   */\n  0x00\n    /* \"#utility.yul\":5383:5412   */\n  tag_128\n    /* \"#utility.yul\":5408:5411   */\n  dup4\n    /* \"#utility.yul\":5402:5406   */\n  dup4\n    /* \"#utility.yul\":5383:5412   */\n  tag_55\n  jump\t// in\ntag_128:\n    /* \"#utility.yul\":5375:5412   */\n  swap2\n  pop\n    /* \"#utility.yul\":5445:5448   */\n  dup3\n    /* \"#utility.yul\":5442:5443   */\n  0x02\n    /* \"#utility.yul\":5438:5449   */\n  mul\n    /* \"#utility.yul\":5432:5436   */\n  dup3\n    /* \"#utility.yul\":5429:5450   */\n  or\n    /* \"#utility.yul\":5421:5450   */\n  swap1\n  pop\n    /* \"#utility.yul\":5161:5456   */\n  swap3\n  swap2\n  pop\n  pop\n  jump\t// out\n    /* \"#utility.yul\":5461:6856   */\ntag_8:\n    /* \"#utility.yul\":5578:5615   */\n  tag_130\n    /* \"#utility.yul\":5611:5614   */\n  dup3\n    /* \"#utility.yul\":5578:5615   */\n  tag_38\n  jump\t// in\ntag_130:\n    /* \"#utility.yul\":5680:5698   */\n  0xffffffffffffffff\n    /* \"#utility.yul\":5672:5678   */\n  dup2\n    /* \"#utility.yul\":5669:5699   */\n  gt\n    /* \"#utility.yul\":5666:5722   */\n  iszero\n  tag_131\n  jumpi\n    /* \"#utility.yul\":5702:5720   */\n  tag_132\n  tag_39\n  jump\t// in\ntag_132:\n    /* \"#utility.yul\":5666:5722   */\ntag_131:\n    /* \"#utility.yul\":5746:5784   */\n  tag_133\n    /* \"#utility.yul\":5778:5782   */\n  dup3\n    /* \"#utility.yul\":5772:5783   */\n  sload\n    /* \"#utility.yul\":5746:5784   */\n  tag_41\n  jump\t// in\ntag_133:\n    /* \"#utility.yul\":5831:5898   */\n  tag_134\n    /* \"#utility.yul\":5891:5897   */\n  dup3\n    /* \"#utility.yul\":5883:5889   */\n  dup3\n    /* \"#utility.yul\":5877:5881   */\n  dup6\n    /* \"#utility.yul\":5831:5898   */\n  tag_53\n  jump\t// in\ntag_134:\n    /* \"#utility.yul\":5925:5926   */\n  0x00\n    /* \"#utility.yul\":5949:5953   */\n  0x20\n    /* \"#utility.yul\":5936:5953   */\n  swap1\n  pop\n    /* \"#utility.yul\":5981:5983   */\n  0x1f\n    /* \"#utility.yul\":5973:5979   */\n  dup4\n    /* \"#utility.yul\":5970:5984   */\n  gt\n    /* \"#utility.yul\":5998:5999   */\n  0x01\n    /* \"#utility.yul\":5993:6611   */\n  dup2\n  eq\n  tag_136\n  jumpi\n    /* \"#utility.yul\":6655:6656   */\n  0x00\n    /* \"#utility.yul\":6672:6678   */\n  dup5\n    /* \"#utility.yul\":6669:6746   */\n  iszero\n  tag_137\n  jumpi\n    /* \"#utility.yul\":6721:6730   */\n  dup3\n    /* \"#utility.yul\":6716:6719   */\n  dup8\n    /* \"#utility.yul\":6712:6731   */\n  add\n    /* \"#utility.yul\":6706:6732   */\n  mload\n    /* \"#utility.yul\":6697:6732   */\n  swap1\n  pop\n    /* \"#utility.yul\":6669:6746   */\ntag_137:\n    /* \"#utility.yul\":6772:6839   */\n  tag_138\n    /* \"#utility.yul\":6832:6838   */\n  dup6\n    /* \"#utility.yul\":6825:6830   */\n  dup3\n    /* \"#utility.yul\":6772:6839   */\n  tag_56\n  jump\t// in\ntag_138:\n    /* \"#utility.yul\":6766:6770   */\n  dup7\n    /* \"#utility.yul\":6759:6840   */\n  sstore\n    /* \"#utility.yul\":6628:6850   */\n  pop\n    /* \"#utility.yul\":5963:6850   */\n  jump(tag_135)\n    /* \"#utility.yul\":5993:6611   */\ntag_136:\n    /* \"#utility.yul\":6045:6049   */\n  0x1f\n    /* \"#utility.yul\":6041:6050   */\n  not\n    /* \"#utility.yul\":6033:6039   */\n  dup5\n    /* \"#utility.yul\":6029:6051   */\n  and\n    /* \"#utility.yul\":6079:6116   */\n  tag_139\n    /* \"#utility.yul\":6111:6115   */\n  dup7\n    /* \"#utility.yul\":6079:6116   */\n  tag_42\n  jump\t// in\ntag_139:\n    /* \"#utility.yul\":6138:6139   */\n  0x00\n    /* \"#utility.yul\":6152:6360   */\ntag_140:\n    /* \"#utility.yul\":6166:6173   */\n  dup3\n    /* \"#utility.yul\":6163:6164   */\n  dup2\n    /* \"#utility.yul\":6160:6174   */\n  lt\n    /* \"#utility.yul\":6152:6360   */\n  iszero\n  tag_142\n  jumpi\n    /* \"#utility.yul\":6245:6254   */\n  dup5\n    /* \"#utility.yul\":6240:6243   */\n  dup10\n    /* \"#utility.yul\":6236:6255   */\n  add\n    /* \"#utility.yul\":6230:6256   */\n  mload\n    /* \"#utility.yul\":6222:6228   */\n  dup3\n    /* \"#utility.yul\":6215:6257   */\n  sstore\n    /* \"#utility.yul\":6296:6297   */\n  0x01\n    /* \"#utility.yul\":6288:6294   */\n  dup3\n    /* \"#utility.yul\":6284:6298   */\n  add\n    /* \"#utility.yul\":6274:6298   */\n  swap2\n  pop\n    /* \"#utility.yul\":6343:6345   */\n  0x20\n    /* \"#utility.yul\":6332:6341   */\n  dup6\n    /* \"#utility.yul\":6328:6346   */\n  add\n    /* \"#utility.yul\":6315:6346   */\n  swap5\n  pop\n    /* \"#utility.yul\":6189:6193   */\n  0x20\n    /* \"#utility.yul\":6186:6187   */\n  dup2\n    /* \"#utility.yul\":6182:6194   */\n  add\n    /* \"#utility.yul\":6177:6194   */\n  swap1\n  pop\n    /* \"#utility.yul\":6152:6360   */\n  jump(tag_140)\ntag_142:\n    /* \"#utility.yul\":6388:6394   */\n  dup7\n    /* \"#utility.yul\":6379:6386   */\n  dup4\n    /* \"#utility.yul\":6376:6395   */\n  lt\n    /* \"#utility.yul\":6373:6552   */\n  iszero\n  tag_143\n  jumpi\n    /* \"#utility.yul\":6446:6455   */\n  dup5\n    /* \"#utility.yul\":6441:6444   */\n  dup10\n    /* \"#utility.yul\":6437:6456   */\n  add\n    /* \"#utility.yul\":6431:6457   */\n  mload\n    /* \"#utility.yul\":6489:6537   */\n  tag_144\n    /* \"#utility.yul\":6531:6535   */\n  0x1f\n    /* \"#utility.yul\":6523:6529   */\n  dup10\n    /* \"#utility.yul\":6519:6536   */\n  and\n    /* \"#utility.yul\":6508:6517   */\n  dup3\n    /* \"#utility.yul\":6489:6537   */\n  tag_55\n  jump\t// in\ntag_144:\n    /* \"#utility.yul\":6481:6487   */\n  dup4\n    /* \"#utility.yul\":6474:6538   */\n  sstore\n    /* \"#utility.yul\":6396:6552   */\n  pop\n    /* \"#utility.yul\":6373:6552   */\ntag_143:\n    /* \"#utility.yul\":6598:6599   */\n  0x01\n    /* \"#utility.yul\":6594:6595   */\n  0x02\n    /* \"#utility.yul\":6586:6592   */\n  dup9\n    /* \"#utility.yul\":6582:6596   */\n  mul\n    /* \"#utility.yul\":6578:6600   */\n  add\n    /* \"#utility.yul\":6572:6576   */\n  dup9\n    /* \"#utility.yul\":6565:6601   */\n  sstore\n    /* \"#utility.yul\":6000:6611   */\n  pop\n  pop\n  pop\n    /* \"#utility.yul\":5963:6850   */\ntag_135:\n  pop\n    /* \"#utility.yul\":5553:6856   */\n  pop\n  pop\n  pop\n    /* \"#utility.yul\":5461:6856   */\n  pop\n  pop\n  jump\t// out\n    /* \"#utility.yul\":6862:7031   */\ntag_57:\n    /* \"#utility.yul\":6946:6957   */\n  0x00\n    /* \"#utility.yul\":6980:6986   */\n  dup3\n    /* \"#utility.yul\":6975:6978   */\n  dup3\n    /* \"#utility.yul\":6968:6987   */\n  mstore\n    /* \"#utility.yul\":7020:7024   */\n  0x20\n    /* \"#utility.yul\":7015:7018   */\n  dup3\n    /* \"#utility.yul\":7011:7025   */\n  add\n    /* \"#utility.yul\":6996:7025   */\n  swap1\n  pop\n    /* \"#utility.yul\":6862:7031   */\n  swap3\n  swap2\n  pop\n  pop\n  jump\t// out\n    /* \"#utility.yul\":7037:7218   */\ntag_58:\n    /* \"#utility.yul\":7177:7210   */\n  0x45524332303a206d696e7420746f20746865207a65726f206164647265737300\n    /* \"#utility.yul\":7173:7174   */\n  0x00\n    /* \"#utility.yul\":7165:7171   */\n  dup3\n    /* \"#utility.yul\":7161:7175   */\n  add\n    /* \"#utility.yul\":7154:7211   */\n  mstore\n    /* \"#utility.yul\":7037:7218   */\n  pop\n  jump\t// out\n    /* \"#utility.yul\":7224:7590   */\ntag_59:\n    /* \"#utility.yul\":7366:7369   */\n  0x00\n    /* \"#utility.yul\":7387:7454   */\n  tag_148\n    /* \"#utility.yul\":7451:7453   */\n  0x1f\n    /* \"#utility.yul\":7446:7449   */\n  dup4\n    /* \"#utility.yul\":7387:7454   */\n  tag_57\n  jump\t// in\ntag_148:\n    /* \"#utility.yul\":7380:7454   */\n  swap2\n  pop\n    /* \"#utility.yul\":7463:7556   */\n  tag_149\n    /* \"#utility.yul\":7552:7555   */\n  dup3\n    /* \"#utility.yul\":7463:7556   */\n  tag_58\n  jump\t// in\ntag_149:\n    /* \"#utility.yul\":7581:7583   */\n  0x20\n    /* \"#utility.yul\":7576:7579   */\n  dup3\n    /* \"#utility.yul\":7572:7584   */\n  add\n    /* \"#utility.yul\":7565:7584   */\n  swap1\n  pop\n    /* \"#utility.yul\":7224:7590   */\n  swap2\n  swap1\n  pop\n  jump\t// out\n    /* \"#utility.yul\":7596:8015   */\ntag_17:\n    /* \"#utility.yul\":7762:7766   */\n  0x00\n    /* \"#utility.yul\":7800:7802   */\n  0x20\n    /* \"#utility.yul\":7789:7798   */\n  dup3\n    /* \"#utility.yul\":7785:7803   */\n  add\n    /* \"#utility.yul\":7777:7803   */\n  swap1\n  pop\n    /* \"#utility.yul\":7849:7858   */\n  dup2\n    /* \"#utility.yul\":7843:7847   */\n  dup2\n    /* \"#utility.yul\":7839:7859   */\n  sub\n    /* \"#utility.yul\":7835:7836   */\n  0x00\n    /* \"#utility.yul\":7824:7833   */\n  dup4\n    /* \"#utility.yul\":7820:7837   */\n  add\n    /* \"#utility.yul\":7813:7860   */\n  mstore\n    /* \"#utility.yul\":7877:8008   */\n  tag_151\n    /* \"#utility.yul\":8003:8007   */\n  dup2\n    /* \"#utility.yul\":7877:8008   */\n  tag_59\n  jump\t// in\ntag_151:\n    /* \"#utility.yul\":7869:8008   */\n  swap1\n  pop\n    /* \"#utility.yul\":7596:8015   */\n  swap2\n  swap1\n  pop\n  jump\t// out\n    /* \"#utility.yul\":8021:8201   */\ntag_60:\n    /* \"#utility.yul\":8069:8146   */\n  0x4e487b7100000000000000000000000000000000000000000000000000000000\n    /* \"#utility.yul\":8066:8067   */\n  0x00\n    /* \"#utility.yul\":8059:8147   */\n  mstore\n    /* \"#utility.yul\":8166:8170   */\n  0x11\n    /* \"#utility.yul\":8163:8164   */\n  0x04\n    /* \"#utility.yul\":8156:8171   */\n  mstore\n    /* \"#utility.yul\":8190:8194   */\n  0x24\n    /* \"#utility.yul\":8187:8188   */\n  0x00\n    /* \"#utility.yul\":8180:8195   */\n  revert\n    /* \"#utility.yul\":8207:8398   */\ntag_21:\n    /* \"#utility.yul\":8247:8250   */\n  0x00\n    /* \"#utility.yul\":8266:8286   */\n  tag_154\n    /* \"#utility.yul\":8284:8285   */\n  dup3\n    /* \"#utility.yul\":8266:8286   */\n  tag_35\n  jump\t// in\ntag_154:\n    /* \"#utility.yul\":8261:8286   */\n  swap2\n  pop\n    /* \"#utility.yul\":8300:8320   */\n  tag_155\n    /* \"#utility.yul\":8318:8319   */\n  dup4\n    /* \"#utility.yul\":8300:8320   */\n  tag_35\n  jump\t// in\ntag_155:\n    /* \"#utility.yul\":8295:8320   */\n  swap3\n  pop\n    /* \"#utility.yul\":8343:8344   */\n  dup3\n    /* \"#utility.yul\":8340:8341   */\n  dup3\n    /* \"#utility.yul\":8336:8345   */\n  add\n    /* \"#utility.yul\":8329:8345   */\n  swap1\n  pop\n    /* \"#utility.yul\":8364:8367   */\n  dup1\n    /* \"#utility.yul\":8361:8362   */\n  dup3\n    /* \"#utility.yul\":8358:8368   */\n  gt\n    /* \"#utility.yul\":8355:8391   */\n  iszero\n  tag_156\n  jumpi\n    /* \"#utility.yul\":8371:8389   */\n  tag_157\n  tag_60\n  jump\t// in\ntag_157:\n    /* \"#utility.yul\":8355:8391   */\ntag_156:\n    /* \"#utility.yul\":8207:8398   */\n  swap3\n  swap2\n  pop\n  pop\n  jump\t// out\n    /* \"#utility.yul\":8404:8522   */\ntag_61:\n    /* \"#utility.yul\":8491:8515   */\n  tag_159\n    /* \"#utility.yul\":8509:8514   */\n  dup2\n    /* \"#utility.yul\":8491:8515   */\n  tag_35\n  jump\t// in\ntag_159:\n    /* \"#utility.yul\":8486:8489   */\n  dup3\n    /* \"#utility.yul\":8479:8516   */\n  mstore\n    /* \"#utility.yul\":8404:8522   */\n  pop\n  pop\n  jump\t// out\n    /* \"#utility.yul\":8528:8750   */\ntag_23:\n    /* \"#utility.yul\":8621:8625   */\n  0x00\n    /* \"#utility.yul\":8659:8661   */\n  0x20\n    /* \"#utility.yul\":8648:8657   */\n  dup3\n    /* \"#utility.yul\":8644:8662   */\n  add\n    /* \"#utility.yul\":8636:8662   */\n  swap1\n  pop\n    /* \"#utility.yul\":8672:8743   */\n  tag_161\n    /* \"#utility.yul\":8740:8741   */\n  0x00\n    /* \"#utility.yul\":8729:8738   */\n  dup4\n    /* \"#utility.yul\":8725:8742   */\n  add\n    /* \"#utility.yul\":8716:8722   */\n  dup5\n    /* \"#utility.yul\":8672:8743   */\n  tag_61\n  jump\t// in\ntag_161:\n    /* \"#utility.yul\":8528:8750   */\n  swap3\n  swap2\n  pop\n  pop\n  jump\t// out\n    /* \"CBDC.sol\":83:3310  contract CBDC is ERC20 {... */\ntag_13:\n  dataSize(sub_0)\n  dup1\n  dataOffset(sub_0)\n  0x00\n  codecopy\n  0x00\n  return\nstop\n\nsub_0: assembly {\n        /* \"CBDC.sol\":83:3310  contract CBDC is ERC20 {... */\n      mstore(0x40, 0x80)\n      callvalue\n      dup1\n      iszero\n      tag_1\n      jumpi\n      0x00\n      dup1\n      revert\n    tag_1:\n      pop\n      jumpi(tag_2, lt(calldatasize, 0x04))\n      shr(0xe0, calldataload(0x00))\n      dup1\n      0x752a50a6\n      gt\n      tag_23\n      jumpi\n      dup1\n      0xab654f18\n      gt\n      tag_24\n      jumpi\n      dup1\n      0xab654f18\n      eq\n      tag_18\n      jumpi\n      dup1\n      0xb3b2c7be\n      eq\n      tag_19\n      jumpi\n      dup1\n      0xdd62ed3e\n      eq\n      tag_20\n      jumpi\n      dup1\n      0xeb4b734c\n      eq\n      tag_21\n      jumpi\n      dup1\n      0xf9f92be4\n      eq\n      tag_22\n      jumpi\n      jump(tag_2)\n    tag_24:\n      dup1\n      0x752a50a6\n      eq\n      tag_13\n      jumpi\n      dup1\n      0x91e93eba\n      eq\n      tag_14\n      jumpi\n      dup1\n      0x95d89b41\n      eq\n      tag_15\n      jumpi\n      dup1\n      0xa457c2d7\n      eq\n      tag_16\n      jumpi\n      dup1\n      0xa9059cbb\n      eq\n      tag_17\n      jumpi\n      jump(tag_2)\n    tag_23:\n      dup1\n      0x23b872dd\n      gt\n      tag_25\n      jumpi\n      dup1\n      0x23b872dd\n      eq\n      tag_8\n      jumpi\n      dup1\n      0x2e695608\n      eq\n      tag_9\n      jumpi\n      dup1\n      0x313ce567\n      eq\n      tag_10\n      jumpi\n      dup1\n      0x39509351\n      eq\n      tag_11\n      jumpi\n      dup1\n      0x70a08231\n      eq\n      tag_12\n      jumpi\n      jump(tag_2)\n    tag_25:\n      dup1\n      0x06fdde03\n      eq\n      tag_3\n      jumpi\n      dup1\n      0x095ea7b3\n      eq\n      tag_4\n      jumpi\n      dup1\n      0x18160ddd\n      eq\n      tag_5\n      jumpi\n      dup1\n      0x2170e472\n      eq\n      tag_6\n      jumpi\n      dup1\n      0x2322abf3\n      eq\n      tag_7\n      jumpi\n    tag_2:\n      0x00\n      dup1\n      revert\n        /* \"@openzeppelin/contracts/token/ERC20/ERC20.sol\":2154:2252  function name() public view virtual override returns (string memory) {... */\n    tag_3:\n      tag_26\n      tag_27\n      jump\t// in\n    tag_26:\n      mload(0x40)\n      tag_28\n      swap2\n      swap1\n      tag_29\n      jump\t// in\n    tag_28:\n      mload(0x40)\n      dup1\n      swap2\n      sub\n      swap1\n      return\n        /* \"@openzeppelin/contracts/token/ERC20/ERC20.sol\":4431:4628  function approve(address spender, uint256 amount) public virtual override returns (bool) {... */\n    tag_4:\n      tag_30\n      0x04\n      dup1\n      calldatasize\n      sub\n      dup2\n      add\n      swap1\n      tag_31\n      swap2\n      swap1\n      tag_32\n      jump\t// in\n    tag_31:\n      tag_33\n      jump\t// in\n    tag_30:\n      mload(0x40)\n      tag_34\n      swap2\n      swap1\n      tag_35\n      jump\t// in\n    tag_34:\n      mload(0x40)\n      dup1\n      swap2\n      sub\n      swap1\n      return\n        /* \"@openzeppelin/contracts/token/ERC20/ERC20.sol\":3242:3348  function totalSupply() public view virtual override returns (uint256) {... */\n    tag_5:\n      tag_36\n      tag_37\n      jump\t// in\n    tag_36:\n      mload(0x40)\n      tag_38\n      swap2\n      swap1\n      tag_39\n      jump\t// in\n    tag_38:\n      mload(0x40)\n      dup1\n      swap2\n      sub\n      swap1\n      return\n        /* \"CBDC.sol\":373:414  mapping(address => uint) public stakeTime */\n    tag_6:\n      tag_40\n      0x04\n      dup1\n      calldatasize\n      sub\n      dup2\n      add\n      swap1\n      tag_41\n      swap2\n      swap1\n      tag_42\n      jump\t// in\n    tag_41:\n      tag_43\n      jump\t// in\n    tag_40:\n      mload(0x40)\n      tag_44\n      swap2\n      swap1\n      tag_39\n      jump\t// in\n    tag_44:\n      mload(0x40)\n      dup1\n      swap2\n      sub\n      swap1\n      return\n        /* \"CBDC.sol\":149:188  uint public interestRateBasisPoints=500 */\n    tag_7:\n      tag_45\n      tag_46\n      jump\t// in\n    tag_45:\n      mload(0x40)\n      tag_47\n      swap2\n      swap1\n      tag_39\n      jump\t// in\n    tag_47:\n      mload(0x40)\n      dup1\n      swap2\n      sub\n      swap1\n      return\n        /* \"@openzeppelin/contracts/token/ERC20/ERC20.sol\":5190:5476  function transferFrom(... */\n    tag_8:\n      tag_48\n      0x04\n      dup1\n      calldatasize\n      sub\n      dup2\n      add\n      swap1\n      tag_49\n      swap2\n      swap1\n      tag_50\n      jump\t// in\n    tag_49:\n      tag_51\n      jump\t// in\n    tag_48:\n      mload(0x40)\n      tag_52\n      swap2\n      swap1\n      tag_35\n      jump\t// in\n    tag_52:\n      mload(0x40)\n      dup1\n      swap2\n      sub\n      swap1\n      return\n        /* \"CBDC.sol\":1118:1533  function updateControllingParty(address newControllingParty) external {... */\n    tag_9:\n      tag_53\n      0x04\n      dup1\n      calldatasize\n      sub\n      dup2\n      add\n      swap1\n      tag_54\n      swap2\n      swap1\n      tag_42\n      jump\t// in\n    tag_54:\n      tag_55\n      jump\t// in\n    tag_53:\n      stop\n        /* \"@openzeppelin/contracts/token/ERC20/ERC20.sol\":3091:3182  function decimals() public view virtual override returns (uint8) {... */\n    tag_10:\n      tag_56\n      tag_57\n      jump\t// in\n    tag_56:\n      mload(0x40)\n      tag_58\n      swap2\n      swap1\n      tag_59\n      jump\t// in\n    tag_58:\n      mload(0x40)\n      dup1\n      swap2\n      sub\n      swap1\n      return\n        /* \"@openzeppelin/contracts/token/ERC20/ERC20.sol\":5871:6105  function increaseAllowance(address spender, uint256 addedValue) public virtual returns (bool) {... */\n    tag_11:\n      tag_60\n      0x04\n      dup1\n      calldatasize\n      sub\n      dup2\n      add\n      swap1\n      tag_61\n      swap2\n      swap1\n      tag_32\n      jump\t// in\n    tag_61:\n      tag_62\n      jump\t// in\n    tag_60:\n      mload(0x40)\n      tag_63\n      swap2\n      swap1\n      tag_35\n      jump\t// in\n    tag_63:\n      mload(0x40)\n      dup1\n      swap2\n      sub\n      swap1\n      return\n        /* \"@openzeppelin/contracts/token/ERC20/ERC20.sol\":3406:3531  function balanceOf(address account) public view virtual override returns (uint256) {... */\n    tag_12:\n      tag_64\n      0x04\n      dup1\n      calldatasize\n      sub\n      dup2\n      add\n      swap1\n      tag_65\n      swap2\n      swap1\n      tag_42\n      jump\t// in\n    tag_65:\n      tag_66\n      jump\t// in\n    tag_64:\n      mload(0x40)\n      tag_67\n      swap2\n      swap1\n      tag_39\n      jump\t// in\n    tag_67:\n      mload(0x40)\n      dup1\n      swap2\n      sub\n      swap1\n      return\n        /* \"CBDC.sol\":1539:1883  function updateInterestRate(uint newInterestRateBasisPoints) external {... */\n    tag_13:\n      tag_68\n      0x04\n      dup1\n      calldatasize\n      sub\n      dup2\n      add\n      swap1\n      tag_69\n      swap2\n      swap1\n      tag_70\n      jump\t// in\n    tag_69:\n      tag_71\n      jump\t// in\n    tag_68:\n      stop\n        /* \"CBDC.sol\":112:143  address public controllingParty */\n    tag_14:\n      tag_72\n      tag_73\n      jump\t// in\n    tag_72:\n      mload(0x40)\n      tag_74\n      swap2\n      swap1\n      tag_75\n      jump\t// in\n    tag_74:\n      mload(0x40)\n      dup1\n      swap2\n      sub\n      swap1\n      return\n        /* \"@openzeppelin/contracts/token/ERC20/ERC20.sol\":2365:2467  function symbol() public view virtual override returns (string memory) {... */\n    tag_15:\n      tag_76\n      tag_77\n      jump\t// in\n    tag_76:\n      mload(0x40)\n      tag_78\n      swap2\n      swap1\n      tag_29\n      jump\t// in\n    tag_78:\n      mload(0x40)\n      dup1\n      swap2\n      sub\n      swap1\n      return\n        /* \"@openzeppelin/contracts/token/ERC20/ERC20.sol\":6592:7019  function decreaseAllowance(address spender, uint256 subtractedValue) public virtual returns (bool) {... */\n    tag_16:\n      tag_79\n      0x04\n      dup1\n      calldatasize\n      sub\n      dup2\n      add\n      swap1\n      tag_80\n      swap2\n      swap1\n      tag_32\n      jump\t// in\n    tag_80:\n      tag_81\n      jump\t// in\n    tag_79:\n      mload(0x40)\n      tag_82\n      swap2\n      swap1\n      tag_35\n      jump\t// in\n    tag_82:\n      mload(0x40)\n      dup1\n      swap2\n      sub\n      swap1\n      return\n        /* \"@openzeppelin/contracts/token/ERC20/ERC20.sol\":3727:3916  function transfer(address to, uint256 amount) public virtual override returns (bool) {... */\n    tag_17:\n      tag_83\n      0x04\n      dup1\n      calldatasize\n      sub\n      dup2\n      add\n      swap1\n      tag_84\n      swap2\n      swap1\n      tag_32\n      jump\t// in\n    tag_84:\n      tag_85\n      jump\t// in\n    tag_83:\n      mload(0x40)\n      tag_86\n      swap2\n      swap1\n      tag_35\n      jump\t// in\n    tag_86:\n      mload(0x40)\n      dup1\n      swap2\n      sub\n      swap1\n      return\n        /* \"CBDC.sol\":1889:2210  function increaseMoneySupply(uint inflationAmount) external{... */\n    tag_18:\n      tag_87\n      0x04\n      dup1\n      calldatasize\n      sub\n      dup2\n      add\n      swap1\n      tag_88\n      swap2\n      swap1\n      tag_70\n      jump\t// in\n    tag_88:\n      tag_89\n      jump\t// in\n    tag_87:\n      stop\n        /* \"CBDC.sol\":2843:3299  function unstakeCBDC() public {... */\n    tag_19:\n      tag_90\n      tag_91\n      jump\t// in\n    tag_90:\n      stop\n        /* \"@openzeppelin/contracts/token/ERC20/ERC20.sol\":3974:4123  function allowance(address owner, address spender) public view virtual override returns (uint256) {... */\n    tag_20:\n      tag_92\n      0x04\n      dup1\n      calldatasize\n      sub\n      dup2\n      add\n      swap1\n      tag_93\n      swap2\n      swap1\n      tag_94\n      jump\t// in\n    tag_93:\n      tag_95\n      jump\t// in\n    tag_92:\n      mload(0x40)\n      tag_96\n      swap2\n      swap1\n      tag_39\n      jump\t// in\n    tag_96:\n      mload(0x40)\n      dup1\n      swap2\n      sub\n      swap1\n      return\n        /* \"CBDC.sol\":2491:2837  function stakeCBDC(uint stakeAmount) public{... */\n    tag_21:\n      tag_97\n      0x04\n      dup1\n      calldatasize\n      sub\n      dup2\n      add\n      swap1\n      tag_98\n      swap2\n      swap1\n      tag_70\n      jump\t// in\n    tag_98:\n      tag_99\n      jump\t// in\n    tag_97:\n      stop\n        /* \"CBDC.sol\":218:259  mapping(address => bool) public blacklist */\n    tag_22:\n      tag_100\n      0x04\n      dup1\n      calldatasize\n      sub\n      dup2\n      add\n      swap1\n      tag_101\n      swap2\n      swap1\n      tag_42\n      jump\t// in\n    tag_101:\n      tag_102\n      jump\t// in\n    tag_100:\n      mload(0x40)\n      tag_103\n      swap2\n      swap1\n      tag_35\n      jump\t// in\n    tag_103:\n      mload(0x40)\n      dup1\n      swap2\n      sub\n      swap1\n      return\n        /* \"@openzeppelin/contracts/token/ERC20/ERC20.sol\":2154:2252  function name() public view virtual override returns (string memory) {... */\n    tag_27:\n        /* \"@openzeppelin/contracts/token/ERC20/ERC20.sol\":2208:2221  string memory */\n      0x60\n        /* \"@openzeppelin/contracts/token/ERC20/ERC20.sol\":2240:2245  _name */\n      0x03\n        /* \"@openzeppelin/contracts/token/ERC20/ERC20.sol\":2233:2245  return _name */\n      dup1\n      sload\n      tag_105\n      swap1\n      tag_106\n      jump\t// in\n    tag_105:\n      dup1\n      0x1f\n      add\n      0x20\n      dup1\n      swap2\n      div\n      mul\n      0x20\n      add\n      mload(0x40)\n      swap1\n      dup2\n      add\n      0x40\n      mstore\n      dup1\n      swap3\n      swap2\n      swap1\n      dup2\n      dup2\n      mstore\n      0x20\n      add\n      dup3\n      dup1\n      sload\n      tag_107\n      swap1\n      tag_106\n      jump\t// in\n    tag_107:\n      dup1\n      iszero\n      tag_108\n      jumpi\n      dup1\n      0x1f\n      lt\n      tag_109\n      jumpi\n      0x0100\n      dup1\n      dup4\n      sload\n      div\n      mul\n      dup4\n      mstore\n      swap2\n      0x20\n      add\n      swap2\n      jump(tag_108)\n    tag_109:\n      dup3\n      add\n      swap2\n      swap1\n      0x00\n      mstore\n      keccak256(0x00, 0x20)\n      swap1\n    tag_110:\n      dup2\n      sload\n      dup2\n      mstore\n      swap1\n      0x01\n      add\n      swap1\n      0x20\n      add\n      dup1\n      dup4\n      gt\n      tag_110\n      jumpi\n      dup3\n      swap1\n      sub\n      0x1f\n      and\n      dup3\n      add\n      swap2\n    tag_108:\n      pop\n      pop\n      pop\n      pop\n      pop\n      swap1\n      pop\n        /* \"@openzeppelin/contracts/token/ERC20/ERC20.sol\":2154:2252  function name() public view virtual override returns (string memory) {... */\n      swap1\n      jump\t// out\n        /* \"@openzeppelin/contracts/token/ERC20/ERC20.sol\":4431:4628  function approve(address spender, uint256 amount) public virtual override returns (bool) {... */\n    tag_33:\n        /* \"@openzeppelin/contracts/token/ERC20/ERC20.sol\":4514:4518  bool */\n      0x00\n        /* \"@openzeppelin/contracts/token/ERC20/ERC20.sol\":4530:4543  address owner */\n      dup1\n        /* \"@openzeppelin/contracts/token/ERC20/ERC20.sol\":4546:4558  _msgSender() */\n      tag_112\n        /* \"@openzeppelin/contracts/token/ERC20/ERC20.sol\":4546:4556  _msgSender */\n      tag_113\n        /* \"@openzeppelin/contracts/token/ERC20/ERC20.sol\":4546:4558  _msgSender() */\n      jump\t// in\n    tag_112:\n        /* \"@openzeppelin/contracts/token/ERC20/ERC20.sol\":4530:4558  address owner = _msgSender() */\n      swap1\n      pop\n        /* \"@openzeppelin/contracts/token/ERC20/ERC20.sol\":4568:4600  _approve(owner, spender, amount) */\n      tag_114\n        /* \"@openzeppelin/contracts/token/ERC20/ERC20.sol\":4577:4582  owner */\n      dup2\n        /* \"@openzeppelin/contracts/token/ERC20/ERC20.sol\":4584:4591  spender */\n      dup6\n        /* \"@openzeppelin/contracts/token/ERC20/ERC20.sol\":4593:4599  amount */\n      dup6\n        /* \"@openzeppelin/contracts/token/ERC20/ERC20.sol\":4568:4576  _approve */\n      tag_115\n        /* \"@openzeppelin/contracts/token/ERC20/ERC20.sol\":4568:4600  _approve(owner, spender, amount) */\n      jump\t// in\n    tag_114:\n        /* \"@openzeppelin/contracts/token/ERC20/ERC20.sol\":4617:4621  true */\n      0x01\n        /* \"@openzeppelin/contracts/token/ERC20/ERC20.sol\":4610:4621  return true */\n      swap2\n      pop\n      pop\n        /* \"@openzeppelin/contracts/token/ERC20/ERC20.sol\":4431:4628  function approve(address spender, uint256 amount) public virtual override returns (bool) {... */\n      swap3\n      swap2\n      pop\n      pop\n      jump\t// out\n        /* \"@openzeppelin/contracts/token/ERC20/ERC20.sol\":3242:3348  function totalSupply() public view virtual override returns (uint256) {... */\n    tag_37:\n        /* \"@openzeppelin/contracts/token/ERC20/ERC20.sol\":3303:3310  uint256 */\n      0x00\n        /* \"@openzeppelin/contracts/token/ERC20/ERC20.sol\":3329:3341  _totalSupply */\n      sload(0x02)\n        /* \"@openzeppelin/contracts/token/ERC20/ERC20.sol\":3322:3341  return _totalSupply */\n      swap1\n      pop\n        /* \"@openzeppelin/contracts/token/ERC20/ERC20.sol\":3242:3348  function totalSupply() public view virtual override returns (uint256) {... */\n      swap1\n      jump\t// out\n        /* \"CBDC.sol\":373:414  mapping(address => uint) public stakeTime */\n    tag_43:\n      mstore(0x20, 0x0a)\n      dup1\n      0x00\n      mstore\n      keccak256(0x00, 0x40)\n      0x00\n      swap2\n      pop\n      swap1\n      pop\n      sload\n      dup2\n      jump\t// out\n        /* \"CBDC.sol\":149:188  uint public interestRateBasisPoints=500 */\n    tag_46:\n      sload(0x06)\n      dup2\n      jump\t// out\n        /* \"@openzeppelin/contracts/token/ERC20/ERC20.sol\":5190:5476  function transferFrom(... */\n    tag_51:\n        /* \"@openzeppelin/contracts/token/ERC20/ERC20.sol\":5317:5321  bool */\n      0x00\n        /* \"@openzeppelin/contracts/token/ERC20/ERC20.sol\":5333:5348  address spender */\n      dup1\n        /* \"@openzeppelin/contracts/token/ERC20/ERC20.sol\":5351:5363  _msgSender() */\n      tag_118\n        /* \"@openzeppelin/contracts/token/ERC20/ERC20.sol\":5351:5361  _msgSender */\n      tag_113\n        /* \"@openzeppelin/contracts/token/ERC20/ERC20.sol\":5351:5363  _msgSender() */\n      jump\t// in\n    tag_118:\n        /* \"@openzeppelin/contracts/token/ERC20/ERC20.sol\":5333:5363  address spender = _msgSender() */\n      swap1\n      pop\n        /* \"@openzeppelin/contracts/token/ERC20/ERC20.sol\":5373:5411  _spendAllowance(from, spender, amount) */\n      tag_119\n        /* \"@openzeppelin/contracts/token/ERC20/ERC20.sol\":5389:5393  from */\n      dup6\n        /* \"@openzeppelin/contracts/token/ERC20/ERC20.sol\":5395:5402  spender */\n      dup3\n        /* \"@openzeppelin/contracts/token/ERC20/ERC20.sol\":5404:5410  amount */\n      dup6\n        /* \"@openzeppelin/contracts/token/ERC20/ERC20.sol\":5373:5388  _spendAllowance */\n      tag_120\n        /* \"@openzeppelin/contracts/token/ERC20/ERC20.sol\":5373:5411  _spendAllowance(from, spender, amount) */\n      jump\t// in\n    tag_119:\n        /* \"@openzeppelin/contracts/token/ERC20/ERC20.sol\":5421:5448  _transfer(from, to, amount) */\n      tag_121\n        /* \"@openzeppelin/contracts/token/ERC20/ERC20.sol\":5431:5435  from */\n      dup6\n        /* \"@openzeppelin/contracts/token/ERC20/ERC20.sol\":5437:5439  to */\n      dup6\n        /* \"@openzeppelin/contracts/token/ERC20/ERC20.sol\":5441:5447  amount */\n      dup6\n        /* \"@openzeppelin/contracts/token/ERC20/ERC20.sol\":5421:5430  _transfer */\n      tag_122\n        /* \"@openzeppelin/contracts/token/ERC20/ERC20.sol\":5421:5448  _transfer(from, to, amount) */\n      jump\t// in\n    tag_121:\n        /* \"@openzeppelin/contracts/token/ERC20/ERC20.sol\":5465:5469  true */\n      0x01\n        /* \"@openzeppelin/contracts/token/ERC20/ERC20.sol\":5458:5469  return true */\n      swap2\n      pop\n      pop\n        /* \"@openzeppelin/contracts/token/ERC20/ERC20.sol\":5190:5476  function transferFrom(... */\n      swap4\n      swap3\n      pop\n      pop\n      pop\n      jump\t// out\n        /* \"CBDC.sol\":1118:1533  function updateControllingParty(address newControllingParty) external {... */\n    tag_55:\n        /* \"CBDC.sol\":1221:1237  controllingParty */\n      0x05\n      0x00\n      swap1\n      sload\n      swap1\n      0x0100\n      exp\n      swap1\n      div\n      0xffffffffffffffffffffffffffffffffffffffff\n      and\n        /* \"CBDC.sol\":1207:1237  msg.sender == controllingParty */\n      0xffffffffffffffffffffffffffffffffffffffff\n      and\n        /* \"CBDC.sol\":1207:1217  msg.sender */\n      caller\n        /* \"CBDC.sol\":1207:1237  msg.sender == controllingParty */\n      0xffffffffffffffffffffffffffffffffffffffff\n      and\n      eq\n        /* \"CBDC.sol\":1199:1262  require(msg.sender == controllingParty,\"not controlling party\") */\n      tag_124\n      jumpi\n      mload(0x40)\n      0x08c379a000000000000000000000000000000000000000000000000000000000\n      dup2\n      mstore\n      0x04\n      add\n      tag_125\n      swap1\n      tag_126\n      jump\t// in\n    tag_125:\n      mload(0x40)\n      dup1\n      swap2\n      sub\n      swap1\n      revert\n    tag_124:\n        /* \"CBDC.sol\":1272:1299  address oldControllingParty */\n      0x00\n        /* \"CBDC.sol\":1300:1316  controllingParty */\n      0x05\n      0x00\n      swap1\n      sload\n      swap1\n      0x0100\n      exp\n      swap1\n      div\n      0xffffffffffffffffffffffffffffffffffffffff\n      and\n        /* \"CBDC.sol\":1272:1316  address oldControllingParty=controllingParty */\n      swap1\n      pop\n        /* \"CBDC.sol\":1344:1363  newControllingParty */\n      dup2\n        /* \"CBDC.sol\":1326:1342  controllingParty */\n      0x05\n      0x00\n        /* \"CBDC.sol\":1326:1363  controllingParty= newControllingParty */\n      0x0100\n      exp\n      dup2\n      sload\n      dup2\n      0xffffffffffffffffffffffffffffffffffffffff\n      mul\n      not\n      and\n      swap1\n      dup4\n      0xffffffffffffffffffffffffffffffffffffffff\n      and\n      mul\n      or\n      swap1\n      sstore\n      pop\n        /* \"CBDC.sol\":1373:1449  _transfer(oldControllingParty,controllingParty, balanceOf(controllingParty)) */\n      tag_127\n        /* \"CBDC.sol\":1383:1402  oldControllingParty */\n      dup2\n        /* \"CBDC.sol\":1403:1419  controllingParty */\n      0x05\n      0x00\n      swap1\n      sload\n      swap1\n      0x0100\n      exp\n      swap1\n      div\n      0xffffffffffffffffffffffffffffffffffffffff\n      and\n        /* \"CBDC.sol\":1421:1448  balanceOf(controllingParty) */\n      tag_128\n        /* \"CBDC.sol\":1431:1447  controllingParty */\n      0x05\n      0x00\n      swap1\n      sload\n      swap1\n      0x0100\n      exp\n      swap1\n      div\n      0xffffffffffffffffffffffffffffffffffffffff\n      and\n        /* \"CBDC.sol\":1421:1430  balanceOf */\n      tag_66\n        /* \"CBDC.sol\":1421:1448  balanceOf(controllingParty) */\n      jump\t// in\n    tag_128:\n        /* \"CBDC.sol\":1373:1382  _transfer */\n      tag_122\n        /* \"CBDC.sol\":1373:1449  _transfer(oldControllingParty,controllingParty, balanceOf(controllingParty)) */\n      jump\t// in\n    tag_127:\n        /* \"CBDC.sol\":1464:1525  UpdateConrollingParty(oldControllingParty,  controllingParty) */\n      0x5038665c4a66e55f78b514a2aaa8762ebf82e38ce9e1a7fdd1244a0f7a7bcf80\n        /* \"CBDC.sol\":1486:1505  oldControllingParty */\n      dup2\n        /* \"CBDC.sol\":1508:1524  controllingParty */\n      0x05\n      0x00\n      swap1\n      sload\n      swap1\n      0x0100\n      exp\n      swap1\n      div\n      0xffffffffffffffffffffffffffffffffffffffff\n      and\n        /* \"CBDC.sol\":1464:1525  UpdateConrollingParty(oldControllingParty,  controllingParty) */\n      mload(0x40)\n      tag_129\n      swap3\n      swap2\n      swap1\n      tag_130\n      jump\t// in\n    tag_129:\n      mload(0x40)\n      dup1\n      swap2\n      sub\n      swap1\n      log1\n        /* \"CBDC.sol\":1188:1533  {... */\n      pop\n        /* \"CBDC.sol\":1118:1533  function updateControllingParty(address newControllingParty) external {... */\n      pop\n      jump\t// out\n        /* \"@openzeppelin/contracts/token/ERC20/ERC20.sol\":3091:3182  function decimals() public view virtual override returns (uint8) {... */\n    tag_57:\n        /* \"@openzeppelin/contracts/token/ERC20/ERC20.sol\":3149:3154  uint8 */\n      0x00\n        /* \"@openzeppelin/contracts/token/ERC20/ERC20.sol\":3173:3175  18 */\n      0x12\n        /* \"@openzeppelin/contracts/token/ERC20/ERC20.sol\":3166:3175  return 18 */\n      swap1\n      pop\n        /* \"@openzeppelin/contracts/token/ERC20/ERC20.sol\":3091:3182  function decimals() public view virtual override returns (uint8) {... */\n      swap1\n      jump\t// out\n        /* \"@openzeppelin/contracts/token/ERC20/ERC20.sol\":5871:6105  function increaseAllowance(address spender, uint256 addedValue) public virtual returns (bool) {... */\n    tag_62:\n        /* \"@openzeppelin/contracts/token/ERC20/ERC20.sol\":5959:5963  bool */\n      0x00\n        /* \"@openzeppelin/contracts/token/ERC20/ERC20.sol\":5975:5988  address owner */\n      dup1\n        /* \"@openzeppelin/contracts/token/ERC20/ERC20.sol\":5991:6003  _msgSender() */\n      tag_133\n        /* \"@openzeppelin/contracts/token/ERC20/ERC20.sol\":5991:6001  _msgSender */\n      tag_113\n        /* \"@openzeppelin/contracts/token/ERC20/ERC20.sol\":5991:6003  _msgSender() */\n      jump\t// in\n    tag_133:\n        /* \"@openzeppelin/contracts/token/ERC20/ERC20.sol\":5975:6003  address owner = _msgSender() */\n      swap1\n      pop\n        /* \"@openzeppelin/contracts/token/ERC20/ERC20.sol\":6013:6077  _approve(owner, spender, allowance(owner, spender) + addedValue) */\n      tag_134\n        /* \"@openzeppelin/contracts/token/ERC20/ERC20.sol\":6022:6027  owner */\n      dup2\n        /* \"@openzeppelin/contracts/token/ERC20/ERC20.sol\":6029:6036  spender */\n      dup6\n        /* \"@openzeppelin/contracts/token/ERC20/ERC20.sol\":6066:6076  addedValue */\n      dup6\n        /* \"@openzeppelin/contracts/token/ERC20/ERC20.sol\":6038:6063  allowance(owner, spender) */\n      tag_135\n        /* \"@openzeppelin/contracts/token/ERC20/ERC20.sol\":6048:6053  owner */\n      dup6\n        /* \"@openzeppelin/contracts/token/ERC20/ERC20.sol\":6055:6062  spender */\n      dup10\n        /* \"@openzeppelin/contracts/token/ERC20/ERC20.sol\":6038:6047  allowance */\n      tag_95\n        /* \"@openzeppelin/contracts/token/ERC20/ERC20.sol\":6038:6063  allowance(owner, spender) */\n      jump\t// in\n    tag_135:\n        /* \"@openzeppelin/contracts/token/ERC20/ERC20.sol\":6038:6076  allowance(owner, spender) + addedValue */\n      tag_136\n      swap2\n      swap1\n      tag_137\n      jump\t// in\n    tag_136:\n        /* \"@openzeppelin/contracts/token/ERC20/ERC20.sol\":6013:6021  _approve */\n      tag_115\n        /* \"@openzeppelin/contracts/token/ERC20/ERC20.sol\":6013:6077  _approve(owner, spender, allowance(owner, spender) + addedValue) */\n      jump\t// in\n    tag_134:\n        /* \"@openzeppelin/contracts/token/ERC20/ERC20.sol\":6094:6098  true */\n      0x01\n        /* \"@openzeppelin/contracts/token/ERC20/ERC20.sol\":6087:6098  return true */\n      swap2\n      pop\n      pop\n        /* \"@openzeppelin/contracts/token/ERC20/ERC20.sol\":5871:6105  function increaseAllowance(address spender, uint256 addedValue) public virtual returns (bool) {... */\n      swap3\n      swap2\n      pop\n      pop\n      jump\t// out\n        /* \"@openzeppelin/contracts/token/ERC20/ERC20.sol\":3406:3531  function balanceOf(address account) public view virtual override returns (uint256) {... */\n    tag_66:\n        /* \"@openzeppelin/contracts/token/ERC20/ERC20.sol\":3480:3487  uint256 */\n      0x00\n        /* \"@openzeppelin/contracts/token/ERC20/ERC20.sol\":3506:3515  _balances */\n      dup1\n        /* \"@openzeppelin/contracts/token/ERC20/ERC20.sol\":3506:3524  _balances[account] */\n      0x00\n        /* \"@openzeppelin/contracts/token/ERC20/ERC20.sol\":3516:3523  account */\n      dup4\n        /* \"@openzeppelin/contracts/token/ERC20/ERC20.sol\":3506:3524  _balances[account] */\n      0xffffffffffffffffffffffffffffffffffffffff\n      and\n      0xffffffffffffffffffffffffffffffffffffffff\n      and\n      dup2\n      mstore\n      0x20\n      add\n      swap1\n      dup2\n      mstore\n      0x20\n      add\n      0x00\n      keccak256\n      sload\n        /* \"@openzeppelin/contracts/token/ERC20/ERC20.sol\":3499:3524  return _balances[account] */\n      swap1\n      pop\n        /* \"@openzeppelin/contracts/token/ERC20/ERC20.sol\":3406:3531  function balanceOf(address account) public view virtual override returns (uint256) {... */\n      swap2\n      swap1\n      pop\n      jump\t// out\n        /* \"CBDC.sol\":1539:1883  function updateInterestRate(uint newInterestRateBasisPoints) external {... */\n    tag_71:\n        /* \"CBDC.sol\":1642:1658  controllingParty */\n      0x05\n      0x00\n      swap1\n      sload\n      swap1\n      0x0100\n      exp\n      swap1\n      div\n      0xffffffffffffffffffffffffffffffffffffffff\n      and\n        /* \"CBDC.sol\":1628:1658  msg.sender == controllingParty */\n      0xffffffffffffffffffffffffffffffffffffffff\n      and\n        /* \"CBDC.sol\":1628:1638  msg.sender */\n      caller\n        /* \"CBDC.sol\":1628:1658  msg.sender == controllingParty */\n      0xffffffffffffffffffffffffffffffffffffffff\n      and\n      eq\n        /* \"CBDC.sol\":1620:1683  require(msg.sender == controllingParty,\"not controlling party\") */\n      tag_140\n      jumpi\n      mload(0x40)\n      0x08c379a000000000000000000000000000000000000000000000000000000000\n      dup2\n      mstore\n      0x04\n      add\n      tag_141\n      swap1\n      tag_126\n      jump\t// in\n    tag_141:\n      mload(0x40)\n      dup1\n      swap2\n      sub\n      swap1\n      revert\n    tag_140:\n        /* \"CBDC.sol\":1694:1710  uint oldInterest */\n      0x00\n        /* \"CBDC.sol\":1712:1738  newInterestRateBasisPoints */\n      dup2\n        /* \"CBDC.sol\":1694:1738  uint oldInterest= newInterestRateBasisPoints */\n      swap1\n      pop\n        /* \"CBDC.sol\":1774:1800  newInterestRateBasisPoints */\n      dup2\n        /* \"CBDC.sol\":1749:1772  interestRateBasisPoints */\n      0x06\n        /* \"CBDC.sol\":1749:1800  interestRateBasisPoints= newInterestRateBasisPoints */\n      dup2\n      swap1\n      sstore\n      pop\n        /* \"CBDC.sol\":1816:1875  UpdateInterestRate(oldInterest, newInterestRateBasisPoints) */\n      0x2463616ef8e6f9bddf00e4964b853ad9050f87cd3c73985d2ee6b6c8a8336991\n        /* \"CBDC.sol\":1835:1846  oldInterest */\n      dup2\n        /* \"CBDC.sol\":1848:1874  newInterestRateBasisPoints */\n      dup4\n        /* \"CBDC.sol\":1816:1875  UpdateInterestRate(oldInterest, newInterestRateBasisPoints) */\n      mload(0x40)\n      tag_142\n      swap3\n      swap2\n      swap1\n      tag_143\n      jump\t// in\n    tag_142:\n      mload(0x40)\n      dup1\n      swap2\n      sub\n      swap1\n      log1\n        /* \"CBDC.sol\":1609:1883  {... */\n      pop\n        /* \"CBDC.sol\":1539:1883  function updateInterestRate(uint newInterestRateBasisPoints) external {... */\n      pop\n      jump\t// out\n        /* \"CBDC.sol\":112:143  address public controllingParty */\n    tag_73:\n      0x05\n      0x00\n      swap1\n      sload\n      swap1\n      0x0100\n      exp\n      swap1\n      div\n      0xffffffffffffffffffffffffffffffffffffffff\n      and\n      dup2\n      jump\t// out\n        /* \"@openzeppelin/contracts/token/ERC20/ERC20.sol\":2365:2467  function symbol() public view virtual override returns (string memory) {... */\n    tag_77:\n        /* \"@openzeppelin/contracts/token/ERC20/ERC20.sol\":2421:2434  string memory */\n      0x60\n        /* \"@openzeppelin/contracts/token/ERC20/ERC20.sol\":2453:2460  _symbol */\n      0x04\n        /* \"@openzeppelin/contracts/token/ERC20/ERC20.sol\":2446:2460  return _symbol */\n      dup1\n      sload\n      tag_145\n      swap1\n      tag_106\n      jump\t// in\n    tag_145:\n      dup1\n      0x1f\n      add\n      0x20\n      dup1\n      swap2\n      div\n      mul\n      0x20\n      add\n      mload(0x40)\n      swap1\n      dup2\n      add\n      0x40\n      mstore\n      dup1\n      swap3\n      swap2\n      swap1\n      dup2\n      dup2\n      mstore\n      0x20\n      add\n      dup3\n      dup1\n      sload\n      tag_146\n      swap1\n      tag_106\n      jump\t// in\n    tag_146:\n      dup1\n      iszero\n      tag_147\n      jumpi\n      dup1\n      0x1f\n      lt\n      tag_148\n      jumpi\n      0x0100\n      dup1\n      dup4\n      sload\n      div\n      mul\n      dup4\n      mstore\n      swap2\n      0x20\n      add\n      swap2\n      jump(tag_147)\n    tag_148:\n      dup3\n      add\n      swap2\n      swap1\n      0x00\n      mstore\n      keccak256(0x00, 0x20)\n      swap1\n    tag_149:\n      dup2\n      sload\n      dup2\n      mstore\n      swap1\n      0x01\n      add\n      swap1\n      0x20\n      add\n      dup1\n      dup4\n      gt\n      tag_149\n      jumpi\n      dup3\n      swap1\n      sub\n      0x1f\n      and\n      dup3\n      add\n      swap2\n    tag_147:\n      pop\n      pop\n      pop\n      pop\n      pop\n      swap1\n      pop\n        /* \"@openzeppelin/contracts/token/ERC20/ERC20.sol\":2365:2467  function symbol() public view virtual override returns (string memory) {... */\n      swap1\n      jump\t// out\n        /* \"@openzeppelin/contracts/token/ERC20/ERC20.sol\":6592:7019  function decreaseAllowance(address spender, uint256 subtractedValue) public virtual returns (bool) {... */\n    tag_81:\n        /* \"@openzeppelin/contracts/token/ERC20/ERC20.sol\":6685:6689  bool */\n      0x00\n        /* \"@openzeppelin/contracts/token/ERC20/ERC20.sol\":6701:6714  address owner */\n      dup1\n        /* \"@openzeppelin/contracts/token/ERC20/ERC20.sol\":6717:6729  _msgSender() */\n      tag_151\n        /* \"@openzeppelin/contracts/token/ERC20/ERC20.sol\":6717:6727  _msgSender */\n      tag_113\n        /* \"@openzeppelin/contracts/token/ERC20/ERC20.sol\":6717:6729  _msgSender() */\n      jump\t// in\n    tag_151:\n        /* \"@openzeppelin/contracts/token/ERC20/ERC20.sol\":6701:6729  address owner = _msgSender() */\n      swap1\n      pop\n        /* \"@openzeppelin/contracts/token/ERC20/ERC20.sol\":6739:6763  uint256 currentAllowance */\n      0x00\n        /* \"@openzeppelin/contracts/token/ERC20/ERC20.sol\":6766:6791  allowance(owner, spender) */\n      tag_152\n        /* \"@openzeppelin/contracts/token/ERC20/ERC20.sol\":6776:6781  owner */\n      dup3\n        /* \"@openzeppelin/contracts/token/ERC20/ERC20.sol\":6783:6790  spender */\n      dup7\n        /* \"@openzeppelin/contracts/token/ERC20/ERC20.sol\":6766:6775  allowance */\n      tag_95\n        /* \"@openzeppelin/contracts/token/ERC20/ERC20.sol\":6766:6791  allowance(owner, spender) */\n      jump\t// in\n    tag_152:\n        /* \"@openzeppelin/contracts/token/ERC20/ERC20.sol\":6739:6791  uint256 currentAllowance = allowance(owner, spender) */\n      swap1\n      pop\n        /* \"@openzeppelin/contracts/token/ERC20/ERC20.sol\":6829:6844  subtractedValue */\n      dup4\n        /* \"@openzeppelin/contracts/token/ERC20/ERC20.sol\":6809:6825  currentAllowance */\n      dup2\n        /* \"@openzeppelin/contracts/token/ERC20/ERC20.sol\":6809:6844  currentAllowance >= subtractedValue */\n      lt\n      iszero\n        /* \"@openzeppelin/contracts/token/ERC20/ERC20.sol\":6801:6886  require(currentAllowance >= subtractedValue, \"ERC20: decreased allowance below zero\") */\n      tag_153\n      jumpi\n      mload(0x40)\n      0x08c379a000000000000000000000000000000000000000000000000000000000\n      dup2\n      mstore\n      0x04\n      add\n      tag_154\n      swap1\n      tag_155\n      jump\t// in\n    tag_154:\n      mload(0x40)\n      dup1\n      swap2\n      sub\n      swap1\n      revert\n    tag_153:\n        /* \"@openzeppelin/contracts/token/ERC20/ERC20.sol\":6920:6980  _approve(owner, spender, currentAllowance - subtractedValue) */\n      tag_156\n        /* \"@openzeppelin/contracts/token/ERC20/ERC20.sol\":6929:6934  owner */\n      dup3\n        /* \"@openzeppelin/contracts/token/ERC20/ERC20.sol\":6936:6943  spender */\n      dup7\n        /* \"@openzeppelin/contracts/token/ERC20/ERC20.sol\":6964:6979  subtractedValue */\n      dup7\n        /* \"@openzeppelin/contracts/token/ERC20/ERC20.sol\":6945:6961  currentAllowance */\n      dup5\n        /* \"@openzeppelin/contracts/token/ERC20/ERC20.sol\":6945:6979  currentAllowance - subtractedValue */\n      sub\n        /* \"@openzeppelin/contracts/token/ERC20/ERC20.sol\":6920:6928  _approve */\n      tag_115\n        /* \"@openzeppelin/contracts/token/ERC20/ERC20.sol\":6920:6980  _approve(owner, spender, currentAllowance - subtractedValue) */\n      jump\t// in\n    tag_156:\n        /* \"@openzeppelin/contracts/token/ERC20/ERC20.sol\":7008:7012  true */\n      0x01\n        /* \"@openzeppelin/contracts/token/ERC20/ERC20.sol\":7001:7012  return true */\n      swap3\n      pop\n      pop\n      pop\n        /* \"@openzeppelin/contracts/token/ERC20/ERC20.sol\":6592:7019  function decreaseAllowance(address spender, uint256 subtractedValue) public virtual returns (bool) {... */\n      swap3\n      swap2\n      pop\n      pop\n      jump\t// out\n        /* \"@openzeppelin/contracts/token/ERC20/ERC20.sol\":3727:3916  function transfer(address to, uint256 amount) public virtual override returns (bool) {... */\n    tag_85:\n        /* \"@openzeppelin/contracts/token/ERC20/ERC20.sol\":3806:3810  bool */\n      0x00\n        /* \"@openzeppelin/contracts/token/ERC20/ERC20.sol\":3822:3835  address owner */\n      dup1\n        /* \"@openzeppelin/contracts/token/ERC20/ERC20.sol\":3838:3850  _msgSender() */\n      tag_158\n        /* \"@openzeppelin/contracts/token/ERC20/ERC20.sol\":3838:3848  _msgSender */\n      tag_113\n        /* \"@openzeppelin/contracts/token/ERC20/ERC20.sol\":3838:3850  _msgSender() */\n      jump\t// in\n    tag_158:\n        /* \"@openzeppelin/contracts/token/ERC20/ERC20.sol\":3822:3850  address owner = _msgSender() */\n      swap1\n      pop\n        /* \"@openzeppelin/contracts/token/ERC20/ERC20.sol\":3860:3888  _transfer(owner, to, amount) */\n      tag_159\n        /* \"@openzeppelin/contracts/token/ERC20/ERC20.sol\":3870:3875  owner */\n      dup2\n        /* \"@openzeppelin/contracts/token/ERC20/ERC20.sol\":3877:3879  to */\n      dup6\n        /* \"@openzeppelin/contracts/token/ERC20/ERC20.sol\":3881:3887  amount */\n      dup6\n        /* \"@openzeppelin/contracts/token/ERC20/ERC20.sol\":3860:3869  _transfer */\n      tag_122\n        /* \"@openzeppelin/contracts/token/ERC20/ERC20.sol\":3860:3888  _transfer(owner, to, amount) */\n      jump\t// in\n    tag_159:\n        /* \"@openzeppelin/contracts/token/ERC20/ERC20.sol\":3905:3909  true */\n      0x01\n        /* \"@openzeppelin/contracts/token/ERC20/ERC20.sol\":3898:3909  return true */\n      swap2\n      pop\n      pop\n        /* \"@openzeppelin/contracts/token/ERC20/ERC20.sol\":3727:3916  function transfer(address to, uint256 amount) public virtual override returns (bool) {... */\n      swap3\n      swap2\n      pop\n      pop\n      jump\t// out\n        /* \"CBDC.sol\":1889:2210  function increaseMoneySupply(uint inflationAmount) external{... */\n    tag_89:\n        /* \"CBDC.sol\":1980:1996  controllingParty */\n      0x05\n      0x00\n      swap1\n      sload\n      swap1\n      0x0100\n      exp\n      swap1\n      div\n      0xffffffffffffffffffffffffffffffffffffffff\n      and\n        /* \"CBDC.sol\":1966:1996  msg.sender == controllingParty */\n      0xffffffffffffffffffffffffffffffffffffffff\n      and\n        /* \"CBDC.sol\":1966:1976  msg.sender */\n      caller\n        /* \"CBDC.sol\":1966:1996  msg.sender == controllingParty */\n      0xffffffffffffffffffffffffffffffffffffffff\n      and\n      eq\n        /* \"CBDC.sol\":1958:2021  require(msg.sender == controllingParty,\"not controlling party\") */\n      tag_161\n      jumpi\n      mload(0x40)\n      0x08c379a000000000000000000000000000000000000000000000000000000000\n      dup2\n      mstore\n      0x04\n      add\n      tag_162\n      swap1\n      tag_126\n      jump\t// in\n    tag_162:\n      mload(0x40)\n      dup1\n      swap2\n      sub\n      swap1\n      revert\n    tag_161:\n        /* \"CBDC.sol\":2031:2042  uint supply */\n      0x00\n        /* \"CBDC.sol\":2044:2057  totalSupply() */\n      tag_163\n        /* \"CBDC.sol\":2044:2055  totalSupply */\n      tag_37\n        /* \"CBDC.sol\":2044:2057  totalSupply() */\n      jump\t// in\n    tag_163:\n        /* \"CBDC.sol\":2031:2057  uint supply= totalSupply() */\n      swap1\n      pop\n        /* \"CBDC.sol\":2067:2081  uint newsupply */\n      0x00\n        /* \"CBDC.sol\":2090:2105  inflationAmount */\n      dup3\n        /* \"CBDC.sol\":2083:2089  supply */\n      dup3\n        /* \"CBDC.sol\":2083:2105  supply+inflationAmount */\n      tag_164\n      swap2\n      swap1\n      tag_137\n      jump\t// in\n    tag_164:\n        /* \"CBDC.sol\":2067:2105  uint newsupply= supply+inflationAmount */\n      swap1\n      pop\n        /* \"CBDC.sol\":2115:2149  _mint(msg.sender, inflationAmount) */\n      tag_165\n        /* \"CBDC.sol\":2121:2131  msg.sender */\n      caller\n        /* \"CBDC.sol\":2133:2148  inflationAmount */\n      dup5\n        /* \"CBDC.sol\":2115:2120  _mint */\n      tag_166\n        /* \"CBDC.sol\":2115:2149  _mint(msg.sender, inflationAmount) */\n      jump\t// in\n    tag_165:\n        /* \"CBDC.sol\":2164:2202  IncreaseMoneySupply(supply, newsupply) */\n      0x1eae947f873cc2ff225279bd5857407f58a2fc227d473cc51ae673401cffb235\n        /* \"CBDC.sol\":2184:2190  supply */\n      dup3\n        /* \"CBDC.sol\":2192:2201  newsupply */\n      dup3\n        /* \"CBDC.sol\":2164:2202  IncreaseMoneySupply(supply, newsupply) */\n      mload(0x40)\n      tag_167\n      swap3\n      swap2\n      swap1\n      tag_143\n      jump\t// in\n    tag_167:\n      mload(0x40)\n      dup1\n      swap2\n      sub\n      swap1\n      log1\n        /* \"CBDC.sol\":1948:2210  {... */\n      pop\n      pop\n        /* \"CBDC.sol\":1889:2210  function increaseMoneySupply(uint inflationAmount) external{... */\n      pop\n      jump\t// out\n        /* \"CBDC.sol\":2843:3299  function unstakeCBDC() public {... */\n    tag_91:\n        /* \"CBDC.sol\":2915:2920  false */\n      0x00\n        /* \"CBDC.sol\":2891:2920  blacklist[msg.sender]== false */\n      iszero\n      iszero\n        /* \"CBDC.sol\":2891:2900  blacklist */\n      0x07\n        /* \"CBDC.sol\":2891:2912  blacklist[msg.sender] */\n      0x00\n        /* \"CBDC.sol\":2901:2911  msg.sender */\n      caller\n        /* \"CBDC.sol\":2891:2912  blacklist[msg.sender] */\n      0xffffffffffffffffffffffffffffffffffffffff\n      and\n      0xffffffffffffffffffffffffffffffffffffffff\n      and\n      dup2\n      mstore\n      0x20\n      add\n      swap1\n      dup2\n      mstore\n      0x20\n      add\n      0x00\n      keccak256\n      0x00\n      swap1\n      sload\n      swap1\n      0x0100\n      exp\n      swap1\n      div\n      0xff\n      and\n        /* \"CBDC.sol\":2891:2920  blacklist[msg.sender]== false */\n      iszero\n      iszero\n      eq\n        /* \"CBDC.sol\":2883:2943  require(blacklist[msg.sender]== false,\"user is blacklisted\") */\n      tag_169\n      jumpi\n      mload(0x40)\n      0x08c379a000000000000000000000000000000000000000000000000000000000\n      dup2\n      mstore\n      0x04\n      add\n      tag_170\n      swap1\n      tag_171\n      jump\t// in\n    tag_170:\n      mload(0x40)\n      dup1\n      swap2\n      sub\n      swap1\n      revert\n    tag_169:\n        /* \"CBDC.sol\":2953:2972  uint interestAmount */\n      0x00\n        /* \"CBDC.sol\":3056:3068  365*24*60*60 */\n      0x01e13380\n        /* \"CBDC.sol\":3043:3053  decimals() */\n      tag_172\n        /* \"CBDC.sol\":3043:3051  decimals */\n      tag_57\n        /* \"CBDC.sol\":3043:3053  decimals() */\n      jump\t// in\n    tag_172:\n        /* \"CBDC.sol\":3018:3053  interestRateBasisPoints* decimals() */\n      0xff\n      and\n        /* \"CBDC.sol\":3018:3041  interestRateBasisPoints */\n      sload(0x06)\n        /* \"CBDC.sol\":3018:3053  interestRateBasisPoints* decimals() */\n      tag_173\n      swap2\n      swap1\n      tag_174\n      jump\t// in\n    tag_173:\n        /* \"CBDC.sol\":2992:3001  stakeTime */\n      0x0a\n        /* \"CBDC.sol\":2992:3013  stakeTime[msg.sender] */\n      0x00\n        /* \"CBDC.sol\":3002:3012  msg.sender */\n      caller\n        /* \"CBDC.sol\":2992:3013  stakeTime[msg.sender] */\n      0xffffffffffffffffffffffffffffffffffffffff\n      and\n      0xffffffffffffffffffffffffffffffffffffffff\n      and\n      dup2\n      mstore\n      0x20\n      add\n      swap1\n      dup2\n      mstore\n      0x20\n      add\n      0x00\n      keccak256\n      sload\n        /* \"CBDC.sol\":2975:2990  block.timestamp */\n      timestamp\n        /* \"CBDC.sol\":2975:3013  block.timestamp- stakeTime[msg.sender] */\n      tag_175\n      swap2\n      swap1\n      tag_176\n      jump\t// in\n    tag_175:\n        /* \"CBDC.sol\":2974:3054  (block.timestamp- stakeTime[msg.sender]) * (interestRateBasisPoints* decimals()) */\n      tag_177\n      swap2\n      swap1\n      tag_174\n      jump\t// in\n    tag_177:\n        /* \"CBDC.sol\":2974:3069  (block.timestamp- stakeTime[msg.sender]) * (interestRateBasisPoints* decimals())/(365*24*60*60) */\n      tag_178\n      swap2\n      swap1\n      tag_179\n      jump\t// in\n    tag_178:\n        /* \"CBDC.sol\":2953:3069  uint interestAmount= (block.timestamp- stakeTime[msg.sender]) * (interestRateBasisPoints* decimals())/(365*24*60*60) */\n      swap1\n      pop\n        /* \"CBDC.sol\":3107:3123  uint totalAmount */\n      0x00\n        /* \"CBDC.sol\":3157:3171  interestAmount */\n      dup2\n        /* \"CBDC.sol\":3125:3143  stakedTreasuryBond */\n      0x08\n        /* \"CBDC.sol\":3125:3155  stakedTreasuryBond[msg.sender] */\n      0x00\n        /* \"CBDC.sol\":3144:3154  msg.sender */\n      caller\n        /* \"CBDC.sol\":3125:3155  stakedTreasuryBond[msg.sender] */\n      0xffffffffffffffffffffffffffffffffffffffff\n      and\n      0xffffffffffffffffffffffffffffffffffffffff\n      and\n      dup2\n      mstore\n      0x20\n      add\n      swap1\n      dup2\n      mstore\n      0x20\n      add\n      0x00\n      keccak256\n      sload\n        /* \"CBDC.sol\":3125:3171  stakedTreasuryBond[msg.sender]+ interestAmount */\n      tag_180\n      swap2\n      swap1\n      tag_137\n      jump\t// in\n    tag_180:\n        /* \"CBDC.sol\":3107:3171  uint totalAmount= stakedTreasuryBond[msg.sender]+ interestAmount */\n      swap1\n      pop\n        /* \"CBDC.sol\":3182:3220  _mint(controllingParty,interestAmount) */\n      tag_181\n        /* \"CBDC.sol\":3188:3204  controllingParty */\n      0x05\n      0x00\n      swap1\n      sload\n      swap1\n      0x0100\n      exp\n      swap1\n      div\n      0xffffffffffffffffffffffffffffffffffffffff\n      and\n        /* \"CBDC.sol\":3205:3219  interestAmount */\n      dup4\n        /* \"CBDC.sol\":3182:3187  _mint */\n      tag_166\n        /* \"CBDC.sol\":3182:3220  _mint(controllingParty,interestAmount) */\n      jump\t// in\n    tag_181:\n        /* \"CBDC.sol\":3231:3289  super._transfer(controllingParty, msg.sender, totalAmount) */\n      tag_182\n        /* \"CBDC.sol\":3247:3263  controllingParty */\n      0x05\n      0x00\n      swap1\n      sload\n      swap1\n      0x0100\n      exp\n      swap1\n      div\n      0xffffffffffffffffffffffffffffffffffffffff\n      and\n        /* \"CBDC.sol\":3265:3275  msg.sender */\n      caller\n        /* \"CBDC.sol\":3277:3288  totalAmount */\n      dup4\n        /* \"CBDC.sol\":3231:3246  super._transfer */\n      tag_183\n        /* \"CBDC.sol\":3231:3289  super._transfer(controllingParty, msg.sender, totalAmount) */\n      jump\t// in\n    tag_182:\n        /* \"CBDC.sol\":2873:3299  {... */\n      pop\n      pop\n        /* \"CBDC.sol\":2843:3299  function unstakeCBDC() public {... */\n      jump\t// out\n        /* \"@openzeppelin/contracts/token/ERC20/ERC20.sol\":3974:4123  function allowance(address owner, address spender) public view virtual override returns (uint256) {... */\n    tag_95:\n        /* \"@openzeppelin/contracts/token/ERC20/ERC20.sol\":4063:4070  uint256 */\n      0x00\n        /* \"@openzeppelin/contracts/token/ERC20/ERC20.sol\":4089:4100  _allowances */\n      0x01\n        /* \"@openzeppelin/contracts/token/ERC20/ERC20.sol\":4089:4107  _allowances[owner] */\n      0x00\n        /* \"@openzeppelin/contracts/token/ERC20/ERC20.sol\":4101:4106  owner */\n      dup5\n        /* \"@openzeppelin/contracts/token/ERC20/ERC20.sol\":4089:4107  _allowances[owner] */\n      0xffffffffffffffffffffffffffffffffffffffff\n      and\n      0xffffffffffffffffffffffffffffffffffffffff\n      and\n      dup2\n      mstore\n      0x20\n      add\n      swap1\n      dup2\n      mstore\n      0x20\n      add\n      0x00\n      keccak256\n        /* \"@openzeppelin/contracts/token/ERC20/ERC20.sol\":4089:4116  _allowances[owner][spender] */\n      0x00\n        /* \"@openzeppelin/contracts/token/ERC20/ERC20.sol\":4108:4115  spender */\n      dup4\n        /* \"@openzeppelin/contracts/token/ERC20/ERC20.sol\":4089:4116  _allowances[owner][spender] */\n      0xffffffffffffffffffffffffffffffffffffffff\n      and\n      0xffffffffffffffffffffffffffffffffffffffff\n      and\n      dup2\n      mstore\n      0x20\n      add\n      swap1\n      dup2\n      mstore\n      0x20\n      add\n      0x00\n      keccak256\n      sload\n        /* \"@openzeppelin/contracts/token/ERC20/ERC20.sol\":4082:4116  return _allowances[owner][spender] */\n      swap1\n      pop\n        /* \"@openzeppelin/contracts/token/ERC20/ERC20.sol\":3974:4123  function allowance(address owner, address spender) public view virtual override returns (uint256) {... */\n      swap3\n      swap2\n      pop\n      pop\n      jump\t// out\n        /* \"CBDC.sol\":2491:2837  function stakeCBDC(uint stakeAmount) public{... */\n    tag_99:\n        /* \"CBDC.sol\":2576:2581  false */\n      0x00\n        /* \"CBDC.sol\":2552:2581  blacklist[msg.sender]== false */\n      iszero\n      iszero\n        /* \"CBDC.sol\":2552:2561  blacklist */\n      0x07\n        /* \"CBDC.sol\":2552:2573  blacklist[msg.sender] */\n      0x00\n        /* \"CBDC.sol\":2562:2572  msg.sender */\n      caller\n        /* \"CBDC.sol\":2552:2573  blacklist[msg.sender] */\n      0xffffffffffffffffffffffffffffffffffffffff\n      and\n      0xffffffffffffffffffffffffffffffffffffffff\n      and\n      dup2\n      mstore\n      0x20\n      add\n      swap1\n      dup2\n      mstore\n      0x20\n      add\n      0x00\n      keccak256\n      0x00\n      swap1\n      sload\n      swap1\n      0x0100\n      exp\n      swap1\n      div\n      0xff\n      and\n        /* \"CBDC.sol\":2552:2581  blacklist[msg.sender]== false */\n      iszero\n      iszero\n      eq\n        /* \"CBDC.sol\":2544:2604  require(blacklist[msg.sender]== false,\"user is blacklisted\") */\n      tag_186\n      jumpi\n      mload(0x40)\n      0x08c379a000000000000000000000000000000000000000000000000000000000\n      dup2\n      mstore\n      0x04\n      add\n      tag_187\n      swap1\n      tag_171\n      jump\t// in\n    tag_187:\n      mload(0x40)\n      dup1\n      swap2\n      sub\n      swap1\n      revert\n    tag_186:\n        /* \"CBDC.sol\":2614:2672  super._transfer(msg.sender, controllingParty, stakeAmount) */\n      tag_188\n        /* \"CBDC.sol\":2630:2640  msg.sender */\n      caller\n        /* \"CBDC.sol\":2642:2658  controllingParty */\n      0x05\n      0x00\n      swap1\n      sload\n      swap1\n      0x0100\n      exp\n      swap1\n      div\n      0xffffffffffffffffffffffffffffffffffffffff\n      and\n        /* \"CBDC.sol\":2660:2671  stakeAmount */\n      dup4\n        /* \"CBDC.sol\":2614:2629  super._transfer */\n      tag_183\n        /* \"CBDC.sol\":2614:2672  super._transfer(msg.sender, controllingParty, stakeAmount) */\n      jump\t// in\n    tag_188:\n        /* \"CBDC.sol\":2705:2720  block.timestamp */\n      timestamp\n        /* \"CBDC.sol\":2682:2691  stakeTime */\n      0x0a\n        /* \"CBDC.sol\":2682:2703  stakeTime[msg.sender] */\n      0x00\n        /* \"CBDC.sol\":2692:2702  msg.sender */\n      caller\n        /* \"CBDC.sol\":2682:2703  stakeTime[msg.sender] */\n      0xffffffffffffffffffffffffffffffffffffffff\n      and\n      0xffffffffffffffffffffffffffffffffffffffff\n      and\n      dup2\n      mstore\n      0x20\n      add\n      swap1\n      dup2\n      mstore\n      0x20\n      add\n      0x00\n      keccak256\n        /* \"CBDC.sol\":2682:2720  stakeTime[msg.sender]= block.timestamp */\n      dup2\n      swap1\n      sstore\n      pop\n        /* \"CBDC.sol\":2762:2773  stakeAmount */\n      dup1\n        /* \"CBDC.sol\":2730:2748  stakedTreasuryBond */\n      0x08\n        /* \"CBDC.sol\":2730:2760  stakedTreasuryBond[msg.sender] */\n      0x00\n        /* \"CBDC.sol\":2749:2759  msg.sender */\n      caller\n        /* \"CBDC.sol\":2730:2760  stakedTreasuryBond[msg.sender] */\n      0xffffffffffffffffffffffffffffffffffffffff\n      and\n      0xffffffffffffffffffffffffffffffffffffffff\n      and\n      dup2\n      mstore\n      0x20\n      add\n      swap1\n      dup2\n      mstore\n      0x20\n      add\n      0x00\n      keccak256\n        /* \"CBDC.sol\":2730:2773  stakedTreasuryBond[msg.sender]= stakeAmount */\n      dup2\n      swap1\n      sstore\n      pop\n        /* \"CBDC.sol\":2788:2830  StakeTreasuryBond(msg.sender, stakeAmount) */\n      0x342d50a3049b2f1ab9ac3eb2ddd6750e7ed19269bcb3ba7e75ed4d1c342e15a4\n        /* \"CBDC.sol\":2806:2816  msg.sender */\n      caller\n        /* \"CBDC.sol\":2818:2829  stakeAmount */\n      dup3\n        /* \"CBDC.sol\":2788:2830  StakeTreasuryBond(msg.sender, stakeAmount) */\n      mload(0x40)\n      tag_189\n      swap3\n      swap2\n      swap1\n      tag_190\n      jump\t// in\n    tag_189:\n      mload(0x40)\n      dup1\n      swap2\n      sub\n      swap1\n      log1\n        /* \"CBDC.sol\":2491:2837  function stakeCBDC(uint stakeAmount) public{... */\n      pop\n      jump\t// out\n        /* \"CBDC.sol\":218:259  mapping(address => bool) public blacklist */\n    tag_102:\n      mstore(0x20, 0x07)\n      dup1\n      0x00\n      mstore\n      keccak256(0x00, 0x40)\n      0x00\n      swap2\n      pop\n      sload\n      swap1\n      0x0100\n      exp\n      swap1\n      div\n      0xff\n      and\n      dup2\n      jump\t// out\n        /* \"@openzeppelin/contracts/utils/Context.sol\":640:736  function _msgSender() internal view virtual returns (address) {... */\n    tag_113:\n        /* \"@openzeppelin/contracts/utils/Context.sol\":693:700  address */\n      0x00\n        /* \"@openzeppelin/contracts/utils/Context.sol\":719:729  msg.sender */\n      caller\n        /* \"@openzeppelin/contracts/utils/Context.sol\":712:729  return msg.sender */\n      swap1\n      pop\n        /* \"@openzeppelin/contracts/utils/Context.sol\":640:736  function _msgSender() internal view virtual returns (address) {... */\n      swap1\n      jump\t// out\n        /* \"@openzeppelin/contracts/token/ERC20/ERC20.sol\":10504:10874  function _approve(... */\n    tag_115:\n        /* \"@openzeppelin/contracts/token/ERC20/ERC20.sol\":10652:10653  0 */\n      0x00\n        /* \"@openzeppelin/contracts/token/ERC20/ERC20.sol\":10635:10654  owner != address(0) */\n      0xffffffffffffffffffffffffffffffffffffffff\n      and\n        /* \"@openzeppelin/contracts/token/ERC20/ERC20.sol\":10635:10640  owner */\n      dup4\n        /* \"@openzeppelin/contracts/token/ERC20/ERC20.sol\":10635:10654  owner != address(0) */\n      0xffffffffffffffffffffffffffffffffffffffff\n      and\n      sub\n        /* \"@openzeppelin/contracts/token/ERC20/ERC20.sol\":10627:10695  require(owner != address(0), \"ERC20: approve from the zero address\") */\n      tag_193\n      jumpi\n      mload(0x40)\n      0x08c379a000000000000000000000000000000000000000000000000000000000\n      dup2\n      mstore\n      0x04\n      add\n      tag_194\n      swap1\n      tag_195\n      jump\t// in\n    tag_194:\n      mload(0x40)\n      dup1\n      swap2\n      sub\n      swap1\n      revert\n    tag_193:\n        /* \"@openzeppelin/contracts/token/ERC20/ERC20.sol\":10732:10733  0 */\n      0x00\n        /* \"@openzeppelin/contracts/token/ERC20/ERC20.sol\":10713:10734  spender != address(0) */\n      0xffffffffffffffffffffffffffffffffffffffff\n      and\n        /* \"@openzeppelin/contracts/token/ERC20/ERC20.sol\":10713:10720  spender */\n      dup3\n        /* \"@openzeppelin/contracts/token/ERC20/ERC20.sol\":10713:10734  spender != address(0) */\n      0xffffffffffffffffffffffffffffffffffffffff\n      and\n      sub\n        /* \"@openzeppelin/contracts/token/ERC20/ERC20.sol\":10705:10773  require(spender != address(0), \"ERC20: approve to the zero address\") */\n      tag_196\n      jumpi\n      mload(0x40)\n      0x08c379a000000000000000000000000000000000000000000000000000000000\n      dup2\n      mstore\n      0x04\n      add\n      tag_197\n      swap1\n      tag_198\n      jump\t// in\n    tag_197:\n      mload(0x40)\n      dup1\n      swap2\n      sub\n      swap1\n      revert\n    tag_196:\n        /* \"@openzeppelin/contracts/token/ERC20/ERC20.sol\":10814:10820  amount */\n      dup1\n        /* \"@openzeppelin/contracts/token/ERC20/ERC20.sol\":10784:10795  _allowances */\n      0x01\n        /* \"@openzeppelin/contracts/token/ERC20/ERC20.sol\":10784:10802  _allowances[owner] */\n      0x00\n        /* \"@openzeppelin/contracts/token/ERC20/ERC20.sol\":10796:10801  owner */\n      dup6\n        /* \"@openzeppelin/contracts/token/ERC20/ERC20.sol\":10784:10802  _allowances[owner] */\n      0xffffffffffffffffffffffffffffffffffffffff\n      and\n      0xffffffffffffffffffffffffffffffffffffffff\n      and\n      dup2\n      mstore\n      0x20\n      add\n      swap1\n      dup2\n      mstore\n      0x20\n      add\n      0x00\n      keccak256\n        /* \"@openzeppelin/contracts/token/ERC20/ERC20.sol\":10784:10811  _allowances[owner][spender] */\n      0x00\n        /* \"@openzeppelin/contracts/token/ERC20/ERC20.sol\":10803:10810  spender */\n      dup5\n        /* \"@openzeppelin/contracts/token/ERC20/ERC20.sol\":10784:10811  _allowances[owner][spender] */\n      0xffffffffffffffffffffffffffffffffffffffff\n      and\n      0xffffffffffffffffffffffffffffffffffffffff\n      and\n      dup2\n      mstore\n      0x20\n      add\n      swap1\n      dup2\n      mstore\n      0x20\n      add\n      0x00\n      keccak256\n        /* \"@openzeppelin/contracts/token/ERC20/ERC20.sol\":10784:10820  _allowances[owner][spender] = amount */\n      dup2\n      swap1\n      sstore\n      pop\n        /* \"@openzeppelin/contracts/token/ERC20/ERC20.sol\":10851:10858  spender */\n      dup2\n        /* \"@openzeppelin/contracts/token/ERC20/ERC20.sol\":10835:10867  Approval(owner, spender, amount) */\n      0xffffffffffffffffffffffffffffffffffffffff\n      and\n        /* \"@openzeppelin/contracts/token/ERC20/ERC20.sol\":10844:10849  owner */\n      dup4\n        /* \"@openzeppelin/contracts/token/ERC20/ERC20.sol\":10835:10867  Approval(owner, spender, amount) */\n      0xffffffffffffffffffffffffffffffffffffffff\n      and\n      0x8c5be1e5ebec7d5bd14f71427d1e84f3dd0314c0f7b2291e5b200ac8c7c3b925\n        /* \"@openzeppelin/contracts/token/ERC20/ERC20.sol\":10860:10866  amount */\n      dup4\n        /* \"@openzeppelin/contracts/token/ERC20/ERC20.sol\":10835:10867  Approval(owner, spender, amount) */\n      mload(0x40)\n      tag_199\n      swap2\n      swap1\n      tag_39\n      jump\t// in\n    tag_199:\n      mload(0x40)\n      dup1\n      swap2\n      sub\n      swap1\n      log3\n        /* \"@openzeppelin/contracts/token/ERC20/ERC20.sol\":10504:10874  function _approve(... */\n      pop\n      pop\n      pop\n      jump\t// out\n        /* \"@openzeppelin/contracts/token/ERC20/ERC20.sol\":11155:11596  function _spendAllowance(... */\n    tag_120:\n        /* \"@openzeppelin/contracts/token/ERC20/ERC20.sol\":11285:11309  uint256 currentAllowance */\n      0x00\n        /* \"@openzeppelin/contracts/token/ERC20/ERC20.sol\":11312:11337  allowance(owner, spender) */\n      tag_201\n        /* \"@openzeppelin/contracts/token/ERC20/ERC20.sol\":11322:11327  owner */\n      dup5\n        /* \"@openzeppelin/contracts/token/ERC20/ERC20.sol\":11329:11336  spender */\n      dup5\n        /* \"@openzeppelin/contracts/token/ERC20/ERC20.sol\":11312:11321  allowance */\n      tag_95\n        /* \"@openzeppelin/contracts/token/ERC20/ERC20.sol\":11312:11337  allowance(owner, spender) */\n      jump\t// in\n    tag_201:\n        /* \"@openzeppelin/contracts/token/ERC20/ERC20.sol\":11285:11337  uint256 currentAllowance = allowance(owner, spender) */\n      swap1\n      pop\n        /* \"@openzeppelin/contracts/token/ERC20/ERC20.sol\":11371:11388  type(uint256).max */\n      0xffffffffffffffffffffffffffffffffffffffffffffffffffffffffffffffff\n        /* \"@openzeppelin/contracts/token/ERC20/ERC20.sol\":11351:11367  currentAllowance */\n      dup2\n        /* \"@openzeppelin/contracts/token/ERC20/ERC20.sol\":11351:11388  currentAllowance != type(uint256).max */\n      eq\n        /* \"@openzeppelin/contracts/token/ERC20/ERC20.sol\":11347:11590  if (currentAllowance != type(uint256).max) {... */\n      tag_202\n      jumpi\n        /* \"@openzeppelin/contracts/token/ERC20/ERC20.sol\":11432:11438  amount */\n      dup2\n        /* \"@openzeppelin/contracts/token/ERC20/ERC20.sol\":11412:11428  currentAllowance */\n      dup2\n        /* \"@openzeppelin/contracts/token/ERC20/ERC20.sol\":11412:11438  currentAllowance >= amount */\n      lt\n      iszero\n        /* \"@openzeppelin/contracts/token/ERC20/ERC20.sol\":11404:11472  require(currentAllowance >= amount, \"ERC20: insufficient allowance\") */\n      tag_203\n      jumpi\n      mload(0x40)\n      0x08c379a000000000000000000000000000000000000000000000000000000000\n      dup2\n      mstore\n      0x04\n      add\n      tag_204\n      swap1\n      tag_205\n      jump\t// in\n    tag_204:\n      mload(0x40)\n      dup1\n      swap2\n      sub\n      swap1\n      revert\n    tag_203:\n        /* \"@openzeppelin/contracts/token/ERC20/ERC20.sol\":11514:11565  _approve(owner, spender, currentAllowance - amount) */\n      tag_206\n        /* \"@openzeppelin/contracts/token/ERC20/ERC20.sol\":11523:11528  owner */\n      dup5\n        /* \"@openzeppelin/contracts/token/ERC20/ERC20.sol\":11530:11537  spender */\n      dup5\n        /* \"@openzeppelin/contracts/token/ERC20/ERC20.sol\":11558:11564  amount */\n      dup5\n        /* \"@openzeppelin/contracts/token/ERC20/ERC20.sol\":11539:11555  currentAllowance */\n      dup5\n        /* \"@openzeppelin/contracts/token/ERC20/ERC20.sol\":11539:11564  currentAllowance - amount */\n      sub\n        /* \"@openzeppelin/contracts/token/ERC20/ERC20.sol\":11514:11522  _approve */\n      tag_115\n        /* \"@openzeppelin/contracts/token/ERC20/ERC20.sol\":11514:11565  _approve(owner, spender, currentAllowance - amount) */\n      jump\t// in\n    tag_206:\n        /* \"@openzeppelin/contracts/token/ERC20/ERC20.sol\":11347:11590  if (currentAllowance != type(uint256).max) {... */\n    tag_202:\n        /* \"@openzeppelin/contracts/token/ERC20/ERC20.sol\":11275:11596  {... */\n      pop\n        /* \"@openzeppelin/contracts/token/ERC20/ERC20.sol\":11155:11596  function _spendAllowance(... */\n      pop\n      pop\n      pop\n      jump\t// out\n        /* \"CBDC.sol\":2216:2485  function _transfer(address from, address to, uint amount) internal virtual override {... */\n    tag_122:\n        /* \"CBDC.sol\":2336:2341  false */\n      0x00\n        /* \"CBDC.sol\":2318:2341  blacklist[from]== false */\n      iszero\n      iszero\n        /* \"CBDC.sol\":2318:2327  blacklist */\n      0x07\n        /* \"CBDC.sol\":2318:2333  blacklist[from] */\n      0x00\n        /* \"CBDC.sol\":2328:2332  from */\n      dup6\n        /* \"CBDC.sol\":2318:2333  blacklist[from] */\n      0xffffffffffffffffffffffffffffffffffffffff\n      and\n      0xffffffffffffffffffffffffffffffffffffffff\n      and\n      dup2\n      mstore\n      0x20\n      add\n      swap1\n      dup2\n      mstore\n      0x20\n      add\n      0x00\n      keccak256\n      0x00\n      swap1\n      sload\n      swap1\n      0x0100\n      exp\n      swap1\n      div\n      0xff\n      and\n        /* \"CBDC.sol\":2318:2341  blacklist[from]== false */\n      iszero\n      iszero\n      eq\n        /* \"CBDC.sol\":2310:2369  require(blacklist[from]== false,\"from user is blacklisted\") */\n      tag_208\n      jumpi\n      mload(0x40)\n      0x08c379a000000000000000000000000000000000000000000000000000000000\n      dup2\n      mstore\n      0x04\n      add\n      tag_209\n      swap1\n      tag_210\n      jump\t// in\n    tag_209:\n      mload(0x40)\n      dup1\n      swap2\n      sub\n      swap1\n      revert\n    tag_208:\n        /* \"CBDC.sol\":2403:2408  false */\n      0x00\n        /* \"CBDC.sol\":2387:2408  blacklist[to]== false */\n      iszero\n      iszero\n        /* \"CBDC.sol\":2387:2396  blacklist */\n      0x07\n        /* \"CBDC.sol\":2387:2400  blacklist[to] */\n      0x00\n        /* \"CBDC.sol\":2397:2399  to */\n      dup5\n        /* \"CBDC.sol\":2387:2400  blacklist[to] */\n      0xffffffffffffffffffffffffffffffffffffffff\n      and\n      0xffffffffffffffffffffffffffffffffffffffff\n      and\n      dup2\n      mstore\n      0x20\n      add\n      swap1\n      dup2\n      mstore\n      0x20\n      add\n      0x00\n      keccak256\n      0x00\n      swap1\n      sload\n      swap1\n      0x0100\n      exp\n      swap1\n      div\n      0xff\n      and\n        /* \"CBDC.sol\":2387:2408  blacklist[to]== false */\n      iszero\n      iszero\n      eq\n        /* \"CBDC.sol\":2379:2434  require(blacklist[to]== false,\"to user is blacklisted\") */\n      tag_211\n      jumpi\n      mload(0x40)\n      0x08c379a000000000000000000000000000000000000000000000000000000000\n      dup2\n      mstore\n      0x04\n      add\n      tag_212\n      swap1\n      tag_213\n      jump\t// in\n    tag_212:\n      mload(0x40)\n      dup1\n      swap2\n      sub\n      swap1\n      revert\n    tag_211:\n        /* \"CBDC.sol\":2444:2477  super._transfer(from, to, amount) */\n      tag_214\n        /* \"CBDC.sol\":2460:2464  from */\n      dup4\n        /* \"CBDC.sol\":2466:2468  to */\n      dup4\n        /* \"CBDC.sol\":2470:2476  amount */\n      dup4\n        /* \"CBDC.sol\":2444:2459  super._transfer */\n      tag_183\n        /* \"CBDC.sol\":2444:2477  super._transfer(from, to, amount) */\n      jump\t// in\n    tag_214:\n        /* \"CBDC.sol\":2216:2485  function _transfer(address from, address to, uint amount) internal virtual override {... */\n      pop\n      pop\n      pop\n      jump\t// out\n        /* \"@openzeppelin/contracts/token/ERC20/ERC20.sol\":8567:9102  function _mint(address account, uint256 amount) internal virtual {... */\n    tag_166:\n        /* \"@openzeppelin/contracts/token/ERC20/ERC20.sol\":8669:8670  0 */\n      0x00\n        /* \"@openzeppelin/contracts/token/ERC20/ERC20.sol\":8650:8671  account != address(0) */\n      0xffffffffffffffffffffffffffffffffffffffff\n      and\n        /* \"@openzeppelin/contracts/token/ERC20/ERC20.sol\":8650:8657  account */\n      dup3\n        /* \"@openzeppelin/contracts/token/ERC20/ERC20.sol\":8650:8671  account != address(0) */\n      0xffffffffffffffffffffffffffffffffffffffff\n      and\n      sub\n        /* \"@openzeppelin/contracts/token/ERC20/ERC20.sol\":8642:8707  require(account != address(0), \"ERC20: mint to the zero address\") */\n      tag_216\n      jumpi\n      mload(0x40)\n      0x08c379a000000000000000000000000000000000000000000000000000000000\n      dup2\n      mstore\n      0x04\n      add\n      tag_217\n      swap1\n      tag_218\n      jump\t// in\n    tag_217:\n      mload(0x40)\n      dup1\n      swap2\n      sub\n      swap1\n      revert\n    tag_216:\n        /* \"@openzeppelin/contracts/token/ERC20/ERC20.sol\":8718:8767  _beforeTokenTransfer(address(0), account, amount) */\n      tag_219\n        /* \"@openzeppelin/contracts/token/ERC20/ERC20.sol\":8747:8748  0 */\n      0x00\n        /* \"@openzeppelin/contracts/token/ERC20/ERC20.sol\":8751:8758  account */\n      dup4\n        /* \"@openzeppelin/contracts/token/ERC20/ERC20.sol\":8760:8766  amount */\n      dup4\n        /* \"@openzeppelin/contracts/token/ERC20/ERC20.sol\":8718:8738  _beforeTokenTransfer */\n      tag_220\n        /* \"@openzeppelin/contracts/token/ERC20/ERC20.sol\":8718:8767  _beforeTokenTransfer(address(0), account, amount) */\n      jump\t// in\n    tag_219:\n        /* \"@openzeppelin/contracts/token/ERC20/ERC20.sol\":8794:8800  amount */\n      dup1\n        /* \"@openzeppelin/contracts/token/ERC20/ERC20.sol\":8778:8790  _totalSupply */\n      0x02\n      0x00\n        /* \"@openzeppelin/contracts/token/ERC20/ERC20.sol\":8778:8800  _totalSupply += amount */\n      dup3\n      dup3\n      sload\n      tag_221\n      swap2\n      swap1\n      tag_137\n      jump\t// in\n    tag_221:\n      swap3\n      pop\n      pop\n      dup2\n      swap1\n      sstore\n      pop\n        /* \"@openzeppelin/contracts/token/ERC20/ERC20.sol\":8968:8974  amount */\n      dup1\n        /* \"@openzeppelin/contracts/token/ERC20/ERC20.sol\":8946:8955  _balances */\n      0x00\n        /* \"@openzeppelin/contracts/token/ERC20/ERC20.sol\":8946:8964  _balances[account] */\n      dup1\n        /* \"@openzeppelin/contracts/token/ERC20/ERC20.sol\":8956:8963  account */\n      dup5\n        /* \"@openzeppelin/contracts/token/ERC20/ERC20.sol\":8946:8964  _balances[account] */\n      0xffffffffffffffffffffffffffffffffffffffff\n      and\n      0xffffffffffffffffffffffffffffffffffffffff\n      and\n      dup2\n      mstore\n      0x20\n      add\n      swap1\n      dup2\n      mstore\n      0x20\n      add\n      0x00\n      keccak256\n      0x00\n        /* \"@openzeppelin/contracts/token/ERC20/ERC20.sol\":8946:8974  _balances[account] += amount */\n      dup3\n      dup3\n      sload\n      add\n      swap3\n      pop\n      pop\n      dup2\n      swap1\n      sstore\n      pop\n        /* \"@openzeppelin/contracts/token/ERC20/ERC20.sol\":9020:9027  account */\n      dup2\n        /* \"@openzeppelin/contracts/token/ERC20/ERC20.sol\":8999:9036  Transfer(address(0), account, amount) */\n      0xffffffffffffffffffffffffffffffffffffffff\n      and\n        /* \"@openzeppelin/contracts/token/ERC20/ERC20.sol\":9016:9017  0 */\n      0x00\n        /* \"@openzeppelin/contracts/token/ERC20/ERC20.sol\":8999:9036  Transfer(address(0), account, amount) */\n      0xffffffffffffffffffffffffffffffffffffffff\n      and\n      0xddf252ad1be2c89b69c2b068fc378daa952ba7f163c4a11628f55a4df523b3ef\n        /* \"@openzeppelin/contracts/token/ERC20/ERC20.sol\":9029:9035  amount */\n      dup4\n        /* \"@openzeppelin/contracts/token/ERC20/ERC20.sol\":8999:9036  Transfer(address(0), account, amount) */\n      mload(0x40)\n      tag_222\n      swap2\n      swap1\n      tag_39\n      jump\t// in\n    tag_222:\n      mload(0x40)\n      dup1\n      swap2\n      sub\n      swap1\n      log3\n        /* \"@openzeppelin/contracts/token/ERC20/ERC20.sol\":9047:9095  _afterTokenTransfer(address(0), account, amount) */\n      tag_223\n        /* \"@openzeppelin/contracts/token/ERC20/ERC20.sol\":9075:9076  0 */\n      0x00\n        /* \"@openzeppelin/contracts/token/ERC20/ERC20.sol\":9079:9086  account */\n      dup4\n        /* \"@openzeppelin/contracts/token/ERC20/ERC20.sol\":9088:9094  amount */\n      dup4\n        /* \"@openzeppelin/contracts/token/ERC20/ERC20.sol\":9047:9066  _afterTokenTransfer */\n      tag_224\n        /* \"@openzeppelin/contracts/token/ERC20/ERC20.sol\":9047:9095  _afterTokenTransfer(address(0), account, amount) */\n      jump\t// in\n    tag_223:\n        /* \"@openzeppelin/contracts/token/ERC20/ERC20.sol\":8567:9102  function _mint(address account, uint256 amount) internal virtual {... */\n      pop\n      pop\n      jump\t// out\n        /* \"@openzeppelin/contracts/token/ERC20/ERC20.sol\":7473:8291  function _transfer(... */\n    tag_183:\n        /* \"@openzeppelin/contracts/token/ERC20/ERC20.sol\":7615:7616  0 */\n      0x00\n        /* \"@openzeppelin/contracts/token/ERC20/ERC20.sol\":7599:7617  from != address(0) */\n      0xffffffffffffffffffffffffffffffffffffffff\n      and\n        /* \"@openzeppelin/contracts/token/ERC20/ERC20.sol\":7599:7603  from */\n      dup4\n        /* \"@openzeppelin/contracts/token/ERC20/ERC20.sol\":7599:7617  from != address(0) */\n      0xffffffffffffffffffffffffffffffffffffffff\n      and\n      sub\n        /* \"@openzeppelin/contracts/token/ERC20/ERC20.sol\":7591:7659  require(from != address(0), \"ERC20: transfer from the zero address\") */\n      tag_226\n      jumpi\n      mload(0x40)\n      0x08c379a000000000000000000000000000000000000000000000000000000000\n      dup2\n      mstore\n      0x04\n      add\n      tag_227\n      swap1\n      tag_228\n      jump\t// in\n    tag_227:\n      mload(0x40)\n      dup1\n      swap2\n      sub\n      swap1\n      revert\n    tag_226:\n        /* \"@openzeppelin/contracts/token/ERC20/ERC20.sol\":7691:7692  0 */\n      0x00\n        /* \"@openzeppelin/contracts/token/ERC20/ERC20.sol\":7677:7693  to != address(0) */\n      0xffffffffffffffffffffffffffffffffffffffff\n      and\n        /* \"@openzeppelin/contracts/token/ERC20/ERC20.sol\":7677:7679  to */\n      dup3\n        /* \"@openzeppelin/contracts/token/ERC20/ERC20.sol\":7677:7693  to != address(0) */\n      0xffffffffffffffffffffffffffffffffffffffff\n      and\n      sub\n        /* \"@openzeppelin/contracts/token/ERC20/ERC20.sol\":7669:7733  require(to != address(0), \"ERC20: transfer to the zero address\") */\n      tag_229\n      jumpi\n      mload(0x40)\n      0x08c379a000000000000000000000000000000000000000000000000000000000\n      dup2\n      mstore\n      0x04\n      add\n      tag_230\n      swap1\n      tag_231\n      jump\t// in\n    tag_230:\n      mload(0x40)\n      dup1\n      swap2\n      sub\n      swap1\n      revert\n    tag_229:\n        /* \"@openzeppelin/contracts/token/ERC20/ERC20.sol\":7744:7782  _beforeTokenTransfer(from, to, amount) */\n      tag_232\n        /* \"@openzeppelin/contracts/token/ERC20/ERC20.sol\":7765:7769  from */\n      dup4\n        /* \"@openzeppelin/contracts/token/ERC20/ERC20.sol\":7771:7773  to */\n      dup4\n        /* \"@openzeppelin/contracts/token/ERC20/ERC20.sol\":7775:7781  amount */\n      dup4\n        /* \"@openzeppelin/contracts/token/ERC20/ERC20.sol\":7744:7764  _beforeTokenTransfer */\n      tag_220\n        /* \"@openzeppelin/contracts/token/ERC20/ERC20.sol\":7744:7782  _beforeTokenTransfer(from, to, amount) */\n      jump\t// in\n    tag_232:\n        /* \"@openzeppelin/contracts/token/ERC20/ERC20.sol\":7793:7812  uint256 fromBalance */\n      0x00\n        /* \"@openzeppelin/contracts/token/ERC20/ERC20.sol\":7815:7824  _balances */\n      dup1\n        /* \"@openzeppelin/contracts/token/ERC20/ERC20.sol\":7815:7830  _balances[from] */\n      0x00\n        /* \"@openzeppelin/contracts/token/ERC20/ERC20.sol\":7825:7829  from */\n      dup6\n        /* \"@openzeppelin/contracts/token/ERC20/ERC20.sol\":7815:7830  _balances[from] */\n      0xffffffffffffffffffffffffffffffffffffffff\n      and\n      0xffffffffffffffffffffffffffffffffffffffff\n      and\n      dup2\n      mstore\n      0x20\n      add\n      swap1\n      dup2\n      mstore\n      0x20\n      add\n      0x00\n      keccak256\n      sload\n        /* \"@openzeppelin/contracts/token/ERC20/ERC20.sol\":7793:7830  uint256 fromBalance = _balances[from] */\n      swap1\n      pop\n        /* \"@openzeppelin/contracts/token/ERC20/ERC20.sol\":7863:7869  amount */\n      dup2\n        /* \"@openzeppelin/contracts/token/ERC20/ERC20.sol\":7848:7859  fromBalance */\n      dup2\n        /* \"@openzeppelin/contracts/token/ERC20/ERC20.sol\":7848:7869  fromBalance >= amount */\n      lt\n      iszero\n        /* \"@openzeppelin/contracts/token/ERC20/ERC20.sol\":7840:7912  require(fromBalance >= amount, \"ERC20: transfer amount exceeds balance\") */\n      tag_233\n      jumpi\n      mload(0x40)\n      0x08c379a000000000000000000000000000000000000000000000000000000000\n      dup2\n      mstore\n      0x04\n      add\n      tag_234\n      swap1\n      tag_235\n      jump\t// in\n    tag_234:\n      mload(0x40)\n      dup1\n      swap2\n      sub\n      swap1\n      revert\n    tag_233:\n        /* \"@openzeppelin/contracts/token/ERC20/ERC20.sol\":7978:7984  amount */\n      dup2\n        /* \"@openzeppelin/contracts/token/ERC20/ERC20.sol\":7964:7975  fromBalance */\n      dup2\n        /* \"@openzeppelin/contracts/token/ERC20/ERC20.sol\":7964:7984  fromBalance - amount */\n      sub\n        /* \"@openzeppelin/contracts/token/ERC20/ERC20.sol\":7946:7955  _balances */\n      0x00\n        /* \"@openzeppelin/contracts/token/ERC20/ERC20.sol\":7946:7961  _balances[from] */\n      dup1\n        /* \"@openzeppelin/contracts/token/ERC20/ERC20.sol\":7956:7960  from */\n      dup7\n        /* \"@openzeppelin/contracts/token/ERC20/ERC20.sol\":7946:7961  _balances[from] */\n      0xffffffffffffffffffffffffffffffffffffffff\n      and\n      0xffffffffffffffffffffffffffffffffffffffff\n      and\n      dup2\n      mstore\n      0x20\n      add\n      swap1\n      dup2\n      mstore\n      0x20\n      add\n      0x00\n      keccak256\n        /* \"@openzeppelin/contracts/token/ERC20/ERC20.sol\":7946:7984  _balances[from] = fromBalance - amount */\n      dup2\n      swap1\n      sstore\n      pop\n        /* \"@openzeppelin/contracts/token/ERC20/ERC20.sol\":8178:8184  amount */\n      dup2\n        /* \"@openzeppelin/contracts/token/ERC20/ERC20.sol\":8161:8170  _balances */\n      0x00\n        /* \"@openzeppelin/contracts/token/ERC20/ERC20.sol\":8161:8174  _balances[to] */\n      dup1\n        /* \"@openzeppelin/contracts/token/ERC20/ERC20.sol\":8171:8173  to */\n      dup6\n        /* \"@openzeppelin/contracts/token/ERC20/ERC20.sol\":8161:8174  _balances[to] */\n      0xffffffffffffffffffffffffffffffffffffffff\n      and\n      0xffffffffffffffffffffffffffffffffffffffff\n      and\n      dup2\n      mstore\n      0x20\n      add\n      swap1\n      dup2\n      mstore\n      0x20\n      add\n      0x00\n      keccak256\n      0x00\n        /* \"@openzeppelin/contracts/token/ERC20/ERC20.sol\":8161:8184  _balances[to] += amount */\n      dup3\n      dup3\n      sload\n      add\n      swap3\n      pop\n      pop\n      dup2\n      swap1\n      sstore\n      pop\n        /* \"@openzeppelin/contracts/token/ERC20/ERC20.sol\":8225:8227  to */\n      dup3\n        /* \"@openzeppelin/contracts/token/ERC20/ERC20.sol\":8210:8236  Transfer(from, to, amount) */\n      0xffffffffffffffffffffffffffffffffffffffff\n      and\n        /* \"@openzeppelin/contracts/token/ERC20/ERC20.sol\":8219:8223  from */\n      dup5\n        /* \"@openzeppelin/contracts/token/ERC20/ERC20.sol\":8210:8236  Transfer(from, to, amount) */\n      0xffffffffffffffffffffffffffffffffffffffff\n      and\n      0xddf252ad1be2c89b69c2b068fc378daa952ba7f163c4a11628f55a4df523b3ef\n        /* \"@openzeppelin/contracts/token/ERC20/ERC20.sol\":8229:8235  amount */\n      dup5\n        /* \"@openzeppelin/contracts/token/ERC20/ERC20.sol\":8210:8236  Transfer(from, to, amount) */\n      mload(0x40)\n      tag_236\n      swap2\n      swap1\n      tag_39\n      jump\t// in\n    tag_236:\n      mload(0x40)\n      dup1\n      swap2\n      sub\n      swap1\n      log3\n        /* \"@openzeppelin/contracts/token/ERC20/ERC20.sol\":8247:8284  _afterTokenTransfer(from, to, amount) */\n      tag_237\n        /* \"@openzeppelin/contracts/token/ERC20/ERC20.sol\":8267:8271  from */\n      dup5\n        /* \"@openzeppelin/contracts/token/ERC20/ERC20.sol\":8273:8275  to */\n      dup5\n        /* \"@openzeppelin/contracts/token/ERC20/ERC20.sol\":8277:8283  amount */\n      dup5\n        /* \"@openzeppelin/contracts/token/ERC20/ERC20.sol\":8247:8266  _afterTokenTransfer */\n      tag_224\n        /* \"@openzeppelin/contracts/token/ERC20/ERC20.sol\":8247:8284  _afterTokenTransfer(from, to, amount) */\n      jump\t// in\n    tag_237:\n        /* \"@openzeppelin/contracts/token/ERC20/ERC20.sol\":7581:8291  {... */\n      pop\n        /* \"@openzeppelin/contracts/token/ERC20/ERC20.sol\":7473:8291  function _transfer(... */\n      pop\n      pop\n      pop\n      jump\t// out\n        /* \"@openzeppelin/contracts/token/ERC20/ERC20.sol\":12180:12301  function _beforeTokenTransfer(... */\n    tag_220:\n      pop\n      pop\n      pop\n      jump\t// out\n        /* \"@openzeppelin/contracts/token/ERC20/ERC20.sol\":12889:13009  function _afterTokenTransfer(... */\n    tag_224:\n      pop\n      pop\n      pop\n      jump\t// out\n        /* \"#utility.yul\":7:106   */\n    tag_240:\n        /* \"#utility.yul\":59:65   */\n      0x00\n        /* \"#utility.yul\":93:98   */\n      dup2\n        /* \"#utility.yul\":87:99   */\n      mload\n        /* \"#utility.yul\":77:99   */\n      swap1\n      pop\n        /* \"#utility.yul\":7:106   */\n      swap2\n      swap1\n      pop\n      jump\t// out\n        /* \"#utility.yul\":112:281   */\n    tag_241:\n        /* \"#utility.yul\":196:207   */\n      0x00\n        /* \"#utility.yul\":230:236   */\n      dup3\n        /* \"#utility.yul\":225:228   */\n      dup3\n        /* \"#utility.yul\":218:237   */\n      mstore\n        /* \"#utility.yul\":270:274   */\n      0x20\n        /* \"#utility.yul\":265:268   */\n      dup3\n        /* \"#utility.yul\":261:275   */\n      add\n        /* \"#utility.yul\":246:275   */\n      swap1\n      pop\n        /* \"#utility.yul\":112:281   */\n      swap3\n      swap2\n      pop\n      pop\n      jump\t// out\n        /* \"#utility.yul\":287:533   */\n    tag_242:\n        /* \"#utility.yul\":368:369   */\n      0x00\n        /* \"#utility.yul\":378:491   */\n    tag_292:\n        /* \"#utility.yul\":392:398   */\n      dup4\n        /* \"#utility.yul\":389:390   */\n      dup2\n        /* \"#utility.yul\":386:399   */\n      lt\n        /* \"#utility.yul\":378:491   */\n      iszero\n      tag_294\n      jumpi\n        /* \"#utility.yul\":477:478   */\n      dup1\n        /* \"#utility.yul\":472:475   */\n      dup3\n        /* \"#utility.yul\":468:479   */\n      add\n        /* \"#utility.yul\":462:480   */\n      mload\n        /* \"#utility.yul\":458:459   */\n      dup2\n        /* \"#utility.yul\":453:456   */\n      dup5\n        /* \"#utility.yul\":449:460   */\n      add\n        /* \"#utility.yul\":442:481   */\n      mstore\n        /* \"#utility.yul\":414:416   */\n      0x20\n        /* \"#utility.yul\":411:412   */\n      dup2\n        /* \"#utility.yul\":407:417   */\n      add\n        /* \"#utility.yul\":402:417   */\n      swap1\n      pop\n        /* \"#utility.yul\":378:491   */\n      jump(tag_292)\n    tag_294:\n        /* \"#utility.yul\":525:526   */\n      0x00\n        /* \"#utility.yul\":516:522   */\n      dup5\n        /* \"#utility.yul\":511:514   */\n      dup5\n        /* \"#utility.yul\":507:523   */\n      add\n        /* \"#utility.yul\":500:527   */\n      mstore\n        /* \"#utility.yul\":349:533   */\n      pop\n        /* \"#utility.yul\":287:533   */\n      pop\n      pop\n      pop\n      jump\t// out\n        /* \"#utility.yul\":539:641   */\n    tag_243:\n        /* \"#utility.yul\":580:586   */\n      0x00\n        /* \"#utility.yul\":631:633   */\n      0x1f\n        /* \"#utility.yul\":627:634   */\n      not\n        /* \"#utility.yul\":622:624   */\n      0x1f\n        /* \"#utility.yul\":615:620   */\n      dup4\n        /* \"#utility.yul\":611:625   */\n      add\n        /* \"#utility.yul\":607:635   */\n      and\n        /* \"#utility.yul\":597:635   */\n      swap1\n      pop\n        /* \"#utility.yul\":539:641   */\n      swap2\n      swap1\n      pop\n      jump\t// out\n        /* \"#utility.yul\":647:1024   */\n    tag_244:\n        /* \"#utility.yul\":735:738   */\n      0x00\n        /* \"#utility.yul\":763:802   */\n      tag_297\n        /* \"#utility.yul\":796:801   */\n      dup3\n        /* \"#utility.yul\":763:802   */\n      tag_240\n      jump\t// in\n    tag_297:\n        /* \"#utility.yul\":818:889   */\n      tag_298\n        /* \"#utility.yul\":882:888   */\n      dup2\n        /* \"#utility.yul\":877:880   */\n      dup6\n        /* \"#utility.yul\":818:889   */\n      tag_241\n      jump\t// in\n    tag_298:\n        /* \"#utility.yul\":811:889   */\n      swap4\n      pop\n        /* \"#utility.yul\":898:963   */\n      tag_299\n        /* \"#utility.yul\":956:962   */\n      dup2\n        /* \"#utility.yul\":951:954   */\n      dup6\n        /* \"#utility.yul\":944:948   */\n      0x20\n        /* \"#utility.yul\":937:942   */\n      dup7\n        /* \"#utility.yul\":933:949   */\n      add\n        /* \"#utility.yul\":898:963   */\n      tag_242\n      jump\t// in\n    tag_299:\n        /* \"#utility.yul\":988:1017   */\n      tag_300\n        /* \"#utility.yul\":1010:1016   */\n      dup2\n        /* \"#utility.yul\":988:1017   */\n      tag_243\n      jump\t// in\n    tag_300:\n        /* \"#utility.yul\":983:986   */\n      dup5\n        /* \"#utility.yul\":979:1018   */\n      add\n        /* \"#utility.yul\":972:1018   */\n      swap2\n      pop\n        /* \"#utility.yul\":739:1024   */\n      pop\n        /* \"#utility.yul\":647:1024   */\n      swap3\n      swap2\n      pop\n      pop\n      jump\t// out\n        /* \"#utility.yul\":1030:1343   */\n    tag_29:\n        /* \"#utility.yul\":1143:1147   */\n      0x00\n        /* \"#utility.yul\":1181:1183   */\n      0x20\n        /* \"#utility.yul\":1170:1179   */\n      dup3\n        /* \"#utility.yul\":1166:1184   */\n      add\n        /* \"#utility.yul\":1158:1184   */\n      swap1\n      pop\n        /* \"#utility.yul\":1230:1239   */\n      dup2\n        /* \"#utility.yul\":1224:1228   */\n      dup2\n        /* \"#utility.yul\":1220:1240   */\n      sub\n        /* \"#utility.yul\":1216:1217   */\n      0x00\n        /* \"#utility.yul\":1205:1214   */\n      dup4\n        /* \"#utility.yul\":1201:1218   */\n      add\n        /* \"#utility.yul\":1194:1241   */\n      mstore\n        /* \"#utility.yul\":1258:1336   */\n      tag_302\n        /* \"#utility.yul\":1331:1335   */\n      dup2\n        /* \"#utility.yul\":1322:1328   */\n      dup5\n        /* \"#utility.yul\":1258:1336   */\n      tag_244\n      jump\t// in\n    tag_302:\n        /* \"#utility.yul\":1250:1336   */\n      swap1\n      pop\n        /* \"#utility.yul\":1030:1343   */\n      swap3\n      swap2\n      pop\n      pop\n      jump\t// out\n        /* \"#utility.yul\":1430:1547   */\n    tag_246:\n        /* \"#utility.yul\":1539:1540   */\n      0x00\n        /* \"#utility.yul\":1536:1537   */\n      dup1\n        /* \"#utility.yul\":1529:1541   */\n      revert\n        /* \"#utility.yul\":1676:1802   */\n    tag_248:\n        /* \"#utility.yul\":1713:1720   */\n      0x00\n        /* \"#utility.yul\":1753:1795   */\n      0xffffffffffffffffffffffffffffffffffffffff\n        /* \"#utility.yul\":1746:1751   */\n      dup3\n        /* \"#utility.yul\":1742:1796   */\n      and\n        /* \"#utility.yul\":1731:1796   */\n      swap1\n      pop\n        /* \"#utility.yul\":1676:1802   */\n      swap2\n      swap1\n      pop\n      jump\t// out\n        /* \"#utility.yul\":1808:1904   */\n    tag_249:\n        /* \"#utility.yul\":1845:1852   */\n      0x00\n        /* \"#utility.yul\":1874:1898   */\n      tag_308\n        /* \"#utility.yul\":1892:1897   */\n      dup3\n        /* \"#utility.yul\":1874:1898   */\n      tag_248\n      jump\t// in\n    tag_308:\n        /* \"#utility.yul\":1863:1898   */\n      swap1\n      pop\n        /* \"#utility.yul\":1808:1904   */\n      swap2\n      swap1\n      pop\n      jump\t// out\n        /* \"#utility.yul\":1910:2032   */\n    tag_250:\n        /* \"#utility.yul\":1983:2007   */\n      tag_310\n        /* \"#utility.yul\":2001:2006   */\n      dup2\n        /* \"#utility.yul\":1983:2007   */\n      tag_249\n      jump\t// in\n    tag_310:\n        /* \"#utility.yul\":1976:1981   */\n      dup2\n        /* \"#utility.yul\":1973:2008   */\n      eq\n        /* \"#utility.yul\":1963:2026   */\n      tag_311\n      jumpi\n        /* \"#utility.yul\":2022:2023   */\n      0x00\n        /* \"#utility.yul\":2019:2020   */\n      dup1\n        /* \"#utility.yul\":2012:2024   */\n      revert\n        /* \"#utility.yul\":1963:2026   */\n    tag_311:\n        /* \"#utility.yul\":1910:2032   */\n      pop\n      jump\t// out\n        /* \"#utility.yul\":2038:2177   */\n    tag_251:\n        /* \"#utility.yul\":2084:2089   */\n      0x00\n        /* \"#utility.yul\":2122:2128   */\n      dup2\n        /* \"#utility.yul\":2109:2129   */\n      calldataload\n        /* \"#utility.yul\":2100:2129   */\n      swap1\n      pop\n        /* \"#utility.yul\":2138:2171   */\n      tag_313\n        /* \"#utility.yul\":2165:2170   */\n      dup2\n        /* \"#utility.yul\":2138:2171   */\n      tag_250\n      jump\t// in\n    tag_313:\n        /* \"#utility.yul\":2038:2177   */\n      swap3\n      swap2\n      pop\n      pop\n      jump\t// out\n        /* \"#utility.yul\":2183:2260   */\n    tag_252:\n        /* \"#utility.yul\":2220:2227   */\n      0x00\n        /* \"#utility.yul\":2249:2254   */\n      dup2\n        /* \"#utility.yul\":2238:2254   */\n      swap1\n      pop\n        /* \"#utility.yul\":2183:2260   */\n      swap2\n      swap1\n      pop\n      jump\t// out\n        /* \"#utility.yul\":2266:2388   */\n    tag_253:\n        /* \"#utility.yul\":2339:2363   */\n      tag_316\n        /* \"#utility.yul\":2357:2362   */\n      dup2\n        /* \"#utility.yul\":2339:2363   */\n      tag_252\n      jump\t// in\n    tag_316:\n        /* \"#utility.yul\":2332:2337   */\n      dup2\n        /* \"#utility.yul\":2329:2364   */\n      eq\n        /* \"#utility.yul\":2319:2382   */\n      tag_317\n      jumpi\n        /* \"#utility.yul\":2378:2379   */\n      0x00\n        /* \"#utility.yul\":2375:2376   */\n      dup1\n        /* \"#utility.yul\":2368:2380   */\n      revert\n        /* \"#utility.yul\":2319:2382   */\n    tag_317:\n        /* \"#utility.yul\":2266:2388   */\n      pop\n      jump\t// out\n        /* \"#utility.yul\":2394:2533   */\n    tag_254:\n        /* \"#utility.yul\":2440:2445   */\n      0x00\n        /* \"#utility.yul\":2478:2484   */\n      dup2\n        /* \"#utility.yul\":2465:2485   */\n      calldataload\n        /* \"#utility.yul\":2456:2485   */\n      swap1\n      pop\n        /* \"#utility.yul\":2494:2527   */\n      tag_319\n        /* \"#utility.yul\":2521:2526   */\n      dup2\n        /* \"#utility.yul\":2494:2527   */\n      tag_253\n      jump\t// in\n    tag_319:\n        /* \"#utility.yul\":2394:2533   */\n      swap3\n      swap2\n      pop\n      pop\n      jump\t// out\n        /* \"#utility.yul\":2539:3013   */\n    tag_32:\n        /* \"#utility.yul\":2607:2613   */\n      0x00\n        /* \"#utility.yul\":2615:2621   */\n      dup1\n        /* \"#utility.yul\":2664:2666   */\n      0x40\n        /* \"#utility.yul\":2652:2661   */\n      dup4\n        /* \"#utility.yul\":2643:2650   */\n      dup6\n        /* \"#utility.yul\":2639:2662   */\n      sub\n        /* \"#utility.yul\":2635:2667   */\n      slt\n        /* \"#utility.yul\":2632:2751   */\n      iszero\n      tag_321\n      jumpi\n        /* \"#utility.yul\":2670:2749   */\n      tag_322\n      tag_246\n      jump\t// in\n    tag_322:\n        /* \"#utility.yul\":2632:2751   */\n    tag_321:\n        /* \"#utility.yul\":2790:2791   */\n      0x00\n        /* \"#utility.yul\":2815:2868   */\n      tag_323\n        /* \"#utility.yul\":2860:2867   */\n      dup6\n        /* \"#utility.yul\":2851:2857   */\n      dup3\n        /* \"#utility.yul\":2840:2849   */\n      dup7\n        /* \"#utility.yul\":2836:2858   */\n      add\n        /* \"#utility.yul\":2815:2868   */\n      tag_251\n      jump\t// in\n    tag_323:\n        /* \"#utility.yul\":2805:2868   */\n      swap3\n      pop\n        /* \"#utility.yul\":2761:2878   */\n      pop\n        /* \"#utility.yul\":2917:2919   */\n      0x20\n        /* \"#utility.yul\":2943:2996   */\n      tag_324\n        /* \"#utility.yul\":2988:2995   */\n      dup6\n        /* \"#utility.yul\":2979:2985   */\n      dup3\n        /* \"#utility.yul\":2968:2977   */\n      dup7\n        /* \"#utility.yul\":2964:2986   */\n      add\n        /* \"#utility.yul\":2943:2996   */\n      tag_254\n      jump\t// in\n    tag_324:\n        /* \"#utility.yul\":2933:2996   */\n      swap2\n      pop\n        /* \"#utility.yul\":2888:3006   */\n      pop\n        /* \"#utility.yul\":2539:3013   */\n      swap3\n      pop\n      swap3\n      swap1\n      pop\n      jump\t// out\n        /* \"#utility.yul\":3019:3109   */\n    tag_255:\n        /* \"#utility.yul\":3053:3060   */\n      0x00\n        /* \"#utility.yul\":3096:3101   */\n      dup2\n        /* \"#utility.yul\":3089:3102   */\n      iszero\n        /* \"#utility.yul\":3082:3103   */\n      iszero\n        /* \"#utility.yul\":3071:3103   */\n      swap1\n      pop\n        /* \"#utility.yul\":3019:3109   */\n      swap2\n      swap1\n      pop\n      jump\t// out\n        /* \"#utility.yul\":3115:3224   */\n    tag_256:\n        /* \"#utility.yul\":3196:3217   */\n      tag_327\n        /* \"#utility.yul\":3211:3216   */\n      dup2\n        /* \"#utility.yul\":3196:3217   */\n      tag_255\n      jump\t// in\n    tag_327:\n        /* \"#utility.yul\":3191:3194   */\n      dup3\n        /* \"#utility.yul\":3184:3218   */\n      mstore\n        /* \"#utility.yul\":3115:3224   */\n      pop\n      pop\n      jump\t// out\n        /* \"#utility.yul\":3230:3440   */\n    tag_35:\n        /* \"#utility.yul\":3317:3321   */\n      0x00\n        /* \"#utility.yul\":3355:3357   */\n      0x20\n        /* \"#utility.yul\":3344:3353   */\n      dup3\n        /* \"#utility.yul\":3340:3358   */\n      add\n        /* \"#utility.yul\":3332:3358   */\n      swap1\n      pop\n        /* \"#utility.yul\":3368:3433   */\n      tag_329\n        /* \"#utility.yul\":3430:3431   */\n      0x00\n        /* \"#utility.yul\":3419:3428   */\n      dup4\n        /* \"#utility.yul\":3415:3432   */\n      add\n        /* \"#utility.yul\":3406:3412   */\n      dup5\n        /* \"#utility.yul\":3368:3433   */\n      tag_256\n      jump\t// in\n    tag_329:\n        /* \"#utility.yul\":3230:3440   */\n      swap3\n      swap2\n      pop\n      pop\n      jump\t// out\n        /* \"#utility.yul\":3446:3564   */\n    tag_257:\n        /* \"#utility.yul\":3533:3557   */\n      tag_331\n        /* \"#utility.yul\":3551:3556   */\n      dup2\n        /* \"#utility.yul\":3533:3557   */\n      tag_252\n      jump\t// in\n    tag_331:\n        /* \"#utility.yul\":3528:3531   */\n      dup3\n        /* \"#utility.yul\":3521:3558   */\n      mstore\n        /* \"#utility.yul\":3446:3564   */\n      pop\n      pop\n      jump\t// out\n        /* \"#utility.yul\":3570:3792   */\n    tag_39:\n        /* \"#utility.yul\":3663:3667   */\n      0x00\n        /* \"#utility.yul\":3701:3703   */\n      0x20\n        /* \"#utility.yul\":3690:3699   */\n      dup3\n        /* \"#utility.yul\":3686:3704   */\n      add\n        /* \"#utility.yul\":3678:3704   */\n      swap1\n      pop\n        /* \"#utility.yul\":3714:3785   */\n      tag_333\n        /* \"#utility.yul\":3782:3783   */\n      0x00\n        /* \"#utility.yul\":3771:3780   */\n      dup4\n        /* \"#utility.yul\":3767:3784   */\n      add\n        /* \"#utility.yul\":3758:3764   */\n      dup5\n        /* \"#utility.yul\":3714:3785   */\n      tag_257\n      jump\t// in\n    tag_333:\n        /* \"#utility.yul\":3570:3792   */\n      swap3\n      swap2\n      pop\n      pop\n      jump\t// out\n        /* \"#utility.yul\":3798:4127   */\n    tag_42:\n        /* \"#utility.yul\":3857:3863   */\n      0x00\n        /* \"#utility.yul\":3906:3908   */\n      0x20\n        /* \"#utility.yul\":3894:3903   */\n      dup3\n        /* \"#utility.yul\":3885:3892   */\n      dup5\n        /* \"#utility.yul\":3881:3904   */\n      sub\n        /* \"#utility.yul\":3877:3909   */\n      slt\n        /* \"#utility.yul\":3874:3993   */\n      iszero\n      tag_335\n      jumpi\n        /* \"#utility.yul\":3912:3991   */\n      tag_336\n      tag_246\n      jump\t// in\n    tag_336:\n        /* \"#utility.yul\":3874:3993   */\n    tag_335:\n        /* \"#utility.yul\":4032:4033   */\n      0x00\n        /* \"#utility.yul\":4057:4110   */\n      tag_337\n        /* \"#utility.yul\":4102:4109   */\n      dup5\n        /* \"#utility.yul\":4093:4099   */\n      dup3\n        /* \"#utility.yul\":4082:4091   */\n      dup6\n        /* \"#utility.yul\":4078:4100   */\n      add\n        /* \"#utility.yul\":4057:4110   */\n      tag_251\n      jump\t// in\n    tag_337:\n        /* \"#utility.yul\":4047:4110   */\n      swap2\n      pop\n        /* \"#utility.yul\":4003:4120   */\n      pop\n        /* \"#utility.yul\":3798:4127   */\n      swap3\n      swap2\n      pop\n      pop\n      jump\t// out\n        /* \"#utility.yul\":4133:4752   */\n    tag_50:\n        /* \"#utility.yul\":4210:4216   */\n      0x00\n        /* \"#utility.yul\":4218:4224   */\n      dup1\n        /* \"#utility.yul\":4226:4232   */\n      0x00\n        /* \"#utility.yul\":4275:4277   */\n      0x60\n        /* \"#utility.yul\":4263:4272   */\n      dup5\n        /* \"#utility.yul\":4254:4261   */\n      dup7\n        /* \"#utility.yul\":4250:4273   */\n      sub\n        /* \"#utility.yul\":4246:4278   */\n      slt\n        /* \"#utility.yul\":4243:4362   */\n      iszero\n      tag_339\n      jumpi\n        /* \"#utility.yul\":4281:4360   */\n      tag_340\n      tag_246\n      jump\t// in\n    tag_340:\n        /* \"#utility.yul\":4243:4362   */\n    tag_339:\n        /* \"#utility.yul\":4401:4402   */\n      0x00\n        /* \"#utility.yul\":4426:4479   */\n      tag_341\n        /* \"#utility.yul\":4471:4478   */\n      dup7\n        /* \"#utility.yul\":4462:4468   */\n      dup3\n        /* \"#utility.yul\":4451:4460   */\n      dup8\n        /* \"#utility.yul\":4447:4469   */\n      add\n        /* \"#utility.yul\":4426:4479   */\n      tag_251\n      jump\t// in\n    tag_341:\n        /* \"#utility.yul\":4416:4479   */\n      swap4\n      pop\n        /* \"#utility.yul\":4372:4489   */\n      pop\n        /* \"#utility.yul\":4528:4530   */\n      0x20\n        /* \"#utility.yul\":4554:4607   */\n      tag_342\n        /* \"#utility.yul\":4599:4606   */\n      dup7\n        /* \"#utility.yul\":4590:4596   */\n      dup3\n        /* \"#utility.yul\":4579:4588   */\n      dup8\n        /* \"#utility.yul\":4575:4597   */\n      add\n        /* \"#utility.yul\":4554:4607   */\n      tag_251\n      jump\t// in\n    tag_342:\n        /* \"#utility.yul\":4544:4607   */\n      swap3\n      pop\n        /* \"#utility.yul\":4499:4617   */\n      pop\n        /* \"#utility.yul\":4656:4658   */\n      0x40\n        /* \"#utility.yul\":4682:4735   */\n      tag_343\n        /* \"#utility.yul\":4727:4734   */\n      dup7\n        /* \"#utility.yul\":4718:4724   */\n      dup3\n        /* \"#utility.yul\":4707:4716   */\n      dup8\n        /* \"#utility.yul\":4703:4725   */\n      add\n        /* \"#utility.yul\":4682:4735   */\n      tag_254\n      jump\t// in\n    tag_343:\n        /* \"#utility.yul\":4672:4735   */\n      swap2\n      pop\n        /* \"#utility.yul\":4627:4745   */\n      pop\n        /* \"#utility.yul\":4133:4752   */\n      swap3\n      pop\n      swap3\n      pop\n      swap3\n      jump\t// out\n        /* \"#utility.yul\":4758:4844   */\n    tag_258:\n        /* \"#utility.yul\":4793:4800   */\n      0x00\n        /* \"#utility.yul\":4833:4837   */\n      0xff\n        /* \"#utility.yul\":4826:4831   */\n      dup3\n        /* \"#utility.yul\":4822:4838   */\n      and\n        /* \"#utility.yul\":4811:4838   */\n      swap1\n      pop\n        /* \"#utility.yul\":4758:4844   */\n      swap2\n      swap1\n      pop\n      jump\t// out\n        /* \"#utility.yul\":4850:4962   */\n    tag_259:\n        /* \"#utility.yul\":4933:4955   */\n      tag_346\n        /* \"#utility.yul\":4949:4954   */\n      dup2\n        /* \"#utility.yul\":4933:4955   */\n      tag_258\n      jump\t// in\n    tag_346:\n        /* \"#utility.yul\":4928:4931   */\n      dup3\n        /* \"#utility.yul\":4921:4956   */\n      mstore\n        /* \"#utility.yul\":4850:4962   */\n      pop\n      pop\n      jump\t// out\n        /* \"#utility.yul\":4968:5182   */\n    tag_59:\n        /* \"#utility.yul\":5057:5061   */\n      0x00\n        /* \"#utility.yul\":5095:5097   */\n      0x20\n        /* \"#utility.yul\":5084:5093   */\n      dup3\n        /* \"#utility.yul\":5080:5098   */\n      add\n        /* \"#utility.yul\":5072:5098   */\n      swap1\n      pop\n        /* \"#utility.yul\":5108:5175   */\n      tag_348\n        /* \"#utility.yul\":5172:5173   */\n      0x00\n        /* \"#utility.yul\":5161:5170   */\n      dup4\n        /* \"#utility.yul\":5157:5174   */\n      add\n        /* \"#utility.yul\":5148:5154   */\n      dup5\n        /* \"#utility.yul\":5108:5175   */\n      tag_259\n      jump\t// in\n    tag_348:\n        /* \"#utility.yul\":4968:5182   */\n      swap3\n      swap2\n      pop\n      pop\n      jump\t// out\n        /* \"#utility.yul\":5188:5517   */\n    tag_70:\n        /* \"#utility.yul\":5247:5253   */\n      0x00\n        /* \"#utility.yul\":5296:5298   */\n      0x20\n        /* \"#utility.yul\":5284:5293   */\n      dup3\n        /* \"#utility.yul\":5275:5282   */\n      dup5\n        /* \"#utility.yul\":5271:5294   */\n      sub\n        /* \"#utility.yul\":5267:5299   */\n      slt\n        /* \"#utility.yul\":5264:5383   */\n      iszero\n      tag_350\n      jumpi\n        /* \"#utility.yul\":5302:5381   */\n      tag_351\n      tag_246\n      jump\t// in\n    tag_351:\n        /* \"#utility.yul\":5264:5383   */\n    tag_350:\n        /* \"#utility.yul\":5422:5423   */\n      0x00\n        /* \"#utility.yul\":5447:5500   */\n      tag_352\n        /* \"#utility.yul\":5492:5499   */\n      dup5\n        /* \"#utility.yul\":5483:5489   */\n      dup3\n        /* \"#utility.yul\":5472:5481   */\n      dup6\n        /* \"#utility.yul\":5468:5490   */\n      add\n        /* \"#utility.yul\":5447:5500   */\n      tag_254\n      jump\t// in\n    tag_352:\n        /* \"#utility.yul\":5437:5500   */\n      swap2\n      pop\n        /* \"#utility.yul\":5393:5510   */\n      pop\n        /* \"#utility.yul\":5188:5517   */\n      swap3\n      swap2\n      pop\n      pop\n      jump\t// out\n        /* \"#utility.yul\":5523:5641   */\n    tag_260:\n        /* \"#utility.yul\":5610:5634   */\n      tag_354\n        /* \"#utility.yul\":5628:5633   */\n      dup2\n        /* \"#utility.yul\":5610:5634   */\n      tag_249\n      jump\t// in\n    tag_354:\n        /* \"#utility.yul\":5605:5608   */\n      dup3\n        /* \"#utility.yul\":5598:5635   */\n      mstore\n        /* \"#utility.yul\":5523:5641   */\n      pop\n      pop\n      jump\t// out\n        /* \"#utility.yul\":5647:5869   */\n    tag_75:\n        /* \"#utility.yul\":5740:5744   */\n      0x00\n        /* \"#utility.yul\":5778:5780   */\n      0x20\n        /* \"#utility.yul\":5767:5776   */\n      dup3\n        /* \"#utility.yul\":5763:5781   */\n      add\n        /* \"#utility.yul\":5755:5781   */\n      swap1\n      pop\n        /* \"#utility.yul\":5791:5862   */\n      tag_356\n        /* \"#utility.yul\":5859:5860   */\n      0x00\n        /* \"#utility.yul\":5848:5857   */\n      dup4\n        /* \"#utility.yul\":5844:5861   */\n      add\n        /* \"#utility.yul\":5835:5841   */\n      dup5\n        /* \"#utility.yul\":5791:5862   */\n      tag_260\n      jump\t// in\n    tag_356:\n        /* \"#utility.yul\":5647:5869   */\n      swap3\n      swap2\n      pop\n      pop\n      jump\t// out\n        /* \"#utility.yul\":5875:6349   */\n    tag_94:\n        /* \"#utility.yul\":5943:5949   */\n      0x00\n        /* \"#utility.yul\":5951:5957   */\n      dup1\n        /* \"#utility.yul\":6000:6002   */\n      0x40\n        /* \"#utility.yul\":5988:5997   */\n      dup4\n        /* \"#utility.yul\":5979:5986   */\n      dup6\n        /* \"#utility.yul\":5975:5998   */\n      sub\n        /* \"#utility.yul\":5971:6003   */\n      slt\n        /* \"#utility.yul\":5968:6087   */\n      iszero\n      tag_358\n      jumpi\n        /* \"#utility.yul\":6006:6085   */\n      tag_359\n      tag_246\n      jump\t// in\n    tag_359:\n        /* \"#utility.yul\":5968:6087   */\n    tag_358:\n        /* \"#utility.yul\":6126:6127   */\n      0x00\n        /* \"#utility.yul\":6151:6204   */\n      tag_360\n        /* \"#utility.yul\":6196:6203   */\n      dup6\n        /* \"#utility.yul\":6187:6193   */\n      dup3\n        /* \"#utility.yul\":6176:6185   */\n      dup7\n        /* \"#utility.yul\":6172:6194   */\n      add\n        /* \"#utility.yul\":6151:6204   */\n      tag_251\n      jump\t// in\n    tag_360:\n        /* \"#utility.yul\":6141:6204   */\n      swap3\n      pop\n        /* \"#utility.yul\":6097:6214   */\n      pop\n        /* \"#utility.yul\":6253:6255   */\n      0x20\n        /* \"#utility.yul\":6279:6332   */\n      tag_361\n        /* \"#utility.yul\":6324:6331   */\n      dup6\n        /* \"#utility.yul\":6315:6321   */\n      dup3\n        /* \"#utility.yul\":6304:6313   */\n      dup7\n        /* \"#utility.yul\":6300:6322   */\n      add\n        /* \"#utility.yul\":6279:6332   */\n      tag_251\n      jump\t// in\n    tag_361:\n        /* \"#utility.yul\":6269:6332   */\n      swap2\n      pop\n        /* \"#utility.yul\":6224:6342   */\n      pop\n        /* \"#utility.yul\":5875:6349   */\n      swap3\n      pop\n      swap3\n      swap1\n      pop\n      jump\t// out\n        /* \"#utility.yul\":6355:6535   */\n    tag_261:\n        /* \"#utility.yul\":6403:6480   */\n      0x4e487b7100000000000000000000000000000000000000000000000000000000\n        /* \"#utility.yul\":6400:6401   */\n      0x00\n        /* \"#utility.yul\":6393:6481   */\n      mstore\n        /* \"#utility.yul\":6500:6504   */\n      0x22\n        /* \"#utility.yul\":6497:6498   */\n      0x04\n        /* \"#utility.yul\":6490:6505   */\n      mstore\n        /* \"#utility.yul\":6524:6528   */\n      0x24\n        /* \"#utility.yul\":6521:6522   */\n      0x00\n        /* \"#utility.yul\":6514:6529   */\n      revert\n        /* \"#utility.yul\":6541:6861   */\n    tag_106:\n        /* \"#utility.yul\":6585:6591   */\n      0x00\n        /* \"#utility.yul\":6622:6623   */\n      0x02\n        /* \"#utility.yul\":6616:6620   */\n      dup3\n        /* \"#utility.yul\":6612:6624   */\n      div\n        /* \"#utility.yul\":6602:6624   */\n      swap1\n      pop\n        /* \"#utility.yul\":6669:6670   */\n      0x01\n        /* \"#utility.yul\":6663:6667   */\n      dup3\n        /* \"#utility.yul\":6659:6671   */\n      and\n        /* \"#utility.yul\":6690:6708   */\n      dup1\n        /* \"#utility.yul\":6680:6761   */\n      tag_364\n      jumpi\n        /* \"#utility.yul\":6746:6750   */\n      0x7f\n        /* \"#utility.yul\":6738:6744   */\n      dup3\n        /* \"#utility.yul\":6734:6751   */\n      and\n        /* \"#utility.yul\":6724:6751   */\n      swap2\n      pop\n        /* \"#utility.yul\":6680:6761   */\n    tag_364:\n        /* \"#utility.yul\":6808:6810   */\n      0x20\n        /* \"#utility.yul\":6800:6806   */\n      dup3\n        /* \"#utility.yul\":6797:6811   */\n      lt\n        /* \"#utility.yul\":6777:6795   */\n      dup2\n        /* \"#utility.yul\":6774:6812   */\n      sub\n        /* \"#utility.yul\":6771:6855   */\n      tag_365\n      jumpi\n        /* \"#utility.yul\":6827:6845   */\n      tag_366\n      tag_261\n      jump\t// in\n    tag_366:\n        /* \"#utility.yul\":6771:6855   */\n    tag_365:\n        /* \"#utility.yul\":6592:6861   */\n      pop\n        /* \"#utility.yul\":6541:6861   */\n      swap2\n      swap1\n      pop\n      jump\t// out\n        /* \"#utility.yul\":6867:7038   */\n    tag_262:\n        /* \"#utility.yul\":7007:7030   */\n      0x6e6f7420636f6e74726f6c6c696e672070617274790000000000000000000000\n        /* \"#utility.yul\":7003:7004   */\n      0x00\n        /* \"#utility.yul\":6995:7001   */\n      dup3\n        /* \"#utility.yul\":6991:7005   */\n      add\n        /* \"#utility.yul\":6984:7031   */\n      mstore\n        /* \"#utility.yul\":6867:7038   */\n      pop\n      jump\t// out\n        /* \"#utility.yul\":7044:7410   */\n    tag_263:\n        /* \"#utility.yul\":7186:7189   */\n      0x00\n        /* \"#utility.yul\":7207:7274   */\n      tag_369\n        /* \"#utility.yul\":7271:7273   */\n      0x15\n        /* \"#utility.yul\":7266:7269   */\n      dup4\n        /* \"#utility.yul\":7207:7274   */\n      tag_241\n      jump\t// in\n    tag_369:\n        /* \"#utility.yul\":7200:7274   */\n      swap2\n      pop\n        /* \"#utility.yul\":7283:7376   */\n      tag_370\n        /* \"#utility.yul\":7372:7375   */\n      dup3\n        /* \"#utility.yul\":7283:7376   */\n      tag_262\n      jump\t// in\n    tag_370:\n        /* \"#utility.yul\":7401:7403   */\n      0x20\n        /* \"#utility.yul\":7396:7399   */\n      dup3\n        /* \"#utility.yul\":7392:7404   */\n      add\n        /* \"#utility.yul\":7385:7404   */\n      swap1\n      pop\n        /* \"#utility.yul\":7044:7410   */\n      swap2\n      swap1\n      pop\n      jump\t// out\n        /* \"#utility.yul\":7416:7835   */\n    tag_126:\n        /* \"#utility.yul\":7582:7586   */\n      0x00\n        /* \"#utility.yul\":7620:7622   */\n      0x20\n        /* \"#utility.yul\":7609:7618   */\n      dup3\n        /* \"#utility.yul\":7605:7623   */\n      add\n        /* \"#utility.yul\":7597:7623   */\n      swap1\n      pop\n        /* \"#utility.yul\":7669:7678   */\n      dup2\n        /* \"#utility.yul\":7663:7667   */\n      dup2\n        /* \"#utility.yul\":7659:7679   */\n      sub\n        /* \"#utility.yul\":7655:7656   */\n      0x00\n        /* \"#utility.yul\":7644:7653   */\n      dup4\n        /* \"#utility.yul\":7640:7657   */\n      add\n        /* \"#utility.yul\":7633:7680   */\n      mstore\n        /* \"#utility.yul\":7697:7828   */\n      tag_372\n        /* \"#utility.yul\":7823:7827   */\n      dup2\n        /* \"#utility.yul\":7697:7828   */\n      tag_263\n      jump\t// in\n    tag_372:\n        /* \"#utility.yul\":7689:7828   */\n      swap1\n      pop\n        /* \"#utility.yul\":7416:7835   */\n      swap2\n      swap1\n      pop\n      jump\t// out\n        /* \"#utility.yul\":7841:8173   */\n    tag_130:\n        /* \"#utility.yul\":7962:7966   */\n      0x00\n        /* \"#utility.yul\":8000:8002   */\n      0x40\n        /* \"#utility.yul\":7989:7998   */\n      dup3\n        /* \"#utility.yul\":7985:8003   */\n      add\n        /* \"#utility.yul\":7977:8003   */\n      swap1\n      pop\n        /* \"#utility.yul\":8013:8084   */\n      tag_374\n        /* \"#utility.yul\":8081:8082   */\n      0x00\n        /* \"#utility.yul\":8070:8079   */\n      dup4\n        /* \"#utility.yul\":8066:8083   */\n      add\n        /* \"#utility.yul\":8057:8063   */\n      dup6\n        /* \"#utility.yul\":8013:8084   */\n      tag_260\n      jump\t// in\n    tag_374:\n        /* \"#utility.yul\":8094:8166   */\n      tag_375\n        /* \"#utility.yul\":8162:8164   */\n      0x20\n        /* \"#utility.yul\":8151:8160   */\n      dup4\n        /* \"#utility.yul\":8147:8165   */\n      add\n        /* \"#utility.yul\":8138:8144   */\n      dup5\n        /* \"#utility.yul\":8094:8166   */\n      tag_260\n      jump\t// in\n    tag_375:\n        /* \"#utility.yul\":7841:8173   */\n      swap4\n      swap3\n      pop\n      pop\n      pop\n      jump\t// out\n        /* \"#utility.yul\":8179:8359   */\n    tag_264:\n        /* \"#utility.yul\":8227:8304   */\n      0x4e487b7100000000000000000000000000000000000000000000000000000000\n        /* \"#utility.yul\":8224:8225   */\n      0x00\n        /* \"#utility.yul\":8217:8305   */\n      mstore\n        /* \"#utility.yul\":8324:8328   */\n      0x11\n        /* \"#utility.yul\":8321:8322   */\n      0x04\n        /* \"#utility.yul\":8314:8329   */\n      mstore\n        /* \"#utility.yul\":8348:8352   */\n      0x24\n        /* \"#utility.yul\":8345:8346   */\n      0x00\n        /* \"#utility.yul\":8338:8353   */\n      revert\n        /* \"#utility.yul\":8365:8556   */\n    tag_137:\n        /* \"#utility.yul\":8405:8408   */\n      0x00\n        /* \"#utility.yul\":8424:8444   */\n      tag_378\n        /* \"#utility.yul\":8442:8443   */\n      dup3\n        /* \"#utility.yul\":8424:8444   */\n      tag_252\n      jump\t// in\n    tag_378:\n        /* \"#utility.yul\":8419:8444   */\n      swap2\n      pop\n        /* \"#utility.yul\":8458:8478   */\n      tag_379\n        /* \"#utility.yul\":8476:8477   */\n      dup4\n        /* \"#utility.yul\":8458:8478   */\n      tag_252\n      jump\t// in\n    tag_379:\n        /* \"#utility.yul\":8453:8478   */\n      swap3\n      pop\n        /* \"#utility.yul\":8501:8502   */\n      dup3\n        /* \"#utility.yul\":8498:8499   */\n      dup3\n        /* \"#utility.yul\":8494:8503   */\n      add\n        /* \"#utility.yul\":8487:8503   */\n      swap1\n      pop\n        /* \"#utility.yul\":8522:8525   */\n      dup1\n        /* \"#utility.yul\":8519:8520   */\n      dup3\n        /* \"#utility.yul\":8516:8526   */\n      gt\n        /* \"#utility.yul\":8513:8549   */\n      iszero\n      tag_380\n      jumpi\n        /* \"#utility.yul\":8529:8547   */\n      tag_381\n      tag_264\n      jump\t// in\n    tag_381:\n        /* \"#utility.yul\":8513:8549   */\n    tag_380:\n        /* \"#utility.yul\":8365:8556   */\n      swap3\n      swap2\n      pop\n      pop\n      jump\t// out\n        /* \"#utility.yul\":8562:8894   */\n    tag_143:\n        /* \"#utility.yul\":8683:8687   */\n      0x00\n        /* \"#utility.yul\":8721:8723   */\n      0x40\n        /* \"#utility.yul\":8710:8719   */\n      dup3\n        /* \"#utility.yul\":8706:8724   */\n      add\n        /* \"#utility.yul\":8698:8724   */\n      swap1\n      pop\n        /* \"#utility.yul\":8734:8805   */\n      tag_383\n        /* \"#utility.yul\":8802:8803   */\n      0x00\n        /* \"#utility.yul\":8791:8800   */\n      dup4\n        /* \"#utility.yul\":8787:8804   */\n      add\n        /* \"#utility.yul\":8778:8784   */\n      dup6\n        /* \"#utility.yul\":8734:8805   */\n      tag_257\n      jump\t// in\n    tag_383:\n        /* \"#utility.yul\":8815:8887   */\n      tag_384\n        /* \"#utility.yul\":8883:8885   */\n      0x20\n        /* \"#utility.yul\":8872:8881   */\n      dup4\n        /* \"#utility.yul\":8868:8886   */\n      add\n        /* \"#utility.yul\":8859:8865   */\n      dup5\n        /* \"#utility.yul\":8815:8887   */\n      tag_257\n      jump\t// in\n    tag_384:\n        /* \"#utility.yul\":8562:8894   */\n      swap4\n      swap3\n      pop\n      pop\n      pop\n      jump\t// out\n        /* \"#utility.yul\":8900:9124   */\n    tag_265:\n        /* \"#utility.yul\":9040:9074   */\n      0x45524332303a2064656372656173656420616c6c6f77616e63652062656c6f77\n        /* \"#utility.yul\":9036:9037   */\n      0x00\n        /* \"#utility.yul\":9028:9034   */\n      dup3\n        /* \"#utility.yul\":9024:9038   */\n      add\n        /* \"#utility.yul\":9017:9075   */\n      mstore\n        /* \"#utility.yul\":9109:9116   */\n      0x207a65726f000000000000000000000000000000000000000000000000000000\n        /* \"#utility.yul\":9104:9106   */\n      0x20\n        /* \"#utility.yul\":9096:9102   */\n      dup3\n        /* \"#utility.yul\":9092:9107   */\n      add\n        /* \"#utility.yul\":9085:9117   */\n      mstore\n        /* \"#utility.yul\":8900:9124   */\n      pop\n      jump\t// out\n        /* \"#utility.yul\":9130:9496   */\n    tag_266:\n        /* \"#utility.yul\":9272:9275   */\n      0x00\n        /* \"#utility.yul\":9293:9360   */\n      tag_387\n        /* \"#utility.yul\":9357:9359   */\n      0x25\n        /* \"#utility.yul\":9352:9355   */\n      dup4\n        /* \"#utility.yul\":9293:9360   */\n      tag_241\n      jump\t// in\n    tag_387:\n        /* \"#utility.yul\":9286:9360   */\n      swap2\n      pop\n        /* \"#utility.yul\":9369:9462   */\n      tag_388\n        /* \"#utility.yul\":9458:9461   */\n      dup3\n        /* \"#utility.yul\":9369:9462   */\n      tag_265\n      jump\t// in\n    tag_388:\n        /* \"#utility.yul\":9487:9489   */\n      0x40\n        /* \"#utility.yul\":9482:9485   */\n      dup3\n        /* \"#utility.yul\":9478:9490   */\n      add\n        /* \"#utility.yul\":9471:9490   */\n      swap1\n      pop\n        /* \"#utility.yul\":9130:9496   */\n      swap2\n      swap1\n      pop\n      jump\t// out\n        /* \"#utility.yul\":9502:9921   */\n    tag_155:\n        /* \"#utility.yul\":9668:9672   */\n      0x00\n        /* \"#utility.yul\":9706:9708   */\n      0x20\n        /* \"#utility.yul\":9695:9704   */\n      dup3\n        /* \"#utility.yul\":9691:9709   */\n      add\n        /* \"#utility.yul\":9683:9709   */\n      swap1\n      pop\n        /* \"#utility.yul\":9755:9764   */\n      dup2\n        /* \"#utility.yul\":9749:9753   */\n      dup2\n        /* \"#utility.yul\":9745:9765   */\n      sub\n        /* \"#utility.yul\":9741:9742   */\n      0x00\n        /* \"#utility.yul\":9730:9739   */\n      dup4\n        /* \"#utility.yul\":9726:9743   */\n      add\n        /* \"#utility.yul\":9719:9766   */\n      mstore\n        /* \"#utility.yul\":9783:9914   */\n      tag_390\n        /* \"#utility.yul\":9909:9913   */\n      dup2\n        /* \"#utility.yul\":9783:9914   */\n      tag_266\n      jump\t// in\n    tag_390:\n        /* \"#utility.yul\":9775:9914   */\n      swap1\n      pop\n        /* \"#utility.yul\":9502:9921   */\n      swap2\n      swap1\n      pop\n      jump\t// out\n        /* \"#utility.yul\":9927:10096   */\n    tag_267:\n        /* \"#utility.yul\":10067:10088   */\n      0x7573657220697320626c61636b6c697374656400000000000000000000000000\n        /* \"#utility.yul\":10063:10064   */\n      0x00\n        /* \"#utility.yul\":10055:10061   */\n      dup3\n        /* \"#utility.yul\":10051:10065   */\n      add\n        /* \"#utility.yul\":10044:10089   */\n      mstore\n        /* \"#utility.yul\":9927:10096   */\n      pop\n      jump\t// out\n        /* \"#utility.yul\":10102:10468   */\n    tag_268:\n        /* \"#utility.yul\":10244:10247   */\n      0x00\n        /* \"#utility.yul\":10265:10332   */\n      tag_393\n        /* \"#utility.yul\":10329:10331   */\n      0x13\n        /* \"#utility.yul\":10324:10327   */\n      dup4\n        /* \"#utility.yul\":10265:10332   */\n      tag_241\n      jump\t// in\n    tag_393:\n        /* \"#utility.yul\":10258:10332   */\n      swap2\n      pop\n        /* \"#utility.yul\":10341:10434   */\n      tag_394\n        /* \"#utility.yul\":10430:10433   */\n      dup3\n        /* \"#utility.yul\":10341:10434   */\n      tag_267\n      jump\t// in\n    tag_394:\n        /* \"#utility.yul\":10459:10461   */\n      0x20\n        /* \"#utility.yul\":10454:10457   */\n      dup3\n        /* \"#utility.yul\":10450:10462   */\n      add\n        /* \"#utility.yul\":10443:10462   */\n      swap1\n      pop\n        /* \"#utility.yul\":10102:10468   */\n      swap2\n      swap1\n      pop\n      jump\t// out\n        /* \"#utility.yul\":10474:10893   */\n    tag_171:\n        /* \"#utility.yul\":10640:10644   */\n      0x00\n        /* \"#utility.yul\":10678:10680   */\n      0x20\n        /* \"#utility.yul\":10667:10676   */\n      dup3\n        /* \"#utility.yul\":10663:10681   */\n      add\n        /* \"#utility.yul\":10655:10681   */\n      swap1\n      pop\n        /* \"#utility.yul\":10727:10736   */\n      dup2\n        /* \"#utility.yul\":10721:10725   */\n      dup2\n        /* \"#utility.yul\":10717:10737   */\n      sub\n        /* \"#utility.yul\":10713:10714   */\n      0x00\n        /* \"#utility.yul\":10702:10711   */\n      dup4\n        /* \"#utility.yul\":10698:10715   */\n      add\n        /* \"#utility.yul\":10691:10738   */\n      mstore\n        /* \"#utility.yul\":10755:10886   */\n      tag_396\n        /* \"#utility.yul\":10881:10885   */\n      dup2\n        /* \"#utility.yul\":10755:10886   */\n      tag_268\n      jump\t// in\n    tag_396:\n        /* \"#utility.yul\":10747:10886   */\n      swap1\n      pop\n        /* \"#utility.yul\":10474:10893   */\n      swap2\n      swap1\n      pop\n      jump\t// out\n        /* \"#utility.yul\":10899:11309   */\n    tag_174:\n        /* \"#utility.yul\":10939:10946   */\n      0x00\n        /* \"#utility.yul\":10962:10982   */\n      tag_398\n        /* \"#utility.yul\":10980:10981   */\n      dup3\n        /* \"#utility.yul\":10962:10982   */\n      tag_252\n      jump\t// in\n    tag_398:\n        /* \"#utility.yul\":10957:10982   */\n      swap2\n      pop\n        /* \"#utility.yul\":10996:11016   */\n      tag_399\n        /* \"#utility.yul\":11014:11015   */\n      dup4\n        /* \"#utility.yul\":10996:11016   */\n      tag_252\n      jump\t// in\n    tag_399:\n        /* \"#utility.yul\":10991:11016   */\n      swap3\n      pop\n        /* \"#utility.yul\":11051:11052   */\n      dup3\n        /* \"#utility.yul\":11048:11049   */\n      dup3\n        /* \"#utility.yul\":11044:11053   */\n      mul\n        /* \"#utility.yul\":11073:11103   */\n      tag_400\n        /* \"#utility.yul\":11091:11102   */\n      dup2\n        /* \"#utility.yul\":11073:11103   */\n      tag_252\n      jump\t// in\n    tag_400:\n        /* \"#utility.yul\":11062:11103   */\n      swap2\n      pop\n        /* \"#utility.yul\":11252:11253   */\n      dup3\n        /* \"#utility.yul\":11243:11250   */\n      dup3\n        /* \"#utility.yul\":11239:11254   */\n      div\n        /* \"#utility.yul\":11236:11237   */\n      dup5\n        /* \"#utility.yul\":11233:11255   */\n      eq\n        /* \"#utility.yul\":11213:11214   */\n      dup4\n        /* \"#utility.yul\":11206:11215   */\n      iszero\n        /* \"#utility.yul\":11186:11269   */\n      or\n        /* \"#utility.yul\":11163:11302   */\n      tag_401\n      jumpi\n        /* \"#utility.yul\":11282:11300   */\n      tag_402\n      tag_264\n      jump\t// in\n    tag_402:\n        /* \"#utility.yul\":11163:11302   */\n    tag_401:\n        /* \"#utility.yul\":10947:11309   */\n      pop\n        /* \"#utility.yul\":10899:11309   */\n      swap3\n      swap2\n      pop\n      pop\n      jump\t// out\n        /* \"#utility.yul\":11315:11509   */\n    tag_176:\n        /* \"#utility.yul\":11355:11359   */\n      0x00\n        /* \"#utility.yul\":11375:11395   */\n      tag_404\n        /* \"#utility.yul\":11393:11394   */\n      dup3\n        /* \"#utility.yul\":11375:11395   */\n      tag_252\n      jump\t// in\n    tag_404:\n        /* \"#utility.yul\":11370:11395   */\n      swap2\n      pop\n        /* \"#utility.yul\":11409:11429   */\n      tag_405\n        /* \"#utility.yul\":11427:11428   */\n      dup4\n        /* \"#utility.yul\":11409:11429   */\n      tag_252\n      jump\t// in\n    tag_405:\n        /* \"#utility.yul\":11404:11429   */\n      swap3\n      pop\n        /* \"#utility.yul\":11453:11454   */\n      dup3\n        /* \"#utility.yul\":11450:11451   */\n      dup3\n        /* \"#utility.yul\":11446:11455   */\n      sub\n        /* \"#utility.yul\":11438:11455   */\n      swap1\n      pop\n        /* \"#utility.yul\":11477:11478   */\n      dup2\n        /* \"#utility.yul\":11471:11475   */\n      dup2\n        /* \"#utility.yul\":11468:11479   */\n      gt\n        /* \"#utility.yul\":11465:11502   */\n      iszero\n      tag_406\n      jumpi\n        /* \"#utility.yul\":11482:11500   */\n      tag_407\n      tag_264\n      jump\t// in\n    tag_407:\n        /* \"#utility.yul\":11465:11502   */\n    tag_406:\n        /* \"#utility.yul\":11315:11509   */\n      swap3\n      swap2\n      pop\n      pop\n      jump\t// out\n        /* \"#utility.yul\":11515:11695   */\n    tag_269:\n        /* \"#utility.yul\":11563:11640   */\n      0x4e487b7100000000000000000000000000000000000000000000000000000000\n        /* \"#utility.yul\":11560:11561   */\n      0x00\n        /* \"#utility.yul\":11553:11641   */\n      mstore\n        /* \"#utility.yul\":11660:11664   */\n      0x12\n        /* \"#utility.yul\":11657:11658   */\n      0x04\n        /* \"#utility.yul\":11650:11665   */\n      mstore\n        /* \"#utility.yul\":11684:11688   */\n      0x24\n        /* \"#utility.yul\":11681:11682   */\n      0x00\n        /* \"#utility.yul\":11674:11689   */\n      revert\n        /* \"#utility.yul\":11701:11886   */\n    tag_179:\n        /* \"#utility.yul\":11741:11742   */\n      0x00\n        /* \"#utility.yul\":11758:11778   */\n      tag_410\n        /* \"#utility.yul\":11776:11777   */\n      dup3\n        /* \"#utility.yul\":11758:11778   */\n      tag_252\n      jump\t// in\n    tag_410:\n        /* \"#utility.yul\":11753:11778   */\n      swap2\n      pop\n        /* \"#utility.yul\":11792:11812   */\n      tag_411\n        /* \"#utility.yul\":11810:11811   */\n      dup4\n        /* \"#utility.yul\":11792:11812   */\n      tag_252\n      jump\t// in\n    tag_411:\n        /* \"#utility.yul\":11787:11812   */\n      swap3\n      pop\n        /* \"#utility.yul\":11831:11832   */\n      dup3\n        /* \"#utility.yul\":11821:11856   */\n      tag_412\n      jumpi\n        /* \"#utility.yul\":11836:11854   */\n      tag_413\n      tag_269\n      jump\t// in\n    tag_413:\n        /* \"#utility.yul\":11821:11856   */\n    tag_412:\n        /* \"#utility.yul\":11878:11879   */\n      dup3\n        /* \"#utility.yul\":11875:11876   */\n      dup3\n        /* \"#utility.yul\":11871:11880   */\n      div\n        /* \"#utility.yul\":11866:11880   */\n      swap1\n      pop\n        /* \"#utility.yul\":11701:11886   */\n      swap3\n      swap2\n      pop\n      pop\n      jump\t// out\n        /* \"#utility.yul\":11892:12224   */\n    tag_190:\n        /* \"#utility.yul\":12013:12017   */\n      0x00\n        /* \"#utility.yul\":12051:12053   */\n      0x40\n        /* \"#utility.yul\":12040:12049   */\n      dup3\n        /* \"#utility.yul\":12036:12054   */\n      add\n        /* \"#utility.yul\":12028:12054   */\n      swap1\n      pop\n        /* \"#utility.yul\":12064:12135   */\n      tag_415\n        /* \"#utility.yul\":12132:12133   */\n      0x00\n        /* \"#utility.yul\":12121:12130   */\n      dup4\n        /* \"#utility.yul\":12117:12134   */\n      add\n        /* \"#utility.yul\":12108:12114   */\n      dup6\n        /* \"#utility.yul\":12064:12135   */\n      tag_260\n      jump\t// in\n    tag_415:\n        /* \"#utility.yul\":12145:12217   */\n      tag_416\n        /* \"#utility.yul\":12213:12215   */\n      0x20\n        /* \"#utility.yul\":12202:12211   */\n      dup4\n        /* \"#utility.yul\":12198:12216   */\n      add\n        /* \"#utility.yul\":12189:12195   */\n      dup5\n        /* \"#utility.yul\":12145:12217   */\n      tag_257\n      jump\t// in\n    tag_416:\n        /* \"#utility.yul\":11892:12224   */\n      swap4\n      swap3\n      pop\n      pop\n      pop\n      jump\t// out\n        /* \"#utility.yul\":12230:12453   */\n    tag_270:\n        /* \"#utility.yul\":12370:12404   */\n      0x45524332303a20617070726f76652066726f6d20746865207a65726f20616464\n        /* \"#utility.yul\":12366:12367   */\n      0x00\n        /* \"#utility.yul\":12358:12364   */\n      dup3\n        /* \"#utility.yul\":12354:12368   */\n      add\n        /* \"#utility.yul\":12347:12405   */\n      mstore\n        /* \"#utility.yul\":12439:12445   */\n      0x7265737300000000000000000000000000000000000000000000000000000000\n        /* \"#utility.yul\":12434:12436   */\n      0x20\n        /* \"#utility.yul\":12426:12432   */\n      dup3\n        /* \"#utility.yul\":12422:12437   */\n      add\n        /* \"#utility.yul\":12415:12446   */\n      mstore\n        /* \"#utility.yul\":12230:12453   */\n      pop\n      jump\t// out\n        /* \"#utility.yul\":12459:12825   */\n    tag_271:\n        /* \"#utility.yul\":12601:12604   */\n      0x00\n        /* \"#utility.yul\":12622:12689   */\n      tag_419\n        /* \"#utility.yul\":12686:12688   */\n      0x24\n        /* \"#utility.yul\":12681:12684   */\n      dup4\n        /* \"#utility.yul\":12622:12689   */\n      tag_241\n      jump\t// in\n    tag_419:\n        /* \"#utility.yul\":12615:12689   */\n      swap2\n      pop\n        /* \"#utility.yul\":12698:12791   */\n      tag_420\n        /* \"#utility.yul\":12787:12790   */\n      dup3\n        /* \"#utility.yul\":12698:12791   */\n      tag_270\n      jump\t// in\n    tag_420:\n        /* \"#utility.yul\":12816:12818   */\n      0x40\n        /* \"#utility.yul\":12811:12814   */\n      dup3\n        /* \"#utility.yul\":12807:12819   */\n      add\n        /* \"#utility.yul\":12800:12819   */\n      swap1\n      pop\n        /* \"#utility.yul\":12459:12825   */\n      swap2\n      swap1\n      pop\n      jump\t// out\n        /* \"#utility.yul\":12831:13250   */\n    tag_195:\n        /* \"#utility.yul\":12997:13001   */\n      0x00\n        /* \"#utility.yul\":13035:13037   */\n      0x20\n        /* \"#utility.yul\":13024:13033   */\n      dup3\n        /* \"#utility.yul\":13020:13038   */\n      add\n        /* \"#utility.yul\":13012:13038   */\n      swap1\n      pop\n        /* \"#utility.yul\":13084:13093   */\n      dup2\n        /* \"#utility.yul\":13078:13082   */\n      dup2\n        /* \"#utility.yul\":13074:13094   */\n      sub\n        /* \"#utility.yul\":13070:13071   */\n      0x00\n        /* \"#utility.yul\":13059:13068   */\n      dup4\n        /* \"#utility.yul\":13055:13072   */\n      add\n        /* \"#utility.yul\":13048:13095   */\n      mstore\n        /* \"#utility.yul\":13112:13243   */\n      tag_422\n        /* \"#utility.yul\":13238:13242   */\n      dup2\n        /* \"#utility.yul\":13112:13243   */\n      tag_271\n      jump\t// in\n    tag_422:\n        /* \"#utility.yul\":13104:13243   */\n      swap1\n      pop\n        /* \"#utility.yul\":12831:13250   */\n      swap2\n      swap1\n      pop\n      jump\t// out\n        /* \"#utility.yul\":13256:13477   */\n    tag_272:\n        /* \"#utility.yul\":13396:13430   */\n      0x45524332303a20617070726f766520746f20746865207a65726f206164647265\n        /* \"#utility.yul\":13392:13393   */\n      0x00\n        /* \"#utility.yul\":13384:13390   */\n      dup3\n        /* \"#utility.yul\":13380:13394   */\n      add\n        /* \"#utility.yul\":13373:13431   */\n      mstore\n        /* \"#utility.yul\":13465:13469   */\n      0x7373000000000000000000000000000000000000000000000000000000000000\n        /* \"#utility.yul\":13460:13462   */\n      0x20\n        /* \"#utility.yul\":13452:13458   */\n      dup3\n        /* \"#utility.yul\":13448:13463   */\n      add\n        /* \"#utility.yul\":13441:13470   */\n      mstore\n        /* \"#utility.yul\":13256:13477   */\n      pop\n      jump\t// out\n        /* \"#utility.yul\":13483:13849   */\n    tag_273:\n        /* \"#utility.yul\":13625:13628   */\n      0x00\n        /* \"#utility.yul\":13646:13713   */\n      tag_425\n        /* \"#utility.yul\":13710:13712   */\n      0x22\n        /* \"#utility.yul\":13705:13708   */\n      dup4\n        /* \"#utility.yul\":13646:13713   */\n      tag_241\n      jump\t// in\n    tag_425:\n        /* \"#utility.yul\":13639:13713   */\n      swap2\n      pop\n        /* \"#utility.yul\":13722:13815   */\n      tag_426\n        /* \"#utility.yul\":13811:13814   */\n      dup3\n        /* \"#utility.yul\":13722:13815   */\n      tag_272\n      jump\t// in\n    tag_426:\n        /* \"#utility.yul\":13840:13842   */\n      0x40\n        /* \"#utility.yul\":13835:13838   */\n      dup3\n        /* \"#utility.yul\":13831:13843   */\n      add\n        /* \"#utility.yul\":13824:13843   */\n      swap1\n      pop\n        /* \"#utility.yul\":13483:13849   */\n      swap2\n      swap1\n      pop\n      jump\t// out\n        /* \"#utility.yul\":13855:14274   */\n    tag_198:\n        /* \"#utility.yul\":14021:14025   */\n      0x00\n        /* \"#utility.yul\":14059:14061   */\n      0x20\n        /* \"#utility.yul\":14048:14057   */\n      dup3\n        /* \"#utility.yul\":14044:14062   */\n      add\n        /* \"#utility.yul\":14036:14062   */\n      swap1\n      pop\n        /* \"#utility.yul\":14108:14117   */\n      dup2\n        /* \"#utility.yul\":14102:14106   */\n      dup2\n        /* \"#utility.yul\":14098:14118   */\n      sub\n        /* \"#utility.yul\":14094:14095   */\n      0x00\n        /* \"#utility.yul\":14083:14092   */\n      dup4\n        /* \"#utility.yul\":14079:14096   */\n      add\n        /* \"#utility.yul\":14072:14119   */\n      mstore\n        /* \"#utility.yul\":14136:14267   */\n      tag_428\n        /* \"#utility.yul\":14262:14266   */\n      dup2\n        /* \"#utility.yul\":14136:14267   */\n      tag_273\n      jump\t// in\n    tag_428:\n        /* \"#utility.yul\":14128:14267   */\n      swap1\n      pop\n        /* \"#utility.yul\":13855:14274   */\n      swap2\n      swap1\n      pop\n      jump\t// out\n        /* \"#utility.yul\":14280:14459   */\n    tag_274:\n        /* \"#utility.yul\":14420:14451   */\n      0x45524332303a20696e73756666696369656e7420616c6c6f77616e6365000000\n        /* \"#utility.yul\":14416:14417   */\n      0x00\n        /* \"#utility.yul\":14408:14414   */\n      dup3\n        /* \"#utility.yul\":14404:14418   */\n      add\n        /* \"#utility.yul\":14397:14452   */\n      mstore\n        /* \"#utility.yul\":14280:14459   */\n      pop\n      jump\t// out\n        /* \"#utility.yul\":14465:14831   */\n    tag_275:\n        /* \"#utility.yul\":14607:14610   */\n      0x00\n        /* \"#utility.yul\":14628:14695   */\n      tag_431\n        /* \"#utility.yul\":14692:14694   */\n      0x1d\n        /* \"#utility.yul\":14687:14690   */\n      dup4\n        /* \"#utility.yul\":14628:14695   */\n      tag_241\n      jump\t// in\n    tag_431:\n        /* \"#utility.yul\":14621:14695   */\n      swap2\n      pop\n        /* \"#utility.yul\":14704:14797   */\n      tag_432\n        /* \"#utility.yul\":14793:14796   */\n      dup3\n        /* \"#utility.yul\":14704:14797   */\n      tag_274\n      jump\t// in\n    tag_432:\n        /* \"#utility.yul\":14822:14824   */\n      0x20\n        /* \"#utility.yul\":14817:14820   */\n      dup3\n        /* \"#utility.yul\":14813:14825   */\n      add\n        /* \"#utility.yul\":14806:14825   */\n      swap1\n      pop\n        /* \"#utility.yul\":14465:14831   */\n      swap2\n      swap1\n      pop\n      jump\t// out\n        /* \"#utility.yul\":14837:15256   */\n    tag_205:\n        /* \"#utility.yul\":15003:15007   */\n      0x00\n        /* \"#utility.yul\":15041:15043   */\n      0x20\n        /* \"#utility.yul\":15030:15039   */\n      dup3\n        /* \"#utility.yul\":15026:15044   */\n      add\n        /* \"#utility.yul\":15018:15044   */\n      swap1\n      pop\n        /* \"#utility.yul\":15090:15099   */\n      dup2\n        /* \"#utility.yul\":15084:15088   */\n      dup2\n        /* \"#utility.yul\":15080:15100   */\n      sub\n        /* \"#utility.yul\":15076:15077   */\n      0x00\n        /* \"#utility.yul\":15065:15074   */\n      dup4\n        /* \"#utility.yul\":15061:15078   */\n      add\n        /* \"#utility.yul\":15054:15101   */\n      mstore\n        /* \"#utility.yul\":15118:15249   */\n      tag_434\n        /* \"#utility.yul\":15244:15248   */\n      dup2\n        /* \"#utility.yul\":15118:15249   */\n      tag_275\n      jump\t// in\n    tag_434:\n        /* \"#utility.yul\":15110:15249   */\n      swap1\n      pop\n        /* \"#utility.yul\":14837:15256   */\n      swap2\n      swap1\n      pop\n      jump\t// out\n        /* \"#utility.yul\":15262:15436   */\n    tag_276:\n        /* \"#utility.yul\":15402:15428   */\n      0x66726f6d207573657220697320626c61636b6c69737465640000000000000000\n        /* \"#utility.yul\":15398:15399   */\n      0x00\n        /* \"#utility.yul\":15390:15396   */\n      dup3\n        /* \"#utility.yul\":15386:15400   */\n      add\n        /* \"#utility.yul\":15379:15429   */\n      mstore\n        /* \"#utility.yul\":15262:15436   */\n      pop\n      jump\t// out\n        /* \"#utility.yul\":15442:15808   */\n    tag_277:\n        /* \"#utility.yul\":15584:15587   */\n      0x00\n        /* \"#utility.yul\":15605:15672   */\n      tag_437\n        /* \"#utility.yul\":15669:15671   */\n      0x18\n        /* \"#utility.yul\":15664:15667   */\n      dup4\n        /* \"#utility.yul\":15605:15672   */\n      tag_241\n      jump\t// in\n    tag_437:\n        /* \"#utility.yul\":15598:15672   */\n      swap2\n      pop\n        /* \"#utility.yul\":15681:15774   */\n      tag_438\n        /* \"#utility.yul\":15770:15773   */\n      dup3\n        /* \"#utility.yul\":15681:15774   */\n      tag_276\n      jump\t// in\n    tag_438:\n        /* \"#utility.yul\":15799:15801   */\n      0x20\n        /* \"#utility.yul\":15794:15797   */\n      dup3\n        /* \"#utility.yul\":15790:15802   */\n      add\n        /* \"#utility.yul\":15783:15802   */\n      swap1\n      pop\n        /* \"#utility.yul\":15442:15808   */\n      swap2\n      swap1\n      pop\n      jump\t// out\n        /* \"#utility.yul\":15814:16233   */\n    tag_210:\n        /* \"#utility.yul\":15980:15984   */\n      0x00\n        /* \"#utility.yul\":16018:16020   */\n      0x20\n        /* \"#utility.yul\":16007:16016   */\n      dup3\n        /* \"#utility.yul\":16003:16021   */\n      add\n        /* \"#utility.yul\":15995:16021   */\n      swap1\n      pop\n        /* \"#utility.yul\":16067:16076   */\n      dup2\n        /* \"#utility.yul\":16061:16065   */\n      dup2\n        /* \"#utility.yul\":16057:16077   */\n      sub\n        /* \"#utility.yul\":16053:16054   */\n      0x00\n        /* \"#utility.yul\":16042:16051   */\n      dup4\n        /* \"#utility.yul\":16038:16055   */\n      add\n        /* \"#utility.yul\":16031:16078   */\n      mstore\n        /* \"#utility.yul\":16095:16226   */\n      tag_440\n        /* \"#utility.yul\":16221:16225   */\n      dup2\n        /* \"#utility.yul\":16095:16226   */\n      tag_277\n      jump\t// in\n    tag_440:\n        /* \"#utility.yul\":16087:16226   */\n      swap1\n      pop\n        /* \"#utility.yul\":15814:16233   */\n      swap2\n      swap1\n      pop\n      jump\t// out\n        /* \"#utility.yul\":16239:16411   */\n    tag_278:\n        /* \"#utility.yul\":16379:16403   */\n      0x746f207573657220697320626c61636b6c697374656400000000000000000000\n        /* \"#utility.yul\":16375:16376   */\n      0x00\n        /* \"#utility.yul\":16367:16373   */\n      dup3\n        /* \"#utility.yul\":16363:16377   */\n      add\n        /* \"#utility.yul\":16356:16404   */\n      mstore\n        /* \"#utility.yul\":16239:16411   */\n      pop\n      jump\t// out\n        /* \"#utility.yul\":16417:16783   */\n    tag_279:\n        /* \"#utility.yul\":16559:16562   */\n      0x00\n        /* \"#utility.yul\":16580:16647   */\n      tag_443\n        /* \"#utility.yul\":16644:16646   */\n      0x16\n        /* \"#utility.yul\":16639:16642   */\n      dup4\n        /* \"#utility.yul\":16580:16647   */\n      tag_241\n      jump\t// in\n    tag_443:\n        /* \"#utility.yul\":16573:16647   */\n      swap2\n      pop\n        /* \"#utility.yul\":16656:16749   */\n      tag_444\n        /* \"#utility.yul\":16745:16748   */\n      dup3\n        /* \"#utility.yul\":16656:16749   */\n      tag_278\n      jump\t// in\n    tag_444:\n        /* \"#utility.yul\":16774:16776   */\n      0x20\n        /* \"#utility.yul\":16769:16772   */\n      dup3\n        /* \"#utility.yul\":16765:16777   */\n      add\n        /* \"#utility.yul\":16758:16777   */\n      swap1\n      pop\n        /* \"#utility.yul\":16417:16783   */\n      swap2\n      swap1\n      pop\n      jump\t// out\n        /* \"#utility.yul\":16789:17208   */\n    tag_213:\n        /* \"#utility.yul\":16955:16959   */\n      0x00\n        /* \"#utility.yul\":16993:16995   */\n      0x20\n        /* \"#utility.yul\":16982:16991   */\n      dup3\n        /* \"#utility.yul\":16978:16996   */\n      add\n        /* \"#utility.yul\":16970:16996   */\n      swap1\n      pop\n        /* \"#utility.yul\":17042:17051   */\n      dup2\n        /* \"#utility.yul\":17036:17040   */\n      dup2\n        /* \"#utility.yul\":17032:17052   */\n      sub\n        /* \"#utility.yul\":17028:17029   */\n      0x00\n        /* \"#utility.yul\":17017:17026   */\n      dup4\n        /* \"#utility.yul\":17013:17030   */\n      add\n        /* \"#utility.yul\":17006:17053   */\n      mstore\n        /* \"#utility.yul\":17070:17201   */\n      tag_446\n        /* \"#utility.yul\":17196:17200   */\n      dup2\n        /* \"#utility.yul\":17070:17201   */\n      tag_279\n      jump\t// in\n    tag_446:\n        /* \"#utility.yul\":17062:17201   */\n      swap1\n      pop\n        /* \"#utility.yul\":16789:17208   */\n      swap2\n      swap1\n      pop\n      jump\t// out\n        /* \"#utility.yul\":17214:17395   */\n    tag_280:\n        /* \"#utility.yul\":17354:17387   */\n      0x45524332303a206d696e7420746f20746865207a65726f206164647265737300\n        /* \"#utility.yul\":17350:17351   */\n      0x00\n        /* \"#utility.yul\":17342:17348   */\n      dup3\n        /* \"#utility.yul\":17338:17352   */\n      add\n        /* \"#utility.yul\":17331:17388   */\n      mstore\n        /* \"#utility.yul\":17214:17395   */\n      pop\n      jump\t// out\n        /* \"#utility.yul\":17401:17767   */\n    tag_281:\n        /* \"#utility.yul\":17543:17546   */\n      0x00\n        /* \"#utility.yul\":17564:17631   */\n      tag_449\n        /* \"#utility.yul\":17628:17630   */\n      0x1f\n        /* \"#utility.yul\":17623:17626   */\n      dup4\n        /* \"#utility.yul\":17564:17631   */\n      tag_241\n      jump\t// in\n    tag_449:\n        /* \"#utility.yul\":17557:17631   */\n      swap2\n      pop\n        /* \"#utility.yul\":17640:17733   */\n      tag_450\n        /* \"#utility.yul\":17729:17732   */\n      dup3\n        /* \"#utility.yul\":17640:17733   */\n      tag_280\n      jump\t// in\n    tag_450:\n        /* \"#utility.yul\":17758:17760   */\n      0x20\n        /* \"#utility.yul\":17753:17756   */\n      dup3\n        /* \"#utility.yul\":17749:17761   */\n      add\n        /* \"#utility.yul\":17742:17761   */\n      swap1\n      pop\n        /* \"#utility.yul\":17401:17767   */\n      swap2\n      swap1\n      pop\n      jump\t// out\n        /* \"#utility.yul\":17773:18192   */\n    tag_218:\n        /* \"#utility.yul\":17939:17943   */\n      0x00\n        /* \"#utility.yul\":17977:17979   */\n      0x20\n        /* \"#utility.yul\":17966:17975   */\n      dup3\n        /* \"#utility.yul\":17962:17980   */\n      add\n        /* \"#utility.yul\":17954:17980   */\n      swap1\n      pop\n        /* \"#utility.yul\":18026:18035   */\n      dup2\n        /* \"#utility.yul\":18020:18024   */\n      dup2\n        /* \"#utility.yul\":18016:18036   */\n      sub\n        /* \"#utility.yul\":18012:18013   */\n      0x00\n        /* \"#utility.yul\":18001:18010   */\n      dup4\n        /* \"#utility.yul\":17997:18014   */\n      add\n        /* \"#utility.yul\":17990:18037   */\n      mstore\n        /* \"#utility.yul\":18054:18185   */\n      tag_452\n        /* \"#utility.yul\":18180:18184   */\n      dup2\n        /* \"#utility.yul\":18054:18185   */\n      tag_281\n      jump\t// in\n    tag_452:\n        /* \"#utility.yul\":18046:18185   */\n      swap1\n      pop\n        /* \"#utility.yul\":17773:18192   */\n      swap2\n      swap1\n      pop\n      jump\t// out\n        /* \"#utility.yul\":18198:18422   */\n    tag_282:\n        /* \"#utility.yul\":18338:18372   */\n      0x45524332303a207472616e736665722066726f6d20746865207a65726f206164\n        /* \"#utility.yul\":18334:18335   */\n      0x00\n        /* \"#utility.yul\":18326:18332   */\n      dup3\n        /* \"#utility.yul\":18322:18336   */\n      add\n        /* \"#utility.yul\":18315:18373   */\n      mstore\n        /* \"#utility.yul\":18407:18414   */\n      0x6472657373000000000000000000000000000000000000000000000000000000\n        /* \"#utility.yul\":18402:18404   */\n      0x20\n        /* \"#utility.yul\":18394:18400   */\n      dup3\n        /* \"#utility.yul\":18390:18405   */\n      add\n        /* \"#utility.yul\":18383:18415   */\n      mstore\n        /* \"#utility.yul\":18198:18422   */\n      pop\n      jump\t// out\n        /* \"#utility.yul\":18428:18794   */\n    tag_283:\n        /* \"#utility.yul\":18570:18573   */\n      0x00\n        /* \"#utility.yul\":18591:18658   */\n      tag_455\n        /* \"#utility.yul\":18655:18657   */\n      0x25\n        /* \"#utility.yul\":18650:18653   */\n      dup4\n        /* \"#utility.yul\":18591:18658   */\n      tag_241\n      jump\t// in\n    tag_455:\n        /* \"#utility.yul\":18584:18658   */\n      swap2\n      pop\n        /* \"#utility.yul\":18667:18760   */\n      tag_456\n        /* \"#utility.yul\":18756:18759   */\n      dup3\n        /* \"#utility.yul\":18667:18760   */\n      tag_282\n      jump\t// in\n    tag_456:\n        /* \"#utility.yul\":18785:18787   */\n      0x40\n        /* \"#utility.yul\":18780:18783   */\n      dup3\n        /* \"#utility.yul\":18776:18788   */\n      add\n        /* \"#utility.yul\":18769:18788   */\n      swap1\n      pop\n        /* \"#utility.yul\":18428:18794   */\n      swap2\n      swap1\n      pop\n      jump\t// out\n        /* \"#utility.yul\":18800:19219   */\n    tag_228:\n        /* \"#utility.yul\":18966:18970   */\n      0x00\n        /* \"#utility.yul\":19004:19006   */\n      0x20\n        /* \"#utility.yul\":18993:19002   */\n      dup3\n        /* \"#utility.yul\":18989:19007   */\n      add\n        /* \"#utility.yul\":18981:19007   */\n      swap1\n      pop\n        /* \"#utility.yul\":19053:19062   */\n      dup2\n        /* \"#utility.yul\":19047:19051   */\n      dup2\n        /* \"#utility.yul\":19043:19063   */\n      sub\n        /* \"#utility.yul\":19039:19040   */\n      0x00\n        /* \"#utility.yul\":19028:19037   */\n      dup4\n        /* \"#utility.yul\":19024:19041   */\n      add\n        /* \"#utility.yul\":19017:19064   */\n      mstore\n        /* \"#utility.yul\":19081:19212   */\n      tag_458\n        /* \"#utility.yul\":19207:19211   */\n      dup2\n        /* \"#utility.yul\":19081:19212   */\n      tag_283\n      jump\t// in\n    tag_458:\n        /* \"#utility.yul\":19073:19212   */\n      swap1\n      pop\n        /* \"#utility.yul\":18800:19219   */\n      swap2\n      swap1\n      pop\n      jump\t// out\n        /* \"#utility.yul\":19225:19447   */\n    tag_284:\n        /* \"#utility.yul\":19365:19399   */\n      0x45524332303a207472616e7366657220746f20746865207a65726f2061646472\n        /* \"#utility.yul\":19361:19362   */\n      0x00\n        /* \"#utility.yul\":19353:19359   */\n      dup3\n        /* \"#utility.yul\":19349:19363   */\n      add\n        /* \"#utility.yul\":19342:19400   */\n      mstore\n        /* \"#utility.yul\":19434:19439   */\n      0x6573730000000000000000000000000000000000000000000000000000000000\n        /* \"#utility.yul\":19429:19431   */\n      0x20\n        /* \"#utility.yul\":19421:19427   */\n      dup3\n        /* \"#utility.yul\":19417:19432   */\n      add\n        /* \"#utility.yul\":19410:19440   */\n      mstore\n        /* \"#utility.yul\":19225:19447   */\n      pop\n      jump\t// out\n        /* \"#utility.yul\":19453:19819   */\n    tag_285:\n        /* \"#utility.yul\":19595:19598   */\n      0x00\n        /* \"#utility.yul\":19616:19683   */\n      tag_461\n        /* \"#utility.yul\":19680:19682   */\n      0x23\n        /* \"#utility.yul\":19675:19678   */\n      dup4\n        /* \"#utility.yul\":19616:19683   */\n      tag_241\n      jump\t// in\n    tag_461:\n        /* \"#utility.yul\":19609:19683   */\n      swap2\n      pop\n        /* \"#utility.yul\":19692:19785   */\n      tag_462\n        /* \"#utility.yul\":19781:19784   */\n      dup3\n        /* \"#utility.yul\":19692:19785   */\n      tag_284\n      jump\t// in\n    tag_462:\n        /* \"#utility.yul\":19810:19812   */\n      0x40\n        /* \"#utility.yul\":19805:19808   */\n      dup3\n        /* \"#utility.yul\":19801:19813   */\n      add\n        /* \"#utility.yul\":19794:19813   */\n      swap1\n      pop\n        /* \"#utility.yul\":19453:19819   */\n      swap2\n      swap1\n      pop\n      jump\t// out\n        /* \"#utility.yul\":19825:20244   */\n    tag_231:\n        /* \"#utility.yul\":19991:19995   */\n      0x00\n        /* \"#utility.yul\":20029:20031   */\n      0x20\n        /* \"#utility.yul\":20018:20027   */\n      dup3\n        /* \"#utility.yul\":20014:20032   */\n      add\n        /* \"#utility.yul\":20006:20032   */\n      swap1\n      pop\n        /* \"#utility.yul\":20078:20087   */\n      dup2\n        /* \"#utility.yul\":20072:20076   */\n      dup2\n        /* \"#utility.yul\":20068:20088   */\n      sub\n        /* \"#utility.yul\":20064:20065   */\n      0x00\n        /* \"#utility.yul\":20053:20062   */\n      dup4\n        /* \"#utility.yul\":20049:20066   */\n      add\n        /* \"#utility.yul\":20042:20089   */\n      mstore\n        /* \"#utility.yul\":20106:20237   */\n      tag_464\n        /* \"#utility.yul\":20232:20236   */\n      dup2\n        /* \"#utility.yul\":20106:20237   */\n      tag_285\n      jump\t// in\n    tag_464:\n        /* \"#utility.yul\":20098:20237   */\n      swap1\n      pop\n        /* \"#utility.yul\":19825:20244   */\n      swap2\n      swap1\n      pop\n      jump\t// out\n        /* \"#utility.yul\":20250:20475   */\n    tag_286:\n        /* \"#utility.yul\":20390:20424   */\n      0x45524332303a207472616e7366657220616d6f756e7420657863656564732062\n        /* \"#utility.yul\":20386:20387   */\n      0x00\n        /* \"#utility.yul\":20378:20384   */\n      dup3\n        /* \"#utility.yul\":20374:20388   */\n      add\n        /* \"#utility.yul\":20367:20425   */\n      mstore\n        /* \"#utility.yul\":20459:20467   */\n      0x616c616e63650000000000000000000000000000000000000000000000000000\n        /* \"#utility.yul\":20454:20456   */\n      0x20\n        /* \"#utility.yul\":20446:20452   */\n      dup3\n        /* \"#utility.yul\":20442:20457   */\n      add\n        /* \"#utility.yul\":20435:20468   */\n      mstore\n        /* \"#utility.yul\":20250:20475   */\n      pop\n      jump\t// out\n        /* \"#utility.yul\":20481:20847   */\n    tag_287:\n        /* \"#utility.yul\":20623:20626   */\n      0x00\n        /* \"#utility.yul\":20644:20711   */\n      tag_467\n        /* \"#utility.yul\":20708:20710   */\n      0x26\n        /* \"#utility.yul\":20703:20706   */\n      dup4\n        /* \"#utility.yul\":20644:20711   */\n      tag_241\n      jump\t// in\n    tag_467:\n        /* \"#utility.yul\":20637:20711   */\n      swap2\n      pop\n        /* \"#utility.yul\":20720:20813   */\n      tag_468\n        /* \"#utility.yul\":20809:20812   */\n      dup3\n        /* \"#utility.yul\":20720:20813   */\n      tag_286\n      jump\t// in\n    tag_468:\n        /* \"#utility.yul\":20838:20840   */\n      0x40\n        /* \"#utility.yul\":20833:20836   */\n      dup3\n        /* \"#utility.yul\":20829:20841   */\n      add\n        /* \"#utility.yul\":20822:20841   */\n      swap1\n      pop\n        /* \"#utility.yul\":20481:20847   */\n      swap2\n      swap1\n      pop\n      jump\t// out\n        /* \"#utility.yul\":20853:21272   */\n    tag_235:\n        /* \"#utility.yul\":21019:21023   */\n      0x00\n        /* \"#utility.yul\":21057:21059   */\n      0x20\n        /* \"#utility.yul\":21046:21055   */\n      dup3\n        /* \"#utility.yul\":21042:21060   */\n      add\n        /* \"#utility.yul\":21034:21060   */\n      swap1\n      pop\n        /* \"#utility.yul\":21106:21115   */\n      dup2\n        /* \"#utility.yul\":21100:21104   */\n      dup2\n        /* \"#utility.yul\":21096:21116   */\n      sub\n        /* \"#utility.yul\":21092:21093   */\n      0x00\n        /* \"#utility.yul\":21081:21090   */\n      dup4\n        /* \"#utility.yul\":21077:21094   */\n      add\n        /* \"#utility.yul\":21070:21117   */\n      mstore\n        /* \"#utility.yul\":21134:21265   */\n      tag_470\n        /* \"#utility.yul\":21260:21264   */\n      dup2\n        /* \"#utility.yul\":21134:21265   */\n      tag_287\n      jump\t// in\n    tag_470:\n        /* \"#utility.yul\":21126:21265   */\n      swap1\n      pop\n        /* \"#utility.yul\":20853:21272   */\n      swap2\n      swap1\n      pop\n      jump\t// out\n\n    auxdata: 0xa264697066735822122060b8dfb10ab99d5d94739278c7b022ebfdef786f47e71c4cefa0fef0982ffa7164736f6c63430008140033\n}\n",
				"bytecode": {
					"linkReferences": {},
					"object": "60806040526101f460065534801562000016575f80fd5b506040516200284a3803806200284a83398181016040528101906200003c919062000334565b6040518060400160405280601d81526020017f43656e7472616c2062616e6b206469676974616c2063757272656e63790000008152506040518060400160405280600481526020017f43424443000000000000000000000000000000000000000000000000000000008152508160039081620000b99190620005d4565b508060049081620000cb9190620005d4565b5050508160055f6101000a81548173ffffffffffffffffffffffffffffffffffffffff021916908373ffffffffffffffffffffffffffffffffffffffff1602179055506200012082826200012860201b60201c565b5050620007c9565b5f73ffffffffffffffffffffffffffffffffffffffff168273ffffffffffffffffffffffffffffffffffffffff160362000199576040517f08c379a0000000000000000000000000000000000000000000000000000000008152600401620001909062000716565b60405180910390fd5b620001ac5f83836200028d60201b60201c565b8060025f828254620001bf919062000763565b92505081905550805f808473ffffffffffffffffffffffffffffffffffffffff1673ffffffffffffffffffffffffffffffffffffffff1681526020019081526020015f205f82825401925050819055508173ffffffffffffffffffffffffffffffffffffffff165f73ffffffffffffffffffffffffffffffffffffffff167fddf252ad1be2c89b69c2b068fc378daa952ba7f163c4a11628f55a4df523b3ef836040516200026e9190620007ae565b60405180910390a3620002895f83836200029260201b60201c565b5050565b505050565b505050565b5f80fd5b5f73ffffffffffffffffffffffffffffffffffffffff82169050919050565b5f620002c6826200029b565b9050919050565b620002d881620002ba565b8114620002e3575f80fd5b50565b5f81519050620002f681620002cd565b92915050565b5f819050919050565b6200031081620002fc565b81146200031b575f80fd5b50565b5f815190506200032e8162000305565b92915050565b5f80604083850312156200034d576200034c62000297565b5b5f6200035c85828601620002e6565b92505060206200036f858286016200031e565b9150509250929050565b5f81519050919050565b7f4e487b71000000000000000000000000000000000000000000000000000000005f52604160045260245ffd5b7f4e487b71000000000000000000000000000000000000000000000000000000005f52602260045260245ffd5b5f6002820490506001821680620003f557607f821691505b6020821081036200040b576200040a620003b0565b5b50919050565b5f819050815f5260205f209050919050565b5f6020601f8301049050919050565b5f82821b905092915050565b5f600883026200046f7fffffffffffffffffffffffffffffffffffffffffffffffffffffffffffffffff8262000432565b6200047b868362000432565b95508019841693508086168417925050509392505050565b5f819050919050565b5f620004bc620004b6620004b084620002fc565b62000493565b620002fc565b9050919050565b5f819050919050565b620004d7836200049c565b620004ef620004e682620004c3565b8484546200043e565b825550505050565b5f90565b62000505620004f7565b62000512818484620004cc565b505050565b5b8181101562000539576200052d5f82620004fb565b60018101905062000518565b5050565b601f8211156200058857620005528162000411565b6200055d8462000423565b810160208510156200056d578190505b620005856200057c8562000423565b83018262000517565b50505b505050565b5f82821c905092915050565b5f620005aa5f19846008026200058d565b1980831691505092915050565b5f620005c4838362000599565b9150826002028217905092915050565b620005df8262000379565b67ffffffffffffffff811115620005fb57620005fa62000383565b5b620006078254620003dd565b620006148282856200053d565b5f60209050601f8311600181146200064a575f841562000635578287015190505b620006418582620005b7565b865550620006b0565b601f1984166200065a8662000411565b5f5b8281101562000683578489015182556001820191506020850194506020810190506200065c565b86831015620006a357848901516200069f601f89168262000599565b8355505b6001600288020188555050505b505050505050565b5f82825260208201905092915050565b7f45524332303a206d696e7420746f20746865207a65726f2061646472657373005f82015250565b5f620006fe601f83620006b8565b91506200070b82620006c8565b602082019050919050565b5f6020820190508181035f8301526200072f81620006f0565b9050919050565b7f4e487b71000000000000000000000000000000000000000000000000000000005f52601160045260245ffd5b5f6200076f82620002fc565b91506200077c83620002fc565b925082820190508082111562000797576200079662000736565b5b92915050565b620007a881620002fc565b82525050565b5f602082019050620007c35f8301846200079d565b92915050565b61207380620007d75f395ff3fe608060405234801561000f575f80fd5b506004361061012a575f3560e01c8063752a50a6116100ab578063ab654f181161006f578063ab654f181461036a578063b3b2c7be14610386578063dd62ed3e14610390578063eb4b734c146103c0578063f9f92be4146103dc5761012a565b8063752a50a6146102b257806391e93eba146102ce57806395d89b41146102ec578063a457c2d71461030a578063a9059cbb1461033a5761012a565b806323b872dd116100f257806323b872dd146101e85780632e69560814610218578063313ce56714610234578063395093511461025257806370a08231146102825761012a565b806306fdde031461012e578063095ea7b31461014c57806318160ddd1461017c5780632170e4721461019a5780632322abf3146101ca575b5f80fd5b61013661040c565b60405161014391906115ec565b60405180910390f35b6101666004803603810190610161919061169d565b61049c565b60405161017391906116f5565b60405180910390f35b6101846104be565b604051610191919061171d565b60405180910390f35b6101b460048036038101906101af9190611736565b6104c7565b6040516101c1919061171d565b60405180910390f35b6101d26104dc565b6040516101df919061171d565b60405180910390f35b61020260048036038101906101fd9190611761565b6104e2565b60405161020f91906116f5565b60405180910390f35b610232600480360381019061022d9190611736565b610510565b005b61023c6106b7565b60405161024991906117cc565b60405180910390f35b61026c6004803603810190610267919061169d565b6106bf565b60405161027991906116f5565b60405180910390f35b61029c60048036038101906102979190611736565b6106f5565b6040516102a9919061171d565b60405180910390f35b6102cc60048036038101906102c791906117e5565b61073a565b005b6102d6610811565b6040516102e3919061181f565b60405180910390f35b6102f4610836565b60405161030191906115ec565b60405180910390f35b610324600480360381019061031f919061169d565b6108c6565b60405161033191906116f5565b60405180910390f35b610354600480360381019061034f919061169d565b61093b565b60405161036191906116f5565b60405180910390f35b610384600480360381019061037f91906117e5565b61095d565b005b61038e610a4e565b005b6103aa60048036038101906103a59190611838565b610c01565b6040516103b7919061171d565b60405180910390f35b6103da60048036038101906103d591906117e5565b610c83565b005b6103f660048036038101906103f19190611736565b610dfe565b60405161040391906116f5565b60405180910390f35b60606003805461041b906118a3565b80601f0160208091040260200160405190810160405280929190818152602001828054610447906118a3565b80156104925780601f1061046957610100808354040283529160200191610492565b820191905f5260205f20905b81548152906001019060200180831161047557829003601f168201915b5050505050905090565b5f806104a6610e1b565b90506104b3818585610e22565b600191505092915050565b5f600254905090565b600a602052805f5260405f205f915090505481565b60065481565b5f806104ec610e1b565b90506104f9858285610fe5565b610504858585611070565b60019150509392505050565b60055f9054906101000a900473ffffffffffffffffffffffffffffffffffffffff1673ffffffffffffffffffffffffffffffffffffffff163373ffffffffffffffffffffffffffffffffffffffff161461059f576040517f08c379a00000000000000000000000000000000000000000000000000000000081526004016105969061191d565b60405180910390fd5b5f60055f9054906101000a900473ffffffffffffffffffffffffffffffffffffffff1690508160055f6101000a81548173ffffffffffffffffffffffffffffffffffffffff021916908373ffffffffffffffffffffffffffffffffffffffff1602179055506106598160055f9054906101000a900473ffffffffffffffffffffffffffffffffffffffff1661065460055f9054906101000a900473ffffffffffffffffffffffffffffffffffffffff166106f5565b611070565b7f5038665c4a66e55f78b514a2aaa8762ebf82e38ce9e1a7fdd1244a0f7a7bcf808160055f9054906101000a900473ffffffffffffffffffffffffffffffffffffffff166040516106ab92919061193b565b60405180910390a15050565b5f6012905090565b5f806106c9610e1b565b90506106ea8185856106db8589610c01565b6106e5919061198f565b610e22565b600191505092915050565b5f805f8373ffffffffffffffffffffffffffffffffffffffff1673ffffffffffffffffffffffffffffffffffffffff1681526020019081526020015f20549050919050565b60055f9054906101000a900473ffffffffffffffffffffffffffffffffffffffff1673ffffffffffffffffffffffffffffffffffffffff163373ffffffffffffffffffffffffffffffffffffffff16146107c9576040517f08c379a00000000000000000000000000000000000000000000000000000000081526004016107c09061191d565b60405180910390fd5b5f819050816006819055507f2463616ef8e6f9bddf00e4964b853ad9050f87cd3c73985d2ee6b6c8a833699181836040516108059291906119c2565b60405180910390a15050565b60055f9054906101000a900473ffffffffffffffffffffffffffffffffffffffff1681565b606060048054610845906118a3565b80601f0160208091040260200160405190810160405280929190818152602001828054610871906118a3565b80156108bc5780601f10610893576101008083540402835291602001916108bc565b820191905f5260205f20905b81548152906001019060200180831161089f57829003601f168201915b5050505050905090565b5f806108d0610e1b565b90505f6108dd8286610c01565b905083811015610922576040517f08c379a000000000000000000000000000000000000000000000000000000000815260040161091990611a59565b60405180910390fd5b61092f8286868403610e22565b60019250505092915050565b5f80610945610e1b565b9050610952818585611070565b600191505092915050565b60055f9054906101000a900473ffffffffffffffffffffffffffffffffffffffff1673ffffffffffffffffffffffffffffffffffffffff163373ffffffffffffffffffffffffffffffffffffffff16146109ec576040517f08c379a00000000000000000000000000000000000000000000000000000000081526004016109e39061191d565b60405180910390fd5b5f6109f56104be565b90505f8282610a04919061198f565b9050610a10338461119e565b7f1eae947f873cc2ff225279bd5857407f58a2fc227d473cc51ae673401cffb2358282604051610a419291906119c2565b60405180910390a1505050565b5f151560075f3373ffffffffffffffffffffffffffffffffffffffff1673ffffffffffffffffffffffffffffffffffffffff1681526020019081526020015f205f9054906101000a900460ff16151514610add576040517f08c379a0000000000000000000000000000000000000000000000000000000008152600401610ad490611ac1565b60405180910390fd5b5f6301e13380610aeb6106b7565b60ff16600654610afb9190611adf565b600a5f3373ffffffffffffffffffffffffffffffffffffffff1673ffffffffffffffffffffffffffffffffffffffff1681526020019081526020015f205442610b449190611b20565b610b4e9190611adf565b610b589190611b80565b90505f8160085f3373ffffffffffffffffffffffffffffffffffffffff1673ffffffffffffffffffffffffffffffffffffffff1681526020019081526020015f2054610ba4919061198f565b9050610bd160055f9054906101000a900473ffffffffffffffffffffffffffffffffffffffff168361119e565b610bfd60055f9054906101000a900473ffffffffffffffffffffffffffffffffffffffff1633836112ec565b5050565b5f60015f8473ffffffffffffffffffffffffffffffffffffffff1673ffffffffffffffffffffffffffffffffffffffff1681526020019081526020015f205f8373ffffffffffffffffffffffffffffffffffffffff1673ffffffffffffffffffffffffffffffffffffffff1681526020019081526020015f2054905092915050565b5f151560075f3373ffffffffffffffffffffffffffffffffffffffff1673ffffffffffffffffffffffffffffffffffffffff1681526020019081526020015f205f9054906101000a900460ff16151514610d12576040517f08c379a0000000000000000000000000000000000000000000000000000000008152600401610d0990611ac1565b60405180910390fd5b610d3e3360055f9054906101000a900473ffffffffffffffffffffffffffffffffffffffff16836112ec565b42600a5f3373ffffffffffffffffffffffffffffffffffffffff1673ffffffffffffffffffffffffffffffffffffffff1681526020019081526020015f20819055508060085f3373ffffffffffffffffffffffffffffffffffffffff1673ffffffffffffffffffffffffffffffffffffffff1681526020019081526020015f20819055507f342d50a3049b2f1ab9ac3eb2ddd6750e7ed19269bcb3ba7e75ed4d1c342e15a43382604051610df3929190611bb0565b60405180910390a150565b6007602052805f5260405f205f915054906101000a900460ff1681565b5f33905090565b5f73ffffffffffffffffffffffffffffffffffffffff168373ffffffffffffffffffffffffffffffffffffffff1603610e90576040517f08c379a0000000000000000000000000000000000000000000000000000000008152600401610e8790611c47565b60405180910390fd5b5f73ffffffffffffffffffffffffffffffffffffffff168273ffffffffffffffffffffffffffffffffffffffff1603610efe576040517f08c379a0000000000000000000000000000000000000000000000000000000008152600401610ef590611cd5565b60405180910390fd5b8060015f8573ffffffffffffffffffffffffffffffffffffffff1673ffffffffffffffffffffffffffffffffffffffff1681526020019081526020015f205f8473ffffffffffffffffffffffffffffffffffffffff1673ffffffffffffffffffffffffffffffffffffffff1681526020019081526020015f20819055508173ffffffffffffffffffffffffffffffffffffffff168373ffffffffffffffffffffffffffffffffffffffff167f8c5be1e5ebec7d5bd14f71427d1e84f3dd0314c0f7b2291e5b200ac8c7c3b92583604051610fd8919061171d565b60405180910390a3505050565b5f610ff08484610c01565b90507fffffffffffffffffffffffffffffffffffffffffffffffffffffffffffffffff811461106a578181101561105c576040517f08c379a000000000000000000000000000000000000000000000000000000000815260040161105390611d3d565b60405180910390fd5b6110698484848403610e22565b5b50505050565b5f151560075f8573ffffffffffffffffffffffffffffffffffffffff1673ffffffffffffffffffffffffffffffffffffffff1681526020019081526020015f205f9054906101000a900460ff161515146110ff576040517f08c379a00000000000000000000000000000000000000000000000000000000081526004016110f690611da5565b60405180910390fd5b5f151560075f8473ffffffffffffffffffffffffffffffffffffffff1673ffffffffffffffffffffffffffffffffffffffff1681526020019081526020015f205f9054906101000a900460ff1615151461118e576040517f08c379a000000000000000000000000000000000000000000000000000000000815260040161118590611e0d565b60405180910390fd5b6111998383836112ec565b505050565b5f73ffffffffffffffffffffffffffffffffffffffff168273ffffffffffffffffffffffffffffffffffffffff160361120c576040517f08c379a000000000000000000000000000000000000000000000000000000000815260040161120390611e75565b60405180910390fd5b6112175f8383611558565b8060025f828254611228919061198f565b92505081905550805f808473ffffffffffffffffffffffffffffffffffffffff1673ffffffffffffffffffffffffffffffffffffffff1681526020019081526020015f205f82825401925050819055508173ffffffffffffffffffffffffffffffffffffffff165f73ffffffffffffffffffffffffffffffffffffffff167fddf252ad1be2c89b69c2b068fc378daa952ba7f163c4a11628f55a4df523b3ef836040516112d5919061171d565b60405180910390a36112e85f838361155d565b5050565b5f73ffffffffffffffffffffffffffffffffffffffff168373ffffffffffffffffffffffffffffffffffffffff160361135a576040517f08c379a000000000000000000000000000000000000000000000000000000000815260040161135190611f03565b60405180910390fd5b5f73ffffffffffffffffffffffffffffffffffffffff168273ffffffffffffffffffffffffffffffffffffffff16036113c8576040517f08c379a00000000000000000000000000000000000000000000000000000000081526004016113bf90611f91565b60405180910390fd5b6113d3838383611558565b5f805f8573ffffffffffffffffffffffffffffffffffffffff1673ffffffffffffffffffffffffffffffffffffffff1681526020019081526020015f2054905081811015611456576040517f08c379a000000000000000000000000000000000000000000000000000000000815260040161144d9061201f565b60405180910390fd5b8181035f808673ffffffffffffffffffffffffffffffffffffffff1673ffffffffffffffffffffffffffffffffffffffff1681526020019081526020015f2081905550815f808573ffffffffffffffffffffffffffffffffffffffff1673ffffffffffffffffffffffffffffffffffffffff1681526020019081526020015f205f82825401925050819055508273ffffffffffffffffffffffffffffffffffffffff168473ffffffffffffffffffffffffffffffffffffffff167fddf252ad1be2c89b69c2b068fc378daa952ba7f163c4a11628f55a4df523b3ef8460405161153f919061171d565b60405180910390a361155284848461155d565b50505050565b505050565b505050565b5f81519050919050565b5f82825260208201905092915050565b5f5b8381101561159957808201518184015260208101905061157e565b5f8484015250505050565b5f601f19601f8301169050919050565b5f6115be82611562565b6115c8818561156c565b93506115d881856020860161157c565b6115e1816115a4565b840191505092915050565b5f6020820190508181035f83015261160481846115b4565b905092915050565b5f80fd5b5f73ffffffffffffffffffffffffffffffffffffffff82169050919050565b5f61163982611610565b9050919050565b6116498161162f565b8114611653575f80fd5b50565b5f8135905061166481611640565b92915050565b5f819050919050565b61167c8161166a565b8114611686575f80fd5b50565b5f8135905061169781611673565b92915050565b5f80604083850312156116b3576116b261160c565b5b5f6116c085828601611656565b92505060206116d185828601611689565b9150509250929050565b5f8115159050919050565b6116ef816116db565b82525050565b5f6020820190506117085f8301846116e6565b92915050565b6117178161166a565b82525050565b5f6020820190506117305f83018461170e565b92915050565b5f6020828403121561174b5761174a61160c565b5b5f61175884828501611656565b91505092915050565b5f805f606084860312156117785761177761160c565b5b5f61178586828701611656565b935050602061179686828701611656565b92505060406117a786828701611689565b9150509250925092565b5f60ff82169050919050565b6117c6816117b1565b82525050565b5f6020820190506117df5f8301846117bd565b92915050565b5f602082840312156117fa576117f961160c565b5b5f61180784828501611689565b91505092915050565b6118198161162f565b82525050565b5f6020820190506118325f830184611810565b92915050565b5f806040838503121561184e5761184d61160c565b5b5f61185b85828601611656565b925050602061186c85828601611656565b9150509250929050565b7f4e487b71000000000000000000000000000000000000000000000000000000005f52602260045260245ffd5b5f60028204905060018216806118ba57607f821691505b6020821081036118cd576118cc611876565b5b50919050565b7f6e6f7420636f6e74726f6c6c696e6720706172747900000000000000000000005f82015250565b5f61190760158361156c565b9150611912826118d3565b602082019050919050565b5f6020820190508181035f830152611934816118fb565b9050919050565b5f60408201905061194e5f830185611810565b61195b6020830184611810565b9392505050565b7f4e487b71000000000000000000000000000000000000000000000000000000005f52601160045260245ffd5b5f6119998261166a565b91506119a48361166a565b92508282019050808211156119bc576119bb611962565b5b92915050565b5f6040820190506119d55f83018561170e565b6119e2602083018461170e565b9392505050565b7f45524332303a2064656372656173656420616c6c6f77616e63652062656c6f775f8201527f207a65726f000000000000000000000000000000000000000000000000000000602082015250565b5f611a4360258361156c565b9150611a4e826119e9565b604082019050919050565b5f6020820190508181035f830152611a7081611a37565b9050919050565b7f7573657220697320626c61636b6c6973746564000000000000000000000000005f82015250565b5f611aab60138361156c565b9150611ab682611a77565b602082019050919050565b5f6020820190508181035f830152611ad881611a9f565b9050919050565b5f611ae98261166a565b9150611af48361166a565b9250828202611b028161166a565b91508282048414831517611b1957611b18611962565b5b5092915050565b5f611b2a8261166a565b9150611b358361166a565b9250828203905081811115611b4d57611b4c611962565b5b92915050565b7f4e487b71000000000000000000000000000000000000000000000000000000005f52601260045260245ffd5b5f611b8a8261166a565b9150611b958361166a565b925082611ba557611ba4611b53565b5b828204905092915050565b5f604082019050611bc35f830185611810565b611bd0602083018461170e565b9392505050565b7f45524332303a20617070726f76652066726f6d20746865207a65726f206164645f8201527f7265737300000000000000000000000000000000000000000000000000000000602082015250565b5f611c3160248361156c565b9150611c3c82611bd7565b604082019050919050565b5f6020820190508181035f830152611c5e81611c25565b9050919050565b7f45524332303a20617070726f766520746f20746865207a65726f2061646472655f8201527f7373000000000000000000000000000000000000000000000000000000000000602082015250565b5f611cbf60228361156c565b9150611cca82611c65565b604082019050919050565b5f6020820190508181035f830152611cec81611cb3565b9050919050565b7f45524332303a20696e73756666696369656e7420616c6c6f77616e63650000005f82015250565b5f611d27601d8361156c565b9150611d3282611cf3565b602082019050919050565b5f6020820190508181035f830152611d5481611d1b565b9050919050565b7f66726f6d207573657220697320626c61636b6c697374656400000000000000005f82015250565b5f611d8f60188361156c565b9150611d9a82611d5b565b602082019050919050565b5f6020820190508181035f830152611dbc81611d83565b9050919050565b7f746f207573657220697320626c61636b6c6973746564000000000000000000005f82015250565b5f611df760168361156c565b9150611e0282611dc3565b602082019050919050565b5f6020820190508181035f830152611e2481611deb565b9050919050565b7f45524332303a206d696e7420746f20746865207a65726f2061646472657373005f82015250565b5f611e5f601f8361156c565b9150611e6a82611e2b565b602082019050919050565b5f6020820190508181035f830152611e8c81611e53565b9050919050565b7f45524332303a207472616e736665722066726f6d20746865207a65726f2061645f8201527f6472657373000000000000000000000000000000000000000000000000000000602082015250565b5f611eed60258361156c565b9150611ef882611e93565b604082019050919050565b5f6020820190508181035f830152611f1a81611ee1565b9050919050565b7f45524332303a207472616e7366657220746f20746865207a65726f20616464725f8201527f6573730000000000000000000000000000000000000000000000000000000000602082015250565b5f611f7b60238361156c565b9150611f8682611f21565b604082019050919050565b5f6020820190508181035f830152611fa881611f6f565b9050919050565b7f45524332303a207472616e7366657220616d6f756e74206578636565647320625f8201527f616c616e63650000000000000000000000000000000000000000000000000000602082015250565b5f61200960268361156c565b915061201482611faf565b604082019050919050565b5f6020820190508181035f83015261203681611ffd565b905091905056fea264697066735822122060b8dfb10ab99d5d94739278c7b022ebfdef786f47e71c4cefa0fef0982ffa7164736f6c63430008140033",
					"opcodes": "PUSH1 0x80 PUSH1 0x40 MSTORE PUSH2 0x1F4 PUSH1 0x6 SSTORE CALLVALUE DUP1 ISZERO PUSH3 0x16 JUMPI PUSH0 DUP1 REVERT JUMPDEST POP PUSH1 0x40 MLOAD PUSH3 0x284A CODESIZE SUB DUP1 PUSH3 0x284A DUP4 CODECOPY DUP2 DUP2 ADD PUSH1 0x40 MSTORE DUP2 ADD SWAP1 PUSH3 0x3C SWAP2 SWAP1 PUSH3 0x334 JUMP JUMPDEST PUSH1 0x40 MLOAD DUP1 PUSH1 0x40 ADD PUSH1 0x40 MSTORE DUP1 PUSH1 0x1D DUP2 MSTORE PUSH1 0x20 ADD PUSH32 0x43656E7472616C2062616E6B206469676974616C2063757272656E6379000000 DUP2 MSTORE POP PUSH1 0x40 MLOAD DUP1 PUSH1 0x40 ADD PUSH1 0x40 MSTORE DUP1 PUSH1 0x4 DUP2 MSTORE PUSH1 0x20 ADD PUSH32 0x4342444300000000000000000000000000000000000000000000000000000000 DUP2 MSTORE POP DUP2 PUSH1 0x3 SWAP1 DUP2 PUSH3 0xB9 SWAP2 SWAP1 PUSH3 0x5D4 JUMP JUMPDEST POP DUP1 PUSH1 0x4 SWAP1 DUP2 PUSH3 0xCB SWAP2 SWAP1 PUSH3 0x5D4 JUMP JUMPDEST POP POP POP DUP2 PUSH1 0x5 PUSH0 PUSH2 0x100 EXP DUP2 SLOAD DUP2 PUSH20 0xFFFFFFFFFFFFFFFFFFFFFFFFFFFFFFFFFFFFFFFF MUL NOT AND SWAP1 DUP4 PUSH20 0xFFFFFFFFFFFFFFFFFFFFFFFFFFFFFFFFFFFFFFFF AND MUL OR SWAP1 SSTORE POP PUSH3 0x120 DUP3 DUP3 PUSH3 0x128 PUSH1 0x20 SHL PUSH1 0x20 SHR JUMP JUMPDEST POP POP PUSH3 0x7C9 JUMP JUMPDEST PUSH0 PUSH20 0xFFFFFFFFFFFFFFFFFFFFFFFFFFFFFFFFFFFFFFFF AND DUP3 PUSH20 0xFFFFFFFFFFFFFFFFFFFFFFFFFFFFFFFFFFFFFFFF AND SUB PUSH3 0x199 JUMPI PUSH1 0x40 MLOAD PUSH32 0x8C379A000000000000000000000000000000000000000000000000000000000 DUP2 MSTORE PUSH1 0x4 ADD PUSH3 0x190 SWAP1 PUSH3 0x716 JUMP JUMPDEST PUSH1 0x40 MLOAD DUP1 SWAP2 SUB SWAP1 REVERT JUMPDEST PUSH3 0x1AC PUSH0 DUP4 DUP4 PUSH3 0x28D PUSH1 0x20 SHL PUSH1 0x20 SHR JUMP JUMPDEST DUP1 PUSH1 0x2 PUSH0 DUP3 DUP3 SLOAD PUSH3 0x1BF SWAP2 SWAP1 PUSH3 0x763 JUMP JUMPDEST SWAP3 POP POP DUP2 SWAP1 SSTORE POP DUP1 PUSH0 DUP1 DUP5 PUSH20 0xFFFFFFFFFFFFFFFFFFFFFFFFFFFFFFFFFFFFFFFF AND PUSH20 0xFFFFFFFFFFFFFFFFFFFFFFFFFFFFFFFFFFFFFFFF AND DUP2 MSTORE PUSH1 0x20 ADD SWAP1 DUP2 MSTORE PUSH1 0x20 ADD PUSH0 KECCAK256 PUSH0 DUP3 DUP3 SLOAD ADD SWAP3 POP POP DUP2 SWAP1 SSTORE POP DUP2 PUSH20 0xFFFFFFFFFFFFFFFFFFFFFFFFFFFFFFFFFFFFFFFF AND PUSH0 PUSH20 0xFFFFFFFFFFFFFFFFFFFFFFFFFFFFFFFFFFFFFFFF AND PUSH32 0xDDF252AD1BE2C89B69C2B068FC378DAA952BA7F163C4A11628F55A4DF523B3EF DUP4 PUSH1 0x40 MLOAD PUSH3 0x26E SWAP2 SWAP1 PUSH3 0x7AE JUMP JUMPDEST PUSH1 0x40 MLOAD DUP1 SWAP2 SUB SWAP1 LOG3 PUSH3 0x289 PUSH0 DUP4 DUP4 PUSH3 0x292 PUSH1 0x20 SHL PUSH1 0x20 SHR JUMP JUMPDEST POP POP JUMP JUMPDEST POP POP POP JUMP JUMPDEST POP POP POP JUMP JUMPDEST PUSH0 DUP1 REVERT JUMPDEST PUSH0 PUSH20 0xFFFFFFFFFFFFFFFFFFFFFFFFFFFFFFFFFFFFFFFF DUP3 AND SWAP1 POP SWAP2 SWAP1 POP JUMP JUMPDEST PUSH0 PUSH3 0x2C6 DUP3 PUSH3 0x29B JUMP JUMPDEST SWAP1 POP SWAP2 SWAP1 POP JUMP JUMPDEST PUSH3 0x2D8 DUP2 PUSH3 0x2BA JUMP JUMPDEST DUP2 EQ PUSH3 0x2E3 JUMPI PUSH0 DUP1 REVERT JUMPDEST POP JUMP JUMPDEST PUSH0 DUP2 MLOAD SWAP1 POP PUSH3 0x2F6 DUP2 PUSH3 0x2CD JUMP JUMPDEST SWAP3 SWAP2 POP POP JUMP JUMPDEST PUSH0 DUP2 SWAP1 POP SWAP2 SWAP1 POP JUMP JUMPDEST PUSH3 0x310 DUP2 PUSH3 0x2FC JUMP JUMPDEST DUP2 EQ PUSH3 0x31B JUMPI PUSH0 DUP1 REVERT JUMPDEST POP JUMP JUMPDEST PUSH0 DUP2 MLOAD SWAP1 POP PUSH3 0x32E DUP2 PUSH3 0x305 JUMP JUMPDEST SWAP3 SWAP2 POP POP JUMP JUMPDEST PUSH0 DUP1 PUSH1 0x40 DUP4 DUP6 SUB SLT ISZERO PUSH3 0x34D JUMPI PUSH3 0x34C PUSH3 0x297 JUMP JUMPDEST JUMPDEST PUSH0 PUSH3 0x35C DUP6 DUP3 DUP7 ADD PUSH3 0x2E6 JUMP JUMPDEST SWAP3 POP POP PUSH1 0x20 PUSH3 0x36F DUP6 DUP3 DUP7 ADD PUSH3 0x31E JUMP JUMPDEST SWAP2 POP POP SWAP3 POP SWAP3 SWAP1 POP JUMP JUMPDEST PUSH0 DUP2 MLOAD SWAP1 POP SWAP2 SWAP1 POP JUMP JUMPDEST PUSH32 0x4E487B7100000000000000000000000000000000000000000000000000000000 PUSH0 MSTORE PUSH1 0x41 PUSH1 0x4 MSTORE PUSH1 0x24 PUSH0 REVERT JUMPDEST PUSH32 0x4E487B7100000000000000000000000000000000000000000000000000000000 PUSH0 MSTORE PUSH1 0x22 PUSH1 0x4 MSTORE PUSH1 0x24 PUSH0 REVERT JUMPDEST PUSH0 PUSH1 0x2 DUP3 DIV SWAP1 POP PUSH1 0x1 DUP3 AND DUP1 PUSH3 0x3F5 JUMPI PUSH1 0x7F DUP3 AND SWAP2 POP JUMPDEST PUSH1 0x20 DUP3 LT DUP2 SUB PUSH3 0x40B JUMPI PUSH3 0x40A PUSH3 0x3B0 JUMP JUMPDEST JUMPDEST POP SWAP2 SWAP1 POP JUMP JUMPDEST PUSH0 DUP2 SWAP1 POP DUP2 PUSH0 MSTORE PUSH1 0x20 PUSH0 KECCAK256 SWAP1 POP SWAP2 SWAP1 POP JUMP JUMPDEST PUSH0 PUSH1 0x20 PUSH1 0x1F DUP4 ADD DIV SWAP1 POP SWAP2 SWAP1 POP JUMP JUMPDEST PUSH0 DUP3 DUP3 SHL SWAP1 POP SWAP3 SWAP2 POP POP JUMP JUMPDEST PUSH0 PUSH1 0x8 DUP4 MUL PUSH3 0x46F PUSH32 0xFFFFFFFFFFFFFFFFFFFFFFFFFFFFFFFFFFFFFFFFFFFFFFFFFFFFFFFFFFFFFFFF DUP3 PUSH3 0x432 JUMP JUMPDEST PUSH3 0x47B DUP7 DUP4 PUSH3 0x432 JUMP JUMPDEST SWAP6 POP DUP1 NOT DUP5 AND SWAP4 POP DUP1 DUP7 AND DUP5 OR SWAP3 POP POP POP SWAP4 SWAP3 POP POP POP JUMP JUMPDEST PUSH0 DUP2 SWAP1 POP SWAP2 SWAP1 POP JUMP JUMPDEST PUSH0 PUSH3 0x4BC PUSH3 0x4B6 PUSH3 0x4B0 DUP5 PUSH3 0x2FC JUMP JUMPDEST PUSH3 0x493 JUMP JUMPDEST PUSH3 0x2FC JUMP JUMPDEST SWAP1 POP SWAP2 SWAP1 POP JUMP JUMPDEST PUSH0 DUP2 SWAP1 POP SWAP2 SWAP1 POP JUMP JUMPDEST PUSH3 0x4D7 DUP4 PUSH3 0x49C JUMP JUMPDEST PUSH3 0x4EF PUSH3 0x4E6 DUP3 PUSH3 0x4C3 JUMP JUMPDEST DUP5 DUP5 SLOAD PUSH3 0x43E JUMP JUMPDEST DUP3 SSTORE POP POP POP POP JUMP JUMPDEST PUSH0 SWAP1 JUMP JUMPDEST PUSH3 0x505 PUSH3 0x4F7 JUMP JUMPDEST PUSH3 0x512 DUP2 DUP5 DUP5 PUSH3 0x4CC JUMP JUMPDEST POP POP POP JUMP JUMPDEST JUMPDEST DUP2 DUP2 LT ISZERO PUSH3 0x539 JUMPI PUSH3 0x52D PUSH0 DUP3 PUSH3 0x4FB JUMP JUMPDEST PUSH1 0x1 DUP2 ADD SWAP1 POP PUSH3 0x518 JUMP JUMPDEST POP POP JUMP JUMPDEST PUSH1 0x1F DUP3 GT ISZERO PUSH3 0x588 JUMPI PUSH3 0x552 DUP2 PUSH3 0x411 JUMP JUMPDEST PUSH3 0x55D DUP5 PUSH3 0x423 JUMP JUMPDEST DUP2 ADD PUSH1 0x20 DUP6 LT ISZERO PUSH3 0x56D JUMPI DUP2 SWAP1 POP JUMPDEST PUSH3 0x585 PUSH3 0x57C DUP6 PUSH3 0x423 JUMP JUMPDEST DUP4 ADD DUP3 PUSH3 0x517 JUMP JUMPDEST POP POP JUMPDEST POP POP POP JUMP JUMPDEST PUSH0 DUP3 DUP3 SHR SWAP1 POP SWAP3 SWAP2 POP POP JUMP JUMPDEST PUSH0 PUSH3 0x5AA PUSH0 NOT DUP5 PUSH1 0x8 MUL PUSH3 0x58D JUMP JUMPDEST NOT DUP1 DUP4 AND SWAP2 POP POP SWAP3 SWAP2 POP POP JUMP JUMPDEST PUSH0 PUSH3 0x5C4 DUP4 DUP4 PUSH3 0x599 JUMP JUMPDEST SWAP2 POP DUP3 PUSH1 0x2 MUL DUP3 OR SWAP1 POP SWAP3 SWAP2 POP POP JUMP JUMPDEST PUSH3 0x5DF DUP3 PUSH3 0x379 JUMP JUMPDEST PUSH8 0xFFFFFFFFFFFFFFFF DUP2 GT ISZERO PUSH3 0x5FB JUMPI PUSH3 0x5FA PUSH3 0x383 JUMP JUMPDEST JUMPDEST PUSH3 0x607 DUP3 SLOAD PUSH3 0x3DD JUMP JUMPDEST PUSH3 0x614 DUP3 DUP3 DUP6 PUSH3 0x53D JUMP JUMPDEST PUSH0 PUSH1 0x20 SWAP1 POP PUSH1 0x1F DUP4 GT PUSH1 0x1 DUP2 EQ PUSH3 0x64A JUMPI PUSH0 DUP5 ISZERO PUSH3 0x635 JUMPI DUP3 DUP8 ADD MLOAD SWAP1 POP JUMPDEST PUSH3 0x641 DUP6 DUP3 PUSH3 0x5B7 JUMP JUMPDEST DUP7 SSTORE POP PUSH3 0x6B0 JUMP JUMPDEST PUSH1 0x1F NOT DUP5 AND PUSH3 0x65A DUP7 PUSH3 0x411 JUMP JUMPDEST PUSH0 JUMPDEST DUP3 DUP2 LT ISZERO PUSH3 0x683 JUMPI DUP5 DUP10 ADD MLOAD DUP3 SSTORE PUSH1 0x1 DUP3 ADD SWAP2 POP PUSH1 0x20 DUP6 ADD SWAP5 POP PUSH1 0x20 DUP2 ADD SWAP1 POP PUSH3 0x65C JUMP JUMPDEST DUP7 DUP4 LT ISZERO PUSH3 0x6A3 JUMPI DUP5 DUP10 ADD MLOAD PUSH3 0x69F PUSH1 0x1F DUP10 AND DUP3 PUSH3 0x599 JUMP JUMPDEST DUP4 SSTORE POP JUMPDEST PUSH1 0x1 PUSH1 0x2 DUP9 MUL ADD DUP9 SSTORE POP POP POP JUMPDEST POP POP POP POP POP POP JUMP JUMPDEST PUSH0 DUP3 DUP3 MSTORE PUSH1 0x20 DUP3 ADD SWAP1 POP SWAP3 SWAP2 POP POP JUMP JUMPDEST PUSH32 0x45524332303A206D696E7420746F20746865207A65726F206164647265737300 PUSH0 DUP3 ADD MSTORE POP JUMP JUMPDEST PUSH0 PUSH3 0x6FE PUSH1 0x1F DUP4 PUSH3 0x6B8 JUMP JUMPDEST SWAP2 POP PUSH3 0x70B DUP3 PUSH3 0x6C8 JUMP JUMPDEST PUSH1 0x20 DUP3 ADD SWAP1 POP SWAP2 SWAP1 POP JUMP JUMPDEST PUSH0 PUSH1 0x20 DUP3 ADD SWAP1 POP DUP2 DUP2 SUB PUSH0 DUP4 ADD MSTORE PUSH3 0x72F DUP2 PUSH3 0x6F0 JUMP JUMPDEST SWAP1 POP SWAP2 SWAP1 POP JUMP JUMPDEST PUSH32 0x4E487B7100000000000000000000000000000000000000000000000000000000 PUSH0 MSTORE PUSH1 0x11 PUSH1 0x4 MSTORE PUSH1 0x24 PUSH0 REVERT JUMPDEST PUSH0 PUSH3 0x76F DUP3 PUSH3 0x2FC JUMP JUMPDEST SWAP2 POP PUSH3 0x77C DUP4 PUSH3 0x2FC JUMP JUMPDEST SWAP3 POP DUP3 DUP3 ADD SWAP1 POP DUP1 DUP3 GT ISZERO PUSH3 0x797 JUMPI PUSH3 0x796 PUSH3 0x736 JUMP JUMPDEST JUMPDEST SWAP3 SWAP2 POP POP JUMP JUMPDEST PUSH3 0x7A8 DUP2 PUSH3 0x2FC JUMP JUMPDEST DUP3 MSTORE POP POP JUMP JUMPDEST PUSH0 PUSH1 0x20 DUP3 ADD SWAP1 POP PUSH3 0x7C3 PUSH0 DUP4 ADD DUP5 PUSH3 0x79D JUMP JUMPDEST SWAP3 SWAP2 POP POP JUMP JUMPDEST PUSH2 0x2073 DUP1 PUSH3 0x7D7 PUSH0 CODECOPY PUSH0 RETURN INVALID PUSH1 0x80 PUSH1 0x40 MSTORE CALLVALUE DUP1 ISZERO PUSH2 0xF JUMPI PUSH0 DUP1 REVERT JUMPDEST POP PUSH1 0x4 CALLDATASIZE LT PUSH2 0x12A JUMPI PUSH0 CALLDATALOAD PUSH1 0xE0 SHR DUP1 PUSH4 0x752A50A6 GT PUSH2 0xAB JUMPI DUP1 PUSH4 0xAB654F18 GT PUSH2 0x6F JUMPI DUP1 PUSH4 0xAB654F18 EQ PUSH2 0x36A JUMPI DUP1 PUSH4 0xB3B2C7BE EQ PUSH2 0x386 JUMPI DUP1 PUSH4 0xDD62ED3E EQ PUSH2 0x390 JUMPI DUP1 PUSH4 0xEB4B734C EQ PUSH2 0x3C0 JUMPI DUP1 PUSH4 0xF9F92BE4 EQ PUSH2 0x3DC JUMPI PUSH2 0x12A JUMP JUMPDEST DUP1 PUSH4 0x752A50A6 EQ PUSH2 0x2B2 JUMPI DUP1 PUSH4 0x91E93EBA EQ PUSH2 0x2CE JUMPI DUP1 PUSH4 0x95D89B41 EQ PUSH2 0x2EC JUMPI DUP1 PUSH4 0xA457C2D7 EQ PUSH2 0x30A JUMPI DUP1 PUSH4 0xA9059CBB EQ PUSH2 0x33A JUMPI PUSH2 0x12A JUMP JUMPDEST DUP1 PUSH4 0x23B872DD GT PUSH2 0xF2 JUMPI DUP1 PUSH4 0x23B872DD EQ PUSH2 0x1E8 JUMPI DUP1 PUSH4 0x2E695608 EQ PUSH2 0x218 JUMPI DUP1 PUSH4 0x313CE567 EQ PUSH2 0x234 JUMPI DUP1 PUSH4 0x39509351 EQ PUSH2 0x252 JUMPI DUP1 PUSH4 0x70A08231 EQ PUSH2 0x282 JUMPI PUSH2 0x12A JUMP JUMPDEST DUP1 PUSH4 0x6FDDE03 EQ PUSH2 0x12E JUMPI DUP1 PUSH4 0x95EA7B3 EQ PUSH2 0x14C JUMPI DUP1 PUSH4 0x18160DDD EQ PUSH2 0x17C JUMPI DUP1 PUSH4 0x2170E472 EQ PUSH2 0x19A JUMPI DUP1 PUSH4 0x2322ABF3 EQ PUSH2 0x1CA JUMPI JUMPDEST PUSH0 DUP1 REVERT JUMPDEST PUSH2 0x136 PUSH2 0x40C JUMP JUMPDEST PUSH1 0x40 MLOAD PUSH2 0x143 SWAP2 SWAP1 PUSH2 0x15EC JUMP JUMPDEST PUSH1 0x40 MLOAD DUP1 SWAP2 SUB SWAP1 RETURN JUMPDEST PUSH2 0x166 PUSH1 0x4 DUP1 CALLDATASIZE SUB DUP2 ADD SWAP1 PUSH2 0x161 SWAP2 SWAP1 PUSH2 0x169D JUMP JUMPDEST PUSH2 0x49C JUMP JUMPDEST PUSH1 0x40 MLOAD PUSH2 0x173 SWAP2 SWAP1 PUSH2 0x16F5 JUMP JUMPDEST PUSH1 0x40 MLOAD DUP1 SWAP2 SUB SWAP1 RETURN JUMPDEST PUSH2 0x184 PUSH2 0x4BE JUMP JUMPDEST PUSH1 0x40 MLOAD PUSH2 0x191 SWAP2 SWAP1 PUSH2 0x171D JUMP JUMPDEST PUSH1 0x40 MLOAD DUP1 SWAP2 SUB SWAP1 RETURN JUMPDEST PUSH2 0x1B4 PUSH1 0x4 DUP1 CALLDATASIZE SUB DUP2 ADD SWAP1 PUSH2 0x1AF SWAP2 SWAP1 PUSH2 0x1736 JUMP JUMPDEST PUSH2 0x4C7 JUMP JUMPDEST PUSH1 0x40 MLOAD PUSH2 0x1C1 SWAP2 SWAP1 PUSH2 0x171D JUMP JUMPDEST PUSH1 0x40 MLOAD DUP1 SWAP2 SUB SWAP1 RETURN JUMPDEST PUSH2 0x1D2 PUSH2 0x4DC JUMP JUMPDEST PUSH1 0x40 MLOAD PUSH2 0x1DF SWAP2 SWAP1 PUSH2 0x171D JUMP JUMPDEST PUSH1 0x40 MLOAD DUP1 SWAP2 SUB SWAP1 RETURN JUMPDEST PUSH2 0x202 PUSH1 0x4 DUP1 CALLDATASIZE SUB DUP2 ADD SWAP1 PUSH2 0x1FD SWAP2 SWAP1 PUSH2 0x1761 JUMP JUMPDEST PUSH2 0x4E2 JUMP JUMPDEST PUSH1 0x40 MLOAD PUSH2 0x20F SWAP2 SWAP1 PUSH2 0x16F5 JUMP JUMPDEST PUSH1 0x40 MLOAD DUP1 SWAP2 SUB SWAP1 RETURN JUMPDEST PUSH2 0x232 PUSH1 0x4 DUP1 CALLDATASIZE SUB DUP2 ADD SWAP1 PUSH2 0x22D SWAP2 SWAP1 PUSH2 0x1736 JUMP JUMPDEST PUSH2 0x510 JUMP JUMPDEST STOP JUMPDEST PUSH2 0x23C PUSH2 0x6B7 JUMP JUMPDEST PUSH1 0x40 MLOAD PUSH2 0x249 SWAP2 SWAP1 PUSH2 0x17CC JUMP JUMPDEST PUSH1 0x40 MLOAD DUP1 SWAP2 SUB SWAP1 RETURN JUMPDEST PUSH2 0x26C PUSH1 0x4 DUP1 CALLDATASIZE SUB DUP2 ADD SWAP1 PUSH2 0x267 SWAP2 SWAP1 PUSH2 0x169D JUMP JUMPDEST PUSH2 0x6BF JUMP JUMPDEST PUSH1 0x40 MLOAD PUSH2 0x279 SWAP2 SWAP1 PUSH2 0x16F5 JUMP JUMPDEST PUSH1 0x40 MLOAD DUP1 SWAP2 SUB SWAP1 RETURN JUMPDEST PUSH2 0x29C PUSH1 0x4 DUP1 CALLDATASIZE SUB DUP2 ADD SWAP1 PUSH2 0x297 SWAP2 SWAP1 PUSH2 0x1736 JUMP JUMPDEST PUSH2 0x6F5 JUMP JUMPDEST PUSH1 0x40 MLOAD PUSH2 0x2A9 SWAP2 SWAP1 PUSH2 0x171D JUMP JUMPDEST PUSH1 0x40 MLOAD DUP1 SWAP2 SUB SWAP1 RETURN JUMPDEST PUSH2 0x2CC PUSH1 0x4 DUP1 CALLDATASIZE SUB DUP2 ADD SWAP1 PUSH2 0x2C7 SWAP2 SWAP1 PUSH2 0x17E5 JUMP JUMPDEST PUSH2 0x73A JUMP JUMPDEST STOP JUMPDEST PUSH2 0x2D6 PUSH2 0x811 JUMP JUMPDEST PUSH1 0x40 MLOAD PUSH2 0x2E3 SWAP2 SWAP1 PUSH2 0x181F JUMP JUMPDEST PUSH1 0x40 MLOAD DUP1 SWAP2 SUB SWAP1 RETURN JUMPDEST PUSH2 0x2F4 PUSH2 0x836 JUMP JUMPDEST PUSH1 0x40 MLOAD PUSH2 0x301 SWAP2 SWAP1 PUSH2 0x15EC JUMP JUMPDEST PUSH1 0x40 MLOAD DUP1 SWAP2 SUB SWAP1 RETURN JUMPDEST PUSH2 0x324 PUSH1 0x4 DUP1 CALLDATASIZE SUB DUP2 ADD SWAP1 PUSH2 0x31F SWAP2 SWAP1 PUSH2 0x169D JUMP JUMPDEST PUSH2 0x8C6 JUMP JUMPDEST PUSH1 0x40 MLOAD PUSH2 0x331 SWAP2 SWAP1 PUSH2 0x16F5 JUMP JUMPDEST PUSH1 0x40 MLOAD DUP1 SWAP2 SUB SWAP1 RETURN JUMPDEST PUSH2 0x354 PUSH1 0x4 DUP1 CALLDATASIZE SUB DUP2 ADD SWAP1 PUSH2 0x34F SWAP2 SWAP1 PUSH2 0x169D JUMP JUMPDEST PUSH2 0x93B JUMP JUMPDEST PUSH1 0x40 MLOAD PUSH2 0x361 SWAP2 SWAP1 PUSH2 0x16F5 JUMP JUMPDEST PUSH1 0x40 MLOAD DUP1 SWAP2 SUB SWAP1 RETURN JUMPDEST PUSH2 0x384 PUSH1 0x4 DUP1 CALLDATASIZE SUB DUP2 ADD SWAP1 PUSH2 0x37F SWAP2 SWAP1 PUSH2 0x17E5 JUMP JUMPDEST PUSH2 0x95D JUMP JUMPDEST STOP JUMPDEST PUSH2 0x38E PUSH2 0xA4E JUMP JUMPDEST STOP JUMPDEST PUSH2 0x3AA PUSH1 0x4 DUP1 CALLDATASIZE SUB DUP2 ADD SWAP1 PUSH2 0x3A5 SWAP2 SWAP1 PUSH2 0x1838 JUMP JUMPDEST PUSH2 0xC01 JUMP JUMPDEST PUSH1 0x40 MLOAD PUSH2 0x3B7 SWAP2 SWAP1 PUSH2 0x171D JUMP JUMPDEST PUSH1 0x40 MLOAD DUP1 SWAP2 SUB SWAP1 RETURN JUMPDEST PUSH2 0x3DA PUSH1 0x4 DUP1 CALLDATASIZE SUB DUP2 ADD SWAP1 PUSH2 0x3D5 SWAP2 SWAP1 PUSH2 0x17E5 JUMP JUMPDEST PUSH2 0xC83 JUMP JUMPDEST STOP JUMPDEST PUSH2 0x3F6 PUSH1 0x4 DUP1 CALLDATASIZE SUB DUP2 ADD SWAP1 PUSH2 0x3F1 SWAP2 SWAP1 PUSH2 0x1736 JUMP JUMPDEST PUSH2 0xDFE JUMP JUMPDEST PUSH1 0x40 MLOAD PUSH2 0x403 SWAP2 SWAP1 PUSH2 0x16F5 JUMP JUMPDEST PUSH1 0x40 MLOAD DUP1 SWAP2 SUB SWAP1 RETURN JUMPDEST PUSH1 0x60 PUSH1 0x3 DUP1 SLOAD PUSH2 0x41B SWAP1 PUSH2 0x18A3 JUMP JUMPDEST DUP1 PUSH1 0x1F ADD PUSH1 0x20 DUP1 SWAP2 DIV MUL PUSH1 0x20 ADD PUSH1 0x40 MLOAD SWAP1 DUP2 ADD PUSH1 0x40 MSTORE DUP1 SWAP3 SWAP2 SWAP1 DUP2 DUP2 MSTORE PUSH1 0x20 ADD DUP3 DUP1 SLOAD PUSH2 0x447 SWAP1 PUSH2 0x18A3 JUMP JUMPDEST DUP1 ISZERO PUSH2 0x492 JUMPI DUP1 PUSH1 0x1F LT PUSH2 0x469 JUMPI PUSH2 0x100 DUP1 DUP4 SLOAD DIV MUL DUP4 MSTORE SWAP2 PUSH1 0x20 ADD SWAP2 PUSH2 0x492 JUMP JUMPDEST DUP3 ADD SWAP2 SWAP1 PUSH0 MSTORE PUSH1 0x20 PUSH0 KECCAK256 SWAP1 JUMPDEST DUP2 SLOAD DUP2 MSTORE SWAP1 PUSH1 0x1 ADD SWAP1 PUSH1 0x20 ADD DUP1 DUP4 GT PUSH2 0x475 JUMPI DUP3 SWAP1 SUB PUSH1 0x1F AND DUP3 ADD SWAP2 JUMPDEST POP POP POP POP POP SWAP1 POP SWAP1 JUMP JUMPDEST PUSH0 DUP1 PUSH2 0x4A6 PUSH2 0xE1B JUMP JUMPDEST SWAP1 POP PUSH2 0x4B3 DUP2 DUP6 DUP6 PUSH2 0xE22 JUMP JUMPDEST PUSH1 0x1 SWAP2 POP POP SWAP3 SWAP2 POP POP JUMP JUMPDEST PUSH0 PUSH1 0x2 SLOAD SWAP1 POP SWAP1 JUMP JUMPDEST PUSH1 0xA PUSH1 0x20 MSTORE DUP1 PUSH0 MSTORE PUSH1 0x40 PUSH0 KECCAK256 PUSH0 SWAP2 POP SWAP1 POP SLOAD DUP2 JUMP JUMPDEST PUSH1 0x6 SLOAD DUP2 JUMP JUMPDEST PUSH0 DUP1 PUSH2 0x4EC PUSH2 0xE1B JUMP JUMPDEST SWAP1 POP PUSH2 0x4F9 DUP6 DUP3 DUP6 PUSH2 0xFE5 JUMP JUMPDEST PUSH2 0x504 DUP6 DUP6 DUP6 PUSH2 0x1070 JUMP JUMPDEST PUSH1 0x1 SWAP2 POP POP SWAP4 SWAP3 POP POP POP JUMP JUMPDEST PUSH1 0x5 PUSH0 SWAP1 SLOAD SWAP1 PUSH2 0x100 EXP SWAP1 DIV PUSH20 0xFFFFFFFFFFFFFFFFFFFFFFFFFFFFFFFFFFFFFFFF AND PUSH20 0xFFFFFFFFFFFFFFFFFFFFFFFFFFFFFFFFFFFFFFFF AND CALLER PUSH20 0xFFFFFFFFFFFFFFFFFFFFFFFFFFFFFFFFFFFFFFFF AND EQ PUSH2 0x59F JUMPI PUSH1 0x40 MLOAD PUSH32 0x8C379A000000000000000000000000000000000000000000000000000000000 DUP2 MSTORE PUSH1 0x4 ADD PUSH2 0x596 SWAP1 PUSH2 0x191D JUMP JUMPDEST PUSH1 0x40 MLOAD DUP1 SWAP2 SUB SWAP1 REVERT JUMPDEST PUSH0 PUSH1 0x5 PUSH0 SWAP1 SLOAD SWAP1 PUSH2 0x100 EXP SWAP1 DIV PUSH20 0xFFFFFFFFFFFFFFFFFFFFFFFFFFFFFFFFFFFFFFFF AND SWAP1 POP DUP2 PUSH1 0x5 PUSH0 PUSH2 0x100 EXP DUP2 SLOAD DUP2 PUSH20 0xFFFFFFFFFFFFFFFFFFFFFFFFFFFFFFFFFFFFFFFF MUL NOT AND SWAP1 DUP4 PUSH20 0xFFFFFFFFFFFFFFFFFFFFFFFFFFFFFFFFFFFFFFFF AND MUL OR SWAP1 SSTORE POP PUSH2 0x659 DUP2 PUSH1 0x5 PUSH0 SWAP1 SLOAD SWAP1 PUSH2 0x100 EXP SWAP1 DIV PUSH20 0xFFFFFFFFFFFFFFFFFFFFFFFFFFFFFFFFFFFFFFFF AND PUSH2 0x654 PUSH1 0x5 PUSH0 SWAP1 SLOAD SWAP1 PUSH2 0x100 EXP SWAP1 DIV PUSH20 0xFFFFFFFFFFFFFFFFFFFFFFFFFFFFFFFFFFFFFFFF AND PUSH2 0x6F5 JUMP JUMPDEST PUSH2 0x1070 JUMP JUMPDEST PUSH32 0x5038665C4A66E55F78B514A2AAA8762EBF82E38CE9E1A7FDD1244A0F7A7BCF80 DUP2 PUSH1 0x5 PUSH0 SWAP1 SLOAD SWAP1 PUSH2 0x100 EXP SWAP1 DIV PUSH20 0xFFFFFFFFFFFFFFFFFFFFFFFFFFFFFFFFFFFFFFFF AND PUSH1 0x40 MLOAD PUSH2 0x6AB SWAP3 SWAP2 SWAP1 PUSH2 0x193B JUMP JUMPDEST PUSH1 0x40 MLOAD DUP1 SWAP2 SUB SWAP1 LOG1 POP POP JUMP JUMPDEST PUSH0 PUSH1 0x12 SWAP1 POP SWAP1 JUMP JUMPDEST PUSH0 DUP1 PUSH2 0x6C9 PUSH2 0xE1B JUMP JUMPDEST SWAP1 POP PUSH2 0x6EA DUP2 DUP6 DUP6 PUSH2 0x6DB DUP6 DUP10 PUSH2 0xC01 JUMP JUMPDEST PUSH2 0x6E5 SWAP2 SWAP1 PUSH2 0x198F JUMP JUMPDEST PUSH2 0xE22 JUMP JUMPDEST PUSH1 0x1 SWAP2 POP POP SWAP3 SWAP2 POP POP JUMP JUMPDEST PUSH0 DUP1 PUSH0 DUP4 PUSH20 0xFFFFFFFFFFFFFFFFFFFFFFFFFFFFFFFFFFFFFFFF AND PUSH20 0xFFFFFFFFFFFFFFFFFFFFFFFFFFFFFFFFFFFFFFFF AND DUP2 MSTORE PUSH1 0x20 ADD SWAP1 DUP2 MSTORE PUSH1 0x20 ADD PUSH0 KECCAK256 SLOAD SWAP1 POP SWAP2 SWAP1 POP JUMP JUMPDEST PUSH1 0x5 PUSH0 SWAP1 SLOAD SWAP1 PUSH2 0x100 EXP SWAP1 DIV PUSH20 0xFFFFFFFFFFFFFFFFFFFFFFFFFFFFFFFFFFFFFFFF AND PUSH20 0xFFFFFFFFFFFFFFFFFFFFFFFFFFFFFFFFFFFFFFFF AND CALLER PUSH20 0xFFFFFFFFFFFFFFFFFFFFFFFFFFFFFFFFFFFFFFFF AND EQ PUSH2 0x7C9 JUMPI PUSH1 0x40 MLOAD PUSH32 0x8C379A000000000000000000000000000000000000000000000000000000000 DUP2 MSTORE PUSH1 0x4 ADD PUSH2 0x7C0 SWAP1 PUSH2 0x191D JUMP JUMPDEST PUSH1 0x40 MLOAD DUP1 SWAP2 SUB SWAP1 REVERT JUMPDEST PUSH0 DUP2 SWAP1 POP DUP2 PUSH1 0x6 DUP2 SWAP1 SSTORE POP PUSH32 0x2463616EF8E6F9BDDF00E4964B853AD9050F87CD3C73985D2EE6B6C8A8336991 DUP2 DUP4 PUSH1 0x40 MLOAD PUSH2 0x805 SWAP3 SWAP2 SWAP1 PUSH2 0x19C2 JUMP JUMPDEST PUSH1 0x40 MLOAD DUP1 SWAP2 SUB SWAP1 LOG1 POP POP JUMP JUMPDEST PUSH1 0x5 PUSH0 SWAP1 SLOAD SWAP1 PUSH2 0x100 EXP SWAP1 DIV PUSH20 0xFFFFFFFFFFFFFFFFFFFFFFFFFFFFFFFFFFFFFFFF AND DUP2 JUMP JUMPDEST PUSH1 0x60 PUSH1 0x4 DUP1 SLOAD PUSH2 0x845 SWAP1 PUSH2 0x18A3 JUMP JUMPDEST DUP1 PUSH1 0x1F ADD PUSH1 0x20 DUP1 SWAP2 DIV MUL PUSH1 0x20 ADD PUSH1 0x40 MLOAD SWAP1 DUP2 ADD PUSH1 0x40 MSTORE DUP1 SWAP3 SWAP2 SWAP1 DUP2 DUP2 MSTORE PUSH1 0x20 ADD DUP3 DUP1 SLOAD PUSH2 0x871 SWAP1 PUSH2 0x18A3 JUMP JUMPDEST DUP1 ISZERO PUSH2 0x8BC JUMPI DUP1 PUSH1 0x1F LT PUSH2 0x893 JUMPI PUSH2 0x100 DUP1 DUP4 SLOAD DIV MUL DUP4 MSTORE SWAP2 PUSH1 0x20 ADD SWAP2 PUSH2 0x8BC JUMP JUMPDEST DUP3 ADD SWAP2 SWAP1 PUSH0 MSTORE PUSH1 0x20 PUSH0 KECCAK256 SWAP1 JUMPDEST DUP2 SLOAD DUP2 MSTORE SWAP1 PUSH1 0x1 ADD SWAP1 PUSH1 0x20 ADD DUP1 DUP4 GT PUSH2 0x89F JUMPI DUP3 SWAP1 SUB PUSH1 0x1F AND DUP3 ADD SWAP2 JUMPDEST POP POP POP POP POP SWAP1 POP SWAP1 JUMP JUMPDEST PUSH0 DUP1 PUSH2 0x8D0 PUSH2 0xE1B JUMP JUMPDEST SWAP1 POP PUSH0 PUSH2 0x8DD DUP3 DUP7 PUSH2 0xC01 JUMP JUMPDEST SWAP1 POP DUP4 DUP2 LT ISZERO PUSH2 0x922 JUMPI PUSH1 0x40 MLOAD PUSH32 0x8C379A000000000000000000000000000000000000000000000000000000000 DUP2 MSTORE PUSH1 0x4 ADD PUSH2 0x919 SWAP1 PUSH2 0x1A59 JUMP JUMPDEST PUSH1 0x40 MLOAD DUP1 SWAP2 SUB SWAP1 REVERT JUMPDEST PUSH2 0x92F DUP3 DUP7 DUP7 DUP5 SUB PUSH2 0xE22 JUMP JUMPDEST PUSH1 0x1 SWAP3 POP POP POP SWAP3 SWAP2 POP POP JUMP JUMPDEST PUSH0 DUP1 PUSH2 0x945 PUSH2 0xE1B JUMP JUMPDEST SWAP1 POP PUSH2 0x952 DUP2 DUP6 DUP6 PUSH2 0x1070 JUMP JUMPDEST PUSH1 0x1 SWAP2 POP POP SWAP3 SWAP2 POP POP JUMP JUMPDEST PUSH1 0x5 PUSH0 SWAP1 SLOAD SWAP1 PUSH2 0x100 EXP SWAP1 DIV PUSH20 0xFFFFFFFFFFFFFFFFFFFFFFFFFFFFFFFFFFFFFFFF AND PUSH20 0xFFFFFFFFFFFFFFFFFFFFFFFFFFFFFFFFFFFFFFFF AND CALLER PUSH20 0xFFFFFFFFFFFFFFFFFFFFFFFFFFFFFFFFFFFFFFFF AND EQ PUSH2 0x9EC JUMPI PUSH1 0x40 MLOAD PUSH32 0x8C379A000000000000000000000000000000000000000000000000000000000 DUP2 MSTORE PUSH1 0x4 ADD PUSH2 0x9E3 SWAP1 PUSH2 0x191D JUMP JUMPDEST PUSH1 0x40 MLOAD DUP1 SWAP2 SUB SWAP1 REVERT JUMPDEST PUSH0 PUSH2 0x9F5 PUSH2 0x4BE JUMP JUMPDEST SWAP1 POP PUSH0 DUP3 DUP3 PUSH2 0xA04 SWAP2 SWAP1 PUSH2 0x198F JUMP JUMPDEST SWAP1 POP PUSH2 0xA10 CALLER DUP5 PUSH2 0x119E JUMP JUMPDEST PUSH32 0x1EAE947F873CC2FF225279BD5857407F58A2FC227D473CC51AE673401CFFB235 DUP3 DUP3 PUSH1 0x40 MLOAD PUSH2 0xA41 SWAP3 SWAP2 SWAP1 PUSH2 0x19C2 JUMP JUMPDEST PUSH1 0x40 MLOAD DUP1 SWAP2 SUB SWAP1 LOG1 POP POP POP JUMP JUMPDEST PUSH0 ISZERO ISZERO PUSH1 0x7 PUSH0 CALLER PUSH20 0xFFFFFFFFFFFFFFFFFFFFFFFFFFFFFFFFFFFFFFFF AND PUSH20 0xFFFFFFFFFFFFFFFFFFFFFFFFFFFFFFFFFFFFFFFF AND DUP2 MSTORE PUSH1 0x20 ADD SWAP1 DUP2 MSTORE PUSH1 0x20 ADD PUSH0 KECCAK256 PUSH0 SWAP1 SLOAD SWAP1 PUSH2 0x100 EXP SWAP1 DIV PUSH1 0xFF AND ISZERO ISZERO EQ PUSH2 0xADD JUMPI PUSH1 0x40 MLOAD PUSH32 0x8C379A000000000000000000000000000000000000000000000000000000000 DUP2 MSTORE PUSH1 0x4 ADD PUSH2 0xAD4 SWAP1 PUSH2 0x1AC1 JUMP JUMPDEST PUSH1 0x40 MLOAD DUP1 SWAP2 SUB SWAP1 REVERT JUMPDEST PUSH0 PUSH4 0x1E13380 PUSH2 0xAEB PUSH2 0x6B7 JUMP JUMPDEST PUSH1 0xFF AND PUSH1 0x6 SLOAD PUSH2 0xAFB SWAP2 SWAP1 PUSH2 0x1ADF JUMP JUMPDEST PUSH1 0xA PUSH0 CALLER PUSH20 0xFFFFFFFFFFFFFFFFFFFFFFFFFFFFFFFFFFFFFFFF AND PUSH20 0xFFFFFFFFFFFFFFFFFFFFFFFFFFFFFFFFFFFFFFFF AND DUP2 MSTORE PUSH1 0x20 ADD SWAP1 DUP2 MSTORE PUSH1 0x20 ADD PUSH0 KECCAK256 SLOAD TIMESTAMP PUSH2 0xB44 SWAP2 SWAP1 PUSH2 0x1B20 JUMP JUMPDEST PUSH2 0xB4E SWAP2 SWAP1 PUSH2 0x1ADF JUMP JUMPDEST PUSH2 0xB58 SWAP2 SWAP1 PUSH2 0x1B80 JUMP JUMPDEST SWAP1 POP PUSH0 DUP2 PUSH1 0x8 PUSH0 CALLER PUSH20 0xFFFFFFFFFFFFFFFFFFFFFFFFFFFFFFFFFFFFFFFF AND PUSH20 0xFFFFFFFFFFFFFFFFFFFFFFFFFFFFFFFFFFFFFFFF AND DUP2 MSTORE PUSH1 0x20 ADD SWAP1 DUP2 MSTORE PUSH1 0x20 ADD PUSH0 KECCAK256 SLOAD PUSH2 0xBA4 SWAP2 SWAP1 PUSH2 0x198F JUMP JUMPDEST SWAP1 POP PUSH2 0xBD1 PUSH1 0x5 PUSH0 SWAP1 SLOAD SWAP1 PUSH2 0x100 EXP SWAP1 DIV PUSH20 0xFFFFFFFFFFFFFFFFFFFFFFFFFFFFFFFFFFFFFFFF AND DUP4 PUSH2 0x119E JUMP JUMPDEST PUSH2 0xBFD PUSH1 0x5 PUSH0 SWAP1 SLOAD SWAP1 PUSH2 0x100 EXP SWAP1 DIV PUSH20 0xFFFFFFFFFFFFFFFFFFFFFFFFFFFFFFFFFFFFFFFF AND CALLER DUP4 PUSH2 0x12EC JUMP JUMPDEST POP POP JUMP JUMPDEST PUSH0 PUSH1 0x1 PUSH0 DUP5 PUSH20 0xFFFFFFFFFFFFFFFFFFFFFFFFFFFFFFFFFFFFFFFF AND PUSH20 0xFFFFFFFFFFFFFFFFFFFFFFFFFFFFFFFFFFFFFFFF AND DUP2 MSTORE PUSH1 0x20 ADD SWAP1 DUP2 MSTORE PUSH1 0x20 ADD PUSH0 KECCAK256 PUSH0 DUP4 PUSH20 0xFFFFFFFFFFFFFFFFFFFFFFFFFFFFFFFFFFFFFFFF AND PUSH20 0xFFFFFFFFFFFFFFFFFFFFFFFFFFFFFFFFFFFFFFFF AND DUP2 MSTORE PUSH1 0x20 ADD SWAP1 DUP2 MSTORE PUSH1 0x20 ADD PUSH0 KECCAK256 SLOAD SWAP1 POP SWAP3 SWAP2 POP POP JUMP JUMPDEST PUSH0 ISZERO ISZERO PUSH1 0x7 PUSH0 CALLER PUSH20 0xFFFFFFFFFFFFFFFFFFFFFFFFFFFFFFFFFFFFFFFF AND PUSH20 0xFFFFFFFFFFFFFFFFFFFFFFFFFFFFFFFFFFFFFFFF AND DUP2 MSTORE PUSH1 0x20 ADD SWAP1 DUP2 MSTORE PUSH1 0x20 ADD PUSH0 KECCAK256 PUSH0 SWAP1 SLOAD SWAP1 PUSH2 0x100 EXP SWAP1 DIV PUSH1 0xFF AND ISZERO ISZERO EQ PUSH2 0xD12 JUMPI PUSH1 0x40 MLOAD PUSH32 0x8C379A000000000000000000000000000000000000000000000000000000000 DUP2 MSTORE PUSH1 0x4 ADD PUSH2 0xD09 SWAP1 PUSH2 0x1AC1 JUMP JUMPDEST PUSH1 0x40 MLOAD DUP1 SWAP2 SUB SWAP1 REVERT JUMPDEST PUSH2 0xD3E CALLER PUSH1 0x5 PUSH0 SWAP1 SLOAD SWAP1 PUSH2 0x100 EXP SWAP1 DIV PUSH20 0xFFFFFFFFFFFFFFFFFFFFFFFFFFFFFFFFFFFFFFFF AND DUP4 PUSH2 0x12EC JUMP JUMPDEST TIMESTAMP PUSH1 0xA PUSH0 CALLER PUSH20 0xFFFFFFFFFFFFFFFFFFFFFFFFFFFFFFFFFFFFFFFF AND PUSH20 0xFFFFFFFFFFFFFFFFFFFFFFFFFFFFFFFFFFFFFFFF AND DUP2 MSTORE PUSH1 0x20 ADD SWAP1 DUP2 MSTORE PUSH1 0x20 ADD PUSH0 KECCAK256 DUP2 SWAP1 SSTORE POP DUP1 PUSH1 0x8 PUSH0 CALLER PUSH20 0xFFFFFFFFFFFFFFFFFFFFFFFFFFFFFFFFFFFFFFFF AND PUSH20 0xFFFFFFFFFFFFFFFFFFFFFFFFFFFFFFFFFFFFFFFF AND DUP2 MSTORE PUSH1 0x20 ADD SWAP1 DUP2 MSTORE PUSH1 0x20 ADD PUSH0 KECCAK256 DUP2 SWAP1 SSTORE POP PUSH32 0x342D50A3049B2F1AB9AC3EB2DDD6750E7ED19269BCB3BA7E75ED4D1C342E15A4 CALLER DUP3 PUSH1 0x40 MLOAD PUSH2 0xDF3 SWAP3 SWAP2 SWAP1 PUSH2 0x1BB0 JUMP JUMPDEST PUSH1 0x40 MLOAD DUP1 SWAP2 SUB SWAP1 LOG1 POP JUMP JUMPDEST PUSH1 0x7 PUSH1 0x20 MSTORE DUP1 PUSH0 MSTORE PUSH1 0x40 PUSH0 KECCAK256 PUSH0 SWAP2 POP SLOAD SWAP1 PUSH2 0x100 EXP SWAP1 DIV PUSH1 0xFF AND DUP2 JUMP JUMPDEST PUSH0 CALLER SWAP1 POP SWAP1 JUMP JUMPDEST PUSH0 PUSH20 0xFFFFFFFFFFFFFFFFFFFFFFFFFFFFFFFFFFFFFFFF AND DUP4 PUSH20 0xFFFFFFFFFFFFFFFFFFFFFFFFFFFFFFFFFFFFFFFF AND SUB PUSH2 0xE90 JUMPI PUSH1 0x40 MLOAD PUSH32 0x8C379A000000000000000000000000000000000000000000000000000000000 DUP2 MSTORE PUSH1 0x4 ADD PUSH2 0xE87 SWAP1 PUSH2 0x1C47 JUMP JUMPDEST PUSH1 0x40 MLOAD DUP1 SWAP2 SUB SWAP1 REVERT JUMPDEST PUSH0 PUSH20 0xFFFFFFFFFFFFFFFFFFFFFFFFFFFFFFFFFFFFFFFF AND DUP3 PUSH20 0xFFFFFFFFFFFFFFFFFFFFFFFFFFFFFFFFFFFFFFFF AND SUB PUSH2 0xEFE JUMPI PUSH1 0x40 MLOAD PUSH32 0x8C379A000000000000000000000000000000000000000000000000000000000 DUP2 MSTORE PUSH1 0x4 ADD PUSH2 0xEF5 SWAP1 PUSH2 0x1CD5 JUMP JUMPDEST PUSH1 0x40 MLOAD DUP1 SWAP2 SUB SWAP1 REVERT JUMPDEST DUP1 PUSH1 0x1 PUSH0 DUP6 PUSH20 0xFFFFFFFFFFFFFFFFFFFFFFFFFFFFFFFFFFFFFFFF AND PUSH20 0xFFFFFFFFFFFFFFFFFFFFFFFFFFFFFFFFFFFFFFFF AND DUP2 MSTORE PUSH1 0x20 ADD SWAP1 DUP2 MSTORE PUSH1 0x20 ADD PUSH0 KECCAK256 PUSH0 DUP5 PUSH20 0xFFFFFFFFFFFFFFFFFFFFFFFFFFFFFFFFFFFFFFFF AND PUSH20 0xFFFFFFFFFFFFFFFFFFFFFFFFFFFFFFFFFFFFFFFF AND DUP2 MSTORE PUSH1 0x20 ADD SWAP1 DUP2 MSTORE PUSH1 0x20 ADD PUSH0 KECCAK256 DUP2 SWAP1 SSTORE POP DUP2 PUSH20 0xFFFFFFFFFFFFFFFFFFFFFFFFFFFFFFFFFFFFFFFF AND DUP4 PUSH20 0xFFFFFFFFFFFFFFFFFFFFFFFFFFFFFFFFFFFFFFFF AND PUSH32 0x8C5BE1E5EBEC7D5BD14F71427D1E84F3DD0314C0F7B2291E5B200AC8C7C3B925 DUP4 PUSH1 0x40 MLOAD PUSH2 0xFD8 SWAP2 SWAP1 PUSH2 0x171D JUMP JUMPDEST PUSH1 0x40 MLOAD DUP1 SWAP2 SUB SWAP1 LOG3 POP POP POP JUMP JUMPDEST PUSH0 PUSH2 0xFF0 DUP5 DUP5 PUSH2 0xC01 JUMP JUMPDEST SWAP1 POP PUSH32 0xFFFFFFFFFFFFFFFFFFFFFFFFFFFFFFFFFFFFFFFFFFFFFFFFFFFFFFFFFFFFFFFF DUP2 EQ PUSH2 0x106A JUMPI DUP2 DUP2 LT ISZERO PUSH2 0x105C JUMPI PUSH1 0x40 MLOAD PUSH32 0x8C379A000000000000000000000000000000000000000000000000000000000 DUP2 MSTORE PUSH1 0x4 ADD PUSH2 0x1053 SWAP1 PUSH2 0x1D3D JUMP JUMPDEST PUSH1 0x40 MLOAD DUP1 SWAP2 SUB SWAP1 REVERT JUMPDEST PUSH2 0x1069 DUP5 DUP5 DUP5 DUP5 SUB PUSH2 0xE22 JUMP JUMPDEST JUMPDEST POP POP POP POP JUMP JUMPDEST PUSH0 ISZERO ISZERO PUSH1 0x7 PUSH0 DUP6 PUSH20 0xFFFFFFFFFFFFFFFFFFFFFFFFFFFFFFFFFFFFFFFF AND PUSH20 0xFFFFFFFFFFFFFFFFFFFFFFFFFFFFFFFFFFFFFFFF AND DUP2 MSTORE PUSH1 0x20 ADD SWAP1 DUP2 MSTORE PUSH1 0x20 ADD PUSH0 KECCAK256 PUSH0 SWAP1 SLOAD SWAP1 PUSH2 0x100 EXP SWAP1 DIV PUSH1 0xFF AND ISZERO ISZERO EQ PUSH2 0x10FF JUMPI PUSH1 0x40 MLOAD PUSH32 0x8C379A000000000000000000000000000000000000000000000000000000000 DUP2 MSTORE PUSH1 0x4 ADD PUSH2 0x10F6 SWAP1 PUSH2 0x1DA5 JUMP JUMPDEST PUSH1 0x40 MLOAD DUP1 SWAP2 SUB SWAP1 REVERT JUMPDEST PUSH0 ISZERO ISZERO PUSH1 0x7 PUSH0 DUP5 PUSH20 0xFFFFFFFFFFFFFFFFFFFFFFFFFFFFFFFFFFFFFFFF AND PUSH20 0xFFFFFFFFFFFFFFFFFFFFFFFFFFFFFFFFFFFFFFFF AND DUP2 MSTORE PUSH1 0x20 ADD SWAP1 DUP2 MSTORE PUSH1 0x20 ADD PUSH0 KECCAK256 PUSH0 SWAP1 SLOAD SWAP1 PUSH2 0x100 EXP SWAP1 DIV PUSH1 0xFF AND ISZERO ISZERO EQ PUSH2 0x118E JUMPI PUSH1 0x40 MLOAD PUSH32 0x8C379A000000000000000000000000000000000000000000000000000000000 DUP2 MSTORE PUSH1 0x4 ADD PUSH2 0x1185 SWAP1 PUSH2 0x1E0D JUMP JUMPDEST PUSH1 0x40 MLOAD DUP1 SWAP2 SUB SWAP1 REVERT JUMPDEST PUSH2 0x1199 DUP4 DUP4 DUP4 PUSH2 0x12EC JUMP JUMPDEST POP POP POP JUMP JUMPDEST PUSH0 PUSH20 0xFFFFFFFFFFFFFFFFFFFFFFFFFFFFFFFFFFFFFFFF AND DUP3 PUSH20 0xFFFFFFFFFFFFFFFFFFFFFFFFFFFFFFFFFFFFFFFF AND SUB PUSH2 0x120C JUMPI PUSH1 0x40 MLOAD PUSH32 0x8C379A000000000000000000000000000000000000000000000000000000000 DUP2 MSTORE PUSH1 0x4 ADD PUSH2 0x1203 SWAP1 PUSH2 0x1E75 JUMP JUMPDEST PUSH1 0x40 MLOAD DUP1 SWAP2 SUB SWAP1 REVERT JUMPDEST PUSH2 0x1217 PUSH0 DUP4 DUP4 PUSH2 0x1558 JUMP JUMPDEST DUP1 PUSH1 0x2 PUSH0 DUP3 DUP3 SLOAD PUSH2 0x1228 SWAP2 SWAP1 PUSH2 0x198F JUMP JUMPDEST SWAP3 POP POP DUP2 SWAP1 SSTORE POP DUP1 PUSH0 DUP1 DUP5 PUSH20 0xFFFFFFFFFFFFFFFFFFFFFFFFFFFFFFFFFFFFFFFF AND PUSH20 0xFFFFFFFFFFFFFFFFFFFFFFFFFFFFFFFFFFFFFFFF AND DUP2 MSTORE PUSH1 0x20 ADD SWAP1 DUP2 MSTORE PUSH1 0x20 ADD PUSH0 KECCAK256 PUSH0 DUP3 DUP3 SLOAD ADD SWAP3 POP POP DUP2 SWAP1 SSTORE POP DUP2 PUSH20 0xFFFFFFFFFFFFFFFFFFFFFFFFFFFFFFFFFFFFFFFF AND PUSH0 PUSH20 0xFFFFFFFFFFFFFFFFFFFFFFFFFFFFFFFFFFFFFFFF AND PUSH32 0xDDF252AD1BE2C89B69C2B068FC378DAA952BA7F163C4A11628F55A4DF523B3EF DUP4 PUSH1 0x40 MLOAD PUSH2 0x12D5 SWAP2 SWAP1 PUSH2 0x171D JUMP JUMPDEST PUSH1 0x40 MLOAD DUP1 SWAP2 SUB SWAP1 LOG3 PUSH2 0x12E8 PUSH0 DUP4 DUP4 PUSH2 0x155D JUMP JUMPDEST POP POP JUMP JUMPDEST PUSH0 PUSH20 0xFFFFFFFFFFFFFFFFFFFFFFFFFFFFFFFFFFFFFFFF AND DUP4 PUSH20 0xFFFFFFFFFFFFFFFFFFFFFFFFFFFFFFFFFFFFFFFF AND SUB PUSH2 0x135A JUMPI PUSH1 0x40 MLOAD PUSH32 0x8C379A000000000000000000000000000000000000000000000000000000000 DUP2 MSTORE PUSH1 0x4 ADD PUSH2 0x1351 SWAP1 PUSH2 0x1F03 JUMP JUMPDEST PUSH1 0x40 MLOAD DUP1 SWAP2 SUB SWAP1 REVERT JUMPDEST PUSH0 PUSH20 0xFFFFFFFFFFFFFFFFFFFFFFFFFFFFFFFFFFFFFFFF AND DUP3 PUSH20 0xFFFFFFFFFFFFFFFFFFFFFFFFFFFFFFFFFFFFFFFF AND SUB PUSH2 0x13C8 JUMPI PUSH1 0x40 MLOAD PUSH32 0x8C379A000000000000000000000000000000000000000000000000000000000 DUP2 MSTORE PUSH1 0x4 ADD PUSH2 0x13BF SWAP1 PUSH2 0x1F91 JUMP JUMPDEST PUSH1 0x40 MLOAD DUP1 SWAP2 SUB SWAP1 REVERT JUMPDEST PUSH2 0x13D3 DUP4 DUP4 DUP4 PUSH2 0x1558 JUMP JUMPDEST PUSH0 DUP1 PUSH0 DUP6 PUSH20 0xFFFFFFFFFFFFFFFFFFFFFFFFFFFFFFFFFFFFFFFF AND PUSH20 0xFFFFFFFFFFFFFFFFFFFFFFFFFFFFFFFFFFFFFFFF AND DUP2 MSTORE PUSH1 0x20 ADD SWAP1 DUP2 MSTORE PUSH1 0x20 ADD PUSH0 KECCAK256 SLOAD SWAP1 POP DUP2 DUP2 LT ISZERO PUSH2 0x1456 JUMPI PUSH1 0x40 MLOAD PUSH32 0x8C379A000000000000000000000000000000000000000000000000000000000 DUP2 MSTORE PUSH1 0x4 ADD PUSH2 0x144D SWAP1 PUSH2 0x201F JUMP JUMPDEST PUSH1 0x40 MLOAD DUP1 SWAP2 SUB SWAP1 REVERT JUMPDEST DUP2 DUP2 SUB PUSH0 DUP1 DUP7 PUSH20 0xFFFFFFFFFFFFFFFFFFFFFFFFFFFFFFFFFFFFFFFF AND PUSH20 0xFFFFFFFFFFFFFFFFFFFFFFFFFFFFFFFFFFFFFFFF AND DUP2 MSTORE PUSH1 0x20 ADD SWAP1 DUP2 MSTORE PUSH1 0x20 ADD PUSH0 KECCAK256 DUP2 SWAP1 SSTORE POP DUP2 PUSH0 DUP1 DUP6 PUSH20 0xFFFFFFFFFFFFFFFFFFFFFFFFFFFFFFFFFFFFFFFF AND PUSH20 0xFFFFFFFFFFFFFFFFFFFFFFFFFFFFFFFFFFFFFFFF AND DUP2 MSTORE PUSH1 0x20 ADD SWAP1 DUP2 MSTORE PUSH1 0x20 ADD PUSH0 KECCAK256 PUSH0 DUP3 DUP3 SLOAD ADD SWAP3 POP POP DUP2 SWAP1 SSTORE POP DUP3 PUSH20 0xFFFFFFFFFFFFFFFFFFFFFFFFFFFFFFFFFFFFFFFF AND DUP5 PUSH20 0xFFFFFFFFFFFFFFFFFFFFFFFFFFFFFFFFFFFFFFFF AND PUSH32 0xDDF252AD1BE2C89B69C2B068FC378DAA952BA7F163C4A11628F55A4DF523B3EF DUP5 PUSH1 0x40 MLOAD PUSH2 0x153F SWAP2 SWAP1 PUSH2 0x171D JUMP JUMPDEST PUSH1 0x40 MLOAD DUP1 SWAP2 SUB SWAP1 LOG3 PUSH2 0x1552 DUP5 DUP5 DUP5 PUSH2 0x155D JUMP JUMPDEST POP POP POP POP JUMP JUMPDEST POP POP POP JUMP JUMPDEST POP POP POP JUMP JUMPDEST PUSH0 DUP2 MLOAD SWAP1 POP SWAP2 SWAP1 POP JUMP JUMPDEST PUSH0 DUP3 DUP3 MSTORE PUSH1 0x20 DUP3 ADD SWAP1 POP SWAP3 SWAP2 POP POP JUMP JUMPDEST PUSH0 JUMPDEST DUP4 DUP2 LT ISZERO PUSH2 0x1599 JUMPI DUP1 DUP3 ADD MLOAD DUP2 DUP5 ADD MSTORE PUSH1 0x20 DUP2 ADD SWAP1 POP PUSH2 0x157E JUMP JUMPDEST PUSH0 DUP5 DUP5 ADD MSTORE POP POP POP POP JUMP JUMPDEST PUSH0 PUSH1 0x1F NOT PUSH1 0x1F DUP4 ADD AND SWAP1 POP SWAP2 SWAP1 POP JUMP JUMPDEST PUSH0 PUSH2 0x15BE DUP3 PUSH2 0x1562 JUMP JUMPDEST PUSH2 0x15C8 DUP2 DUP6 PUSH2 0x156C JUMP JUMPDEST SWAP4 POP PUSH2 0x15D8 DUP2 DUP6 PUSH1 0x20 DUP7 ADD PUSH2 0x157C JUMP JUMPDEST PUSH2 0x15E1 DUP2 PUSH2 0x15A4 JUMP JUMPDEST DUP5 ADD SWAP2 POP POP SWAP3 SWAP2 POP POP JUMP JUMPDEST PUSH0 PUSH1 0x20 DUP3 ADD SWAP1 POP DUP2 DUP2 SUB PUSH0 DUP4 ADD MSTORE PUSH2 0x1604 DUP2 DUP5 PUSH2 0x15B4 JUMP JUMPDEST SWAP1 POP SWAP3 SWAP2 POP POP JUMP JUMPDEST PUSH0 DUP1 REVERT JUMPDEST PUSH0 PUSH20 0xFFFFFFFFFFFFFFFFFFFFFFFFFFFFFFFFFFFFFFFF DUP3 AND SWAP1 POP SWAP2 SWAP1 POP JUMP JUMPDEST PUSH0 PUSH2 0x1639 DUP3 PUSH2 0x1610 JUMP JUMPDEST SWAP1 POP SWAP2 SWAP1 POP JUMP JUMPDEST PUSH2 0x1649 DUP2 PUSH2 0x162F JUMP JUMPDEST DUP2 EQ PUSH2 0x1653 JUMPI PUSH0 DUP1 REVERT JUMPDEST POP JUMP JUMPDEST PUSH0 DUP2 CALLDATALOAD SWAP1 POP PUSH2 0x1664 DUP2 PUSH2 0x1640 JUMP JUMPDEST SWAP3 SWAP2 POP POP JUMP JUMPDEST PUSH0 DUP2 SWAP1 POP SWAP2 SWAP1 POP JUMP JUMPDEST PUSH2 0x167C DUP2 PUSH2 0x166A JUMP JUMPDEST DUP2 EQ PUSH2 0x1686 JUMPI PUSH0 DUP1 REVERT JUMPDEST POP JUMP JUMPDEST PUSH0 DUP2 CALLDATALOAD SWAP1 POP PUSH2 0x1697 DUP2 PUSH2 0x1673 JUMP JUMPDEST SWAP3 SWAP2 POP POP JUMP JUMPDEST PUSH0 DUP1 PUSH1 0x40 DUP4 DUP6 SUB SLT ISZERO PUSH2 0x16B3 JUMPI PUSH2 0x16B2 PUSH2 0x160C JUMP JUMPDEST JUMPDEST PUSH0 PUSH2 0x16C0 DUP6 DUP3 DUP7 ADD PUSH2 0x1656 JUMP JUMPDEST SWAP3 POP POP PUSH1 0x20 PUSH2 0x16D1 DUP6 DUP3 DUP7 ADD PUSH2 0x1689 JUMP JUMPDEST SWAP2 POP POP SWAP3 POP SWAP3 SWAP1 POP JUMP JUMPDEST PUSH0 DUP2 ISZERO ISZERO SWAP1 POP SWAP2 SWAP1 POP JUMP JUMPDEST PUSH2 0x16EF DUP2 PUSH2 0x16DB JUMP JUMPDEST DUP3 MSTORE POP POP JUMP JUMPDEST PUSH0 PUSH1 0x20 DUP3 ADD SWAP1 POP PUSH2 0x1708 PUSH0 DUP4 ADD DUP5 PUSH2 0x16E6 JUMP JUMPDEST SWAP3 SWAP2 POP POP JUMP JUMPDEST PUSH2 0x1717 DUP2 PUSH2 0x166A JUMP JUMPDEST DUP3 MSTORE POP POP JUMP JUMPDEST PUSH0 PUSH1 0x20 DUP3 ADD SWAP1 POP PUSH2 0x1730 PUSH0 DUP4 ADD DUP5 PUSH2 0x170E JUMP JUMPDEST SWAP3 SWAP2 POP POP JUMP JUMPDEST PUSH0 PUSH1 0x20 DUP3 DUP5 SUB SLT ISZERO PUSH2 0x174B JUMPI PUSH2 0x174A PUSH2 0x160C JUMP JUMPDEST JUMPDEST PUSH0 PUSH2 0x1758 DUP5 DUP3 DUP6 ADD PUSH2 0x1656 JUMP JUMPDEST SWAP2 POP POP SWAP3 SWAP2 POP POP JUMP JUMPDEST PUSH0 DUP1 PUSH0 PUSH1 0x60 DUP5 DUP7 SUB SLT ISZERO PUSH2 0x1778 JUMPI PUSH2 0x1777 PUSH2 0x160C JUMP JUMPDEST JUMPDEST PUSH0 PUSH2 0x1785 DUP7 DUP3 DUP8 ADD PUSH2 0x1656 JUMP JUMPDEST SWAP4 POP POP PUSH1 0x20 PUSH2 0x1796 DUP7 DUP3 DUP8 ADD PUSH2 0x1656 JUMP JUMPDEST SWAP3 POP POP PUSH1 0x40 PUSH2 0x17A7 DUP7 DUP3 DUP8 ADD PUSH2 0x1689 JUMP JUMPDEST SWAP2 POP POP SWAP3 POP SWAP3 POP SWAP3 JUMP JUMPDEST PUSH0 PUSH1 0xFF DUP3 AND SWAP1 POP SWAP2 SWAP1 POP JUMP JUMPDEST PUSH2 0x17C6 DUP2 PUSH2 0x17B1 JUMP JUMPDEST DUP3 MSTORE POP POP JUMP JUMPDEST PUSH0 PUSH1 0x20 DUP3 ADD SWAP1 POP PUSH2 0x17DF PUSH0 DUP4 ADD DUP5 PUSH2 0x17BD JUMP JUMPDEST SWAP3 SWAP2 POP POP JUMP JUMPDEST PUSH0 PUSH1 0x20 DUP3 DUP5 SUB SLT ISZERO PUSH2 0x17FA JUMPI PUSH2 0x17F9 PUSH2 0x160C JUMP JUMPDEST JUMPDEST PUSH0 PUSH2 0x1807 DUP5 DUP3 DUP6 ADD PUSH2 0x1689 JUMP JUMPDEST SWAP2 POP POP SWAP3 SWAP2 POP POP JUMP JUMPDEST PUSH2 0x1819 DUP2 PUSH2 0x162F JUMP JUMPDEST DUP3 MSTORE POP POP JUMP JUMPDEST PUSH0 PUSH1 0x20 DUP3 ADD SWAP1 POP PUSH2 0x1832 PUSH0 DUP4 ADD DUP5 PUSH2 0x1810 JUMP JUMPDEST SWAP3 SWAP2 POP POP JUMP JUMPDEST PUSH0 DUP1 PUSH1 0x40 DUP4 DUP6 SUB SLT ISZERO PUSH2 0x184E JUMPI PUSH2 0x184D PUSH2 0x160C JUMP JUMPDEST JUMPDEST PUSH0 PUSH2 0x185B DUP6 DUP3 DUP7 ADD PUSH2 0x1656 JUMP JUMPDEST SWAP3 POP POP PUSH1 0x20 PUSH2 0x186C DUP6 DUP3 DUP7 ADD PUSH2 0x1656 JUMP JUMPDEST SWAP2 POP POP SWAP3 POP SWAP3 SWAP1 POP JUMP JUMPDEST PUSH32 0x4E487B7100000000000000000000000000000000000000000000000000000000 PUSH0 MSTORE PUSH1 0x22 PUSH1 0x4 MSTORE PUSH1 0x24 PUSH0 REVERT JUMPDEST PUSH0 PUSH1 0x2 DUP3 DIV SWAP1 POP PUSH1 0x1 DUP3 AND DUP1 PUSH2 0x18BA JUMPI PUSH1 0x7F DUP3 AND SWAP2 POP JUMPDEST PUSH1 0x20 DUP3 LT DUP2 SUB PUSH2 0x18CD JUMPI PUSH2 0x18CC PUSH2 0x1876 JUMP JUMPDEST JUMPDEST POP SWAP2 SWAP1 POP JUMP JUMPDEST PUSH32 0x6E6F7420636F6E74726F6C6C696E672070617274790000000000000000000000 PUSH0 DUP3 ADD MSTORE POP JUMP JUMPDEST PUSH0 PUSH2 0x1907 PUSH1 0x15 DUP4 PUSH2 0x156C JUMP JUMPDEST SWAP2 POP PUSH2 0x1912 DUP3 PUSH2 0x18D3 JUMP JUMPDEST PUSH1 0x20 DUP3 ADD SWAP1 POP SWAP2 SWAP1 POP JUMP JUMPDEST PUSH0 PUSH1 0x20 DUP3 ADD SWAP1 POP DUP2 DUP2 SUB PUSH0 DUP4 ADD MSTORE PUSH2 0x1934 DUP2 PUSH2 0x18FB JUMP JUMPDEST SWAP1 POP SWAP2 SWAP1 POP JUMP JUMPDEST PUSH0 PUSH1 0x40 DUP3 ADD SWAP1 POP PUSH2 0x194E PUSH0 DUP4 ADD DUP6 PUSH2 0x1810 JUMP JUMPDEST PUSH2 0x195B PUSH1 0x20 DUP4 ADD DUP5 PUSH2 0x1810 JUMP JUMPDEST SWAP4 SWAP3 POP POP POP JUMP JUMPDEST PUSH32 0x4E487B7100000000000000000000000000000000000000000000000000000000 PUSH0 MSTORE PUSH1 0x11 PUSH1 0x4 MSTORE PUSH1 0x24 PUSH0 REVERT JUMPDEST PUSH0 PUSH2 0x1999 DUP3 PUSH2 0x166A JUMP JUMPDEST SWAP2 POP PUSH2 0x19A4 DUP4 PUSH2 0x166A JUMP JUMPDEST SWAP3 POP DUP3 DUP3 ADD SWAP1 POP DUP1 DUP3 GT ISZERO PUSH2 0x19BC JUMPI PUSH2 0x19BB PUSH2 0x1962 JUMP JUMPDEST JUMPDEST SWAP3 SWAP2 POP POP JUMP JUMPDEST PUSH0 PUSH1 0x40 DUP3 ADD SWAP1 POP PUSH2 0x19D5 PUSH0 DUP4 ADD DUP6 PUSH2 0x170E JUMP JUMPDEST PUSH2 0x19E2 PUSH1 0x20 DUP4 ADD DUP5 PUSH2 0x170E JUMP JUMPDEST SWAP4 SWAP3 POP POP POP JUMP JUMPDEST PUSH32 0x45524332303A2064656372656173656420616C6C6F77616E63652062656C6F77 PUSH0 DUP3 ADD MSTORE PUSH32 0x207A65726F000000000000000000000000000000000000000000000000000000 PUSH1 0x20 DUP3 ADD MSTORE POP JUMP JUMPDEST PUSH0 PUSH2 0x1A43 PUSH1 0x25 DUP4 PUSH2 0x156C JUMP JUMPDEST SWAP2 POP PUSH2 0x1A4E DUP3 PUSH2 0x19E9 JUMP JUMPDEST PUSH1 0x40 DUP3 ADD SWAP1 POP SWAP2 SWAP1 POP JUMP JUMPDEST PUSH0 PUSH1 0x20 DUP3 ADD SWAP1 POP DUP2 DUP2 SUB PUSH0 DUP4 ADD MSTORE PUSH2 0x1A70 DUP2 PUSH2 0x1A37 JUMP JUMPDEST SWAP1 POP SWAP2 SWAP1 POP JUMP JUMPDEST PUSH32 0x7573657220697320626C61636B6C697374656400000000000000000000000000 PUSH0 DUP3 ADD MSTORE POP JUMP JUMPDEST PUSH0 PUSH2 0x1AAB PUSH1 0x13 DUP4 PUSH2 0x156C JUMP JUMPDEST SWAP2 POP PUSH2 0x1AB6 DUP3 PUSH2 0x1A77 JUMP JUMPDEST PUSH1 0x20 DUP3 ADD SWAP1 POP SWAP2 SWAP1 POP JUMP JUMPDEST PUSH0 PUSH1 0x20 DUP3 ADD SWAP1 POP DUP2 DUP2 SUB PUSH0 DUP4 ADD MSTORE PUSH2 0x1AD8 DUP2 PUSH2 0x1A9F JUMP JUMPDEST SWAP1 POP SWAP2 SWAP1 POP JUMP JUMPDEST PUSH0 PUSH2 0x1AE9 DUP3 PUSH2 0x166A JUMP JUMPDEST SWAP2 POP PUSH2 0x1AF4 DUP4 PUSH2 0x166A JUMP JUMPDEST SWAP3 POP DUP3 DUP3 MUL PUSH2 0x1B02 DUP2 PUSH2 0x166A JUMP JUMPDEST SWAP2 POP DUP3 DUP3 DIV DUP5 EQ DUP4 ISZERO OR PUSH2 0x1B19 JUMPI PUSH2 0x1B18 PUSH2 0x1962 JUMP JUMPDEST JUMPDEST POP SWAP3 SWAP2 POP POP JUMP JUMPDEST PUSH0 PUSH2 0x1B2A DUP3 PUSH2 0x166A JUMP JUMPDEST SWAP2 POP PUSH2 0x1B35 DUP4 PUSH2 0x166A JUMP JUMPDEST SWAP3 POP DUP3 DUP3 SUB SWAP1 POP DUP2 DUP2 GT ISZERO PUSH2 0x1B4D JUMPI PUSH2 0x1B4C PUSH2 0x1962 JUMP JUMPDEST JUMPDEST SWAP3 SWAP2 POP POP JUMP JUMPDEST PUSH32 0x4E487B7100000000000000000000000000000000000000000000000000000000 PUSH0 MSTORE PUSH1 0x12 PUSH1 0x4 MSTORE PUSH1 0x24 PUSH0 REVERT JUMPDEST PUSH0 PUSH2 0x1B8A DUP3 PUSH2 0x166A JUMP JUMPDEST SWAP2 POP PUSH2 0x1B95 DUP4 PUSH2 0x166A JUMP JUMPDEST SWAP3 POP DUP3 PUSH2 0x1BA5 JUMPI PUSH2 0x1BA4 PUSH2 0x1B53 JUMP JUMPDEST JUMPDEST DUP3 DUP3 DIV SWAP1 POP SWAP3 SWAP2 POP POP JUMP JUMPDEST PUSH0 PUSH1 0x40 DUP3 ADD SWAP1 POP PUSH2 0x1BC3 PUSH0 DUP4 ADD DUP6 PUSH2 0x1810 JUMP JUMPDEST PUSH2 0x1BD0 PUSH1 0x20 DUP4 ADD DUP5 PUSH2 0x170E JUMP JUMPDEST SWAP4 SWAP3 POP POP POP JUMP JUMPDEST PUSH32 0x45524332303A20617070726F76652066726F6D20746865207A65726F20616464 PUSH0 DUP3 ADD MSTORE PUSH32 0x7265737300000000000000000000000000000000000000000000000000000000 PUSH1 0x20 DUP3 ADD MSTORE POP JUMP JUMPDEST PUSH0 PUSH2 0x1C31 PUSH1 0x24 DUP4 PUSH2 0x156C JUMP JUMPDEST SWAP2 POP PUSH2 0x1C3C DUP3 PUSH2 0x1BD7 JUMP JUMPDEST PUSH1 0x40 DUP3 ADD SWAP1 POP SWAP2 SWAP1 POP JUMP JUMPDEST PUSH0 PUSH1 0x20 DUP3 ADD SWAP1 POP DUP2 DUP2 SUB PUSH0 DUP4 ADD MSTORE PUSH2 0x1C5E DUP2 PUSH2 0x1C25 JUMP JUMPDEST SWAP1 POP SWAP2 SWAP1 POP JUMP JUMPDEST PUSH32 0x45524332303A20617070726F766520746F20746865207A65726F206164647265 PUSH0 DUP3 ADD MSTORE PUSH32 0x7373000000000000000000000000000000000000000000000000000000000000 PUSH1 0x20 DUP3 ADD MSTORE POP JUMP JUMPDEST PUSH0 PUSH2 0x1CBF PUSH1 0x22 DUP4 PUSH2 0x156C JUMP JUMPDEST SWAP2 POP PUSH2 0x1CCA DUP3 PUSH2 0x1C65 JUMP JUMPDEST PUSH1 0x40 DUP3 ADD SWAP1 POP SWAP2 SWAP1 POP JUMP JUMPDEST PUSH0 PUSH1 0x20 DUP3 ADD SWAP1 POP DUP2 DUP2 SUB PUSH0 DUP4 ADD MSTORE PUSH2 0x1CEC DUP2 PUSH2 0x1CB3 JUMP JUMPDEST SWAP1 POP SWAP2 SWAP1 POP JUMP JUMPDEST PUSH32 0x45524332303A20696E73756666696369656E7420616C6C6F77616E6365000000 PUSH0 DUP3 ADD MSTORE POP JUMP JUMPDEST PUSH0 PUSH2 0x1D27 PUSH1 0x1D DUP4 PUSH2 0x156C JUMP JUMPDEST SWAP2 POP PUSH2 0x1D32 DUP3 PUSH2 0x1CF3 JUMP JUMPDEST PUSH1 0x20 DUP3 ADD SWAP1 POP SWAP2 SWAP1 POP JUMP JUMPDEST PUSH0 PUSH1 0x20 DUP3 ADD SWAP1 POP DUP2 DUP2 SUB PUSH0 DUP4 ADD MSTORE PUSH2 0x1D54 DUP2 PUSH2 0x1D1B JUMP JUMPDEST SWAP1 POP SWAP2 SWAP1 POP JUMP JUMPDEST PUSH32 0x66726F6D207573657220697320626C61636B6C69737465640000000000000000 PUSH0 DUP3 ADD MSTORE POP JUMP JUMPDEST PUSH0 PUSH2 0x1D8F PUSH1 0x18 DUP4 PUSH2 0x156C JUMP JUMPDEST SWAP2 POP PUSH2 0x1D9A DUP3 PUSH2 0x1D5B JUMP JUMPDEST PUSH1 0x20 DUP3 ADD SWAP1 POP SWAP2 SWAP1 POP JUMP JUMPDEST PUSH0 PUSH1 0x20 DUP3 ADD SWAP1 POP DUP2 DUP2 SUB PUSH0 DUP4 ADD MSTORE PUSH2 0x1DBC DUP2 PUSH2 0x1D83 JUMP JUMPDEST SWAP1 POP SWAP2 SWAP1 POP JUMP JUMPDEST PUSH32 0x746F207573657220697320626C61636B6C697374656400000000000000000000 PUSH0 DUP3 ADD MSTORE POP JUMP JUMPDEST PUSH0 PUSH2 0x1DF7 PUSH1 0x16 DUP4 PUSH2 0x156C JUMP JUMPDEST SWAP2 POP PUSH2 0x1E02 DUP3 PUSH2 0x1DC3 JUMP JUMPDEST PUSH1 0x20 DUP3 ADD SWAP1 POP SWAP2 SWAP1 POP JUMP JUMPDEST PUSH0 PUSH1 0x20 DUP3 ADD SWAP1 POP DUP2 DUP2 SUB PUSH0 DUP4 ADD MSTORE PUSH2 0x1E24 DUP2 PUSH2 0x1DEB JUMP JUMPDEST SWAP1 POP SWAP2 SWAP1 POP JUMP JUMPDEST PUSH32 0x45524332303A206D696E7420746F20746865207A65726F206164647265737300 PUSH0 DUP3 ADD MSTORE POP JUMP JUMPDEST PUSH0 PUSH2 0x1E5F PUSH1 0x1F DUP4 PUSH2 0x156C JUMP JUMPDEST SWAP2 POP PUSH2 0x1E6A DUP3 PUSH2 0x1E2B JUMP JUMPDEST PUSH1 0x20 DUP3 ADD SWAP1 POP SWAP2 SWAP1 POP JUMP JUMPDEST PUSH0 PUSH1 0x20 DUP3 ADD SWAP1 POP DUP2 DUP2 SUB PUSH0 DUP4 ADD MSTORE PUSH2 0x1E8C DUP2 PUSH2 0x1E53 JUMP JUMPDEST SWAP1 POP SWAP2 SWAP1 POP JUMP JUMPDEST PUSH32 0x45524332303A207472616E736665722066726F6D20746865207A65726F206164 PUSH0 DUP3 ADD MSTORE PUSH32 0x6472657373000000000000000000000000000000000000000000000000000000 PUSH1 0x20 DUP3 ADD MSTORE POP JUMP JUMPDEST PUSH0 PUSH2 0x1EED PUSH1 0x25 DUP4 PUSH2 0x156C JUMP JUMPDEST SWAP2 POP PUSH2 0x1EF8 DUP3 PUSH2 0x1E93 JUMP JUMPDEST PUSH1 0x40 DUP3 ADD SWAP1 POP SWAP2 SWAP1 POP JUMP JUMPDEST PUSH0 PUSH1 0x20 DUP3 ADD SWAP1 POP DUP2 DUP2 SUB PUSH0 DUP4 ADD MSTORE PUSH2 0x1F1A DUP2 PUSH2 0x1EE1 JUMP JUMPDEST SWAP1 POP SWAP2 SWAP1 POP JUMP JUMPDEST PUSH32 0x45524332303A207472616E7366657220746F20746865207A65726F2061646472 PUSH0 DUP3 ADD MSTORE PUSH32 0x6573730000000000000000000000000000000000000000000000000000000000 PUSH1 0x20 DUP3 ADD MSTORE POP JUMP JUMPDEST PUSH0 PUSH2 0x1F7B PUSH1 0x23 DUP4 PUSH2 0x156C JUMP JUMPDEST SWAP2 POP PUSH2 0x1F86 DUP3 PUSH2 0x1F21 JUMP JUMPDEST PUSH1 0x40 DUP3 ADD SWAP1 POP SWAP2 SWAP1 POP JUMP JUMPDEST PUSH0 PUSH1 0x20 DUP3 ADD SWAP1 POP DUP2 DUP2 SUB PUSH0 DUP4 ADD MSTORE PUSH2 0x1FA8 DUP2 PUSH2 0x1F6F JUMP JUMPDEST SWAP1 POP SWAP2 SWAP1 POP JUMP JUMPDEST PUSH32 0x45524332303A207472616E7366657220616D6F756E7420657863656564732062 PUSH0 DUP3 ADD MSTORE PUSH32 0x616C616E63650000000000000000000000000000000000000000000000000000 PUSH1 0x20 DUP3 ADD MSTORE POP JUMP JUMPDEST PUSH0 PUSH2 0x2009 PUSH1 0x26 DUP4 PUSH2 0x156C JUMP JUMPDEST SWAP2 POP PUSH2 0x2014 DUP3 PUSH2 0x1FAF JUMP JUMPDEST PUSH1 0x40 DUP3 ADD SWAP1 POP SWAP2 SWAP1 POP JUMP JUMPDEST PUSH0 PUSH1 0x20 DUP3 ADD SWAP1 POP DUP2 DUP2 SUB PUSH0 DUP4 ADD MSTORE PUSH2 0x2036 DUP2 PUSH2 0x1FFD JUMP JUMPDEST SWAP1 POP SWAP2 SWAP1 POP JUMP INVALID LOG2 PUSH5 0x6970667358 0x22 SLT KECCAK256 PUSH1 0xB8 0xDF 0xB1 EXP 0xB9 SWAP14 0x5D SWAP5 PUSH20 0x9278C7B022EBFDEF786F47E71C4CEFA0FEF0982F STATICCALL PUSH18 0x64736F6C6343000814003300000000000000 "
				},
				"gasEstimates": {
					"creation": {
						"codeDepositCost": "1661400",
						"executionCost": "infinite",
						"totalCost": "infinite"
					},
					"external": {
						"allowance(address,address)": "infinite",
						"approve(address,uint256)": "infinite",
						"balanceOf(address)": "2940",
						"blacklist(address)": "2943",
						"controllingParty()": "2553",
						"decimals()": "405",
						"decreaseAllowance(address,uint256)": "infinite",
						"increaseAllowance(address,uint256)": "infinite",
						"increaseMoneySupply(uint256)": "infinite",
						"interestRateBasisPoints()": "2537",
						"name()": "infinite",
						"stakeCBDC(uint256)": "infinite",
						"stakeTime(address)": "2892",
						"symbol()": "infinite",
						"totalSupply()": "2500",
						"transfer(address,uint256)": "infinite",
						"transferFrom(address,address,uint256)": "infinite",
						"unstakeCBDC()": "infinite",
						"updateControllingParty(address)": "infinite",
						"updateInterestRate(uint256)": "infinite"
					},
					"internal": {
						"_transfer(address,address,uint256)": "infinite"
					}
				},
				"methodIdentifiers": {
					"allowance(address,address)": "dd62ed3e",
					"approve(address,uint256)": "095ea7b3",
					"balanceOf(address)": "70a08231",
					"blacklist(address)": "f9f92be4",
					"controllingParty()": "91e93eba",
					"decimals()": "313ce567",
					"decreaseAllowance(address,uint256)": "a457c2d7",
					"increaseAllowance(address,uint256)": "39509351",
					"increaseMoneySupply(uint256)": "ab654f18",
					"interestRateBasisPoints()": "2322abf3",
					"name()": "06fdde03",
					"stakeCBDC(uint256)": "eb4b734c",
					"stakeTime(address)": "2170e472",
					"symbol()": "95d89b41",
					"totalSupply()": "18160ddd",
					"transfer(address,uint256)": "a9059cbb",
					"transferFrom(address,address,uint256)": "23b872dd",
					"unstakeCBDC()": "b3b2c7be",
					"updateControllingParty(address)": "2e695608",
					"updateInterestRate(uint256)": "752a50a6"
				}
			},
			"storageLayout": {
				"storage": [
					{
						"astId": 15,
						"contract": "CBDC.sol:CBDC",
						"label": "_balances",
						"offset": 0,
						"slot": "0",
						"type": "t_mapping(t_address,t_uint256)"
					},
					{
						"astId": 21,
						"contract": "CBDC.sol:CBDC",
						"label": "_allowances",
						"offset": 0,
						"slot": "1",
						"type": "t_mapping(t_address,t_mapping(t_address,t_uint256))"
					},
					{
						"astId": 23,
						"contract": "CBDC.sol:CBDC",
						"label": "_totalSupply",
						"offset": 0,
						"slot": "2",
						"type": "t_uint256"
					},
					{
						"astId": 25,
						"contract": "CBDC.sol:CBDC",
						"label": "_name",
						"offset": 0,
						"slot": "3",
						"type": "t_string_storage"
					},
					{
						"astId": 27,
						"contract": "CBDC.sol:CBDC",
						"label": "_symbol",
						"offset": 0,
						"slot": "4",
						"type": "t_string_storage"
					},
					{
						"astId": 718,
						"contract": "CBDC.sol:CBDC",
						"label": "controllingParty",
						"offset": 0,
						"slot": "5",
						"type": "t_address"
					},
					{
						"astId": 721,
						"contract": "CBDC.sol:CBDC",
						"label": "interestRateBasisPoints",
						"offset": 0,
						"slot": "6",
						"type": "t_uint256"
					},
					{
						"astId": 725,
						"contract": "CBDC.sol:CBDC",
						"label": "blacklist",
						"offset": 0,
						"slot": "7",
						"type": "t_mapping(t_address,t_bool)"
					},
					{
						"astId": 729,
						"contract": "CBDC.sol:CBDC",
						"label": "stakedTreasuryBond",
						"offset": 0,
						"slot": "8",
						"type": "t_mapping(t_address,t_uint256)"
					},
					{
						"astId": 733,
						"contract": "CBDC.sol:CBDC",
						"label": "stakedFromTS",
						"offset": 0,
						"slot": "9",
						"type": "t_mapping(t_address,t_uint256)"
					},
					{
						"astId": 737,
						"contract": "CBDC.sol:CBDC",
						"label": "stakeTime",
						"offset": 0,
						"slot": "10",
						"type": "t_mapping(t_address,t_uint256)"
					}
				],
				"types": {
					"t_address": {
						"encoding": "inplace",
						"label": "address",
						"numberOfBytes": "20"
					},
					"t_bool": {
						"encoding": "inplace",
						"label": "bool",
						"numberOfBytes": "1"
					},
					"t_mapping(t_address,t_bool)": {
						"encoding": "mapping",
						"key": "t_address",
						"label": "mapping(address => bool)",
						"numberOfBytes": "32",
						"value": "t_bool"
					},
					"t_mapping(t_address,t_mapping(t_address,t_uint256))": {
						"encoding": "mapping",
						"key": "t_address",
						"label": "mapping(address => mapping(address => uint256))",
						"numberOfBytes": "32",
						"value": "t_mapping(t_address,t_uint256)"
					},
					"t_mapping(t_address,t_uint256)": {
						"encoding": "mapping",
						"key": "t_address",
						"label": "mapping(address => uint256)",
						"numberOfBytes": "32",
						"value": "t_uint256"
					},
					"t_string_storage": {
						"encoding": "bytes",
						"label": "string",
						"numberOfBytes": "32"
					},
					"t_uint256": {
						"encoding": "inplace",
						"label": "uint256",
						"numberOfBytes": "32"
					}
				}
			},
			"userdoc": {
				"kind": "user",
				"methods": {},
				"version": 1
			}
		}
	}
}